
servo.elf:     file format elf32-littlearm

Sections:
Idx Name          Size      VMA       LMA       File off  Algn
  0 .isr_vector   00000188  08000000  08000000  00010000  2**0
                  CONTENTS, ALLOC, LOAD, READONLY, DATA
  1 .text         00002708  08000188  08000188  00010188  2**2
                  CONTENTS, ALLOC, LOAD, READONLY, CODE
  2 .rodata       00000010  08002890  08002890  00012890  2**2
                  CONTENTS, ALLOC, LOAD, READONLY, DATA
  3 .ARM.extab    00000000  080028a0  080028a0  0002000c  2**0
                  CONTENTS
  4 .ARM          00000008  080028a0  080028a0  000128a0  2**2
                  CONTENTS, ALLOC, LOAD, READONLY, DATA
  5 .preinit_array 00000000  080028a8  080028a8  0002000c  2**0
                  CONTENTS, ALLOC, LOAD, DATA
  6 .init_array   00000004  080028a8  080028a8  000128a8  2**2
                  CONTENTS, ALLOC, LOAD, DATA
  7 .fini_array   00000004  080028ac  080028ac  000128ac  2**2
                  CONTENTS, ALLOC, LOAD, DATA
  8 .data         0000000c  20000000  080028b0  00020000  2**2
                  CONTENTS, ALLOC, LOAD, DATA
  9 .ccmram       00000000  10000000  10000000  0002000c  2**0
                  CONTENTS
 10 .bss          00000068  2000000c  2000000c  0002000c  2**2
                  ALLOC
 11 ._user_heap_stack 00000604  20000074  20000074  0002000c  2**0
                  ALLOC
 12 .ARM.attributes 00000030  00000000  00000000  0002000c  2**0
                  CONTENTS, READONLY
 13 .debug_info   000090b4  00000000  00000000  0002003c  2**0
                  CONTENTS, READONLY, DEBUGGING, OCTETS
 14 .debug_abbrev 0000150d  00000000  00000000  000290f0  2**0
                  CONTENTS, READONLY, DEBUGGING, OCTETS
 15 .debug_aranges 00000950  00000000  00000000  0002a600  2**3
                  CONTENTS, READONLY, DEBUGGING, OCTETS
 16 .debug_ranges 000008a8  00000000  00000000  0002af50  2**3
                  CONTENTS, READONLY, DEBUGGING, OCTETS
 17 .debug_macro  0001fa96  00000000  00000000  0002b7f8  2**0
                  CONTENTS, READONLY, DEBUGGING, OCTETS
 18 .debug_line   00009bc4  00000000  00000000  0004b28e  2**0
                  CONTENTS, READONLY, DEBUGGING, OCTETS
 19 .debug_str    000c4643  00000000  00000000  00054e52  2**0
                  CONTENTS, READONLY, DEBUGGING, OCTETS
 20 .comment      00000050  00000000  00000000  00119495  2**0
                  CONTENTS, READONLY
 21 .debug_frame  000026c0  00000000  00000000  001194e8  2**2
                  CONTENTS, READONLY, DEBUGGING, OCTETS

Disassembly of section .text:

08000188 <__do_global_dtors_aux>:
 8000188:	b510      	push	{r4, lr}
 800018a:	4c05      	ldr	r4, [pc, #20]	; (80001a0 <__do_global_dtors_aux+0x18>)
 800018c:	7823      	ldrb	r3, [r4, #0]
 800018e:	b933      	cbnz	r3, 800019e <__do_global_dtors_aux+0x16>
 8000190:	4b04      	ldr	r3, [pc, #16]	; (80001a4 <__do_global_dtors_aux+0x1c>)
 8000192:	b113      	cbz	r3, 800019a <__do_global_dtors_aux+0x12>
 8000194:	4804      	ldr	r0, [pc, #16]	; (80001a8 <__do_global_dtors_aux+0x20>)
 8000196:	f3af 8000 	nop.w
 800019a:	2301      	movs	r3, #1
 800019c:	7023      	strb	r3, [r4, #0]
 800019e:	bd10      	pop	{r4, pc}
 80001a0:	2000000c 	.word	0x2000000c
 80001a4:	00000000 	.word	0x00000000
 80001a8:	08002878 	.word	0x08002878

080001ac <frame_dummy>:
 80001ac:	b508      	push	{r3, lr}
 80001ae:	4b03      	ldr	r3, [pc, #12]	; (80001bc <frame_dummy+0x10>)
 80001b0:	b11b      	cbz	r3, 80001ba <frame_dummy+0xe>
 80001b2:	4903      	ldr	r1, [pc, #12]	; (80001c0 <frame_dummy+0x14>)
 80001b4:	4803      	ldr	r0, [pc, #12]	; (80001c4 <frame_dummy+0x18>)
 80001b6:	f3af 8000 	nop.w
 80001ba:	bd08      	pop	{r3, pc}
 80001bc:	00000000 	.word	0x00000000
 80001c0:	20000010 	.word	0x20000010
 80001c4:	08002878 	.word	0x08002878

080001c8 <__aeabi_uldivmod>:
 80001c8:	b953      	cbnz	r3, 80001e0 <__aeabi_uldivmod+0x18>
 80001ca:	b94a      	cbnz	r2, 80001e0 <__aeabi_uldivmod+0x18>
 80001cc:	2900      	cmp	r1, #0
 80001ce:	bf08      	it	eq
 80001d0:	2800      	cmpeq	r0, #0
 80001d2:	bf1c      	itt	ne
 80001d4:	f04f 31ff 	movne.w	r1, #4294967295
 80001d8:	f04f 30ff 	movne.w	r0, #4294967295
 80001dc:	f000 b974 	b.w	80004c8 <__aeabi_idiv0>
 80001e0:	f1ad 0c08 	sub.w	ip, sp, #8
 80001e4:	e96d ce04 	strd	ip, lr, [sp, #-16]!
 80001e8:	f000 f806 	bl	80001f8 <__udivmoddi4>
 80001ec:	f8dd e004 	ldr.w	lr, [sp, #4]
 80001f0:	e9dd 2302 	ldrd	r2, r3, [sp, #8]
 80001f4:	b004      	add	sp, #16
 80001f6:	4770      	bx	lr

080001f8 <__udivmoddi4>:
 80001f8:	e92d 47f0 	stmdb	sp!, {r4, r5, r6, r7, r8, r9, sl, lr}
 80001fc:	9d08      	ldr	r5, [sp, #32]
 80001fe:	4604      	mov	r4, r0
 8000200:	468e      	mov	lr, r1
 8000202:	2b00      	cmp	r3, #0
 8000204:	d14d      	bne.n	80002a2 <__udivmoddi4+0xaa>
 8000206:	428a      	cmp	r2, r1
 8000208:	4694      	mov	ip, r2
 800020a:	d969      	bls.n	80002e0 <__udivmoddi4+0xe8>
 800020c:	fab2 f282 	clz	r2, r2
 8000210:	b152      	cbz	r2, 8000228 <__udivmoddi4+0x30>
 8000212:	fa01 f302 	lsl.w	r3, r1, r2
 8000216:	f1c2 0120 	rsb	r1, r2, #32
 800021a:	fa20 f101 	lsr.w	r1, r0, r1
 800021e:	fa0c fc02 	lsl.w	ip, ip, r2
 8000222:	ea41 0e03 	orr.w	lr, r1, r3
 8000226:	4094      	lsls	r4, r2
 8000228:	ea4f 481c 	mov.w	r8, ip, lsr #16
 800022c:	0c21      	lsrs	r1, r4, #16
 800022e:	fbbe f6f8 	udiv	r6, lr, r8
 8000232:	fa1f f78c 	uxth.w	r7, ip
 8000236:	fb08 e316 	mls	r3, r8, r6, lr
 800023a:	ea41 4303 	orr.w	r3, r1, r3, lsl #16
 800023e:	fb06 f107 	mul.w	r1, r6, r7
 8000242:	4299      	cmp	r1, r3
 8000244:	d90a      	bls.n	800025c <__udivmoddi4+0x64>
 8000246:	eb1c 0303 	adds.w	r3, ip, r3
 800024a:	f106 30ff 	add.w	r0, r6, #4294967295
 800024e:	f080 811f 	bcs.w	8000490 <__udivmoddi4+0x298>
 8000252:	4299      	cmp	r1, r3
 8000254:	f240 811c 	bls.w	8000490 <__udivmoddi4+0x298>
 8000258:	3e02      	subs	r6, #2
 800025a:	4463      	add	r3, ip
 800025c:	1a5b      	subs	r3, r3, r1
 800025e:	b2a4      	uxth	r4, r4
 8000260:	fbb3 f0f8 	udiv	r0, r3, r8
 8000264:	fb08 3310 	mls	r3, r8, r0, r3
 8000268:	ea44 4403 	orr.w	r4, r4, r3, lsl #16
 800026c:	fb00 f707 	mul.w	r7, r0, r7
 8000270:	42a7      	cmp	r7, r4
 8000272:	d90a      	bls.n	800028a <__udivmoddi4+0x92>
 8000274:	eb1c 0404 	adds.w	r4, ip, r4
 8000278:	f100 33ff 	add.w	r3, r0, #4294967295
 800027c:	f080 810a 	bcs.w	8000494 <__udivmoddi4+0x29c>
 8000280:	42a7      	cmp	r7, r4
 8000282:	f240 8107 	bls.w	8000494 <__udivmoddi4+0x29c>
 8000286:	4464      	add	r4, ip
 8000288:	3802      	subs	r0, #2
 800028a:	ea40 4006 	orr.w	r0, r0, r6, lsl #16
 800028e:	1be4      	subs	r4, r4, r7
 8000290:	2600      	movs	r6, #0
 8000292:	b11d      	cbz	r5, 800029c <__udivmoddi4+0xa4>
 8000294:	40d4      	lsrs	r4, r2
 8000296:	2300      	movs	r3, #0
 8000298:	e9c5 4300 	strd	r4, r3, [r5]
 800029c:	4631      	mov	r1, r6
 800029e:	e8bd 87f0 	ldmia.w	sp!, {r4, r5, r6, r7, r8, r9, sl, pc}
 80002a2:	428b      	cmp	r3, r1
 80002a4:	d909      	bls.n	80002ba <__udivmoddi4+0xc2>
 80002a6:	2d00      	cmp	r5, #0
 80002a8:	f000 80ef 	beq.w	800048a <__udivmoddi4+0x292>
 80002ac:	2600      	movs	r6, #0
 80002ae:	e9c5 0100 	strd	r0, r1, [r5]
 80002b2:	4630      	mov	r0, r6
 80002b4:	4631      	mov	r1, r6
 80002b6:	e8bd 87f0 	ldmia.w	sp!, {r4, r5, r6, r7, r8, r9, sl, pc}
 80002ba:	fab3 f683 	clz	r6, r3
 80002be:	2e00      	cmp	r6, #0
 80002c0:	d14a      	bne.n	8000358 <__udivmoddi4+0x160>
 80002c2:	428b      	cmp	r3, r1
 80002c4:	d302      	bcc.n	80002cc <__udivmoddi4+0xd4>
 80002c6:	4282      	cmp	r2, r0
 80002c8:	f200 80f9 	bhi.w	80004be <__udivmoddi4+0x2c6>
 80002cc:	1a84      	subs	r4, r0, r2
 80002ce:	eb61 0303 	sbc.w	r3, r1, r3
 80002d2:	2001      	movs	r0, #1
 80002d4:	469e      	mov	lr, r3
 80002d6:	2d00      	cmp	r5, #0
 80002d8:	d0e0      	beq.n	800029c <__udivmoddi4+0xa4>
 80002da:	e9c5 4e00 	strd	r4, lr, [r5]
 80002de:	e7dd      	b.n	800029c <__udivmoddi4+0xa4>
 80002e0:	b902      	cbnz	r2, 80002e4 <__udivmoddi4+0xec>
 80002e2:	deff      	udf	#255	; 0xff
 80002e4:	fab2 f282 	clz	r2, r2
 80002e8:	2a00      	cmp	r2, #0
 80002ea:	f040 8092 	bne.w	8000412 <__udivmoddi4+0x21a>
 80002ee:	eba1 010c 	sub.w	r1, r1, ip
 80002f2:	ea4f 471c 	mov.w	r7, ip, lsr #16
 80002f6:	fa1f fe8c 	uxth.w	lr, ip
 80002fa:	2601      	movs	r6, #1
 80002fc:	0c20      	lsrs	r0, r4, #16
 80002fe:	fbb1 f3f7 	udiv	r3, r1, r7
 8000302:	fb07 1113 	mls	r1, r7, r3, r1
 8000306:	ea40 4101 	orr.w	r1, r0, r1, lsl #16
 800030a:	fb0e f003 	mul.w	r0, lr, r3
 800030e:	4288      	cmp	r0, r1
 8000310:	d908      	bls.n	8000324 <__udivmoddi4+0x12c>
 8000312:	eb1c 0101 	adds.w	r1, ip, r1
 8000316:	f103 38ff 	add.w	r8, r3, #4294967295
 800031a:	d202      	bcs.n	8000322 <__udivmoddi4+0x12a>
 800031c:	4288      	cmp	r0, r1
 800031e:	f200 80cb 	bhi.w	80004b8 <__udivmoddi4+0x2c0>
 8000322:	4643      	mov	r3, r8
 8000324:	1a09      	subs	r1, r1, r0
 8000326:	b2a4      	uxth	r4, r4
 8000328:	fbb1 f0f7 	udiv	r0, r1, r7
 800032c:	fb07 1110 	mls	r1, r7, r0, r1
 8000330:	ea44 4401 	orr.w	r4, r4, r1, lsl #16
 8000334:	fb0e fe00 	mul.w	lr, lr, r0
 8000338:	45a6      	cmp	lr, r4
 800033a:	d908      	bls.n	800034e <__udivmoddi4+0x156>
 800033c:	eb1c 0404 	adds.w	r4, ip, r4
 8000340:	f100 31ff 	add.w	r1, r0, #4294967295
 8000344:	d202      	bcs.n	800034c <__udivmoddi4+0x154>
 8000346:	45a6      	cmp	lr, r4
 8000348:	f200 80bb 	bhi.w	80004c2 <__udivmoddi4+0x2ca>
 800034c:	4608      	mov	r0, r1
 800034e:	eba4 040e 	sub.w	r4, r4, lr
 8000352:	ea40 4003 	orr.w	r0, r0, r3, lsl #16
 8000356:	e79c      	b.n	8000292 <__udivmoddi4+0x9a>
 8000358:	f1c6 0720 	rsb	r7, r6, #32
 800035c:	40b3      	lsls	r3, r6
 800035e:	fa22 fc07 	lsr.w	ip, r2, r7
 8000362:	ea4c 0c03 	orr.w	ip, ip, r3
 8000366:	fa20 f407 	lsr.w	r4, r0, r7
 800036a:	fa01 f306 	lsl.w	r3, r1, r6
 800036e:	431c      	orrs	r4, r3
 8000370:	40f9      	lsrs	r1, r7
 8000372:	ea4f 491c 	mov.w	r9, ip, lsr #16
 8000376:	fa00 f306 	lsl.w	r3, r0, r6
 800037a:	fbb1 f8f9 	udiv	r8, r1, r9
 800037e:	0c20      	lsrs	r0, r4, #16
 8000380:	fa1f fe8c 	uxth.w	lr, ip
 8000384:	fb09 1118 	mls	r1, r9, r8, r1
 8000388:	ea40 4101 	orr.w	r1, r0, r1, lsl #16
 800038c:	fb08 f00e 	mul.w	r0, r8, lr
 8000390:	4288      	cmp	r0, r1
 8000392:	fa02 f206 	lsl.w	r2, r2, r6
 8000396:	d90b      	bls.n	80003b0 <__udivmoddi4+0x1b8>
 8000398:	eb1c 0101 	adds.w	r1, ip, r1
 800039c:	f108 3aff 	add.w	sl, r8, #4294967295
 80003a0:	f080 8088 	bcs.w	80004b4 <__udivmoddi4+0x2bc>
 80003a4:	4288      	cmp	r0, r1
 80003a6:	f240 8085 	bls.w	80004b4 <__udivmoddi4+0x2bc>
 80003aa:	f1a8 0802 	sub.w	r8, r8, #2
 80003ae:	4461      	add	r1, ip
 80003b0:	1a09      	subs	r1, r1, r0
 80003b2:	b2a4      	uxth	r4, r4
 80003b4:	fbb1 f0f9 	udiv	r0, r1, r9
 80003b8:	fb09 1110 	mls	r1, r9, r0, r1
 80003bc:	ea44 4101 	orr.w	r1, r4, r1, lsl #16
 80003c0:	fb00 fe0e 	mul.w	lr, r0, lr
 80003c4:	458e      	cmp	lr, r1
 80003c6:	d908      	bls.n	80003da <__udivmoddi4+0x1e2>
 80003c8:	eb1c 0101 	adds.w	r1, ip, r1
 80003cc:	f100 34ff 	add.w	r4, r0, #4294967295
 80003d0:	d26c      	bcs.n	80004ac <__udivmoddi4+0x2b4>
 80003d2:	458e      	cmp	lr, r1
 80003d4:	d96a      	bls.n	80004ac <__udivmoddi4+0x2b4>
 80003d6:	3802      	subs	r0, #2
 80003d8:	4461      	add	r1, ip
 80003da:	ea40 4008 	orr.w	r0, r0, r8, lsl #16
 80003de:	fba0 9402 	umull	r9, r4, r0, r2
 80003e2:	eba1 010e 	sub.w	r1, r1, lr
 80003e6:	42a1      	cmp	r1, r4
 80003e8:	46c8      	mov	r8, r9
 80003ea:	46a6      	mov	lr, r4
 80003ec:	d356      	bcc.n	800049c <__udivmoddi4+0x2a4>
 80003ee:	d053      	beq.n	8000498 <__udivmoddi4+0x2a0>
 80003f0:	b15d      	cbz	r5, 800040a <__udivmoddi4+0x212>
 80003f2:	ebb3 0208 	subs.w	r2, r3, r8
 80003f6:	eb61 010e 	sbc.w	r1, r1, lr
 80003fa:	fa01 f707 	lsl.w	r7, r1, r7
 80003fe:	fa22 f306 	lsr.w	r3, r2, r6
 8000402:	40f1      	lsrs	r1, r6
 8000404:	431f      	orrs	r7, r3
 8000406:	e9c5 7100 	strd	r7, r1, [r5]
 800040a:	2600      	movs	r6, #0
 800040c:	4631      	mov	r1, r6
 800040e:	e8bd 87f0 	ldmia.w	sp!, {r4, r5, r6, r7, r8, r9, sl, pc}
 8000412:	f1c2 0320 	rsb	r3, r2, #32
 8000416:	40d8      	lsrs	r0, r3
 8000418:	fa0c fc02 	lsl.w	ip, ip, r2
 800041c:	fa21 f303 	lsr.w	r3, r1, r3
 8000420:	4091      	lsls	r1, r2
 8000422:	4301      	orrs	r1, r0
 8000424:	ea4f 471c 	mov.w	r7, ip, lsr #16
 8000428:	fa1f fe8c 	uxth.w	lr, ip
 800042c:	fbb3 f0f7 	udiv	r0, r3, r7
 8000430:	fb07 3610 	mls	r6, r7, r0, r3
 8000434:	0c0b      	lsrs	r3, r1, #16
 8000436:	ea43 4306 	orr.w	r3, r3, r6, lsl #16
 800043a:	fb00 f60e 	mul.w	r6, r0, lr
 800043e:	429e      	cmp	r6, r3
 8000440:	fa04 f402 	lsl.w	r4, r4, r2
 8000444:	d908      	bls.n	8000458 <__udivmoddi4+0x260>
 8000446:	eb1c 0303 	adds.w	r3, ip, r3
 800044a:	f100 38ff 	add.w	r8, r0, #4294967295
 800044e:	d22f      	bcs.n	80004b0 <__udivmoddi4+0x2b8>
 8000450:	429e      	cmp	r6, r3
 8000452:	d92d      	bls.n	80004b0 <__udivmoddi4+0x2b8>
 8000454:	3802      	subs	r0, #2
 8000456:	4463      	add	r3, ip
 8000458:	1b9b      	subs	r3, r3, r6
 800045a:	b289      	uxth	r1, r1
 800045c:	fbb3 f6f7 	udiv	r6, r3, r7
 8000460:	fb07 3316 	mls	r3, r7, r6, r3
 8000464:	ea41 4103 	orr.w	r1, r1, r3, lsl #16
 8000468:	fb06 f30e 	mul.w	r3, r6, lr
 800046c:	428b      	cmp	r3, r1
 800046e:	d908      	bls.n	8000482 <__udivmoddi4+0x28a>
 8000470:	eb1c 0101 	adds.w	r1, ip, r1
 8000474:	f106 38ff 	add.w	r8, r6, #4294967295
 8000478:	d216      	bcs.n	80004a8 <__udivmoddi4+0x2b0>
 800047a:	428b      	cmp	r3, r1
 800047c:	d914      	bls.n	80004a8 <__udivmoddi4+0x2b0>
 800047e:	3e02      	subs	r6, #2
 8000480:	4461      	add	r1, ip
 8000482:	1ac9      	subs	r1, r1, r3
 8000484:	ea46 4600 	orr.w	r6, r6, r0, lsl #16
 8000488:	e738      	b.n	80002fc <__udivmoddi4+0x104>
 800048a:	462e      	mov	r6, r5
 800048c:	4628      	mov	r0, r5
 800048e:	e705      	b.n	800029c <__udivmoddi4+0xa4>
 8000490:	4606      	mov	r6, r0
 8000492:	e6e3      	b.n	800025c <__udivmoddi4+0x64>
 8000494:	4618      	mov	r0, r3
 8000496:	e6f8      	b.n	800028a <__udivmoddi4+0x92>
 8000498:	454b      	cmp	r3, r9
 800049a:	d2a9      	bcs.n	80003f0 <__udivmoddi4+0x1f8>
 800049c:	ebb9 0802 	subs.w	r8, r9, r2
 80004a0:	eb64 0e0c 	sbc.w	lr, r4, ip
 80004a4:	3801      	subs	r0, #1
 80004a6:	e7a3      	b.n	80003f0 <__udivmoddi4+0x1f8>
 80004a8:	4646      	mov	r6, r8
 80004aa:	e7ea      	b.n	8000482 <__udivmoddi4+0x28a>
 80004ac:	4620      	mov	r0, r4
 80004ae:	e794      	b.n	80003da <__udivmoddi4+0x1e2>
 80004b0:	4640      	mov	r0, r8
 80004b2:	e7d1      	b.n	8000458 <__udivmoddi4+0x260>
 80004b4:	46d0      	mov	r8, sl
 80004b6:	e77b      	b.n	80003b0 <__udivmoddi4+0x1b8>
 80004b8:	3b02      	subs	r3, #2
 80004ba:	4461      	add	r1, ip
 80004bc:	e732      	b.n	8000324 <__udivmoddi4+0x12c>
 80004be:	4630      	mov	r0, r6
 80004c0:	e709      	b.n	80002d6 <__udivmoddi4+0xde>
 80004c2:	4464      	add	r4, ip
 80004c4:	3802      	subs	r0, #2
 80004c6:	e742      	b.n	800034e <__udivmoddi4+0x156>

080004c8 <__aeabi_idiv0>:
 80004c8:	4770      	bx	lr
 80004ca:	bf00      	nop

080004cc <main>:
/**
  * @brief  The application entry point.
  * @retval int
  */
int main(void)
{
 80004cc:	b580      	push	{r7, lr}
 80004ce:	af00      	add	r7, sp, #0
  /* USER CODE END 1 */

  /* MCU Configuration--------------------------------------------------------*/

  /* Reset of all peripherals, Initializes the Flash interface and the Systick. */
  HAL_Init();
 80004d0:	f000 fa2a 	bl	8000928 <HAL_Init>
  /* USER CODE BEGIN Init */

  /* USER CODE END Init */

  /* Configure the system clock */
  SystemClock_Config();
 80004d4:	f000 f824 	bl	8000520 <SystemClock_Config>
  /* USER CODE BEGIN SysInit */

  /* USER CODE END SysInit */

  /* Initialize all configured peripherals */
  MX_GPIO_Init();
 80004d8:	f000 f902 	bl	80006e0 <MX_GPIO_Init>
  MX_TIM2_Init();
 80004dc:	f000 f88a 	bl	80005f4 <MX_TIM2_Init>
  /* USER CODE BEGIN 2 */
  HAL_TIM_PWM_Start(&htim2, TIM_CHANNEL_1);
 80004e0:	2100      	movs	r1, #0
 80004e2:	480e      	ldr	r0, [pc, #56]	; (800051c <main+0x50>)
 80004e4:	f001 fa70 	bl	80019c8 <HAL_TIM_PWM_Start>
  /* Infinite loop */
  /* USER CODE BEGIN WHILE */
  while (1)
  {
    /* USER CODE END WHILE */
	  htim2.Instance->CCR1 = 25;  // duty cycle is .5 ms
 80004e8:	4b0c      	ldr	r3, [pc, #48]	; (800051c <main+0x50>)
 80004ea:	681b      	ldr	r3, [r3, #0]
 80004ec:	2219      	movs	r2, #25
 80004ee:	635a      	str	r2, [r3, #52]	; 0x34
	  HAL_Delay(500);
 80004f0:	f44f 70fa 	mov.w	r0, #500	; 0x1f4
 80004f4:	f000 fa8a 	bl	8000a0c <HAL_Delay>
	  htim2.Instance->CCR1 = 75;  // duty cycle is 1.5 ms
 80004f8:	4b08      	ldr	r3, [pc, #32]	; (800051c <main+0x50>)
 80004fa:	681b      	ldr	r3, [r3, #0]
 80004fc:	224b      	movs	r2, #75	; 0x4b
 80004fe:	635a      	str	r2, [r3, #52]	; 0x34
	  HAL_Delay(500);
 8000500:	f44f 70fa 	mov.w	r0, #500	; 0x1f4
 8000504:	f000 fa82 	bl	8000a0c <HAL_Delay>
	  htim2.Instance->CCR1 = 125;  // duty cycle is 2.5 ms
 8000508:	4b04      	ldr	r3, [pc, #16]	; (800051c <main+0x50>)
 800050a:	681b      	ldr	r3, [r3, #0]
 800050c:	227d      	movs	r2, #125	; 0x7d
 800050e:	635a      	str	r2, [r3, #52]	; 0x34
	  HAL_Delay(500);
 8000510:	f44f 70fa 	mov.w	r0, #500	; 0x1f4
 8000514:	f000 fa7a 	bl	8000a0c <HAL_Delay>
	  htim2.Instance->CCR1 = 25;  // duty cycle is .5 ms
 8000518:	e7e6      	b.n	80004e8 <main+0x1c>
 800051a:	bf00      	nop
 800051c:	20000028 	.word	0x20000028

08000520 <SystemClock_Config>:
/**
  * @brief System Clock Configuration
  * @retval None
  */
void SystemClock_Config(void)
{
 8000520:	b580      	push	{r7, lr}
 8000522:	b094      	sub	sp, #80	; 0x50
 8000524:	af00      	add	r7, sp, #0
  RCC_OscInitTypeDef RCC_OscInitStruct = {0};
 8000526:	f107 0320 	add.w	r3, r7, #32
 800052a:	2230      	movs	r2, #48	; 0x30
 800052c:	2100      	movs	r1, #0
 800052e:	4618      	mov	r0, r3
 8000530:	f002 f99a 	bl	8002868 <memset>
  RCC_ClkInitTypeDef RCC_ClkInitStruct = {0};
 8000534:	f107 030c 	add.w	r3, r7, #12
 8000538:	2200      	movs	r2, #0
 800053a:	601a      	str	r2, [r3, #0]
 800053c:	605a      	str	r2, [r3, #4]
 800053e:	609a      	str	r2, [r3, #8]
 8000540:	60da      	str	r2, [r3, #12]
 8000542:	611a      	str	r2, [r3, #16]

  /** Configure the main internal regulator output voltage
  */
  __HAL_RCC_PWR_CLK_ENABLE();
 8000544:	2300      	movs	r3, #0
 8000546:	60bb      	str	r3, [r7, #8]
 8000548:	4b28      	ldr	r3, [pc, #160]	; (80005ec <SystemClock_Config+0xcc>)
 800054a:	6c1b      	ldr	r3, [r3, #64]	; 0x40
 800054c:	4a27      	ldr	r2, [pc, #156]	; (80005ec <SystemClock_Config+0xcc>)
 800054e:	f043 5380 	orr.w	r3, r3, #268435456	; 0x10000000
 8000552:	6413      	str	r3, [r2, #64]	; 0x40
 8000554:	4b25      	ldr	r3, [pc, #148]	; (80005ec <SystemClock_Config+0xcc>)
 8000556:	6c1b      	ldr	r3, [r3, #64]	; 0x40
 8000558:	f003 5380 	and.w	r3, r3, #268435456	; 0x10000000
 800055c:	60bb      	str	r3, [r7, #8]
 800055e:	68bb      	ldr	r3, [r7, #8]
  __HAL_PWR_VOLTAGESCALING_CONFIG(PWR_REGULATOR_VOLTAGE_SCALE1);
 8000560:	2300      	movs	r3, #0
 8000562:	607b      	str	r3, [r7, #4]
 8000564:	4b22      	ldr	r3, [pc, #136]	; (80005f0 <SystemClock_Config+0xd0>)
 8000566:	681b      	ldr	r3, [r3, #0]
 8000568:	4a21      	ldr	r2, [pc, #132]	; (80005f0 <SystemClock_Config+0xd0>)
 800056a:	f443 4380 	orr.w	r3, r3, #16384	; 0x4000
 800056e:	6013      	str	r3, [r2, #0]
 8000570:	4b1f      	ldr	r3, [pc, #124]	; (80005f0 <SystemClock_Config+0xd0>)
 8000572:	681b      	ldr	r3, [r3, #0]
 8000574:	f403 4380 	and.w	r3, r3, #16384	; 0x4000
 8000578:	607b      	str	r3, [r7, #4]
 800057a:	687b      	ldr	r3, [r7, #4]

  /** Initializes the RCC Oscillators according to the specified parameters
  * in the RCC_OscInitTypeDef structure.
  */
  RCC_OscInitStruct.OscillatorType = RCC_OSCILLATORTYPE_HSE;
 800057c:	2301      	movs	r3, #1
 800057e:	623b      	str	r3, [r7, #32]
  RCC_OscInitStruct.HSEState = RCC_HSE_ON;
 8000580:	f44f 3380 	mov.w	r3, #65536	; 0x10000
 8000584:	627b      	str	r3, [r7, #36]	; 0x24
  RCC_OscInitStruct.PLL.PLLState = RCC_PLL_ON;
 8000586:	2302      	movs	r3, #2
 8000588:	63bb      	str	r3, [r7, #56]	; 0x38
  RCC_OscInitStruct.PLL.PLLSource = RCC_PLLSOURCE_HSE;
 800058a:	f44f 0380 	mov.w	r3, #4194304	; 0x400000
 800058e:	63fb      	str	r3, [r7, #60]	; 0x3c
  RCC_OscInitStruct.PLL.PLLM = 4;
 8000590:	2304      	movs	r3, #4
 8000592:	643b      	str	r3, [r7, #64]	; 0x40
  RCC_OscInitStruct.PLL.PLLN = 168;
 8000594:	23a8      	movs	r3, #168	; 0xa8
 8000596:	647b      	str	r3, [r7, #68]	; 0x44
  RCC_OscInitStruct.PLL.PLLP = RCC_PLLP_DIV2;
 8000598:	2302      	movs	r3, #2
 800059a:	64bb      	str	r3, [r7, #72]	; 0x48
  RCC_OscInitStruct.PLL.PLLQ = 7;
 800059c:	2307      	movs	r3, #7
 800059e:	64fb      	str	r3, [r7, #76]	; 0x4c
  if (HAL_RCC_OscConfig(&RCC_OscInitStruct) != HAL_OK)
 80005a0:	f107 0320 	add.w	r3, r7, #32
 80005a4:	4618      	mov	r0, r3
 80005a6:	f000 fd03 	bl	8000fb0 <HAL_RCC_OscConfig>
 80005aa:	4603      	mov	r3, r0
 80005ac:	2b00      	cmp	r3, #0
 80005ae:	d001      	beq.n	80005b4 <SystemClock_Config+0x94>
  {
    Error_Handler();
 80005b0:	f000 f8be 	bl	8000730 <Error_Handler>
  }

  /** Initializes the CPU, AHB and APB buses clocks
  */
  RCC_ClkInitStruct.ClockType = RCC_CLOCKTYPE_HCLK|RCC_CLOCKTYPE_SYSCLK
 80005b4:	230f      	movs	r3, #15
 80005b6:	60fb      	str	r3, [r7, #12]
                              |RCC_CLOCKTYPE_PCLK1|RCC_CLOCKTYPE_PCLK2;
  RCC_ClkInitStruct.SYSCLKSource = RCC_SYSCLKSOURCE_PLLCLK;
 80005b8:	2302      	movs	r3, #2
 80005ba:	613b      	str	r3, [r7, #16]
  RCC_ClkInitStruct.AHBCLKDivider = RCC_SYSCLK_DIV1;
 80005bc:	2300      	movs	r3, #0
 80005be:	617b      	str	r3, [r7, #20]
  RCC_ClkInitStruct.APB1CLKDivider = RCC_HCLK_DIV8;
 80005c0:	f44f 53c0 	mov.w	r3, #6144	; 0x1800
 80005c4:	61bb      	str	r3, [r7, #24]
  RCC_ClkInitStruct.APB2CLKDivider = RCC_HCLK_DIV2;
 80005c6:	f44f 5380 	mov.w	r3, #4096	; 0x1000
 80005ca:	61fb      	str	r3, [r7, #28]

  if (HAL_RCC_ClockConfig(&RCC_ClkInitStruct, FLASH_LATENCY_5) != HAL_OK)
 80005cc:	f107 030c 	add.w	r3, r7, #12
 80005d0:	2105      	movs	r1, #5
 80005d2:	4618      	mov	r0, r3
 80005d4:	f000 ff64 	bl	80014a0 <HAL_RCC_ClockConfig>
 80005d8:	4603      	mov	r3, r0
 80005da:	2b00      	cmp	r3, #0
 80005dc:	d001      	beq.n	80005e2 <SystemClock_Config+0xc2>
  {
    Error_Handler();
 80005de:	f000 f8a7 	bl	8000730 <Error_Handler>
  }
}
 80005e2:	bf00      	nop
 80005e4:	3750      	adds	r7, #80	; 0x50
 80005e6:	46bd      	mov	sp, r7
 80005e8:	bd80      	pop	{r7, pc}
 80005ea:	bf00      	nop
 80005ec:	40023800 	.word	0x40023800
 80005f0:	40007000 	.word	0x40007000

080005f4 <MX_TIM2_Init>:
  * @brief TIM2 Initialization Function
  * @param None
  * @retval None
  */
static void MX_TIM2_Init(void)
{
 80005f4:	b580      	push	{r7, lr}
 80005f6:	b08e      	sub	sp, #56	; 0x38
 80005f8:	af00      	add	r7, sp, #0

  /* USER CODE BEGIN TIM2_Init 0 */

  /* USER CODE END TIM2_Init 0 */

  TIM_ClockConfigTypeDef sClockSourceConfig = {0};
 80005fa:	f107 0328 	add.w	r3, r7, #40	; 0x28
 80005fe:	2200      	movs	r2, #0
 8000600:	601a      	str	r2, [r3, #0]
 8000602:	605a      	str	r2, [r3, #4]
 8000604:	609a      	str	r2, [r3, #8]
 8000606:	60da      	str	r2, [r3, #12]
  TIM_MasterConfigTypeDef sMasterConfig = {0};
 8000608:	f107 0320 	add.w	r3, r7, #32
 800060c:	2200      	movs	r2, #0
 800060e:	601a      	str	r2, [r3, #0]
 8000610:	605a      	str	r2, [r3, #4]
  TIM_OC_InitTypeDef sConfigOC = {0};
 8000612:	1d3b      	adds	r3, r7, #4
 8000614:	2200      	movs	r2, #0
 8000616:	601a      	str	r2, [r3, #0]
 8000618:	605a      	str	r2, [r3, #4]
 800061a:	609a      	str	r2, [r3, #8]
 800061c:	60da      	str	r2, [r3, #12]
 800061e:	611a      	str	r2, [r3, #16]
 8000620:	615a      	str	r2, [r3, #20]
 8000622:	619a      	str	r2, [r3, #24]

  /* USER CODE BEGIN TIM2_Init 1 */

  /* USER CODE END TIM2_Init 1 */
  htim2.Instance = TIM2;
 8000624:	4b2d      	ldr	r3, [pc, #180]	; (80006dc <MX_TIM2_Init+0xe8>)
 8000626:	f04f 4280 	mov.w	r2, #1073741824	; 0x40000000
 800062a:	601a      	str	r2, [r3, #0]
  htim2.Init.Prescaler = 900;
 800062c:	4b2b      	ldr	r3, [pc, #172]	; (80006dc <MX_TIM2_Init+0xe8>)
 800062e:	f44f 7261 	mov.w	r2, #900	; 0x384
 8000632:	605a      	str	r2, [r3, #4]
  htim2.Init.CounterMode = TIM_COUNTERMODE_UP;
 8000634:	4b29      	ldr	r3, [pc, #164]	; (80006dc <MX_TIM2_Init+0xe8>)
 8000636:	2200      	movs	r2, #0
 8000638:	609a      	str	r2, [r3, #8]
  htim2.Init.Period = 1000;
 800063a:	4b28      	ldr	r3, [pc, #160]	; (80006dc <MX_TIM2_Init+0xe8>)
 800063c:	f44f 727a 	mov.w	r2, #1000	; 0x3e8
 8000640:	60da      	str	r2, [r3, #12]
  htim2.Init.ClockDivision = TIM_CLOCKDIVISION_DIV1;
 8000642:	4b26      	ldr	r3, [pc, #152]	; (80006dc <MX_TIM2_Init+0xe8>)
 8000644:	2200      	movs	r2, #0
 8000646:	611a      	str	r2, [r3, #16]
  htim2.Init.AutoReloadPreload = TIM_AUTORELOAD_PRELOAD_DISABLE;
 8000648:	4b24      	ldr	r3, [pc, #144]	; (80006dc <MX_TIM2_Init+0xe8>)
 800064a:	2200      	movs	r2, #0
 800064c:	619a      	str	r2, [r3, #24]
  if (HAL_TIM_Base_Init(&htim2) != HAL_OK)
 800064e:	4823      	ldr	r0, [pc, #140]	; (80006dc <MX_TIM2_Init+0xe8>)
 8000650:	f001 f912 	bl	8001878 <HAL_TIM_Base_Init>
 8000654:	4603      	mov	r3, r0
 8000656:	2b00      	cmp	r3, #0
 8000658:	d001      	beq.n	800065e <MX_TIM2_Init+0x6a>
  {
    Error_Handler();
 800065a:	f000 f869 	bl	8000730 <Error_Handler>
  }
  sClockSourceConfig.ClockSource = TIM_CLOCKSOURCE_INTERNAL;
 800065e:	f44f 5380 	mov.w	r3, #4096	; 0x1000
 8000662:	62bb      	str	r3, [r7, #40]	; 0x28
  if (HAL_TIM_ConfigClockSource(&htim2, &sClockSourceConfig) != HAL_OK)
 8000664:	f107 0328 	add.w	r3, r7, #40	; 0x28
 8000668:	4619      	mov	r1, r3
 800066a:	481c      	ldr	r0, [pc, #112]	; (80006dc <MX_TIM2_Init+0xe8>)
 800066c:	f001 fc3e 	bl	8001eec <HAL_TIM_ConfigClockSource>
 8000670:	4603      	mov	r3, r0
 8000672:	2b00      	cmp	r3, #0
 8000674:	d001      	beq.n	800067a <MX_TIM2_Init+0x86>
  {
    Error_Handler();
 8000676:	f000 f85b 	bl	8000730 <Error_Handler>
  }
  if (HAL_TIM_PWM_Init(&htim2) != HAL_OK)
 800067a:	4818      	ldr	r0, [pc, #96]	; (80006dc <MX_TIM2_Init+0xe8>)
 800067c:	f001 f94b 	bl	8001916 <HAL_TIM_PWM_Init>
 8000680:	4603      	mov	r3, r0
 8000682:	2b00      	cmp	r3, #0
 8000684:	d001      	beq.n	800068a <MX_TIM2_Init+0x96>
  {
    Error_Handler();
 8000686:	f000 f853 	bl	8000730 <Error_Handler>
  }
  sMasterConfig.MasterOutputTrigger = TIM_TRGO_RESET;
 800068a:	2300      	movs	r3, #0
 800068c:	623b      	str	r3, [r7, #32]
  sMasterConfig.MasterSlaveMode = TIM_MASTERSLAVEMODE_DISABLE;
 800068e:	2300      	movs	r3, #0
 8000690:	627b      	str	r3, [r7, #36]	; 0x24
  if (HAL_TIMEx_MasterConfigSynchronization(&htim2, &sMasterConfig) != HAL_OK)
 8000692:	f107 0320 	add.w	r3, r7, #32
 8000696:	4619      	mov	r1, r3
 8000698:	4810      	ldr	r0, [pc, #64]	; (80006dc <MX_TIM2_Init+0xe8>)
 800069a:	f002 f831 	bl	8002700 <HAL_TIMEx_MasterConfigSynchronization>
 800069e:	4603      	mov	r3, r0
 80006a0:	2b00      	cmp	r3, #0
 80006a2:	d001      	beq.n	80006a8 <MX_TIM2_Init+0xb4>
  {
    Error_Handler();
 80006a4:	f000 f844 	bl	8000730 <Error_Handler>
  }
  sConfigOC.OCMode = TIM_OCMODE_PWM1;
 80006a8:	2360      	movs	r3, #96	; 0x60
 80006aa:	607b      	str	r3, [r7, #4]
  sConfigOC.Pulse = 0;
 80006ac:	2300      	movs	r3, #0
 80006ae:	60bb      	str	r3, [r7, #8]
  sConfigOC.OCPolarity = TIM_OCPOLARITY_HIGH;
 80006b0:	2300      	movs	r3, #0
 80006b2:	60fb      	str	r3, [r7, #12]
  sConfigOC.OCFastMode = TIM_OCFAST_DISABLE;
 80006b4:	2300      	movs	r3, #0
 80006b6:	617b      	str	r3, [r7, #20]
  if (HAL_TIM_PWM_ConfigChannel(&htim2, &sConfigOC, TIM_CHANNEL_1) != HAL_OK)
 80006b8:	1d3b      	adds	r3, r7, #4
 80006ba:	2200      	movs	r2, #0
 80006bc:	4619      	mov	r1, r3
 80006be:	4807      	ldr	r0, [pc, #28]	; (80006dc <MX_TIM2_Init+0xe8>)
 80006c0:	f001 fb52 	bl	8001d68 <HAL_TIM_PWM_ConfigChannel>
 80006c4:	4603      	mov	r3, r0
 80006c6:	2b00      	cmp	r3, #0
 80006c8:	d001      	beq.n	80006ce <MX_TIM2_Init+0xda>
  {
    Error_Handler();
 80006ca:	f000 f831 	bl	8000730 <Error_Handler>
  }
  /* USER CODE BEGIN TIM2_Init 2 */

  /* USER CODE END TIM2_Init 2 */
  HAL_TIM_MspPostInit(&htim2);
 80006ce:	4803      	ldr	r0, [pc, #12]	; (80006dc <MX_TIM2_Init+0xe8>)
 80006d0:	f000 f882 	bl	80007d8 <HAL_TIM_MspPostInit>

}
 80006d4:	bf00      	nop
 80006d6:	3738      	adds	r7, #56	; 0x38
 80006d8:	46bd      	mov	sp, r7
 80006da:	bd80      	pop	{r7, pc}
 80006dc:	20000028 	.word	0x20000028

080006e0 <MX_GPIO_Init>:
  * @brief GPIO Initialization Function
  * @param None
  * @retval None
  */
static void MX_GPIO_Init(void)
{
 80006e0:	b480      	push	{r7}
 80006e2:	b083      	sub	sp, #12
 80006e4:	af00      	add	r7, sp, #0

  /* GPIO Ports Clock Enable */
  __HAL_RCC_GPIOH_CLK_ENABLE();
 80006e6:	2300      	movs	r3, #0
 80006e8:	607b      	str	r3, [r7, #4]
 80006ea:	4b10      	ldr	r3, [pc, #64]	; (800072c <MX_GPIO_Init+0x4c>)
 80006ec:	6b1b      	ldr	r3, [r3, #48]	; 0x30
 80006ee:	4a0f      	ldr	r2, [pc, #60]	; (800072c <MX_GPIO_Init+0x4c>)
 80006f0:	f043 0380 	orr.w	r3, r3, #128	; 0x80
 80006f4:	6313      	str	r3, [r2, #48]	; 0x30
 80006f6:	4b0d      	ldr	r3, [pc, #52]	; (800072c <MX_GPIO_Init+0x4c>)
 80006f8:	6b1b      	ldr	r3, [r3, #48]	; 0x30
 80006fa:	f003 0380 	and.w	r3, r3, #128	; 0x80
 80006fe:	607b      	str	r3, [r7, #4]
 8000700:	687b      	ldr	r3, [r7, #4]
  __HAL_RCC_GPIOA_CLK_ENABLE();
 8000702:	2300      	movs	r3, #0
 8000704:	603b      	str	r3, [r7, #0]
 8000706:	4b09      	ldr	r3, [pc, #36]	; (800072c <MX_GPIO_Init+0x4c>)
 8000708:	6b1b      	ldr	r3, [r3, #48]	; 0x30
 800070a:	4a08      	ldr	r2, [pc, #32]	; (800072c <MX_GPIO_Init+0x4c>)
 800070c:	f043 0301 	orr.w	r3, r3, #1
 8000710:	6313      	str	r3, [r2, #48]	; 0x30
 8000712:	4b06      	ldr	r3, [pc, #24]	; (800072c <MX_GPIO_Init+0x4c>)
 8000714:	6b1b      	ldr	r3, [r3, #48]	; 0x30
 8000716:	f003 0301 	and.w	r3, r3, #1
 800071a:	603b      	str	r3, [r7, #0]
 800071c:	683b      	ldr	r3, [r7, #0]

}
 800071e:	bf00      	nop
 8000720:	370c      	adds	r7, #12
 8000722:	46bd      	mov	sp, r7
 8000724:	f85d 7b04 	ldr.w	r7, [sp], #4
 8000728:	4770      	bx	lr
 800072a:	bf00      	nop
 800072c:	40023800 	.word	0x40023800

08000730 <Error_Handler>:
/**
  * @brief  This function is executed in case of error occurrence.
  * @retval None
  */
void Error_Handler(void)
{
 8000730:	b480      	push	{r7}
 8000732:	af00      	add	r7, sp, #0
  \details Disables IRQ interrupts by setting the I-bit in the CPSR.
           Can only be executed in Privileged modes.
 */
__STATIC_FORCEINLINE void __disable_irq(void)
{
  __ASM volatile ("cpsid i" : : : "memory");
 8000734:	b672      	cpsid	i
}
 8000736:	bf00      	nop
  /* USER CODE BEGIN Error_Handler_Debug */
  /* User can add his own implementation to report the HAL error return state */
  __disable_irq();
  while (1)
 8000738:	e7fe      	b.n	8000738 <Error_Handler+0x8>
	...

0800073c <HAL_MspInit>:
void HAL_TIM_MspPostInit(TIM_HandleTypeDef *htim);
                    /**
  * Initializes the Global MSP.
  */
void HAL_MspInit(void)
{
 800073c:	b580      	push	{r7, lr}
 800073e:	b082      	sub	sp, #8
 8000740:	af00      	add	r7, sp, #0
  /* USER CODE BEGIN MspInit 0 */

  /* USER CODE END MspInit 0 */

  __HAL_RCC_SYSCFG_CLK_ENABLE();
 8000742:	2300      	movs	r3, #0
 8000744:	607b      	str	r3, [r7, #4]
 8000746:	4b10      	ldr	r3, [pc, #64]	; (8000788 <HAL_MspInit+0x4c>)
 8000748:	6c5b      	ldr	r3, [r3, #68]	; 0x44
 800074a:	4a0f      	ldr	r2, [pc, #60]	; (8000788 <HAL_MspInit+0x4c>)
 800074c:	f443 4380 	orr.w	r3, r3, #16384	; 0x4000
 8000750:	6453      	str	r3, [r2, #68]	; 0x44
 8000752:	4b0d      	ldr	r3, [pc, #52]	; (8000788 <HAL_MspInit+0x4c>)
 8000754:	6c5b      	ldr	r3, [r3, #68]	; 0x44
 8000756:	f403 4380 	and.w	r3, r3, #16384	; 0x4000
 800075a:	607b      	str	r3, [r7, #4]
 800075c:	687b      	ldr	r3, [r7, #4]
  __HAL_RCC_PWR_CLK_ENABLE();
 800075e:	2300      	movs	r3, #0
 8000760:	603b      	str	r3, [r7, #0]
 8000762:	4b09      	ldr	r3, [pc, #36]	; (8000788 <HAL_MspInit+0x4c>)
 8000764:	6c1b      	ldr	r3, [r3, #64]	; 0x40
 8000766:	4a08      	ldr	r2, [pc, #32]	; (8000788 <HAL_MspInit+0x4c>)
 8000768:	f043 5380 	orr.w	r3, r3, #268435456	; 0x10000000
 800076c:	6413      	str	r3, [r2, #64]	; 0x40
 800076e:	4b06      	ldr	r3, [pc, #24]	; (8000788 <HAL_MspInit+0x4c>)
 8000770:	6c1b      	ldr	r3, [r3, #64]	; 0x40
 8000772:	f003 5380 	and.w	r3, r3, #268435456	; 0x10000000
 8000776:	603b      	str	r3, [r7, #0]
 8000778:	683b      	ldr	r3, [r7, #0]

  HAL_NVIC_SetPriorityGrouping(NVIC_PRIORITYGROUP_0);
 800077a:	2007      	movs	r0, #7
 800077c:	f000 fa3a 	bl	8000bf4 <HAL_NVIC_SetPriorityGrouping>
  /* System interrupt init*/

  /* USER CODE BEGIN MspInit 1 */

  /* USER CODE END MspInit 1 */
}
 8000780:	bf00      	nop
 8000782:	3708      	adds	r7, #8
 8000784:	46bd      	mov	sp, r7
 8000786:	bd80      	pop	{r7, pc}
 8000788:	40023800 	.word	0x40023800

0800078c <HAL_TIM_Base_MspInit>:
* This function configures the hardware resources used in this example
* @param htim_base: TIM_Base handle pointer
* @retval None
*/
void HAL_TIM_Base_MspInit(TIM_HandleTypeDef* htim_base)
{
 800078c:	b580      	push	{r7, lr}
 800078e:	b084      	sub	sp, #16
 8000790:	af00      	add	r7, sp, #0
 8000792:	6078      	str	r0, [r7, #4]
  if(htim_base->Instance==TIM2)
 8000794:	687b      	ldr	r3, [r7, #4]
 8000796:	681b      	ldr	r3, [r3, #0]
 8000798:	f1b3 4f80 	cmp.w	r3, #1073741824	; 0x40000000
 800079c:	d115      	bne.n	80007ca <HAL_TIM_Base_MspInit+0x3e>
  {
  /* USER CODE BEGIN TIM2_MspInit 0 */

  /* USER CODE END TIM2_MspInit 0 */
    /* Peripheral clock enable */
    __HAL_RCC_TIM2_CLK_ENABLE();
 800079e:	2300      	movs	r3, #0
 80007a0:	60fb      	str	r3, [r7, #12]
 80007a2:	4b0c      	ldr	r3, [pc, #48]	; (80007d4 <HAL_TIM_Base_MspInit+0x48>)
 80007a4:	6c1b      	ldr	r3, [r3, #64]	; 0x40
 80007a6:	4a0b      	ldr	r2, [pc, #44]	; (80007d4 <HAL_TIM_Base_MspInit+0x48>)
 80007a8:	f043 0301 	orr.w	r3, r3, #1
 80007ac:	6413      	str	r3, [r2, #64]	; 0x40
 80007ae:	4b09      	ldr	r3, [pc, #36]	; (80007d4 <HAL_TIM_Base_MspInit+0x48>)
 80007b0:	6c1b      	ldr	r3, [r3, #64]	; 0x40
 80007b2:	f003 0301 	and.w	r3, r3, #1
 80007b6:	60fb      	str	r3, [r7, #12]
 80007b8:	68fb      	ldr	r3, [r7, #12]
    /* TIM2 interrupt Init */
    HAL_NVIC_SetPriority(TIM2_IRQn, 0, 0);
 80007ba:	2200      	movs	r2, #0
 80007bc:	2100      	movs	r1, #0
 80007be:	201c      	movs	r0, #28
 80007c0:	f000 fa23 	bl	8000c0a <HAL_NVIC_SetPriority>
    HAL_NVIC_EnableIRQ(TIM2_IRQn);
 80007c4:	201c      	movs	r0, #28
 80007c6:	f000 fa3c 	bl	8000c42 <HAL_NVIC_EnableIRQ>
  /* USER CODE BEGIN TIM2_MspInit 1 */

  /* USER CODE END TIM2_MspInit 1 */
  }

}
 80007ca:	bf00      	nop
 80007cc:	3710      	adds	r7, #16
 80007ce:	46bd      	mov	sp, r7
 80007d0:	bd80      	pop	{r7, pc}
 80007d2:	bf00      	nop
 80007d4:	40023800 	.word	0x40023800

080007d8 <HAL_TIM_MspPostInit>:

void HAL_TIM_MspPostInit(TIM_HandleTypeDef* htim)
{
 80007d8:	b580      	push	{r7, lr}
 80007da:	b088      	sub	sp, #32
 80007dc:	af00      	add	r7, sp, #0
 80007de:	6078      	str	r0, [r7, #4]
  GPIO_InitTypeDef GPIO_InitStruct = {0};
 80007e0:	f107 030c 	add.w	r3, r7, #12
 80007e4:	2200      	movs	r2, #0
 80007e6:	601a      	str	r2, [r3, #0]
 80007e8:	605a      	str	r2, [r3, #4]
 80007ea:	609a      	str	r2, [r3, #8]
 80007ec:	60da      	str	r2, [r3, #12]
 80007ee:	611a      	str	r2, [r3, #16]
  if(htim->Instance==TIM2)
 80007f0:	687b      	ldr	r3, [r7, #4]
 80007f2:	681b      	ldr	r3, [r3, #0]
 80007f4:	f1b3 4f80 	cmp.w	r3, #1073741824	; 0x40000000
 80007f8:	d11d      	bne.n	8000836 <HAL_TIM_MspPostInit+0x5e>
  {
  /* USER CODE BEGIN TIM2_MspPostInit 0 */

  /* USER CODE END TIM2_MspPostInit 0 */

    __HAL_RCC_GPIOA_CLK_ENABLE();
 80007fa:	2300      	movs	r3, #0
 80007fc:	60bb      	str	r3, [r7, #8]
 80007fe:	4b10      	ldr	r3, [pc, #64]	; (8000840 <HAL_TIM_MspPostInit+0x68>)
 8000800:	6b1b      	ldr	r3, [r3, #48]	; 0x30
 8000802:	4a0f      	ldr	r2, [pc, #60]	; (8000840 <HAL_TIM_MspPostInit+0x68>)
 8000804:	f043 0301 	orr.w	r3, r3, #1
 8000808:	6313      	str	r3, [r2, #48]	; 0x30
 800080a:	4b0d      	ldr	r3, [pc, #52]	; (8000840 <HAL_TIM_MspPostInit+0x68>)
 800080c:	6b1b      	ldr	r3, [r3, #48]	; 0x30
 800080e:	f003 0301 	and.w	r3, r3, #1
 8000812:	60bb      	str	r3, [r7, #8]
 8000814:	68bb      	ldr	r3, [r7, #8]
    /**TIM2 GPIO Configuration
    PA0-WKUP     ------> TIM2_CH1
    */
    GPIO_InitStruct.Pin = GPIO_PIN_0;
 8000816:	2301      	movs	r3, #1
 8000818:	60fb      	str	r3, [r7, #12]
    GPIO_InitStruct.Mode = GPIO_MODE_AF_PP;
 800081a:	2302      	movs	r3, #2
 800081c:	613b      	str	r3, [r7, #16]
    GPIO_InitStruct.Pull = GPIO_NOPULL;
 800081e:	2300      	movs	r3, #0
 8000820:	617b      	str	r3, [r7, #20]
    GPIO_InitStruct.Speed = GPIO_SPEED_FREQ_LOW;
 8000822:	2300      	movs	r3, #0
 8000824:	61bb      	str	r3, [r7, #24]
    GPIO_InitStruct.Alternate = GPIO_AF1_TIM2;
 8000826:	2301      	movs	r3, #1
 8000828:	61fb      	str	r3, [r7, #28]
    HAL_GPIO_Init(GPIOA, &GPIO_InitStruct);
 800082a:	f107 030c 	add.w	r3, r7, #12
 800082e:	4619      	mov	r1, r3
 8000830:	4804      	ldr	r0, [pc, #16]	; (8000844 <HAL_TIM_MspPostInit+0x6c>)
 8000832:	f000 fa21 	bl	8000c78 <HAL_GPIO_Init>
  /* USER CODE BEGIN TIM2_MspPostInit 1 */

  /* USER CODE END TIM2_MspPostInit 1 */
  }

}
 8000836:	bf00      	nop
 8000838:	3720      	adds	r7, #32
 800083a:	46bd      	mov	sp, r7
 800083c:	bd80      	pop	{r7, pc}
 800083e:	bf00      	nop
 8000840:	40023800 	.word	0x40023800
 8000844:	40020000 	.word	0x40020000

08000848 <NMI_Handler>:
/******************************************************************************/
/**
  * @brief This function handles Non maskable interrupt.
  */
void NMI_Handler(void)
{
 8000848:	b480      	push	{r7}
 800084a:	af00      	add	r7, sp, #0
  /* USER CODE BEGIN NonMaskableInt_IRQn 0 */

  /* USER CODE END NonMaskableInt_IRQn 0 */
  /* USER CODE BEGIN NonMaskableInt_IRQn 1 */
  while (1)
 800084c:	e7fe      	b.n	800084c <NMI_Handler+0x4>

0800084e <HardFault_Handler>:

/**
  * @brief This function handles Hard fault interrupt.
  */
void HardFault_Handler(void)
{
 800084e:	b480      	push	{r7}
 8000850:	af00      	add	r7, sp, #0
  /* USER CODE BEGIN HardFault_IRQn 0 */

  /* USER CODE END HardFault_IRQn 0 */
  while (1)
 8000852:	e7fe      	b.n	8000852 <HardFault_Handler+0x4>

08000854 <MemManage_Handler>:

/**
  * @brief This function handles Memory management fault.
  */
void MemManage_Handler(void)
{
 8000854:	b480      	push	{r7}
 8000856:	af00      	add	r7, sp, #0
  /* USER CODE BEGIN MemoryManagement_IRQn 0 */

  /* USER CODE END MemoryManagement_IRQn 0 */
  while (1)
 8000858:	e7fe      	b.n	8000858 <MemManage_Handler+0x4>

0800085a <BusFault_Handler>:

/**
  * @brief This function handles Pre-fetch fault, memory access fault.
  */
void BusFault_Handler(void)
{
 800085a:	b480      	push	{r7}
 800085c:	af00      	add	r7, sp, #0
  /* USER CODE BEGIN BusFault_IRQn 0 */

  /* USER CODE END BusFault_IRQn 0 */
  while (1)
 800085e:	e7fe      	b.n	800085e <BusFault_Handler+0x4>

08000860 <UsageFault_Handler>:

/**
  * @brief This function handles Undefined instruction or illegal state.
  */
void UsageFault_Handler(void)
{
 8000860:	b480      	push	{r7}
 8000862:	af00      	add	r7, sp, #0
  /* USER CODE BEGIN UsageFault_IRQn 0 */

  /* USER CODE END UsageFault_IRQn 0 */
  while (1)
 8000864:	e7fe      	b.n	8000864 <UsageFault_Handler+0x4>

08000866 <SVC_Handler>:

/**
  * @brief This function handles System service call via SWI instruction.
  */
void SVC_Handler(void)
{
 8000866:	b480      	push	{r7}
 8000868:	af00      	add	r7, sp, #0

  /* USER CODE END SVCall_IRQn 0 */
  /* USER CODE BEGIN SVCall_IRQn 1 */

  /* USER CODE END SVCall_IRQn 1 */
}
 800086a:	bf00      	nop
 800086c:	46bd      	mov	sp, r7
 800086e:	f85d 7b04 	ldr.w	r7, [sp], #4
 8000872:	4770      	bx	lr

08000874 <DebugMon_Handler>:

/**
  * @brief This function handles Debug monitor.
  */
void DebugMon_Handler(void)
{
 8000874:	b480      	push	{r7}
 8000876:	af00      	add	r7, sp, #0

  /* USER CODE END DebugMonitor_IRQn 0 */
  /* USER CODE BEGIN DebugMonitor_IRQn 1 */

  /* USER CODE END DebugMonitor_IRQn 1 */
}
 8000878:	bf00      	nop
 800087a:	46bd      	mov	sp, r7
 800087c:	f85d 7b04 	ldr.w	r7, [sp], #4
 8000880:	4770      	bx	lr

08000882 <PendSV_Handler>:

/**
  * @brief This function handles Pendable request for system service.
  */
void PendSV_Handler(void)
{
 8000882:	b480      	push	{r7}
 8000884:	af00      	add	r7, sp, #0

  /* USER CODE END PendSV_IRQn 0 */
  /* USER CODE BEGIN PendSV_IRQn 1 */

  /* USER CODE END PendSV_IRQn 1 */
}
 8000886:	bf00      	nop
 8000888:	46bd      	mov	sp, r7
 800088a:	f85d 7b04 	ldr.w	r7, [sp], #4
 800088e:	4770      	bx	lr

08000890 <SysTick_Handler>:

/**
  * @brief This function handles System tick timer.
  */
void SysTick_Handler(void)
{
 8000890:	b580      	push	{r7, lr}
 8000892:	af00      	add	r7, sp, #0
  /* USER CODE BEGIN SysTick_IRQn 0 */

  /* USER CODE END SysTick_IRQn 0 */
  HAL_IncTick();
 8000894:	f000 f89a 	bl	80009cc <HAL_IncTick>
  /* USER CODE BEGIN SysTick_IRQn 1 */

  /* USER CODE END SysTick_IRQn 1 */
}
 8000898:	bf00      	nop
 800089a:	bd80      	pop	{r7, pc}

0800089c <TIM2_IRQHandler>:

/**
  * @brief This function handles TIM2 global interrupt.
  */
void TIM2_IRQHandler(void)
{
 800089c:	b580      	push	{r7, lr}
 800089e:	af00      	add	r7, sp, #0
  /* USER CODE BEGIN TIM2_IRQn 0 */

  /* USER CODE END TIM2_IRQn 0 */
  HAL_TIM_IRQHandler(&htim2);
 80008a0:	4802      	ldr	r0, [pc, #8]	; (80008ac <TIM2_IRQHandler+0x10>)
 80008a2:	f001 f959 	bl	8001b58 <HAL_TIM_IRQHandler>
  /* USER CODE BEGIN TIM2_IRQn 1 */

  /* USER CODE END TIM2_IRQn 1 */
}
 80008a6:	bf00      	nop
 80008a8:	bd80      	pop	{r7, pc}
 80008aa:	bf00      	nop
 80008ac:	20000028 	.word	0x20000028

080008b0 <SystemInit>:
  *         configuration.
  * @param  None
  * @retval None
  */
void SystemInit(void)
{
 80008b0:	b480      	push	{r7}
 80008b2:	af00      	add	r7, sp, #0
  /* FPU settings ------------------------------------------------------------*/
  #if (__FPU_PRESENT == 1) && (__FPU_USED == 1)
    SCB->CPACR |= ((3UL << 10*2)|(3UL << 11*2));  /* set CP10 and CP11 Full Access */
 80008b4:	4b06      	ldr	r3, [pc, #24]	; (80008d0 <SystemInit+0x20>)
 80008b6:	f8d3 3088 	ldr.w	r3, [r3, #136]	; 0x88
 80008ba:	4a05      	ldr	r2, [pc, #20]	; (80008d0 <SystemInit+0x20>)
 80008bc:	f443 0370 	orr.w	r3, r3, #15728640	; 0xf00000
 80008c0:	f8c2 3088 	str.w	r3, [r2, #136]	; 0x88

  /* Configure the Vector Table location -------------------------------------*/
#if defined(USER_VECT_TAB_ADDRESS)
  SCB->VTOR = VECT_TAB_BASE_ADDRESS | VECT_TAB_OFFSET; /* Vector Table Relocation in Internal SRAM */
#endif /* USER_VECT_TAB_ADDRESS */
}
 80008c4:	bf00      	nop
 80008c6:	46bd      	mov	sp, r7
 80008c8:	f85d 7b04 	ldr.w	r7, [sp], #4
 80008cc:	4770      	bx	lr
 80008ce:	bf00      	nop
 80008d0:	e000ed00 	.word	0xe000ed00

080008d4 <Reset_Handler>:

    .section  .text.Reset_Handler
  .weak  Reset_Handler
  .type  Reset_Handler, %function
Reset_Handler:  
  ldr   sp, =_estack     /* set stack pointer */
 80008d4:	f8df d034 	ldr.w	sp, [pc, #52]	; 800090c <LoopFillZerobss+0x12>

/* Copy the data segment initializers from flash to SRAM */  
  ldr r0, =_sdata
 80008d8:	480d      	ldr	r0, [pc, #52]	; (8000910 <LoopFillZerobss+0x16>)
  ldr r1, =_edata
 80008da:	490e      	ldr	r1, [pc, #56]	; (8000914 <LoopFillZerobss+0x1a>)
  ldr r2, =_sidata
 80008dc:	4a0e      	ldr	r2, [pc, #56]	; (8000918 <LoopFillZerobss+0x1e>)
  movs r3, #0
 80008de:	2300      	movs	r3, #0
  b LoopCopyDataInit
 80008e0:	e002      	b.n	80008e8 <LoopCopyDataInit>

080008e2 <CopyDataInit>:

CopyDataInit:
  ldr r4, [r2, r3]
 80008e2:	58d4      	ldr	r4, [r2, r3]
  str r4, [r0, r3]
 80008e4:	50c4      	str	r4, [r0, r3]
  adds r3, r3, #4
 80008e6:	3304      	adds	r3, #4

080008e8 <LoopCopyDataInit>:

LoopCopyDataInit:
  adds r4, r0, r3
 80008e8:	18c4      	adds	r4, r0, r3
  cmp r4, r1
 80008ea:	428c      	cmp	r4, r1
  bcc CopyDataInit
 80008ec:	d3f9      	bcc.n	80008e2 <CopyDataInit>
  
/* Zero fill the bss segment. */
  ldr r2, =_sbss
 80008ee:	4a0b      	ldr	r2, [pc, #44]	; (800091c <LoopFillZerobss+0x22>)
  ldr r4, =_ebss
 80008f0:	4c0b      	ldr	r4, [pc, #44]	; (8000920 <LoopFillZerobss+0x26>)
  movs r3, #0
 80008f2:	2300      	movs	r3, #0
  b LoopFillZerobss
 80008f4:	e001      	b.n	80008fa <LoopFillZerobss>

080008f6 <FillZerobss>:

FillZerobss:
  str  r3, [r2]
 80008f6:	6013      	str	r3, [r2, #0]
  adds r2, r2, #4
 80008f8:	3204      	adds	r2, #4

080008fa <LoopFillZerobss>:

LoopFillZerobss:
  cmp r2, r4
 80008fa:	42a2      	cmp	r2, r4
  bcc FillZerobss
 80008fc:	d3fb      	bcc.n	80008f6 <FillZerobss>

/* Call the clock system initialization function.*/
  bl  SystemInit   
 80008fe:	f7ff ffd7 	bl	80008b0 <SystemInit>
/* Call static constructors */
    bl __libc_init_array
 8000902:	f001 ff8d 	bl	8002820 <__libc_init_array>
/* Call the application's entry point.*/
  bl  main
 8000906:	f7ff fde1 	bl	80004cc <main>
  bx  lr    
 800090a:	4770      	bx	lr
  ldr   sp, =_estack     /* set stack pointer */
 800090c:	20020000 	.word	0x20020000
  ldr r0, =_sdata
 8000910:	20000000 	.word	0x20000000
  ldr r1, =_edata
 8000914:	2000000c 	.word	0x2000000c
  ldr r2, =_sidata
 8000918:	080028b0 	.word	0x080028b0
  ldr r2, =_sbss
 800091c:	2000000c 	.word	0x2000000c
  ldr r4, =_ebss
 8000920:	20000074 	.word	0x20000074

08000924 <ADC_IRQHandler>:
 * @retval None       
*/
    .section  .text.Default_Handler,"ax",%progbits
Default_Handler:
Infinite_Loop:
  b  Infinite_Loop
 8000924:	e7fe      	b.n	8000924 <ADC_IRQHandler>
	...

08000928 <HAL_Init>:
  *         need to ensure that the SysTick time base is always set to 1 millisecond
  *         to have correct HAL operation.
  * @retval HAL status
  */
HAL_StatusTypeDef HAL_Init(void)
{
 8000928:	b580      	push	{r7, lr}
 800092a:	af00      	add	r7, sp, #0
  /* Configure Flash prefetch, Instruction cache, Data cache */ 
#if (INSTRUCTION_CACHE_ENABLE != 0U)
  __HAL_FLASH_INSTRUCTION_CACHE_ENABLE();
 800092c:	4b0e      	ldr	r3, [pc, #56]	; (8000968 <HAL_Init+0x40>)
 800092e:	681b      	ldr	r3, [r3, #0]
 8000930:	4a0d      	ldr	r2, [pc, #52]	; (8000968 <HAL_Init+0x40>)
 8000932:	f443 7300 	orr.w	r3, r3, #512	; 0x200
 8000936:	6013      	str	r3, [r2, #0]
#endif /* INSTRUCTION_CACHE_ENABLE */

#if (DATA_CACHE_ENABLE != 0U)
  __HAL_FLASH_DATA_CACHE_ENABLE();
 8000938:	4b0b      	ldr	r3, [pc, #44]	; (8000968 <HAL_Init+0x40>)
 800093a:	681b      	ldr	r3, [r3, #0]
 800093c:	4a0a      	ldr	r2, [pc, #40]	; (8000968 <HAL_Init+0x40>)
 800093e:	f443 6380 	orr.w	r3, r3, #1024	; 0x400
 8000942:	6013      	str	r3, [r2, #0]
#endif /* DATA_CACHE_ENABLE */

#if (PREFETCH_ENABLE != 0U)
  __HAL_FLASH_PREFETCH_BUFFER_ENABLE();
 8000944:	4b08      	ldr	r3, [pc, #32]	; (8000968 <HAL_Init+0x40>)
 8000946:	681b      	ldr	r3, [r3, #0]
 8000948:	4a07      	ldr	r2, [pc, #28]	; (8000968 <HAL_Init+0x40>)
 800094a:	f443 7380 	orr.w	r3, r3, #256	; 0x100
 800094e:	6013      	str	r3, [r2, #0]
#endif /* PREFETCH_ENABLE */

  /* Set Interrupt Group Priority */
  HAL_NVIC_SetPriorityGrouping(NVIC_PRIORITYGROUP_4);
 8000950:	2003      	movs	r0, #3
 8000952:	f000 f94f 	bl	8000bf4 <HAL_NVIC_SetPriorityGrouping>

  /* Use systick as time base source and configure 1ms tick (default clock after Reset is HSI) */
  HAL_InitTick(TICK_INT_PRIORITY);
 8000956:	2000      	movs	r0, #0
 8000958:	f000 f808 	bl	800096c <HAL_InitTick>

  /* Init the low level hardware */
  HAL_MspInit();
 800095c:	f7ff feee 	bl	800073c <HAL_MspInit>

  /* Return function status */
  return HAL_OK;
 8000960:	2300      	movs	r3, #0
}
 8000962:	4618      	mov	r0, r3
 8000964:	bd80      	pop	{r7, pc}
 8000966:	bf00      	nop
 8000968:	40023c00 	.word	0x40023c00

0800096c <HAL_InitTick>:
  *       implementation  in user file.
  * @param TickPriority Tick interrupt priority.
  * @retval HAL status
  */
__weak HAL_StatusTypeDef HAL_InitTick(uint32_t TickPriority)
{
 800096c:	b580      	push	{r7, lr}
 800096e:	b082      	sub	sp, #8
 8000970:	af00      	add	r7, sp, #0
 8000972:	6078      	str	r0, [r7, #4]
  /* Configure the SysTick to have interrupt in 1ms time basis*/
  if (HAL_SYSTICK_Config(SystemCoreClock / (1000U / uwTickFreq)) > 0U)
 8000974:	4b12      	ldr	r3, [pc, #72]	; (80009c0 <HAL_InitTick+0x54>)
 8000976:	681a      	ldr	r2, [r3, #0]
 8000978:	4b12      	ldr	r3, [pc, #72]	; (80009c4 <HAL_InitTick+0x58>)
 800097a:	781b      	ldrb	r3, [r3, #0]
 800097c:	4619      	mov	r1, r3
 800097e:	f44f 737a 	mov.w	r3, #1000	; 0x3e8
 8000982:	fbb3 f3f1 	udiv	r3, r3, r1
 8000986:	fbb2 f3f3 	udiv	r3, r2, r3
 800098a:	4618      	mov	r0, r3
 800098c:	f000 f967 	bl	8000c5e <HAL_SYSTICK_Config>
 8000990:	4603      	mov	r3, r0
 8000992:	2b00      	cmp	r3, #0
 8000994:	d001      	beq.n	800099a <HAL_InitTick+0x2e>
  {
    return HAL_ERROR;
 8000996:	2301      	movs	r3, #1
 8000998:	e00e      	b.n	80009b8 <HAL_InitTick+0x4c>
  }

  /* Configure the SysTick IRQ priority */
  if (TickPriority < (1UL << __NVIC_PRIO_BITS))
 800099a:	687b      	ldr	r3, [r7, #4]
 800099c:	2b0f      	cmp	r3, #15
 800099e:	d80a      	bhi.n	80009b6 <HAL_InitTick+0x4a>
  {
    HAL_NVIC_SetPriority(SysTick_IRQn, TickPriority, 0U);
 80009a0:	2200      	movs	r2, #0
 80009a2:	6879      	ldr	r1, [r7, #4]
 80009a4:	f04f 30ff 	mov.w	r0, #4294967295
 80009a8:	f000 f92f 	bl	8000c0a <HAL_NVIC_SetPriority>
    uwTickPrio = TickPriority;
 80009ac:	4a06      	ldr	r2, [pc, #24]	; (80009c8 <HAL_InitTick+0x5c>)
 80009ae:	687b      	ldr	r3, [r7, #4]
 80009b0:	6013      	str	r3, [r2, #0]
  {
    return HAL_ERROR;
  }

  /* Return function status */
  return HAL_OK;
 80009b2:	2300      	movs	r3, #0
 80009b4:	e000      	b.n	80009b8 <HAL_InitTick+0x4c>
    return HAL_ERROR;
 80009b6:	2301      	movs	r3, #1
}
 80009b8:	4618      	mov	r0, r3
 80009ba:	3708      	adds	r7, #8
 80009bc:	46bd      	mov	sp, r7
 80009be:	bd80      	pop	{r7, pc}
 80009c0:	20000000 	.word	0x20000000
 80009c4:	20000008 	.word	0x20000008
 80009c8:	20000004 	.word	0x20000004

080009cc <HAL_IncTick>:
 * @note This function is declared as __weak to be overwritten in case of other 
  *      implementations in user file.
  * @retval None
  */
__weak void HAL_IncTick(void)
{
 80009cc:	b480      	push	{r7}
 80009ce:	af00      	add	r7, sp, #0
  uwTick += uwTickFreq;
 80009d0:	4b06      	ldr	r3, [pc, #24]	; (80009ec <HAL_IncTick+0x20>)
 80009d2:	781b      	ldrb	r3, [r3, #0]
 80009d4:	461a      	mov	r2, r3
 80009d6:	4b06      	ldr	r3, [pc, #24]	; (80009f0 <HAL_IncTick+0x24>)
 80009d8:	681b      	ldr	r3, [r3, #0]
 80009da:	4413      	add	r3, r2
 80009dc:	4a04      	ldr	r2, [pc, #16]	; (80009f0 <HAL_IncTick+0x24>)
 80009de:	6013      	str	r3, [r2, #0]
}
 80009e0:	bf00      	nop
 80009e2:	46bd      	mov	sp, r7
 80009e4:	f85d 7b04 	ldr.w	r7, [sp], #4
 80009e8:	4770      	bx	lr
 80009ea:	bf00      	nop
 80009ec:	20000008 	.word	0x20000008
 80009f0:	20000070 	.word	0x20000070

080009f4 <HAL_GetTick>:
  * @note This function is declared as __weak to be overwritten in case of other 
  *       implementations in user file.
  * @retval tick value
  */
__weak uint32_t HAL_GetTick(void)
{
 80009f4:	b480      	push	{r7}
 80009f6:	af00      	add	r7, sp, #0
  return uwTick;
 80009f8:	4b03      	ldr	r3, [pc, #12]	; (8000a08 <HAL_GetTick+0x14>)
 80009fa:	681b      	ldr	r3, [r3, #0]
}
 80009fc:	4618      	mov	r0, r3
 80009fe:	46bd      	mov	sp, r7
 8000a00:	f85d 7b04 	ldr.w	r7, [sp], #4
 8000a04:	4770      	bx	lr
 8000a06:	bf00      	nop
 8000a08:	20000070 	.word	0x20000070

08000a0c <HAL_Delay>:
  *       implementations in user file.
  * @param Delay specifies the delay time length, in milliseconds.
  * @retval None
  */
__weak void HAL_Delay(uint32_t Delay)
{
 8000a0c:	b580      	push	{r7, lr}
 8000a0e:	b084      	sub	sp, #16
 8000a10:	af00      	add	r7, sp, #0
 8000a12:	6078      	str	r0, [r7, #4]
  uint32_t tickstart = HAL_GetTick();
 8000a14:	f7ff ffee 	bl	80009f4 <HAL_GetTick>
 8000a18:	60b8      	str	r0, [r7, #8]
  uint32_t wait = Delay;
 8000a1a:	687b      	ldr	r3, [r7, #4]
 8000a1c:	60fb      	str	r3, [r7, #12]

  /* Add a freq to guarantee minimum wait */
  if (wait < HAL_MAX_DELAY)
 8000a1e:	68fb      	ldr	r3, [r7, #12]
 8000a20:	f1b3 3fff 	cmp.w	r3, #4294967295
 8000a24:	d005      	beq.n	8000a32 <HAL_Delay+0x26>
  {
    wait += (uint32_t)(uwTickFreq);
 8000a26:	4b0a      	ldr	r3, [pc, #40]	; (8000a50 <HAL_Delay+0x44>)
 8000a28:	781b      	ldrb	r3, [r3, #0]
 8000a2a:	461a      	mov	r2, r3
 8000a2c:	68fb      	ldr	r3, [r7, #12]
 8000a2e:	4413      	add	r3, r2
 8000a30:	60fb      	str	r3, [r7, #12]
  }

  while((HAL_GetTick() - tickstart) < wait)
 8000a32:	bf00      	nop
 8000a34:	f7ff ffde 	bl	80009f4 <HAL_GetTick>
 8000a38:	4602      	mov	r2, r0
 8000a3a:	68bb      	ldr	r3, [r7, #8]
 8000a3c:	1ad3      	subs	r3, r2, r3
 8000a3e:	68fa      	ldr	r2, [r7, #12]
 8000a40:	429a      	cmp	r2, r3
 8000a42:	d8f7      	bhi.n	8000a34 <HAL_Delay+0x28>
  {
  }
}
 8000a44:	bf00      	nop
 8000a46:	bf00      	nop
 8000a48:	3710      	adds	r7, #16
 8000a4a:	46bd      	mov	sp, r7
 8000a4c:	bd80      	pop	{r7, pc}
 8000a4e:	bf00      	nop
 8000a50:	20000008 	.word	0x20000008

08000a54 <__NVIC_SetPriorityGrouping>:
           In case of a conflict between priority grouping and available
           priority bits (__NVIC_PRIO_BITS), the smallest possible priority group is set.
  \param [in]      PriorityGroup  Priority grouping field.
 */
__STATIC_INLINE void __NVIC_SetPriorityGrouping(uint32_t PriorityGroup)
{
 8000a54:	b480      	push	{r7}
 8000a56:	b085      	sub	sp, #20
 8000a58:	af00      	add	r7, sp, #0
 8000a5a:	6078      	str	r0, [r7, #4]
  uint32_t reg_value;
  uint32_t PriorityGroupTmp = (PriorityGroup & (uint32_t)0x07UL);             /* only values 0..7 are used          */
 8000a5c:	687b      	ldr	r3, [r7, #4]
 8000a5e:	f003 0307 	and.w	r3, r3, #7
 8000a62:	60fb      	str	r3, [r7, #12]

  reg_value  =  SCB->AIRCR;                                                   /* read old register configuration    */
 8000a64:	4b0c      	ldr	r3, [pc, #48]	; (8000a98 <__NVIC_SetPriorityGrouping+0x44>)
 8000a66:	68db      	ldr	r3, [r3, #12]
 8000a68:	60bb      	str	r3, [r7, #8]
  reg_value &= ~((uint32_t)(SCB_AIRCR_VECTKEY_Msk | SCB_AIRCR_PRIGROUP_Msk)); /* clear bits to change               */
 8000a6a:	68ba      	ldr	r2, [r7, #8]
 8000a6c:	f64f 03ff 	movw	r3, #63743	; 0xf8ff
 8000a70:	4013      	ands	r3, r2
 8000a72:	60bb      	str	r3, [r7, #8]
  reg_value  =  (reg_value                                   |
                ((uint32_t)0x5FAUL << SCB_AIRCR_VECTKEY_Pos) |
                (PriorityGroupTmp << SCB_AIRCR_PRIGROUP_Pos)  );              /* Insert write key and priority group */
 8000a74:	68fb      	ldr	r3, [r7, #12]
 8000a76:	021a      	lsls	r2, r3, #8
                ((uint32_t)0x5FAUL << SCB_AIRCR_VECTKEY_Pos) |
 8000a78:	68bb      	ldr	r3, [r7, #8]
 8000a7a:	4313      	orrs	r3, r2
  reg_value  =  (reg_value                                   |
 8000a7c:	f043 63bf 	orr.w	r3, r3, #100139008	; 0x5f80000
 8000a80:	f443 3300 	orr.w	r3, r3, #131072	; 0x20000
 8000a84:	60bb      	str	r3, [r7, #8]
  SCB->AIRCR =  reg_value;
 8000a86:	4a04      	ldr	r2, [pc, #16]	; (8000a98 <__NVIC_SetPriorityGrouping+0x44>)
 8000a88:	68bb      	ldr	r3, [r7, #8]
 8000a8a:	60d3      	str	r3, [r2, #12]
}
 8000a8c:	bf00      	nop
 8000a8e:	3714      	adds	r7, #20
 8000a90:	46bd      	mov	sp, r7
 8000a92:	f85d 7b04 	ldr.w	r7, [sp], #4
 8000a96:	4770      	bx	lr
 8000a98:	e000ed00 	.word	0xe000ed00

08000a9c <__NVIC_GetPriorityGrouping>:
  \brief   Get Priority Grouping
  \details Reads the priority grouping field from the NVIC Interrupt Controller.
  \return                Priority grouping field (SCB->AIRCR [10:8] PRIGROUP field).
 */
__STATIC_INLINE uint32_t __NVIC_GetPriorityGrouping(void)
{
 8000a9c:	b480      	push	{r7}
 8000a9e:	af00      	add	r7, sp, #0
  return ((uint32_t)((SCB->AIRCR & SCB_AIRCR_PRIGROUP_Msk) >> SCB_AIRCR_PRIGROUP_Pos));
 8000aa0:	4b04      	ldr	r3, [pc, #16]	; (8000ab4 <__NVIC_GetPriorityGrouping+0x18>)
 8000aa2:	68db      	ldr	r3, [r3, #12]
 8000aa4:	0a1b      	lsrs	r3, r3, #8
 8000aa6:	f003 0307 	and.w	r3, r3, #7
}
 8000aaa:	4618      	mov	r0, r3
 8000aac:	46bd      	mov	sp, r7
 8000aae:	f85d 7b04 	ldr.w	r7, [sp], #4
 8000ab2:	4770      	bx	lr
 8000ab4:	e000ed00 	.word	0xe000ed00

08000ab8 <__NVIC_EnableIRQ>:
  \details Enables a device specific interrupt in the NVIC interrupt controller.
  \param [in]      IRQn  Device specific interrupt number.
  \note    IRQn must not be negative.
 */
__STATIC_INLINE void __NVIC_EnableIRQ(IRQn_Type IRQn)
{
 8000ab8:	b480      	push	{r7}
 8000aba:	b083      	sub	sp, #12
 8000abc:	af00      	add	r7, sp, #0
 8000abe:	4603      	mov	r3, r0
 8000ac0:	71fb      	strb	r3, [r7, #7]
  if ((int32_t)(IRQn) >= 0)
 8000ac2:	f997 3007 	ldrsb.w	r3, [r7, #7]
 8000ac6:	2b00      	cmp	r3, #0
 8000ac8:	db0b      	blt.n	8000ae2 <__NVIC_EnableIRQ+0x2a>
  {
    NVIC->ISER[(((uint32_t)IRQn) >> 5UL)] = (uint32_t)(1UL << (((uint32_t)IRQn) & 0x1FUL));
 8000aca:	79fb      	ldrb	r3, [r7, #7]
 8000acc:	f003 021f 	and.w	r2, r3, #31
 8000ad0:	4907      	ldr	r1, [pc, #28]	; (8000af0 <__NVIC_EnableIRQ+0x38>)
 8000ad2:	f997 3007 	ldrsb.w	r3, [r7, #7]
 8000ad6:	095b      	lsrs	r3, r3, #5
 8000ad8:	2001      	movs	r0, #1
 8000ada:	fa00 f202 	lsl.w	r2, r0, r2
 8000ade:	f841 2023 	str.w	r2, [r1, r3, lsl #2]
  }
}
 8000ae2:	bf00      	nop
 8000ae4:	370c      	adds	r7, #12
 8000ae6:	46bd      	mov	sp, r7
 8000ae8:	f85d 7b04 	ldr.w	r7, [sp], #4
 8000aec:	4770      	bx	lr
 8000aee:	bf00      	nop
 8000af0:	e000e100 	.word	0xe000e100

08000af4 <__NVIC_SetPriority>:
  \param [in]      IRQn  Interrupt number.
  \param [in]  priority  Priority to set.
  \note    The priority cannot be set for every processor exception.
 */
__STATIC_INLINE void __NVIC_SetPriority(IRQn_Type IRQn, uint32_t priority)
{
 8000af4:	b480      	push	{r7}
 8000af6:	b083      	sub	sp, #12
 8000af8:	af00      	add	r7, sp, #0
 8000afa:	4603      	mov	r3, r0
 8000afc:	6039      	str	r1, [r7, #0]
 8000afe:	71fb      	strb	r3, [r7, #7]
  if ((int32_t)(IRQn) >= 0)
 8000b00:	f997 3007 	ldrsb.w	r3, [r7, #7]
 8000b04:	2b00      	cmp	r3, #0
 8000b06:	db0a      	blt.n	8000b1e <__NVIC_SetPriority+0x2a>
  {
    NVIC->IP[((uint32_t)IRQn)]               = (uint8_t)((priority << (8U - __NVIC_PRIO_BITS)) & (uint32_t)0xFFUL);
 8000b08:	683b      	ldr	r3, [r7, #0]
 8000b0a:	b2da      	uxtb	r2, r3
 8000b0c:	490c      	ldr	r1, [pc, #48]	; (8000b40 <__NVIC_SetPriority+0x4c>)
 8000b0e:	f997 3007 	ldrsb.w	r3, [r7, #7]
 8000b12:	0112      	lsls	r2, r2, #4
 8000b14:	b2d2      	uxtb	r2, r2
 8000b16:	440b      	add	r3, r1
 8000b18:	f883 2300 	strb.w	r2, [r3, #768]	; 0x300
  }
  else
  {
    SCB->SHP[(((uint32_t)IRQn) & 0xFUL)-4UL] = (uint8_t)((priority << (8U - __NVIC_PRIO_BITS)) & (uint32_t)0xFFUL);
  }
}
 8000b1c:	e00a      	b.n	8000b34 <__NVIC_SetPriority+0x40>
    SCB->SHP[(((uint32_t)IRQn) & 0xFUL)-4UL] = (uint8_t)((priority << (8U - __NVIC_PRIO_BITS)) & (uint32_t)0xFFUL);
 8000b1e:	683b      	ldr	r3, [r7, #0]
 8000b20:	b2da      	uxtb	r2, r3
 8000b22:	4908      	ldr	r1, [pc, #32]	; (8000b44 <__NVIC_SetPriority+0x50>)
 8000b24:	79fb      	ldrb	r3, [r7, #7]
 8000b26:	f003 030f 	and.w	r3, r3, #15
 8000b2a:	3b04      	subs	r3, #4
 8000b2c:	0112      	lsls	r2, r2, #4
 8000b2e:	b2d2      	uxtb	r2, r2
 8000b30:	440b      	add	r3, r1
 8000b32:	761a      	strb	r2, [r3, #24]
}
 8000b34:	bf00      	nop
 8000b36:	370c      	adds	r7, #12
 8000b38:	46bd      	mov	sp, r7
 8000b3a:	f85d 7b04 	ldr.w	r7, [sp], #4
 8000b3e:	4770      	bx	lr
 8000b40:	e000e100 	.word	0xe000e100
 8000b44:	e000ed00 	.word	0xe000ed00

08000b48 <NVIC_EncodePriority>:
  \param [in]   PreemptPriority  Preemptive priority value (starting from 0).
  \param [in]       SubPriority  Subpriority value (starting from 0).
  \return                        Encoded priority. Value can be used in the function \ref NVIC_SetPriority().
 */
__STATIC_INLINE uint32_t NVIC_EncodePriority (uint32_t PriorityGroup, uint32_t PreemptPriority, uint32_t SubPriority)
{
 8000b48:	b480      	push	{r7}
 8000b4a:	b089      	sub	sp, #36	; 0x24
 8000b4c:	af00      	add	r7, sp, #0
 8000b4e:	60f8      	str	r0, [r7, #12]
 8000b50:	60b9      	str	r1, [r7, #8]
 8000b52:	607a      	str	r2, [r7, #4]
  uint32_t PriorityGroupTmp = (PriorityGroup & (uint32_t)0x07UL);   /* only values 0..7 are used          */
 8000b54:	68fb      	ldr	r3, [r7, #12]
 8000b56:	f003 0307 	and.w	r3, r3, #7
 8000b5a:	61fb      	str	r3, [r7, #28]
  uint32_t PreemptPriorityBits;
  uint32_t SubPriorityBits;

  PreemptPriorityBits = ((7UL - PriorityGroupTmp) > (uint32_t)(__NVIC_PRIO_BITS)) ? (uint32_t)(__NVIC_PRIO_BITS) : (uint32_t)(7UL - PriorityGroupTmp);
 8000b5c:	69fb      	ldr	r3, [r7, #28]
 8000b5e:	f1c3 0307 	rsb	r3, r3, #7
 8000b62:	2b04      	cmp	r3, #4
 8000b64:	bf28      	it	cs
 8000b66:	2304      	movcs	r3, #4
 8000b68:	61bb      	str	r3, [r7, #24]
  SubPriorityBits     = ((PriorityGroupTmp + (uint32_t)(__NVIC_PRIO_BITS)) < (uint32_t)7UL) ? (uint32_t)0UL : (uint32_t)((PriorityGroupTmp - 7UL) + (uint32_t)(__NVIC_PRIO_BITS));
 8000b6a:	69fb      	ldr	r3, [r7, #28]
 8000b6c:	3304      	adds	r3, #4
 8000b6e:	2b06      	cmp	r3, #6
 8000b70:	d902      	bls.n	8000b78 <NVIC_EncodePriority+0x30>
 8000b72:	69fb      	ldr	r3, [r7, #28]
 8000b74:	3b03      	subs	r3, #3
 8000b76:	e000      	b.n	8000b7a <NVIC_EncodePriority+0x32>
 8000b78:	2300      	movs	r3, #0
 8000b7a:	617b      	str	r3, [r7, #20]

  return (
           ((PreemptPriority & (uint32_t)((1UL << (PreemptPriorityBits)) - 1UL)) << SubPriorityBits) |
 8000b7c:	f04f 32ff 	mov.w	r2, #4294967295
 8000b80:	69bb      	ldr	r3, [r7, #24]
 8000b82:	fa02 f303 	lsl.w	r3, r2, r3
 8000b86:	43da      	mvns	r2, r3
 8000b88:	68bb      	ldr	r3, [r7, #8]
 8000b8a:	401a      	ands	r2, r3
 8000b8c:	697b      	ldr	r3, [r7, #20]
 8000b8e:	409a      	lsls	r2, r3
           ((SubPriority     & (uint32_t)((1UL << (SubPriorityBits    )) - 1UL)))
 8000b90:	f04f 31ff 	mov.w	r1, #4294967295
 8000b94:	697b      	ldr	r3, [r7, #20]
 8000b96:	fa01 f303 	lsl.w	r3, r1, r3
 8000b9a:	43d9      	mvns	r1, r3
 8000b9c:	687b      	ldr	r3, [r7, #4]
 8000b9e:	400b      	ands	r3, r1
           ((PreemptPriority & (uint32_t)((1UL << (PreemptPriorityBits)) - 1UL)) << SubPriorityBits) |
 8000ba0:	4313      	orrs	r3, r2
         );
}
 8000ba2:	4618      	mov	r0, r3
 8000ba4:	3724      	adds	r7, #36	; 0x24
 8000ba6:	46bd      	mov	sp, r7
 8000ba8:	f85d 7b04 	ldr.w	r7, [sp], #4
 8000bac:	4770      	bx	lr
	...

08000bb0 <SysTick_Config>:
  \note    When the variable <b>__Vendor_SysTickConfig</b> is set to 1, then the
           function <b>SysTick_Config</b> is not included. In this case, the file <b><i>device</i>.h</b>
           must contain a vendor-specific implementation of this function.
 */
__STATIC_INLINE uint32_t SysTick_Config(uint32_t ticks)
{
 8000bb0:	b580      	push	{r7, lr}
 8000bb2:	b082      	sub	sp, #8
 8000bb4:	af00      	add	r7, sp, #0
 8000bb6:	6078      	str	r0, [r7, #4]
  if ((ticks - 1UL) > SysTick_LOAD_RELOAD_Msk)
 8000bb8:	687b      	ldr	r3, [r7, #4]
 8000bba:	3b01      	subs	r3, #1
 8000bbc:	f1b3 7f80 	cmp.w	r3, #16777216	; 0x1000000
 8000bc0:	d301      	bcc.n	8000bc6 <SysTick_Config+0x16>
  {
    return (1UL);                                                   /* Reload value impossible */
 8000bc2:	2301      	movs	r3, #1
 8000bc4:	e00f      	b.n	8000be6 <SysTick_Config+0x36>
  }

  SysTick->LOAD  = (uint32_t)(ticks - 1UL);                         /* set reload register */
 8000bc6:	4a0a      	ldr	r2, [pc, #40]	; (8000bf0 <SysTick_Config+0x40>)
 8000bc8:	687b      	ldr	r3, [r7, #4]
 8000bca:	3b01      	subs	r3, #1
 8000bcc:	6053      	str	r3, [r2, #4]
  NVIC_SetPriority (SysTick_IRQn, (1UL << __NVIC_PRIO_BITS) - 1UL); /* set Priority for Systick Interrupt */
 8000bce:	210f      	movs	r1, #15
 8000bd0:	f04f 30ff 	mov.w	r0, #4294967295
 8000bd4:	f7ff ff8e 	bl	8000af4 <__NVIC_SetPriority>
  SysTick->VAL   = 0UL;                                             /* Load the SysTick Counter Value */
 8000bd8:	4b05      	ldr	r3, [pc, #20]	; (8000bf0 <SysTick_Config+0x40>)
 8000bda:	2200      	movs	r2, #0
 8000bdc:	609a      	str	r2, [r3, #8]
  SysTick->CTRL  = SysTick_CTRL_CLKSOURCE_Msk |
 8000bde:	4b04      	ldr	r3, [pc, #16]	; (8000bf0 <SysTick_Config+0x40>)
 8000be0:	2207      	movs	r2, #7
 8000be2:	601a      	str	r2, [r3, #0]
                   SysTick_CTRL_TICKINT_Msk   |
                   SysTick_CTRL_ENABLE_Msk;                         /* Enable SysTick IRQ and SysTick Timer */
  return (0UL);                                                     /* Function successful */
 8000be4:	2300      	movs	r3, #0
}
 8000be6:	4618      	mov	r0, r3
 8000be8:	3708      	adds	r7, #8
 8000bea:	46bd      	mov	sp, r7
 8000bec:	bd80      	pop	{r7, pc}
 8000bee:	bf00      	nop
 8000bf0:	e000e010 	.word	0xe000e010

08000bf4 <HAL_NVIC_SetPriorityGrouping>:
  * @note   When the NVIC_PriorityGroup_0 is selected, IRQ preemption is no more possible. 
  *         The pending IRQ priority will be managed only by the subpriority. 
  * @retval None
  */
void HAL_NVIC_SetPriorityGrouping(uint32_t PriorityGroup)
{
 8000bf4:	b580      	push	{r7, lr}
 8000bf6:	b082      	sub	sp, #8
 8000bf8:	af00      	add	r7, sp, #0
 8000bfa:	6078      	str	r0, [r7, #4]
  /* Check the parameters */
  assert_param(IS_NVIC_PRIORITY_GROUP(PriorityGroup));
  
  /* Set the PRIGROUP[10:8] bits according to the PriorityGroup parameter value */
  NVIC_SetPriorityGrouping(PriorityGroup);
 8000bfc:	6878      	ldr	r0, [r7, #4]
 8000bfe:	f7ff ff29 	bl	8000a54 <__NVIC_SetPriorityGrouping>
}
 8000c02:	bf00      	nop
 8000c04:	3708      	adds	r7, #8
 8000c06:	46bd      	mov	sp, r7
 8000c08:	bd80      	pop	{r7, pc}

08000c0a <HAL_NVIC_SetPriority>:
  *         This parameter can be a value between 0 and 15
  *         A lower priority value indicates a higher priority.          
  * @retval None
  */
void HAL_NVIC_SetPriority(IRQn_Type IRQn, uint32_t PreemptPriority, uint32_t SubPriority)
{ 
 8000c0a:	b580      	push	{r7, lr}
 8000c0c:	b086      	sub	sp, #24
 8000c0e:	af00      	add	r7, sp, #0
 8000c10:	4603      	mov	r3, r0
 8000c12:	60b9      	str	r1, [r7, #8]
 8000c14:	607a      	str	r2, [r7, #4]
 8000c16:	73fb      	strb	r3, [r7, #15]
  uint32_t prioritygroup = 0x00U;
 8000c18:	2300      	movs	r3, #0
 8000c1a:	617b      	str	r3, [r7, #20]
  
  /* Check the parameters */
  assert_param(IS_NVIC_SUB_PRIORITY(SubPriority));
  assert_param(IS_NVIC_PREEMPTION_PRIORITY(PreemptPriority));
  
  prioritygroup = NVIC_GetPriorityGrouping();
 8000c1c:	f7ff ff3e 	bl	8000a9c <__NVIC_GetPriorityGrouping>
 8000c20:	6178      	str	r0, [r7, #20]
  
  NVIC_SetPriority(IRQn, NVIC_EncodePriority(prioritygroup, PreemptPriority, SubPriority));
 8000c22:	687a      	ldr	r2, [r7, #4]
 8000c24:	68b9      	ldr	r1, [r7, #8]
 8000c26:	6978      	ldr	r0, [r7, #20]
 8000c28:	f7ff ff8e 	bl	8000b48 <NVIC_EncodePriority>
 8000c2c:	4602      	mov	r2, r0
 8000c2e:	f997 300f 	ldrsb.w	r3, [r7, #15]
 8000c32:	4611      	mov	r1, r2
 8000c34:	4618      	mov	r0, r3
 8000c36:	f7ff ff5d 	bl	8000af4 <__NVIC_SetPriority>
}
 8000c3a:	bf00      	nop
 8000c3c:	3718      	adds	r7, #24
 8000c3e:	46bd      	mov	sp, r7
 8000c40:	bd80      	pop	{r7, pc}

08000c42 <HAL_NVIC_EnableIRQ>:
  *         This parameter can be an enumerator of IRQn_Type enumeration
  *         (For the complete STM32 Devices IRQ Channels list, please refer to the appropriate CMSIS device file (stm32f4xxxx.h))
  * @retval None
  */
void HAL_NVIC_EnableIRQ(IRQn_Type IRQn)
{
 8000c42:	b580      	push	{r7, lr}
 8000c44:	b082      	sub	sp, #8
 8000c46:	af00      	add	r7, sp, #0
 8000c48:	4603      	mov	r3, r0
 8000c4a:	71fb      	strb	r3, [r7, #7]
  /* Check the parameters */
  assert_param(IS_NVIC_DEVICE_IRQ(IRQn));
  
  /* Enable interrupt */
  NVIC_EnableIRQ(IRQn);
 8000c4c:	f997 3007 	ldrsb.w	r3, [r7, #7]
 8000c50:	4618      	mov	r0, r3
 8000c52:	f7ff ff31 	bl	8000ab8 <__NVIC_EnableIRQ>
}
 8000c56:	bf00      	nop
 8000c58:	3708      	adds	r7, #8
 8000c5a:	46bd      	mov	sp, r7
 8000c5c:	bd80      	pop	{r7, pc}

08000c5e <HAL_SYSTICK_Config>:
  * @param  TicksNumb Specifies the ticks Number of ticks between two interrupts.
  * @retval status:  - 0  Function succeeded.
  *                  - 1  Function failed.
  */
uint32_t HAL_SYSTICK_Config(uint32_t TicksNumb)
{
 8000c5e:	b580      	push	{r7, lr}
 8000c60:	b082      	sub	sp, #8
 8000c62:	af00      	add	r7, sp, #0
 8000c64:	6078      	str	r0, [r7, #4]
   return SysTick_Config(TicksNumb);
 8000c66:	6878      	ldr	r0, [r7, #4]
 8000c68:	f7ff ffa2 	bl	8000bb0 <SysTick_Config>
 8000c6c:	4603      	mov	r3, r0
}
 8000c6e:	4618      	mov	r0, r3
 8000c70:	3708      	adds	r7, #8
 8000c72:	46bd      	mov	sp, r7
 8000c74:	bd80      	pop	{r7, pc}
	...

08000c78 <HAL_GPIO_Init>:
  * @param  GPIO_Init pointer to a GPIO_InitTypeDef structure that contains
  *         the configuration information for the specified GPIO peripheral.
  * @retval None
  */
void HAL_GPIO_Init(GPIO_TypeDef  *GPIOx, GPIO_InitTypeDef *GPIO_Init)
{
 8000c78:	b480      	push	{r7}
 8000c7a:	b089      	sub	sp, #36	; 0x24
 8000c7c:	af00      	add	r7, sp, #0
 8000c7e:	6078      	str	r0, [r7, #4]
 8000c80:	6039      	str	r1, [r7, #0]
  uint32_t position;
  uint32_t ioposition = 0x00U;
 8000c82:	2300      	movs	r3, #0
 8000c84:	617b      	str	r3, [r7, #20]
  uint32_t iocurrent = 0x00U;
 8000c86:	2300      	movs	r3, #0
 8000c88:	613b      	str	r3, [r7, #16]
  uint32_t temp = 0x00U;
 8000c8a:	2300      	movs	r3, #0
 8000c8c:	61bb      	str	r3, [r7, #24]
  assert_param(IS_GPIO_ALL_INSTANCE(GPIOx));
  assert_param(IS_GPIO_PIN(GPIO_Init->Pin));
  assert_param(IS_GPIO_MODE(GPIO_Init->Mode));

  /* Configure the port pins */
  for(position = 0U; position < GPIO_NUMBER; position++)
 8000c8e:	2300      	movs	r3, #0
 8000c90:	61fb      	str	r3, [r7, #28]
 8000c92:	e16b      	b.n	8000f6c <HAL_GPIO_Init+0x2f4>
  {
    /* Get the IO position */
    ioposition = 0x01U << position;
 8000c94:	2201      	movs	r2, #1
 8000c96:	69fb      	ldr	r3, [r7, #28]
 8000c98:	fa02 f303 	lsl.w	r3, r2, r3
 8000c9c:	617b      	str	r3, [r7, #20]
    /* Get the current IO position */
    iocurrent = (uint32_t)(GPIO_Init->Pin) & ioposition;
 8000c9e:	683b      	ldr	r3, [r7, #0]
 8000ca0:	681b      	ldr	r3, [r3, #0]
 8000ca2:	697a      	ldr	r2, [r7, #20]
 8000ca4:	4013      	ands	r3, r2
 8000ca6:	613b      	str	r3, [r7, #16]

    if(iocurrent == ioposition)
 8000ca8:	693a      	ldr	r2, [r7, #16]
 8000caa:	697b      	ldr	r3, [r7, #20]
 8000cac:	429a      	cmp	r2, r3
 8000cae:	f040 815a 	bne.w	8000f66 <HAL_GPIO_Init+0x2ee>
    {
      /*--------------------- GPIO Mode Configuration ------------------------*/
      /* In case of Output or Alternate function mode selection */
      if(((GPIO_Init->Mode & GPIO_MODE) == MODE_OUTPUT) || \
 8000cb2:	683b      	ldr	r3, [r7, #0]
 8000cb4:	685b      	ldr	r3, [r3, #4]
 8000cb6:	f003 0303 	and.w	r3, r3, #3
 8000cba:	2b01      	cmp	r3, #1
 8000cbc:	d005      	beq.n	8000cca <HAL_GPIO_Init+0x52>
          (GPIO_Init->Mode & GPIO_MODE) == MODE_AF)
 8000cbe:	683b      	ldr	r3, [r7, #0]
 8000cc0:	685b      	ldr	r3, [r3, #4]
 8000cc2:	f003 0303 	and.w	r3, r3, #3
      if(((GPIO_Init->Mode & GPIO_MODE) == MODE_OUTPUT) || \
 8000cc6:	2b02      	cmp	r3, #2
 8000cc8:	d130      	bne.n	8000d2c <HAL_GPIO_Init+0xb4>
      {
        /* Check the Speed parameter */
        assert_param(IS_GPIO_SPEED(GPIO_Init->Speed));
        /* Configure the IO Speed */
        temp = GPIOx->OSPEEDR; 
 8000cca:	687b      	ldr	r3, [r7, #4]
 8000ccc:	689b      	ldr	r3, [r3, #8]
 8000cce:	61bb      	str	r3, [r7, #24]
        temp &= ~(GPIO_OSPEEDER_OSPEEDR0 << (position * 2U));
 8000cd0:	69fb      	ldr	r3, [r7, #28]
 8000cd2:	005b      	lsls	r3, r3, #1
 8000cd4:	2203      	movs	r2, #3
 8000cd6:	fa02 f303 	lsl.w	r3, r2, r3
 8000cda:	43db      	mvns	r3, r3
 8000cdc:	69ba      	ldr	r2, [r7, #24]
 8000cde:	4013      	ands	r3, r2
 8000ce0:	61bb      	str	r3, [r7, #24]
        temp |= (GPIO_Init->Speed << (position * 2U));
 8000ce2:	683b      	ldr	r3, [r7, #0]
 8000ce4:	68da      	ldr	r2, [r3, #12]
 8000ce6:	69fb      	ldr	r3, [r7, #28]
 8000ce8:	005b      	lsls	r3, r3, #1
 8000cea:	fa02 f303 	lsl.w	r3, r2, r3
 8000cee:	69ba      	ldr	r2, [r7, #24]
 8000cf0:	4313      	orrs	r3, r2
 8000cf2:	61bb      	str	r3, [r7, #24]
        GPIOx->OSPEEDR = temp;
 8000cf4:	687b      	ldr	r3, [r7, #4]
 8000cf6:	69ba      	ldr	r2, [r7, #24]
 8000cf8:	609a      	str	r2, [r3, #8]

        /* Configure the IO Output Type */
        temp = GPIOx->OTYPER;
 8000cfa:	687b      	ldr	r3, [r7, #4]
 8000cfc:	685b      	ldr	r3, [r3, #4]
 8000cfe:	61bb      	str	r3, [r7, #24]
        temp &= ~(GPIO_OTYPER_OT_0 << position) ;
 8000d00:	2201      	movs	r2, #1
 8000d02:	69fb      	ldr	r3, [r7, #28]
 8000d04:	fa02 f303 	lsl.w	r3, r2, r3
 8000d08:	43db      	mvns	r3, r3
 8000d0a:	69ba      	ldr	r2, [r7, #24]
 8000d0c:	4013      	ands	r3, r2
 8000d0e:	61bb      	str	r3, [r7, #24]
        temp |= (((GPIO_Init->Mode & OUTPUT_TYPE) >> OUTPUT_TYPE_Pos) << position);
 8000d10:	683b      	ldr	r3, [r7, #0]
 8000d12:	685b      	ldr	r3, [r3, #4]
 8000d14:	091b      	lsrs	r3, r3, #4
 8000d16:	f003 0201 	and.w	r2, r3, #1
 8000d1a:	69fb      	ldr	r3, [r7, #28]
 8000d1c:	fa02 f303 	lsl.w	r3, r2, r3
 8000d20:	69ba      	ldr	r2, [r7, #24]
 8000d22:	4313      	orrs	r3, r2
 8000d24:	61bb      	str	r3, [r7, #24]
        GPIOx->OTYPER = temp;
 8000d26:	687b      	ldr	r3, [r7, #4]
 8000d28:	69ba      	ldr	r2, [r7, #24]
 8000d2a:	605a      	str	r2, [r3, #4]
       }

      if((GPIO_Init->Mode & GPIO_MODE) != MODE_ANALOG)
 8000d2c:	683b      	ldr	r3, [r7, #0]
 8000d2e:	685b      	ldr	r3, [r3, #4]
 8000d30:	f003 0303 	and.w	r3, r3, #3
 8000d34:	2b03      	cmp	r3, #3
 8000d36:	d017      	beq.n	8000d68 <HAL_GPIO_Init+0xf0>
      {
        /* Check the parameters */
        assert_param(IS_GPIO_PULL(GPIO_Init->Pull));
        
        /* Activate the Pull-up or Pull down resistor for the current IO */
        temp = GPIOx->PUPDR;
 8000d38:	687b      	ldr	r3, [r7, #4]
 8000d3a:	68db      	ldr	r3, [r3, #12]
 8000d3c:	61bb      	str	r3, [r7, #24]
        temp &= ~(GPIO_PUPDR_PUPDR0 << (position * 2U));
 8000d3e:	69fb      	ldr	r3, [r7, #28]
 8000d40:	005b      	lsls	r3, r3, #1
 8000d42:	2203      	movs	r2, #3
 8000d44:	fa02 f303 	lsl.w	r3, r2, r3
 8000d48:	43db      	mvns	r3, r3
 8000d4a:	69ba      	ldr	r2, [r7, #24]
 8000d4c:	4013      	ands	r3, r2
 8000d4e:	61bb      	str	r3, [r7, #24]
        temp |= ((GPIO_Init->Pull) << (position * 2U));
 8000d50:	683b      	ldr	r3, [r7, #0]
 8000d52:	689a      	ldr	r2, [r3, #8]
 8000d54:	69fb      	ldr	r3, [r7, #28]
 8000d56:	005b      	lsls	r3, r3, #1
 8000d58:	fa02 f303 	lsl.w	r3, r2, r3
 8000d5c:	69ba      	ldr	r2, [r7, #24]
 8000d5e:	4313      	orrs	r3, r2
 8000d60:	61bb      	str	r3, [r7, #24]
        GPIOx->PUPDR = temp;
 8000d62:	687b      	ldr	r3, [r7, #4]
 8000d64:	69ba      	ldr	r2, [r7, #24]
 8000d66:	60da      	str	r2, [r3, #12]
      }

      /* In case of Alternate function mode selection */
      if((GPIO_Init->Mode & GPIO_MODE) == MODE_AF)
 8000d68:	683b      	ldr	r3, [r7, #0]
 8000d6a:	685b      	ldr	r3, [r3, #4]
 8000d6c:	f003 0303 	and.w	r3, r3, #3
 8000d70:	2b02      	cmp	r3, #2
 8000d72:	d123      	bne.n	8000dbc <HAL_GPIO_Init+0x144>
      {
        /* Check the Alternate function parameter */
        assert_param(IS_GPIO_AF(GPIO_Init->Alternate));
        /* Configure Alternate function mapped with the current IO */
        temp = GPIOx->AFR[position >> 3U];
 8000d74:	69fb      	ldr	r3, [r7, #28]
 8000d76:	08da      	lsrs	r2, r3, #3
 8000d78:	687b      	ldr	r3, [r7, #4]
 8000d7a:	3208      	adds	r2, #8
 8000d7c:	f853 3022 	ldr.w	r3, [r3, r2, lsl #2]
 8000d80:	61bb      	str	r3, [r7, #24]
        temp &= ~(0xFU << ((uint32_t)(position & 0x07U) * 4U)) ;
 8000d82:	69fb      	ldr	r3, [r7, #28]
 8000d84:	f003 0307 	and.w	r3, r3, #7
 8000d88:	009b      	lsls	r3, r3, #2
 8000d8a:	220f      	movs	r2, #15
 8000d8c:	fa02 f303 	lsl.w	r3, r2, r3
 8000d90:	43db      	mvns	r3, r3
 8000d92:	69ba      	ldr	r2, [r7, #24]
 8000d94:	4013      	ands	r3, r2
 8000d96:	61bb      	str	r3, [r7, #24]
        temp |= ((uint32_t)(GPIO_Init->Alternate) << (((uint32_t)position & 0x07U) * 4U));
 8000d98:	683b      	ldr	r3, [r7, #0]
 8000d9a:	691a      	ldr	r2, [r3, #16]
 8000d9c:	69fb      	ldr	r3, [r7, #28]
 8000d9e:	f003 0307 	and.w	r3, r3, #7
 8000da2:	009b      	lsls	r3, r3, #2
 8000da4:	fa02 f303 	lsl.w	r3, r2, r3
 8000da8:	69ba      	ldr	r2, [r7, #24]
 8000daa:	4313      	orrs	r3, r2
 8000dac:	61bb      	str	r3, [r7, #24]
        GPIOx->AFR[position >> 3U] = temp;
 8000dae:	69fb      	ldr	r3, [r7, #28]
 8000db0:	08da      	lsrs	r2, r3, #3
 8000db2:	687b      	ldr	r3, [r7, #4]
 8000db4:	3208      	adds	r2, #8
 8000db6:	69b9      	ldr	r1, [r7, #24]
 8000db8:	f843 1022 	str.w	r1, [r3, r2, lsl #2]
      }

      /* Configure IO Direction mode (Input, Output, Alternate or Analog) */
      temp = GPIOx->MODER;
 8000dbc:	687b      	ldr	r3, [r7, #4]
 8000dbe:	681b      	ldr	r3, [r3, #0]
 8000dc0:	61bb      	str	r3, [r7, #24]
      temp &= ~(GPIO_MODER_MODER0 << (position * 2U));
 8000dc2:	69fb      	ldr	r3, [r7, #28]
 8000dc4:	005b      	lsls	r3, r3, #1
 8000dc6:	2203      	movs	r2, #3
 8000dc8:	fa02 f303 	lsl.w	r3, r2, r3
 8000dcc:	43db      	mvns	r3, r3
 8000dce:	69ba      	ldr	r2, [r7, #24]
 8000dd0:	4013      	ands	r3, r2
 8000dd2:	61bb      	str	r3, [r7, #24]
      temp |= ((GPIO_Init->Mode & GPIO_MODE) << (position * 2U));
 8000dd4:	683b      	ldr	r3, [r7, #0]
 8000dd6:	685b      	ldr	r3, [r3, #4]
 8000dd8:	f003 0203 	and.w	r2, r3, #3
 8000ddc:	69fb      	ldr	r3, [r7, #28]
 8000dde:	005b      	lsls	r3, r3, #1
 8000de0:	fa02 f303 	lsl.w	r3, r2, r3
 8000de4:	69ba      	ldr	r2, [r7, #24]
 8000de6:	4313      	orrs	r3, r2
 8000de8:	61bb      	str	r3, [r7, #24]
      GPIOx->MODER = temp;
 8000dea:	687b      	ldr	r3, [r7, #4]
 8000dec:	69ba      	ldr	r2, [r7, #24]
 8000dee:	601a      	str	r2, [r3, #0]

      /*--------------------- EXTI Mode Configuration ------------------------*/
      /* Configure the External Interrupt or event for the current IO */
      if((GPIO_Init->Mode & EXTI_MODE) != 0x00U)
 8000df0:	683b      	ldr	r3, [r7, #0]
 8000df2:	685b      	ldr	r3, [r3, #4]
 8000df4:	f403 3340 	and.w	r3, r3, #196608	; 0x30000
 8000df8:	2b00      	cmp	r3, #0
 8000dfa:	f000 80b4 	beq.w	8000f66 <HAL_GPIO_Init+0x2ee>
      {
        /* Enable SYSCFG Clock */
        __HAL_RCC_SYSCFG_CLK_ENABLE();
 8000dfe:	2300      	movs	r3, #0
 8000e00:	60fb      	str	r3, [r7, #12]
 8000e02:	4b60      	ldr	r3, [pc, #384]	; (8000f84 <HAL_GPIO_Init+0x30c>)
 8000e04:	6c5b      	ldr	r3, [r3, #68]	; 0x44
 8000e06:	4a5f      	ldr	r2, [pc, #380]	; (8000f84 <HAL_GPIO_Init+0x30c>)
 8000e08:	f443 4380 	orr.w	r3, r3, #16384	; 0x4000
 8000e0c:	6453      	str	r3, [r2, #68]	; 0x44
 8000e0e:	4b5d      	ldr	r3, [pc, #372]	; (8000f84 <HAL_GPIO_Init+0x30c>)
 8000e10:	6c5b      	ldr	r3, [r3, #68]	; 0x44
 8000e12:	f403 4380 	and.w	r3, r3, #16384	; 0x4000
 8000e16:	60fb      	str	r3, [r7, #12]
 8000e18:	68fb      	ldr	r3, [r7, #12]

        temp = SYSCFG->EXTICR[position >> 2U];
 8000e1a:	4a5b      	ldr	r2, [pc, #364]	; (8000f88 <HAL_GPIO_Init+0x310>)
 8000e1c:	69fb      	ldr	r3, [r7, #28]
 8000e1e:	089b      	lsrs	r3, r3, #2
 8000e20:	3302      	adds	r3, #2
 8000e22:	f852 3023 	ldr.w	r3, [r2, r3, lsl #2]
 8000e26:	61bb      	str	r3, [r7, #24]
        temp &= ~(0x0FU << (4U * (position & 0x03U)));
 8000e28:	69fb      	ldr	r3, [r7, #28]
 8000e2a:	f003 0303 	and.w	r3, r3, #3
 8000e2e:	009b      	lsls	r3, r3, #2
 8000e30:	220f      	movs	r2, #15
 8000e32:	fa02 f303 	lsl.w	r3, r2, r3
 8000e36:	43db      	mvns	r3, r3
 8000e38:	69ba      	ldr	r2, [r7, #24]
 8000e3a:	4013      	ands	r3, r2
 8000e3c:	61bb      	str	r3, [r7, #24]
        temp |= ((uint32_t)(GPIO_GET_INDEX(GPIOx)) << (4U * (position & 0x03U)));
 8000e3e:	687b      	ldr	r3, [r7, #4]
 8000e40:	4a52      	ldr	r2, [pc, #328]	; (8000f8c <HAL_GPIO_Init+0x314>)
 8000e42:	4293      	cmp	r3, r2
 8000e44:	d02b      	beq.n	8000e9e <HAL_GPIO_Init+0x226>
 8000e46:	687b      	ldr	r3, [r7, #4]
 8000e48:	4a51      	ldr	r2, [pc, #324]	; (8000f90 <HAL_GPIO_Init+0x318>)
 8000e4a:	4293      	cmp	r3, r2
 8000e4c:	d025      	beq.n	8000e9a <HAL_GPIO_Init+0x222>
 8000e4e:	687b      	ldr	r3, [r7, #4]
 8000e50:	4a50      	ldr	r2, [pc, #320]	; (8000f94 <HAL_GPIO_Init+0x31c>)
 8000e52:	4293      	cmp	r3, r2
 8000e54:	d01f      	beq.n	8000e96 <HAL_GPIO_Init+0x21e>
 8000e56:	687b      	ldr	r3, [r7, #4]
 8000e58:	4a4f      	ldr	r2, [pc, #316]	; (8000f98 <HAL_GPIO_Init+0x320>)
 8000e5a:	4293      	cmp	r3, r2
 8000e5c:	d019      	beq.n	8000e92 <HAL_GPIO_Init+0x21a>
 8000e5e:	687b      	ldr	r3, [r7, #4]
 8000e60:	4a4e      	ldr	r2, [pc, #312]	; (8000f9c <HAL_GPIO_Init+0x324>)
 8000e62:	4293      	cmp	r3, r2
 8000e64:	d013      	beq.n	8000e8e <HAL_GPIO_Init+0x216>
 8000e66:	687b      	ldr	r3, [r7, #4]
 8000e68:	4a4d      	ldr	r2, [pc, #308]	; (8000fa0 <HAL_GPIO_Init+0x328>)
 8000e6a:	4293      	cmp	r3, r2
 8000e6c:	d00d      	beq.n	8000e8a <HAL_GPIO_Init+0x212>
 8000e6e:	687b      	ldr	r3, [r7, #4]
 8000e70:	4a4c      	ldr	r2, [pc, #304]	; (8000fa4 <HAL_GPIO_Init+0x32c>)
 8000e72:	4293      	cmp	r3, r2
 8000e74:	d007      	beq.n	8000e86 <HAL_GPIO_Init+0x20e>
 8000e76:	687b      	ldr	r3, [r7, #4]
 8000e78:	4a4b      	ldr	r2, [pc, #300]	; (8000fa8 <HAL_GPIO_Init+0x330>)
 8000e7a:	4293      	cmp	r3, r2
 8000e7c:	d101      	bne.n	8000e82 <HAL_GPIO_Init+0x20a>
 8000e7e:	2307      	movs	r3, #7
 8000e80:	e00e      	b.n	8000ea0 <HAL_GPIO_Init+0x228>
 8000e82:	2308      	movs	r3, #8
 8000e84:	e00c      	b.n	8000ea0 <HAL_GPIO_Init+0x228>
 8000e86:	2306      	movs	r3, #6
 8000e88:	e00a      	b.n	8000ea0 <HAL_GPIO_Init+0x228>
 8000e8a:	2305      	movs	r3, #5
 8000e8c:	e008      	b.n	8000ea0 <HAL_GPIO_Init+0x228>
 8000e8e:	2304      	movs	r3, #4
 8000e90:	e006      	b.n	8000ea0 <HAL_GPIO_Init+0x228>
 8000e92:	2303      	movs	r3, #3
 8000e94:	e004      	b.n	8000ea0 <HAL_GPIO_Init+0x228>
 8000e96:	2302      	movs	r3, #2
 8000e98:	e002      	b.n	8000ea0 <HAL_GPIO_Init+0x228>
 8000e9a:	2301      	movs	r3, #1
 8000e9c:	e000      	b.n	8000ea0 <HAL_GPIO_Init+0x228>
 8000e9e:	2300      	movs	r3, #0
 8000ea0:	69fa      	ldr	r2, [r7, #28]
 8000ea2:	f002 0203 	and.w	r2, r2, #3
 8000ea6:	0092      	lsls	r2, r2, #2
 8000ea8:	4093      	lsls	r3, r2
 8000eaa:	69ba      	ldr	r2, [r7, #24]
 8000eac:	4313      	orrs	r3, r2
 8000eae:	61bb      	str	r3, [r7, #24]
        SYSCFG->EXTICR[position >> 2U] = temp;
 8000eb0:	4935      	ldr	r1, [pc, #212]	; (8000f88 <HAL_GPIO_Init+0x310>)
 8000eb2:	69fb      	ldr	r3, [r7, #28]
 8000eb4:	089b      	lsrs	r3, r3, #2
 8000eb6:	3302      	adds	r3, #2
 8000eb8:	69ba      	ldr	r2, [r7, #24]
 8000eba:	f841 2023 	str.w	r2, [r1, r3, lsl #2]

        /* Clear Rising Falling edge configuration */
        temp = EXTI->RTSR;
 8000ebe:	4b3b      	ldr	r3, [pc, #236]	; (8000fac <HAL_GPIO_Init+0x334>)
 8000ec0:	689b      	ldr	r3, [r3, #8]
 8000ec2:	61bb      	str	r3, [r7, #24]
        temp &= ~((uint32_t)iocurrent);
 8000ec4:	693b      	ldr	r3, [r7, #16]
 8000ec6:	43db      	mvns	r3, r3
 8000ec8:	69ba      	ldr	r2, [r7, #24]
 8000eca:	4013      	ands	r3, r2
 8000ecc:	61bb      	str	r3, [r7, #24]
        if((GPIO_Init->Mode & TRIGGER_RISING) != 0x00U)
 8000ece:	683b      	ldr	r3, [r7, #0]
 8000ed0:	685b      	ldr	r3, [r3, #4]
 8000ed2:	f403 1380 	and.w	r3, r3, #1048576	; 0x100000
 8000ed6:	2b00      	cmp	r3, #0
 8000ed8:	d003      	beq.n	8000ee2 <HAL_GPIO_Init+0x26a>
        {
          temp |= iocurrent;
 8000eda:	69ba      	ldr	r2, [r7, #24]
 8000edc:	693b      	ldr	r3, [r7, #16]
 8000ede:	4313      	orrs	r3, r2
 8000ee0:	61bb      	str	r3, [r7, #24]
        }
        EXTI->RTSR = temp;
 8000ee2:	4a32      	ldr	r2, [pc, #200]	; (8000fac <HAL_GPIO_Init+0x334>)
 8000ee4:	69bb      	ldr	r3, [r7, #24]
 8000ee6:	6093      	str	r3, [r2, #8]

        temp = EXTI->FTSR;
 8000ee8:	4b30      	ldr	r3, [pc, #192]	; (8000fac <HAL_GPIO_Init+0x334>)
 8000eea:	68db      	ldr	r3, [r3, #12]
 8000eec:	61bb      	str	r3, [r7, #24]
        temp &= ~((uint32_t)iocurrent);
 8000eee:	693b      	ldr	r3, [r7, #16]
 8000ef0:	43db      	mvns	r3, r3
 8000ef2:	69ba      	ldr	r2, [r7, #24]
 8000ef4:	4013      	ands	r3, r2
 8000ef6:	61bb      	str	r3, [r7, #24]
        if((GPIO_Init->Mode & TRIGGER_FALLING) != 0x00U)
 8000ef8:	683b      	ldr	r3, [r7, #0]
 8000efa:	685b      	ldr	r3, [r3, #4]
 8000efc:	f403 1300 	and.w	r3, r3, #2097152	; 0x200000
 8000f00:	2b00      	cmp	r3, #0
 8000f02:	d003      	beq.n	8000f0c <HAL_GPIO_Init+0x294>
        {
          temp |= iocurrent;
 8000f04:	69ba      	ldr	r2, [r7, #24]
 8000f06:	693b      	ldr	r3, [r7, #16]
 8000f08:	4313      	orrs	r3, r2
 8000f0a:	61bb      	str	r3, [r7, #24]
        }
        EXTI->FTSR = temp;
 8000f0c:	4a27      	ldr	r2, [pc, #156]	; (8000fac <HAL_GPIO_Init+0x334>)
 8000f0e:	69bb      	ldr	r3, [r7, #24]
 8000f10:	60d3      	str	r3, [r2, #12]

        temp = EXTI->EMR;
 8000f12:	4b26      	ldr	r3, [pc, #152]	; (8000fac <HAL_GPIO_Init+0x334>)
 8000f14:	685b      	ldr	r3, [r3, #4]
 8000f16:	61bb      	str	r3, [r7, #24]
        temp &= ~((uint32_t)iocurrent);
 8000f18:	693b      	ldr	r3, [r7, #16]
 8000f1a:	43db      	mvns	r3, r3
 8000f1c:	69ba      	ldr	r2, [r7, #24]
 8000f1e:	4013      	ands	r3, r2
 8000f20:	61bb      	str	r3, [r7, #24]
        if((GPIO_Init->Mode & EXTI_EVT) != 0x00U)
 8000f22:	683b      	ldr	r3, [r7, #0]
 8000f24:	685b      	ldr	r3, [r3, #4]
 8000f26:	f403 3300 	and.w	r3, r3, #131072	; 0x20000
 8000f2a:	2b00      	cmp	r3, #0
 8000f2c:	d003      	beq.n	8000f36 <HAL_GPIO_Init+0x2be>
        {
          temp |= iocurrent;
 8000f2e:	69ba      	ldr	r2, [r7, #24]
 8000f30:	693b      	ldr	r3, [r7, #16]
 8000f32:	4313      	orrs	r3, r2
 8000f34:	61bb      	str	r3, [r7, #24]
        }
        EXTI->EMR = temp;
 8000f36:	4a1d      	ldr	r2, [pc, #116]	; (8000fac <HAL_GPIO_Init+0x334>)
 8000f38:	69bb      	ldr	r3, [r7, #24]
 8000f3a:	6053      	str	r3, [r2, #4]

        /* Clear EXTI line configuration */
        temp = EXTI->IMR;
 8000f3c:	4b1b      	ldr	r3, [pc, #108]	; (8000fac <HAL_GPIO_Init+0x334>)
 8000f3e:	681b      	ldr	r3, [r3, #0]
 8000f40:	61bb      	str	r3, [r7, #24]
        temp &= ~((uint32_t)iocurrent);
 8000f42:	693b      	ldr	r3, [r7, #16]
 8000f44:	43db      	mvns	r3, r3
 8000f46:	69ba      	ldr	r2, [r7, #24]
 8000f48:	4013      	ands	r3, r2
 8000f4a:	61bb      	str	r3, [r7, #24]
        if((GPIO_Init->Mode & EXTI_IT) != 0x00U)
 8000f4c:	683b      	ldr	r3, [r7, #0]
 8000f4e:	685b      	ldr	r3, [r3, #4]
 8000f50:	f403 3380 	and.w	r3, r3, #65536	; 0x10000
 8000f54:	2b00      	cmp	r3, #0
 8000f56:	d003      	beq.n	8000f60 <HAL_GPIO_Init+0x2e8>
        {
          temp |= iocurrent;
 8000f58:	69ba      	ldr	r2, [r7, #24]
 8000f5a:	693b      	ldr	r3, [r7, #16]
 8000f5c:	4313      	orrs	r3, r2
 8000f5e:	61bb      	str	r3, [r7, #24]
        }
        EXTI->IMR = temp;
 8000f60:	4a12      	ldr	r2, [pc, #72]	; (8000fac <HAL_GPIO_Init+0x334>)
 8000f62:	69bb      	ldr	r3, [r7, #24]
 8000f64:	6013      	str	r3, [r2, #0]
  for(position = 0U; position < GPIO_NUMBER; position++)
 8000f66:	69fb      	ldr	r3, [r7, #28]
 8000f68:	3301      	adds	r3, #1
 8000f6a:	61fb      	str	r3, [r7, #28]
 8000f6c:	69fb      	ldr	r3, [r7, #28]
 8000f6e:	2b0f      	cmp	r3, #15
 8000f70:	f67f ae90 	bls.w	8000c94 <HAL_GPIO_Init+0x1c>
      }
    }
  }
}
 8000f74:	bf00      	nop
 8000f76:	bf00      	nop
 8000f78:	3724      	adds	r7, #36	; 0x24
 8000f7a:	46bd      	mov	sp, r7
 8000f7c:	f85d 7b04 	ldr.w	r7, [sp], #4
 8000f80:	4770      	bx	lr
 8000f82:	bf00      	nop
 8000f84:	40023800 	.word	0x40023800
 8000f88:	40013800 	.word	0x40013800
 8000f8c:	40020000 	.word	0x40020000
 8000f90:	40020400 	.word	0x40020400
 8000f94:	40020800 	.word	0x40020800
 8000f98:	40020c00 	.word	0x40020c00
 8000f9c:	40021000 	.word	0x40021000
 8000fa0:	40021400 	.word	0x40021400
 8000fa4:	40021800 	.word	0x40021800
 8000fa8:	40021c00 	.word	0x40021c00
 8000fac:	40013c00 	.word	0x40013c00

08000fb0 <HAL_RCC_OscConfig>:
  *         supported by this API. User should request a transition to HSE Off
  *         first and then HSE On or HSE Bypass.
  * @retval HAL status
  */
__weak HAL_StatusTypeDef HAL_RCC_OscConfig(RCC_OscInitTypeDef  *RCC_OscInitStruct)
{
 8000fb0:	b580      	push	{r7, lr}
 8000fb2:	b086      	sub	sp, #24
 8000fb4:	af00      	add	r7, sp, #0
 8000fb6:	6078      	str	r0, [r7, #4]
  uint32_t tickstart, pll_config;

  /* Check Null pointer */
  if(RCC_OscInitStruct == NULL)
 8000fb8:	687b      	ldr	r3, [r7, #4]
 8000fba:	2b00      	cmp	r3, #0
 8000fbc:	d101      	bne.n	8000fc2 <HAL_RCC_OscConfig+0x12>
  {
    return HAL_ERROR;
 8000fbe:	2301      	movs	r3, #1
 8000fc0:	e267      	b.n	8001492 <HAL_RCC_OscConfig+0x4e2>
  }

  /* Check the parameters */
  assert_param(IS_RCC_OSCILLATORTYPE(RCC_OscInitStruct->OscillatorType));
  /*------------------------------- HSE Configuration ------------------------*/
  if(((RCC_OscInitStruct->OscillatorType) & RCC_OSCILLATORTYPE_HSE) == RCC_OSCILLATORTYPE_HSE)
 8000fc2:	687b      	ldr	r3, [r7, #4]
 8000fc4:	681b      	ldr	r3, [r3, #0]
 8000fc6:	f003 0301 	and.w	r3, r3, #1
 8000fca:	2b00      	cmp	r3, #0
 8000fcc:	d075      	beq.n	80010ba <HAL_RCC_OscConfig+0x10a>
  {
    /* Check the parameters */
    assert_param(IS_RCC_HSE(RCC_OscInitStruct->HSEState));
    /* When the HSE is used as system clock or clock source for PLL in these cases HSE will not disabled */
    if((__HAL_RCC_GET_SYSCLK_SOURCE() == RCC_CFGR_SWS_HSE) ||\
 8000fce:	4b88      	ldr	r3, [pc, #544]	; (80011f0 <HAL_RCC_OscConfig+0x240>)
 8000fd0:	689b      	ldr	r3, [r3, #8]
 8000fd2:	f003 030c 	and.w	r3, r3, #12
 8000fd6:	2b04      	cmp	r3, #4
 8000fd8:	d00c      	beq.n	8000ff4 <HAL_RCC_OscConfig+0x44>
      ((__HAL_RCC_GET_SYSCLK_SOURCE() == RCC_CFGR_SWS_PLL) && ((RCC->PLLCFGR & RCC_PLLCFGR_PLLSRC) == RCC_PLLCFGR_PLLSRC_HSE)))
 8000fda:	4b85      	ldr	r3, [pc, #532]	; (80011f0 <HAL_RCC_OscConfig+0x240>)
 8000fdc:	689b      	ldr	r3, [r3, #8]
 8000fde:	f003 030c 	and.w	r3, r3, #12
    if((__HAL_RCC_GET_SYSCLK_SOURCE() == RCC_CFGR_SWS_HSE) ||\
 8000fe2:	2b08      	cmp	r3, #8
 8000fe4:	d112      	bne.n	800100c <HAL_RCC_OscConfig+0x5c>
      ((__HAL_RCC_GET_SYSCLK_SOURCE() == RCC_CFGR_SWS_PLL) && ((RCC->PLLCFGR & RCC_PLLCFGR_PLLSRC) == RCC_PLLCFGR_PLLSRC_HSE)))
 8000fe6:	4b82      	ldr	r3, [pc, #520]	; (80011f0 <HAL_RCC_OscConfig+0x240>)
 8000fe8:	685b      	ldr	r3, [r3, #4]
 8000fea:	f403 0380 	and.w	r3, r3, #4194304	; 0x400000
 8000fee:	f5b3 0f80 	cmp.w	r3, #4194304	; 0x400000
 8000ff2:	d10b      	bne.n	800100c <HAL_RCC_OscConfig+0x5c>
    {
      if((__HAL_RCC_GET_FLAG(RCC_FLAG_HSERDY) != RESET) && (RCC_OscInitStruct->HSEState == RCC_HSE_OFF))
 8000ff4:	4b7e      	ldr	r3, [pc, #504]	; (80011f0 <HAL_RCC_OscConfig+0x240>)
 8000ff6:	681b      	ldr	r3, [r3, #0]
 8000ff8:	f403 3300 	and.w	r3, r3, #131072	; 0x20000
 8000ffc:	2b00      	cmp	r3, #0
 8000ffe:	d05b      	beq.n	80010b8 <HAL_RCC_OscConfig+0x108>
 8001000:	687b      	ldr	r3, [r7, #4]
 8001002:	685b      	ldr	r3, [r3, #4]
 8001004:	2b00      	cmp	r3, #0
 8001006:	d157      	bne.n	80010b8 <HAL_RCC_OscConfig+0x108>
      {
        return HAL_ERROR;
 8001008:	2301      	movs	r3, #1
 800100a:	e242      	b.n	8001492 <HAL_RCC_OscConfig+0x4e2>
      }
    }
    else
    {
      /* Set the new HSE configuration ---------------------------------------*/
      __HAL_RCC_HSE_CONFIG(RCC_OscInitStruct->HSEState);
 800100c:	687b      	ldr	r3, [r7, #4]
 800100e:	685b      	ldr	r3, [r3, #4]
 8001010:	f5b3 3f80 	cmp.w	r3, #65536	; 0x10000
 8001014:	d106      	bne.n	8001024 <HAL_RCC_OscConfig+0x74>
 8001016:	4b76      	ldr	r3, [pc, #472]	; (80011f0 <HAL_RCC_OscConfig+0x240>)
 8001018:	681b      	ldr	r3, [r3, #0]
 800101a:	4a75      	ldr	r2, [pc, #468]	; (80011f0 <HAL_RCC_OscConfig+0x240>)
 800101c:	f443 3380 	orr.w	r3, r3, #65536	; 0x10000
 8001020:	6013      	str	r3, [r2, #0]
 8001022:	e01d      	b.n	8001060 <HAL_RCC_OscConfig+0xb0>
 8001024:	687b      	ldr	r3, [r7, #4]
 8001026:	685b      	ldr	r3, [r3, #4]
 8001028:	f5b3 2fa0 	cmp.w	r3, #327680	; 0x50000
 800102c:	d10c      	bne.n	8001048 <HAL_RCC_OscConfig+0x98>
 800102e:	4b70      	ldr	r3, [pc, #448]	; (80011f0 <HAL_RCC_OscConfig+0x240>)
 8001030:	681b      	ldr	r3, [r3, #0]
 8001032:	4a6f      	ldr	r2, [pc, #444]	; (80011f0 <HAL_RCC_OscConfig+0x240>)
 8001034:	f443 2380 	orr.w	r3, r3, #262144	; 0x40000
 8001038:	6013      	str	r3, [r2, #0]
 800103a:	4b6d      	ldr	r3, [pc, #436]	; (80011f0 <HAL_RCC_OscConfig+0x240>)
 800103c:	681b      	ldr	r3, [r3, #0]
 800103e:	4a6c      	ldr	r2, [pc, #432]	; (80011f0 <HAL_RCC_OscConfig+0x240>)
 8001040:	f443 3380 	orr.w	r3, r3, #65536	; 0x10000
 8001044:	6013      	str	r3, [r2, #0]
 8001046:	e00b      	b.n	8001060 <HAL_RCC_OscConfig+0xb0>
 8001048:	4b69      	ldr	r3, [pc, #420]	; (80011f0 <HAL_RCC_OscConfig+0x240>)
 800104a:	681b      	ldr	r3, [r3, #0]
 800104c:	4a68      	ldr	r2, [pc, #416]	; (80011f0 <HAL_RCC_OscConfig+0x240>)
 800104e:	f423 3380 	bic.w	r3, r3, #65536	; 0x10000
 8001052:	6013      	str	r3, [r2, #0]
 8001054:	4b66      	ldr	r3, [pc, #408]	; (80011f0 <HAL_RCC_OscConfig+0x240>)
 8001056:	681b      	ldr	r3, [r3, #0]
 8001058:	4a65      	ldr	r2, [pc, #404]	; (80011f0 <HAL_RCC_OscConfig+0x240>)
 800105a:	f423 2380 	bic.w	r3, r3, #262144	; 0x40000
 800105e:	6013      	str	r3, [r2, #0]

      /* Check the HSE State */
      if((RCC_OscInitStruct->HSEState) != RCC_HSE_OFF)
 8001060:	687b      	ldr	r3, [r7, #4]
 8001062:	685b      	ldr	r3, [r3, #4]
 8001064:	2b00      	cmp	r3, #0
 8001066:	d013      	beq.n	8001090 <HAL_RCC_OscConfig+0xe0>
      {
        /* Get Start Tick */
        tickstart = HAL_GetTick();
 8001068:	f7ff fcc4 	bl	80009f4 <HAL_GetTick>
 800106c:	6138      	str	r0, [r7, #16]

        /* Wait till HSE is ready */
        while(__HAL_RCC_GET_FLAG(RCC_FLAG_HSERDY) == RESET)
 800106e:	e008      	b.n	8001082 <HAL_RCC_OscConfig+0xd2>
        {
          if((HAL_GetTick() - tickstart ) > HSE_TIMEOUT_VALUE)
 8001070:	f7ff fcc0 	bl	80009f4 <HAL_GetTick>
 8001074:	4602      	mov	r2, r0
 8001076:	693b      	ldr	r3, [r7, #16]
 8001078:	1ad3      	subs	r3, r2, r3
 800107a:	2b64      	cmp	r3, #100	; 0x64
 800107c:	d901      	bls.n	8001082 <HAL_RCC_OscConfig+0xd2>
          {
            return HAL_TIMEOUT;
 800107e:	2303      	movs	r3, #3
 8001080:	e207      	b.n	8001492 <HAL_RCC_OscConfig+0x4e2>
        while(__HAL_RCC_GET_FLAG(RCC_FLAG_HSERDY) == RESET)
 8001082:	4b5b      	ldr	r3, [pc, #364]	; (80011f0 <HAL_RCC_OscConfig+0x240>)
 8001084:	681b      	ldr	r3, [r3, #0]
 8001086:	f403 3300 	and.w	r3, r3, #131072	; 0x20000
 800108a:	2b00      	cmp	r3, #0
 800108c:	d0f0      	beq.n	8001070 <HAL_RCC_OscConfig+0xc0>
 800108e:	e014      	b.n	80010ba <HAL_RCC_OscConfig+0x10a>
        }
      }
      else
      {
        /* Get Start Tick */
        tickstart = HAL_GetTick();
 8001090:	f7ff fcb0 	bl	80009f4 <HAL_GetTick>
 8001094:	6138      	str	r0, [r7, #16]

        /* Wait till HSE is bypassed or disabled */
        while(__HAL_RCC_GET_FLAG(RCC_FLAG_HSERDY) != RESET)
 8001096:	e008      	b.n	80010aa <HAL_RCC_OscConfig+0xfa>
        {
          if((HAL_GetTick() - tickstart ) > HSE_TIMEOUT_VALUE)
 8001098:	f7ff fcac 	bl	80009f4 <HAL_GetTick>
 800109c:	4602      	mov	r2, r0
 800109e:	693b      	ldr	r3, [r7, #16]
 80010a0:	1ad3      	subs	r3, r2, r3
 80010a2:	2b64      	cmp	r3, #100	; 0x64
 80010a4:	d901      	bls.n	80010aa <HAL_RCC_OscConfig+0xfa>
          {
            return HAL_TIMEOUT;
 80010a6:	2303      	movs	r3, #3
 80010a8:	e1f3      	b.n	8001492 <HAL_RCC_OscConfig+0x4e2>
        while(__HAL_RCC_GET_FLAG(RCC_FLAG_HSERDY) != RESET)
 80010aa:	4b51      	ldr	r3, [pc, #324]	; (80011f0 <HAL_RCC_OscConfig+0x240>)
 80010ac:	681b      	ldr	r3, [r3, #0]
 80010ae:	f403 3300 	and.w	r3, r3, #131072	; 0x20000
 80010b2:	2b00      	cmp	r3, #0
 80010b4:	d1f0      	bne.n	8001098 <HAL_RCC_OscConfig+0xe8>
 80010b6:	e000      	b.n	80010ba <HAL_RCC_OscConfig+0x10a>
      if((__HAL_RCC_GET_FLAG(RCC_FLAG_HSERDY) != RESET) && (RCC_OscInitStruct->HSEState == RCC_HSE_OFF))
 80010b8:	bf00      	nop
        }
      }
    }
  }
  /*----------------------------- HSI Configuration --------------------------*/
  if(((RCC_OscInitStruct->OscillatorType) & RCC_OSCILLATORTYPE_HSI) == RCC_OSCILLATORTYPE_HSI)
 80010ba:	687b      	ldr	r3, [r7, #4]
 80010bc:	681b      	ldr	r3, [r3, #0]
 80010be:	f003 0302 	and.w	r3, r3, #2
 80010c2:	2b00      	cmp	r3, #0
 80010c4:	d063      	beq.n	800118e <HAL_RCC_OscConfig+0x1de>
    /* Check the parameters */
    assert_param(IS_RCC_HSI(RCC_OscInitStruct->HSIState));
    assert_param(IS_RCC_CALIBRATION_VALUE(RCC_OscInitStruct->HSICalibrationValue));

    /* Check if HSI is used as system clock or as PLL source when PLL is selected as system clock */
    if((__HAL_RCC_GET_SYSCLK_SOURCE() == RCC_CFGR_SWS_HSI) ||\
 80010c6:	4b4a      	ldr	r3, [pc, #296]	; (80011f0 <HAL_RCC_OscConfig+0x240>)
 80010c8:	689b      	ldr	r3, [r3, #8]
 80010ca:	f003 030c 	and.w	r3, r3, #12
 80010ce:	2b00      	cmp	r3, #0
 80010d0:	d00b      	beq.n	80010ea <HAL_RCC_OscConfig+0x13a>
      ((__HAL_RCC_GET_SYSCLK_SOURCE() == RCC_CFGR_SWS_PLL) && ((RCC->PLLCFGR & RCC_PLLCFGR_PLLSRC) == RCC_PLLCFGR_PLLSRC_HSI)))
 80010d2:	4b47      	ldr	r3, [pc, #284]	; (80011f0 <HAL_RCC_OscConfig+0x240>)
 80010d4:	689b      	ldr	r3, [r3, #8]
 80010d6:	f003 030c 	and.w	r3, r3, #12
    if((__HAL_RCC_GET_SYSCLK_SOURCE() == RCC_CFGR_SWS_HSI) ||\
 80010da:	2b08      	cmp	r3, #8
 80010dc:	d11c      	bne.n	8001118 <HAL_RCC_OscConfig+0x168>
      ((__HAL_RCC_GET_SYSCLK_SOURCE() == RCC_CFGR_SWS_PLL) && ((RCC->PLLCFGR & RCC_PLLCFGR_PLLSRC) == RCC_PLLCFGR_PLLSRC_HSI)))
 80010de:	4b44      	ldr	r3, [pc, #272]	; (80011f0 <HAL_RCC_OscConfig+0x240>)
 80010e0:	685b      	ldr	r3, [r3, #4]
 80010e2:	f403 0380 	and.w	r3, r3, #4194304	; 0x400000
 80010e6:	2b00      	cmp	r3, #0
 80010e8:	d116      	bne.n	8001118 <HAL_RCC_OscConfig+0x168>
    {
      /* When HSI is used as system clock it will not disabled */
      if((__HAL_RCC_GET_FLAG(RCC_FLAG_HSIRDY) != RESET) && (RCC_OscInitStruct->HSIState != RCC_HSI_ON))
 80010ea:	4b41      	ldr	r3, [pc, #260]	; (80011f0 <HAL_RCC_OscConfig+0x240>)
 80010ec:	681b      	ldr	r3, [r3, #0]
 80010ee:	f003 0302 	and.w	r3, r3, #2
 80010f2:	2b00      	cmp	r3, #0
 80010f4:	d005      	beq.n	8001102 <HAL_RCC_OscConfig+0x152>
 80010f6:	687b      	ldr	r3, [r7, #4]
 80010f8:	68db      	ldr	r3, [r3, #12]
 80010fa:	2b01      	cmp	r3, #1
 80010fc:	d001      	beq.n	8001102 <HAL_RCC_OscConfig+0x152>
      {
        return HAL_ERROR;
 80010fe:	2301      	movs	r3, #1
 8001100:	e1c7      	b.n	8001492 <HAL_RCC_OscConfig+0x4e2>
      }
      /* Otherwise, just the calibration is allowed */
      else
      {
        /* Adjusts the Internal High Speed oscillator (HSI) calibration value.*/
        __HAL_RCC_HSI_CALIBRATIONVALUE_ADJUST(RCC_OscInitStruct->HSICalibrationValue);
 8001102:	4b3b      	ldr	r3, [pc, #236]	; (80011f0 <HAL_RCC_OscConfig+0x240>)
 8001104:	681b      	ldr	r3, [r3, #0]
 8001106:	f023 02f8 	bic.w	r2, r3, #248	; 0xf8
 800110a:	687b      	ldr	r3, [r7, #4]
 800110c:	691b      	ldr	r3, [r3, #16]
 800110e:	00db      	lsls	r3, r3, #3
 8001110:	4937      	ldr	r1, [pc, #220]	; (80011f0 <HAL_RCC_OscConfig+0x240>)
 8001112:	4313      	orrs	r3, r2
 8001114:	600b      	str	r3, [r1, #0]
      if((__HAL_RCC_GET_FLAG(RCC_FLAG_HSIRDY) != RESET) && (RCC_OscInitStruct->HSIState != RCC_HSI_ON))
 8001116:	e03a      	b.n	800118e <HAL_RCC_OscConfig+0x1de>
      }
    }
    else
    {
      /* Check the HSI State */
      if((RCC_OscInitStruct->HSIState)!= RCC_HSI_OFF)
 8001118:	687b      	ldr	r3, [r7, #4]
 800111a:	68db      	ldr	r3, [r3, #12]
 800111c:	2b00      	cmp	r3, #0
 800111e:	d020      	beq.n	8001162 <HAL_RCC_OscConfig+0x1b2>
      {
        /* Enable the Internal High Speed oscillator (HSI). */
        __HAL_RCC_HSI_ENABLE();
 8001120:	4b34      	ldr	r3, [pc, #208]	; (80011f4 <HAL_RCC_OscConfig+0x244>)
 8001122:	2201      	movs	r2, #1
 8001124:	601a      	str	r2, [r3, #0]

        /* Get Start Tick*/
        tickstart = HAL_GetTick();
 8001126:	f7ff fc65 	bl	80009f4 <HAL_GetTick>
 800112a:	6138      	str	r0, [r7, #16]

        /* Wait till HSI is ready */
        while(__HAL_RCC_GET_FLAG(RCC_FLAG_HSIRDY) == RESET)
 800112c:	e008      	b.n	8001140 <HAL_RCC_OscConfig+0x190>
        {
          if((HAL_GetTick() - tickstart ) > HSI_TIMEOUT_VALUE)
 800112e:	f7ff fc61 	bl	80009f4 <HAL_GetTick>
 8001132:	4602      	mov	r2, r0
 8001134:	693b      	ldr	r3, [r7, #16]
 8001136:	1ad3      	subs	r3, r2, r3
 8001138:	2b02      	cmp	r3, #2
 800113a:	d901      	bls.n	8001140 <HAL_RCC_OscConfig+0x190>
          {
            return HAL_TIMEOUT;
 800113c:	2303      	movs	r3, #3
 800113e:	e1a8      	b.n	8001492 <HAL_RCC_OscConfig+0x4e2>
        while(__HAL_RCC_GET_FLAG(RCC_FLAG_HSIRDY) == RESET)
 8001140:	4b2b      	ldr	r3, [pc, #172]	; (80011f0 <HAL_RCC_OscConfig+0x240>)
 8001142:	681b      	ldr	r3, [r3, #0]
 8001144:	f003 0302 	and.w	r3, r3, #2
 8001148:	2b00      	cmp	r3, #0
 800114a:	d0f0      	beq.n	800112e <HAL_RCC_OscConfig+0x17e>
          }
        }

        /* Adjusts the Internal High Speed oscillator (HSI) calibration value. */
        __HAL_RCC_HSI_CALIBRATIONVALUE_ADJUST(RCC_OscInitStruct->HSICalibrationValue);
 800114c:	4b28      	ldr	r3, [pc, #160]	; (80011f0 <HAL_RCC_OscConfig+0x240>)
 800114e:	681b      	ldr	r3, [r3, #0]
 8001150:	f023 02f8 	bic.w	r2, r3, #248	; 0xf8
 8001154:	687b      	ldr	r3, [r7, #4]
 8001156:	691b      	ldr	r3, [r3, #16]
 8001158:	00db      	lsls	r3, r3, #3
 800115a:	4925      	ldr	r1, [pc, #148]	; (80011f0 <HAL_RCC_OscConfig+0x240>)
 800115c:	4313      	orrs	r3, r2
 800115e:	600b      	str	r3, [r1, #0]
 8001160:	e015      	b.n	800118e <HAL_RCC_OscConfig+0x1de>
      }
      else
      {
        /* Disable the Internal High Speed oscillator (HSI). */
        __HAL_RCC_HSI_DISABLE();
 8001162:	4b24      	ldr	r3, [pc, #144]	; (80011f4 <HAL_RCC_OscConfig+0x244>)
 8001164:	2200      	movs	r2, #0
 8001166:	601a      	str	r2, [r3, #0]

        /* Get Start Tick*/
        tickstart = HAL_GetTick();
 8001168:	f7ff fc44 	bl	80009f4 <HAL_GetTick>
 800116c:	6138      	str	r0, [r7, #16]

        /* Wait till HSI is ready */
        while(__HAL_RCC_GET_FLAG(RCC_FLAG_HSIRDY) != RESET)
 800116e:	e008      	b.n	8001182 <HAL_RCC_OscConfig+0x1d2>
        {
          if((HAL_GetTick() - tickstart ) > HSI_TIMEOUT_VALUE)
 8001170:	f7ff fc40 	bl	80009f4 <HAL_GetTick>
 8001174:	4602      	mov	r2, r0
 8001176:	693b      	ldr	r3, [r7, #16]
 8001178:	1ad3      	subs	r3, r2, r3
 800117a:	2b02      	cmp	r3, #2
 800117c:	d901      	bls.n	8001182 <HAL_RCC_OscConfig+0x1d2>
          {
            return HAL_TIMEOUT;
 800117e:	2303      	movs	r3, #3
 8001180:	e187      	b.n	8001492 <HAL_RCC_OscConfig+0x4e2>
        while(__HAL_RCC_GET_FLAG(RCC_FLAG_HSIRDY) != RESET)
 8001182:	4b1b      	ldr	r3, [pc, #108]	; (80011f0 <HAL_RCC_OscConfig+0x240>)
 8001184:	681b      	ldr	r3, [r3, #0]
 8001186:	f003 0302 	and.w	r3, r3, #2
 800118a:	2b00      	cmp	r3, #0
 800118c:	d1f0      	bne.n	8001170 <HAL_RCC_OscConfig+0x1c0>
        }
      }
    }
  }
  /*------------------------------ LSI Configuration -------------------------*/
  if(((RCC_OscInitStruct->OscillatorType) & RCC_OSCILLATORTYPE_LSI) == RCC_OSCILLATORTYPE_LSI)
 800118e:	687b      	ldr	r3, [r7, #4]
 8001190:	681b      	ldr	r3, [r3, #0]
 8001192:	f003 0308 	and.w	r3, r3, #8
 8001196:	2b00      	cmp	r3, #0
 8001198:	d036      	beq.n	8001208 <HAL_RCC_OscConfig+0x258>
  {
    /* Check the parameters */
    assert_param(IS_RCC_LSI(RCC_OscInitStruct->LSIState));

    /* Check the LSI State */
    if((RCC_OscInitStruct->LSIState)!= RCC_LSI_OFF)
 800119a:	687b      	ldr	r3, [r7, #4]
 800119c:	695b      	ldr	r3, [r3, #20]
 800119e:	2b00      	cmp	r3, #0
 80011a0:	d016      	beq.n	80011d0 <HAL_RCC_OscConfig+0x220>
    {
      /* Enable the Internal Low Speed oscillator (LSI). */
      __HAL_RCC_LSI_ENABLE();
 80011a2:	4b15      	ldr	r3, [pc, #84]	; (80011f8 <HAL_RCC_OscConfig+0x248>)
 80011a4:	2201      	movs	r2, #1
 80011a6:	601a      	str	r2, [r3, #0]

      /* Get Start Tick*/
      tickstart = HAL_GetTick();
 80011a8:	f7ff fc24 	bl	80009f4 <HAL_GetTick>
 80011ac:	6138      	str	r0, [r7, #16]

      /* Wait till LSI is ready */
      while(__HAL_RCC_GET_FLAG(RCC_FLAG_LSIRDY) == RESET)
 80011ae:	e008      	b.n	80011c2 <HAL_RCC_OscConfig+0x212>
      {
        if((HAL_GetTick() - tickstart ) > LSI_TIMEOUT_VALUE)
 80011b0:	f7ff fc20 	bl	80009f4 <HAL_GetTick>
 80011b4:	4602      	mov	r2, r0
 80011b6:	693b      	ldr	r3, [r7, #16]
 80011b8:	1ad3      	subs	r3, r2, r3
 80011ba:	2b02      	cmp	r3, #2
 80011bc:	d901      	bls.n	80011c2 <HAL_RCC_OscConfig+0x212>
        {
          return HAL_TIMEOUT;
 80011be:	2303      	movs	r3, #3
 80011c0:	e167      	b.n	8001492 <HAL_RCC_OscConfig+0x4e2>
      while(__HAL_RCC_GET_FLAG(RCC_FLAG_LSIRDY) == RESET)
 80011c2:	4b0b      	ldr	r3, [pc, #44]	; (80011f0 <HAL_RCC_OscConfig+0x240>)
 80011c4:	6f5b      	ldr	r3, [r3, #116]	; 0x74
 80011c6:	f003 0302 	and.w	r3, r3, #2
 80011ca:	2b00      	cmp	r3, #0
 80011cc:	d0f0      	beq.n	80011b0 <HAL_RCC_OscConfig+0x200>
 80011ce:	e01b      	b.n	8001208 <HAL_RCC_OscConfig+0x258>
      }
    }
    else
    {
      /* Disable the Internal Low Speed oscillator (LSI). */
      __HAL_RCC_LSI_DISABLE();
 80011d0:	4b09      	ldr	r3, [pc, #36]	; (80011f8 <HAL_RCC_OscConfig+0x248>)
 80011d2:	2200      	movs	r2, #0
 80011d4:	601a      	str	r2, [r3, #0]

      /* Get Start Tick */
      tickstart = HAL_GetTick();
 80011d6:	f7ff fc0d 	bl	80009f4 <HAL_GetTick>
 80011da:	6138      	str	r0, [r7, #16]

      /* Wait till LSI is ready */
      while(__HAL_RCC_GET_FLAG(RCC_FLAG_LSIRDY) != RESET)
 80011dc:	e00e      	b.n	80011fc <HAL_RCC_OscConfig+0x24c>
      {
        if((HAL_GetTick() - tickstart ) > LSI_TIMEOUT_VALUE)
 80011de:	f7ff fc09 	bl	80009f4 <HAL_GetTick>
 80011e2:	4602      	mov	r2, r0
 80011e4:	693b      	ldr	r3, [r7, #16]
 80011e6:	1ad3      	subs	r3, r2, r3
 80011e8:	2b02      	cmp	r3, #2
 80011ea:	d907      	bls.n	80011fc <HAL_RCC_OscConfig+0x24c>
        {
          return HAL_TIMEOUT;
 80011ec:	2303      	movs	r3, #3
 80011ee:	e150      	b.n	8001492 <HAL_RCC_OscConfig+0x4e2>
 80011f0:	40023800 	.word	0x40023800
 80011f4:	42470000 	.word	0x42470000
 80011f8:	42470e80 	.word	0x42470e80
      while(__HAL_RCC_GET_FLAG(RCC_FLAG_LSIRDY) != RESET)
 80011fc:	4b88      	ldr	r3, [pc, #544]	; (8001420 <HAL_RCC_OscConfig+0x470>)
 80011fe:	6f5b      	ldr	r3, [r3, #116]	; 0x74
 8001200:	f003 0302 	and.w	r3, r3, #2
 8001204:	2b00      	cmp	r3, #0
 8001206:	d1ea      	bne.n	80011de <HAL_RCC_OscConfig+0x22e>
        }
      }
    }
  }
  /*------------------------------ LSE Configuration -------------------------*/
  if(((RCC_OscInitStruct->OscillatorType) & RCC_OSCILLATORTYPE_LSE) == RCC_OSCILLATORTYPE_LSE)
 8001208:	687b      	ldr	r3, [r7, #4]
 800120a:	681b      	ldr	r3, [r3, #0]
 800120c:	f003 0304 	and.w	r3, r3, #4
 8001210:	2b00      	cmp	r3, #0
 8001212:	f000 8097 	beq.w	8001344 <HAL_RCC_OscConfig+0x394>
  {
    FlagStatus       pwrclkchanged = RESET;
 8001216:	2300      	movs	r3, #0
 8001218:	75fb      	strb	r3, [r7, #23]
    /* Check the parameters */
    assert_param(IS_RCC_LSE(RCC_OscInitStruct->LSEState));

    /* Update LSE configuration in Backup Domain control register    */
    /* Requires to enable write access to Backup Domain of necessary */
    if(__HAL_RCC_PWR_IS_CLK_DISABLED())
 800121a:	4b81      	ldr	r3, [pc, #516]	; (8001420 <HAL_RCC_OscConfig+0x470>)
 800121c:	6c1b      	ldr	r3, [r3, #64]	; 0x40
 800121e:	f003 5380 	and.w	r3, r3, #268435456	; 0x10000000
 8001222:	2b00      	cmp	r3, #0
 8001224:	d10f      	bne.n	8001246 <HAL_RCC_OscConfig+0x296>
    {
      __HAL_RCC_PWR_CLK_ENABLE();
 8001226:	2300      	movs	r3, #0
 8001228:	60bb      	str	r3, [r7, #8]
 800122a:	4b7d      	ldr	r3, [pc, #500]	; (8001420 <HAL_RCC_OscConfig+0x470>)
 800122c:	6c1b      	ldr	r3, [r3, #64]	; 0x40
 800122e:	4a7c      	ldr	r2, [pc, #496]	; (8001420 <HAL_RCC_OscConfig+0x470>)
 8001230:	f043 5380 	orr.w	r3, r3, #268435456	; 0x10000000
 8001234:	6413      	str	r3, [r2, #64]	; 0x40
 8001236:	4b7a      	ldr	r3, [pc, #488]	; (8001420 <HAL_RCC_OscConfig+0x470>)
 8001238:	6c1b      	ldr	r3, [r3, #64]	; 0x40
 800123a:	f003 5380 	and.w	r3, r3, #268435456	; 0x10000000
 800123e:	60bb      	str	r3, [r7, #8]
 8001240:	68bb      	ldr	r3, [r7, #8]
      pwrclkchanged = SET;
 8001242:	2301      	movs	r3, #1
 8001244:	75fb      	strb	r3, [r7, #23]
    }

    if(HAL_IS_BIT_CLR(PWR->CR, PWR_CR_DBP))
 8001246:	4b77      	ldr	r3, [pc, #476]	; (8001424 <HAL_RCC_OscConfig+0x474>)
 8001248:	681b      	ldr	r3, [r3, #0]
 800124a:	f403 7380 	and.w	r3, r3, #256	; 0x100
 800124e:	2b00      	cmp	r3, #0
 8001250:	d118      	bne.n	8001284 <HAL_RCC_OscConfig+0x2d4>
    {
      /* Enable write access to Backup domain */
      SET_BIT(PWR->CR, PWR_CR_DBP);
 8001252:	4b74      	ldr	r3, [pc, #464]	; (8001424 <HAL_RCC_OscConfig+0x474>)
 8001254:	681b      	ldr	r3, [r3, #0]
 8001256:	4a73      	ldr	r2, [pc, #460]	; (8001424 <HAL_RCC_OscConfig+0x474>)
 8001258:	f443 7380 	orr.w	r3, r3, #256	; 0x100
 800125c:	6013      	str	r3, [r2, #0]

      /* Wait for Backup domain Write protection disable */
      tickstart = HAL_GetTick();
 800125e:	f7ff fbc9 	bl	80009f4 <HAL_GetTick>
 8001262:	6138      	str	r0, [r7, #16]

      while(HAL_IS_BIT_CLR(PWR->CR, PWR_CR_DBP))
 8001264:	e008      	b.n	8001278 <HAL_RCC_OscConfig+0x2c8>
      {
        if((HAL_GetTick() - tickstart) > RCC_DBP_TIMEOUT_VALUE)
 8001266:	f7ff fbc5 	bl	80009f4 <HAL_GetTick>
 800126a:	4602      	mov	r2, r0
 800126c:	693b      	ldr	r3, [r7, #16]
 800126e:	1ad3      	subs	r3, r2, r3
 8001270:	2b02      	cmp	r3, #2
 8001272:	d901      	bls.n	8001278 <HAL_RCC_OscConfig+0x2c8>
        {
          return HAL_TIMEOUT;
 8001274:	2303      	movs	r3, #3
 8001276:	e10c      	b.n	8001492 <HAL_RCC_OscConfig+0x4e2>
      while(HAL_IS_BIT_CLR(PWR->CR, PWR_CR_DBP))
 8001278:	4b6a      	ldr	r3, [pc, #424]	; (8001424 <HAL_RCC_OscConfig+0x474>)
 800127a:	681b      	ldr	r3, [r3, #0]
 800127c:	f403 7380 	and.w	r3, r3, #256	; 0x100
 8001280:	2b00      	cmp	r3, #0
 8001282:	d0f0      	beq.n	8001266 <HAL_RCC_OscConfig+0x2b6>
        }
      }
    }

    /* Set the new LSE configuration -----------------------------------------*/
    __HAL_RCC_LSE_CONFIG(RCC_OscInitStruct->LSEState);
 8001284:	687b      	ldr	r3, [r7, #4]
 8001286:	689b      	ldr	r3, [r3, #8]
 8001288:	2b01      	cmp	r3, #1
 800128a:	d106      	bne.n	800129a <HAL_RCC_OscConfig+0x2ea>
 800128c:	4b64      	ldr	r3, [pc, #400]	; (8001420 <HAL_RCC_OscConfig+0x470>)
 800128e:	6f1b      	ldr	r3, [r3, #112]	; 0x70
 8001290:	4a63      	ldr	r2, [pc, #396]	; (8001420 <HAL_RCC_OscConfig+0x470>)
 8001292:	f043 0301 	orr.w	r3, r3, #1
 8001296:	6713      	str	r3, [r2, #112]	; 0x70
 8001298:	e01c      	b.n	80012d4 <HAL_RCC_OscConfig+0x324>
 800129a:	687b      	ldr	r3, [r7, #4]
 800129c:	689b      	ldr	r3, [r3, #8]
 800129e:	2b05      	cmp	r3, #5
 80012a0:	d10c      	bne.n	80012bc <HAL_RCC_OscConfig+0x30c>
 80012a2:	4b5f      	ldr	r3, [pc, #380]	; (8001420 <HAL_RCC_OscConfig+0x470>)
 80012a4:	6f1b      	ldr	r3, [r3, #112]	; 0x70
 80012a6:	4a5e      	ldr	r2, [pc, #376]	; (8001420 <HAL_RCC_OscConfig+0x470>)
 80012a8:	f043 0304 	orr.w	r3, r3, #4
 80012ac:	6713      	str	r3, [r2, #112]	; 0x70
 80012ae:	4b5c      	ldr	r3, [pc, #368]	; (8001420 <HAL_RCC_OscConfig+0x470>)
 80012b0:	6f1b      	ldr	r3, [r3, #112]	; 0x70
 80012b2:	4a5b      	ldr	r2, [pc, #364]	; (8001420 <HAL_RCC_OscConfig+0x470>)
 80012b4:	f043 0301 	orr.w	r3, r3, #1
 80012b8:	6713      	str	r3, [r2, #112]	; 0x70
 80012ba:	e00b      	b.n	80012d4 <HAL_RCC_OscConfig+0x324>
 80012bc:	4b58      	ldr	r3, [pc, #352]	; (8001420 <HAL_RCC_OscConfig+0x470>)
 80012be:	6f1b      	ldr	r3, [r3, #112]	; 0x70
 80012c0:	4a57      	ldr	r2, [pc, #348]	; (8001420 <HAL_RCC_OscConfig+0x470>)
 80012c2:	f023 0301 	bic.w	r3, r3, #1
 80012c6:	6713      	str	r3, [r2, #112]	; 0x70
 80012c8:	4b55      	ldr	r3, [pc, #340]	; (8001420 <HAL_RCC_OscConfig+0x470>)
 80012ca:	6f1b      	ldr	r3, [r3, #112]	; 0x70
 80012cc:	4a54      	ldr	r2, [pc, #336]	; (8001420 <HAL_RCC_OscConfig+0x470>)
 80012ce:	f023 0304 	bic.w	r3, r3, #4
 80012d2:	6713      	str	r3, [r2, #112]	; 0x70
    /* Check the LSE State */
    if((RCC_OscInitStruct->LSEState) != RCC_LSE_OFF)
 80012d4:	687b      	ldr	r3, [r7, #4]
 80012d6:	689b      	ldr	r3, [r3, #8]
 80012d8:	2b00      	cmp	r3, #0
 80012da:	d015      	beq.n	8001308 <HAL_RCC_OscConfig+0x358>
    {
      /* Get Start Tick*/
      tickstart = HAL_GetTick();
 80012dc:	f7ff fb8a 	bl	80009f4 <HAL_GetTick>
 80012e0:	6138      	str	r0, [r7, #16]

      /* Wait till LSE is ready */
      while(__HAL_RCC_GET_FLAG(RCC_FLAG_LSERDY) == RESET)
 80012e2:	e00a      	b.n	80012fa <HAL_RCC_OscConfig+0x34a>
      {
        if((HAL_GetTick() - tickstart ) > RCC_LSE_TIMEOUT_VALUE)
 80012e4:	f7ff fb86 	bl	80009f4 <HAL_GetTick>
 80012e8:	4602      	mov	r2, r0
 80012ea:	693b      	ldr	r3, [r7, #16]
 80012ec:	1ad3      	subs	r3, r2, r3
 80012ee:	f241 3288 	movw	r2, #5000	; 0x1388
 80012f2:	4293      	cmp	r3, r2
 80012f4:	d901      	bls.n	80012fa <HAL_RCC_OscConfig+0x34a>
        {
          return HAL_TIMEOUT;
 80012f6:	2303      	movs	r3, #3
 80012f8:	e0cb      	b.n	8001492 <HAL_RCC_OscConfig+0x4e2>
      while(__HAL_RCC_GET_FLAG(RCC_FLAG_LSERDY) == RESET)
 80012fa:	4b49      	ldr	r3, [pc, #292]	; (8001420 <HAL_RCC_OscConfig+0x470>)
 80012fc:	6f1b      	ldr	r3, [r3, #112]	; 0x70
 80012fe:	f003 0302 	and.w	r3, r3, #2
 8001302:	2b00      	cmp	r3, #0
 8001304:	d0ee      	beq.n	80012e4 <HAL_RCC_OscConfig+0x334>
 8001306:	e014      	b.n	8001332 <HAL_RCC_OscConfig+0x382>
      }
    }
    else
    {
      /* Get Start Tick */
      tickstart = HAL_GetTick();
 8001308:	f7ff fb74 	bl	80009f4 <HAL_GetTick>
 800130c:	6138      	str	r0, [r7, #16]

      /* Wait till LSE is ready */
      while(__HAL_RCC_GET_FLAG(RCC_FLAG_LSERDY) != RESET)
 800130e:	e00a      	b.n	8001326 <HAL_RCC_OscConfig+0x376>
      {
        if((HAL_GetTick() - tickstart ) > RCC_LSE_TIMEOUT_VALUE)
 8001310:	f7ff fb70 	bl	80009f4 <HAL_GetTick>
 8001314:	4602      	mov	r2, r0
 8001316:	693b      	ldr	r3, [r7, #16]
 8001318:	1ad3      	subs	r3, r2, r3
 800131a:	f241 3288 	movw	r2, #5000	; 0x1388
 800131e:	4293      	cmp	r3, r2
 8001320:	d901      	bls.n	8001326 <HAL_RCC_OscConfig+0x376>
        {
          return HAL_TIMEOUT;
 8001322:	2303      	movs	r3, #3
 8001324:	e0b5      	b.n	8001492 <HAL_RCC_OscConfig+0x4e2>
      while(__HAL_RCC_GET_FLAG(RCC_FLAG_LSERDY) != RESET)
 8001326:	4b3e      	ldr	r3, [pc, #248]	; (8001420 <HAL_RCC_OscConfig+0x470>)
 8001328:	6f1b      	ldr	r3, [r3, #112]	; 0x70
 800132a:	f003 0302 	and.w	r3, r3, #2
 800132e:	2b00      	cmp	r3, #0
 8001330:	d1ee      	bne.n	8001310 <HAL_RCC_OscConfig+0x360>
        }
      }
    }

    /* Restore clock configuration if changed */
    if(pwrclkchanged == SET)
 8001332:	7dfb      	ldrb	r3, [r7, #23]
 8001334:	2b01      	cmp	r3, #1
 8001336:	d105      	bne.n	8001344 <HAL_RCC_OscConfig+0x394>
    {
      __HAL_RCC_PWR_CLK_DISABLE();
 8001338:	4b39      	ldr	r3, [pc, #228]	; (8001420 <HAL_RCC_OscConfig+0x470>)
 800133a:	6c1b      	ldr	r3, [r3, #64]	; 0x40
 800133c:	4a38      	ldr	r2, [pc, #224]	; (8001420 <HAL_RCC_OscConfig+0x470>)
 800133e:	f023 5380 	bic.w	r3, r3, #268435456	; 0x10000000
 8001342:	6413      	str	r3, [r2, #64]	; 0x40
    }
  }
  /*-------------------------------- PLL Configuration -----------------------*/
  /* Check the parameters */
  assert_param(IS_RCC_PLL(RCC_OscInitStruct->PLL.PLLState));
  if ((RCC_OscInitStruct->PLL.PLLState) != RCC_PLL_NONE)
 8001344:	687b      	ldr	r3, [r7, #4]
 8001346:	699b      	ldr	r3, [r3, #24]
 8001348:	2b00      	cmp	r3, #0
 800134a:	f000 80a1 	beq.w	8001490 <HAL_RCC_OscConfig+0x4e0>
  {
    /* Check if the PLL is used as system clock or not */
    if(__HAL_RCC_GET_SYSCLK_SOURCE() != RCC_CFGR_SWS_PLL)
 800134e:	4b34      	ldr	r3, [pc, #208]	; (8001420 <HAL_RCC_OscConfig+0x470>)
 8001350:	689b      	ldr	r3, [r3, #8]
 8001352:	f003 030c 	and.w	r3, r3, #12
 8001356:	2b08      	cmp	r3, #8
 8001358:	d05c      	beq.n	8001414 <HAL_RCC_OscConfig+0x464>
    {
      if((RCC_OscInitStruct->PLL.PLLState) == RCC_PLL_ON)
 800135a:	687b      	ldr	r3, [r7, #4]
 800135c:	699b      	ldr	r3, [r3, #24]
 800135e:	2b02      	cmp	r3, #2
 8001360:	d141      	bne.n	80013e6 <HAL_RCC_OscConfig+0x436>
        assert_param(IS_RCC_PLLN_VALUE(RCC_OscInitStruct->PLL.PLLN));
        assert_param(IS_RCC_PLLP_VALUE(RCC_OscInitStruct->PLL.PLLP));
        assert_param(IS_RCC_PLLQ_VALUE(RCC_OscInitStruct->PLL.PLLQ));

        /* Disable the main PLL. */
        __HAL_RCC_PLL_DISABLE();
 8001362:	4b31      	ldr	r3, [pc, #196]	; (8001428 <HAL_RCC_OscConfig+0x478>)
 8001364:	2200      	movs	r2, #0
 8001366:	601a      	str	r2, [r3, #0]

        /* Get Start Tick */
        tickstart = HAL_GetTick();
 8001368:	f7ff fb44 	bl	80009f4 <HAL_GetTick>
 800136c:	6138      	str	r0, [r7, #16]

        /* Wait till PLL is ready */
        while(__HAL_RCC_GET_FLAG(RCC_FLAG_PLLRDY) != RESET)
 800136e:	e008      	b.n	8001382 <HAL_RCC_OscConfig+0x3d2>
        {
          if((HAL_GetTick() - tickstart ) > PLL_TIMEOUT_VALUE)
 8001370:	f7ff fb40 	bl	80009f4 <HAL_GetTick>
 8001374:	4602      	mov	r2, r0
 8001376:	693b      	ldr	r3, [r7, #16]
 8001378:	1ad3      	subs	r3, r2, r3
 800137a:	2b02      	cmp	r3, #2
 800137c:	d901      	bls.n	8001382 <HAL_RCC_OscConfig+0x3d2>
          {
            return HAL_TIMEOUT;
 800137e:	2303      	movs	r3, #3
 8001380:	e087      	b.n	8001492 <HAL_RCC_OscConfig+0x4e2>
        while(__HAL_RCC_GET_FLAG(RCC_FLAG_PLLRDY) != RESET)
 8001382:	4b27      	ldr	r3, [pc, #156]	; (8001420 <HAL_RCC_OscConfig+0x470>)
 8001384:	681b      	ldr	r3, [r3, #0]
 8001386:	f003 7300 	and.w	r3, r3, #33554432	; 0x2000000
 800138a:	2b00      	cmp	r3, #0
 800138c:	d1f0      	bne.n	8001370 <HAL_RCC_OscConfig+0x3c0>
          }
        }

        /* Configure the main PLL clock source, multiplication and division factors. */
        WRITE_REG(RCC->PLLCFGR, (RCC_OscInitStruct->PLL.PLLSource                                            | \
 800138e:	687b      	ldr	r3, [r7, #4]
 8001390:	69da      	ldr	r2, [r3, #28]
 8001392:	687b      	ldr	r3, [r7, #4]
 8001394:	6a1b      	ldr	r3, [r3, #32]
 8001396:	431a      	orrs	r2, r3
 8001398:	687b      	ldr	r3, [r7, #4]
 800139a:	6a5b      	ldr	r3, [r3, #36]	; 0x24
 800139c:	019b      	lsls	r3, r3, #6
 800139e:	431a      	orrs	r2, r3
 80013a0:	687b      	ldr	r3, [r7, #4]
 80013a2:	6a9b      	ldr	r3, [r3, #40]	; 0x28
 80013a4:	085b      	lsrs	r3, r3, #1
 80013a6:	3b01      	subs	r3, #1
 80013a8:	041b      	lsls	r3, r3, #16
 80013aa:	431a      	orrs	r2, r3
 80013ac:	687b      	ldr	r3, [r7, #4]
 80013ae:	6adb      	ldr	r3, [r3, #44]	; 0x2c
 80013b0:	061b      	lsls	r3, r3, #24
 80013b2:	491b      	ldr	r1, [pc, #108]	; (8001420 <HAL_RCC_OscConfig+0x470>)
 80013b4:	4313      	orrs	r3, r2
 80013b6:	604b      	str	r3, [r1, #4]
                                 RCC_OscInitStruct->PLL.PLLM                                                 | \
                                 (RCC_OscInitStruct->PLL.PLLN << RCC_PLLCFGR_PLLN_Pos)             | \
                                 (((RCC_OscInitStruct->PLL.PLLP >> 1U) - 1U) << RCC_PLLCFGR_PLLP_Pos) | \
                                 (RCC_OscInitStruct->PLL.PLLQ << RCC_PLLCFGR_PLLQ_Pos)));
        /* Enable the main PLL. */
        __HAL_RCC_PLL_ENABLE();
 80013b8:	4b1b      	ldr	r3, [pc, #108]	; (8001428 <HAL_RCC_OscConfig+0x478>)
 80013ba:	2201      	movs	r2, #1
 80013bc:	601a      	str	r2, [r3, #0]

        /* Get Start Tick */
        tickstart = HAL_GetTick();
 80013be:	f7ff fb19 	bl	80009f4 <HAL_GetTick>
 80013c2:	6138      	str	r0, [r7, #16]

        /* Wait till PLL is ready */
        while(__HAL_RCC_GET_FLAG(RCC_FLAG_PLLRDY) == RESET)
 80013c4:	e008      	b.n	80013d8 <HAL_RCC_OscConfig+0x428>
        {
          if((HAL_GetTick() - tickstart ) > PLL_TIMEOUT_VALUE)
 80013c6:	f7ff fb15 	bl	80009f4 <HAL_GetTick>
 80013ca:	4602      	mov	r2, r0
 80013cc:	693b      	ldr	r3, [r7, #16]
 80013ce:	1ad3      	subs	r3, r2, r3
 80013d0:	2b02      	cmp	r3, #2
 80013d2:	d901      	bls.n	80013d8 <HAL_RCC_OscConfig+0x428>
          {
            return HAL_TIMEOUT;
 80013d4:	2303      	movs	r3, #3
 80013d6:	e05c      	b.n	8001492 <HAL_RCC_OscConfig+0x4e2>
        while(__HAL_RCC_GET_FLAG(RCC_FLAG_PLLRDY) == RESET)
 80013d8:	4b11      	ldr	r3, [pc, #68]	; (8001420 <HAL_RCC_OscConfig+0x470>)
 80013da:	681b      	ldr	r3, [r3, #0]
 80013dc:	f003 7300 	and.w	r3, r3, #33554432	; 0x2000000
 80013e0:	2b00      	cmp	r3, #0
 80013e2:	d0f0      	beq.n	80013c6 <HAL_RCC_OscConfig+0x416>
 80013e4:	e054      	b.n	8001490 <HAL_RCC_OscConfig+0x4e0>
        }
      }
      else
      {
        /* Disable the main PLL. */
        __HAL_RCC_PLL_DISABLE();
 80013e6:	4b10      	ldr	r3, [pc, #64]	; (8001428 <HAL_RCC_OscConfig+0x478>)
 80013e8:	2200      	movs	r2, #0
 80013ea:	601a      	str	r2, [r3, #0]

        /* Get Start Tick */
        tickstart = HAL_GetTick();
 80013ec:	f7ff fb02 	bl	80009f4 <HAL_GetTick>
 80013f0:	6138      	str	r0, [r7, #16]

        /* Wait till PLL is ready */
        while(__HAL_RCC_GET_FLAG(RCC_FLAG_PLLRDY) != RESET)
 80013f2:	e008      	b.n	8001406 <HAL_RCC_OscConfig+0x456>
        {
          if((HAL_GetTick() - tickstart ) > PLL_TIMEOUT_VALUE)
 80013f4:	f7ff fafe 	bl	80009f4 <HAL_GetTick>
 80013f8:	4602      	mov	r2, r0
 80013fa:	693b      	ldr	r3, [r7, #16]
 80013fc:	1ad3      	subs	r3, r2, r3
 80013fe:	2b02      	cmp	r3, #2
 8001400:	d901      	bls.n	8001406 <HAL_RCC_OscConfig+0x456>
          {
            return HAL_TIMEOUT;
 8001402:	2303      	movs	r3, #3
 8001404:	e045      	b.n	8001492 <HAL_RCC_OscConfig+0x4e2>
        while(__HAL_RCC_GET_FLAG(RCC_FLAG_PLLRDY) != RESET)
 8001406:	4b06      	ldr	r3, [pc, #24]	; (8001420 <HAL_RCC_OscConfig+0x470>)
 8001408:	681b      	ldr	r3, [r3, #0]
 800140a:	f003 7300 	and.w	r3, r3, #33554432	; 0x2000000
 800140e:	2b00      	cmp	r3, #0
 8001410:	d1f0      	bne.n	80013f4 <HAL_RCC_OscConfig+0x444>
 8001412:	e03d      	b.n	8001490 <HAL_RCC_OscConfig+0x4e0>
      }
    }
    else
    {
      /* Check if there is a request to disable the PLL used as System clock source */
      if((RCC_OscInitStruct->PLL.PLLState) == RCC_PLL_OFF)
 8001414:	687b      	ldr	r3, [r7, #4]
 8001416:	699b      	ldr	r3, [r3, #24]
 8001418:	2b01      	cmp	r3, #1
 800141a:	d107      	bne.n	800142c <HAL_RCC_OscConfig+0x47c>
      {
        return HAL_ERROR;
 800141c:	2301      	movs	r3, #1
 800141e:	e038      	b.n	8001492 <HAL_RCC_OscConfig+0x4e2>
 8001420:	40023800 	.word	0x40023800
 8001424:	40007000 	.word	0x40007000
 8001428:	42470060 	.word	0x42470060
      }
      else
      {
        /* Do not return HAL_ERROR if request repeats the current configuration */
        pll_config = RCC->PLLCFGR;
 800142c:	4b1b      	ldr	r3, [pc, #108]	; (800149c <HAL_RCC_OscConfig+0x4ec>)
 800142e:	685b      	ldr	r3, [r3, #4]
 8001430:	60fb      	str	r3, [r7, #12]
            (READ_BIT(pll_config, RCC_PLLCFGR_PLLN) != (RCC_OscInitStruct->PLL.PLLN) << RCC_PLLCFGR_PLLN_Pos) ||
            (READ_BIT(pll_config, RCC_PLLCFGR_PLLP) != (((RCC_OscInitStruct->PLL.PLLP >> 1U) - 1U)) << RCC_PLLCFGR_PLLP_Pos) ||
            (READ_BIT(pll_config, RCC_PLLCFGR_PLLQ) != (RCC_OscInitStruct->PLL.PLLQ << RCC_PLLCFGR_PLLQ_Pos)) ||
            (READ_BIT(pll_config, RCC_PLLCFGR_PLLR) != (RCC_OscInitStruct->PLL.PLLR << RCC_PLLCFGR_PLLR_Pos)))
#else
        if (((RCC_OscInitStruct->PLL.PLLState) == RCC_PLL_OFF) ||
 8001432:	687b      	ldr	r3, [r7, #4]
 8001434:	699b      	ldr	r3, [r3, #24]
 8001436:	2b01      	cmp	r3, #1
 8001438:	d028      	beq.n	800148c <HAL_RCC_OscConfig+0x4dc>
            (READ_BIT(pll_config, RCC_PLLCFGR_PLLSRC) != RCC_OscInitStruct->PLL.PLLSource) ||
 800143a:	68fb      	ldr	r3, [r7, #12]
 800143c:	f403 0280 	and.w	r2, r3, #4194304	; 0x400000
 8001440:	687b      	ldr	r3, [r7, #4]
 8001442:	69db      	ldr	r3, [r3, #28]
        if (((RCC_OscInitStruct->PLL.PLLState) == RCC_PLL_OFF) ||
 8001444:	429a      	cmp	r2, r3
 8001446:	d121      	bne.n	800148c <HAL_RCC_OscConfig+0x4dc>
            (READ_BIT(pll_config, RCC_PLLCFGR_PLLM) != (RCC_OscInitStruct->PLL.PLLM) << RCC_PLLCFGR_PLLM_Pos) ||
 8001448:	68fb      	ldr	r3, [r7, #12]
 800144a:	f003 023f 	and.w	r2, r3, #63	; 0x3f
 800144e:	687b      	ldr	r3, [r7, #4]
 8001450:	6a1b      	ldr	r3, [r3, #32]
            (READ_BIT(pll_config, RCC_PLLCFGR_PLLSRC) != RCC_OscInitStruct->PLL.PLLSource) ||
 8001452:	429a      	cmp	r2, r3
 8001454:	d11a      	bne.n	800148c <HAL_RCC_OscConfig+0x4dc>
            (READ_BIT(pll_config, RCC_PLLCFGR_PLLN) != (RCC_OscInitStruct->PLL.PLLN) << RCC_PLLCFGR_PLLN_Pos) ||
 8001456:	68fa      	ldr	r2, [r7, #12]
 8001458:	f647 73c0 	movw	r3, #32704	; 0x7fc0
 800145c:	4013      	ands	r3, r2
 800145e:	687a      	ldr	r2, [r7, #4]
 8001460:	6a52      	ldr	r2, [r2, #36]	; 0x24
 8001462:	0192      	lsls	r2, r2, #6
            (READ_BIT(pll_config, RCC_PLLCFGR_PLLM) != (RCC_OscInitStruct->PLL.PLLM) << RCC_PLLCFGR_PLLM_Pos) ||
 8001464:	4293      	cmp	r3, r2
 8001466:	d111      	bne.n	800148c <HAL_RCC_OscConfig+0x4dc>
            (READ_BIT(pll_config, RCC_PLLCFGR_PLLP) != (((RCC_OscInitStruct->PLL.PLLP >> 1U) - 1U)) << RCC_PLLCFGR_PLLP_Pos) ||
 8001468:	68fb      	ldr	r3, [r7, #12]
 800146a:	f403 3240 	and.w	r2, r3, #196608	; 0x30000
 800146e:	687b      	ldr	r3, [r7, #4]
 8001470:	6a9b      	ldr	r3, [r3, #40]	; 0x28
 8001472:	085b      	lsrs	r3, r3, #1
 8001474:	3b01      	subs	r3, #1
 8001476:	041b      	lsls	r3, r3, #16
            (READ_BIT(pll_config, RCC_PLLCFGR_PLLN) != (RCC_OscInitStruct->PLL.PLLN) << RCC_PLLCFGR_PLLN_Pos) ||
 8001478:	429a      	cmp	r2, r3
 800147a:	d107      	bne.n	800148c <HAL_RCC_OscConfig+0x4dc>
            (READ_BIT(pll_config, RCC_PLLCFGR_PLLQ) != (RCC_OscInitStruct->PLL.PLLQ << RCC_PLLCFGR_PLLQ_Pos)))
 800147c:	68fb      	ldr	r3, [r7, #12]
 800147e:	f003 6270 	and.w	r2, r3, #251658240	; 0xf000000
 8001482:	687b      	ldr	r3, [r7, #4]
 8001484:	6adb      	ldr	r3, [r3, #44]	; 0x2c
 8001486:	061b      	lsls	r3, r3, #24
            (READ_BIT(pll_config, RCC_PLLCFGR_PLLP) != (((RCC_OscInitStruct->PLL.PLLP >> 1U) - 1U)) << RCC_PLLCFGR_PLLP_Pos) ||
 8001488:	429a      	cmp	r2, r3
 800148a:	d001      	beq.n	8001490 <HAL_RCC_OscConfig+0x4e0>
#endif
        {
          return HAL_ERROR;
 800148c:	2301      	movs	r3, #1
 800148e:	e000      	b.n	8001492 <HAL_RCC_OscConfig+0x4e2>
        }
      }
    }
  }
  return HAL_OK;
 8001490:	2300      	movs	r3, #0
}
 8001492:	4618      	mov	r0, r3
 8001494:	3718      	adds	r7, #24
 8001496:	46bd      	mov	sp, r7
 8001498:	bd80      	pop	{r7, pc}
 800149a:	bf00      	nop
 800149c:	40023800 	.word	0x40023800

080014a0 <HAL_RCC_ClockConfig>:
  *         HPRE[3:0] bits to ensure that HCLK not exceed the maximum allowed frequency
  *         (for more details refer to section above "Initialization/de-initialization functions")
  * @retval None
  */
HAL_StatusTypeDef HAL_RCC_ClockConfig(RCC_ClkInitTypeDef  *RCC_ClkInitStruct, uint32_t FLatency)
{
 80014a0:	b580      	push	{r7, lr}
 80014a2:	b084      	sub	sp, #16
 80014a4:	af00      	add	r7, sp, #0
 80014a6:	6078      	str	r0, [r7, #4]
 80014a8:	6039      	str	r1, [r7, #0]
  uint32_t tickstart;

  /* Check Null pointer */
  if(RCC_ClkInitStruct == NULL)
 80014aa:	687b      	ldr	r3, [r7, #4]
 80014ac:	2b00      	cmp	r3, #0
 80014ae:	d101      	bne.n	80014b4 <HAL_RCC_ClockConfig+0x14>
  {
    return HAL_ERROR;
 80014b0:	2301      	movs	r3, #1
 80014b2:	e0cc      	b.n	800164e <HAL_RCC_ClockConfig+0x1ae>
  /* To correctly read data from FLASH memory, the number of wait states (LATENCY)
    must be correctly programmed according to the frequency of the CPU clock
    (HCLK) and the supply voltage of the device. */

  /* Increasing the number of wait states because of higher CPU frequency */
  if(FLatency > __HAL_FLASH_GET_LATENCY())
 80014b4:	4b68      	ldr	r3, [pc, #416]	; (8001658 <HAL_RCC_ClockConfig+0x1b8>)
 80014b6:	681b      	ldr	r3, [r3, #0]
 80014b8:	f003 0307 	and.w	r3, r3, #7
 80014bc:	683a      	ldr	r2, [r7, #0]
 80014be:	429a      	cmp	r2, r3
 80014c0:	d90c      	bls.n	80014dc <HAL_RCC_ClockConfig+0x3c>
  {
    /* Program the new number of wait states to the LATENCY bits in the FLASH_ACR register */
    __HAL_FLASH_SET_LATENCY(FLatency);
 80014c2:	4b65      	ldr	r3, [pc, #404]	; (8001658 <HAL_RCC_ClockConfig+0x1b8>)
 80014c4:	683a      	ldr	r2, [r7, #0]
 80014c6:	b2d2      	uxtb	r2, r2
 80014c8:	701a      	strb	r2, [r3, #0]

    /* Check that the new number of wait states is taken into account to access the Flash
    memory by reading the FLASH_ACR register */
    if(__HAL_FLASH_GET_LATENCY() != FLatency)
 80014ca:	4b63      	ldr	r3, [pc, #396]	; (8001658 <HAL_RCC_ClockConfig+0x1b8>)
 80014cc:	681b      	ldr	r3, [r3, #0]
 80014ce:	f003 0307 	and.w	r3, r3, #7
 80014d2:	683a      	ldr	r2, [r7, #0]
 80014d4:	429a      	cmp	r2, r3
 80014d6:	d001      	beq.n	80014dc <HAL_RCC_ClockConfig+0x3c>
    {
      return HAL_ERROR;
 80014d8:	2301      	movs	r3, #1
 80014da:	e0b8      	b.n	800164e <HAL_RCC_ClockConfig+0x1ae>
    }
  }

  /*-------------------------- HCLK Configuration --------------------------*/
  if(((RCC_ClkInitStruct->ClockType) & RCC_CLOCKTYPE_HCLK) == RCC_CLOCKTYPE_HCLK)
 80014dc:	687b      	ldr	r3, [r7, #4]
 80014de:	681b      	ldr	r3, [r3, #0]
 80014e0:	f003 0302 	and.w	r3, r3, #2
 80014e4:	2b00      	cmp	r3, #0
 80014e6:	d020      	beq.n	800152a <HAL_RCC_ClockConfig+0x8a>
  {
    /* Set the highest APBx dividers in order to ensure that we do not go through
       a non-spec phase whatever we decrease or increase HCLK. */
    if(((RCC_ClkInitStruct->ClockType) & RCC_CLOCKTYPE_PCLK1) == RCC_CLOCKTYPE_PCLK1)
 80014e8:	687b      	ldr	r3, [r7, #4]
 80014ea:	681b      	ldr	r3, [r3, #0]
 80014ec:	f003 0304 	and.w	r3, r3, #4
 80014f0:	2b00      	cmp	r3, #0
 80014f2:	d005      	beq.n	8001500 <HAL_RCC_ClockConfig+0x60>
    {
      MODIFY_REG(RCC->CFGR, RCC_CFGR_PPRE1, RCC_HCLK_DIV16);
 80014f4:	4b59      	ldr	r3, [pc, #356]	; (800165c <HAL_RCC_ClockConfig+0x1bc>)
 80014f6:	689b      	ldr	r3, [r3, #8]
 80014f8:	4a58      	ldr	r2, [pc, #352]	; (800165c <HAL_RCC_ClockConfig+0x1bc>)
 80014fa:	f443 53e0 	orr.w	r3, r3, #7168	; 0x1c00
 80014fe:	6093      	str	r3, [r2, #8]
    }

    if(((RCC_ClkInitStruct->ClockType) & RCC_CLOCKTYPE_PCLK2) == RCC_CLOCKTYPE_PCLK2)
 8001500:	687b      	ldr	r3, [r7, #4]
 8001502:	681b      	ldr	r3, [r3, #0]
 8001504:	f003 0308 	and.w	r3, r3, #8
 8001508:	2b00      	cmp	r3, #0
 800150a:	d005      	beq.n	8001518 <HAL_RCC_ClockConfig+0x78>
    {
      MODIFY_REG(RCC->CFGR, RCC_CFGR_PPRE2, (RCC_HCLK_DIV16 << 3));
 800150c:	4b53      	ldr	r3, [pc, #332]	; (800165c <HAL_RCC_ClockConfig+0x1bc>)
 800150e:	689b      	ldr	r3, [r3, #8]
 8001510:	4a52      	ldr	r2, [pc, #328]	; (800165c <HAL_RCC_ClockConfig+0x1bc>)
 8001512:	f443 4360 	orr.w	r3, r3, #57344	; 0xe000
 8001516:	6093      	str	r3, [r2, #8]
    }

    assert_param(IS_RCC_HCLK(RCC_ClkInitStruct->AHBCLKDivider));
    MODIFY_REG(RCC->CFGR, RCC_CFGR_HPRE, RCC_ClkInitStruct->AHBCLKDivider);
 8001518:	4b50      	ldr	r3, [pc, #320]	; (800165c <HAL_RCC_ClockConfig+0x1bc>)
 800151a:	689b      	ldr	r3, [r3, #8]
 800151c:	f023 02f0 	bic.w	r2, r3, #240	; 0xf0
 8001520:	687b      	ldr	r3, [r7, #4]
 8001522:	689b      	ldr	r3, [r3, #8]
 8001524:	494d      	ldr	r1, [pc, #308]	; (800165c <HAL_RCC_ClockConfig+0x1bc>)
 8001526:	4313      	orrs	r3, r2
 8001528:	608b      	str	r3, [r1, #8]
  }

  /*------------------------- SYSCLK Configuration ---------------------------*/
  if(((RCC_ClkInitStruct->ClockType) & RCC_CLOCKTYPE_SYSCLK) == RCC_CLOCKTYPE_SYSCLK)
 800152a:	687b      	ldr	r3, [r7, #4]
 800152c:	681b      	ldr	r3, [r3, #0]
 800152e:	f003 0301 	and.w	r3, r3, #1
 8001532:	2b00      	cmp	r3, #0
 8001534:	d044      	beq.n	80015c0 <HAL_RCC_ClockConfig+0x120>
  {
    assert_param(IS_RCC_SYSCLKSOURCE(RCC_ClkInitStruct->SYSCLKSource));

    /* HSE is selected as System Clock Source */
    if(RCC_ClkInitStruct->SYSCLKSource == RCC_SYSCLKSOURCE_HSE)
 8001536:	687b      	ldr	r3, [r7, #4]
 8001538:	685b      	ldr	r3, [r3, #4]
 800153a:	2b01      	cmp	r3, #1
 800153c:	d107      	bne.n	800154e <HAL_RCC_ClockConfig+0xae>
    {
      /* Check the HSE ready flag */
      if(__HAL_RCC_GET_FLAG(RCC_FLAG_HSERDY) == RESET)
 800153e:	4b47      	ldr	r3, [pc, #284]	; (800165c <HAL_RCC_ClockConfig+0x1bc>)
 8001540:	681b      	ldr	r3, [r3, #0]
 8001542:	f403 3300 	and.w	r3, r3, #131072	; 0x20000
 8001546:	2b00      	cmp	r3, #0
 8001548:	d119      	bne.n	800157e <HAL_RCC_ClockConfig+0xde>
      {
        return HAL_ERROR;
 800154a:	2301      	movs	r3, #1
 800154c:	e07f      	b.n	800164e <HAL_RCC_ClockConfig+0x1ae>
      }
    }
    /* PLL is selected as System Clock Source */
    else if((RCC_ClkInitStruct->SYSCLKSource == RCC_SYSCLKSOURCE_PLLCLK)   ||
 800154e:	687b      	ldr	r3, [r7, #4]
 8001550:	685b      	ldr	r3, [r3, #4]
 8001552:	2b02      	cmp	r3, #2
 8001554:	d003      	beq.n	800155e <HAL_RCC_ClockConfig+0xbe>
            (RCC_ClkInitStruct->SYSCLKSource == RCC_SYSCLKSOURCE_PLLRCLK))
 8001556:	687b      	ldr	r3, [r7, #4]
 8001558:	685b      	ldr	r3, [r3, #4]
    else if((RCC_ClkInitStruct->SYSCLKSource == RCC_SYSCLKSOURCE_PLLCLK)   ||
 800155a:	2b03      	cmp	r3, #3
 800155c:	d107      	bne.n	800156e <HAL_RCC_ClockConfig+0xce>
    {
      /* Check the PLL ready flag */
      if(__HAL_RCC_GET_FLAG(RCC_FLAG_PLLRDY) == RESET)
 800155e:	4b3f      	ldr	r3, [pc, #252]	; (800165c <HAL_RCC_ClockConfig+0x1bc>)
 8001560:	681b      	ldr	r3, [r3, #0]
 8001562:	f003 7300 	and.w	r3, r3, #33554432	; 0x2000000
 8001566:	2b00      	cmp	r3, #0
 8001568:	d109      	bne.n	800157e <HAL_RCC_ClockConfig+0xde>
      {
        return HAL_ERROR;
 800156a:	2301      	movs	r3, #1
 800156c:	e06f      	b.n	800164e <HAL_RCC_ClockConfig+0x1ae>
    }
    /* HSI is selected as System Clock Source */
    else
    {
      /* Check the HSI ready flag */
      if(__HAL_RCC_GET_FLAG(RCC_FLAG_HSIRDY) == RESET)
 800156e:	4b3b      	ldr	r3, [pc, #236]	; (800165c <HAL_RCC_ClockConfig+0x1bc>)
 8001570:	681b      	ldr	r3, [r3, #0]
 8001572:	f003 0302 	and.w	r3, r3, #2
 8001576:	2b00      	cmp	r3, #0
 8001578:	d101      	bne.n	800157e <HAL_RCC_ClockConfig+0xde>
      {
        return HAL_ERROR;
 800157a:	2301      	movs	r3, #1
 800157c:	e067      	b.n	800164e <HAL_RCC_ClockConfig+0x1ae>
      }
    }

    __HAL_RCC_SYSCLK_CONFIG(RCC_ClkInitStruct->SYSCLKSource);
 800157e:	4b37      	ldr	r3, [pc, #220]	; (800165c <HAL_RCC_ClockConfig+0x1bc>)
 8001580:	689b      	ldr	r3, [r3, #8]
 8001582:	f023 0203 	bic.w	r2, r3, #3
 8001586:	687b      	ldr	r3, [r7, #4]
 8001588:	685b      	ldr	r3, [r3, #4]
 800158a:	4934      	ldr	r1, [pc, #208]	; (800165c <HAL_RCC_ClockConfig+0x1bc>)
 800158c:	4313      	orrs	r3, r2
 800158e:	608b      	str	r3, [r1, #8]

    /* Get Start Tick */
    tickstart = HAL_GetTick();
 8001590:	f7ff fa30 	bl	80009f4 <HAL_GetTick>
 8001594:	60f8      	str	r0, [r7, #12]

    while (__HAL_RCC_GET_SYSCLK_SOURCE() != (RCC_ClkInitStruct->SYSCLKSource << RCC_CFGR_SWS_Pos))
 8001596:	e00a      	b.n	80015ae <HAL_RCC_ClockConfig+0x10e>
    {
      if ((HAL_GetTick() - tickstart) > CLOCKSWITCH_TIMEOUT_VALUE)
 8001598:	f7ff fa2c 	bl	80009f4 <HAL_GetTick>
 800159c:	4602      	mov	r2, r0
 800159e:	68fb      	ldr	r3, [r7, #12]
 80015a0:	1ad3      	subs	r3, r2, r3
 80015a2:	f241 3288 	movw	r2, #5000	; 0x1388
 80015a6:	4293      	cmp	r3, r2
 80015a8:	d901      	bls.n	80015ae <HAL_RCC_ClockConfig+0x10e>
      {
        return HAL_TIMEOUT;
 80015aa:	2303      	movs	r3, #3
 80015ac:	e04f      	b.n	800164e <HAL_RCC_ClockConfig+0x1ae>
    while (__HAL_RCC_GET_SYSCLK_SOURCE() != (RCC_ClkInitStruct->SYSCLKSource << RCC_CFGR_SWS_Pos))
 80015ae:	4b2b      	ldr	r3, [pc, #172]	; (800165c <HAL_RCC_ClockConfig+0x1bc>)
 80015b0:	689b      	ldr	r3, [r3, #8]
 80015b2:	f003 020c 	and.w	r2, r3, #12
 80015b6:	687b      	ldr	r3, [r7, #4]
 80015b8:	685b      	ldr	r3, [r3, #4]
 80015ba:	009b      	lsls	r3, r3, #2
 80015bc:	429a      	cmp	r2, r3
 80015be:	d1eb      	bne.n	8001598 <HAL_RCC_ClockConfig+0xf8>
      }
    }
  }

  /* Decreasing the number of wait states because of lower CPU frequency */
  if(FLatency < __HAL_FLASH_GET_LATENCY())
 80015c0:	4b25      	ldr	r3, [pc, #148]	; (8001658 <HAL_RCC_ClockConfig+0x1b8>)
 80015c2:	681b      	ldr	r3, [r3, #0]
 80015c4:	f003 0307 	and.w	r3, r3, #7
 80015c8:	683a      	ldr	r2, [r7, #0]
 80015ca:	429a      	cmp	r2, r3
 80015cc:	d20c      	bcs.n	80015e8 <HAL_RCC_ClockConfig+0x148>
  {
     /* Program the new number of wait states to the LATENCY bits in the FLASH_ACR register */
    __HAL_FLASH_SET_LATENCY(FLatency);
 80015ce:	4b22      	ldr	r3, [pc, #136]	; (8001658 <HAL_RCC_ClockConfig+0x1b8>)
 80015d0:	683a      	ldr	r2, [r7, #0]
 80015d2:	b2d2      	uxtb	r2, r2
 80015d4:	701a      	strb	r2, [r3, #0]

    /* Check that the new number of wait states is taken into account to access the Flash
    memory by reading the FLASH_ACR register */
    if(__HAL_FLASH_GET_LATENCY() != FLatency)
 80015d6:	4b20      	ldr	r3, [pc, #128]	; (8001658 <HAL_RCC_ClockConfig+0x1b8>)
 80015d8:	681b      	ldr	r3, [r3, #0]
 80015da:	f003 0307 	and.w	r3, r3, #7
 80015de:	683a      	ldr	r2, [r7, #0]
 80015e0:	429a      	cmp	r2, r3
 80015e2:	d001      	beq.n	80015e8 <HAL_RCC_ClockConfig+0x148>
    {
      return HAL_ERROR;
 80015e4:	2301      	movs	r3, #1
 80015e6:	e032      	b.n	800164e <HAL_RCC_ClockConfig+0x1ae>
    }
  }

  /*-------------------------- PCLK1 Configuration ---------------------------*/
  if(((RCC_ClkInitStruct->ClockType) & RCC_CLOCKTYPE_PCLK1) == RCC_CLOCKTYPE_PCLK1)
 80015e8:	687b      	ldr	r3, [r7, #4]
 80015ea:	681b      	ldr	r3, [r3, #0]
 80015ec:	f003 0304 	and.w	r3, r3, #4
 80015f0:	2b00      	cmp	r3, #0
 80015f2:	d008      	beq.n	8001606 <HAL_RCC_ClockConfig+0x166>
  {
    assert_param(IS_RCC_PCLK(RCC_ClkInitStruct->APB1CLKDivider));
    MODIFY_REG(RCC->CFGR, RCC_CFGR_PPRE1, RCC_ClkInitStruct->APB1CLKDivider);
 80015f4:	4b19      	ldr	r3, [pc, #100]	; (800165c <HAL_RCC_ClockConfig+0x1bc>)
 80015f6:	689b      	ldr	r3, [r3, #8]
 80015f8:	f423 52e0 	bic.w	r2, r3, #7168	; 0x1c00
 80015fc:	687b      	ldr	r3, [r7, #4]
 80015fe:	68db      	ldr	r3, [r3, #12]
 8001600:	4916      	ldr	r1, [pc, #88]	; (800165c <HAL_RCC_ClockConfig+0x1bc>)
 8001602:	4313      	orrs	r3, r2
 8001604:	608b      	str	r3, [r1, #8]
  }

  /*-------------------------- PCLK2 Configuration ---------------------------*/
  if(((RCC_ClkInitStruct->ClockType) & RCC_CLOCKTYPE_PCLK2) == RCC_CLOCKTYPE_PCLK2)
 8001606:	687b      	ldr	r3, [r7, #4]
 8001608:	681b      	ldr	r3, [r3, #0]
 800160a:	f003 0308 	and.w	r3, r3, #8
 800160e:	2b00      	cmp	r3, #0
 8001610:	d009      	beq.n	8001626 <HAL_RCC_ClockConfig+0x186>
  {
    assert_param(IS_RCC_PCLK(RCC_ClkInitStruct->APB2CLKDivider));
    MODIFY_REG(RCC->CFGR, RCC_CFGR_PPRE2, ((RCC_ClkInitStruct->APB2CLKDivider) << 3U));
 8001612:	4b12      	ldr	r3, [pc, #72]	; (800165c <HAL_RCC_ClockConfig+0x1bc>)
 8001614:	689b      	ldr	r3, [r3, #8]
 8001616:	f423 4260 	bic.w	r2, r3, #57344	; 0xe000
 800161a:	687b      	ldr	r3, [r7, #4]
 800161c:	691b      	ldr	r3, [r3, #16]
 800161e:	00db      	lsls	r3, r3, #3
 8001620:	490e      	ldr	r1, [pc, #56]	; (800165c <HAL_RCC_ClockConfig+0x1bc>)
 8001622:	4313      	orrs	r3, r2
 8001624:	608b      	str	r3, [r1, #8]
  }

  /* Update the SystemCoreClock global variable */
  SystemCoreClock = HAL_RCC_GetSysClockFreq() >> AHBPrescTable[(RCC->CFGR & RCC_CFGR_HPRE)>> RCC_CFGR_HPRE_Pos];
 8001626:	f000 f821 	bl	800166c <HAL_RCC_GetSysClockFreq>
 800162a:	4602      	mov	r2, r0
 800162c:	4b0b      	ldr	r3, [pc, #44]	; (800165c <HAL_RCC_ClockConfig+0x1bc>)
 800162e:	689b      	ldr	r3, [r3, #8]
 8001630:	091b      	lsrs	r3, r3, #4
 8001632:	f003 030f 	and.w	r3, r3, #15
 8001636:	490a      	ldr	r1, [pc, #40]	; (8001660 <HAL_RCC_ClockConfig+0x1c0>)
 8001638:	5ccb      	ldrb	r3, [r1, r3]
 800163a:	fa22 f303 	lsr.w	r3, r2, r3
 800163e:	4a09      	ldr	r2, [pc, #36]	; (8001664 <HAL_RCC_ClockConfig+0x1c4>)
 8001640:	6013      	str	r3, [r2, #0]

  /* Configure the source of time base considering new system clocks settings */
  HAL_InitTick (uwTickPrio);
 8001642:	4b09      	ldr	r3, [pc, #36]	; (8001668 <HAL_RCC_ClockConfig+0x1c8>)
 8001644:	681b      	ldr	r3, [r3, #0]
 8001646:	4618      	mov	r0, r3
 8001648:	f7ff f990 	bl	800096c <HAL_InitTick>

  return HAL_OK;
 800164c:	2300      	movs	r3, #0
}
 800164e:	4618      	mov	r0, r3
 8001650:	3710      	adds	r7, #16
 8001652:	46bd      	mov	sp, r7
 8001654:	bd80      	pop	{r7, pc}
 8001656:	bf00      	nop
 8001658:	40023c00 	.word	0x40023c00
 800165c:	40023800 	.word	0x40023800
 8001660:	08002890 	.word	0x08002890
 8001664:	20000000 	.word	0x20000000
 8001668:	20000004 	.word	0x20000004

0800166c <HAL_RCC_GetSysClockFreq>:
  *
  *
  * @retval SYSCLK frequency
  */
__weak uint32_t HAL_RCC_GetSysClockFreq(void)
{
 800166c:	e92d 4fb0 	stmdb	sp!, {r4, r5, r7, r8, r9, sl, fp, lr}
 8001670:	b094      	sub	sp, #80	; 0x50
 8001672:	af00      	add	r7, sp, #0
  uint32_t pllm = 0U, pllvco = 0U, pllp = 0U;
 8001674:	2300      	movs	r3, #0
 8001676:	647b      	str	r3, [r7, #68]	; 0x44
 8001678:	2300      	movs	r3, #0
 800167a:	64fb      	str	r3, [r7, #76]	; 0x4c
 800167c:	2300      	movs	r3, #0
 800167e:	643b      	str	r3, [r7, #64]	; 0x40
  uint32_t sysclockfreq = 0U;
 8001680:	2300      	movs	r3, #0
 8001682:	64bb      	str	r3, [r7, #72]	; 0x48

  /* Get SYSCLK source -------------------------------------------------------*/
  switch (RCC->CFGR & RCC_CFGR_SWS)
 8001684:	4b79      	ldr	r3, [pc, #484]	; (800186c <HAL_RCC_GetSysClockFreq+0x200>)
 8001686:	689b      	ldr	r3, [r3, #8]
 8001688:	f003 030c 	and.w	r3, r3, #12
 800168c:	2b08      	cmp	r3, #8
 800168e:	d00d      	beq.n	80016ac <HAL_RCC_GetSysClockFreq+0x40>
 8001690:	2b08      	cmp	r3, #8
 8001692:	f200 80e1 	bhi.w	8001858 <HAL_RCC_GetSysClockFreq+0x1ec>
 8001696:	2b00      	cmp	r3, #0
 8001698:	d002      	beq.n	80016a0 <HAL_RCC_GetSysClockFreq+0x34>
 800169a:	2b04      	cmp	r3, #4
 800169c:	d003      	beq.n	80016a6 <HAL_RCC_GetSysClockFreq+0x3a>
 800169e:	e0db      	b.n	8001858 <HAL_RCC_GetSysClockFreq+0x1ec>
  {
    case RCC_CFGR_SWS_HSI:  /* HSI used as system clock source */
    {
      sysclockfreq = HSI_VALUE;
 80016a0:	4b73      	ldr	r3, [pc, #460]	; (8001870 <HAL_RCC_GetSysClockFreq+0x204>)
 80016a2:	64bb      	str	r3, [r7, #72]	; 0x48
       break;
 80016a4:	e0db      	b.n	800185e <HAL_RCC_GetSysClockFreq+0x1f2>
    }
    case RCC_CFGR_SWS_HSE:  /* HSE used as system clock  source */
    {
      sysclockfreq = HSE_VALUE;
 80016a6:	4b73      	ldr	r3, [pc, #460]	; (8001874 <HAL_RCC_GetSysClockFreq+0x208>)
 80016a8:	64bb      	str	r3, [r7, #72]	; 0x48
      break;
 80016aa:	e0d8      	b.n	800185e <HAL_RCC_GetSysClockFreq+0x1f2>
    }
    case RCC_CFGR_SWS_PLL:  /* PLL used as system clock  source */
    {
      /* PLL_VCO = (HSE_VALUE or HSI_VALUE / PLLM) * PLLN
      SYSCLK = PLL_VCO / PLLP */
      pllm = RCC->PLLCFGR & RCC_PLLCFGR_PLLM;
 80016ac:	4b6f      	ldr	r3, [pc, #444]	; (800186c <HAL_RCC_GetSysClockFreq+0x200>)
 80016ae:	685b      	ldr	r3, [r3, #4]
 80016b0:	f003 033f 	and.w	r3, r3, #63	; 0x3f
 80016b4:	647b      	str	r3, [r7, #68]	; 0x44
      if(__HAL_RCC_GET_PLL_OSCSOURCE() != RCC_PLLSOURCE_HSI)
 80016b6:	4b6d      	ldr	r3, [pc, #436]	; (800186c <HAL_RCC_GetSysClockFreq+0x200>)
 80016b8:	685b      	ldr	r3, [r3, #4]
 80016ba:	f403 0380 	and.w	r3, r3, #4194304	; 0x400000
 80016be:	2b00      	cmp	r3, #0
 80016c0:	d063      	beq.n	800178a <HAL_RCC_GetSysClockFreq+0x11e>
      {
        /* HSE used as PLL clock source */
        pllvco = (uint32_t) ((((uint64_t) HSE_VALUE * ((uint64_t) ((RCC->PLLCFGR & RCC_PLLCFGR_PLLN) >> RCC_PLLCFGR_PLLN_Pos)))) / (uint64_t)pllm);
 80016c2:	4b6a      	ldr	r3, [pc, #424]	; (800186c <HAL_RCC_GetSysClockFreq+0x200>)
 80016c4:	685b      	ldr	r3, [r3, #4]
 80016c6:	099b      	lsrs	r3, r3, #6
 80016c8:	2200      	movs	r2, #0
 80016ca:	63bb      	str	r3, [r7, #56]	; 0x38
 80016cc:	63fa      	str	r2, [r7, #60]	; 0x3c
 80016ce:	6bbb      	ldr	r3, [r7, #56]	; 0x38
 80016d0:	f3c3 0308 	ubfx	r3, r3, #0, #9
 80016d4:	633b      	str	r3, [r7, #48]	; 0x30
 80016d6:	2300      	movs	r3, #0
 80016d8:	637b      	str	r3, [r7, #52]	; 0x34
 80016da:	e9d7 450c 	ldrd	r4, r5, [r7, #48]	; 0x30
 80016de:	4622      	mov	r2, r4
 80016e0:	462b      	mov	r3, r5
 80016e2:	f04f 0000 	mov.w	r0, #0
 80016e6:	f04f 0100 	mov.w	r1, #0
 80016ea:	0159      	lsls	r1, r3, #5
 80016ec:	ea41 61d2 	orr.w	r1, r1, r2, lsr #27
 80016f0:	0150      	lsls	r0, r2, #5
 80016f2:	4602      	mov	r2, r0
 80016f4:	460b      	mov	r3, r1
 80016f6:	4621      	mov	r1, r4
 80016f8:	1a51      	subs	r1, r2, r1
 80016fa:	6139      	str	r1, [r7, #16]
 80016fc:	4629      	mov	r1, r5
 80016fe:	eb63 0301 	sbc.w	r3, r3, r1
 8001702:	617b      	str	r3, [r7, #20]
 8001704:	f04f 0200 	mov.w	r2, #0
 8001708:	f04f 0300 	mov.w	r3, #0
 800170c:	e9d7 ab04 	ldrd	sl, fp, [r7, #16]
 8001710:	4659      	mov	r1, fp
 8001712:	018b      	lsls	r3, r1, #6
 8001714:	4651      	mov	r1, sl
 8001716:	ea43 6391 	orr.w	r3, r3, r1, lsr #26
 800171a:	4651      	mov	r1, sl
 800171c:	018a      	lsls	r2, r1, #6
 800171e:	4651      	mov	r1, sl
 8001720:	ebb2 0801 	subs.w	r8, r2, r1
 8001724:	4659      	mov	r1, fp
 8001726:	eb63 0901 	sbc.w	r9, r3, r1
 800172a:	f04f 0200 	mov.w	r2, #0
 800172e:	f04f 0300 	mov.w	r3, #0
 8001732:	ea4f 03c9 	mov.w	r3, r9, lsl #3
 8001736:	ea43 7358 	orr.w	r3, r3, r8, lsr #29
 800173a:	ea4f 02c8 	mov.w	r2, r8, lsl #3
 800173e:	4690      	mov	r8, r2
 8001740:	4699      	mov	r9, r3
 8001742:	4623      	mov	r3, r4
 8001744:	eb18 0303 	adds.w	r3, r8, r3
 8001748:	60bb      	str	r3, [r7, #8]
 800174a:	462b      	mov	r3, r5
 800174c:	eb49 0303 	adc.w	r3, r9, r3
 8001750:	60fb      	str	r3, [r7, #12]
 8001752:	f04f 0200 	mov.w	r2, #0
 8001756:	f04f 0300 	mov.w	r3, #0
 800175a:	e9d7 4502 	ldrd	r4, r5, [r7, #8]
 800175e:	4629      	mov	r1, r5
 8001760:	024b      	lsls	r3, r1, #9
 8001762:	4621      	mov	r1, r4
 8001764:	ea43 53d1 	orr.w	r3, r3, r1, lsr #23
 8001768:	4621      	mov	r1, r4
 800176a:	024a      	lsls	r2, r1, #9
 800176c:	4610      	mov	r0, r2
 800176e:	4619      	mov	r1, r3
 8001770:	6c7b      	ldr	r3, [r7, #68]	; 0x44
 8001772:	2200      	movs	r2, #0
 8001774:	62bb      	str	r3, [r7, #40]	; 0x28
 8001776:	62fa      	str	r2, [r7, #44]	; 0x2c
 8001778:	e9d7 230a 	ldrd	r2, r3, [r7, #40]	; 0x28
 800177c:	f7fe fd24 	bl	80001c8 <__aeabi_uldivmod>
 8001780:	4602      	mov	r2, r0
 8001782:	460b      	mov	r3, r1
 8001784:	4613      	mov	r3, r2
 8001786:	64fb      	str	r3, [r7, #76]	; 0x4c
 8001788:	e058      	b.n	800183c <HAL_RCC_GetSysClockFreq+0x1d0>
      }
      else
      {
        /* HSI used as PLL clock source */
        pllvco = (uint32_t) ((((uint64_t) HSI_VALUE * ((uint64_t) ((RCC->PLLCFGR & RCC_PLLCFGR_PLLN) >> RCC_PLLCFGR_PLLN_Pos)))) / (uint64_t)pllm);
 800178a:	4b38      	ldr	r3, [pc, #224]	; (800186c <HAL_RCC_GetSysClockFreq+0x200>)
 800178c:	685b      	ldr	r3, [r3, #4]
 800178e:	099b      	lsrs	r3, r3, #6
 8001790:	2200      	movs	r2, #0
 8001792:	4618      	mov	r0, r3
 8001794:	4611      	mov	r1, r2
 8001796:	f3c0 0308 	ubfx	r3, r0, #0, #9
 800179a:	623b      	str	r3, [r7, #32]
 800179c:	2300      	movs	r3, #0
 800179e:	627b      	str	r3, [r7, #36]	; 0x24
 80017a0:	e9d7 8908 	ldrd	r8, r9, [r7, #32]
 80017a4:	4642      	mov	r2, r8
 80017a6:	464b      	mov	r3, r9
 80017a8:	f04f 0000 	mov.w	r0, #0
 80017ac:	f04f 0100 	mov.w	r1, #0
 80017b0:	0159      	lsls	r1, r3, #5
 80017b2:	ea41 61d2 	orr.w	r1, r1, r2, lsr #27
 80017b6:	0150      	lsls	r0, r2, #5
 80017b8:	4602      	mov	r2, r0
 80017ba:	460b      	mov	r3, r1
 80017bc:	4641      	mov	r1, r8
 80017be:	ebb2 0a01 	subs.w	sl, r2, r1
 80017c2:	4649      	mov	r1, r9
 80017c4:	eb63 0b01 	sbc.w	fp, r3, r1
 80017c8:	f04f 0200 	mov.w	r2, #0
 80017cc:	f04f 0300 	mov.w	r3, #0
 80017d0:	ea4f 138b 	mov.w	r3, fp, lsl #6
 80017d4:	ea43 639a 	orr.w	r3, r3, sl, lsr #26
 80017d8:	ea4f 128a 	mov.w	r2, sl, lsl #6
 80017dc:	ebb2 040a 	subs.w	r4, r2, sl
 80017e0:	eb63 050b 	sbc.w	r5, r3, fp
 80017e4:	f04f 0200 	mov.w	r2, #0
 80017e8:	f04f 0300 	mov.w	r3, #0
 80017ec:	00eb      	lsls	r3, r5, #3
 80017ee:	ea43 7354 	orr.w	r3, r3, r4, lsr #29
 80017f2:	00e2      	lsls	r2, r4, #3
 80017f4:	4614      	mov	r4, r2
 80017f6:	461d      	mov	r5, r3
 80017f8:	4643      	mov	r3, r8
 80017fa:	18e3      	adds	r3, r4, r3
 80017fc:	603b      	str	r3, [r7, #0]
 80017fe:	464b      	mov	r3, r9
 8001800:	eb45 0303 	adc.w	r3, r5, r3
 8001804:	607b      	str	r3, [r7, #4]
 8001806:	f04f 0200 	mov.w	r2, #0
 800180a:	f04f 0300 	mov.w	r3, #0
 800180e:	e9d7 4500 	ldrd	r4, r5, [r7]
 8001812:	4629      	mov	r1, r5
 8001814:	028b      	lsls	r3, r1, #10
 8001816:	4621      	mov	r1, r4
 8001818:	ea43 5391 	orr.w	r3, r3, r1, lsr #22
 800181c:	4621      	mov	r1, r4
 800181e:	028a      	lsls	r2, r1, #10
 8001820:	4610      	mov	r0, r2
 8001822:	4619      	mov	r1, r3
 8001824:	6c7b      	ldr	r3, [r7, #68]	; 0x44
 8001826:	2200      	movs	r2, #0
 8001828:	61bb      	str	r3, [r7, #24]
 800182a:	61fa      	str	r2, [r7, #28]
 800182c:	e9d7 2306 	ldrd	r2, r3, [r7, #24]
 8001830:	f7fe fcca 	bl	80001c8 <__aeabi_uldivmod>
 8001834:	4602      	mov	r2, r0
 8001836:	460b      	mov	r3, r1
 8001838:	4613      	mov	r3, r2
 800183a:	64fb      	str	r3, [r7, #76]	; 0x4c
      }
      pllp = ((((RCC->PLLCFGR & RCC_PLLCFGR_PLLP) >> RCC_PLLCFGR_PLLP_Pos) + 1U) *2U);
 800183c:	4b0b      	ldr	r3, [pc, #44]	; (800186c <HAL_RCC_GetSysClockFreq+0x200>)
 800183e:	685b      	ldr	r3, [r3, #4]
 8001840:	0c1b      	lsrs	r3, r3, #16
 8001842:	f003 0303 	and.w	r3, r3, #3
 8001846:	3301      	adds	r3, #1
 8001848:	005b      	lsls	r3, r3, #1
 800184a:	643b      	str	r3, [r7, #64]	; 0x40

      sysclockfreq = pllvco/pllp;
 800184c:	6cfa      	ldr	r2, [r7, #76]	; 0x4c
 800184e:	6c3b      	ldr	r3, [r7, #64]	; 0x40
 8001850:	fbb2 f3f3 	udiv	r3, r2, r3
 8001854:	64bb      	str	r3, [r7, #72]	; 0x48
      break;
 8001856:	e002      	b.n	800185e <HAL_RCC_GetSysClockFreq+0x1f2>
    }
    default:
    {
      sysclockfreq = HSI_VALUE;
 8001858:	4b05      	ldr	r3, [pc, #20]	; (8001870 <HAL_RCC_GetSysClockFreq+0x204>)
 800185a:	64bb      	str	r3, [r7, #72]	; 0x48
      break;
 800185c:	bf00      	nop
    }
  }
  return sysclockfreq;
 800185e:	6cbb      	ldr	r3, [r7, #72]	; 0x48
}
 8001860:	4618      	mov	r0, r3
 8001862:	3750      	adds	r7, #80	; 0x50
 8001864:	46bd      	mov	sp, r7
 8001866:	e8bd 8fb0 	ldmia.w	sp!, {r4, r5, r7, r8, r9, sl, fp, pc}
 800186a:	bf00      	nop
 800186c:	40023800 	.word	0x40023800
 8001870:	00f42400 	.word	0x00f42400
 8001874:	007a1200 	.word	0x007a1200

08001878 <HAL_TIM_Base_Init>:
  *         Ex: call @ref HAL_TIM_Base_DeInit() before HAL_TIM_Base_Init()
  * @param  htim TIM Base handle
  * @retval HAL status
  */
HAL_StatusTypeDef HAL_TIM_Base_Init(TIM_HandleTypeDef *htim)
{
 8001878:	b580      	push	{r7, lr}
 800187a:	b082      	sub	sp, #8
 800187c:	af00      	add	r7, sp, #0
 800187e:	6078      	str	r0, [r7, #4]
  /* Check the TIM handle allocation */
  if (htim == NULL)
 8001880:	687b      	ldr	r3, [r7, #4]
 8001882:	2b00      	cmp	r3, #0
 8001884:	d101      	bne.n	800188a <HAL_TIM_Base_Init+0x12>
  {
    return HAL_ERROR;
 8001886:	2301      	movs	r3, #1
 8001888:	e041      	b.n	800190e <HAL_TIM_Base_Init+0x96>
  assert_param(IS_TIM_INSTANCE(htim->Instance));
  assert_param(IS_TIM_COUNTER_MODE(htim->Init.CounterMode));
  assert_param(IS_TIM_CLOCKDIVISION_DIV(htim->Init.ClockDivision));
  assert_param(IS_TIM_AUTORELOAD_PRELOAD(htim->Init.AutoReloadPreload));

  if (htim->State == HAL_TIM_STATE_RESET)
 800188a:	687b      	ldr	r3, [r7, #4]
 800188c:	f893 303d 	ldrb.w	r3, [r3, #61]	; 0x3d
 8001890:	b2db      	uxtb	r3, r3
 8001892:	2b00      	cmp	r3, #0
 8001894:	d106      	bne.n	80018a4 <HAL_TIM_Base_Init+0x2c>
  {
    /* Allocate lock resource and initialize it */
    htim->Lock = HAL_UNLOCKED;
 8001896:	687b      	ldr	r3, [r7, #4]
 8001898:	2200      	movs	r2, #0
 800189a:	f883 203c 	strb.w	r2, [r3, #60]	; 0x3c
    }
    /* Init the low level hardware : GPIO, CLOCK, NVIC */
    htim->Base_MspInitCallback(htim);
#else
    /* Init the low level hardware : GPIO, CLOCK, NVIC */
    HAL_TIM_Base_MspInit(htim);
 800189e:	6878      	ldr	r0, [r7, #4]
 80018a0:	f7fe ff74 	bl	800078c <HAL_TIM_Base_MspInit>
#endif /* USE_HAL_TIM_REGISTER_CALLBACKS */
  }

  /* Set the TIM state */
  htim->State = HAL_TIM_STATE_BUSY;
 80018a4:	687b      	ldr	r3, [r7, #4]
 80018a6:	2202      	movs	r2, #2
 80018a8:	f883 203d 	strb.w	r2, [r3, #61]	; 0x3d

  /* Set the Time Base configuration */
  TIM_Base_SetConfig(htim->Instance, &htim->Init);
 80018ac:	687b      	ldr	r3, [r7, #4]
 80018ae:	681a      	ldr	r2, [r3, #0]
 80018b0:	687b      	ldr	r3, [r7, #4]
 80018b2:	3304      	adds	r3, #4
 80018b4:	4619      	mov	r1, r3
 80018b6:	4610      	mov	r0, r2
 80018b8:	f000 fc12 	bl	80020e0 <TIM_Base_SetConfig>

  /* Initialize the DMA burst operation state */
  htim->DMABurstState = HAL_DMA_BURST_STATE_READY;
 80018bc:	687b      	ldr	r3, [r7, #4]
 80018be:	2201      	movs	r2, #1
 80018c0:	f883 2046 	strb.w	r2, [r3, #70]	; 0x46

  /* Initialize the TIM channels state */
  TIM_CHANNEL_STATE_SET_ALL(htim, HAL_TIM_CHANNEL_STATE_READY);
 80018c4:	687b      	ldr	r3, [r7, #4]
 80018c6:	2201      	movs	r2, #1
 80018c8:	f883 203e 	strb.w	r2, [r3, #62]	; 0x3e
 80018cc:	687b      	ldr	r3, [r7, #4]
 80018ce:	2201      	movs	r2, #1
 80018d0:	f883 203f 	strb.w	r2, [r3, #63]	; 0x3f
 80018d4:	687b      	ldr	r3, [r7, #4]
 80018d6:	2201      	movs	r2, #1
 80018d8:	f883 2040 	strb.w	r2, [r3, #64]	; 0x40
 80018dc:	687b      	ldr	r3, [r7, #4]
 80018de:	2201      	movs	r2, #1
 80018e0:	f883 2041 	strb.w	r2, [r3, #65]	; 0x41
  TIM_CHANNEL_N_STATE_SET_ALL(htim, HAL_TIM_CHANNEL_STATE_READY);
 80018e4:	687b      	ldr	r3, [r7, #4]
 80018e6:	2201      	movs	r2, #1
 80018e8:	f883 2042 	strb.w	r2, [r3, #66]	; 0x42
 80018ec:	687b      	ldr	r3, [r7, #4]
 80018ee:	2201      	movs	r2, #1
 80018f0:	f883 2043 	strb.w	r2, [r3, #67]	; 0x43
 80018f4:	687b      	ldr	r3, [r7, #4]
 80018f6:	2201      	movs	r2, #1
 80018f8:	f883 2044 	strb.w	r2, [r3, #68]	; 0x44
 80018fc:	687b      	ldr	r3, [r7, #4]
 80018fe:	2201      	movs	r2, #1
 8001900:	f883 2045 	strb.w	r2, [r3, #69]	; 0x45

  /* Initialize the TIM state*/
  htim->State = HAL_TIM_STATE_READY;
 8001904:	687b      	ldr	r3, [r7, #4]
 8001906:	2201      	movs	r2, #1
 8001908:	f883 203d 	strb.w	r2, [r3, #61]	; 0x3d

  return HAL_OK;
 800190c:	2300      	movs	r3, #0
}
 800190e:	4618      	mov	r0, r3
 8001910:	3708      	adds	r7, #8
 8001912:	46bd      	mov	sp, r7
 8001914:	bd80      	pop	{r7, pc}

08001916 <HAL_TIM_PWM_Init>:
  *         Ex: call @ref HAL_TIM_PWM_DeInit() before HAL_TIM_PWM_Init()
  * @param  htim TIM PWM handle
  * @retval HAL status
  */
HAL_StatusTypeDef HAL_TIM_PWM_Init(TIM_HandleTypeDef *htim)
{
 8001916:	b580      	push	{r7, lr}
 8001918:	b082      	sub	sp, #8
 800191a:	af00      	add	r7, sp, #0
 800191c:	6078      	str	r0, [r7, #4]
  /* Check the TIM handle allocation */
  if (htim == NULL)
 800191e:	687b      	ldr	r3, [r7, #4]
 8001920:	2b00      	cmp	r3, #0
 8001922:	d101      	bne.n	8001928 <HAL_TIM_PWM_Init+0x12>
  {
    return HAL_ERROR;
 8001924:	2301      	movs	r3, #1
 8001926:	e041      	b.n	80019ac <HAL_TIM_PWM_Init+0x96>
  assert_param(IS_TIM_INSTANCE(htim->Instance));
  assert_param(IS_TIM_COUNTER_MODE(htim->Init.CounterMode));
  assert_param(IS_TIM_CLOCKDIVISION_DIV(htim->Init.ClockDivision));
  assert_param(IS_TIM_AUTORELOAD_PRELOAD(htim->Init.AutoReloadPreload));

  if (htim->State == HAL_TIM_STATE_RESET)
 8001928:	687b      	ldr	r3, [r7, #4]
 800192a:	f893 303d 	ldrb.w	r3, [r3, #61]	; 0x3d
 800192e:	b2db      	uxtb	r3, r3
 8001930:	2b00      	cmp	r3, #0
 8001932:	d106      	bne.n	8001942 <HAL_TIM_PWM_Init+0x2c>
  {
    /* Allocate lock resource and initialize it */
    htim->Lock = HAL_UNLOCKED;
 8001934:	687b      	ldr	r3, [r7, #4]
 8001936:	2200      	movs	r2, #0
 8001938:	f883 203c 	strb.w	r2, [r3, #60]	; 0x3c
    }
    /* Init the low level hardware : GPIO, CLOCK, NVIC */
    htim->PWM_MspInitCallback(htim);
#else
    /* Init the low level hardware : GPIO, CLOCK, NVIC and DMA */
    HAL_TIM_PWM_MspInit(htim);
 800193c:	6878      	ldr	r0, [r7, #4]
 800193e:	f000 f839 	bl	80019b4 <HAL_TIM_PWM_MspInit>
#endif /* USE_HAL_TIM_REGISTER_CALLBACKS */
  }

  /* Set the TIM state */
  htim->State = HAL_TIM_STATE_BUSY;
 8001942:	687b      	ldr	r3, [r7, #4]
 8001944:	2202      	movs	r2, #2
 8001946:	f883 203d 	strb.w	r2, [r3, #61]	; 0x3d

  /* Init the base time for the PWM */
  TIM_Base_SetConfig(htim->Instance, &htim->Init);
 800194a:	687b      	ldr	r3, [r7, #4]
 800194c:	681a      	ldr	r2, [r3, #0]
 800194e:	687b      	ldr	r3, [r7, #4]
 8001950:	3304      	adds	r3, #4
 8001952:	4619      	mov	r1, r3
 8001954:	4610      	mov	r0, r2
 8001956:	f000 fbc3 	bl	80020e0 <TIM_Base_SetConfig>

  /* Initialize the DMA burst operation state */
  htim->DMABurstState = HAL_DMA_BURST_STATE_READY;
 800195a:	687b      	ldr	r3, [r7, #4]
 800195c:	2201      	movs	r2, #1
 800195e:	f883 2046 	strb.w	r2, [r3, #70]	; 0x46

  /* Initialize the TIM channels state */
  TIM_CHANNEL_STATE_SET_ALL(htim, HAL_TIM_CHANNEL_STATE_READY);
 8001962:	687b      	ldr	r3, [r7, #4]
 8001964:	2201      	movs	r2, #1
 8001966:	f883 203e 	strb.w	r2, [r3, #62]	; 0x3e
 800196a:	687b      	ldr	r3, [r7, #4]
 800196c:	2201      	movs	r2, #1
 800196e:	f883 203f 	strb.w	r2, [r3, #63]	; 0x3f
 8001972:	687b      	ldr	r3, [r7, #4]
 8001974:	2201      	movs	r2, #1
 8001976:	f883 2040 	strb.w	r2, [r3, #64]	; 0x40
 800197a:	687b      	ldr	r3, [r7, #4]
 800197c:	2201      	movs	r2, #1
 800197e:	f883 2041 	strb.w	r2, [r3, #65]	; 0x41
  TIM_CHANNEL_N_STATE_SET_ALL(htim, HAL_TIM_CHANNEL_STATE_READY);
 8001982:	687b      	ldr	r3, [r7, #4]
 8001984:	2201      	movs	r2, #1
 8001986:	f883 2042 	strb.w	r2, [r3, #66]	; 0x42
 800198a:	687b      	ldr	r3, [r7, #4]
 800198c:	2201      	movs	r2, #1
 800198e:	f883 2043 	strb.w	r2, [r3, #67]	; 0x43
 8001992:	687b      	ldr	r3, [r7, #4]
 8001994:	2201      	movs	r2, #1
 8001996:	f883 2044 	strb.w	r2, [r3, #68]	; 0x44
 800199a:	687b      	ldr	r3, [r7, #4]
 800199c:	2201      	movs	r2, #1
 800199e:	f883 2045 	strb.w	r2, [r3, #69]	; 0x45

  /* Initialize the TIM state*/
  htim->State = HAL_TIM_STATE_READY;
 80019a2:	687b      	ldr	r3, [r7, #4]
 80019a4:	2201      	movs	r2, #1
 80019a6:	f883 203d 	strb.w	r2, [r3, #61]	; 0x3d

  return HAL_OK;
 80019aa:	2300      	movs	r3, #0
}
 80019ac:	4618      	mov	r0, r3
 80019ae:	3708      	adds	r7, #8
 80019b0:	46bd      	mov	sp, r7
 80019b2:	bd80      	pop	{r7, pc}

080019b4 <HAL_TIM_PWM_MspInit>:
  * @brief  Initializes the TIM PWM MSP.
  * @param  htim TIM PWM handle
  * @retval None
  */
__weak void HAL_TIM_PWM_MspInit(TIM_HandleTypeDef *htim)
{
 80019b4:	b480      	push	{r7}
 80019b6:	b083      	sub	sp, #12
 80019b8:	af00      	add	r7, sp, #0
 80019ba:	6078      	str	r0, [r7, #4]
  UNUSED(htim);

  /* NOTE : This function should not be modified, when the callback is needed,
            the HAL_TIM_PWM_MspInit could be implemented in the user file
   */
}
 80019bc:	bf00      	nop
 80019be:	370c      	adds	r7, #12
 80019c0:	46bd      	mov	sp, r7
 80019c2:	f85d 7b04 	ldr.w	r7, [sp], #4
 80019c6:	4770      	bx	lr

080019c8 <HAL_TIM_PWM_Start>:
  *            @arg TIM_CHANNEL_3: TIM Channel 3 selected
  *            @arg TIM_CHANNEL_4: TIM Channel 4 selected
  * @retval HAL status
  */
HAL_StatusTypeDef HAL_TIM_PWM_Start(TIM_HandleTypeDef *htim, uint32_t Channel)
{
 80019c8:	b580      	push	{r7, lr}
 80019ca:	b084      	sub	sp, #16
 80019cc:	af00      	add	r7, sp, #0
 80019ce:	6078      	str	r0, [r7, #4]
 80019d0:	6039      	str	r1, [r7, #0]

  /* Check the parameters */
  assert_param(IS_TIM_CCX_INSTANCE(htim->Instance, Channel));

  /* Check the TIM channel state */
  if (TIM_CHANNEL_STATE_GET(htim, Channel) != HAL_TIM_CHANNEL_STATE_READY)
 80019d2:	683b      	ldr	r3, [r7, #0]
 80019d4:	2b00      	cmp	r3, #0
 80019d6:	d109      	bne.n	80019ec <HAL_TIM_PWM_Start+0x24>
 80019d8:	687b      	ldr	r3, [r7, #4]
 80019da:	f893 303e 	ldrb.w	r3, [r3, #62]	; 0x3e
 80019de:	b2db      	uxtb	r3, r3
 80019e0:	2b01      	cmp	r3, #1
 80019e2:	bf14      	ite	ne
 80019e4:	2301      	movne	r3, #1
 80019e6:	2300      	moveq	r3, #0
 80019e8:	b2db      	uxtb	r3, r3
 80019ea:	e022      	b.n	8001a32 <HAL_TIM_PWM_Start+0x6a>
 80019ec:	683b      	ldr	r3, [r7, #0]
 80019ee:	2b04      	cmp	r3, #4
 80019f0:	d109      	bne.n	8001a06 <HAL_TIM_PWM_Start+0x3e>
 80019f2:	687b      	ldr	r3, [r7, #4]
 80019f4:	f893 303f 	ldrb.w	r3, [r3, #63]	; 0x3f
 80019f8:	b2db      	uxtb	r3, r3
 80019fa:	2b01      	cmp	r3, #1
 80019fc:	bf14      	ite	ne
 80019fe:	2301      	movne	r3, #1
 8001a00:	2300      	moveq	r3, #0
 8001a02:	b2db      	uxtb	r3, r3
 8001a04:	e015      	b.n	8001a32 <HAL_TIM_PWM_Start+0x6a>
 8001a06:	683b      	ldr	r3, [r7, #0]
 8001a08:	2b08      	cmp	r3, #8
 8001a0a:	d109      	bne.n	8001a20 <HAL_TIM_PWM_Start+0x58>
 8001a0c:	687b      	ldr	r3, [r7, #4]
 8001a0e:	f893 3040 	ldrb.w	r3, [r3, #64]	; 0x40
 8001a12:	b2db      	uxtb	r3, r3
 8001a14:	2b01      	cmp	r3, #1
 8001a16:	bf14      	ite	ne
 8001a18:	2301      	movne	r3, #1
 8001a1a:	2300      	moveq	r3, #0
 8001a1c:	b2db      	uxtb	r3, r3
 8001a1e:	e008      	b.n	8001a32 <HAL_TIM_PWM_Start+0x6a>
 8001a20:	687b      	ldr	r3, [r7, #4]
 8001a22:	f893 3041 	ldrb.w	r3, [r3, #65]	; 0x41
 8001a26:	b2db      	uxtb	r3, r3
 8001a28:	2b01      	cmp	r3, #1
 8001a2a:	bf14      	ite	ne
 8001a2c:	2301      	movne	r3, #1
 8001a2e:	2300      	moveq	r3, #0
 8001a30:	b2db      	uxtb	r3, r3
 8001a32:	2b00      	cmp	r3, #0
 8001a34:	d001      	beq.n	8001a3a <HAL_TIM_PWM_Start+0x72>
  {
    return HAL_ERROR;
 8001a36:	2301      	movs	r3, #1
 8001a38:	e07c      	b.n	8001b34 <HAL_TIM_PWM_Start+0x16c>
  }

  /* Set the TIM channel state */
  TIM_CHANNEL_STATE_SET(htim, Channel, HAL_TIM_CHANNEL_STATE_BUSY);
 8001a3a:	683b      	ldr	r3, [r7, #0]
 8001a3c:	2b00      	cmp	r3, #0
 8001a3e:	d104      	bne.n	8001a4a <HAL_TIM_PWM_Start+0x82>
 8001a40:	687b      	ldr	r3, [r7, #4]
 8001a42:	2202      	movs	r2, #2
 8001a44:	f883 203e 	strb.w	r2, [r3, #62]	; 0x3e
 8001a48:	e013      	b.n	8001a72 <HAL_TIM_PWM_Start+0xaa>
 8001a4a:	683b      	ldr	r3, [r7, #0]
 8001a4c:	2b04      	cmp	r3, #4
 8001a4e:	d104      	bne.n	8001a5a <HAL_TIM_PWM_Start+0x92>
 8001a50:	687b      	ldr	r3, [r7, #4]
 8001a52:	2202      	movs	r2, #2
 8001a54:	f883 203f 	strb.w	r2, [r3, #63]	; 0x3f
 8001a58:	e00b      	b.n	8001a72 <HAL_TIM_PWM_Start+0xaa>
 8001a5a:	683b      	ldr	r3, [r7, #0]
 8001a5c:	2b08      	cmp	r3, #8
 8001a5e:	d104      	bne.n	8001a6a <HAL_TIM_PWM_Start+0xa2>
 8001a60:	687b      	ldr	r3, [r7, #4]
 8001a62:	2202      	movs	r2, #2
 8001a64:	f883 2040 	strb.w	r2, [r3, #64]	; 0x40
 8001a68:	e003      	b.n	8001a72 <HAL_TIM_PWM_Start+0xaa>
 8001a6a:	687b      	ldr	r3, [r7, #4]
 8001a6c:	2202      	movs	r2, #2
 8001a6e:	f883 2041 	strb.w	r2, [r3, #65]	; 0x41

  /* Enable the Capture compare channel */
  TIM_CCxChannelCmd(htim->Instance, Channel, TIM_CCx_ENABLE);
 8001a72:	687b      	ldr	r3, [r7, #4]
 8001a74:	681b      	ldr	r3, [r3, #0]
 8001a76:	2201      	movs	r2, #1
 8001a78:	6839      	ldr	r1, [r7, #0]
 8001a7a:	4618      	mov	r0, r3
 8001a7c:	f000 fe1a 	bl	80026b4 <TIM_CCxChannelCmd>

  if (IS_TIM_BREAK_INSTANCE(htim->Instance) != RESET)
 8001a80:	687b      	ldr	r3, [r7, #4]
 8001a82:	681b      	ldr	r3, [r3, #0]
 8001a84:	4a2d      	ldr	r2, [pc, #180]	; (8001b3c <HAL_TIM_PWM_Start+0x174>)
 8001a86:	4293      	cmp	r3, r2
 8001a88:	d004      	beq.n	8001a94 <HAL_TIM_PWM_Start+0xcc>
 8001a8a:	687b      	ldr	r3, [r7, #4]
 8001a8c:	681b      	ldr	r3, [r3, #0]
 8001a8e:	4a2c      	ldr	r2, [pc, #176]	; (8001b40 <HAL_TIM_PWM_Start+0x178>)
 8001a90:	4293      	cmp	r3, r2
 8001a92:	d101      	bne.n	8001a98 <HAL_TIM_PWM_Start+0xd0>
 8001a94:	2301      	movs	r3, #1
 8001a96:	e000      	b.n	8001a9a <HAL_TIM_PWM_Start+0xd2>
 8001a98:	2300      	movs	r3, #0
 8001a9a:	2b00      	cmp	r3, #0
 8001a9c:	d007      	beq.n	8001aae <HAL_TIM_PWM_Start+0xe6>
  {
    /* Enable the main output */
    __HAL_TIM_MOE_ENABLE(htim);
 8001a9e:	687b      	ldr	r3, [r7, #4]
 8001aa0:	681b      	ldr	r3, [r3, #0]
 8001aa2:	6c5a      	ldr	r2, [r3, #68]	; 0x44
 8001aa4:	687b      	ldr	r3, [r7, #4]
 8001aa6:	681b      	ldr	r3, [r3, #0]
 8001aa8:	f442 4200 	orr.w	r2, r2, #32768	; 0x8000
 8001aac:	645a      	str	r2, [r3, #68]	; 0x44
  }

  /* Enable the Peripheral, except in trigger mode where enable is automatically done with trigger */
  if (IS_TIM_SLAVE_INSTANCE(htim->Instance))
 8001aae:	687b      	ldr	r3, [r7, #4]
 8001ab0:	681b      	ldr	r3, [r3, #0]
 8001ab2:	4a22      	ldr	r2, [pc, #136]	; (8001b3c <HAL_TIM_PWM_Start+0x174>)
 8001ab4:	4293      	cmp	r3, r2
 8001ab6:	d022      	beq.n	8001afe <HAL_TIM_PWM_Start+0x136>
 8001ab8:	687b      	ldr	r3, [r7, #4]
 8001aba:	681b      	ldr	r3, [r3, #0]
 8001abc:	f1b3 4f80 	cmp.w	r3, #1073741824	; 0x40000000
 8001ac0:	d01d      	beq.n	8001afe <HAL_TIM_PWM_Start+0x136>
 8001ac2:	687b      	ldr	r3, [r7, #4]
 8001ac4:	681b      	ldr	r3, [r3, #0]
 8001ac6:	4a1f      	ldr	r2, [pc, #124]	; (8001b44 <HAL_TIM_PWM_Start+0x17c>)
 8001ac8:	4293      	cmp	r3, r2
 8001aca:	d018      	beq.n	8001afe <HAL_TIM_PWM_Start+0x136>
 8001acc:	687b      	ldr	r3, [r7, #4]
 8001ace:	681b      	ldr	r3, [r3, #0]
 8001ad0:	4a1d      	ldr	r2, [pc, #116]	; (8001b48 <HAL_TIM_PWM_Start+0x180>)
 8001ad2:	4293      	cmp	r3, r2
 8001ad4:	d013      	beq.n	8001afe <HAL_TIM_PWM_Start+0x136>
 8001ad6:	687b      	ldr	r3, [r7, #4]
 8001ad8:	681b      	ldr	r3, [r3, #0]
 8001ada:	4a1c      	ldr	r2, [pc, #112]	; (8001b4c <HAL_TIM_PWM_Start+0x184>)
 8001adc:	4293      	cmp	r3, r2
 8001ade:	d00e      	beq.n	8001afe <HAL_TIM_PWM_Start+0x136>
 8001ae0:	687b      	ldr	r3, [r7, #4]
 8001ae2:	681b      	ldr	r3, [r3, #0]
 8001ae4:	4a16      	ldr	r2, [pc, #88]	; (8001b40 <HAL_TIM_PWM_Start+0x178>)
 8001ae6:	4293      	cmp	r3, r2
 8001ae8:	d009      	beq.n	8001afe <HAL_TIM_PWM_Start+0x136>
 8001aea:	687b      	ldr	r3, [r7, #4]
 8001aec:	681b      	ldr	r3, [r3, #0]
 8001aee:	4a18      	ldr	r2, [pc, #96]	; (8001b50 <HAL_TIM_PWM_Start+0x188>)
 8001af0:	4293      	cmp	r3, r2
 8001af2:	d004      	beq.n	8001afe <HAL_TIM_PWM_Start+0x136>
 8001af4:	687b      	ldr	r3, [r7, #4]
 8001af6:	681b      	ldr	r3, [r3, #0]
 8001af8:	4a16      	ldr	r2, [pc, #88]	; (8001b54 <HAL_TIM_PWM_Start+0x18c>)
 8001afa:	4293      	cmp	r3, r2
 8001afc:	d111      	bne.n	8001b22 <HAL_TIM_PWM_Start+0x15a>
  {
    tmpsmcr = htim->Instance->SMCR & TIM_SMCR_SMS;
 8001afe:	687b      	ldr	r3, [r7, #4]
 8001b00:	681b      	ldr	r3, [r3, #0]
 8001b02:	689b      	ldr	r3, [r3, #8]
 8001b04:	f003 0307 	and.w	r3, r3, #7
 8001b08:	60fb      	str	r3, [r7, #12]
    if (!IS_TIM_SLAVEMODE_TRIGGER_ENABLED(tmpsmcr))
 8001b0a:	68fb      	ldr	r3, [r7, #12]
 8001b0c:	2b06      	cmp	r3, #6
 8001b0e:	d010      	beq.n	8001b32 <HAL_TIM_PWM_Start+0x16a>
    {
      __HAL_TIM_ENABLE(htim);
 8001b10:	687b      	ldr	r3, [r7, #4]
 8001b12:	681b      	ldr	r3, [r3, #0]
 8001b14:	681a      	ldr	r2, [r3, #0]
 8001b16:	687b      	ldr	r3, [r7, #4]
 8001b18:	681b      	ldr	r3, [r3, #0]
 8001b1a:	f042 0201 	orr.w	r2, r2, #1
 8001b1e:	601a      	str	r2, [r3, #0]
    if (!IS_TIM_SLAVEMODE_TRIGGER_ENABLED(tmpsmcr))
 8001b20:	e007      	b.n	8001b32 <HAL_TIM_PWM_Start+0x16a>
    }
  }
  else
  {
    __HAL_TIM_ENABLE(htim);
 8001b22:	687b      	ldr	r3, [r7, #4]
 8001b24:	681b      	ldr	r3, [r3, #0]
 8001b26:	681a      	ldr	r2, [r3, #0]
 8001b28:	687b      	ldr	r3, [r7, #4]
 8001b2a:	681b      	ldr	r3, [r3, #0]
 8001b2c:	f042 0201 	orr.w	r2, r2, #1
 8001b30:	601a      	str	r2, [r3, #0]
  }

  /* Return function status */
  return HAL_OK;
 8001b32:	2300      	movs	r3, #0
}
 8001b34:	4618      	mov	r0, r3
 8001b36:	3710      	adds	r7, #16
 8001b38:	46bd      	mov	sp, r7
 8001b3a:	bd80      	pop	{r7, pc}
 8001b3c:	40010000 	.word	0x40010000
 8001b40:	40010400 	.word	0x40010400
 8001b44:	40000400 	.word	0x40000400
 8001b48:	40000800 	.word	0x40000800
 8001b4c:	40000c00 	.word	0x40000c00
 8001b50:	40014000 	.word	0x40014000
 8001b54:	40001800 	.word	0x40001800

08001b58 <HAL_TIM_IRQHandler>:
  * @brief  This function handles TIM interrupts requests.
  * @param  htim TIM  handle
  * @retval None
  */
void HAL_TIM_IRQHandler(TIM_HandleTypeDef *htim)
{
 8001b58:	b580      	push	{r7, lr}
 8001b5a:	b082      	sub	sp, #8
 8001b5c:	af00      	add	r7, sp, #0
 8001b5e:	6078      	str	r0, [r7, #4]
  /* Capture compare 1 event */
  if (__HAL_TIM_GET_FLAG(htim, TIM_FLAG_CC1) != RESET)
 8001b60:	687b      	ldr	r3, [r7, #4]
 8001b62:	681b      	ldr	r3, [r3, #0]
 8001b64:	691b      	ldr	r3, [r3, #16]
 8001b66:	f003 0302 	and.w	r3, r3, #2
 8001b6a:	2b02      	cmp	r3, #2
 8001b6c:	d122      	bne.n	8001bb4 <HAL_TIM_IRQHandler+0x5c>
  {
    if (__HAL_TIM_GET_IT_SOURCE(htim, TIM_IT_CC1) != RESET)
 8001b6e:	687b      	ldr	r3, [r7, #4]
 8001b70:	681b      	ldr	r3, [r3, #0]
 8001b72:	68db      	ldr	r3, [r3, #12]
 8001b74:	f003 0302 	and.w	r3, r3, #2
 8001b78:	2b02      	cmp	r3, #2
 8001b7a:	d11b      	bne.n	8001bb4 <HAL_TIM_IRQHandler+0x5c>
    {
      {
        __HAL_TIM_CLEAR_IT(htim, TIM_IT_CC1);
 8001b7c:	687b      	ldr	r3, [r7, #4]
 8001b7e:	681b      	ldr	r3, [r3, #0]
 8001b80:	f06f 0202 	mvn.w	r2, #2
 8001b84:	611a      	str	r2, [r3, #16]
        htim->Channel = HAL_TIM_ACTIVE_CHANNEL_1;
 8001b86:	687b      	ldr	r3, [r7, #4]
 8001b88:	2201      	movs	r2, #1
 8001b8a:	771a      	strb	r2, [r3, #28]

        /* Input capture event */
        if ((htim->Instance->CCMR1 & TIM_CCMR1_CC1S) != 0x00U)
 8001b8c:	687b      	ldr	r3, [r7, #4]
 8001b8e:	681b      	ldr	r3, [r3, #0]
 8001b90:	699b      	ldr	r3, [r3, #24]
 8001b92:	f003 0303 	and.w	r3, r3, #3
 8001b96:	2b00      	cmp	r3, #0
 8001b98:	d003      	beq.n	8001ba2 <HAL_TIM_IRQHandler+0x4a>
        {
#if (USE_HAL_TIM_REGISTER_CALLBACKS == 1)
          htim->IC_CaptureCallback(htim);
#else
          HAL_TIM_IC_CaptureCallback(htim);
 8001b9a:	6878      	ldr	r0, [r7, #4]
 8001b9c:	f000 fa81 	bl	80020a2 <HAL_TIM_IC_CaptureCallback>
 8001ba0:	e005      	b.n	8001bae <HAL_TIM_IRQHandler+0x56>
        {
#if (USE_HAL_TIM_REGISTER_CALLBACKS == 1)
          htim->OC_DelayElapsedCallback(htim);
          htim->PWM_PulseFinishedCallback(htim);
#else
          HAL_TIM_OC_DelayElapsedCallback(htim);
 8001ba2:	6878      	ldr	r0, [r7, #4]
 8001ba4:	f000 fa73 	bl	800208e <HAL_TIM_OC_DelayElapsedCallback>
          HAL_TIM_PWM_PulseFinishedCallback(htim);
 8001ba8:	6878      	ldr	r0, [r7, #4]
 8001baa:	f000 fa84 	bl	80020b6 <HAL_TIM_PWM_PulseFinishedCallback>
#endif /* USE_HAL_TIM_REGISTER_CALLBACKS */
        }
        htim->Channel = HAL_TIM_ACTIVE_CHANNEL_CLEARED;
 8001bae:	687b      	ldr	r3, [r7, #4]
 8001bb0:	2200      	movs	r2, #0
 8001bb2:	771a      	strb	r2, [r3, #28]
      }
    }
  }
  /* Capture compare 2 event */
  if (__HAL_TIM_GET_FLAG(htim, TIM_FLAG_CC2) != RESET)
 8001bb4:	687b      	ldr	r3, [r7, #4]
 8001bb6:	681b      	ldr	r3, [r3, #0]
 8001bb8:	691b      	ldr	r3, [r3, #16]
 8001bba:	f003 0304 	and.w	r3, r3, #4
 8001bbe:	2b04      	cmp	r3, #4
 8001bc0:	d122      	bne.n	8001c08 <HAL_TIM_IRQHandler+0xb0>
  {
    if (__HAL_TIM_GET_IT_SOURCE(htim, TIM_IT_CC2) != RESET)
 8001bc2:	687b      	ldr	r3, [r7, #4]
 8001bc4:	681b      	ldr	r3, [r3, #0]
 8001bc6:	68db      	ldr	r3, [r3, #12]
 8001bc8:	f003 0304 	and.w	r3, r3, #4
 8001bcc:	2b04      	cmp	r3, #4
 8001bce:	d11b      	bne.n	8001c08 <HAL_TIM_IRQHandler+0xb0>
    {
      __HAL_TIM_CLEAR_IT(htim, TIM_IT_CC2);
 8001bd0:	687b      	ldr	r3, [r7, #4]
 8001bd2:	681b      	ldr	r3, [r3, #0]
 8001bd4:	f06f 0204 	mvn.w	r2, #4
 8001bd8:	611a      	str	r2, [r3, #16]
      htim->Channel = HAL_TIM_ACTIVE_CHANNEL_2;
 8001bda:	687b      	ldr	r3, [r7, #4]
 8001bdc:	2202      	movs	r2, #2
 8001bde:	771a      	strb	r2, [r3, #28]
      /* Input capture event */
      if ((htim->Instance->CCMR1 & TIM_CCMR1_CC2S) != 0x00U)
 8001be0:	687b      	ldr	r3, [r7, #4]
 8001be2:	681b      	ldr	r3, [r3, #0]
 8001be4:	699b      	ldr	r3, [r3, #24]
 8001be6:	f403 7340 	and.w	r3, r3, #768	; 0x300
 8001bea:	2b00      	cmp	r3, #0
 8001bec:	d003      	beq.n	8001bf6 <HAL_TIM_IRQHandler+0x9e>
      {
#if (USE_HAL_TIM_REGISTER_CALLBACKS == 1)
        htim->IC_CaptureCallback(htim);
#else
        HAL_TIM_IC_CaptureCallback(htim);
 8001bee:	6878      	ldr	r0, [r7, #4]
 8001bf0:	f000 fa57 	bl	80020a2 <HAL_TIM_IC_CaptureCallback>
 8001bf4:	e005      	b.n	8001c02 <HAL_TIM_IRQHandler+0xaa>
      {
#if (USE_HAL_TIM_REGISTER_CALLBACKS == 1)
        htim->OC_DelayElapsedCallback(htim);
        htim->PWM_PulseFinishedCallback(htim);
#else
        HAL_TIM_OC_DelayElapsedCallback(htim);
 8001bf6:	6878      	ldr	r0, [r7, #4]
 8001bf8:	f000 fa49 	bl	800208e <HAL_TIM_OC_DelayElapsedCallback>
        HAL_TIM_PWM_PulseFinishedCallback(htim);
 8001bfc:	6878      	ldr	r0, [r7, #4]
 8001bfe:	f000 fa5a 	bl	80020b6 <HAL_TIM_PWM_PulseFinishedCallback>
#endif /* USE_HAL_TIM_REGISTER_CALLBACKS */
      }
      htim->Channel = HAL_TIM_ACTIVE_CHANNEL_CLEARED;
 8001c02:	687b      	ldr	r3, [r7, #4]
 8001c04:	2200      	movs	r2, #0
 8001c06:	771a      	strb	r2, [r3, #28]
    }
  }
  /* Capture compare 3 event */
  if (__HAL_TIM_GET_FLAG(htim, TIM_FLAG_CC3) != RESET)
 8001c08:	687b      	ldr	r3, [r7, #4]
 8001c0a:	681b      	ldr	r3, [r3, #0]
 8001c0c:	691b      	ldr	r3, [r3, #16]
 8001c0e:	f003 0308 	and.w	r3, r3, #8
 8001c12:	2b08      	cmp	r3, #8
 8001c14:	d122      	bne.n	8001c5c <HAL_TIM_IRQHandler+0x104>
  {
    if (__HAL_TIM_GET_IT_SOURCE(htim, TIM_IT_CC3) != RESET)
 8001c16:	687b      	ldr	r3, [r7, #4]
 8001c18:	681b      	ldr	r3, [r3, #0]
 8001c1a:	68db      	ldr	r3, [r3, #12]
 8001c1c:	f003 0308 	and.w	r3, r3, #8
 8001c20:	2b08      	cmp	r3, #8
 8001c22:	d11b      	bne.n	8001c5c <HAL_TIM_IRQHandler+0x104>
    {
      __HAL_TIM_CLEAR_IT(htim, TIM_IT_CC3);
 8001c24:	687b      	ldr	r3, [r7, #4]
 8001c26:	681b      	ldr	r3, [r3, #0]
 8001c28:	f06f 0208 	mvn.w	r2, #8
 8001c2c:	611a      	str	r2, [r3, #16]
      htim->Channel = HAL_TIM_ACTIVE_CHANNEL_3;
 8001c2e:	687b      	ldr	r3, [r7, #4]
 8001c30:	2204      	movs	r2, #4
 8001c32:	771a      	strb	r2, [r3, #28]
      /* Input capture event */
      if ((htim->Instance->CCMR2 & TIM_CCMR2_CC3S) != 0x00U)
 8001c34:	687b      	ldr	r3, [r7, #4]
 8001c36:	681b      	ldr	r3, [r3, #0]
 8001c38:	69db      	ldr	r3, [r3, #28]
 8001c3a:	f003 0303 	and.w	r3, r3, #3
 8001c3e:	2b00      	cmp	r3, #0
 8001c40:	d003      	beq.n	8001c4a <HAL_TIM_IRQHandler+0xf2>
      {
#if (USE_HAL_TIM_REGISTER_CALLBACKS == 1)
        htim->IC_CaptureCallback(htim);
#else
        HAL_TIM_IC_CaptureCallback(htim);
 8001c42:	6878      	ldr	r0, [r7, #4]
 8001c44:	f000 fa2d 	bl	80020a2 <HAL_TIM_IC_CaptureCallback>
 8001c48:	e005      	b.n	8001c56 <HAL_TIM_IRQHandler+0xfe>
      {
#if (USE_HAL_TIM_REGISTER_CALLBACKS == 1)
        htim->OC_DelayElapsedCallback(htim);
        htim->PWM_PulseFinishedCallback(htim);
#else
        HAL_TIM_OC_DelayElapsedCallback(htim);
 8001c4a:	6878      	ldr	r0, [r7, #4]
 8001c4c:	f000 fa1f 	bl	800208e <HAL_TIM_OC_DelayElapsedCallback>
        HAL_TIM_PWM_PulseFinishedCallback(htim);
 8001c50:	6878      	ldr	r0, [r7, #4]
 8001c52:	f000 fa30 	bl	80020b6 <HAL_TIM_PWM_PulseFinishedCallback>
#endif /* USE_HAL_TIM_REGISTER_CALLBACKS */
      }
      htim->Channel = HAL_TIM_ACTIVE_CHANNEL_CLEARED;
 8001c56:	687b      	ldr	r3, [r7, #4]
 8001c58:	2200      	movs	r2, #0
 8001c5a:	771a      	strb	r2, [r3, #28]
    }
  }
  /* Capture compare 4 event */
  if (__HAL_TIM_GET_FLAG(htim, TIM_FLAG_CC4) != RESET)
 8001c5c:	687b      	ldr	r3, [r7, #4]
 8001c5e:	681b      	ldr	r3, [r3, #0]
 8001c60:	691b      	ldr	r3, [r3, #16]
 8001c62:	f003 0310 	and.w	r3, r3, #16
 8001c66:	2b10      	cmp	r3, #16
 8001c68:	d122      	bne.n	8001cb0 <HAL_TIM_IRQHandler+0x158>
  {
    if (__HAL_TIM_GET_IT_SOURCE(htim, TIM_IT_CC4) != RESET)
 8001c6a:	687b      	ldr	r3, [r7, #4]
 8001c6c:	681b      	ldr	r3, [r3, #0]
 8001c6e:	68db      	ldr	r3, [r3, #12]
 8001c70:	f003 0310 	and.w	r3, r3, #16
 8001c74:	2b10      	cmp	r3, #16
 8001c76:	d11b      	bne.n	8001cb0 <HAL_TIM_IRQHandler+0x158>
    {
      __HAL_TIM_CLEAR_IT(htim, TIM_IT_CC4);
 8001c78:	687b      	ldr	r3, [r7, #4]
 8001c7a:	681b      	ldr	r3, [r3, #0]
 8001c7c:	f06f 0210 	mvn.w	r2, #16
 8001c80:	611a      	str	r2, [r3, #16]
      htim->Channel = HAL_TIM_ACTIVE_CHANNEL_4;
 8001c82:	687b      	ldr	r3, [r7, #4]
 8001c84:	2208      	movs	r2, #8
 8001c86:	771a      	strb	r2, [r3, #28]
      /* Input capture event */
      if ((htim->Instance->CCMR2 & TIM_CCMR2_CC4S) != 0x00U)
 8001c88:	687b      	ldr	r3, [r7, #4]
 8001c8a:	681b      	ldr	r3, [r3, #0]
 8001c8c:	69db      	ldr	r3, [r3, #28]
 8001c8e:	f403 7340 	and.w	r3, r3, #768	; 0x300
 8001c92:	2b00      	cmp	r3, #0
 8001c94:	d003      	beq.n	8001c9e <HAL_TIM_IRQHandler+0x146>
      {
#if (USE_HAL_TIM_REGISTER_CALLBACKS == 1)
        htim->IC_CaptureCallback(htim);
#else
        HAL_TIM_IC_CaptureCallback(htim);
 8001c96:	6878      	ldr	r0, [r7, #4]
 8001c98:	f000 fa03 	bl	80020a2 <HAL_TIM_IC_CaptureCallback>
 8001c9c:	e005      	b.n	8001caa <HAL_TIM_IRQHandler+0x152>
      {
#if (USE_HAL_TIM_REGISTER_CALLBACKS == 1)
        htim->OC_DelayElapsedCallback(htim);
        htim->PWM_PulseFinishedCallback(htim);
#else
        HAL_TIM_OC_DelayElapsedCallback(htim);
 8001c9e:	6878      	ldr	r0, [r7, #4]
 8001ca0:	f000 f9f5 	bl	800208e <HAL_TIM_OC_DelayElapsedCallback>
        HAL_TIM_PWM_PulseFinishedCallback(htim);
 8001ca4:	6878      	ldr	r0, [r7, #4]
 8001ca6:	f000 fa06 	bl	80020b6 <HAL_TIM_PWM_PulseFinishedCallback>
#endif /* USE_HAL_TIM_REGISTER_CALLBACKS */
      }
      htim->Channel = HAL_TIM_ACTIVE_CHANNEL_CLEARED;
 8001caa:	687b      	ldr	r3, [r7, #4]
 8001cac:	2200      	movs	r2, #0
 8001cae:	771a      	strb	r2, [r3, #28]
    }
  }
  /* TIM Update event */
  if (__HAL_TIM_GET_FLAG(htim, TIM_FLAG_UPDATE) != RESET)
 8001cb0:	687b      	ldr	r3, [r7, #4]
 8001cb2:	681b      	ldr	r3, [r3, #0]
 8001cb4:	691b      	ldr	r3, [r3, #16]
 8001cb6:	f003 0301 	and.w	r3, r3, #1
 8001cba:	2b01      	cmp	r3, #1
 8001cbc:	d10e      	bne.n	8001cdc <HAL_TIM_IRQHandler+0x184>
  {
    if (__HAL_TIM_GET_IT_SOURCE(htim, TIM_IT_UPDATE) != RESET)
 8001cbe:	687b      	ldr	r3, [r7, #4]
 8001cc0:	681b      	ldr	r3, [r3, #0]
 8001cc2:	68db      	ldr	r3, [r3, #12]
 8001cc4:	f003 0301 	and.w	r3, r3, #1
 8001cc8:	2b01      	cmp	r3, #1
 8001cca:	d107      	bne.n	8001cdc <HAL_TIM_IRQHandler+0x184>
    {
      __HAL_TIM_CLEAR_IT(htim, TIM_IT_UPDATE);
 8001ccc:	687b      	ldr	r3, [r7, #4]
 8001cce:	681b      	ldr	r3, [r3, #0]
 8001cd0:	f06f 0201 	mvn.w	r2, #1
 8001cd4:	611a      	str	r2, [r3, #16]
#if (USE_HAL_TIM_REGISTER_CALLBACKS == 1)
      htim->PeriodElapsedCallback(htim);
#else
      HAL_TIM_PeriodElapsedCallback(htim);
 8001cd6:	6878      	ldr	r0, [r7, #4]
 8001cd8:	f000 f9cf 	bl	800207a <HAL_TIM_PeriodElapsedCallback>
#endif /* USE_HAL_TIM_REGISTER_CALLBACKS */
    }
  }
  /* TIM Break input event */
  if (__HAL_TIM_GET_FLAG(htim, TIM_FLAG_BREAK) != RESET)
 8001cdc:	687b      	ldr	r3, [r7, #4]
 8001cde:	681b      	ldr	r3, [r3, #0]
 8001ce0:	691b      	ldr	r3, [r3, #16]
 8001ce2:	f003 0380 	and.w	r3, r3, #128	; 0x80
 8001ce6:	2b80      	cmp	r3, #128	; 0x80
 8001ce8:	d10e      	bne.n	8001d08 <HAL_TIM_IRQHandler+0x1b0>
  {
    if (__HAL_TIM_GET_IT_SOURCE(htim, TIM_IT_BREAK) != RESET)
 8001cea:	687b      	ldr	r3, [r7, #4]
 8001cec:	681b      	ldr	r3, [r3, #0]
 8001cee:	68db      	ldr	r3, [r3, #12]
 8001cf0:	f003 0380 	and.w	r3, r3, #128	; 0x80
 8001cf4:	2b80      	cmp	r3, #128	; 0x80
 8001cf6:	d107      	bne.n	8001d08 <HAL_TIM_IRQHandler+0x1b0>
    {
      __HAL_TIM_CLEAR_IT(htim, TIM_IT_BREAK);
 8001cf8:	687b      	ldr	r3, [r7, #4]
 8001cfa:	681b      	ldr	r3, [r3, #0]
 8001cfc:	f06f 0280 	mvn.w	r2, #128	; 0x80
 8001d00:	611a      	str	r2, [r3, #16]
#if (USE_HAL_TIM_REGISTER_CALLBACKS == 1)
      htim->BreakCallback(htim);
#else
      HAL_TIMEx_BreakCallback(htim);
 8001d02:	6878      	ldr	r0, [r7, #4]
 8001d04:	f000 fd82 	bl	800280c <HAL_TIMEx_BreakCallback>
#endif /* USE_HAL_TIM_REGISTER_CALLBACKS */
    }
  }
  /* TIM Trigger detection event */
  if (__HAL_TIM_GET_FLAG(htim, TIM_FLAG_TRIGGER) != RESET)
 8001d08:	687b      	ldr	r3, [r7, #4]
 8001d0a:	681b      	ldr	r3, [r3, #0]
 8001d0c:	691b      	ldr	r3, [r3, #16]
 8001d0e:	f003 0340 	and.w	r3, r3, #64	; 0x40
 8001d12:	2b40      	cmp	r3, #64	; 0x40
 8001d14:	d10e      	bne.n	8001d34 <HAL_TIM_IRQHandler+0x1dc>
  {
    if (__HAL_TIM_GET_IT_SOURCE(htim, TIM_IT_TRIGGER) != RESET)
 8001d16:	687b      	ldr	r3, [r7, #4]
 8001d18:	681b      	ldr	r3, [r3, #0]
 8001d1a:	68db      	ldr	r3, [r3, #12]
 8001d1c:	f003 0340 	and.w	r3, r3, #64	; 0x40
 8001d20:	2b40      	cmp	r3, #64	; 0x40
 8001d22:	d107      	bne.n	8001d34 <HAL_TIM_IRQHandler+0x1dc>
    {
      __HAL_TIM_CLEAR_IT(htim, TIM_IT_TRIGGER);
 8001d24:	687b      	ldr	r3, [r7, #4]
 8001d26:	681b      	ldr	r3, [r3, #0]
 8001d28:	f06f 0240 	mvn.w	r2, #64	; 0x40
 8001d2c:	611a      	str	r2, [r3, #16]
#if (USE_HAL_TIM_REGISTER_CALLBACKS == 1)
      htim->TriggerCallback(htim);
#else
      HAL_TIM_TriggerCallback(htim);
 8001d2e:	6878      	ldr	r0, [r7, #4]
 8001d30:	f000 f9cb 	bl	80020ca <HAL_TIM_TriggerCallback>
#endif /* USE_HAL_TIM_REGISTER_CALLBACKS */
    }
  }
  /* TIM commutation event */
  if (__HAL_TIM_GET_FLAG(htim, TIM_FLAG_COM) != RESET)
 8001d34:	687b      	ldr	r3, [r7, #4]
 8001d36:	681b      	ldr	r3, [r3, #0]
 8001d38:	691b      	ldr	r3, [r3, #16]
 8001d3a:	f003 0320 	and.w	r3, r3, #32
 8001d3e:	2b20      	cmp	r3, #32
 8001d40:	d10e      	bne.n	8001d60 <HAL_TIM_IRQHandler+0x208>
  {
    if (__HAL_TIM_GET_IT_SOURCE(htim, TIM_IT_COM) != RESET)
 8001d42:	687b      	ldr	r3, [r7, #4]
 8001d44:	681b      	ldr	r3, [r3, #0]
 8001d46:	68db      	ldr	r3, [r3, #12]
 8001d48:	f003 0320 	and.w	r3, r3, #32
 8001d4c:	2b20      	cmp	r3, #32
 8001d4e:	d107      	bne.n	8001d60 <HAL_TIM_IRQHandler+0x208>
    {
      __HAL_TIM_CLEAR_IT(htim, TIM_FLAG_COM);
 8001d50:	687b      	ldr	r3, [r7, #4]
 8001d52:	681b      	ldr	r3, [r3, #0]
 8001d54:	f06f 0220 	mvn.w	r2, #32
 8001d58:	611a      	str	r2, [r3, #16]
#if (USE_HAL_TIM_REGISTER_CALLBACKS == 1)
      htim->CommutationCallback(htim);
#else
      HAL_TIMEx_CommutCallback(htim);
 8001d5a:	6878      	ldr	r0, [r7, #4]
 8001d5c:	f000 fd4c 	bl	80027f8 <HAL_TIMEx_CommutCallback>
#endif /* USE_HAL_TIM_REGISTER_CALLBACKS */
    }
  }
}
 8001d60:	bf00      	nop
 8001d62:	3708      	adds	r7, #8
 8001d64:	46bd      	mov	sp, r7
 8001d66:	bd80      	pop	{r7, pc}

08001d68 <HAL_TIM_PWM_ConfigChannel>:
  * @retval HAL status
  */
HAL_StatusTypeDef HAL_TIM_PWM_ConfigChannel(TIM_HandleTypeDef *htim,
                                            TIM_OC_InitTypeDef *sConfig,
                                            uint32_t Channel)
{
 8001d68:	b580      	push	{r7, lr}
 8001d6a:	b086      	sub	sp, #24
 8001d6c:	af00      	add	r7, sp, #0
 8001d6e:	60f8      	str	r0, [r7, #12]
 8001d70:	60b9      	str	r1, [r7, #8]
 8001d72:	607a      	str	r2, [r7, #4]
  HAL_StatusTypeDef status = HAL_OK;
 8001d74:	2300      	movs	r3, #0
 8001d76:	75fb      	strb	r3, [r7, #23]
  assert_param(IS_TIM_PWM_MODE(sConfig->OCMode));
  assert_param(IS_TIM_OC_POLARITY(sConfig->OCPolarity));
  assert_param(IS_TIM_FAST_STATE(sConfig->OCFastMode));

  /* Process Locked */
  __HAL_LOCK(htim);
 8001d78:	68fb      	ldr	r3, [r7, #12]
 8001d7a:	f893 303c 	ldrb.w	r3, [r3, #60]	; 0x3c
 8001d7e:	2b01      	cmp	r3, #1
 8001d80:	d101      	bne.n	8001d86 <HAL_TIM_PWM_ConfigChannel+0x1e>
 8001d82:	2302      	movs	r3, #2
 8001d84:	e0ae      	b.n	8001ee4 <HAL_TIM_PWM_ConfigChannel+0x17c>
 8001d86:	68fb      	ldr	r3, [r7, #12]
 8001d88:	2201      	movs	r2, #1
 8001d8a:	f883 203c 	strb.w	r2, [r3, #60]	; 0x3c

  switch (Channel)
 8001d8e:	687b      	ldr	r3, [r7, #4]
 8001d90:	2b0c      	cmp	r3, #12
 8001d92:	f200 809f 	bhi.w	8001ed4 <HAL_TIM_PWM_ConfigChannel+0x16c>
 8001d96:	a201      	add	r2, pc, #4	; (adr r2, 8001d9c <HAL_TIM_PWM_ConfigChannel+0x34>)
 8001d98:	f852 f023 	ldr.w	pc, [r2, r3, lsl #2]
 8001d9c:	08001dd1 	.word	0x08001dd1
 8001da0:	08001ed5 	.word	0x08001ed5
 8001da4:	08001ed5 	.word	0x08001ed5
 8001da8:	08001ed5 	.word	0x08001ed5
 8001dac:	08001e11 	.word	0x08001e11
 8001db0:	08001ed5 	.word	0x08001ed5
 8001db4:	08001ed5 	.word	0x08001ed5
 8001db8:	08001ed5 	.word	0x08001ed5
 8001dbc:	08001e53 	.word	0x08001e53
 8001dc0:	08001ed5 	.word	0x08001ed5
 8001dc4:	08001ed5 	.word	0x08001ed5
 8001dc8:	08001ed5 	.word	0x08001ed5
 8001dcc:	08001e93 	.word	0x08001e93
    {
      /* Check the parameters */
      assert_param(IS_TIM_CC1_INSTANCE(htim->Instance));

      /* Configure the Channel 1 in PWM mode */
      TIM_OC1_SetConfig(htim->Instance, sConfig);
 8001dd0:	68fb      	ldr	r3, [r7, #12]
 8001dd2:	681b      	ldr	r3, [r3, #0]
 8001dd4:	68b9      	ldr	r1, [r7, #8]
 8001dd6:	4618      	mov	r0, r3
 8001dd8:	f000 fa22 	bl	8002220 <TIM_OC1_SetConfig>

      /* Set the Preload enable bit for channel1 */
      htim->Instance->CCMR1 |= TIM_CCMR1_OC1PE;
 8001ddc:	68fb      	ldr	r3, [r7, #12]
 8001dde:	681b      	ldr	r3, [r3, #0]
 8001de0:	699a      	ldr	r2, [r3, #24]
 8001de2:	68fb      	ldr	r3, [r7, #12]
 8001de4:	681b      	ldr	r3, [r3, #0]
 8001de6:	f042 0208 	orr.w	r2, r2, #8
 8001dea:	619a      	str	r2, [r3, #24]

      /* Configure the Output Fast mode */
      htim->Instance->CCMR1 &= ~TIM_CCMR1_OC1FE;
 8001dec:	68fb      	ldr	r3, [r7, #12]
 8001dee:	681b      	ldr	r3, [r3, #0]
 8001df0:	699a      	ldr	r2, [r3, #24]
 8001df2:	68fb      	ldr	r3, [r7, #12]
 8001df4:	681b      	ldr	r3, [r3, #0]
 8001df6:	f022 0204 	bic.w	r2, r2, #4
 8001dfa:	619a      	str	r2, [r3, #24]
      htim->Instance->CCMR1 |= sConfig->OCFastMode;
 8001dfc:	68fb      	ldr	r3, [r7, #12]
 8001dfe:	681b      	ldr	r3, [r3, #0]
 8001e00:	6999      	ldr	r1, [r3, #24]
 8001e02:	68bb      	ldr	r3, [r7, #8]
 8001e04:	691a      	ldr	r2, [r3, #16]
 8001e06:	68fb      	ldr	r3, [r7, #12]
 8001e08:	681b      	ldr	r3, [r3, #0]
 8001e0a:	430a      	orrs	r2, r1
 8001e0c:	619a      	str	r2, [r3, #24]
      break;
 8001e0e:	e064      	b.n	8001eda <HAL_TIM_PWM_ConfigChannel+0x172>
    {
      /* Check the parameters */
      assert_param(IS_TIM_CC2_INSTANCE(htim->Instance));

      /* Configure the Channel 2 in PWM mode */
      TIM_OC2_SetConfig(htim->Instance, sConfig);
 8001e10:	68fb      	ldr	r3, [r7, #12]
 8001e12:	681b      	ldr	r3, [r3, #0]
 8001e14:	68b9      	ldr	r1, [r7, #8]
 8001e16:	4618      	mov	r0, r3
 8001e18:	f000 fa72 	bl	8002300 <TIM_OC2_SetConfig>

      /* Set the Preload enable bit for channel2 */
      htim->Instance->CCMR1 |= TIM_CCMR1_OC2PE;
 8001e1c:	68fb      	ldr	r3, [r7, #12]
 8001e1e:	681b      	ldr	r3, [r3, #0]
 8001e20:	699a      	ldr	r2, [r3, #24]
 8001e22:	68fb      	ldr	r3, [r7, #12]
 8001e24:	681b      	ldr	r3, [r3, #0]
 8001e26:	f442 6200 	orr.w	r2, r2, #2048	; 0x800
 8001e2a:	619a      	str	r2, [r3, #24]

      /* Configure the Output Fast mode */
      htim->Instance->CCMR1 &= ~TIM_CCMR1_OC2FE;
 8001e2c:	68fb      	ldr	r3, [r7, #12]
 8001e2e:	681b      	ldr	r3, [r3, #0]
 8001e30:	699a      	ldr	r2, [r3, #24]
 8001e32:	68fb      	ldr	r3, [r7, #12]
 8001e34:	681b      	ldr	r3, [r3, #0]
 8001e36:	f422 6280 	bic.w	r2, r2, #1024	; 0x400
 8001e3a:	619a      	str	r2, [r3, #24]
      htim->Instance->CCMR1 |= sConfig->OCFastMode << 8U;
 8001e3c:	68fb      	ldr	r3, [r7, #12]
 8001e3e:	681b      	ldr	r3, [r3, #0]
 8001e40:	6999      	ldr	r1, [r3, #24]
 8001e42:	68bb      	ldr	r3, [r7, #8]
 8001e44:	691b      	ldr	r3, [r3, #16]
 8001e46:	021a      	lsls	r2, r3, #8
 8001e48:	68fb      	ldr	r3, [r7, #12]
 8001e4a:	681b      	ldr	r3, [r3, #0]
 8001e4c:	430a      	orrs	r2, r1
 8001e4e:	619a      	str	r2, [r3, #24]
      break;
 8001e50:	e043      	b.n	8001eda <HAL_TIM_PWM_ConfigChannel+0x172>
    {
      /* Check the parameters */
      assert_param(IS_TIM_CC3_INSTANCE(htim->Instance));

      /* Configure the Channel 3 in PWM mode */
      TIM_OC3_SetConfig(htim->Instance, sConfig);
 8001e52:	68fb      	ldr	r3, [r7, #12]
 8001e54:	681b      	ldr	r3, [r3, #0]
 8001e56:	68b9      	ldr	r1, [r7, #8]
 8001e58:	4618      	mov	r0, r3
 8001e5a:	f000 fac7 	bl	80023ec <TIM_OC3_SetConfig>

      /* Set the Preload enable bit for channel3 */
      htim->Instance->CCMR2 |= TIM_CCMR2_OC3PE;
 8001e5e:	68fb      	ldr	r3, [r7, #12]
 8001e60:	681b      	ldr	r3, [r3, #0]
 8001e62:	69da      	ldr	r2, [r3, #28]
 8001e64:	68fb      	ldr	r3, [r7, #12]
 8001e66:	681b      	ldr	r3, [r3, #0]
 8001e68:	f042 0208 	orr.w	r2, r2, #8
 8001e6c:	61da      	str	r2, [r3, #28]

      /* Configure the Output Fast mode */
      htim->Instance->CCMR2 &= ~TIM_CCMR2_OC3FE;
 8001e6e:	68fb      	ldr	r3, [r7, #12]
 8001e70:	681b      	ldr	r3, [r3, #0]
 8001e72:	69da      	ldr	r2, [r3, #28]
 8001e74:	68fb      	ldr	r3, [r7, #12]
 8001e76:	681b      	ldr	r3, [r3, #0]
 8001e78:	f022 0204 	bic.w	r2, r2, #4
 8001e7c:	61da      	str	r2, [r3, #28]
      htim->Instance->CCMR2 |= sConfig->OCFastMode;
 8001e7e:	68fb      	ldr	r3, [r7, #12]
 8001e80:	681b      	ldr	r3, [r3, #0]
 8001e82:	69d9      	ldr	r1, [r3, #28]
 8001e84:	68bb      	ldr	r3, [r7, #8]
 8001e86:	691a      	ldr	r2, [r3, #16]
 8001e88:	68fb      	ldr	r3, [r7, #12]
 8001e8a:	681b      	ldr	r3, [r3, #0]
 8001e8c:	430a      	orrs	r2, r1
 8001e8e:	61da      	str	r2, [r3, #28]
      break;
 8001e90:	e023      	b.n	8001eda <HAL_TIM_PWM_ConfigChannel+0x172>
    {
      /* Check the parameters */
      assert_param(IS_TIM_CC4_INSTANCE(htim->Instance));

      /* Configure the Channel 4 in PWM mode */
      TIM_OC4_SetConfig(htim->Instance, sConfig);
 8001e92:	68fb      	ldr	r3, [r7, #12]
 8001e94:	681b      	ldr	r3, [r3, #0]
 8001e96:	68b9      	ldr	r1, [r7, #8]
 8001e98:	4618      	mov	r0, r3
 8001e9a:	f000 fb1b 	bl	80024d4 <TIM_OC4_SetConfig>

      /* Set the Preload enable bit for channel4 */
      htim->Instance->CCMR2 |= TIM_CCMR2_OC4PE;
 8001e9e:	68fb      	ldr	r3, [r7, #12]
 8001ea0:	681b      	ldr	r3, [r3, #0]
 8001ea2:	69da      	ldr	r2, [r3, #28]
 8001ea4:	68fb      	ldr	r3, [r7, #12]
 8001ea6:	681b      	ldr	r3, [r3, #0]
 8001ea8:	f442 6200 	orr.w	r2, r2, #2048	; 0x800
 8001eac:	61da      	str	r2, [r3, #28]

      /* Configure the Output Fast mode */
      htim->Instance->CCMR2 &= ~TIM_CCMR2_OC4FE;
 8001eae:	68fb      	ldr	r3, [r7, #12]
 8001eb0:	681b      	ldr	r3, [r3, #0]
 8001eb2:	69da      	ldr	r2, [r3, #28]
 8001eb4:	68fb      	ldr	r3, [r7, #12]
 8001eb6:	681b      	ldr	r3, [r3, #0]
 8001eb8:	f422 6280 	bic.w	r2, r2, #1024	; 0x400
 8001ebc:	61da      	str	r2, [r3, #28]
      htim->Instance->CCMR2 |= sConfig->OCFastMode << 8U;
 8001ebe:	68fb      	ldr	r3, [r7, #12]
 8001ec0:	681b      	ldr	r3, [r3, #0]
 8001ec2:	69d9      	ldr	r1, [r3, #28]
 8001ec4:	68bb      	ldr	r3, [r7, #8]
 8001ec6:	691b      	ldr	r3, [r3, #16]
 8001ec8:	021a      	lsls	r2, r3, #8
 8001eca:	68fb      	ldr	r3, [r7, #12]
 8001ecc:	681b      	ldr	r3, [r3, #0]
 8001ece:	430a      	orrs	r2, r1
 8001ed0:	61da      	str	r2, [r3, #28]
      break;
 8001ed2:	e002      	b.n	8001eda <HAL_TIM_PWM_ConfigChannel+0x172>
    }

    default:
      status = HAL_ERROR;
 8001ed4:	2301      	movs	r3, #1
 8001ed6:	75fb      	strb	r3, [r7, #23]
      break;
 8001ed8:	bf00      	nop
  }

  __HAL_UNLOCK(htim);
 8001eda:	68fb      	ldr	r3, [r7, #12]
 8001edc:	2200      	movs	r2, #0
 8001ede:	f883 203c 	strb.w	r2, [r3, #60]	; 0x3c

  return status;
 8001ee2:	7dfb      	ldrb	r3, [r7, #23]
}
 8001ee4:	4618      	mov	r0, r3
 8001ee6:	3718      	adds	r7, #24
 8001ee8:	46bd      	mov	sp, r7
 8001eea:	bd80      	pop	{r7, pc}

08001eec <HAL_TIM_ConfigClockSource>:
  * @param  sClockSourceConfig pointer to a TIM_ClockConfigTypeDef structure that
  *         contains the clock source information for the TIM peripheral.
  * @retval HAL status
  */
HAL_StatusTypeDef HAL_TIM_ConfigClockSource(TIM_HandleTypeDef *htim, TIM_ClockConfigTypeDef *sClockSourceConfig)
{
 8001eec:	b580      	push	{r7, lr}
 8001eee:	b084      	sub	sp, #16
 8001ef0:	af00      	add	r7, sp, #0
 8001ef2:	6078      	str	r0, [r7, #4]
 8001ef4:	6039      	str	r1, [r7, #0]
  HAL_StatusTypeDef status = HAL_OK;
 8001ef6:	2300      	movs	r3, #0
 8001ef8:	73fb      	strb	r3, [r7, #15]
  uint32_t tmpsmcr;

  /* Process Locked */
  __HAL_LOCK(htim);
 8001efa:	687b      	ldr	r3, [r7, #4]
 8001efc:	f893 303c 	ldrb.w	r3, [r3, #60]	; 0x3c
 8001f00:	2b01      	cmp	r3, #1
 8001f02:	d101      	bne.n	8001f08 <HAL_TIM_ConfigClockSource+0x1c>
 8001f04:	2302      	movs	r3, #2
 8001f06:	e0b4      	b.n	8002072 <HAL_TIM_ConfigClockSource+0x186>
 8001f08:	687b      	ldr	r3, [r7, #4]
 8001f0a:	2201      	movs	r2, #1
 8001f0c:	f883 203c 	strb.w	r2, [r3, #60]	; 0x3c

  htim->State = HAL_TIM_STATE_BUSY;
 8001f10:	687b      	ldr	r3, [r7, #4]
 8001f12:	2202      	movs	r2, #2
 8001f14:	f883 203d 	strb.w	r2, [r3, #61]	; 0x3d

  /* Check the parameters */
  assert_param(IS_TIM_CLOCKSOURCE(sClockSourceConfig->ClockSource));

  /* Reset the SMS, TS, ECE, ETPS and ETRF bits */
  tmpsmcr = htim->Instance->SMCR;
 8001f18:	687b      	ldr	r3, [r7, #4]
 8001f1a:	681b      	ldr	r3, [r3, #0]
 8001f1c:	689b      	ldr	r3, [r3, #8]
 8001f1e:	60bb      	str	r3, [r7, #8]
  tmpsmcr &= ~(TIM_SMCR_SMS | TIM_SMCR_TS);
 8001f20:	68bb      	ldr	r3, [r7, #8]
 8001f22:	f023 0377 	bic.w	r3, r3, #119	; 0x77
 8001f26:	60bb      	str	r3, [r7, #8]
  tmpsmcr &= ~(TIM_SMCR_ETF | TIM_SMCR_ETPS | TIM_SMCR_ECE | TIM_SMCR_ETP);
 8001f28:	68bb      	ldr	r3, [r7, #8]
 8001f2a:	f423 437f 	bic.w	r3, r3, #65280	; 0xff00
 8001f2e:	60bb      	str	r3, [r7, #8]
  htim->Instance->SMCR = tmpsmcr;
 8001f30:	687b      	ldr	r3, [r7, #4]
 8001f32:	681b      	ldr	r3, [r3, #0]
 8001f34:	68ba      	ldr	r2, [r7, #8]
 8001f36:	609a      	str	r2, [r3, #8]

  switch (sClockSourceConfig->ClockSource)
 8001f38:	683b      	ldr	r3, [r7, #0]
 8001f3a:	681b      	ldr	r3, [r3, #0]
 8001f3c:	f5b3 5f00 	cmp.w	r3, #8192	; 0x2000
 8001f40:	d03e      	beq.n	8001fc0 <HAL_TIM_ConfigClockSource+0xd4>
 8001f42:	f5b3 5f00 	cmp.w	r3, #8192	; 0x2000
 8001f46:	f200 8087 	bhi.w	8002058 <HAL_TIM_ConfigClockSource+0x16c>
 8001f4a:	f5b3 5f80 	cmp.w	r3, #4096	; 0x1000
 8001f4e:	f000 8086 	beq.w	800205e <HAL_TIM_ConfigClockSource+0x172>
 8001f52:	f5b3 5f80 	cmp.w	r3, #4096	; 0x1000
 8001f56:	d87f      	bhi.n	8002058 <HAL_TIM_ConfigClockSource+0x16c>
 8001f58:	2b70      	cmp	r3, #112	; 0x70
 8001f5a:	d01a      	beq.n	8001f92 <HAL_TIM_ConfigClockSource+0xa6>
 8001f5c:	2b70      	cmp	r3, #112	; 0x70
 8001f5e:	d87b      	bhi.n	8002058 <HAL_TIM_ConfigClockSource+0x16c>
 8001f60:	2b60      	cmp	r3, #96	; 0x60
 8001f62:	d050      	beq.n	8002006 <HAL_TIM_ConfigClockSource+0x11a>
 8001f64:	2b60      	cmp	r3, #96	; 0x60
 8001f66:	d877      	bhi.n	8002058 <HAL_TIM_ConfigClockSource+0x16c>
 8001f68:	2b50      	cmp	r3, #80	; 0x50
 8001f6a:	d03c      	beq.n	8001fe6 <HAL_TIM_ConfigClockSource+0xfa>
 8001f6c:	2b50      	cmp	r3, #80	; 0x50
 8001f6e:	d873      	bhi.n	8002058 <HAL_TIM_ConfigClockSource+0x16c>
 8001f70:	2b40      	cmp	r3, #64	; 0x40
 8001f72:	d058      	beq.n	8002026 <HAL_TIM_ConfigClockSource+0x13a>
 8001f74:	2b40      	cmp	r3, #64	; 0x40
 8001f76:	d86f      	bhi.n	8002058 <HAL_TIM_ConfigClockSource+0x16c>
 8001f78:	2b30      	cmp	r3, #48	; 0x30
 8001f7a:	d064      	beq.n	8002046 <HAL_TIM_ConfigClockSource+0x15a>
 8001f7c:	2b30      	cmp	r3, #48	; 0x30
 8001f7e:	d86b      	bhi.n	8002058 <HAL_TIM_ConfigClockSource+0x16c>
 8001f80:	2b20      	cmp	r3, #32
 8001f82:	d060      	beq.n	8002046 <HAL_TIM_ConfigClockSource+0x15a>
 8001f84:	2b20      	cmp	r3, #32
 8001f86:	d867      	bhi.n	8002058 <HAL_TIM_ConfigClockSource+0x16c>
 8001f88:	2b00      	cmp	r3, #0
 8001f8a:	d05c      	beq.n	8002046 <HAL_TIM_ConfigClockSource+0x15a>
 8001f8c:	2b10      	cmp	r3, #16
 8001f8e:	d05a      	beq.n	8002046 <HAL_TIM_ConfigClockSource+0x15a>
 8001f90:	e062      	b.n	8002058 <HAL_TIM_ConfigClockSource+0x16c>
      assert_param(IS_TIM_CLOCKPRESCALER(sClockSourceConfig->ClockPrescaler));
      assert_param(IS_TIM_CLOCKPOLARITY(sClockSourceConfig->ClockPolarity));
      assert_param(IS_TIM_CLOCKFILTER(sClockSourceConfig->ClockFilter));

      /* Configure the ETR Clock source */
      TIM_ETR_SetConfig(htim->Instance,
 8001f92:	687b      	ldr	r3, [r7, #4]
 8001f94:	6818      	ldr	r0, [r3, #0]
 8001f96:	683b      	ldr	r3, [r7, #0]
 8001f98:	6899      	ldr	r1, [r3, #8]
 8001f9a:	683b      	ldr	r3, [r7, #0]
 8001f9c:	685a      	ldr	r2, [r3, #4]
 8001f9e:	683b      	ldr	r3, [r7, #0]
 8001fa0:	68db      	ldr	r3, [r3, #12]
 8001fa2:	f000 fb67 	bl	8002674 <TIM_ETR_SetConfig>
                        sClockSourceConfig->ClockPrescaler,
                        sClockSourceConfig->ClockPolarity,
                        sClockSourceConfig->ClockFilter);

      /* Select the External clock mode1 and the ETRF trigger */
      tmpsmcr = htim->Instance->SMCR;
 8001fa6:	687b      	ldr	r3, [r7, #4]
 8001fa8:	681b      	ldr	r3, [r3, #0]
 8001faa:	689b      	ldr	r3, [r3, #8]
 8001fac:	60bb      	str	r3, [r7, #8]
      tmpsmcr |= (TIM_SLAVEMODE_EXTERNAL1 | TIM_CLOCKSOURCE_ETRMODE1);
 8001fae:	68bb      	ldr	r3, [r7, #8]
 8001fb0:	f043 0377 	orr.w	r3, r3, #119	; 0x77
 8001fb4:	60bb      	str	r3, [r7, #8]
      /* Write to TIMx SMCR */
      htim->Instance->SMCR = tmpsmcr;
 8001fb6:	687b      	ldr	r3, [r7, #4]
 8001fb8:	681b      	ldr	r3, [r3, #0]
 8001fba:	68ba      	ldr	r2, [r7, #8]
 8001fbc:	609a      	str	r2, [r3, #8]
      break;
 8001fbe:	e04f      	b.n	8002060 <HAL_TIM_ConfigClockSource+0x174>
      assert_param(IS_TIM_CLOCKPRESCALER(sClockSourceConfig->ClockPrescaler));
      assert_param(IS_TIM_CLOCKPOLARITY(sClockSourceConfig->ClockPolarity));
      assert_param(IS_TIM_CLOCKFILTER(sClockSourceConfig->ClockFilter));

      /* Configure the ETR Clock source */
      TIM_ETR_SetConfig(htim->Instance,
 8001fc0:	687b      	ldr	r3, [r7, #4]
 8001fc2:	6818      	ldr	r0, [r3, #0]
 8001fc4:	683b      	ldr	r3, [r7, #0]
 8001fc6:	6899      	ldr	r1, [r3, #8]
 8001fc8:	683b      	ldr	r3, [r7, #0]
 8001fca:	685a      	ldr	r2, [r3, #4]
 8001fcc:	683b      	ldr	r3, [r7, #0]
 8001fce:	68db      	ldr	r3, [r3, #12]
 8001fd0:	f000 fb50 	bl	8002674 <TIM_ETR_SetConfig>
                        sClockSourceConfig->ClockPrescaler,
                        sClockSourceConfig->ClockPolarity,
                        sClockSourceConfig->ClockFilter);
      /* Enable the External clock mode2 */
      htim->Instance->SMCR |= TIM_SMCR_ECE;
 8001fd4:	687b      	ldr	r3, [r7, #4]
 8001fd6:	681b      	ldr	r3, [r3, #0]
 8001fd8:	689a      	ldr	r2, [r3, #8]
 8001fda:	687b      	ldr	r3, [r7, #4]
 8001fdc:	681b      	ldr	r3, [r3, #0]
 8001fde:	f442 4280 	orr.w	r2, r2, #16384	; 0x4000
 8001fe2:	609a      	str	r2, [r3, #8]
      break;
 8001fe4:	e03c      	b.n	8002060 <HAL_TIM_ConfigClockSource+0x174>

      /* Check TI1 input conditioning related parameters */
      assert_param(IS_TIM_CLOCKPOLARITY(sClockSourceConfig->ClockPolarity));
      assert_param(IS_TIM_CLOCKFILTER(sClockSourceConfig->ClockFilter));

      TIM_TI1_ConfigInputStage(htim->Instance,
 8001fe6:	687b      	ldr	r3, [r7, #4]
 8001fe8:	6818      	ldr	r0, [r3, #0]
 8001fea:	683b      	ldr	r3, [r7, #0]
 8001fec:	6859      	ldr	r1, [r3, #4]
 8001fee:	683b      	ldr	r3, [r7, #0]
 8001ff0:	68db      	ldr	r3, [r3, #12]
 8001ff2:	461a      	mov	r2, r3
 8001ff4:	f000 fac4 	bl	8002580 <TIM_TI1_ConfigInputStage>
                               sClockSourceConfig->ClockPolarity,
                               sClockSourceConfig->ClockFilter);
      TIM_ITRx_SetConfig(htim->Instance, TIM_CLOCKSOURCE_TI1);
 8001ff8:	687b      	ldr	r3, [r7, #4]
 8001ffa:	681b      	ldr	r3, [r3, #0]
 8001ffc:	2150      	movs	r1, #80	; 0x50
 8001ffe:	4618      	mov	r0, r3
 8002000:	f000 fb1d 	bl	800263e <TIM_ITRx_SetConfig>
      break;
 8002004:	e02c      	b.n	8002060 <HAL_TIM_ConfigClockSource+0x174>

      /* Check TI2 input conditioning related parameters */
