
led_can.elf:     file format elf32-littlearm

Sections:
Idx Name          Size      VMA       LMA       File off  Algn
  0 .isr_vector   00000188  08000000  08000000  00010000  2**0
                  CONTENTS, ALLOC, LOAD, READONLY, DATA
  1 .text         00002004  08000188  08000188  00010188  2**2
                  CONTENTS, ALLOC, LOAD, READONLY, CODE
  2 .rodata       00000010  0800218c  0800218c  0001218c  2**2
                  CONTENTS, ALLOC, LOAD, READONLY, DATA
  3 .ARM.extab    00000000  0800219c  0800219c  0002000c  2**0
                  CONTENTS
  4 .ARM          00000008  0800219c  0800219c  0001219c  2**2
                  CONTENTS, ALLOC, LOAD, READONLY, DATA
  5 .preinit_array 00000000  080021a4  080021a4  0002000c  2**0
                  CONTENTS, ALLOC, LOAD, DATA
  6 .init_array   00000004  080021a4  080021a4  000121a4  2**2
                  CONTENTS, ALLOC, LOAD, DATA
  7 .fini_array   00000004  080021a8  080021a8  000121a8  2**2
                  CONTENTS, ALLOC, LOAD, DATA
  8 .data         0000000c  20000000  080021ac  00020000  2**2
                  CONTENTS, ALLOC, LOAD, DATA
  9 .ccmram       00000000  10000000  10000000  0002000c  2**0
                  CONTENTS
 10 .bss          0000006c  2000000c  2000000c  0002000c  2**2
                  ALLOC
 11 ._user_heap_stack 00000600  20000078  20000078  0002000c  2**0
                  ALLOC
 12 .ARM.attributes 00000030  00000000  00000000  0002000c  2**0
                  CONTENTS, READONLY
 13 .debug_info   00005b4a  00000000  00000000  0002003c  2**0
                  CONTENTS, READONLY, DEBUGGING, OCTETS
 14 .debug_abbrev 000012b6  00000000  00000000  00025b86  2**0
                  CONTENTS, READONLY, DEBUGGING, OCTETS
 15 .debug_aranges 00000548  00000000  00000000  00026e40  2**3
                  CONTENTS, READONLY, DEBUGGING, OCTETS
 16 .debug_ranges 000004b0  00000000  00000000  00027388  2**3
                  CONTENTS, READONLY, DEBUGGING, OCTETS
 17 .debug_macro  0001f361  00000000  00000000  00027838  2**0
                  CONTENTS, READONLY, DEBUGGING, OCTETS
 18 .debug_line   00005b62  00000000  00000000  00046b99  2**0
                  CONTENTS, READONLY, DEBUGGING, OCTETS
 19 .debug_str    000be7d8  00000000  00000000  0004c6fb  2**0
                  CONTENTS, READONLY, DEBUGGING, OCTETS
 20 .comment      00000050  00000000  00000000  0010aed3  2**0
                  CONTENTS, READONLY
 21 .debug_frame  00001434  00000000  00000000  0010af24  2**2
                  CONTENTS, READONLY, DEBUGGING, OCTETS

Disassembly of section .text:

08000188 <__do_global_dtors_aux>:
 8000188:	b510      	push	{r4, lr}
 800018a:	4c05      	ldr	r4, [pc, #20]	; (80001a0 <__do_global_dtors_aux+0x18>)
 800018c:	7823      	ldrb	r3, [r4, #0]
 800018e:	b933      	cbnz	r3, 800019e <__do_global_dtors_aux+0x16>
 8000190:	4b04      	ldr	r3, [pc, #16]	; (80001a4 <__do_global_dtors_aux+0x1c>)
 8000192:	b113      	cbz	r3, 800019a <__do_global_dtors_aux+0x12>
 8000194:	4804      	ldr	r0, [pc, #16]	; (80001a8 <__do_global_dtors_aux+0x20>)
 8000196:	f3af 8000 	nop.w
 800019a:	2301      	movs	r3, #1
 800019c:	7023      	strb	r3, [r4, #0]
 800019e:	bd10      	pop	{r4, pc}
 80001a0:	2000000c 	.word	0x2000000c
 80001a4:	00000000 	.word	0x00000000
 80001a8:	08002174 	.word	0x08002174

080001ac <frame_dummy>:
 80001ac:	b508      	push	{r3, lr}
 80001ae:	4b03      	ldr	r3, [pc, #12]	; (80001bc <frame_dummy+0x10>)
 80001b0:	b11b      	cbz	r3, 80001ba <frame_dummy+0xe>
 80001b2:	4903      	ldr	r1, [pc, #12]	; (80001c0 <frame_dummy+0x14>)
 80001b4:	4803      	ldr	r0, [pc, #12]	; (80001c4 <frame_dummy+0x18>)
 80001b6:	f3af 8000 	nop.w
 80001ba:	bd08      	pop	{r3, pc}
 80001bc:	00000000 	.word	0x00000000
 80001c0:	20000010 	.word	0x20000010
 80001c4:	08002174 	.word	0x08002174

080001c8 <__aeabi_uldivmod>:
 80001c8:	b953      	cbnz	r3, 80001e0 <__aeabi_uldivmod+0x18>
 80001ca:	b94a      	cbnz	r2, 80001e0 <__aeabi_uldivmod+0x18>
 80001cc:	2900      	cmp	r1, #0
 80001ce:	bf08      	it	eq
 80001d0:	2800      	cmpeq	r0, #0
 80001d2:	bf1c      	itt	ne
 80001d4:	f04f 31ff 	movne.w	r1, #4294967295
 80001d8:	f04f 30ff 	movne.w	r0, #4294967295
 80001dc:	f000 b974 	b.w	80004c8 <__aeabi_idiv0>
 80001e0:	f1ad 0c08 	sub.w	ip, sp, #8
 80001e4:	e96d ce04 	strd	ip, lr, [sp, #-16]!
 80001e8:	f000 f806 	bl	80001f8 <__udivmoddi4>
 80001ec:	f8dd e004 	ldr.w	lr, [sp, #4]
 80001f0:	e9dd 2302 	ldrd	r2, r3, [sp, #8]
 80001f4:	b004      	add	sp, #16
 80001f6:	4770      	bx	lr

080001f8 <__udivmoddi4>:
 80001f8:	e92d 47f0 	stmdb	sp!, {r4, r5, r6, r7, r8, r9, sl, lr}
 80001fc:	9d08      	ldr	r5, [sp, #32]
 80001fe:	4604      	mov	r4, r0
 8000200:	468e      	mov	lr, r1
 8000202:	2b00      	cmp	r3, #0
 8000204:	d14d      	bne.n	80002a2 <__udivmoddi4+0xaa>
 8000206:	428a      	cmp	r2, r1
 8000208:	4694      	mov	ip, r2
 800020a:	d969      	bls.n	80002e0 <__udivmoddi4+0xe8>
 800020c:	fab2 f282 	clz	r2, r2
 8000210:	b152      	cbz	r2, 8000228 <__udivmoddi4+0x30>
 8000212:	fa01 f302 	lsl.w	r3, r1, r2
 8000216:	f1c2 0120 	rsb	r1, r2, #32
 800021a:	fa20 f101 	lsr.w	r1, r0, r1
 800021e:	fa0c fc02 	lsl.w	ip, ip, r2
 8000222:	ea41 0e03 	orr.w	lr, r1, r3
 8000226:	4094      	lsls	r4, r2
 8000228:	ea4f 481c 	mov.w	r8, ip, lsr #16
 800022c:	0c21      	lsrs	r1, r4, #16
 800022e:	fbbe f6f8 	udiv	r6, lr, r8
 8000232:	fa1f f78c 	uxth.w	r7, ip
 8000236:	fb08 e316 	mls	r3, r8, r6, lr
 800023a:	ea41 4303 	orr.w	r3, r1, r3, lsl #16
 800023e:	fb06 f107 	mul.w	r1, r6, r7
 8000242:	4299      	cmp	r1, r3
 8000244:	d90a      	bls.n	800025c <__udivmoddi4+0x64>
 8000246:	eb1c 0303 	adds.w	r3, ip, r3
 800024a:	f106 30ff 	add.w	r0, r6, #4294967295
 800024e:	f080 811f 	bcs.w	8000490 <__udivmoddi4+0x298>
 8000252:	4299      	cmp	r1, r3
 8000254:	f240 811c 	bls.w	8000490 <__udivmoddi4+0x298>
 8000258:	3e02      	subs	r6, #2
 800025a:	4463      	add	r3, ip
 800025c:	1a5b      	subs	r3, r3, r1
 800025e:	b2a4      	uxth	r4, r4
 8000260:	fbb3 f0f8 	udiv	r0, r3, r8
 8000264:	fb08 3310 	mls	r3, r8, r0, r3
 8000268:	ea44 4403 	orr.w	r4, r4, r3, lsl #16
 800026c:	fb00 f707 	mul.w	r7, r0, r7
 8000270:	42a7      	cmp	r7, r4
 8000272:	d90a      	bls.n	800028a <__udivmoddi4+0x92>
 8000274:	eb1c 0404 	adds.w	r4, ip, r4
 8000278:	f100 33ff 	add.w	r3, r0, #4294967295
 800027c:	f080 810a 	bcs.w	8000494 <__udivmoddi4+0x29c>
 8000280:	42a7      	cmp	r7, r4
 8000282:	f240 8107 	bls.w	8000494 <__udivmoddi4+0x29c>
 8000286:	4464      	add	r4, ip
 8000288:	3802      	subs	r0, #2
 800028a:	ea40 4006 	orr.w	r0, r0, r6, lsl #16
 800028e:	1be4      	subs	r4, r4, r7
 8000290:	2600      	movs	r6, #0
 8000292:	b11d      	cbz	r5, 800029c <__udivmoddi4+0xa4>
 8000294:	40d4      	lsrs	r4, r2
 8000296:	2300      	movs	r3, #0
 8000298:	e9c5 4300 	strd	r4, r3, [r5]
 800029c:	4631      	mov	r1, r6
 800029e:	e8bd 87f0 	ldmia.w	sp!, {r4, r5, r6, r7, r8, r9, sl, pc}
 80002a2:	428b      	cmp	r3, r1
 80002a4:	d909      	bls.n	80002ba <__udivmoddi4+0xc2>
 80002a6:	2d00      	cmp	r5, #0
 80002a8:	f000 80ef 	beq.w	800048a <__udivmoddi4+0x292>
 80002ac:	2600      	movs	r6, #0
 80002ae:	e9c5 0100 	strd	r0, r1, [r5]
 80002b2:	4630      	mov	r0, r6
 80002b4:	4631      	mov	r1, r6
 80002b6:	e8bd 87f0 	ldmia.w	sp!, {r4, r5, r6, r7, r8, r9, sl, pc}
 80002ba:	fab3 f683 	clz	r6, r3
 80002be:	2e00      	cmp	r6, #0
 80002c0:	d14a      	bne.n	8000358 <__udivmoddi4+0x160>
 80002c2:	428b      	cmp	r3, r1
 80002c4:	d302      	bcc.n	80002cc <__udivmoddi4+0xd4>
 80002c6:	4282      	cmp	r2, r0
 80002c8:	f200 80f9 	bhi.w	80004be <__udivmoddi4+0x2c6>
 80002cc:	1a84      	subs	r4, r0, r2
 80002ce:	eb61 0303 	sbc.w	r3, r1, r3
 80002d2:	2001      	movs	r0, #1
 80002d4:	469e      	mov	lr, r3
 80002d6:	2d00      	cmp	r5, #0
 80002d8:	d0e0      	beq.n	800029c <__udivmoddi4+0xa4>
 80002da:	e9c5 4e00 	strd	r4, lr, [r5]
 80002de:	e7dd      	b.n	800029c <__udivmoddi4+0xa4>
 80002e0:	b902      	cbnz	r2, 80002e4 <__udivmoddi4+0xec>
 80002e2:	deff      	udf	#255	; 0xff
 80002e4:	fab2 f282 	clz	r2, r2
 80002e8:	2a00      	cmp	r2, #0
 80002ea:	f040 8092 	bne.w	8000412 <__udivmoddi4+0x21a>
 80002ee:	eba1 010c 	sub.w	r1, r1, ip
 80002f2:	ea4f 471c 	mov.w	r7, ip, lsr #16
 80002f6:	fa1f fe8c 	uxth.w	lr, ip
 80002fa:	2601      	movs	r6, #1
 80002fc:	0c20      	lsrs	r0, r4, #16
 80002fe:	fbb1 f3f7 	udiv	r3, r1, r7
 8000302:	fb07 1113 	mls	r1, r7, r3, r1
 8000306:	ea40 4101 	orr.w	r1, r0, r1, lsl #16
 800030a:	fb0e f003 	mul.w	r0, lr, r3
 800030e:	4288      	cmp	r0, r1
 8000310:	d908      	bls.n	8000324 <__udivmoddi4+0x12c>
 8000312:	eb1c 0101 	adds.w	r1, ip, r1
 8000316:	f103 38ff 	add.w	r8, r3, #4294967295
 800031a:	d202      	bcs.n	8000322 <__udivmoddi4+0x12a>
 800031c:	4288      	cmp	r0, r1
 800031e:	f200 80cb 	bhi.w	80004b8 <__udivmoddi4+0x2c0>
 8000322:	4643      	mov	r3, r8
 8000324:	1a09      	subs	r1, r1, r0
 8000326:	b2a4      	uxth	r4, r4
 8000328:	fbb1 f0f7 	udiv	r0, r1, r7
 800032c:	fb07 1110 	mls	r1, r7, r0, r1
 8000330:	ea44 4401 	orr.w	r4, r4, r1, lsl #16
 8000334:	fb0e fe00 	mul.w	lr, lr, r0
 8000338:	45a6      	cmp	lr, r4
 800033a:	d908      	bls.n	800034e <__udivmoddi4+0x156>
 800033c:	eb1c 0404 	adds.w	r4, ip, r4
 8000340:	f100 31ff 	add.w	r1, r0, #4294967295
 8000344:	d202      	bcs.n	800034c <__udivmoddi4+0x154>
 8000346:	45a6      	cmp	lr, r4
 8000348:	f200 80bb 	bhi.w	80004c2 <__udivmoddi4+0x2ca>
 800034c:	4608      	mov	r0, r1
 800034e:	eba4 040e 	sub.w	r4, r4, lr
 8000352:	ea40 4003 	orr.w	r0, r0, r3, lsl #16
 8000356:	e79c      	b.n	8000292 <__udivmoddi4+0x9a>
 8000358:	f1c6 0720 	rsb	r7, r6, #32
 800035c:	40b3      	lsls	r3, r6
 800035e:	fa22 fc07 	lsr.w	ip, r2, r7
 8000362:	ea4c 0c03 	orr.w	ip, ip, r3
 8000366:	fa20 f407 	lsr.w	r4, r0, r7
 800036a:	fa01 f306 	lsl.w	r3, r1, r6
 800036e:	431c      	orrs	r4, r3
 8000370:	40f9      	lsrs	r1, r7
 8000372:	ea4f 491c 	mov.w	r9, ip, lsr #16
 8000376:	fa00 f306 	lsl.w	r3, r0, r6
 800037a:	fbb1 f8f9 	udiv	r8, r1, r9
 800037e:	0c20      	lsrs	r0, r4, #16
 8000380:	fa1f fe8c 	uxth.w	lr, ip
 8000384:	fb09 1118 	mls	r1, r9, r8, r1
 8000388:	ea40 4101 	orr.w	r1, r0, r1, lsl #16
 800038c:	fb08 f00e 	mul.w	r0, r8, lr
 8000390:	4288      	cmp	r0, r1
 8000392:	fa02 f206 	lsl.w	r2, r2, r6
 8000396:	d90b      	bls.n	80003b0 <__udivmoddi4+0x1b8>
 8000398:	eb1c 0101 	adds.w	r1, ip, r1
 800039c:	f108 3aff 	add.w	sl, r8, #4294967295
 80003a0:	f080 8088 	bcs.w	80004b4 <__udivmoddi4+0x2bc>
 80003a4:	4288      	cmp	r0, r1
 80003a6:	f240 8085 	bls.w	80004b4 <__udivmoddi4+0x2bc>
 80003aa:	f1a8 0802 	sub.w	r8, r8, #2
 80003ae:	4461      	add	r1, ip
 80003b0:	1a09      	subs	r1, r1, r0
 80003b2:	b2a4      	uxth	r4, r4
 80003b4:	fbb1 f0f9 	udiv	r0, r1, r9
 80003b8:	fb09 1110 	mls	r1, r9, r0, r1
 80003bc:	ea44 4101 	orr.w	r1, r4, r1, lsl #16
 80003c0:	fb00 fe0e 	mul.w	lr, r0, lr
 80003c4:	458e      	cmp	lr, r1
 80003c6:	d908      	bls.n	80003da <__udivmoddi4+0x1e2>
 80003c8:	eb1c 0101 	adds.w	r1, ip, r1
 80003cc:	f100 34ff 	add.w	r4, r0, #4294967295
 80003d0:	d26c      	bcs.n	80004ac <__udivmoddi4+0x2b4>
 80003d2:	458e      	cmp	lr, r1
 80003d4:	d96a      	bls.n	80004ac <__udivmoddi4+0x2b4>
 80003d6:	3802      	subs	r0, #2
 80003d8:	4461      	add	r1, ip
 80003da:	ea40 4008 	orr.w	r0, r0, r8, lsl #16
 80003de:	fba0 9402 	umull	r9, r4, r0, r2
 80003e2:	eba1 010e 	sub.w	r1, r1, lr
 80003e6:	42a1      	cmp	r1, r4
 80003e8:	46c8      	mov	r8, r9
 80003ea:	46a6      	mov	lr, r4
 80003ec:	d356      	bcc.n	800049c <__udivmoddi4+0x2a4>
 80003ee:	d053      	beq.n	8000498 <__udivmoddi4+0x2a0>
 80003f0:	b15d      	cbz	r5, 800040a <__udivmoddi4+0x212>
 80003f2:	ebb3 0208 	subs.w	r2, r3, r8
 80003f6:	eb61 010e 	sbc.w	r1, r1, lr
 80003fa:	fa01 f707 	lsl.w	r7, r1, r7
 80003fe:	fa22 f306 	lsr.w	r3, r2, r6
 8000402:	40f1      	lsrs	r1, r6
 8000404:	431f      	orrs	r7, r3
 8000406:	e9c5 7100 	strd	r7, r1, [r5]
 800040a:	2600      	movs	r6, #0
 800040c:	4631      	mov	r1, r6
 800040e:	e8bd 87f0 	ldmia.w	sp!, {r4, r5, r6, r7, r8, r9, sl, pc}
 8000412:	f1c2 0320 	rsb	r3, r2, #32
 8000416:	40d8      	lsrs	r0, r3
 8000418:	fa0c fc02 	lsl.w	ip, ip, r2
 800041c:	fa21 f303 	lsr.w	r3, r1, r3
 8000420:	4091      	lsls	r1, r2
 8000422:	4301      	orrs	r1, r0
 8000424:	ea4f 471c 	mov.w	r7, ip, lsr #16
 8000428:	fa1f fe8c 	uxth.w	lr, ip
 800042c:	fbb3 f0f7 	udiv	r0, r3, r7
 8000430:	fb07 3610 	mls	r6, r7, r0, r3
 8000434:	0c0b      	lsrs	r3, r1, #16
 8000436:	ea43 4306 	orr.w	r3, r3, r6, lsl #16
 800043a:	fb00 f60e 	mul.w	r6, r0, lr
 800043e:	429e      	cmp	r6, r3
 8000440:	fa04 f402 	lsl.w	r4, r4, r2
 8000444:	d908      	bls.n	8000458 <__udivmoddi4+0x260>
 8000446:	eb1c 0303 	adds.w	r3, ip, r3
 800044a:	f100 38ff 	add.w	r8, r0, #4294967295
 800044e:	d22f      	bcs.n	80004b0 <__udivmoddi4+0x2b8>
 8000450:	429e      	cmp	r6, r3
 8000452:	d92d      	bls.n	80004b0 <__udivmoddi4+0x2b8>
 8000454:	3802      	subs	r0, #2
 8000456:	4463      	add	r3, ip
 8000458:	1b9b      	subs	r3, r3, r6
 800045a:	b289      	uxth	r1, r1
 800045c:	fbb3 f6f7 	udiv	r6, r3, r7
 8000460:	fb07 3316 	mls	r3, r7, r6, r3
 8000464:	ea41 4103 	orr.w	r1, r1, r3, lsl #16
 8000468:	fb06 f30e 	mul.w	r3, r6, lr
 800046c:	428b      	cmp	r3, r1
 800046e:	d908      	bls.n	8000482 <__udivmoddi4+0x28a>
 8000470:	eb1c 0101 	adds.w	r1, ip, r1
 8000474:	f106 38ff 	add.w	r8, r6, #4294967295
 8000478:	d216      	bcs.n	80004a8 <__udivmoddi4+0x2b0>
 800047a:	428b      	cmp	r3, r1
 800047c:	d914      	bls.n	80004a8 <__udivmoddi4+0x2b0>
 800047e:	3e02      	subs	r6, #2
 8000480:	4461      	add	r1, ip
 8000482:	1ac9      	subs	r1, r1, r3
 8000484:	ea46 4600 	orr.w	r6, r6, r0, lsl #16
 8000488:	e738      	b.n	80002fc <__udivmoddi4+0x104>
 800048a:	462e      	mov	r6, r5
 800048c:	4628      	mov	r0, r5
 800048e:	e705      	b.n	800029c <__udivmoddi4+0xa4>
 8000490:	4606      	mov	r6, r0
 8000492:	e6e3      	b.n	800025c <__udivmoddi4+0x64>
 8000494:	4618      	mov	r0, r3
 8000496:	e6f8      	b.n	800028a <__udivmoddi4+0x92>
 8000498:	454b      	cmp	r3, r9
 800049a:	d2a9      	bcs.n	80003f0 <__udivmoddi4+0x1f8>
 800049c:	ebb9 0802 	subs.w	r8, r9, r2
 80004a0:	eb64 0e0c 	sbc.w	lr, r4, ip
 80004a4:	3801      	subs	r0, #1
 80004a6:	e7a3      	b.n	80003f0 <__udivmoddi4+0x1f8>
 80004a8:	4646      	mov	r6, r8
 80004aa:	e7ea      	b.n	8000482 <__udivmoddi4+0x28a>
 80004ac:	4620      	mov	r0, r4
 80004ae:	e794      	b.n	80003da <__udivmoddi4+0x1e2>
 80004b0:	4640      	mov	r0, r8
 80004b2:	e7d1      	b.n	8000458 <__udivmoddi4+0x260>
 80004b4:	46d0      	mov	r8, sl
 80004b6:	e77b      	b.n	80003b0 <__udivmoddi4+0x1b8>
 80004b8:	3b02      	subs	r3, #2
 80004ba:	4461      	add	r1, ip
 80004bc:	e732      	b.n	8000324 <__udivmoddi4+0x12c>
 80004be:	4630      	mov	r0, r6
 80004c0:	e709      	b.n	80002d6 <__udivmoddi4+0xde>
 80004c2:	4464      	add	r4, ip
 80004c4:	3802      	subs	r0, #2
 80004c6:	e742      	b.n	800034e <__udivmoddi4+0x156>

080004c8 <__aeabi_idiv0>:
 80004c8:	4770      	bx	lr
 80004ca:	bf00      	nop

080004cc <main>:
/**
  * @brief  The application entry point.
  * @retval int
  */
int main(void)
{
 80004cc:	b580      	push	{r7, lr}
 80004ce:	af00      	add	r7, sp, #0
  /* USER CODE END 1 */

  /* MCU Configuration--------------------------------------------------------*/

  /* Reset of all peripherals, Initializes the Flash interface and the Systick. */
  HAL_Init();
 80004d0:	f000 fa0c 	bl	80008ec <HAL_Init>
  /* USER CODE BEGIN Init */

  /* USER CODE END Init */

  /* Configure the system clock */
  SystemClock_Config();
 80004d4:	f000 f826 	bl	8000524 <SystemClock_Config>
  /* USER CODE BEGIN SysInit */

  /* USER CODE END SysInit */

  /* Initialize all configured peripherals */
  MX_GPIO_Init();
 80004d8:	f000 f8c4 	bl	8000664 <MX_GPIO_Init>
  MX_CAN1_Init();
 80004dc:	f000 f88c 	bl	80005f8 <MX_CAN1_Init>
  /* USER CODE BEGIN 2 */
  HAL_CAN_Start(&hcan1);
 80004e0:	480c      	ldr	r0, [pc, #48]	; (8000514 <main+0x48>)
 80004e2:	f000 fb70 	bl	8000bc6 <HAL_CAN_Start>
  HAL_CAN_ActivateNotification(&hcan1, CAN_IT_RX_FIFO0_MSG_PENDING);
 80004e6:	2102      	movs	r1, #2
 80004e8:	480a      	ldr	r0, [pc, #40]	; (8000514 <main+0x48>)
 80004ea:	f000 fc8b 	bl	8000e04 <HAL_CAN_ActivateNotification>

  /* Infinite loop */
  /* USER CODE BEGIN WHILE */
  while (1)
  {
	  a++;
 80004ee:	4b0a      	ldr	r3, [pc, #40]	; (8000518 <main+0x4c>)
 80004f0:	781b      	ldrb	r3, [r3, #0]
 80004f2:	3301      	adds	r3, #1
 80004f4:	b2da      	uxtb	r2, r3
 80004f6:	4b08      	ldr	r3, [pc, #32]	; (8000518 <main+0x4c>)
 80004f8:	701a      	strb	r2, [r3, #0]
	  if(HAL_CAN_AddTxMessage(&hcan1,&pHeader,&a,&TxMailbox)!=HAL_OK)
 80004fa:	4b08      	ldr	r3, [pc, #32]	; (800051c <main+0x50>)
 80004fc:	4a06      	ldr	r2, [pc, #24]	; (8000518 <main+0x4c>)
 80004fe:	4908      	ldr	r1, [pc, #32]	; (8000520 <main+0x54>)
 8000500:	4804      	ldr	r0, [pc, #16]	; (8000514 <main+0x48>)
 8000502:	f000 fba4 	bl	8000c4e <HAL_CAN_AddTxMessage>
 8000506:	4603      	mov	r3, r0
 8000508:	2b00      	cmp	r3, #0
 800050a:	d0f0      	beq.n	80004ee <main+0x22>
	  {
	  	  Error_Handler();
 800050c:	f000 f8fc 	bl	8000708 <Error_Handler>
	  a++;
 8000510:	e7ed      	b.n	80004ee <main+0x22>
 8000512:	bf00      	nop
 8000514:	20000028 	.word	0x20000028
 8000518:	2000006c 	.word	0x2000006c
 800051c:	20000068 	.word	0x20000068
 8000520:	20000050 	.word	0x20000050

08000524 <SystemClock_Config>:
/**
  * @brief System Clock Configuration
  * @retval None
  */
void SystemClock_Config(void)
{
 8000524:	b580      	push	{r7, lr}
 8000526:	b094      	sub	sp, #80	; 0x50
 8000528:	af00      	add	r7, sp, #0
  RCC_OscInitTypeDef RCC_OscInitStruct = {0};
 800052a:	f107 0320 	add.w	r3, r7, #32
 800052e:	2230      	movs	r2, #48	; 0x30
 8000530:	2100      	movs	r1, #0
 8000532:	4618      	mov	r0, r3
 8000534:	f001 fe16 	bl	8002164 <memset>
  RCC_ClkInitTypeDef RCC_ClkInitStruct = {0};
 8000538:	f107 030c 	add.w	r3, r7, #12
 800053c:	2200      	movs	r2, #0
 800053e:	601a      	str	r2, [r3, #0]
 8000540:	605a      	str	r2, [r3, #4]
 8000542:	609a      	str	r2, [r3, #8]
 8000544:	60da      	str	r2, [r3, #12]
 8000546:	611a      	str	r2, [r3, #16]

  /** Configure the main internal regulator output voltage
  */
  __HAL_RCC_PWR_CLK_ENABLE();
 8000548:	2300      	movs	r3, #0
 800054a:	60bb      	str	r3, [r7, #8]
 800054c:	4b28      	ldr	r3, [pc, #160]	; (80005f0 <SystemClock_Config+0xcc>)
 800054e:	6c1b      	ldr	r3, [r3, #64]	; 0x40
 8000550:	4a27      	ldr	r2, [pc, #156]	; (80005f0 <SystemClock_Config+0xcc>)
 8000552:	f043 5380 	orr.w	r3, r3, #268435456	; 0x10000000
 8000556:	6413      	str	r3, [r2, #64]	; 0x40
 8000558:	4b25      	ldr	r3, [pc, #148]	; (80005f0 <SystemClock_Config+0xcc>)
 800055a:	6c1b      	ldr	r3, [r3, #64]	; 0x40
 800055c:	f003 5380 	and.w	r3, r3, #268435456	; 0x10000000
 8000560:	60bb      	str	r3, [r7, #8]
 8000562:	68bb      	ldr	r3, [r7, #8]
  __HAL_PWR_VOLTAGESCALING_CONFIG(PWR_REGULATOR_VOLTAGE_SCALE1);
 8000564:	2300      	movs	r3, #0
 8000566:	607b      	str	r3, [r7, #4]
 8000568:	4b22      	ldr	r3, [pc, #136]	; (80005f4 <SystemClock_Config+0xd0>)
 800056a:	681b      	ldr	r3, [r3, #0]
 800056c:	4a21      	ldr	r2, [pc, #132]	; (80005f4 <SystemClock_Config+0xd0>)
 800056e:	f443 4380 	orr.w	r3, r3, #16384	; 0x4000
 8000572:	6013      	str	r3, [r2, #0]
 8000574:	4b1f      	ldr	r3, [pc, #124]	; (80005f4 <SystemClock_Config+0xd0>)
 8000576:	681b      	ldr	r3, [r3, #0]
 8000578:	f403 4380 	and.w	r3, r3, #16384	; 0x4000
 800057c:	607b      	str	r3, [r7, #4]
 800057e:	687b      	ldr	r3, [r7, #4]

  /** Initializes the RCC Oscillators according to the specified parameters
  * in the RCC_OscInitTypeDef structure.
  */
  RCC_OscInitStruct.OscillatorType = RCC_OSCILLATORTYPE_HSI;
 8000580:	2302      	movs	r3, #2
 8000582:	623b      	str	r3, [r7, #32]
  RCC_OscInitStruct.HSIState = RCC_HSI_ON;
 8000584:	2301      	movs	r3, #1
 8000586:	62fb      	str	r3, [r7, #44]	; 0x2c
  RCC_OscInitStruct.HSICalibrationValue = RCC_HSICALIBRATION_DEFAULT;
 8000588:	2310      	movs	r3, #16
 800058a:	633b      	str	r3, [r7, #48]	; 0x30
  RCC_OscInitStruct.PLL.PLLState = RCC_PLL_ON;
 800058c:	2302      	movs	r3, #2
 800058e:	63bb      	str	r3, [r7, #56]	; 0x38
  RCC_OscInitStruct.PLL.PLLSource = RCC_PLLSOURCE_HSI;
 8000590:	2300      	movs	r3, #0
 8000592:	63fb      	str	r3, [r7, #60]	; 0x3c
  RCC_OscInitStruct.PLL.PLLM = 8;
 8000594:	2308      	movs	r3, #8
 8000596:	643b      	str	r3, [r7, #64]	; 0x40
  RCC_OscInitStruct.PLL.PLLN = 168;
 8000598:	23a8      	movs	r3, #168	; 0xa8
 800059a:	647b      	str	r3, [r7, #68]	; 0x44
  RCC_OscInitStruct.PLL.PLLP = RCC_PLLP_DIV2;
 800059c:	2302      	movs	r3, #2
 800059e:	64bb      	str	r3, [r7, #72]	; 0x48
  RCC_OscInitStruct.PLL.PLLQ = 7;
 80005a0:	2307      	movs	r3, #7
 80005a2:	64fb      	str	r3, [r7, #76]	; 0x4c
  if (HAL_RCC_OscConfig(&RCC_OscInitStruct) != HAL_OK)
 80005a4:	f107 0320 	add.w	r3, r7, #32
 80005a8:	4618      	mov	r0, r3
 80005aa:	f001 f953 	bl	8001854 <HAL_RCC_OscConfig>
 80005ae:	4603      	mov	r3, r0
 80005b0:	2b00      	cmp	r3, #0
 80005b2:	d001      	beq.n	80005b8 <SystemClock_Config+0x94>
  {
    Error_Handler();
 80005b4:	f000 f8a8 	bl	8000708 <Error_Handler>
  }

  /** Initializes the CPU, AHB and APB buses clocks
  */
  RCC_ClkInitStruct.ClockType = RCC_CLOCKTYPE_HCLK|RCC_CLOCKTYPE_SYSCLK
 80005b8:	230f      	movs	r3, #15
 80005ba:	60fb      	str	r3, [r7, #12]
                              |RCC_CLOCKTYPE_PCLK1|RCC_CLOCKTYPE_PCLK2;
  RCC_ClkInitStruct.SYSCLKSource = RCC_SYSCLKSOURCE_PLLCLK;
 80005bc:	2302      	movs	r3, #2
 80005be:	613b      	str	r3, [r7, #16]
  RCC_ClkInitStruct.AHBCLKDivider = RCC_SYSCLK_DIV1;
 80005c0:	2300      	movs	r3, #0
 80005c2:	617b      	str	r3, [r7, #20]
  RCC_ClkInitStruct.APB1CLKDivider = RCC_HCLK_DIV4;
 80005c4:	f44f 53a0 	mov.w	r3, #5120	; 0x1400
 80005c8:	61bb      	str	r3, [r7, #24]
  RCC_ClkInitStruct.APB2CLKDivider = RCC_HCLK_DIV2;
 80005ca:	f44f 5380 	mov.w	r3, #4096	; 0x1000
 80005ce:	61fb      	str	r3, [r7, #28]

  if (HAL_RCC_ClockConfig(&RCC_ClkInitStruct, FLASH_LATENCY_5) != HAL_OK)
 80005d0:	f107 030c 	add.w	r3, r7, #12
 80005d4:	2105      	movs	r1, #5
 80005d6:	4618      	mov	r0, r3
 80005d8:	f001 fbb4 	bl	8001d44 <HAL_RCC_ClockConfig>
 80005dc:	4603      	mov	r3, r0
 80005de:	2b00      	cmp	r3, #0
 80005e0:	d001      	beq.n	80005e6 <SystemClock_Config+0xc2>
  {
    Error_Handler();
 80005e2:	f000 f891 	bl	8000708 <Error_Handler>
  }
}
 80005e6:	bf00      	nop
 80005e8:	3750      	adds	r7, #80	; 0x50
 80005ea:	46bd      	mov	sp, r7
 80005ec:	bd80      	pop	{r7, pc}
 80005ee:	bf00      	nop
 80005f0:	40023800 	.word	0x40023800
 80005f4:	40007000 	.word	0x40007000

080005f8 <MX_CAN1_Init>:
  * @brief CAN1 Initialization Function
  * @param None
  * @retval None
  */
static void MX_CAN1_Init(void)
{
 80005f8:	b580      	push	{r7, lr}
 80005fa:	af00      	add	r7, sp, #0
  /* USER CODE END CAN1_Init 0 */

  /* USER CODE BEGIN CAN1_Init 1 */

  /* USER CODE END CAN1_Init 1 */
  hcan1.Instance = CAN1;
 80005fc:	4b17      	ldr	r3, [pc, #92]	; (800065c <MX_CAN1_Init+0x64>)
 80005fe:	4a18      	ldr	r2, [pc, #96]	; (8000660 <MX_CAN1_Init+0x68>)
 8000600:	601a      	str	r2, [r3, #0]
  hcan1.Init.Prescaler = 21;
 8000602:	4b16      	ldr	r3, [pc, #88]	; (800065c <MX_CAN1_Init+0x64>)
 8000604:	2215      	movs	r2, #21
 8000606:	605a      	str	r2, [r3, #4]
  hcan1.Init.Mode = CAN_MODE_NORMAL;
 8000608:	4b14      	ldr	r3, [pc, #80]	; (800065c <MX_CAN1_Init+0x64>)
 800060a:	2200      	movs	r2, #0
 800060c:	609a      	str	r2, [r3, #8]
  hcan1.Init.SyncJumpWidth = CAN_SJW_1TQ;
 800060e:	4b13      	ldr	r3, [pc, #76]	; (800065c <MX_CAN1_Init+0x64>)
 8000610:	2200      	movs	r2, #0
 8000612:	60da      	str	r2, [r3, #12]
  hcan1.Init.TimeSeg1 = CAN_BS1_12TQ;
 8000614:	4b11      	ldr	r3, [pc, #68]	; (800065c <MX_CAN1_Init+0x64>)
 8000616:	f44f 2230 	mov.w	r2, #720896	; 0xb0000
 800061a:	611a      	str	r2, [r3, #16]
  hcan1.Init.TimeSeg2 = CAN_BS2_4TQ;
 800061c:	4b0f      	ldr	r3, [pc, #60]	; (800065c <MX_CAN1_Init+0x64>)
 800061e:	f44f 1240 	mov.w	r2, #3145728	; 0x300000
 8000622:	615a      	str	r2, [r3, #20]
  hcan1.Init.TimeTriggeredMode = DISABLE;
 8000624:	4b0d      	ldr	r3, [pc, #52]	; (800065c <MX_CAN1_Init+0x64>)
 8000626:	2200      	movs	r2, #0
 8000628:	761a      	strb	r2, [r3, #24]
  hcan1.Init.AutoBusOff = DISABLE;
 800062a:	4b0c      	ldr	r3, [pc, #48]	; (800065c <MX_CAN1_Init+0x64>)
 800062c:	2200      	movs	r2, #0
 800062e:	765a      	strb	r2, [r3, #25]
  hcan1.Init.AutoWakeUp = DISABLE;
 8000630:	4b0a      	ldr	r3, [pc, #40]	; (800065c <MX_CAN1_Init+0x64>)
 8000632:	2200      	movs	r2, #0
 8000634:	769a      	strb	r2, [r3, #26]
  hcan1.Init.AutoRetransmission = DISABLE;
 8000636:	4b09      	ldr	r3, [pc, #36]	; (800065c <MX_CAN1_Init+0x64>)
 8000638:	2200      	movs	r2, #0
 800063a:	76da      	strb	r2, [r3, #27]
  hcan1.Init.ReceiveFifoLocked = DISABLE;
 800063c:	4b07      	ldr	r3, [pc, #28]	; (800065c <MX_CAN1_Init+0x64>)
 800063e:	2200      	movs	r2, #0
 8000640:	771a      	strb	r2, [r3, #28]
  hcan1.Init.TransmitFifoPriority = DISABLE;
 8000642:	4b06      	ldr	r3, [pc, #24]	; (800065c <MX_CAN1_Init+0x64>)
 8000644:	2200      	movs	r2, #0
 8000646:	775a      	strb	r2, [r3, #29]
  if (HAL_CAN_Init(&hcan1) != HAL_OK)
 8000648:	4804      	ldr	r0, [pc, #16]	; (800065c <MX_CAN1_Init+0x64>)
 800064a:	f000 f9c1 	bl	80009d0 <HAL_CAN_Init>
 800064e:	4603      	mov	r3, r0
 8000650:	2b00      	cmp	r3, #0
 8000652:	d001      	beq.n	8000658 <MX_CAN1_Init+0x60>
  {
    Error_Handler();
 8000654:	f000 f858 	bl	8000708 <Error_Handler>
  }
  /* USER CODE BEGIN CAN1_Init 2 */

  /* USER CODE END CAN1_Init 2 */

}
 8000658:	bf00      	nop
 800065a:	bd80      	pop	{r7, pc}
 800065c:	20000028 	.word	0x20000028
 8000660:	40006400 	.word	0x40006400

08000664 <MX_GPIO_Init>:
  * @brief GPIO Initialization Function
  * @param None
  * @retval None
  */
static void MX_GPIO_Init(void)
{
 8000664:	b580      	push	{r7, lr}
 8000666:	b088      	sub	sp, #32
 8000668:	af00      	add	r7, sp, #0
  GPIO_InitTypeDef GPIO_InitStruct = {0};
 800066a:	f107 030c 	add.w	r3, r7, #12
 800066e:	2200      	movs	r2, #0
 8000670:	601a      	str	r2, [r3, #0]
 8000672:	605a      	str	r2, [r3, #4]
 8000674:	609a      	str	r2, [r3, #8]
 8000676:	60da      	str	r2, [r3, #12]
 8000678:	611a      	str	r2, [r3, #16]

  /* GPIO Ports Clock Enable */
  __HAL_RCC_GPIOH_CLK_ENABLE();
 800067a:	2300      	movs	r3, #0
 800067c:	60bb      	str	r3, [r7, #8]
 800067e:	4b20      	ldr	r3, [pc, #128]	; (8000700 <MX_GPIO_Init+0x9c>)
 8000680:	6b1b      	ldr	r3, [r3, #48]	; 0x30
 8000682:	4a1f      	ldr	r2, [pc, #124]	; (8000700 <MX_GPIO_Init+0x9c>)
 8000684:	f043 0380 	orr.w	r3, r3, #128	; 0x80
 8000688:	6313      	str	r3, [r2, #48]	; 0x30
 800068a:	4b1d      	ldr	r3, [pc, #116]	; (8000700 <MX_GPIO_Init+0x9c>)
 800068c:	6b1b      	ldr	r3, [r3, #48]	; 0x30
 800068e:	f003 0380 	and.w	r3, r3, #128	; 0x80
 8000692:	60bb      	str	r3, [r7, #8]
 8000694:	68bb      	ldr	r3, [r7, #8]
  __HAL_RCC_GPIOD_CLK_ENABLE();
 8000696:	2300      	movs	r3, #0
 8000698:	607b      	str	r3, [r7, #4]
 800069a:	4b19      	ldr	r3, [pc, #100]	; (8000700 <MX_GPIO_Init+0x9c>)
 800069c:	6b1b      	ldr	r3, [r3, #48]	; 0x30
 800069e:	4a18      	ldr	r2, [pc, #96]	; (8000700 <MX_GPIO_Init+0x9c>)
 80006a0:	f043 0308 	orr.w	r3, r3, #8
 80006a4:	6313      	str	r3, [r2, #48]	; 0x30
 80006a6:	4b16      	ldr	r3, [pc, #88]	; (8000700 <MX_GPIO_Init+0x9c>)
 80006a8:	6b1b      	ldr	r3, [r3, #48]	; 0x30
 80006aa:	f003 0308 	and.w	r3, r3, #8
 80006ae:	607b      	str	r3, [r7, #4]
 80006b0:	687b      	ldr	r3, [r7, #4]
  __HAL_RCC_GPIOB_CLK_ENABLE();
 80006b2:	2300      	movs	r3, #0
 80006b4:	603b      	str	r3, [r7, #0]
 80006b6:	4b12      	ldr	r3, [pc, #72]	; (8000700 <MX_GPIO_Init+0x9c>)
 80006b8:	6b1b      	ldr	r3, [r3, #48]	; 0x30
 80006ba:	4a11      	ldr	r2, [pc, #68]	; (8000700 <MX_GPIO_Init+0x9c>)
 80006bc:	f043 0302 	orr.w	r3, r3, #2
 80006c0:	6313      	str	r3, [r2, #48]	; 0x30
 80006c2:	4b0f      	ldr	r3, [pc, #60]	; (8000700 <MX_GPIO_Init+0x9c>)
 80006c4:	6b1b      	ldr	r3, [r3, #48]	; 0x30
 80006c6:	f003 0302 	and.w	r3, r3, #2
 80006ca:	603b      	str	r3, [r7, #0]
 80006cc:	683b      	ldr	r3, [r7, #0]

  /*Configure GPIO pin Output Level */
  HAL_GPIO_WritePin(GPIOD, GPIO_PIN_12|GPIO_PIN_13|GPIO_PIN_14|GPIO_PIN_15, GPIO_PIN_RESET);
 80006ce:	2200      	movs	r2, #0
 80006d0:	f44f 4170 	mov.w	r1, #61440	; 0xf000
 80006d4:	480b      	ldr	r0, [pc, #44]	; (8000704 <MX_GPIO_Init+0xa0>)
 80006d6:	f001 f8a3 	bl	8001820 <HAL_GPIO_WritePin>

  /*Configure GPIO pins : PD12 PD13 PD14 PD15 */
  GPIO_InitStruct.Pin = GPIO_PIN_12|GPIO_PIN_13|GPIO_PIN_14|GPIO_PIN_15;
 80006da:	f44f 4370 	mov.w	r3, #61440	; 0xf000
 80006de:	60fb      	str	r3, [r7, #12]
  GPIO_InitStruct.Mode = GPIO_MODE_OUTPUT_PP;
 80006e0:	2301      	movs	r3, #1
 80006e2:	613b      	str	r3, [r7, #16]
  GPIO_InitStruct.Pull = GPIO_NOPULL;
 80006e4:	2300      	movs	r3, #0
 80006e6:	617b      	str	r3, [r7, #20]
  GPIO_InitStruct.Speed = GPIO_SPEED_FREQ_LOW;
 80006e8:	2300      	movs	r3, #0
 80006ea:	61bb      	str	r3, [r7, #24]
  HAL_GPIO_Init(GPIOD, &GPIO_InitStruct);
 80006ec:	f107 030c 	add.w	r3, r7, #12
 80006f0:	4619      	mov	r1, r3
 80006f2:	4804      	ldr	r0, [pc, #16]	; (8000704 <MX_GPIO_Init+0xa0>)
 80006f4:	f000 fef8 	bl	80014e8 <HAL_GPIO_Init>

}
 80006f8:	bf00      	nop
 80006fa:	3720      	adds	r7, #32
 80006fc:	46bd      	mov	sp, r7
 80006fe:	bd80      	pop	{r7, pc}
 8000700:	40023800 	.word	0x40023800
 8000704:	40020c00 	.word	0x40020c00

08000708 <Error_Handler>:
/**
  * @brief  This function is executed in case of error occurrence.
  * @retval None
  */
void Error_Handler(void)
{
 8000708:	b480      	push	{r7}
 800070a:	af00      	add	r7, sp, #0
  \details Disables IRQ interrupts by setting the I-bit in the CPSR.
           Can only be executed in Privileged modes.
 */
__STATIC_FORCEINLINE void __disable_irq(void)
{
  __ASM volatile ("cpsid i" : : : "memory");
 800070c:	b672      	cpsid	i
}
 800070e:	bf00      	nop
  /* USER CODE BEGIN Error_Handler_Debug */
  /* User can add his own implementation to report the HAL error return state */
  __disable_irq();
  while (1)
 8000710:	e7fe      	b.n	8000710 <Error_Handler+0x8>
	...

08000714 <HAL_MspInit>:
/* USER CODE END 0 */
/**
  * Initializes the Global MSP.
  */
void HAL_MspInit(void)
{
 8000714:	b580      	push	{r7, lr}
 8000716:	b082      	sub	sp, #8
 8000718:	af00      	add	r7, sp, #0
  /* USER CODE BEGIN MspInit 0 */

  /* USER CODE END MspInit 0 */

  __HAL_RCC_SYSCFG_CLK_ENABLE();
 800071a:	2300      	movs	r3, #0
 800071c:	607b      	str	r3, [r7, #4]
 800071e:	4b10      	ldr	r3, [pc, #64]	; (8000760 <HAL_MspInit+0x4c>)
 8000720:	6c5b      	ldr	r3, [r3, #68]	; 0x44
 8000722:	4a0f      	ldr	r2, [pc, #60]	; (8000760 <HAL_MspInit+0x4c>)
 8000724:	f443 4380 	orr.w	r3, r3, #16384	; 0x4000
 8000728:	6453      	str	r3, [r2, #68]	; 0x44
 800072a:	4b0d      	ldr	r3, [pc, #52]	; (8000760 <HAL_MspInit+0x4c>)
 800072c:	6c5b      	ldr	r3, [r3, #68]	; 0x44
 800072e:	f403 4380 	and.w	r3, r3, #16384	; 0x4000
 8000732:	607b      	str	r3, [r7, #4]
 8000734:	687b      	ldr	r3, [r7, #4]
  __HAL_RCC_PWR_CLK_ENABLE();
 8000736:	2300      	movs	r3, #0
 8000738:	603b      	str	r3, [r7, #0]
 800073a:	4b09      	ldr	r3, [pc, #36]	; (8000760 <HAL_MspInit+0x4c>)
 800073c:	6c1b      	ldr	r3, [r3, #64]	; 0x40
 800073e:	4a08      	ldr	r2, [pc, #32]	; (8000760 <HAL_MspInit+0x4c>)
 8000740:	f043 5380 	orr.w	r3, r3, #268435456	; 0x10000000
 8000744:	6413      	str	r3, [r2, #64]	; 0x40
 8000746:	4b06      	ldr	r3, [pc, #24]	; (8000760 <HAL_MspInit+0x4c>)
 8000748:	6c1b      	ldr	r3, [r3, #64]	; 0x40
 800074a:	f003 5380 	and.w	r3, r3, #268435456	; 0x10000000
 800074e:	603b      	str	r3, [r7, #0]
 8000750:	683b      	ldr	r3, [r7, #0]

  HAL_NVIC_SetPriorityGrouping(NVIC_PRIORITYGROUP_0);
 8000752:	2007      	movs	r0, #7
 8000754:	f000 fe86 	bl	8001464 <HAL_NVIC_SetPriorityGrouping>
  /* System interrupt init*/

  /* USER CODE BEGIN MspInit 1 */

  /* USER CODE END MspInit 1 */
}
 8000758:	bf00      	nop
 800075a:	3708      	adds	r7, #8
 800075c:	46bd      	mov	sp, r7
 800075e:	bd80      	pop	{r7, pc}
 8000760:	40023800 	.word	0x40023800

08000764 <HAL_CAN_MspInit>:
* This function configures the hardware resources used in this example
* @param hcan: CAN handle pointer
* @retval None
*/
void HAL_CAN_MspInit(CAN_HandleTypeDef* hcan)
{
 8000764:	b580      	push	{r7, lr}
 8000766:	b08a      	sub	sp, #40	; 0x28
 8000768:	af00      	add	r7, sp, #0
 800076a:	6078      	str	r0, [r7, #4]
  GPIO_InitTypeDef GPIO_InitStruct = {0};
 800076c:	f107 0314 	add.w	r3, r7, #20
 8000770:	2200      	movs	r2, #0
 8000772:	601a      	str	r2, [r3, #0]
 8000774:	605a      	str	r2, [r3, #4]
 8000776:	609a      	str	r2, [r3, #8]
 8000778:	60da      	str	r2, [r3, #12]
 800077a:	611a      	str	r2, [r3, #16]
  if(hcan->Instance==CAN1)
 800077c:	687b      	ldr	r3, [r7, #4]
 800077e:	681b      	ldr	r3, [r3, #0]
 8000780:	4a1d      	ldr	r2, [pc, #116]	; (80007f8 <HAL_CAN_MspInit+0x94>)
 8000782:	4293      	cmp	r3, r2
 8000784:	d134      	bne.n	80007f0 <HAL_CAN_MspInit+0x8c>
  {
  /* USER CODE BEGIN CAN1_MspInit 0 */

  /* USER CODE END CAN1_MspInit 0 */
    /* Peripheral clock enable */
    __HAL_RCC_CAN1_CLK_ENABLE();
 8000786:	2300      	movs	r3, #0
 8000788:	613b      	str	r3, [r7, #16]
 800078a:	4b1c      	ldr	r3, [pc, #112]	; (80007fc <HAL_CAN_MspInit+0x98>)
 800078c:	6c1b      	ldr	r3, [r3, #64]	; 0x40
 800078e:	4a1b      	ldr	r2, [pc, #108]	; (80007fc <HAL_CAN_MspInit+0x98>)
 8000790:	f043 7300 	orr.w	r3, r3, #33554432	; 0x2000000
 8000794:	6413      	str	r3, [r2, #64]	; 0x40
 8000796:	4b19      	ldr	r3, [pc, #100]	; (80007fc <HAL_CAN_MspInit+0x98>)
 8000798:	6c1b      	ldr	r3, [r3, #64]	; 0x40
 800079a:	f003 7300 	and.w	r3, r3, #33554432	; 0x2000000
 800079e:	613b      	str	r3, [r7, #16]
 80007a0:	693b      	ldr	r3, [r7, #16]

    __HAL_RCC_GPIOB_CLK_ENABLE();
 80007a2:	2300      	movs	r3, #0
 80007a4:	60fb      	str	r3, [r7, #12]
 80007a6:	4b15      	ldr	r3, [pc, #84]	; (80007fc <HAL_CAN_MspInit+0x98>)
 80007a8:	6b1b      	ldr	r3, [r3, #48]	; 0x30
 80007aa:	4a14      	ldr	r2, [pc, #80]	; (80007fc <HAL_CAN_MspInit+0x98>)
 80007ac:	f043 0302 	orr.w	r3, r3, #2
 80007b0:	6313      	str	r3, [r2, #48]	; 0x30
 80007b2:	4b12      	ldr	r3, [pc, #72]	; (80007fc <HAL_CAN_MspInit+0x98>)
 80007b4:	6b1b      	ldr	r3, [r3, #48]	; 0x30
 80007b6:	f003 0302 	and.w	r3, r3, #2
 80007ba:	60fb      	str	r3, [r7, #12]
 80007bc:	68fb      	ldr	r3, [r7, #12]
    /**CAN1 GPIO Configuration
    PB8     ------> CAN1_RX
    PB9     ------> CAN1_TX
    */
    GPIO_InitStruct.Pin = GPIO_PIN_8|GPIO_PIN_9;
 80007be:	f44f 7340 	mov.w	r3, #768	; 0x300
 80007c2:	617b      	str	r3, [r7, #20]
    GPIO_InitStruct.Mode = GPIO_MODE_AF_PP;
 80007c4:	2302      	movs	r3, #2
 80007c6:	61bb      	str	r3, [r7, #24]
    GPIO_InitStruct.Pull = GPIO_NOPULL;
 80007c8:	2300      	movs	r3, #0
 80007ca:	61fb      	str	r3, [r7, #28]
    GPIO_InitStruct.Speed = GPIO_SPEED_FREQ_VERY_HIGH;
 80007cc:	2303      	movs	r3, #3
 80007ce:	623b      	str	r3, [r7, #32]
    GPIO_InitStruct.Alternate = GPIO_AF9_CAN1;
 80007d0:	2309      	movs	r3, #9
 80007d2:	627b      	str	r3, [r7, #36]	; 0x24
    HAL_GPIO_Init(GPIOB, &GPIO_InitStruct);
 80007d4:	f107 0314 	add.w	r3, r7, #20
 80007d8:	4619      	mov	r1, r3
 80007da:	4809      	ldr	r0, [pc, #36]	; (8000800 <HAL_CAN_MspInit+0x9c>)
 80007dc:	f000 fe84 	bl	80014e8 <HAL_GPIO_Init>

    /* CAN1 interrupt Init */
    HAL_NVIC_SetPriority(CAN1_RX0_IRQn, 0, 2);
 80007e0:	2202      	movs	r2, #2
 80007e2:	2100      	movs	r1, #0
 80007e4:	2014      	movs	r0, #20
 80007e6:	f000 fe48 	bl	800147a <HAL_NVIC_SetPriority>
    HAL_NVIC_EnableIRQ(CAN1_RX0_IRQn);
 80007ea:	2014      	movs	r0, #20
 80007ec:	f000 fe61 	bl	80014b2 <HAL_NVIC_EnableIRQ>
  /* USER CODE BEGIN CAN1_MspInit 1 */

  /* USER CODE END CAN1_MspInit 1 */
  }

}
 80007f0:	bf00      	nop
 80007f2:	3728      	adds	r7, #40	; 0x28
 80007f4:	46bd      	mov	sp, r7
 80007f6:	bd80      	pop	{r7, pc}
 80007f8:	40006400 	.word	0x40006400
 80007fc:	40023800 	.word	0x40023800
 8000800:	40020400 	.word	0x40020400

08000804 <NMI_Handler>:
/******************************************************************************/
/**
  * @brief This function handles Non maskable interrupt.
  */
void NMI_Handler(void)
{
 8000804:	b480      	push	{r7}
 8000806:	af00      	add	r7, sp, #0
  /* USER CODE BEGIN NonMaskableInt_IRQn 0 */

  /* USER CODE END NonMaskableInt_IRQn 0 */
  /* USER CODE BEGIN NonMaskableInt_IRQn 1 */
  while (1)
 8000808:	e7fe      	b.n	8000808 <NMI_Handler+0x4>

0800080a <HardFault_Handler>:

/**
  * @brief This function handles Hard fault interrupt.
  */
void HardFault_Handler(void)
{
 800080a:	b480      	push	{r7}
 800080c:	af00      	add	r7, sp, #0
  /* USER CODE BEGIN HardFault_IRQn 0 */

  /* USER CODE END HardFault_IRQn 0 */
  while (1)
 800080e:	e7fe      	b.n	800080e <HardFault_Handler+0x4>

08000810 <MemManage_Handler>:

/**
  * @brief This function handles Memory management fault.
  */
void MemManage_Handler(void)
{
 8000810:	b480      	push	{r7}
 8000812:	af00      	add	r7, sp, #0
  /* USER CODE BEGIN MemoryManagement_IRQn 0 */

  /* USER CODE END MemoryManagement_IRQn 0 */
  while (1)
 8000814:	e7fe      	b.n	8000814 <MemManage_Handler+0x4>

08000816 <BusFault_Handler>:

/**
  * @brief This function handles Pre-fetch fault, memory access fault.
  */
void BusFault_Handler(void)
{
 8000816:	b480      	push	{r7}
 8000818:	af00      	add	r7, sp, #0
  /* USER CODE BEGIN BusFault_IRQn 0 */

  /* USER CODE END BusFault_IRQn 0 */
  while (1)
 800081a:	e7fe      	b.n	800081a <BusFault_Handler+0x4>

0800081c <UsageFault_Handler>:

/**
  * @brief This function handles Undefined instruction or illegal state.
  */
void UsageFault_Handler(void)
{
 800081c:	b480      	push	{r7}
 800081e:	af00      	add	r7, sp, #0
  /* USER CODE BEGIN UsageFault_IRQn 0 */

  /* USER CODE END UsageFault_IRQn 0 */
  while (1)
 8000820:	e7fe      	b.n	8000820 <UsageFault_Handler+0x4>

08000822 <SVC_Handler>:

/**
  * @brief This function handles System service call via SWI instruction.
  */
void SVC_Handler(void)
{
 8000822:	b480      	push	{r7}
 8000824:	af00      	add	r7, sp, #0

  /* USER CODE END SVCall_IRQn 0 */
  /* USER CODE BEGIN SVCall_IRQn 1 */

  /* USER CODE END SVCall_IRQn 1 */
}
 8000826:	bf00      	nop
 8000828:	46bd      	mov	sp, r7
 800082a:	f85d 7b04 	ldr.w	r7, [sp], #4
 800082e:	4770      	bx	lr

08000830 <DebugMon_Handler>:

/**
  * @brief This function handles Debug monitor.
  */
void DebugMon_Handler(void)
{
 8000830:	b480      	push	{r7}
 8000832:	af00      	add	r7, sp, #0

  /* USER CODE END DebugMonitor_IRQn 0 */
  /* USER CODE BEGIN DebugMonitor_IRQn 1 */

  /* USER CODE END DebugMonitor_IRQn 1 */
}
 8000834:	bf00      	nop
 8000836:	46bd      	mov	sp, r7
 8000838:	f85d 7b04 	ldr.w	r7, [sp], #4
 800083c:	4770      	bx	lr

0800083e <PendSV_Handler>:

/**
  * @brief This function handles Pendable request for system service.
  */
void PendSV_Handler(void)
{
 800083e:	b480      	push	{r7}
 8000840:	af00      	add	r7, sp, #0

  /* USER CODE END PendSV_IRQn 0 */
  /* USER CODE BEGIN PendSV_IRQn 1 */

  /* USER CODE END PendSV_IRQn 1 */
}
 8000842:	bf00      	nop
 8000844:	46bd      	mov	sp, r7
 8000846:	f85d 7b04 	ldr.w	r7, [sp], #4
 800084a:	4770      	bx	lr

0800084c <SysTick_Handler>:

/**
  * @brief This function handles System tick timer.
  */
void SysTick_Handler(void)
{
 800084c:	b580      	push	{r7, lr}
 800084e:	af00      	add	r7, sp, #0
  /* USER CODE BEGIN SysTick_IRQn 0 */

  /* USER CODE END SysTick_IRQn 0 */
  HAL_IncTick();
 8000850:	f000 f89e 	bl	8000990 <HAL_IncTick>
  /* USER CODE BEGIN SysTick_IRQn 1 */

  /* USER CODE END SysTick_IRQn 1 */
}
 8000854:	bf00      	nop
 8000856:	bd80      	pop	{r7, pc}

08000858 <CAN1_RX0_IRQHandler>:

/**
  * @brief This function handles CAN1 RX0 interrupts.
  */
void CAN1_RX0_IRQHandler(void)
{
 8000858:	b580      	push	{r7, lr}
 800085a:	af00      	add	r7, sp, #0
  /* USER CODE BEGIN CAN1_RX0_IRQn 0 */

  /* USER CODE END CAN1_RX0_IRQn 0 */
  HAL_CAN_IRQHandler(&hcan1);
 800085c:	4803      	ldr	r0, [pc, #12]	; (800086c <CAN1_RX0_IRQHandler+0x14>)
 800085e:	f000 faf7 	bl	8000e50 <HAL_CAN_IRQHandler>
  /* USER CODE BEGIN CAN1_RX0_IRQn 1 */
  flag=1;
 8000862:	4b03      	ldr	r3, [pc, #12]	; (8000870 <CAN1_RX0_IRQHandler+0x18>)
 8000864:	2201      	movs	r2, #1
 8000866:	601a      	str	r2, [r3, #0]
  /* USER CODE END CAN1_RX0_IRQn 1 */
}
 8000868:	bf00      	nop
 800086a:	bd80      	pop	{r7, pc}
 800086c:	20000028 	.word	0x20000028
 8000870:	20000070 	.word	0x20000070

08000874 <SystemInit>:
  *         configuration.
  * @param  None
  * @retval None
  */
void SystemInit(void)
{
 8000874:	b480      	push	{r7}
 8000876:	af00      	add	r7, sp, #0
  /* FPU settings ------------------------------------------------------------*/
  #if (__FPU_PRESENT == 1) && (__FPU_USED == 1)
    SCB->CPACR |= ((3UL << 10*2)|(3UL << 11*2));  /* set CP10 and CP11 Full Access */
 8000878:	4b06      	ldr	r3, [pc, #24]	; (8000894 <SystemInit+0x20>)
 800087a:	f8d3 3088 	ldr.w	r3, [r3, #136]	; 0x88
 800087e:	4a05      	ldr	r2, [pc, #20]	; (8000894 <SystemInit+0x20>)
 8000880:	f443 0370 	orr.w	r3, r3, #15728640	; 0xf00000
 8000884:	f8c2 3088 	str.w	r3, [r2, #136]	; 0x88

  /* Configure the Vector Table location -------------------------------------*/
#if defined(USER_VECT_TAB_ADDRESS)
  SCB->VTOR = VECT_TAB_BASE_ADDRESS | VECT_TAB_OFFSET; /* Vector Table Relocation in Internal SRAM */
#endif /* USER_VECT_TAB_ADDRESS */
}
 8000888:	bf00      	nop
 800088a:	46bd      	mov	sp, r7
 800088c:	f85d 7b04 	ldr.w	r7, [sp], #4
 8000890:	4770      	bx	lr
 8000892:	bf00      	nop
 8000894:	e000ed00 	.word	0xe000ed00

08000898 <Reset_Handler>:
 8000898:	f8df d034 	ldr.w	sp, [pc, #52]	; 80008d0 <LoopFillZerobss+0x12>
 800089c:	480d      	ldr	r0, [pc, #52]	; (80008d4 <LoopFillZerobss+0x16>)
 800089e:	490e      	ldr	r1, [pc, #56]	; (80008d8 <LoopFillZerobss+0x1a>)
 80008a0:	4a0e      	ldr	r2, [pc, #56]	; (80008dc <LoopFillZerobss+0x1e>)
 80008a2:	2300      	movs	r3, #0
 80008a4:	e002      	b.n	80008ac <LoopCopyDataInit>

080008a6 <CopyDataInit>:
 80008a6:	58d4      	ldr	r4, [r2, r3]
 80008a8:	50c4      	str	r4, [r0, r3]
 80008aa:	3304      	adds	r3, #4

080008ac <LoopCopyDataInit>:
 80008ac:	18c4      	adds	r4, r0, r3
 80008ae:	428c      	cmp	r4, r1
 80008b0:	d3f9      	bcc.n	80008a6 <CopyDataInit>
 80008b2:	4a0b      	ldr	r2, [pc, #44]	; (80008e0 <LoopFillZerobss+0x22>)
 80008b4:	4c0b      	ldr	r4, [pc, #44]	; (80008e4 <LoopFillZerobss+0x26>)
 80008b6:	2300      	movs	r3, #0
 80008b8:	e001      	b.n	80008be <LoopFillZerobss>

080008ba <FillZerobss>:
 80008ba:	6013      	str	r3, [r2, #0]
 80008bc:	3204      	adds	r2, #4

080008be <LoopFillZerobss>:
 80008be:	42a2      	cmp	r2, r4
 80008c0:	d3fb      	bcc.n	80008ba <FillZerobss>
 80008c2:	f7ff ffd7 	bl	8000874 <SystemInit>
 80008c6:	f001 fc29 	bl	800211c <__libc_init_array>
 80008ca:	f7ff fdff 	bl	80004cc <main>
 80008ce:	4770      	bx	lr
 80008d0:	20020000 	.word	0x20020000
 80008d4:	20000000 	.word	0x20000000
 80008d8:	2000000c 	.word	0x2000000c
 80008dc:	080021ac 	.word	0x080021ac
 80008e0:	2000000c 	.word	0x2000000c
 80008e4:	20000078 	.word	0x20000078

080008e8 <ADC_IRQHandler>:
 80008e8:	e7fe      	b.n	80008e8 <ADC_IRQHandler>
	...

080008ec <HAL_Init>:
  *         need to ensure that the SysTick time base is always set to 1 millisecond
  *         to have correct HAL operation.
  * @retval HAL status
  */
HAL_StatusTypeDef HAL_Init(void)
{
 80008ec:	b580      	push	{r7, lr}
 80008ee:	af00      	add	r7, sp, #0
  /* Configure Flash prefetch, Instruction cache, Data cache */ 
#if (INSTRUCTION_CACHE_ENABLE != 0U)
  __HAL_FLASH_INSTRUCTION_CACHE_ENABLE();
 80008f0:	4b0e      	ldr	r3, [pc, #56]	; (800092c <HAL_Init+0x40>)
 80008f2:	681b      	ldr	r3, [r3, #0]
 80008f4:	4a0d      	ldr	r2, [pc, #52]	; (800092c <HAL_Init+0x40>)
 80008f6:	f443 7300 	orr.w	r3, r3, #512	; 0x200
 80008fa:	6013      	str	r3, [r2, #0]
#endif /* INSTRUCTION_CACHE_ENABLE */

#if (DATA_CACHE_ENABLE != 0U)
  __HAL_FLASH_DATA_CACHE_ENABLE();
 80008fc:	4b0b      	ldr	r3, [pc, #44]	; (800092c <HAL_Init+0x40>)
 80008fe:	681b      	ldr	r3, [r3, #0]
 8000900:	4a0a      	ldr	r2, [pc, #40]	; (800092c <HAL_Init+0x40>)
 8000902:	f443 6380 	orr.w	r3, r3, #1024	; 0x400
 8000906:	6013      	str	r3, [r2, #0]
#endif /* DATA_CACHE_ENABLE */

#if (PREFETCH_ENABLE != 0U)
  __HAL_FLASH_PREFETCH_BUFFER_ENABLE();
 8000908:	4b08      	ldr	r3, [pc, #32]	; (800092c <HAL_Init+0x40>)
 800090a:	681b      	ldr	r3, [r3, #0]
 800090c:	4a07      	ldr	r2, [pc, #28]	; (800092c <HAL_Init+0x40>)
 800090e:	f443 7380 	orr.w	r3, r3, #256	; 0x100
 8000912:	6013      	str	r3, [r2, #0]
#endif /* PREFETCH_ENABLE */

  /* Set Interrupt Group Priority */
  HAL_NVIC_SetPriorityGrouping(NVIC_PRIORITYGROUP_4);
 8000914:	2003      	movs	r0, #3
 8000916:	f000 fda5 	bl	8001464 <HAL_NVIC_SetPriorityGrouping>

  /* Use systick as time base source and configure 1ms tick (default clock after Reset is HSI) */
  HAL_InitTick(TICK_INT_PRIORITY);
 800091a:	2000      	movs	r0, #0
 800091c:	f000 f808 	bl	8000930 <HAL_InitTick>

  /* Init the low level hardware */
  HAL_MspInit();
 8000920:	f7ff fef8 	bl	8000714 <HAL_MspInit>

  /* Return function status */
  return HAL_OK;
 8000924:	2300      	movs	r3, #0
}
 8000926:	4618      	mov	r0, r3
 8000928:	bd80      	pop	{r7, pc}
 800092a:	bf00      	nop
 800092c:	40023c00 	.word	0x40023c00

08000930 <HAL_InitTick>:
  *       implementation  in user file.
  * @param TickPriority Tick interrupt priority.
  * @retval HAL status
  */
__weak HAL_StatusTypeDef HAL_InitTick(uint32_t TickPriority)
{
 8000930:	b580      	push	{r7, lr}
 8000932:	b082      	sub	sp, #8
 8000934:	af00      	add	r7, sp, #0
 8000936:	6078      	str	r0, [r7, #4]
  /* Configure the SysTick to have interrupt in 1ms time basis*/
  if (HAL_SYSTICK_Config(SystemCoreClock / (1000U / uwTickFreq)) > 0U)
 8000938:	4b12      	ldr	r3, [pc, #72]	; (8000984 <HAL_InitTick+0x54>)
 800093a:	681a      	ldr	r2, [r3, #0]
 800093c:	4b12      	ldr	r3, [pc, #72]	; (8000988 <HAL_InitTick+0x58>)
 800093e:	781b      	ldrb	r3, [r3, #0]
 8000940:	4619      	mov	r1, r3
 8000942:	f44f 737a 	mov.w	r3, #1000	; 0x3e8
 8000946:	fbb3 f3f1 	udiv	r3, r3, r1
 800094a:	fbb2 f3f3 	udiv	r3, r2, r3
 800094e:	4618      	mov	r0, r3
 8000950:	f000 fdbd 	bl	80014ce <HAL_SYSTICK_Config>
 8000954:	4603      	mov	r3, r0
 8000956:	2b00      	cmp	r3, #0
 8000958:	d001      	beq.n	800095e <HAL_InitTick+0x2e>
  {
    return HAL_ERROR;
 800095a:	2301      	movs	r3, #1
 800095c:	e00e      	b.n	800097c <HAL_InitTick+0x4c>
  }

  /* Configure the SysTick IRQ priority */
  if (TickPriority < (1UL << __NVIC_PRIO_BITS))
 800095e:	687b      	ldr	r3, [r7, #4]
 8000960:	2b0f      	cmp	r3, #15
 8000962:	d80a      	bhi.n	800097a <HAL_InitTick+0x4a>
  {
    HAL_NVIC_SetPriority(SysTick_IRQn, TickPriority, 0U);
 8000964:	2200      	movs	r2, #0
 8000966:	6879      	ldr	r1, [r7, #4]
 8000968:	f04f 30ff 	mov.w	r0, #4294967295
 800096c:	f000 fd85 	bl	800147a <HAL_NVIC_SetPriority>
    uwTickPrio = TickPriority;
 8000970:	4a06      	ldr	r2, [pc, #24]	; (800098c <HAL_InitTick+0x5c>)
 8000972:	687b      	ldr	r3, [r7, #4]
 8000974:	6013      	str	r3, [r2, #0]
  {
    return HAL_ERROR;
  }

  /* Return function status */
  return HAL_OK;
 8000976:	2300      	movs	r3, #0
 8000978:	e000      	b.n	800097c <HAL_InitTick+0x4c>
    return HAL_ERROR;
 800097a:	2301      	movs	r3, #1
}
 800097c:	4618      	mov	r0, r3
 800097e:	3708      	adds	r7, #8
 8000980:	46bd      	mov	sp, r7
 8000982:	bd80      	pop	{r7, pc}
 8000984:	20000000 	.word	0x20000000
 8000988:	20000008 	.word	0x20000008
 800098c:	20000004 	.word	0x20000004

08000990 <HAL_IncTick>:
 * @note This function is declared as __weak to be overwritten in case of other 
  *      implementations in user file.
  * @retval None
  */
__weak void HAL_IncTick(void)
{
 8000990:	b480      	push	{r7}
 8000992:	af00      	add	r7, sp, #0
  uwTick += uwTickFreq;
 8000994:	4b06      	ldr	r3, [pc, #24]	; (80009b0 <HAL_IncTick+0x20>)
 8000996:	781b      	ldrb	r3, [r3, #0]
 8000998:	461a      	mov	r2, r3
 800099a:	4b06      	ldr	r3, [pc, #24]	; (80009b4 <HAL_IncTick+0x24>)
 800099c:	681b      	ldr	r3, [r3, #0]
 800099e:	4413      	add	r3, r2
 80009a0:	4a04      	ldr	r2, [pc, #16]	; (80009b4 <HAL_IncTick+0x24>)
 80009a2:	6013      	str	r3, [r2, #0]
}
 80009a4:	bf00      	nop
 80009a6:	46bd      	mov	sp, r7
 80009a8:	f85d 7b04 	ldr.w	r7, [sp], #4
 80009ac:	4770      	bx	lr
 80009ae:	bf00      	nop
 80009b0:	20000008 	.word	0x20000008
 80009b4:	20000074 	.word	0x20000074

080009b8 <HAL_GetTick>:
  * @note This function is declared as __weak to be overwritten in case of other 
  *       implementations in user file.
  * @retval tick value
  */
__weak uint32_t HAL_GetTick(void)
{
 80009b8:	b480      	push	{r7}
 80009ba:	af00      	add	r7, sp, #0
  return uwTick;
 80009bc:	4b03      	ldr	r3, [pc, #12]	; (80009cc <HAL_GetTick+0x14>)
 80009be:	681b      	ldr	r3, [r3, #0]
}
 80009c0:	4618      	mov	r0, r3
 80009c2:	46bd      	mov	sp, r7
 80009c4:	f85d 7b04 	ldr.w	r7, [sp], #4
 80009c8:	4770      	bx	lr
 80009ca:	bf00      	nop
 80009cc:	20000074 	.word	0x20000074

080009d0 <HAL_CAN_Init>:
  * @param  hcan pointer to a CAN_HandleTypeDef structure that contains
  *         the configuration information for the specified CAN.
  * @retval HAL status
  */
HAL_StatusTypeDef HAL_CAN_Init(CAN_HandleTypeDef *hcan)
{
 80009d0:	b580      	push	{r7, lr}
 80009d2:	b084      	sub	sp, #16
 80009d4:	af00      	add	r7, sp, #0
 80009d6:	6078      	str	r0, [r7, #4]
  uint32_t tickstart;

  /* Check CAN handle */
  if (hcan == NULL)
 80009d8:	687b      	ldr	r3, [r7, #4]
 80009da:	2b00      	cmp	r3, #0
 80009dc:	d101      	bne.n	80009e2 <HAL_CAN_Init+0x12>
  {
    return HAL_ERROR;
 80009de:	2301      	movs	r3, #1
 80009e0:	e0ed      	b.n	8000bbe <HAL_CAN_Init+0x1ee>
    /* Init the low level hardware: CLOCK, NVIC */
    hcan->MspInitCallback(hcan);
  }

#else
  if (hcan->State == HAL_CAN_STATE_RESET)
 80009e2:	687b      	ldr	r3, [r7, #4]
 80009e4:	f893 3020 	ldrb.w	r3, [r3, #32]
 80009e8:	b2db      	uxtb	r3, r3
 80009ea:	2b00      	cmp	r3, #0
 80009ec:	d102      	bne.n	80009f4 <HAL_CAN_Init+0x24>
  {
    /* Init the low level hardware: CLOCK, NVIC */
    HAL_CAN_MspInit(hcan);
 80009ee:	6878      	ldr	r0, [r7, #4]
 80009f0:	f7ff feb8 	bl	8000764 <HAL_CAN_MspInit>
  }
#endif /* (USE_HAL_CAN_REGISTER_CALLBACKS) */

  /* Request initialisation */
  SET_BIT(hcan->Instance->MCR, CAN_MCR_INRQ);
 80009f4:	687b      	ldr	r3, [r7, #4]
 80009f6:	681b      	ldr	r3, [r3, #0]
 80009f8:	681a      	ldr	r2, [r3, #0]
 80009fa:	687b      	ldr	r3, [r7, #4]
 80009fc:	681b      	ldr	r3, [r3, #0]
 80009fe:	f042 0201 	orr.w	r2, r2, #1
 8000a02:	601a      	str	r2, [r3, #0]

  /* Get tick */
  tickstart = HAL_GetTick();
 8000a04:	f7ff ffd8 	bl	80009b8 <HAL_GetTick>
 8000a08:	60f8      	str	r0, [r7, #12]

  /* Wait initialisation acknowledge */
  while ((hcan->Instance->MSR & CAN_MSR_INAK) == 0U)
 8000a0a:	e012      	b.n	8000a32 <HAL_CAN_Init+0x62>
  {
    if ((HAL_GetTick() - tickstart) > CAN_TIMEOUT_VALUE)
 8000a0c:	f7ff ffd4 	bl	80009b8 <HAL_GetTick>
 8000a10:	4602      	mov	r2, r0
 8000a12:	68fb      	ldr	r3, [r7, #12]
 8000a14:	1ad3      	subs	r3, r2, r3
 8000a16:	2b0a      	cmp	r3, #10
 8000a18:	d90b      	bls.n	8000a32 <HAL_CAN_Init+0x62>
    {
      /* Update error code */
      hcan->ErrorCode |= HAL_CAN_ERROR_TIMEOUT;
 8000a1a:	687b      	ldr	r3, [r7, #4]
 8000a1c:	6a5b      	ldr	r3, [r3, #36]	; 0x24
 8000a1e:	f443 3200 	orr.w	r2, r3, #131072	; 0x20000
 8000a22:	687b      	ldr	r3, [r7, #4]
 8000a24:	625a      	str	r2, [r3, #36]	; 0x24

      /* Change CAN state */
      hcan->State = HAL_CAN_STATE_ERROR;
 8000a26:	687b      	ldr	r3, [r7, #4]
 8000a28:	2205      	movs	r2, #5
 8000a2a:	f883 2020 	strb.w	r2, [r3, #32]

      return HAL_ERROR;
 8000a2e:	2301      	movs	r3, #1
 8000a30:	e0c5      	b.n	8000bbe <HAL_CAN_Init+0x1ee>
  while ((hcan->Instance->MSR & CAN_MSR_INAK) == 0U)
 8000a32:	687b      	ldr	r3, [r7, #4]
 8000a34:	681b      	ldr	r3, [r3, #0]
 8000a36:	685b      	ldr	r3, [r3, #4]
 8000a38:	f003 0301 	and.w	r3, r3, #1
 8000a3c:	2b00      	cmp	r3, #0
 8000a3e:	d0e5      	beq.n	8000a0c <HAL_CAN_Init+0x3c>
    }
  }

  /* Exit from sleep mode */
  CLEAR_BIT(hcan->Instance->MCR, CAN_MCR_SLEEP);
 8000a40:	687b      	ldr	r3, [r7, #4]
 8000a42:	681b      	ldr	r3, [r3, #0]
 8000a44:	681a      	ldr	r2, [r3, #0]
 8000a46:	687b      	ldr	r3, [r7, #4]
 8000a48:	681b      	ldr	r3, [r3, #0]
 8000a4a:	f022 0202 	bic.w	r2, r2, #2
 8000a4e:	601a      	str	r2, [r3, #0]

  /* Get tick */
  tickstart = HAL_GetTick();
 8000a50:	f7ff ffb2 	bl	80009b8 <HAL_GetTick>
 8000a54:	60f8      	str	r0, [r7, #12]

  /* Check Sleep mode leave acknowledge */
  while ((hcan->Instance->MSR & CAN_MSR_SLAK) != 0U)
 8000a56:	e012      	b.n	8000a7e <HAL_CAN_Init+0xae>
  {
    if ((HAL_GetTick() - tickstart) > CAN_TIMEOUT_VALUE)
 8000a58:	f7ff ffae 	bl	80009b8 <HAL_GetTick>
 8000a5c:	4602      	mov	r2, r0
 8000a5e:	68fb      	ldr	r3, [r7, #12]
 8000a60:	1ad3      	subs	r3, r2, r3
 8000a62:	2b0a      	cmp	r3, #10
 8000a64:	d90b      	bls.n	8000a7e <HAL_CAN_Init+0xae>
    {
      /* Update error code */
      hcan->ErrorCode |= HAL_CAN_ERROR_TIMEOUT;
 8000a66:	687b      	ldr	r3, [r7, #4]
 8000a68:	6a5b      	ldr	r3, [r3, #36]	; 0x24
 8000a6a:	f443 3200 	orr.w	r2, r3, #131072	; 0x20000
 8000a6e:	687b      	ldr	r3, [r7, #4]
 8000a70:	625a      	str	r2, [r3, #36]	; 0x24

      /* Change CAN state */
      hcan->State = HAL_CAN_STATE_ERROR;
 8000a72:	687b      	ldr	r3, [r7, #4]
 8000a74:	2205      	movs	r2, #5
 8000a76:	f883 2020 	strb.w	r2, [r3, #32]

      return HAL_ERROR;
 8000a7a:	2301      	movs	r3, #1
 8000a7c:	e09f      	b.n	8000bbe <HAL_CAN_Init+0x1ee>
  while ((hcan->Instance->MSR & CAN_MSR_SLAK) != 0U)
 8000a7e:	687b      	ldr	r3, [r7, #4]
 8000a80:	681b      	ldr	r3, [r3, #0]
 8000a82:	685b      	ldr	r3, [r3, #4]
 8000a84:	f003 0302 	and.w	r3, r3, #2
 8000a88:	2b00      	cmp	r3, #0
 8000a8a:	d1e5      	bne.n	8000a58 <HAL_CAN_Init+0x88>
    }
  }

  /* Set the time triggered communication mode */
  if (hcan->Init.TimeTriggeredMode == ENABLE)
 8000a8c:	687b      	ldr	r3, [r7, #4]
 8000a8e:	7e1b      	ldrb	r3, [r3, #24]
 8000a90:	2b01      	cmp	r3, #1
 8000a92:	d108      	bne.n	8000aa6 <HAL_CAN_Init+0xd6>
  {
    SET_BIT(hcan->Instance->MCR, CAN_MCR_TTCM);
 8000a94:	687b      	ldr	r3, [r7, #4]
 8000a96:	681b      	ldr	r3, [r3, #0]
 8000a98:	681a      	ldr	r2, [r3, #0]
 8000a9a:	687b      	ldr	r3, [r7, #4]
 8000a9c:	681b      	ldr	r3, [r3, #0]
 8000a9e:	f042 0280 	orr.w	r2, r2, #128	; 0x80
 8000aa2:	601a      	str	r2, [r3, #0]
 8000aa4:	e007      	b.n	8000ab6 <HAL_CAN_Init+0xe6>
  }
  else
  {
    CLEAR_BIT(hcan->Instance->MCR, CAN_MCR_TTCM);
 8000aa6:	687b      	ldr	r3, [r7, #4]
 8000aa8:	681b      	ldr	r3, [r3, #0]
 8000aaa:	681a      	ldr	r2, [r3, #0]
 8000aac:	687b      	ldr	r3, [r7, #4]
 8000aae:	681b      	ldr	r3, [r3, #0]
 8000ab0:	f022 0280 	bic.w	r2, r2, #128	; 0x80
 8000ab4:	601a      	str	r2, [r3, #0]
  }

  /* Set the automatic bus-off management */
  if (hcan->Init.AutoBusOff == ENABLE)
 8000ab6:	687b      	ldr	r3, [r7, #4]
 8000ab8:	7e5b      	ldrb	r3, [r3, #25]
 8000aba:	2b01      	cmp	r3, #1
 8000abc:	d108      	bne.n	8000ad0 <HAL_CAN_Init+0x100>
  {
    SET_BIT(hcan->Instance->MCR, CAN_MCR_ABOM);
 8000abe:	687b      	ldr	r3, [r7, #4]
 8000ac0:	681b      	ldr	r3, [r3, #0]
 8000ac2:	681a      	ldr	r2, [r3, #0]
 8000ac4:	687b      	ldr	r3, [r7, #4]
 8000ac6:	681b      	ldr	r3, [r3, #0]
 8000ac8:	f042 0240 	orr.w	r2, r2, #64	; 0x40
 8000acc:	601a      	str	r2, [r3, #0]
 8000ace:	e007      	b.n	8000ae0 <HAL_CAN_Init+0x110>
  }
  else
  {
    CLEAR_BIT(hcan->Instance->MCR, CAN_MCR_ABOM);
 8000ad0:	687b      	ldr	r3, [r7, #4]
 8000ad2:	681b      	ldr	r3, [r3, #0]
 8000ad4:	681a      	ldr	r2, [r3, #0]
 8000ad6:	687b      	ldr	r3, [r7, #4]
 8000ad8:	681b      	ldr	r3, [r3, #0]
 8000ada:	f022 0240 	bic.w	r2, r2, #64	; 0x40
 8000ade:	601a      	str	r2, [r3, #0]
  }

  /* Set the automatic wake-up mode */
  if (hcan->Init.AutoWakeUp == ENABLE)
 8000ae0:	687b      	ldr	r3, [r7, #4]
 8000ae2:	7e9b      	ldrb	r3, [r3, #26]
 8000ae4:	2b01      	cmp	r3, #1
 8000ae6:	d108      	bne.n	8000afa <HAL_CAN_Init+0x12a>
  {
    SET_BIT(hcan->Instance->MCR, CAN_MCR_AWUM);
 8000ae8:	687b      	ldr	r3, [r7, #4]
 8000aea:	681b      	ldr	r3, [r3, #0]
 8000aec:	681a      	ldr	r2, [r3, #0]
 8000aee:	687b      	ldr	r3, [r7, #4]
 8000af0:	681b      	ldr	r3, [r3, #0]
 8000af2:	f042 0220 	orr.w	r2, r2, #32
 8000af6:	601a      	str	r2, [r3, #0]
 8000af8:	e007      	b.n	8000b0a <HAL_CAN_Init+0x13a>
  }
  else
  {
    CLEAR_BIT(hcan->Instance->MCR, CAN_MCR_AWUM);
 8000afa:	687b      	ldr	r3, [r7, #4]
 8000afc:	681b      	ldr	r3, [r3, #0]
 8000afe:	681a      	ldr	r2, [r3, #0]
 8000b00:	687b      	ldr	r3, [r7, #4]
 8000b02:	681b      	ldr	r3, [r3, #0]
 8000b04:	f022 0220 	bic.w	r2, r2, #32
 8000b08:	601a      	str	r2, [r3, #0]
  }

  /* Set the automatic retransmission */
  if (hcan->Init.AutoRetransmission == ENABLE)
 8000b0a:	687b      	ldr	r3, [r7, #4]
 8000b0c:	7edb      	ldrb	r3, [r3, #27]
 8000b0e:	2b01      	cmp	r3, #1
 8000b10:	d108      	bne.n	8000b24 <HAL_CAN_Init+0x154>
  {
    CLEAR_BIT(hcan->Instance->MCR, CAN_MCR_NART);
 8000b12:	687b      	ldr	r3, [r7, #4]
 8000b14:	681b      	ldr	r3, [r3, #0]
 8000b16:	681a      	ldr	r2, [r3, #0]
 8000b18:	687b      	ldr	r3, [r7, #4]
 8000b1a:	681b      	ldr	r3, [r3, #0]
 8000b1c:	f022 0210 	bic.w	r2, r2, #16
 8000b20:	601a      	str	r2, [r3, #0]
 8000b22:	e007      	b.n	8000b34 <HAL_CAN_Init+0x164>
  }
  else
  {
    SET_BIT(hcan->Instance->MCR, CAN_MCR_NART);
 8000b24:	687b      	ldr	r3, [r7, #4]
 8000b26:	681b      	ldr	r3, [r3, #0]
 8000b28:	681a      	ldr	r2, [r3, #0]
 8000b2a:	687b      	ldr	r3, [r7, #4]
 8000b2c:	681b      	ldr	r3, [r3, #0]
 8000b2e:	f042 0210 	orr.w	r2, r2, #16
 8000b32:	601a      	str	r2, [r3, #0]
  }

  /* Set the receive FIFO locked mode */
  if (hcan->Init.ReceiveFifoLocked == ENABLE)
 8000b34:	687b      	ldr	r3, [r7, #4]
 8000b36:	7f1b      	ldrb	r3, [r3, #28]
 8000b38:	2b01      	cmp	r3, #1
 8000b3a:	d108      	bne.n	8000b4e <HAL_CAN_Init+0x17e>
  {
    SET_BIT(hcan->Instance->MCR, CAN_MCR_RFLM);
 8000b3c:	687b      	ldr	r3, [r7, #4]
 8000b3e:	681b      	ldr	r3, [r3, #0]
 8000b40:	681a      	ldr	r2, [r3, #0]
 8000b42:	687b      	ldr	r3, [r7, #4]
 8000b44:	681b      	ldr	r3, [r3, #0]
 8000b46:	f042 0208 	orr.w	r2, r2, #8
 8000b4a:	601a      	str	r2, [r3, #0]
 8000b4c:	e007      	b.n	8000b5e <HAL_CAN_Init+0x18e>
  }
  else
  {
    CLEAR_BIT(hcan->Instance->MCR, CAN_MCR_RFLM);
 8000b4e:	687b      	ldr	r3, [r7, #4]
 8000b50:	681b      	ldr	r3, [r3, #0]
 8000b52:	681a      	ldr	r2, [r3, #0]
 8000b54:	687b      	ldr	r3, [r7, #4]
 8000b56:	681b      	ldr	r3, [r3, #0]
 8000b58:	f022 0208 	bic.w	r2, r2, #8
 8000b5c:	601a      	str	r2, [r3, #0]
  }

  /* Set the transmit FIFO priority */
  if (hcan->Init.TransmitFifoPriority == ENABLE)
 8000b5e:	687b      	ldr	r3, [r7, #4]
 8000b60:	7f5b      	ldrb	r3, [r3, #29]
 8000b62:	2b01      	cmp	r3, #1
 8000b64:	d108      	bne.n	8000b78 <HAL_CAN_Init+0x1a8>
  {
    SET_BIT(hcan->Instance->MCR, CAN_MCR_TXFP);
 8000b66:	687b      	ldr	r3, [r7, #4]
 8000b68:	681b      	ldr	r3, [r3, #0]
 8000b6a:	681a      	ldr	r2, [r3, #0]
 8000b6c:	687b      	ldr	r3, [r7, #4]
 8000b6e:	681b      	ldr	r3, [r3, #0]
 8000b70:	f042 0204 	orr.w	r2, r2, #4
 8000b74:	601a      	str	r2, [r3, #0]
 8000b76:	e007      	b.n	8000b88 <HAL_CAN_Init+0x1b8>
  }
  else
  {
    CLEAR_BIT(hcan->Instance->MCR, CAN_MCR_TXFP);
 8000b78:	687b      	ldr	r3, [r7, #4]
 8000b7a:	681b      	ldr	r3, [r3, #0]
 8000b7c:	681a      	ldr	r2, [r3, #0]
 8000b7e:	687b      	ldr	r3, [r7, #4]
 8000b80:	681b      	ldr	r3, [r3, #0]
 8000b82:	f022 0204 	bic.w	r2, r2, #4
 8000b86:	601a      	str	r2, [r3, #0]
  }

  /* Set the bit timing register */
  WRITE_REG(hcan->Instance->BTR, (uint32_t)(hcan->Init.Mode           |
 8000b88:	687b      	ldr	r3, [r7, #4]
 8000b8a:	689a      	ldr	r2, [r3, #8]
 8000b8c:	687b      	ldr	r3, [r7, #4]
 8000b8e:	68db      	ldr	r3, [r3, #12]
 8000b90:	431a      	orrs	r2, r3
 8000b92:	687b      	ldr	r3, [r7, #4]
 8000b94:	691b      	ldr	r3, [r3, #16]
 8000b96:	431a      	orrs	r2, r3
 8000b98:	687b      	ldr	r3, [r7, #4]
 8000b9a:	695b      	ldr	r3, [r3, #20]
 8000b9c:	ea42 0103 	orr.w	r1, r2, r3
 8000ba0:	687b      	ldr	r3, [r7, #4]
 8000ba2:	685b      	ldr	r3, [r3, #4]
 8000ba4:	1e5a      	subs	r2, r3, #1
 8000ba6:	687b      	ldr	r3, [r7, #4]
 8000ba8:	681b      	ldr	r3, [r3, #0]
 8000baa:	430a      	orrs	r2, r1
 8000bac:	61da      	str	r2, [r3, #28]
                                            hcan->Init.TimeSeg1       |
                                            hcan->Init.TimeSeg2       |
                                            (hcan->Init.Prescaler - 1U)));

  /* Initialize the error code */
  hcan->ErrorCode = HAL_CAN_ERROR_NONE;
 8000bae:	687b      	ldr	r3, [r7, #4]
 8000bb0:	2200      	movs	r2, #0
 8000bb2:	625a      	str	r2, [r3, #36]	; 0x24

  /* Initialize the CAN state */
  hcan->State = HAL_CAN_STATE_READY;
 8000bb4:	687b      	ldr	r3, [r7, #4]
 8000bb6:	2201      	movs	r2, #1
 8000bb8:	f883 2020 	strb.w	r2, [r3, #32]

  /* Return function status */
  return HAL_OK;
 8000bbc:	2300      	movs	r3, #0
}
 8000bbe:	4618      	mov	r0, r3
 8000bc0:	3710      	adds	r7, #16
 8000bc2:	46bd      	mov	sp, r7
 8000bc4:	bd80      	pop	{r7, pc}

08000bc6 <HAL_CAN_Start>:
  * @param  hcan pointer to an CAN_HandleTypeDef structure that contains
  *         the configuration information for the specified CAN.
  * @retval HAL status
  */
HAL_StatusTypeDef HAL_CAN_Start(CAN_HandleTypeDef *hcan)
{
 8000bc6:	b580      	push	{r7, lr}
 8000bc8:	b084      	sub	sp, #16
 8000bca:	af00      	add	r7, sp, #0
 8000bcc:	6078      	str	r0, [r7, #4]
  uint32_t tickstart;

  if (hcan->State == HAL_CAN_STATE_READY)
 8000bce:	687b      	ldr	r3, [r7, #4]
 8000bd0:	f893 3020 	ldrb.w	r3, [r3, #32]
 8000bd4:	b2db      	uxtb	r3, r3
 8000bd6:	2b01      	cmp	r3, #1
 8000bd8:	d12e      	bne.n	8000c38 <HAL_CAN_Start+0x72>
  {
    /* Change CAN peripheral state */
    hcan->State = HAL_CAN_STATE_LISTENING;
 8000bda:	687b      	ldr	r3, [r7, #4]
 8000bdc:	2202      	movs	r2, #2
 8000bde:	f883 2020 	strb.w	r2, [r3, #32]

    /* Request leave initialisation */
    CLEAR_BIT(hcan->Instance->MCR, CAN_MCR_INRQ);
 8000be2:	687b      	ldr	r3, [r7, #4]
 8000be4:	681b      	ldr	r3, [r3, #0]
 8000be6:	681a      	ldr	r2, [r3, #0]
 8000be8:	687b      	ldr	r3, [r7, #4]
 8000bea:	681b      	ldr	r3, [r3, #0]
 8000bec:	f022 0201 	bic.w	r2, r2, #1
 8000bf0:	601a      	str	r2, [r3, #0]

    /* Get tick */
    tickstart = HAL_GetTick();
 8000bf2:	f7ff fee1 	bl	80009b8 <HAL_GetTick>
 8000bf6:	60f8      	str	r0, [r7, #12]

    /* Wait the acknowledge */
    while ((hcan->Instance->MSR & CAN_MSR_INAK) != 0U)
 8000bf8:	e012      	b.n	8000c20 <HAL_CAN_Start+0x5a>
    {
      /* Check for the Timeout */
      if ((HAL_GetTick() - tickstart) > CAN_TIMEOUT_VALUE)
 8000bfa:	f7ff fedd 	bl	80009b8 <HAL_GetTick>
 8000bfe:	4602      	mov	r2, r0
 8000c00:	68fb      	ldr	r3, [r7, #12]
 8000c02:	1ad3      	subs	r3, r2, r3
 8000c04:	2b0a      	cmp	r3, #10
 8000c06:	d90b      	bls.n	8000c20 <HAL_CAN_Start+0x5a>
      {
        /* Update error code */
        hcan->ErrorCode |= HAL_CAN_ERROR_TIMEOUT;
 8000c08:	687b      	ldr	r3, [r7, #4]
 8000c0a:	6a5b      	ldr	r3, [r3, #36]	; 0x24
 8000c0c:	f443 3200 	orr.w	r2, r3, #131072	; 0x20000
 8000c10:	687b      	ldr	r3, [r7, #4]
 8000c12:	625a      	str	r2, [r3, #36]	; 0x24

        /* Change CAN state */
        hcan->State = HAL_CAN_STATE_ERROR;
 8000c14:	687b      	ldr	r3, [r7, #4]
 8000c16:	2205      	movs	r2, #5
 8000c18:	f883 2020 	strb.w	r2, [r3, #32]

        return HAL_ERROR;
 8000c1c:	2301      	movs	r3, #1
 8000c1e:	e012      	b.n	8000c46 <HAL_CAN_Start+0x80>
    while ((hcan->Instance->MSR & CAN_MSR_INAK) != 0U)
 8000c20:	687b      	ldr	r3, [r7, #4]
 8000c22:	681b      	ldr	r3, [r3, #0]
 8000c24:	685b      	ldr	r3, [r3, #4]
 8000c26:	f003 0301 	and.w	r3, r3, #1
 8000c2a:	2b00      	cmp	r3, #0
 8000c2c:	d1e5      	bne.n	8000bfa <HAL_CAN_Start+0x34>
      }
    }

    /* Reset the CAN ErrorCode */
    hcan->ErrorCode = HAL_CAN_ERROR_NONE;
 8000c2e:	687b      	ldr	r3, [r7, #4]
 8000c30:	2200      	movs	r2, #0
 8000c32:	625a      	str	r2, [r3, #36]	; 0x24

    /* Return function status */
    return HAL_OK;
 8000c34:	2300      	movs	r3, #0
 8000c36:	e006      	b.n	8000c46 <HAL_CAN_Start+0x80>
  }
  else
  {
    /* Update error code */
    hcan->ErrorCode |= HAL_CAN_ERROR_NOT_READY;
 8000c38:	687b      	ldr	r3, [r7, #4]
 8000c3a:	6a5b      	ldr	r3, [r3, #36]	; 0x24
 8000c3c:	f443 2200 	orr.w	r2, r3, #524288	; 0x80000
 8000c40:	687b      	ldr	r3, [r7, #4]
 8000c42:	625a      	str	r2, [r3, #36]	; 0x24

    return HAL_ERROR;
 8000c44:	2301      	movs	r3, #1
  }
}
 8000c46:	4618      	mov	r0, r3
 8000c48:	3710      	adds	r7, #16
 8000c4a:	46bd      	mov	sp, r7
 8000c4c:	bd80      	pop	{r7, pc}

08000c4e <HAL_CAN_AddTxMessage>:
  *         the TxMailbox used to store the Tx message.
  *         This parameter can be a value of @arg CAN_Tx_Mailboxes.
  * @retval HAL status
  */
HAL_StatusTypeDef HAL_CAN_AddTxMessage(CAN_HandleTypeDef *hcan, CAN_TxHeaderTypeDef *pHeader, uint8_t aData[], uint32_t *pTxMailbox)
{
 8000c4e:	b480      	push	{r7}
 8000c50:	b089      	sub	sp, #36	; 0x24
 8000c52:	af00      	add	r7, sp, #0
 8000c54:	60f8      	str	r0, [r7, #12]
 8000c56:	60b9      	str	r1, [r7, #8]
 8000c58:	607a      	str	r2, [r7, #4]
 8000c5a:	603b      	str	r3, [r7, #0]
  uint32_t transmitmailbox;
  HAL_CAN_StateTypeDef state = hcan->State;
 8000c5c:	68fb      	ldr	r3, [r7, #12]
 8000c5e:	f893 3020 	ldrb.w	r3, [r3, #32]
 8000c62:	77fb      	strb	r3, [r7, #31]
  uint32_t tsr = READ_REG(hcan->Instance->TSR);
 8000c64:	68fb      	ldr	r3, [r7, #12]
 8000c66:	681b      	ldr	r3, [r3, #0]
 8000c68:	689b      	ldr	r3, [r3, #8]
 8000c6a:	61bb      	str	r3, [r7, #24]
  {
    assert_param(IS_CAN_EXTID(pHeader->ExtId));
  }
  assert_param(IS_FUNCTIONAL_STATE(pHeader->TransmitGlobalTime));

  if ((state == HAL_CAN_STATE_READY) ||
 8000c6c:	7ffb      	ldrb	r3, [r7, #31]
 8000c6e:	2b01      	cmp	r3, #1
 8000c70:	d003      	beq.n	8000c7a <HAL_CAN_AddTxMessage+0x2c>
 8000c72:	7ffb      	ldrb	r3, [r7, #31]
 8000c74:	2b02      	cmp	r3, #2
 8000c76:	f040 80b8 	bne.w	8000dea <HAL_CAN_AddTxMessage+0x19c>
      (state == HAL_CAN_STATE_LISTENING))
  {
    /* Check that all the Tx mailboxes are not full */
    if (((tsr & CAN_TSR_TME0) != 0U) ||
 8000c7a:	69bb      	ldr	r3, [r7, #24]
 8000c7c:	f003 6380 	and.w	r3, r3, #67108864	; 0x4000000
 8000c80:	2b00      	cmp	r3, #0
 8000c82:	d10a      	bne.n	8000c9a <HAL_CAN_AddTxMessage+0x4c>
        ((tsr & CAN_TSR_TME1) != 0U) ||
 8000c84:	69bb      	ldr	r3, [r7, #24]
 8000c86:	f003 6300 	and.w	r3, r3, #134217728	; 0x8000000
    if (((tsr & CAN_TSR_TME0) != 0U) ||
 8000c8a:	2b00      	cmp	r3, #0
 8000c8c:	d105      	bne.n	8000c9a <HAL_CAN_AddTxMessage+0x4c>
        ((tsr & CAN_TSR_TME2) != 0U))
 8000c8e:	69bb      	ldr	r3, [r7, #24]
 8000c90:	f003 5380 	and.w	r3, r3, #268435456	; 0x10000000
        ((tsr & CAN_TSR_TME1) != 0U) ||
 8000c94:	2b00      	cmp	r3, #0
 8000c96:	f000 80a0 	beq.w	8000dda <HAL_CAN_AddTxMessage+0x18c>
    {
      /* Select an empty transmit mailbox */
      transmitmailbox = (tsr & CAN_TSR_CODE) >> CAN_TSR_CODE_Pos;
 8000c9a:	69bb      	ldr	r3, [r7, #24]
 8000c9c:	0e1b      	lsrs	r3, r3, #24
 8000c9e:	f003 0303 	and.w	r3, r3, #3
 8000ca2:	617b      	str	r3, [r7, #20]

      /* Check transmit mailbox value */
      if (transmitmailbox > 2U)
 8000ca4:	697b      	ldr	r3, [r7, #20]
 8000ca6:	2b02      	cmp	r3, #2
 8000ca8:	d907      	bls.n	8000cba <HAL_CAN_AddTxMessage+0x6c>
      {
        /* Update error code */
        hcan->ErrorCode |= HAL_CAN_ERROR_INTERNAL;
 8000caa:	68fb      	ldr	r3, [r7, #12]
 8000cac:	6a5b      	ldr	r3, [r3, #36]	; 0x24
 8000cae:	f443 0200 	orr.w	r2, r3, #8388608	; 0x800000
 8000cb2:	68fb      	ldr	r3, [r7, #12]
 8000cb4:	625a      	str	r2, [r3, #36]	; 0x24

        return HAL_ERROR;
 8000cb6:	2301      	movs	r3, #1
 8000cb8:	e09e      	b.n	8000df8 <HAL_CAN_AddTxMessage+0x1aa>
      }

      /* Store the Tx mailbox */
      *pTxMailbox = (uint32_t)1 << transmitmailbox;
 8000cba:	2201      	movs	r2, #1
 8000cbc:	697b      	ldr	r3, [r7, #20]
 8000cbe:	409a      	lsls	r2, r3
 8000cc0:	683b      	ldr	r3, [r7, #0]
 8000cc2:	601a      	str	r2, [r3, #0]

      /* Set up the Id */
      if (pHeader->IDE == CAN_ID_STD)
 8000cc4:	68bb      	ldr	r3, [r7, #8]
 8000cc6:	689b      	ldr	r3, [r3, #8]
 8000cc8:	2b00      	cmp	r3, #0
 8000cca:	d10d      	bne.n	8000ce8 <HAL_CAN_AddTxMessage+0x9a>
      {
        hcan->Instance->sTxMailBox[transmitmailbox].TIR = ((pHeader->StdId << CAN_TI0R_STID_Pos) |
 8000ccc:	68bb      	ldr	r3, [r7, #8]
 8000cce:	681b      	ldr	r3, [r3, #0]
 8000cd0:	055a      	lsls	r2, r3, #21
                                                           pHeader->RTR);
 8000cd2:	68bb      	ldr	r3, [r7, #8]
 8000cd4:	68db      	ldr	r3, [r3, #12]
        hcan->Instance->sTxMailBox[transmitmailbox].TIR = ((pHeader->StdId << CAN_TI0R_STID_Pos) |
 8000cd6:	68f9      	ldr	r1, [r7, #12]
 8000cd8:	6809      	ldr	r1, [r1, #0]
 8000cda:	431a      	orrs	r2, r3
 8000cdc:	697b      	ldr	r3, [r7, #20]
 8000cde:	3318      	adds	r3, #24
 8000ce0:	011b      	lsls	r3, r3, #4
 8000ce2:	440b      	add	r3, r1
 8000ce4:	601a      	str	r2, [r3, #0]
 8000ce6:	e00f      	b.n	8000d08 <HAL_CAN_AddTxMessage+0xba>
      }
      else
      {
        hcan->Instance->sTxMailBox[transmitmailbox].TIR = ((pHeader->ExtId << CAN_TI0R_EXID_Pos) |
 8000ce8:	68bb      	ldr	r3, [r7, #8]
 8000cea:	685b      	ldr	r3, [r3, #4]
 8000cec:	00da      	lsls	r2, r3, #3
                                                           pHeader->IDE |
 8000cee:	68bb      	ldr	r3, [r7, #8]
 8000cf0:	689b      	ldr	r3, [r3, #8]
        hcan->Instance->sTxMailBox[transmitmailbox].TIR = ((pHeader->ExtId << CAN_TI0R_EXID_Pos) |
 8000cf2:	431a      	orrs	r2, r3
                                                           pHeader->RTR);
 8000cf4:	68bb      	ldr	r3, [r7, #8]
 8000cf6:	68db      	ldr	r3, [r3, #12]
        hcan->Instance->sTxMailBox[transmitmailbox].TIR = ((pHeader->ExtId << CAN_TI0R_EXID_Pos) |
 8000cf8:	68f9      	ldr	r1, [r7, #12]
 8000cfa:	6809      	ldr	r1, [r1, #0]
                                                           pHeader->IDE |
 8000cfc:	431a      	orrs	r2, r3
        hcan->Instance->sTxMailBox[transmitmailbox].TIR = ((pHeader->ExtId << CAN_TI0R_EXID_Pos) |
 8000cfe:	697b      	ldr	r3, [r7, #20]
 8000d00:	3318      	adds	r3, #24
 8000d02:	011b      	lsls	r3, r3, #4
 8000d04:	440b      	add	r3, r1
 8000d06:	601a      	str	r2, [r3, #0]
      }

      /* Set up the DLC */
      hcan->Instance->sTxMailBox[transmitmailbox].TDTR = (pHeader->DLC);
 8000d08:	68fb      	ldr	r3, [r7, #12]
 8000d0a:	6819      	ldr	r1, [r3, #0]
 8000d0c:	68bb      	ldr	r3, [r7, #8]
 8000d0e:	691a      	ldr	r2, [r3, #16]
 8000d10:	697b      	ldr	r3, [r7, #20]
 8000d12:	3318      	adds	r3, #24
 8000d14:	011b      	lsls	r3, r3, #4
 8000d16:	440b      	add	r3, r1
 8000d18:	3304      	adds	r3, #4
 8000d1a:	601a      	str	r2, [r3, #0]

      /* Set up the Transmit Global Time mode */
      if (pHeader->TransmitGlobalTime == ENABLE)
 8000d1c:	68bb      	ldr	r3, [r7, #8]
 8000d1e:	7d1b      	ldrb	r3, [r3, #20]
 8000d20:	2b01      	cmp	r3, #1
 8000d22:	d111      	bne.n	8000d48 <HAL_CAN_AddTxMessage+0xfa>
      {
        SET_BIT(hcan->Instance->sTxMailBox[transmitmailbox].TDTR, CAN_TDT0R_TGT);
 8000d24:	68fb      	ldr	r3, [r7, #12]
 8000d26:	681a      	ldr	r2, [r3, #0]
 8000d28:	697b      	ldr	r3, [r7, #20]
 8000d2a:	3318      	adds	r3, #24
 8000d2c:	011b      	lsls	r3, r3, #4
 8000d2e:	4413      	add	r3, r2
 8000d30:	3304      	adds	r3, #4
 8000d32:	681b      	ldr	r3, [r3, #0]
 8000d34:	68fa      	ldr	r2, [r7, #12]
 8000d36:	6811      	ldr	r1, [r2, #0]
 8000d38:	f443 7280 	orr.w	r2, r3, #256	; 0x100
 8000d3c:	697b      	ldr	r3, [r7, #20]
 8000d3e:	3318      	adds	r3, #24
 8000d40:	011b      	lsls	r3, r3, #4
 8000d42:	440b      	add	r3, r1
 8000d44:	3304      	adds	r3, #4
 8000d46:	601a      	str	r2, [r3, #0]
      }

      /* Set up the data field */
      WRITE_REG(hcan->Instance->sTxMailBox[transmitmailbox].TDHR,
 8000d48:	687b      	ldr	r3, [r7, #4]
 8000d4a:	3307      	adds	r3, #7
 8000d4c:	781b      	ldrb	r3, [r3, #0]
 8000d4e:	061a      	lsls	r2, r3, #24
 8000d50:	687b      	ldr	r3, [r7, #4]
 8000d52:	3306      	adds	r3, #6
 8000d54:	781b      	ldrb	r3, [r3, #0]
 8000d56:	041b      	lsls	r3, r3, #16
 8000d58:	431a      	orrs	r2, r3
 8000d5a:	687b      	ldr	r3, [r7, #4]
 8000d5c:	3305      	adds	r3, #5
 8000d5e:	781b      	ldrb	r3, [r3, #0]
 8000d60:	021b      	lsls	r3, r3, #8
 8000d62:	4313      	orrs	r3, r2
 8000d64:	687a      	ldr	r2, [r7, #4]
 8000d66:	3204      	adds	r2, #4
 8000d68:	7812      	ldrb	r2, [r2, #0]
 8000d6a:	4610      	mov	r0, r2
 8000d6c:	68fa      	ldr	r2, [r7, #12]
 8000d6e:	6811      	ldr	r1, [r2, #0]
 8000d70:	ea43 0200 	orr.w	r2, r3, r0
 8000d74:	697b      	ldr	r3, [r7, #20]
 8000d76:	011b      	lsls	r3, r3, #4
 8000d78:	440b      	add	r3, r1
 8000d7a:	f503 73c6 	add.w	r3, r3, #396	; 0x18c
 8000d7e:	601a      	str	r2, [r3, #0]
                ((uint32_t)aData[7] << CAN_TDH0R_DATA7_Pos) |
                ((uint32_t)aData[6] << CAN_TDH0R_DATA6_Pos) |
                ((uint32_t)aData[5] << CAN_TDH0R_DATA5_Pos) |
                ((uint32_t)aData[4] << CAN_TDH0R_DATA4_Pos));
      WRITE_REG(hcan->Instance->sTxMailBox[transmitmailbox].TDLR,
 8000d80:	687b      	ldr	r3, [r7, #4]
 8000d82:	3303      	adds	r3, #3
 8000d84:	781b      	ldrb	r3, [r3, #0]
 8000d86:	061a      	lsls	r2, r3, #24
 8000d88:	687b      	ldr	r3, [r7, #4]
 8000d8a:	3302      	adds	r3, #2
 8000d8c:	781b      	ldrb	r3, [r3, #0]
 8000d8e:	041b      	lsls	r3, r3, #16
 8000d90:	431a      	orrs	r2, r3
 8000d92:	687b      	ldr	r3, [r7, #4]
 8000d94:	3301      	adds	r3, #1
 8000d96:	781b      	ldrb	r3, [r3, #0]
 8000d98:	021b      	lsls	r3, r3, #8
 8000d9a:	4313      	orrs	r3, r2
 8000d9c:	687a      	ldr	r2, [r7, #4]
 8000d9e:	7812      	ldrb	r2, [r2, #0]
 8000da0:	4610      	mov	r0, r2
 8000da2:	68fa      	ldr	r2, [r7, #12]
 8000da4:	6811      	ldr	r1, [r2, #0]
 8000da6:	ea43 0200 	orr.w	r2, r3, r0
 8000daa:	697b      	ldr	r3, [r7, #20]
 8000dac:	011b      	lsls	r3, r3, #4
 8000dae:	440b      	add	r3, r1
 8000db0:	f503 73c4 	add.w	r3, r3, #392	; 0x188
 8000db4:	601a      	str	r2, [r3, #0]
                ((uint32_t)aData[2] << CAN_TDL0R_DATA2_Pos) |
                ((uint32_t)aData[1] << CAN_TDL0R_DATA1_Pos) |
                ((uint32_t)aData[0] << CAN_TDL0R_DATA0_Pos));

      /* Request transmission */
      SET_BIT(hcan->Instance->sTxMailBox[transmitmailbox].TIR, CAN_TI0R_TXRQ);
 8000db6:	68fb      	ldr	r3, [r7, #12]
 8000db8:	681a      	ldr	r2, [r3, #0]
 8000dba:	697b      	ldr	r3, [r7, #20]
 8000dbc:	3318      	adds	r3, #24
 8000dbe:	011b      	lsls	r3, r3, #4
 8000dc0:	4413      	add	r3, r2
 8000dc2:	681b      	ldr	r3, [r3, #0]
 8000dc4:	68fa      	ldr	r2, [r7, #12]
 8000dc6:	6811      	ldr	r1, [r2, #0]
 8000dc8:	f043 0201 	orr.w	r2, r3, #1
 8000dcc:	697b      	ldr	r3, [r7, #20]
 8000dce:	3318      	adds	r3, #24
 8000dd0:	011b      	lsls	r3, r3, #4
 8000dd2:	440b      	add	r3, r1
 8000dd4:	601a      	str	r2, [r3, #0]

      /* Return function status */
      return HAL_OK;
 8000dd6:	2300      	movs	r3, #0
 8000dd8:	e00e      	b.n	8000df8 <HAL_CAN_AddTxMessage+0x1aa>
    }
    else
    {
      /* Update error code */
      hcan->ErrorCode |= HAL_CAN_ERROR_PARAM;
 8000dda:	68fb      	ldr	r3, [r7, #12]
 8000ddc:	6a5b      	ldr	r3, [r3, #36]	; 0x24
 8000dde:	f443 1200 	orr.w	r2, r3, #2097152	; 0x200000
 8000de2:	68fb      	ldr	r3, [r7, #12]
 8000de4:	625a      	str	r2, [r3, #36]	; 0x24

      return HAL_ERROR;
 8000de6:	2301      	movs	r3, #1
 8000de8:	e006      	b.n	8000df8 <HAL_CAN_AddTxMessage+0x1aa>
    }
  }
  else
  {
    /* Update error code */
    hcan->ErrorCode |= HAL_CAN_ERROR_NOT_INITIALIZED;
 8000dea:	68fb      	ldr	r3, [r7, #12]
 8000dec:	6a5b      	ldr	r3, [r3, #36]	; 0x24
 8000dee:	f443 2280 	orr.w	r2, r3, #262144	; 0x40000
 8000df2:	68fb      	ldr	r3, [r7, #12]
 8000df4:	625a      	str	r2, [r3, #36]	; 0x24

    return HAL_ERROR;
 8000df6:	2301      	movs	r3, #1
  }
}
 8000df8:	4618      	mov	r0, r3
 8000dfa:	3724      	adds	r7, #36	; 0x24
 8000dfc:	46bd      	mov	sp, r7
 8000dfe:	f85d 7b04 	ldr.w	r7, [sp], #4
 8000e02:	4770      	bx	lr

08000e04 <HAL_CAN_ActivateNotification>:
  * @param  ActiveITs indicates which interrupts will be enabled.
  *         This parameter can be any combination of @arg CAN_Interrupts.
  * @retval HAL status
  */
HAL_StatusTypeDef HAL_CAN_ActivateNotification(CAN_HandleTypeDef *hcan, uint32_t ActiveITs)
{
 8000e04:	b480      	push	{r7}
 8000e06:	b085      	sub	sp, #20
 8000e08:	af00      	add	r7, sp, #0
 8000e0a:	6078      	str	r0, [r7, #4]
 8000e0c:	6039      	str	r1, [r7, #0]
  HAL_CAN_StateTypeDef state = hcan->State;
 8000e0e:	687b      	ldr	r3, [r7, #4]
 8000e10:	f893 3020 	ldrb.w	r3, [r3, #32]
 8000e14:	73fb      	strb	r3, [r7, #15]

  /* Check function parameters */
  assert_param(IS_CAN_IT(ActiveITs));

  if ((state == HAL_CAN_STATE_READY) ||
 8000e16:	7bfb      	ldrb	r3, [r7, #15]
 8000e18:	2b01      	cmp	r3, #1
 8000e1a:	d002      	beq.n	8000e22 <HAL_CAN_ActivateNotification+0x1e>
 8000e1c:	7bfb      	ldrb	r3, [r7, #15]
 8000e1e:	2b02      	cmp	r3, #2
 8000e20:	d109      	bne.n	8000e36 <HAL_CAN_ActivateNotification+0x32>
      (state == HAL_CAN_STATE_LISTENING))
  {
    /* Enable the selected interrupts */
    __HAL_CAN_ENABLE_IT(hcan, ActiveITs);
 8000e22:	687b      	ldr	r3, [r7, #4]
 8000e24:	681b      	ldr	r3, [r3, #0]
 8000e26:	6959      	ldr	r1, [r3, #20]
 8000e28:	687b      	ldr	r3, [r7, #4]
 8000e2a:	681b      	ldr	r3, [r3, #0]
 8000e2c:	683a      	ldr	r2, [r7, #0]
 8000e2e:	430a      	orrs	r2, r1
 8000e30:	615a      	str	r2, [r3, #20]

    /* Return function status */
    return HAL_OK;
 8000e32:	2300      	movs	r3, #0
 8000e34:	e006      	b.n	8000e44 <HAL_CAN_ActivateNotification+0x40>
  }
  else
  {
    /* Update error code */
    hcan->ErrorCode |= HAL_CAN_ERROR_NOT_INITIALIZED;
 8000e36:	687b      	ldr	r3, [r7, #4]
 8000e38:	6a5b      	ldr	r3, [r3, #36]	; 0x24
 8000e3a:	f443 2280 	orr.w	r2, r3, #262144	; 0x40000
 8000e3e:	687b      	ldr	r3, [r7, #4]
 8000e40:	625a      	str	r2, [r3, #36]	; 0x24

    return HAL_ERROR;
 8000e42:	2301      	movs	r3, #1
  }
}
 8000e44:	4618      	mov	r0, r3
 8000e46:	3714      	adds	r7, #20
 8000e48:	46bd      	mov	sp, r7
 8000e4a:	f85d 7b04 	ldr.w	r7, [sp], #4
 8000e4e:	4770      	bx	lr

08000e50 <HAL_CAN_IRQHandler>:
  * @param  hcan pointer to a CAN_HandleTypeDef structure that contains
  *         the configuration information for the specified CAN.
  * @retval None
  */
void HAL_CAN_IRQHandler(CAN_HandleTypeDef *hcan)
{
 8000e50:	b580      	push	{r7, lr}
 8000e52:	b08a      	sub	sp, #40	; 0x28
 8000e54:	af00      	add	r7, sp, #0
 8000e56:	6078      	str	r0, [r7, #4]
  uint32_t errorcode = HAL_CAN_ERROR_NONE;
 8000e58:	2300      	movs	r3, #0
 8000e5a:	627b      	str	r3, [r7, #36]	; 0x24
  uint32_t interrupts = READ_REG(hcan->Instance->IER);
 8000e5c:	687b      	ldr	r3, [r7, #4]
 8000e5e:	681b      	ldr	r3, [r3, #0]
 8000e60:	695b      	ldr	r3, [r3, #20]
 8000e62:	623b      	str	r3, [r7, #32]
  uint32_t msrflags = READ_REG(hcan->Instance->MSR);
 8000e64:	687b      	ldr	r3, [r7, #4]
 8000e66:	681b      	ldr	r3, [r3, #0]
 8000e68:	685b      	ldr	r3, [r3, #4]
 8000e6a:	61fb      	str	r3, [r7, #28]
  uint32_t tsrflags = READ_REG(hcan->Instance->TSR);
 8000e6c:	687b      	ldr	r3, [r7, #4]
 8000e6e:	681b      	ldr	r3, [r3, #0]
 8000e70:	689b      	ldr	r3, [r3, #8]
 8000e72:	61bb      	str	r3, [r7, #24]
  uint32_t rf0rflags = READ_REG(hcan->Instance->RF0R);
 8000e74:	687b      	ldr	r3, [r7, #4]
 8000e76:	681b      	ldr	r3, [r3, #0]
 8000e78:	68db      	ldr	r3, [r3, #12]
 8000e7a:	617b      	str	r3, [r7, #20]
  uint32_t rf1rflags = READ_REG(hcan->Instance->RF1R);
 8000e7c:	687b      	ldr	r3, [r7, #4]
 8000e7e:	681b      	ldr	r3, [r3, #0]
 8000e80:	691b      	ldr	r3, [r3, #16]
 8000e82:	613b      	str	r3, [r7, #16]
  uint32_t esrflags = READ_REG(hcan->Instance->ESR);
 8000e84:	687b      	ldr	r3, [r7, #4]
 8000e86:	681b      	ldr	r3, [r3, #0]
 8000e88:	699b      	ldr	r3, [r3, #24]
 8000e8a:	60fb      	str	r3, [r7, #12]

  /* Transmit Mailbox empty interrupt management *****************************/
  if ((interrupts & CAN_IT_TX_MAILBOX_EMPTY) != 0U)
 8000e8c:	6a3b      	ldr	r3, [r7, #32]
 8000e8e:	f003 0301 	and.w	r3, r3, #1
 8000e92:	2b00      	cmp	r3, #0
 8000e94:	d07c      	beq.n	8000f90 <HAL_CAN_IRQHandler+0x140>
  {
    /* Transmit Mailbox 0 management *****************************************/
    if ((tsrflags & CAN_TSR_RQCP0) != 0U)
 8000e96:	69bb      	ldr	r3, [r7, #24]
 8000e98:	f003 0301 	and.w	r3, r3, #1
 8000e9c:	2b00      	cmp	r3, #0
 8000e9e:	d023      	beq.n	8000ee8 <HAL_CAN_IRQHandler+0x98>
    {
      /* Clear the Transmission Complete flag (and TXOK0,ALST0,TERR0 bits) */
      __HAL_CAN_CLEAR_FLAG(hcan, CAN_FLAG_RQCP0);
 8000ea0:	687b      	ldr	r3, [r7, #4]
 8000ea2:	681b      	ldr	r3, [r3, #0]
 8000ea4:	2201      	movs	r2, #1
 8000ea6:	609a      	str	r2, [r3, #8]

      if ((tsrflags & CAN_TSR_TXOK0) != 0U)
 8000ea8:	69bb      	ldr	r3, [r7, #24]
 8000eaa:	f003 0302 	and.w	r3, r3, #2
 8000eae:	2b00      	cmp	r3, #0
 8000eb0:	d003      	beq.n	8000eba <HAL_CAN_IRQHandler+0x6a>
#if USE_HAL_CAN_REGISTER_CALLBACKS == 1
        /* Call registered callback*/
        hcan->TxMailbox0CompleteCallback(hcan);
#else
        /* Call weak (surcharged) callback */
        HAL_CAN_TxMailbox0CompleteCallback(hcan);
 8000eb2:	6878      	ldr	r0, [r7, #4]
 8000eb4:	f000 f983 	bl	80011be <HAL_CAN_TxMailbox0CompleteCallback>
 8000eb8:	e016      	b.n	8000ee8 <HAL_CAN_IRQHandler+0x98>
#endif /* USE_HAL_CAN_REGISTER_CALLBACKS */
      }
      else
      {
        if ((tsrflags & CAN_TSR_ALST0) != 0U)
 8000eba:	69bb      	ldr	r3, [r7, #24]
 8000ebc:	f003 0304 	and.w	r3, r3, #4
 8000ec0:	2b00      	cmp	r3, #0
 8000ec2:	d004      	beq.n	8000ece <HAL_CAN_IRQHandler+0x7e>
        {
          /* Update error code */
          errorcode |= HAL_CAN_ERROR_TX_ALST0;
 8000ec4:	6a7b      	ldr	r3, [r7, #36]	; 0x24
 8000ec6:	f443 6300 	orr.w	r3, r3, #2048	; 0x800
 8000eca:	627b      	str	r3, [r7, #36]	; 0x24
 8000ecc:	e00c      	b.n	8000ee8 <HAL_CAN_IRQHandler+0x98>
        }
        else if ((tsrflags & CAN_TSR_TERR0) != 0U)
 8000ece:	69bb      	ldr	r3, [r7, #24]
 8000ed0:	f003 0308 	and.w	r3, r3, #8
 8000ed4:	2b00      	cmp	r3, #0
 8000ed6:	d004      	beq.n	8000ee2 <HAL_CAN_IRQHandler+0x92>
        {
          /* Update error code */
          errorcode |= HAL_CAN_ERROR_TX_TERR0;
 8000ed8:	6a7b      	ldr	r3, [r7, #36]	; 0x24
 8000eda:	f443 5380 	orr.w	r3, r3, #4096	; 0x1000
 8000ede:	627b      	str	r3, [r7, #36]	; 0x24
 8000ee0:	e002      	b.n	8000ee8 <HAL_CAN_IRQHandler+0x98>
#if USE_HAL_CAN_REGISTER_CALLBACKS == 1
          /* Call registered callback*/
          hcan->TxMailbox0AbortCallback(hcan);
#else
          /* Call weak (surcharged) callback */
          HAL_CAN_TxMailbox0AbortCallback(hcan);
 8000ee2:	6878      	ldr	r0, [r7, #4]
 8000ee4:	f000 f989 	bl	80011fa <HAL_CAN_TxMailbox0AbortCallback>
        }
      }
    }

    /* Transmit Mailbox 1 management *****************************************/
    if ((tsrflags & CAN_TSR_RQCP1) != 0U)
 8000ee8:	69bb      	ldr	r3, [r7, #24]
 8000eea:	f403 7380 	and.w	r3, r3, #256	; 0x100
 8000eee:	2b00      	cmp	r3, #0
 8000ef0:	d024      	beq.n	8000f3c <HAL_CAN_IRQHandler+0xec>
    {
      /* Clear the Transmission Complete flag (and TXOK1,ALST1,TERR1 bits) */
      __HAL_CAN_CLEAR_FLAG(hcan, CAN_FLAG_RQCP1);
 8000ef2:	687b      	ldr	r3, [r7, #4]
 8000ef4:	681b      	ldr	r3, [r3, #0]
 8000ef6:	f44f 7280 	mov.w	r2, #256	; 0x100
 8000efa:	609a      	str	r2, [r3, #8]

      if ((tsrflags & CAN_TSR_TXOK1) != 0U)
 8000efc:	69bb      	ldr	r3, [r7, #24]
 8000efe:	f403 7300 	and.w	r3, r3, #512	; 0x200
 8000f02:	2b00      	cmp	r3, #0
 8000f04:	d003      	beq.n	8000f0e <HAL_CAN_IRQHandler+0xbe>
#if USE_HAL_CAN_REGISTER_CALLBACKS == 1
        /* Call registered callback*/
        hcan->TxMailbox1CompleteCallback(hcan);
#else
        /* Call weak (surcharged) callback */
        HAL_CAN_TxMailbox1CompleteCallback(hcan);
 8000f06:	6878      	ldr	r0, [r7, #4]
 8000f08:	f000 f963 	bl	80011d2 <HAL_CAN_TxMailbox1CompleteCallback>
 8000f0c:	e016      	b.n	8000f3c <HAL_CAN_IRQHandler+0xec>
#endif /* USE_HAL_CAN_REGISTER_CALLBACKS */
      }
      else
      {
        if ((tsrflags & CAN_TSR_ALST1) != 0U)
 8000f0e:	69bb      	ldr	r3, [r7, #24]
 8000f10:	f403 6380 	and.w	r3, r3, #1024	; 0x400
 8000f14:	2b00      	cmp	r3, #0
 8000f16:	d004      	beq.n	8000f22 <HAL_CAN_IRQHandler+0xd2>
        {
          /* Update error code */
          errorcode |= HAL_CAN_ERROR_TX_ALST1;
 8000f18:	6a7b      	ldr	r3, [r7, #36]	; 0x24
 8000f1a:	f443 5300 	orr.w	r3, r3, #8192	; 0x2000
 8000f1e:	627b      	str	r3, [r7, #36]	; 0x24
 8000f20:	e00c      	b.n	8000f3c <HAL_CAN_IRQHandler+0xec>
        }
        else if ((tsrflags & CAN_TSR_TERR1) != 0U)
 8000f22:	69bb      	ldr	r3, [r7, #24]
 8000f24:	f403 6300 	and.w	r3, r3, #2048	; 0x800
 8000f28:	2b00      	cmp	r3, #0
 8000f2a:	d004      	beq.n	8000f36 <HAL_CAN_IRQHandler+0xe6>
        {
          /* Update error code */
          errorcode |= HAL_CAN_ERROR_TX_TERR1;
 8000f2c:	6a7b      	ldr	r3, [r7, #36]	; 0x24
 8000f2e:	f443 4380 	orr.w	r3, r3, #16384	; 0x4000
 8000f32:	627b      	str	r3, [r7, #36]	; 0x24
 8000f34:	e002      	b.n	8000f3c <HAL_CAN_IRQHandler+0xec>
#if USE_HAL_CAN_REGISTER_CALLBACKS == 1
          /* Call registered callback*/
          hcan->TxMailbox1AbortCallback(hcan);
#else
          /* Call weak (surcharged) callback */
          HAL_CAN_TxMailbox1AbortCallback(hcan);
 8000f36:	6878      	ldr	r0, [r7, #4]
 8000f38:	f000 f969 	bl	800120e <HAL_CAN_TxMailbox1AbortCallback>
        }
      }
    }

    /* Transmit Mailbox 2 management *****************************************/
    if ((tsrflags & CAN_TSR_RQCP2) != 0U)
 8000f3c:	69bb      	ldr	r3, [r7, #24]
 8000f3e:	f403 3380 	and.w	r3, r3, #65536	; 0x10000
 8000f42:	2b00      	cmp	r3, #0
 8000f44:	d024      	beq.n	8000f90 <HAL_CAN_IRQHandler+0x140>
    {
      /* Clear the Transmission Complete flag (and TXOK2,ALST2,TERR2 bits) */
      __HAL_CAN_CLEAR_FLAG(hcan, CAN_FLAG_RQCP2);
 8000f46:	687b      	ldr	r3, [r7, #4]
 8000f48:	681b      	ldr	r3, [r3, #0]
 8000f4a:	f44f 3280 	mov.w	r2, #65536	; 0x10000
 8000f4e:	609a      	str	r2, [r3, #8]

      if ((tsrflags & CAN_TSR_TXOK2) != 0U)
 8000f50:	69bb      	ldr	r3, [r7, #24]
 8000f52:	f403 3300 	and.w	r3, r3, #131072	; 0x20000
 8000f56:	2b00      	cmp	r3, #0
 8000f58:	d003      	beq.n	8000f62 <HAL_CAN_IRQHandler+0x112>
#if USE_HAL_CAN_REGISTER_CALLBACKS == 1
        /* Call registered callback*/
        hcan->TxMailbox2CompleteCallback(hcan);
#else
        /* Call weak (surcharged) callback */
        HAL_CAN_TxMailbox2CompleteCallback(hcan);
 8000f5a:	6878      	ldr	r0, [r7, #4]
 8000f5c:	f000 f943 	bl	80011e6 <HAL_CAN_TxMailbox2CompleteCallback>
 8000f60:	e016      	b.n	8000f90 <HAL_CAN_IRQHandler+0x140>
#endif /* USE_HAL_CAN_REGISTER_CALLBACKS */
      }
      else
      {
        if ((tsrflags & CAN_TSR_ALST2) != 0U)
 8000f62:	69bb      	ldr	r3, [r7, #24]
 8000f64:	f403 2380 	and.w	r3, r3, #262144	; 0x40000
 8000f68:	2b00      	cmp	r3, #0
 8000f6a:	d004      	beq.n	8000f76 <HAL_CAN_IRQHandler+0x126>
        {
          /* Update error code */
          errorcode |= HAL_CAN_ERROR_TX_ALST2;
 8000f6c:	6a7b      	ldr	r3, [r7, #36]	; 0x24
 8000f6e:	f443 4300 	orr.w	r3, r3, #32768	; 0x8000
 8000f72:	627b      	str	r3, [r7, #36]	; 0x24
 8000f74:	e00c      	b.n	8000f90 <HAL_CAN_IRQHandler+0x140>
        }
        else if ((tsrflags & CAN_TSR_TERR2) != 0U)
 8000f76:	69bb      	ldr	r3, [r7, #24]
 8000f78:	f403 2300 	and.w	r3, r3, #524288	; 0x80000
 8000f7c:	2b00      	cmp	r3, #0
 8000f7e:	d004      	beq.n	8000f8a <HAL_CAN_IRQHandler+0x13a>
        {
          /* Update error code */
          errorcode |= HAL_CAN_ERROR_TX_TERR2;
 8000f80:	6a7b      	ldr	r3, [r7, #36]	; 0x24
 8000f82:	f443 3380 	orr.w	r3, r3, #65536	; 0x10000
 8000f86:	627b      	str	r3, [r7, #36]	; 0x24
 8000f88:	e002      	b.n	8000f90 <HAL_CAN_IRQHandler+0x140>
#if USE_HAL_CAN_REGISTER_CALLBACKS == 1
          /* Call registered callback*/
          hcan->TxMailbox2AbortCallback(hcan);
#else
          /* Call weak (surcharged) callback */
          HAL_CAN_TxMailbox2AbortCallback(hcan);
 8000f8a:	6878      	ldr	r0, [r7, #4]
 8000f8c:	f000 f949 	bl	8001222 <HAL_CAN_TxMailbox2AbortCallback>
      }
    }
  }

  /* Receive FIFO 0 overrun interrupt management *****************************/
  if ((interrupts & CAN_IT_RX_FIFO0_OVERRUN) != 0U)
 8000f90:	6a3b      	ldr	r3, [r7, #32]
 8000f92:	f003 0308 	and.w	r3, r3, #8
 8000f96:	2b00      	cmp	r3, #0
 8000f98:	d00c      	beq.n	8000fb4 <HAL_CAN_IRQHandler+0x164>
  {
    if ((rf0rflags & CAN_RF0R_FOVR0) != 0U)
 8000f9a:	697b      	ldr	r3, [r7, #20]
 8000f9c:	f003 0310 	and.w	r3, r3, #16
 8000fa0:	2b00      	cmp	r3, #0
 8000fa2:	d007      	beq.n	8000fb4 <HAL_CAN_IRQHandler+0x164>
    {
      /* Set CAN error code to Rx Fifo 0 overrun error */
      errorcode |= HAL_CAN_ERROR_RX_FOV0;
 8000fa4:	6a7b      	ldr	r3, [r7, #36]	; 0x24
 8000fa6:	f443 7300 	orr.w	r3, r3, #512	; 0x200
 8000faa:	627b      	str	r3, [r7, #36]	; 0x24

      /* Clear FIFO0 Overrun Flag */
      __HAL_CAN_CLEAR_FLAG(hcan, CAN_FLAG_FOV0);
 8000fac:	687b      	ldr	r3, [r7, #4]
 8000fae:	681b      	ldr	r3, [r3, #0]
 8000fb0:	2210      	movs	r2, #16
 8000fb2:	60da      	str	r2, [r3, #12]
    }
  }

  /* Receive FIFO 0 full interrupt management ********************************/
  if ((interrupts & CAN_IT_RX_FIFO0_FULL) != 0U)
 8000fb4:	6a3b      	ldr	r3, [r7, #32]
 8000fb6:	f003 0304 	and.w	r3, r3, #4
 8000fba:	2b00      	cmp	r3, #0
 8000fbc:	d00b      	beq.n	8000fd6 <HAL_CAN_IRQHandler+0x186>
  {
    if ((rf0rflags & CAN_RF0R_FULL0) != 0U)
 8000fbe:	697b      	ldr	r3, [r7, #20]
 8000fc0:	f003 0308 	and.w	r3, r3, #8
 8000fc4:	2b00      	cmp	r3, #0
 8000fc6:	d006      	beq.n	8000fd6 <HAL_CAN_IRQHandler+0x186>
    {
      /* Clear FIFO 0 full Flag */
      __HAL_CAN_CLEAR_FLAG(hcan, CAN_FLAG_FF0);
 8000fc8:	687b      	ldr	r3, [r7, #4]
 8000fca:	681b      	ldr	r3, [r3, #0]
 8000fcc:	2208      	movs	r2, #8
 8000fce:	60da      	str	r2, [r3, #12]
#if USE_HAL_CAN_REGISTER_CALLBACKS == 1
      /* Call registered callback*/
      hcan->RxFifo0FullCallback(hcan);
#else
      /* Call weak (surcharged) callback */
      HAL_CAN_RxFifo0FullCallback(hcan);
 8000fd0:	6878      	ldr	r0, [r7, #4]
 8000fd2:	f000 f93a 	bl	800124a <HAL_CAN_RxFifo0FullCallback>
#endif /* USE_HAL_CAN_REGISTER_CALLBACKS */
    }
  }

  /* Receive FIFO 0 message pending interrupt management *********************/
  if ((interrupts & CAN_IT_RX_FIFO0_MSG_PENDING) != 0U)
 8000fd6:	6a3b      	ldr	r3, [r7, #32]
 8000fd8:	f003 0302 	and.w	r3, r3, #2
 8000fdc:	2b00      	cmp	r3, #0
 8000fde:	d009      	beq.n	8000ff4 <HAL_CAN_IRQHandler+0x1a4>
  {
    /* Check if message is still pending */
    if ((hcan->Instance->RF0R & CAN_RF0R_FMP0) != 0U)
 8000fe0:	687b      	ldr	r3, [r7, #4]
 8000fe2:	681b      	ldr	r3, [r3, #0]
 8000fe4:	68db      	ldr	r3, [r3, #12]
 8000fe6:	f003 0303 	and.w	r3, r3, #3
 8000fea:	2b00      	cmp	r3, #0
 8000fec:	d002      	beq.n	8000ff4 <HAL_CAN_IRQHandler+0x1a4>
#if USE_HAL_CAN_REGISTER_CALLBACKS == 1
      /* Call registered callback*/
      hcan->RxFifo0MsgPendingCallback(hcan);
#else
      /* Call weak (surcharged) callback */
      HAL_CAN_RxFifo0MsgPendingCallback(hcan);
 8000fee:	6878      	ldr	r0, [r7, #4]
 8000ff0:	f000 f921 	bl	8001236 <HAL_CAN_RxFifo0MsgPendingCallback>
#endif /* USE_HAL_CAN_REGISTER_CALLBACKS */
    }
  }

  /* Receive FIFO 1 overrun interrupt management *****************************/
  if ((interrupts & CAN_IT_RX_FIFO1_OVERRUN) != 0U)
 8000ff4:	6a3b      	ldr	r3, [r7, #32]
 8000ff6:	f003 0340 	and.w	r3, r3, #64	; 0x40
 8000ffa:	2b00      	cmp	r3, #0
 8000ffc:	d00c      	beq.n	8001018 <HAL_CAN_IRQHandler+0x1c8>
  {
    if ((rf1rflags & CAN_RF1R_FOVR1) != 0U)
 8000ffe:	693b      	ldr	r3, [r7, #16]
 8001000:	f003 0310 	and.w	r3, r3, #16
 8001004:	2b00      	cmp	r3, #0
 8001006:	d007      	beq.n	8001018 <HAL_CAN_IRQHandler+0x1c8>
    {
      /* Set CAN error code to Rx Fifo 1 overrun error */
      errorcode |= HAL_CAN_ERROR_RX_FOV1;
 8001008:	6a7b      	ldr	r3, [r7, #36]	; 0x24
 800100a:	f443 6380 	orr.w	r3, r3, #1024	; 0x400
 800100e:	627b      	str	r3, [r7, #36]	; 0x24

      /* Clear FIFO1 Overrun Flag */
      __HAL_CAN_CLEAR_FLAG(hcan, CAN_FLAG_FOV1);
 8001010:	687b      	ldr	r3, [r7, #4]
 8001012:	681b      	ldr	r3, [r3, #0]
 8001014:	2210      	movs	r2, #16
 8001016:	611a      	str	r2, [r3, #16]
    }
  }

  /* Receive FIFO 1 full interrupt management ********************************/
  if ((interrupts & CAN_IT_RX_FIFO1_FULL) != 0U)
 8001018:	6a3b      	ldr	r3, [r7, #32]
 800101a:	f003 0320 	and.w	r3, r3, #32
 800101e:	2b00      	cmp	r3, #0
 8001020:	d00b      	beq.n	800103a <HAL_CAN_IRQHandler+0x1ea>
  {
    if ((rf1rflags & CAN_RF1R_FULL1) != 0U)
 8001022:	693b      	ldr	r3, [r7, #16]
 8001024:	f003 0308 	and.w	r3, r3, #8
 8001028:	2b00      	cmp	r3, #0
 800102a:	d006      	beq.n	800103a <HAL_CAN_IRQHandler+0x1ea>
    {
      /* Clear FIFO 1 full Flag */
      __HAL_CAN_CLEAR_FLAG(hcan, CAN_FLAG_FF1);
 800102c:	687b      	ldr	r3, [r7, #4]
 800102e:	681b      	ldr	r3, [r3, #0]
 8001030:	2208      	movs	r2, #8
 8001032:	611a      	str	r2, [r3, #16]
#if USE_HAL_CAN_REGISTER_CALLBACKS == 1
      /* Call registered callback*/
      hcan->RxFifo1FullCallback(hcan);
#else
      /* Call weak (surcharged) callback */
      HAL_CAN_RxFifo1FullCallback(hcan);
 8001034:	6878      	ldr	r0, [r7, #4]
 8001036:	f000 f91c 	bl	8001272 <HAL_CAN_RxFifo1FullCallback>
#endif /* USE_HAL_CAN_REGISTER_CALLBACKS */
    }
  }

  /* Receive FIFO 1 message pending interrupt management *********************/
  if ((interrupts & CAN_IT_RX_FIFO1_MSG_PENDING) != 0U)
 800103a:	6a3b      	ldr	r3, [r7, #32]
 800103c:	f003 0310 	and.w	r3, r3, #16
 8001040:	2b00      	cmp	r3, #0
 8001042:	d009      	beq.n	8001058 <HAL_CAN_IRQHandler+0x208>
  {
    /* Check if message is still pending */
    if ((hcan->Instance->RF1R & CAN_RF1R_FMP1) != 0U)
 8001044:	687b      	ldr	r3, [r7, #4]
 8001046:	681b      	ldr	r3, [r3, #0]
 8001048:	691b      	ldr	r3, [r3, #16]
 800104a:	f003 0303 	and.w	r3, r3, #3
 800104e:	2b00      	cmp	r3, #0
 8001050:	d002      	beq.n	8001058 <HAL_CAN_IRQHandler+0x208>
#if USE_HAL_CAN_REGISTER_CALLBACKS == 1
      /* Call registered callback*/
      hcan->RxFifo1MsgPendingCallback(hcan);
#else
      /* Call weak (surcharged) callback */
      HAL_CAN_RxFifo1MsgPendingCallback(hcan);
 8001052:	6878      	ldr	r0, [r7, #4]
 8001054:	f000 f903 	bl	800125e <HAL_CAN_RxFifo1MsgPendingCallback>
#endif /* USE_HAL_CAN_REGISTER_CALLBACKS */
    }
  }

  /* Sleep interrupt management *********************************************/
  if ((interrupts & CAN_IT_SLEEP_ACK) != 0U)
 8001058:	6a3b      	ldr	r3, [r7, #32]
 800105a:	f403 3300 	and.w	r3, r3, #131072	; 0x20000
 800105e:	2b00      	cmp	r3, #0
 8001060:	d00b      	beq.n	800107a <HAL_CAN_IRQHandler+0x22a>
  {
    if ((msrflags & CAN_MSR_SLAKI) != 0U)
 8001062:	69fb      	ldr	r3, [r7, #28]
 8001064:	f003 0310 	and.w	r3, r3, #16
 8001068:	2b00      	cmp	r3, #0
 800106a:	d006      	beq.n	800107a <HAL_CAN_IRQHandler+0x22a>
    {
      /* Clear Sleep interrupt Flag */
      __HAL_CAN_CLEAR_FLAG(hcan, CAN_FLAG_SLAKI);
 800106c:	687b      	ldr	r3, [r7, #4]
 800106e:	681b      	ldr	r3, [r3, #0]
 8001070:	2210      	movs	r2, #16
 8001072:	605a      	str	r2, [r3, #4]
#if USE_HAL_CAN_REGISTER_CALLBACKS == 1
      /* Call registered callback*/
      hcan->SleepCallback(hcan);
#else
      /* Call weak (surcharged) callback */
      HAL_CAN_SleepCallback(hcan);
 8001074:	6878      	ldr	r0, [r7, #4]
 8001076:	f000 f906 	bl	8001286 <HAL_CAN_SleepCallback>
#endif /* USE_HAL_CAN_REGISTER_CALLBACKS */
    }
  }

  /* WakeUp interrupt management *********************************************/
  if ((interrupts & CAN_IT_WAKEUP) != 0U)
 800107a:	6a3b      	ldr	r3, [r7, #32]
 800107c:	f403 3380 	and.w	r3, r3, #65536	; 0x10000
 8001080:	2b00      	cmp	r3, #0
 8001082:	d00b      	beq.n	800109c <HAL_CAN_IRQHandler+0x24c>
  {
    if ((msrflags & CAN_MSR_WKUI) != 0U)
 8001084:	69fb      	ldr	r3, [r7, #28]
 8001086:	f003 0308 	and.w	r3, r3, #8
 800108a:	2b00      	cmp	r3, #0
 800108c:	d006      	beq.n	800109c <HAL_CAN_IRQHandler+0x24c>
    {
      /* Clear WakeUp Flag */
      __HAL_CAN_CLEAR_FLAG(hcan, CAN_FLAG_WKU);
 800108e:	687b      	ldr	r3, [r7, #4]
 8001090:	681b      	ldr	r3, [r3, #0]
 8001092:	2208      	movs	r2, #8
 8001094:	605a      	str	r2, [r3, #4]
#if USE_HAL_CAN_REGISTER_CALLBACKS == 1
      /* Call registered callback*/
      hcan->WakeUpFromRxMsgCallback(hcan);
#else
      /* Call weak (surcharged) callback */
      HAL_CAN_WakeUpFromRxMsgCallback(hcan);
 8001096:	6878      	ldr	r0, [r7, #4]
 8001098:	f000 f8ff 	bl	800129a <HAL_CAN_WakeUpFromRxMsgCallback>
#endif /* USE_HAL_CAN_REGISTER_CALLBACKS */
    }
  }

  /* Error interrupts management *********************************************/
  if ((interrupts & CAN_IT_ERROR) != 0U)
 800109c:	6a3b      	ldr	r3, [r7, #32]
 800109e:	f403 4300 	and.w	r3, r3, #32768	; 0x8000
 80010a2:	2b00      	cmp	r3, #0
 80010a4:	d07b      	beq.n	800119e <HAL_CAN_IRQHandler+0x34e>
  {
    if ((msrflags & CAN_MSR_ERRI) != 0U)
 80010a6:	69fb      	ldr	r3, [r7, #28]
 80010a8:	f003 0304 	and.w	r3, r3, #4
 80010ac:	2b00      	cmp	r3, #0
 80010ae:	d072      	beq.n	8001196 <HAL_CAN_IRQHandler+0x346>
    {
      /* Check Error Warning Flag */
      if (((interrupts & CAN_IT_ERROR_WARNING) != 0U) &&
 80010b0:	6a3b      	ldr	r3, [r7, #32]
 80010b2:	f403 7380 	and.w	r3, r3, #256	; 0x100
 80010b6:	2b00      	cmp	r3, #0
 80010b8:	d008      	beq.n	80010cc <HAL_CAN_IRQHandler+0x27c>
          ((esrflags & CAN_ESR_EWGF) != 0U))
 80010ba:	68fb      	ldr	r3, [r7, #12]
 80010bc:	f003 0301 	and.w	r3, r3, #1
      if (((interrupts & CAN_IT_ERROR_WARNING) != 0U) &&
 80010c0:	2b00      	cmp	r3, #0
 80010c2:	d003      	beq.n	80010cc <HAL_CAN_IRQHandler+0x27c>
      {
        /* Set CAN error code to Error Warning */
        errorcode |= HAL_CAN_ERROR_EWG;
 80010c4:	6a7b      	ldr	r3, [r7, #36]	; 0x24
 80010c6:	f043 0301 	orr.w	r3, r3, #1
 80010ca:	627b      	str	r3, [r7, #36]	; 0x24

        /* No need for clear of Error Warning Flag as read-only */
      }

      /* Check Error Passive Flag */
      if (((interrupts & CAN_IT_ERROR_PASSIVE) != 0U) &&
 80010cc:	6a3b      	ldr	r3, [r7, #32]
 80010ce:	f403 7300 	and.w	r3, r3, #512	; 0x200
 80010d2:	2b00      	cmp	r3, #0
 80010d4:	d008      	beq.n	80010e8 <HAL_CAN_IRQHandler+0x298>
          ((esrflags & CAN_ESR_EPVF) != 0U))
 80010d6:	68fb      	ldr	r3, [r7, #12]
 80010d8:	f003 0302 	and.w	r3, r3, #2
      if (((interrupts & CAN_IT_ERROR_PASSIVE) != 0U) &&
 80010dc:	2b00      	cmp	r3, #0
 80010de:	d003      	beq.n	80010e8 <HAL_CAN_IRQHandler+0x298>
      {
        /* Set CAN error code to Error Passive */
        errorcode |= HAL_CAN_ERROR_EPV;
 80010e0:	6a7b      	ldr	r3, [r7, #36]	; 0x24
 80010e2:	f043 0302 	orr.w	r3, r3, #2
 80010e6:	627b      	str	r3, [r7, #36]	; 0x24

        /* No need for clear of Error Passive Flag as read-only */
      }

      /* Check Bus-off Flag */
      if (((interrupts & CAN_IT_BUSOFF) != 0U) &&
 80010e8:	6a3b      	ldr	r3, [r7, #32]
 80010ea:	f403 6380 	and.w	r3, r3, #1024	; 0x400
 80010ee:	2b00      	cmp	r3, #0
 80010f0:	d008      	beq.n	8001104 <HAL_CAN_IRQHandler+0x2b4>
          ((esrflags & CAN_ESR_BOFF) != 0U))
 80010f2:	68fb      	ldr	r3, [r7, #12]
 80010f4:	f003 0304 	and.w	r3, r3, #4
      if (((interrupts & CAN_IT_BUSOFF) != 0U) &&
 80010f8:	2b00      	cmp	r3, #0
 80010fa:	d003      	beq.n	8001104 <HAL_CAN_IRQHandler+0x2b4>
      {
        /* Set CAN error code to Bus-Off */
        errorcode |= HAL_CAN_ERROR_BOF;
 80010fc:	6a7b      	ldr	r3, [r7, #36]	; 0x24
 80010fe:	f043 0304 	orr.w	r3, r3, #4
 8001102:	627b      	str	r3, [r7, #36]	; 0x24

        /* No need for clear of Error Bus-Off as read-only */
      }

      /* Check Last Error Code Flag */
      if (((interrupts & CAN_IT_LAST_ERROR_CODE) != 0U) &&
 8001104:	6a3b      	ldr	r3, [r7, #32]
 8001106:	f403 6300 	and.w	r3, r3, #2048	; 0x800
 800110a:	2b00      	cmp	r3, #0
 800110c:	d043      	beq.n	8001196 <HAL_CAN_IRQHandler+0x346>
          ((esrflags & CAN_ESR_LEC) != 0U))
 800110e:	68fb      	ldr	r3, [r7, #12]
 8001110:	f003 0370 	and.w	r3, r3, #112	; 0x70
      if (((interrupts & CAN_IT_LAST_ERROR_CODE) != 0U) &&
 8001114:	2b00      	cmp	r3, #0
 8001116:	d03e      	beq.n	8001196 <HAL_CAN_IRQHandler+0x346>
      {
        switch (esrflags & CAN_ESR_LEC)
 8001118:	68fb      	ldr	r3, [r7, #12]
 800111a:	f003 0370 	and.w	r3, r3, #112	; 0x70
 800111e:	2b60      	cmp	r3, #96	; 0x60
 8001120:	d02b      	beq.n	800117a <HAL_CAN_IRQHandler+0x32a>
 8001122:	2b60      	cmp	r3, #96	; 0x60
 8001124:	d82e      	bhi.n	8001184 <HAL_CAN_IRQHandler+0x334>
 8001126:	2b50      	cmp	r3, #80	; 0x50
 8001128:	d022      	beq.n	8001170 <HAL_CAN_IRQHandler+0x320>
 800112a:	2b50      	cmp	r3, #80	; 0x50
 800112c:	d82a      	bhi.n	8001184 <HAL_CAN_IRQHandler+0x334>
 800112e:	2b40      	cmp	r3, #64	; 0x40
 8001130:	d019      	beq.n	8001166 <HAL_CAN_IRQHandler+0x316>
 8001132:	2b40      	cmp	r3, #64	; 0x40
 8001134:	d826      	bhi.n	8001184 <HAL_CAN_IRQHandler+0x334>
 8001136:	2b30      	cmp	r3, #48	; 0x30
 8001138:	d010      	beq.n	800115c <HAL_CAN_IRQHandler+0x30c>
 800113a:	2b30      	cmp	r3, #48	; 0x30
 800113c:	d822      	bhi.n	8001184 <HAL_CAN_IRQHandler+0x334>
 800113e:	2b10      	cmp	r3, #16
 8001140:	d002      	beq.n	8001148 <HAL_CAN_IRQHandler+0x2f8>
 8001142:	2b20      	cmp	r3, #32
 8001144:	d005      	beq.n	8001152 <HAL_CAN_IRQHandler+0x302>
          case (CAN_ESR_LEC_2 | CAN_ESR_LEC_1):
            /* Set CAN error code to CRC error */
            errorcode |= HAL_CAN_ERROR_CRC;
            break;
          default:
            break;
 8001146:	e01d      	b.n	8001184 <HAL_CAN_IRQHandler+0x334>
            errorcode |= HAL_CAN_ERROR_STF;
 8001148:	6a7b      	ldr	r3, [r7, #36]	; 0x24
 800114a:	f043 0308 	orr.w	r3, r3, #8
 800114e:	627b      	str	r3, [r7, #36]	; 0x24
            break;
 8001150:	e019      	b.n	8001186 <HAL_CAN_IRQHandler+0x336>
            errorcode |= HAL_CAN_ERROR_FOR;
 8001152:	6a7b      	ldr	r3, [r7, #36]	; 0x24
 8001154:	f043 0310 	orr.w	r3, r3, #16
 8001158:	627b      	str	r3, [r7, #36]	; 0x24
            break;
 800115a:	e014      	b.n	8001186 <HAL_CAN_IRQHandler+0x336>
            errorcode |= HAL_CAN_ERROR_ACK;
 800115c:	6a7b      	ldr	r3, [r7, #36]	; 0x24
 800115e:	f043 0320 	orr.w	r3, r3, #32
 8001162:	627b      	str	r3, [r7, #36]	; 0x24
            break;
 8001164:	e00f      	b.n	8001186 <HAL_CAN_IRQHandler+0x336>
            errorcode |= HAL_CAN_ERROR_BR;
 8001166:	6a7b      	ldr	r3, [r7, #36]	; 0x24
 8001168:	f043 0340 	orr.w	r3, r3, #64	; 0x40
 800116c:	627b      	str	r3, [r7, #36]	; 0x24
            break;
 800116e:	e00a      	b.n	8001186 <HAL_CAN_IRQHandler+0x336>
            errorcode |= HAL_CAN_ERROR_BD;
 8001170:	6a7b      	ldr	r3, [r7, #36]	; 0x24
 8001172:	f043 0380 	orr.w	r3, r3, #128	; 0x80
 8001176:	627b      	str	r3, [r7, #36]	; 0x24
            break;
 8001178:	e005      	b.n	8001186 <HAL_CAN_IRQHandler+0x336>
            errorcode |= HAL_CAN_ERROR_CRC;
 800117a:	6a7b      	ldr	r3, [r7, #36]	; 0x24
 800117c:	f443 7380 	orr.w	r3, r3, #256	; 0x100
 8001180:	627b      	str	r3, [r7, #36]	; 0x24
            break;
 8001182:	e000      	b.n	8001186 <HAL_CAN_IRQHandler+0x336>
            break;
 8001184:	bf00      	nop
        }

        /* Clear Last error code Flag */
        CLEAR_BIT(hcan->Instance->ESR, CAN_ESR_LEC);
 8001186:	687b      	ldr	r3, [r7, #4]
 8001188:	681b      	ldr	r3, [r3, #0]
 800118a:	699a      	ldr	r2, [r3, #24]
 800118c:	687b      	ldr	r3, [r7, #4]
 800118e:	681b      	ldr	r3, [r3, #0]
 8001190:	f022 0270 	bic.w	r2, r2, #112	; 0x70
 8001194:	619a      	str	r2, [r3, #24]
      }
    }

    /* Clear ERRI Flag */
    __HAL_CAN_CLEAR_FLAG(hcan, CAN_FLAG_ERRI);
 8001196:	687b      	ldr	r3, [r7, #4]
 8001198:	681b      	ldr	r3, [r3, #0]
 800119a:	2204      	movs	r2, #4
 800119c:	605a      	str	r2, [r3, #4]
  }

  /* Call the Error call Back in case of Errors */
  if (errorcode != HAL_CAN_ERROR_NONE)
 800119e:	6a7b      	ldr	r3, [r7, #36]	; 0x24
 80011a0:	2b00      	cmp	r3, #0
 80011a2:	d008      	beq.n	80011b6 <HAL_CAN_IRQHandler+0x366>
  {
    /* Update error code in handle */
    hcan->ErrorCode |= errorcode;
 80011a4:	687b      	ldr	r3, [r7, #4]
 80011a6:	6a5a      	ldr	r2, [r3, #36]	; 0x24
 80011a8:	6a7b      	ldr	r3, [r7, #36]	; 0x24
 80011aa:	431a      	orrs	r2, r3
 80011ac:	687b      	ldr	r3, [r7, #4]
 80011ae:	625a      	str	r2, [r3, #36]	; 0x24
#if USE_HAL_CAN_REGISTER_CALLBACKS == 1
    /* Call registered callback*/
    hcan->ErrorCallback(hcan);
#else
    /* Call weak (surcharged) callback */
    HAL_CAN_ErrorCallback(hcan);
 80011b0:	6878      	ldr	r0, [r7, #4]
 80011b2:	f000 f87c 	bl	80012ae <HAL_CAN_ErrorCallback>
#endif /* USE_HAL_CAN_REGISTER_CALLBACKS */
  }
}
 80011b6:	bf00      	nop
 80011b8:	3728      	adds	r7, #40	; 0x28
 80011ba:	46bd      	mov	sp, r7
 80011bc:	bd80      	pop	{r7, pc}

080011be <HAL_CAN_TxMailbox0CompleteCallback>:
  * @param  hcan pointer to a CAN_HandleTypeDef structure that contains
  *         the configuration information for the specified CAN.
  * @retval None
  */
__weak void HAL_CAN_TxMailbox0CompleteCallback(CAN_HandleTypeDef *hcan)
{
 80011be:	b480      	push	{r7}
 80011c0:	b083      	sub	sp, #12
 80011c2:	af00      	add	r7, sp, #0
 80011c4:	6078      	str	r0, [r7, #4]

  /* NOTE : This function Should not be modified, when the callback is needed,
            the HAL_CAN_TxMailbox0CompleteCallback could be implemented in the
            user file
   */
}
 80011c6:	bf00      	nop
 80011c8:	370c      	adds	r7, #12
 80011ca:	46bd      	mov	sp, r7
 80011cc:	f85d 7b04 	ldr.w	r7, [sp], #4
 80011d0:	4770      	bx	lr

080011d2 <HAL_CAN_TxMailbox1CompleteCallback>:
  * @param  hcan pointer to a CAN_HandleTypeDef structure that contains
  *         the configuration information for the specified CAN.
  * @retval None
  */
__weak void HAL_CAN_TxMailbox1CompleteCallback(CAN_HandleTypeDef *hcan)
{
 80011d2:	b480      	push	{r7}
 80011d4:	b083      	sub	sp, #12
 80011d6:	af00      	add	r7, sp, #0
 80011d8:	6078      	str	r0, [r7, #4]

  /* NOTE : This function Should not be modified, when the callback is needed,
            the HAL_CAN_TxMailbox1CompleteCallback could be implemented in the
            user file
   */
}
 80011da:	bf00      	nop
 80011dc:	370c      	adds	r7, #12
 80011de:	46bd      	mov	sp, r7
 80011e0:	f85d 7b04 	ldr.w	r7, [sp], #4
 80011e4:	4770      	bx	lr

080011e6 <HAL_CAN_TxMailbox2CompleteCallback>:
  * @param  hcan pointer to a CAN_HandleTypeDef structure that contains
  *         the configuration information for the specified CAN.
  * @retval None
  */
__weak void HAL_CAN_TxMailbox2CompleteCallback(CAN_HandleTypeDef *hcan)
{
 80011e6:	b480      	push	{r7}
 80011e8:	b083      	sub	sp, #12
 80011ea:	af00      	add	r7, sp, #0
 80011ec:	6078      	str	r0, [r7, #4]

  /* NOTE : This function Should not be modified, when the callback is needed,
            the HAL_CAN_TxMailbox2CompleteCallback could be implemented in the
            user file
   */
}
 80011ee:	bf00      	nop
 80011f0:	370c      	adds	r7, #12
 80011f2:	46bd      	mov	sp, r7
 80011f4:	f85d 7b04 	ldr.w	r7, [sp], #4
 80011f8:	4770      	bx	lr

080011fa <HAL_CAN_TxMailbox0AbortCallback>:
  * @param  hcan pointer to an CAN_HandleTypeDef structure that contains
  *         the configuration information for the specified CAN.
  * @retval None
  */
__weak void HAL_CAN_TxMailbox0AbortCallback(CAN_HandleTypeDef *hcan)
{
 80011fa:	b480      	push	{r7}
 80011fc:	b083      	sub	sp, #12
 80011fe:	af00      	add	r7, sp, #0
 8001200:	6078      	str	r0, [r7, #4]

  /* NOTE : This function Should not be modified, when the callback is needed,
            the HAL_CAN_TxMailbox0AbortCallback could be implemented in the
            user file
   */
}
 8001202:	bf00      	nop
 8001204:	370c      	adds	r7, #12
 8001206:	46bd      	mov	sp, r7
 8001208:	f85d 7b04 	ldr.w	r7, [sp], #4
 800120c:	4770      	bx	lr

0800120e <HAL_CAN_TxMailbox1AbortCallback>:
  * @param  hcan pointer to an CAN_HandleTypeDef structure that contains
  *         the configuration information for the specified CAN.
  * @retval None
  */
__weak void HAL_CAN_TxMailbox1AbortCallback(CAN_HandleTypeDef *hcan)
{
 800120e:	b480      	push	{r7}
 8001210:	b083      	sub	sp, #12
 8001212:	af00      	add	r7, sp, #0
 8001214:	6078      	str	r0, [r7, #4]

  /* NOTE : This function Should not be modified, when the callback is needed,
            the HAL_CAN_TxMailbox1AbortCallback could be implemented in the
            user file
   */
}
 8001216:	bf00      	nop
 8001218:	370c      	adds	r7, #12
 800121a:	46bd      	mov	sp, r7
 800121c:	f85d 7b04 	ldr.w	r7, [sp], #4
 8001220:	4770      	bx	lr

08001222 <HAL_CAN_TxMailbox2AbortCallback>:
  * @param  hcan pointer to an CAN_HandleTypeDef structure that contains
  *         the configuration information for the specified CAN.
  * @retval None
  */
__weak void HAL_CAN_TxMailbox2AbortCallback(CAN_HandleTypeDef *hcan)
{
 8001222:	b480      	push	{r7}
 8001224:	b083      	sub	sp, #12
 8001226:	af00      	add	r7, sp, #0
 8001228:	6078      	str	r0, [r7, #4]

  /* NOTE : This function Should not be modified, when the callback is needed,
            the HAL_CAN_TxMailbox2AbortCallback could be implemented in the
            user file
   */
}
 800122a:	bf00      	nop
 800122c:	370c      	adds	r7, #12
 800122e:	46bd      	mov	sp, r7
 8001230:	f85d 7b04 	ldr.w	r7, [sp], #4
 8001234:	4770      	bx	lr

08001236 <HAL_CAN_RxFifo0MsgPendingCallback>:
  * @param  hcan pointer to a CAN_HandleTypeDef structure that contains
  *         the configuration information for the specified CAN.
  * @retval None
  */
__weak void HAL_CAN_RxFifo0MsgPendingCallback(CAN_HandleTypeDef *hcan)
{
 8001236:	b480      	push	{r7}
 8001238:	b083      	sub	sp, #12
 800123a:	af00      	add	r7, sp, #0
 800123c:	6078      	str	r0, [r7, #4]

  /* NOTE : This function Should not be modified, when the callback is needed,
            the HAL_CAN_RxFifo0MsgPendingCallback could be implemented in the
            user file
   */
}
 800123e:	bf00      	nop
 8001240:	370c      	adds	r7, #12
 8001242:	46bd      	mov	sp, r7
 8001244:	f85d 7b04 	ldr.w	r7, [sp], #4
 8001248:	4770      	bx	lr

0800124a <HAL_CAN_RxFifo0FullCallback>:
  * @param  hcan pointer to a CAN_HandleTypeDef structure that contains
  *         the configuration information for the specified CAN.
  * @retval None
  */
__weak void HAL_CAN_RxFifo0FullCallback(CAN_HandleTypeDef *hcan)
{
 800124a:	b480      	push	{r7}
 800124c:	b083      	sub	sp, #12
 800124e:	af00      	add	r7, sp, #0
 8001250:	6078      	str	r0, [r7, #4]

  /* NOTE : This function Should not be modified, when the callback is needed,
            the HAL_CAN_RxFifo0FullCallback could be implemented in the user
            file
   */
}
 8001252:	bf00      	nop
 8001254:	370c      	adds	r7, #12
 8001256:	46bd      	mov	sp, r7
 8001258:	f85d 7b04 	ldr.w	r7, [sp], #4
 800125c:	4770      	bx	lr

0800125e <HAL_CAN_RxFifo1MsgPendingCallback>:
  * @param  hcan pointer to a CAN_HandleTypeDef structure that contains
  *         the configuration information for the specified CAN.
  * @retval None
  */
__weak void HAL_CAN_RxFifo1MsgPendingCallback(CAN_HandleTypeDef *hcan)
{
 800125e:	b480      	push	{r7}
 8001260:	b083      	sub	sp, #12
 8001262:	af00      	add	r7, sp, #0
 8001264:	6078      	str	r0, [r7, #4]

  /* NOTE : This function Should not be modified, when the callback is needed,
            the HAL_CAN_RxFifo1MsgPendingCallback could be implemented in the
            user file
   */
}
 8001266:	bf00      	nop
 8001268:	370c      	adds	r7, #12
 800126a:	46bd      	mov	sp, r7
 800126c:	f85d 7b04 	ldr.w	r7, [sp], #4
 8001270:	4770      	bx	lr

08001272 <HAL_CAN_RxFifo1FullCallback>:
  * @param  hcan pointer to a CAN_HandleTypeDef structure that contains
  *         the configuration information for the specified CAN.
  * @retval None
  */
__weak void HAL_CAN_RxFifo1FullCallback(CAN_HandleTypeDef *hcan)
{
 8001272:	b480      	push	{r7}
 8001274:	b083      	sub	sp, #12
 8001276:	af00      	add	r7, sp, #0
 8001278:	6078      	str	r0, [r7, #4]

  /* NOTE : This function Should not be modified, when the callback is needed,
            the HAL_CAN_RxFifo1FullCallback could be implemented in the user
            file
   */
}
 800127a:	bf00      	nop
 800127c:	370c      	adds	r7, #12
 800127e:	46bd      	mov	sp, r7
 8001280:	f85d 7b04 	ldr.w	r7, [sp], #4
 8001284:	4770      	bx	lr

08001286 <HAL_CAN_SleepCallback>:
  * @param  hcan pointer to a CAN_HandleTypeDef structure that contains
  *         the configuration information for the specified CAN.
  * @retval None
  */
__weak void HAL_CAN_SleepCallback(CAN_HandleTypeDef *hcan)
{
 8001286:	b480      	push	{r7}
 8001288:	b083      	sub	sp, #12
 800128a:	af00      	add	r7, sp, #0
 800128c:	6078      	str	r0, [r7, #4]
  UNUSED(hcan);

  /* NOTE : This function Should not be modified, when the callback is needed,
            the HAL_CAN_SleepCallback could be implemented in the user file
   */
}
 800128e:	bf00      	nop
 8001290:	370c      	adds	r7, #12
 8001292:	46bd      	mov	sp, r7
 8001294:	f85d 7b04 	ldr.w	r7, [sp], #4
 8001298:	4770      	bx	lr

0800129a <HAL_CAN_WakeUpFromRxMsgCallback>:
  * @param  hcan pointer to a CAN_HandleTypeDef structure that contains
  *         the configuration information for the specified CAN.
  * @retval None
  */
__weak void HAL_CAN_WakeUpFromRxMsgCallback(CAN_HandleTypeDef *hcan)
{
 800129a:	b480      	push	{r7}
 800129c:	b083      	sub	sp, #12
 800129e:	af00      	add	r7, sp, #0
 80012a0:	6078      	str	r0, [r7, #4]

  /* NOTE : This function Should not be modified, when the callback is needed,
            the HAL_CAN_WakeUpFromRxMsgCallback could be implemented in the
            user file
   */
}
 80012a2:	bf00      	nop
 80012a4:	370c      	adds	r7, #12
 80012a6:	46bd      	mov	sp, r7
 80012a8:	f85d 7b04 	ldr.w	r7, [sp], #4
 80012ac:	4770      	bx	lr

080012ae <HAL_CAN_ErrorCallback>:
  * @param  hcan pointer to a CAN_HandleTypeDef structure that contains
  *         the configuration information for the specified CAN.
  * @retval None
  */
__weak void HAL_CAN_ErrorCallback(CAN_HandleTypeDef *hcan)
{
 80012ae:	b480      	push	{r7}
 80012b0:	b083      	sub	sp, #12
 80012b2:	af00      	add	r7, sp, #0
 80012b4:	6078      	str	r0, [r7, #4]
  UNUSED(hcan);

  /* NOTE : This function Should not be modified, when the callback is needed,
            the HAL_CAN_ErrorCallback could be implemented in the user file
   */
}
 80012b6:	bf00      	nop
 80012b8:	370c      	adds	r7, #12
 80012ba:	46bd      	mov	sp, r7
 80012bc:	f85d 7b04 	ldr.w	r7, [sp], #4
 80012c0:	4770      	bx	lr
	...

080012c4 <__NVIC_SetPriorityGrouping>:
           In case of a conflict between priority grouping and available
           priority bits (__NVIC_PRIO_BITS), the smallest possible priority group is set.
  \param [in]      PriorityGroup  Priority grouping field.
 */
__STATIC_INLINE void __NVIC_SetPriorityGrouping(uint32_t PriorityGroup)
{
 80012c4:	b480      	push	{r7}
 80012c6:	b085      	sub	sp, #20
 80012c8:	af00      	add	r7, sp, #0
 80012ca:	6078      	str	r0, [r7, #4]
  uint32_t reg_value;
  uint32_t PriorityGroupTmp = (PriorityGroup & (uint32_t)0x07UL);             /* only values 0..7 are used          */
 80012cc:	687b      	ldr	r3, [r7, #4]
 80012ce:	f003 0307 	and.w	r3, r3, #7
 80012d2:	60fb      	str	r3, [r7, #12]

  reg_value  =  SCB->AIRCR;                                                   /* read old register configuration    */
 80012d4:	4b0c      	ldr	r3, [pc, #48]	; (8001308 <__NVIC_SetPriorityGrouping+0x44>)
 80012d6:	68db      	ldr	r3, [r3, #12]
 80012d8:	60bb      	str	r3, [r7, #8]
  reg_value &= ~((uint32_t)(SCB_AIRCR_VECTKEY_Msk | SCB_AIRCR_PRIGROUP_Msk)); /* clear bits to change               */
 80012da:	68ba      	ldr	r2, [r7, #8]
 80012dc:	f64f 03ff 	movw	r3, #63743	; 0xf8ff
 80012e0:	4013      	ands	r3, r2
 80012e2:	60bb      	str	r3, [r7, #8]
  reg_value  =  (reg_value                                   |
                ((uint32_t)0x5FAUL << SCB_AIRCR_VECTKEY_Pos) |
                (PriorityGroupTmp << SCB_AIRCR_PRIGROUP_Pos)  );              /* Insert write key and priority group */
 80012e4:	68fb      	ldr	r3, [r7, #12]
 80012e6:	021a      	lsls	r2, r3, #8
                ((uint32_t)0x5FAUL << SCB_AIRCR_VECTKEY_Pos) |
 80012e8:	68bb      	ldr	r3, [r7, #8]
 80012ea:	4313      	orrs	r3, r2
  reg_value  =  (reg_value                                   |
 80012ec:	f043 63bf 	orr.w	r3, r3, #100139008	; 0x5f80000
 80012f0:	f443 3300 	orr.w	r3, r3, #131072	; 0x20000
 80012f4:	60bb      	str	r3, [r7, #8]
  SCB->AIRCR =  reg_value;
 80012f6:	4a04      	ldr	r2, [pc, #16]	; (8001308 <__NVIC_SetPriorityGrouping+0x44>)
 80012f8:	68bb      	ldr	r3, [r7, #8]
 80012fa:	60d3      	str	r3, [r2, #12]
}
 80012fc:	bf00      	nop
 80012fe:	3714      	adds	r7, #20
 8001300:	46bd      	mov	sp, r7
 8001302:	f85d 7b04 	ldr.w	r7, [sp], #4
 8001306:	4770      	bx	lr
 8001308:	e000ed00 	.word	0xe000ed00

0800130c <__NVIC_GetPriorityGrouping>:
  \brief   Get Priority Grouping
  \details Reads the priority grouping field from the NVIC Interrupt Controller.
  \return                Priority grouping field (SCB->AIRCR [10:8] PRIGROUP field).
 */
__STATIC_INLINE uint32_t __NVIC_GetPriorityGrouping(void)
{
 800130c:	b480      	push	{r7}
 800130e:	af00      	add	r7, sp, #0
  return ((uint32_t)((SCB->AIRCR & SCB_AIRCR_PRIGROUP_Msk) >> SCB_AIRCR_PRIGROUP_Pos));
 8001310:	4b04      	ldr	r3, [pc, #16]	; (8001324 <__NVIC_GetPriorityGrouping+0x18>)
 8001312:	68db      	ldr	r3, [r3, #12]
 8001314:	0a1b      	lsrs	r3, r3, #8
 8001316:	f003 0307 	and.w	r3, r3, #7
}
 800131a:	4618      	mov	r0, r3
 800131c:	46bd      	mov	sp, r7
 800131e:	f85d 7b04 	ldr.w	r7, [sp], #4
 8001322:	4770      	bx	lr
 8001324:	e000ed00 	.word	0xe000ed00

08001328 <__NVIC_EnableIRQ>:
  \details Enables a device specific interrupt in the NVIC interrupt controller.
  \param [in]      IRQn  Device specific interrupt number.
  \note    IRQn must not be negative.
 */
__STATIC_INLINE void __NVIC_EnableIRQ(IRQn_Type IRQn)
{
 8001328:	b480      	push	{r7}
 800132a:	b083      	sub	sp, #12
 800132c:	af00      	add	r7, sp, #0
 800132e:	4603      	mov	r3, r0
 8001330:	71fb      	strb	r3, [r7, #7]
  if ((int32_t)(IRQn) >= 0)
 8001332:	f997 3007 	ldrsb.w	r3, [r7, #7]
 8001336:	2b00      	cmp	r3, #0
 8001338:	db0b      	blt.n	8001352 <__NVIC_EnableIRQ+0x2a>
  {
    NVIC->ISER[(((uint32_t)IRQn) >> 5UL)] = (uint32_t)(1UL << (((uint32_t)IRQn) & 0x1FUL));
 800133a:	79fb      	ldrb	r3, [r7, #7]
 800133c:	f003 021f 	and.w	r2, r3, #31
 8001340:	4907      	ldr	r1, [pc, #28]	; (8001360 <__NVIC_EnableIRQ+0x38>)
 8001342:	f997 3007 	ldrsb.w	r3, [r7, #7]
 8001346:	095b      	lsrs	r3, r3, #5
 8001348:	2001      	movs	r0, #1
 800134a:	fa00 f202 	lsl.w	r2, r0, r2
 800134e:	f841 2023 	str.w	r2, [r1, r3, lsl #2]
  }
}
 8001352:	bf00      	nop
 8001354:	370c      	adds	r7, #12
 8001356:	46bd      	mov	sp, r7
 8001358:	f85d 7b04 	ldr.w	r7, [sp], #4
 800135c:	4770      	bx	lr
 800135e:	bf00      	nop
 8001360:	e000e100 	.word	0xe000e100

08001364 <__NVIC_SetPriority>:
  \param [in]      IRQn  Interrupt number.
  \param [in]  priority  Priority to set.
  \note    The priority cannot be set for every processor exception.
 */
__STATIC_INLINE void __NVIC_SetPriority(IRQn_Type IRQn, uint32_t priority)
{
 8001364:	b480      	push	{r7}
 8001366:	b083      	sub	sp, #12
 8001368:	af00      	add	r7, sp, #0
 800136a:	4603      	mov	r3, r0
 800136c:	6039      	str	r1, [r7, #0]
 800136e:	71fb      	strb	r3, [r7, #7]
  if ((int32_t)(IRQn) >= 0)
 8001370:	f997 3007 	ldrsb.w	r3, [r7, #7]
 8001374:	2b00      	cmp	r3, #0
 8001376:	db0a      	blt.n	800138e <__NVIC_SetPriority+0x2a>
  {
    NVIC->IP[((uint32_t)IRQn)]               = (uint8_t)((priority << (8U - __NVIC_PRIO_BITS)) & (uint32_t)0xFFUL);
 8001378:	683b      	ldr	r3, [r7, #0]
 800137a:	b2da      	uxtb	r2, r3
 800137c:	490c      	ldr	r1, [pc, #48]	; (80013b0 <__NVIC_SetPriority+0x4c>)
 800137e:	f997 3007 	ldrsb.w	r3, [r7, #7]
 8001382:	0112      	lsls	r2, r2, #4
 8001384:	b2d2      	uxtb	r2, r2
 8001386:	440b      	add	r3, r1
 8001388:	f883 2300 	strb.w	r2, [r3, #768]	; 0x300
  }
  else
  {
    SCB->SHP[(((uint32_t)IRQn) & 0xFUL)-4UL] = (uint8_t)((priority << (8U - __NVIC_PRIO_BITS)) & (uint32_t)0xFFUL);
  }
}
 800138c:	e00a      	b.n	80013a4 <__NVIC_SetPriority+0x40>
    SCB->SHP[(((uint32_t)IRQn) & 0xFUL)-4UL] = (uint8_t)((priority << (8U - __NVIC_PRIO_BITS)) & (uint32_t)0xFFUL);
 800138e:	683b      	ldr	r3, [r7, #0]
 8001390:	b2da      	uxtb	r2, r3
 8001392:	4908      	ldr	r1, [pc, #32]	; (80013b4 <__NVIC_SetPriority+0x50>)
 8001394:	79fb      	ldrb	r3, [r7, #7]
 8001396:	f003 030f 	and.w	r3, r3, #15
 800139a:	3b04      	subs	r3, #4
 800139c:	0112      	lsls	r2, r2, #4
 800139e:	b2d2      	uxtb	r2, r2
 80013a0:	440b      	add	r3, r1
 80013a2:	761a      	strb	r2, [r3, #24]
}
 80013a4:	bf00      	nop
 80013a6:	370c      	adds	r7, #12
 80013a8:	46bd      	mov	sp, r7
 80013aa:	f85d 7b04 	ldr.w	r7, [sp], #4
 80013ae:	4770      	bx	lr
 80013b0:	e000e100 	.word	0xe000e100
 80013b4:	e000ed00 	.word	0xe000ed00

080013b8 <NVIC_EncodePriority>:
  \param [in]   PreemptPriority  Preemptive priority value (starting from 0).
  \param [in]       SubPriority  Subpriority value (starting from 0).
  \return                        Encoded priority. Value can be used in the function \ref NVIC_SetPriority().
 */
__STATIC_INLINE uint32_t NVIC_EncodePriority (uint32_t PriorityGroup, uint32_t PreemptPriority, uint32_t SubPriority)
{
 80013b8:	b480      	push	{r7}
 80013ba:	b089      	sub	sp, #36	; 0x24
 80013bc:	af00      	add	r7, sp, #0
 80013be:	60f8      	str	r0, [r7, #12]
 80013c0:	60b9      	str	r1, [r7, #8]
 80013c2:	607a      	str	r2, [r7, #4]
  uint32_t PriorityGroupTmp = (PriorityGroup & (uint32_t)0x07UL);   /* only values 0..7 are used          */
 80013c4:	68fb      	ldr	r3, [r7, #12]
 80013c6:	f003 0307 	and.w	r3, r3, #7
 80013ca:	61fb      	str	r3, [r7, #28]
  uint32_t PreemptPriorityBits;
  uint32_t SubPriorityBits;

  PreemptPriorityBits = ((7UL - PriorityGroupTmp) > (uint32_t)(__NVIC_PRIO_BITS)) ? (uint32_t)(__NVIC_PRIO_BITS) : (uint32_t)(7UL - PriorityGroupTmp);
 80013cc:	69fb      	ldr	r3, [r7, #28]
 80013ce:	f1c3 0307 	rsb	r3, r3, #7
 80013d2:	2b04      	cmp	r3, #4
 80013d4:	bf28      	it	cs
 80013d6:	2304      	movcs	r3, #4
 80013d8:	61bb      	str	r3, [r7, #24]
  SubPriorityBits     = ((PriorityGroupTmp + (uint32_t)(__NVIC_PRIO_BITS)) < (uint32_t)7UL) ? (uint32_t)0UL : (uint32_t)((PriorityGroupTmp - 7UL) + (uint32_t)(__NVIC_PRIO_BITS));
 80013da:	69fb      	ldr	r3, [r7, #28]
 80013dc:	3304      	adds	r3, #4
 80013de:	2b06      	cmp	r3, #6
 80013e0:	d902      	bls.n	80013e8 <NVIC_EncodePriority+0x30>
 80013e2:	69fb      	ldr	r3, [r7, #28]
 80013e4:	3b03      	subs	r3, #3
 80013e6:	e000      	b.n	80013ea <NVIC_EncodePriority+0x32>
 80013e8:	2300      	movs	r3, #0
 80013ea:	617b      	str	r3, [r7, #20]

  return (
           ((PreemptPriority & (uint32_t)((1UL << (PreemptPriorityBits)) - 1UL)) << SubPriorityBits) |
 80013ec:	f04f 32ff 	mov.w	r2, #4294967295
 80013f0:	69bb      	ldr	r3, [r7, #24]
 80013f2:	fa02 f303 	lsl.w	r3, r2, r3
 80013f6:	43da      	mvns	r2, r3
 80013f8:	68bb      	ldr	r3, [r7, #8]
 80013fa:	401a      	ands	r2, r3
 80013fc:	697b      	ldr	r3, [r7, #20]
 80013fe:	409a      	lsls	r2, r3
           ((SubPriority     & (uint32_t)((1UL << (SubPriorityBits    )) - 1UL)))
 8001400:	f04f 31ff 	mov.w	r1, #4294967295
 8001404:	697b      	ldr	r3, [r7, #20]
 8001406:	fa01 f303 	lsl.w	r3, r1, r3
 800140a:	43d9      	mvns	r1, r3
 800140c:	687b      	ldr	r3, [r7, #4]
 800140e:	400b      	ands	r3, r1
           ((PreemptPriority & (uint32_t)((1UL << (PreemptPriorityBits)) - 1UL)) << SubPriorityBits) |
 8001410:	4313      	orrs	r3, r2
         );
}
 8001412:	4618      	mov	r0, r3
 8001414:	3724      	adds	r7, #36	; 0x24
 8001416:	46bd      	mov	sp, r7
 8001418:	f85d 7b04 	ldr.w	r7, [sp], #4
 800141c:	4770      	bx	lr
	...

08001420 <SysTick_Config>:
  \note    When the variable <b>__Vendor_SysTickConfig</b> is set to 1, then the
           function <b>SysTick_Config</b> is not included. In this case, the file <b><i>device</i>.h</b>
           must contain a vendor-specific implementation of this function.
 */
__STATIC_INLINE uint32_t SysTick_Config(uint32_t ticks)
{
 8001420:	b580      	push	{r7, lr}
 8001422:	b082      	sub	sp, #8
 8001424:	af00      	add	r7, sp, #0
 8001426:	6078      	str	r0, [r7, #4]
  if ((ticks - 1UL) > SysTick_LOAD_RELOAD_Msk)
 8001428:	687b      	ldr	r3, [r7, #4]
 800142a:	3b01      	subs	r3, #1
 800142c:	f1b3 7f80 	cmp.w	r3, #16777216	; 0x1000000
 8001430:	d301      	bcc.n	8001436 <SysTick_Config+0x16>
  {
    return (1UL);                                                   /* Reload value impossible */
 8001432:	2301      	movs	r3, #1
 8001434:	e00f      	b.n	8001456 <SysTick_Config+0x36>
  }

  SysTick->LOAD  = (uint32_t)(ticks - 1UL);                         /* set reload register */
 8001436:	4a0a      	ldr	r2, [pc, #40]	; (8001460 <SysTick_Config+0x40>)
 8001438:	687b      	ldr	r3, [r7, #4]
 800143a:	3b01      	subs	r3, #1
 800143c:	6053      	str	r3, [r2, #4]
  NVIC_SetPriority (SysTick_IRQn, (1UL << __NVIC_PRIO_BITS) - 1UL); /* set Priority for Systick Interrupt */
 800143e:	210f      	movs	r1, #15
 8001440:	f04f 30ff 	mov.w	r0, #4294967295
 8001444:	f7ff ff8e 	bl	8001364 <__NVIC_SetPriority>
  SysTick->VAL   = 0UL;                                             /* Load the SysTick Counter Value */
 8001448:	4b05      	ldr	r3, [pc, #20]	; (8001460 <SysTick_Config+0x40>)
 800144a:	2200      	movs	r2, #0
 800144c:	609a      	str	r2, [r3, #8]
  SysTick->CTRL  = SysTick_CTRL_CLKSOURCE_Msk |
 800144e:	4b04      	ldr	r3, [pc, #16]	; (8001460 <SysTick_Config+0x40>)
 8001450:	2207      	movs	r2, #7
 8001452:	601a      	str	r2, [r3, #0]
                   SysTick_CTRL_TICKINT_Msk   |
                   SysTick_CTRL_ENABLE_Msk;                         /* Enable SysTick IRQ and SysTick Timer */
  return (0UL);                                                     /* Function successful */
 8001454:	2300      	movs	r3, #0
}
 8001456:	4618      	mov	r0, r3
 8001458:	3708      	adds	r7, #8
 800145a:	46bd      	mov	sp, r7
 800145c:	bd80      	pop	{r7, pc}
 800145e:	bf00      	nop
 8001460:	e000e010 	.word	0xe000e010

08001464 <HAL_NVIC_SetPriorityGrouping>:
  * @note   When the NVIC_PriorityGroup_0 is selected, IRQ preemption is no more possible. 
  *         The pending IRQ priority will be managed only by the subpriority. 
  * @retval None
  */
void HAL_NVIC_SetPriorityGrouping(uint32_t PriorityGroup)
{
 8001464:	b580      	push	{r7, lr}
 8001466:	b082      	sub	sp, #8
 8001468:	af00      	add	r7, sp, #0
 800146a:	6078      	str	r0, [r7, #4]
  /* Check the parameters */
  assert_param(IS_NVIC_PRIORITY_GROUP(PriorityGroup));
  
  /* Set the PRIGROUP[10:8] bits according to the PriorityGroup parameter value */
  NVIC_SetPriorityGrouping(PriorityGroup);
 800146c:	6878      	ldr	r0, [r7, #4]
 800146e:	f7ff ff29 	bl	80012c4 <__NVIC_SetPriorityGrouping>
}
 8001472:	bf00      	nop
 8001474:	3708      	adds	r7, #8
 8001476:	46bd      	mov	sp, r7
 8001478:	bd80      	pop	{r7, pc}

0800147a <HAL_NVIC_SetPriority>:
  *         This parameter can be a value between 0 and 15
  *         A lower priority value indicates a higher priority.          
  * @retval None
  */
void HAL_NVIC_SetPriority(IRQn_Type IRQn, uint32_t PreemptPriority, uint32_t SubPriority)
{ 
 800147a:	b580      	push	{r7, lr}
 800147c:	b086      	sub	sp, #24
 800147e:	af00      	add	r7, sp, #0
 8001480:	4603      	mov	r3, r0
 8001482:	60b9      	str	r1, [r7, #8]
 8001484:	607a      	str	r2, [r7, #4]
 8001486:	73fb      	strb	r3, [r7, #15]
  uint32_t prioritygroup = 0x00U;
 8001488:	2300      	movs	r3, #0
 800148a:	617b      	str	r3, [r7, #20]
  
  /* Check the parameters */
  assert_param(IS_NVIC_SUB_PRIORITY(SubPriority));
  assert_param(IS_NVIC_PREEMPTION_PRIORITY(PreemptPriority));
  
  prioritygroup = NVIC_GetPriorityGrouping();
 800148c:	f7ff ff3e 	bl	800130c <__NVIC_GetPriorityGrouping>
 8001490:	6178      	str	r0, [r7, #20]
  
  NVIC_SetPriority(IRQn, NVIC_EncodePriority(prioritygroup, PreemptPriority, SubPriority));
 8001492:	687a      	ldr	r2, [r7, #4]
 8001494:	68b9      	ldr	r1, [r7, #8]
 8001496:	6978      	ldr	r0, [r7, #20]
 8001498:	f7ff ff8e 	bl	80013b8 <NVIC_EncodePriority>
 800149c:	4602      	mov	r2, r0
 800149e:	f997 300f 	ldrsb.w	r3, [r7, #15]
 80014a2:	4611      	mov	r1, r2
 80014a4:	4618      	mov	r0, r3
 80014a6:	f7ff ff5d 	bl	8001364 <__NVIC_SetPriority>
}
 80014aa:	bf00      	nop
 80014ac:	3718      	adds	r7, #24
 80014ae:	46bd      	mov	sp, r7
 80014b0:	bd80      	pop	{r7, pc}

080014b2 <HAL_NVIC_EnableIRQ>:
  *         This parameter can be an enumerator of IRQn_Type enumeration
  *         (For the complete STM32 Devices IRQ Channels list, please refer to the appropriate CMSIS device file (stm32f4xxxx.h))
  * @retval None
  */
void HAL_NVIC_EnableIRQ(IRQn_Type IRQn)
{
 80014b2:	b580      	push	{r7, lr}
 80014b4:	b082      	sub	sp, #8
 80014b6:	af00      	add	r7, sp, #0
 80014b8:	4603      	mov	r3, r0
 80014ba:	71fb      	strb	r3, [r7, #7]
  /* Check the parameters */
  assert_param(IS_NVIC_DEVICE_IRQ(IRQn));
  
  /* Enable interrupt */
  NVIC_EnableIRQ(IRQn);
 80014bc:	f997 3007 	ldrsb.w	r3, [r7, #7]
 80014c0:	4618      	mov	r0, r3
 80014c2:	f7ff ff31 	bl	8001328 <__NVIC_EnableIRQ>
}
 80014c6:	bf00      	nop
 80014c8:	3708      	adds	r7, #8
 80014ca:	46bd      	mov	sp, r7
 80014cc:	bd80      	pop	{r7, pc}

080014ce <HAL_SYSTICK_Config>:
  * @param  TicksNumb Specifies the ticks Number of ticks between two interrupts.
  * @retval status:  - 0  Function succeeded.
  *                  - 1  Function failed.
  */
uint32_t HAL_SYSTICK_Config(uint32_t TicksNumb)
{
 80014ce:	b580      	push	{r7, lr}
 80014d0:	b082      	sub	sp, #8
 80014d2:	af00      	add	r7, sp, #0
 80014d4:	6078      	str	r0, [r7, #4]
   return SysTick_Config(TicksNumb);
 80014d6:	6878      	ldr	r0, [r7, #4]
 80014d8:	f7ff ffa2 	bl	8001420 <SysTick_Config>
 80014dc:	4603      	mov	r3, r0
}
 80014de:	4618      	mov	r0, r3
 80014e0:	3708      	adds	r7, #8
 80014e2:	46bd      	mov	sp, r7
 80014e4:	bd80      	pop	{r7, pc}
	...

080014e8 <HAL_GPIO_Init>:
  * @param  GPIO_Init pointer to a GPIO_InitTypeDef structure that contains
  *         the configuration information for the specified GPIO peripheral.
  * @retval None
  */
void HAL_GPIO_Init(GPIO_TypeDef  *GPIOx, GPIO_InitTypeDef *GPIO_Init)
{
 80014e8:	b480      	push	{r7}
 80014ea:	b089      	sub	sp, #36	; 0x24
 80014ec:	af00      	add	r7, sp, #0
 80014ee:	6078      	str	r0, [r7, #4]
 80014f0:	6039      	str	r1, [r7, #0]
  uint32_t position;
  uint32_t ioposition = 0x00U;
 80014f2:	2300      	movs	r3, #0
 80014f4:	617b      	str	r3, [r7, #20]
  uint32_t iocurrent = 0x00U;
 80014f6:	2300      	movs	r3, #0
 80014f8:	613b      	str	r3, [r7, #16]
  uint32_t temp = 0x00U;
 80014fa:	2300      	movs	r3, #0
 80014fc:	61bb      	str	r3, [r7, #24]
  assert_param(IS_GPIO_ALL_INSTANCE(GPIOx));
  assert_param(IS_GPIO_PIN(GPIO_Init->Pin));
  assert_param(IS_GPIO_MODE(GPIO_Init->Mode));

  /* Configure the port pins */
  for(position = 0U; position < GPIO_NUMBER; position++)
 80014fe:	2300      	movs	r3, #0
 8001500:	61fb      	str	r3, [r7, #28]
 8001502:	e16b      	b.n	80017dc <HAL_GPIO_Init+0x2f4>
  {
    /* Get the IO position */
    ioposition = 0x01U << position;
 8001504:	2201      	movs	r2, #1
 8001506:	69fb      	ldr	r3, [r7, #28]
 8001508:	fa02 f303 	lsl.w	r3, r2, r3
 800150c:	617b      	str	r3, [r7, #20]
    /* Get the current IO position */
    iocurrent = (uint32_t)(GPIO_Init->Pin) & ioposition;
 800150e:	683b      	ldr	r3, [r7, #0]
 8001510:	681b      	ldr	r3, [r3, #0]
 8001512:	697a      	ldr	r2, [r7, #20]
 8001514:	4013      	ands	r3, r2
 8001516:	613b      	str	r3, [r7, #16]

    if(iocurrent == ioposition)
 8001518:	693a      	ldr	r2, [r7, #16]
 800151a:	697b      	ldr	r3, [r7, #20]
 800151c:	429a      	cmp	r2, r3
 800151e:	f040 815a 	bne.w	80017d6 <HAL_GPIO_Init+0x2ee>
    {
      /*--------------------- GPIO Mode Configuration ------------------------*/
      /* In case of Output or Alternate function mode selection */
      if(((GPIO_Init->Mode & GPIO_MODE) == MODE_OUTPUT) || \
 8001522:	683b      	ldr	r3, [r7, #0]
 8001524:	685b      	ldr	r3, [r3, #4]
 8001526:	f003 0303 	and.w	r3, r3, #3
 800152a:	2b01      	cmp	r3, #1
 800152c:	d005      	beq.n	800153a <HAL_GPIO_Init+0x52>
          (GPIO_Init->Mode & GPIO_MODE) == MODE_AF)
 800152e:	683b      	ldr	r3, [r7, #0]
 8001530:	685b      	ldr	r3, [r3, #4]
 8001532:	f003 0303 	and.w	r3, r3, #3
      if(((GPIO_Init->Mode & GPIO_MODE) == MODE_OUTPUT) || \
 8001536:	2b02      	cmp	r3, #2
 8001538:	d130      	bne.n	800159c <HAL_GPIO_Init+0xb4>
      {
        /* Check the Speed parameter */
        assert_param(IS_GPIO_SPEED(GPIO_Init->Speed));
        /* Configure the IO Speed */
        temp = GPIOx->OSPEEDR; 
 800153a:	687b      	ldr	r3, [r7, #4]
 800153c:	689b      	ldr	r3, [r3, #8]
 800153e:	61bb      	str	r3, [r7, #24]
        temp &= ~(GPIO_OSPEEDER_OSPEEDR0 << (position * 2U));
 8001540:	69fb      	ldr	r3, [r7, #28]
 8001542:	005b      	lsls	r3, r3, #1
 8001544:	2203      	movs	r2, #3
 8001546:	fa02 f303 	lsl.w	r3, r2, r3
 800154a:	43db      	mvns	r3, r3
 800154c:	69ba      	ldr	r2, [r7, #24]
 800154e:	4013      	ands	r3, r2
 8001550:	61bb      	str	r3, [r7, #24]
        temp |= (GPIO_Init->Speed << (position * 2U));
 8001552:	683b      	ldr	r3, [r7, #0]
 8001554:	68da      	ldr	r2, [r3, #12]
 8001556:	69fb      	ldr	r3, [r7, #28]
 8001558:	005b      	lsls	r3, r3, #1
 800155a:	fa02 f303 	lsl.w	r3, r2, r3
 800155e:	69ba      	ldr	r2, [r7, #24]
 8001560:	4313      	orrs	r3, r2
 8001562:	61bb      	str	r3, [r7, #24]
        GPIOx->OSPEEDR = temp;
 8001564:	687b      	ldr	r3, [r7, #4]
 8001566:	69ba      	ldr	r2, [r7, #24]
 8001568:	609a      	str	r2, [r3, #8]

        /* Configure the IO Output Type */
        temp = GPIOx->OTYPER;
 800156a:	687b      	ldr	r3, [r7, #4]
 800156c:	685b      	ldr	r3, [r3, #4]
 800156e:	61bb      	str	r3, [r7, #24]
        temp &= ~(GPIO_OTYPER_OT_0 << position) ;
 8001570:	2201      	movs	r2, #1
 8001572:	69fb      	ldr	r3, [r7, #28]
 8001574:	fa02 f303 	lsl.w	r3, r2, r3
 8001578:	43db      	mvns	r3, r3
 800157a:	69ba      	ldr	r2, [r7, #24]
 800157c:	4013      	ands	r3, r2
 800157e:	61bb      	str	r3, [r7, #24]
        temp |= (((GPIO_Init->Mode & OUTPUT_TYPE) >> OUTPUT_TYPE_Pos) << position);
 8001580:	683b      	ldr	r3, [r7, #0]
 8001582:	685b      	ldr	r3, [r3, #4]
 8001584:	091b      	lsrs	r3, r3, #4
 8001586:	f003 0201 	and.w	r2, r3, #1
 800158a:	69fb      	ldr	r3, [r7, #28]
 800158c:	fa02 f303 	lsl.w	r3, r2, r3
 8001590:	69ba      	ldr	r2, [r7, #24]
 8001592:	4313      	orrs	r3, r2
 8001594:	61bb      	str	r3, [r7, #24]
        GPIOx->OTYPER = temp;
 8001596:	687b      	ldr	r3, [r7, #4]
 8001598:	69ba      	ldr	r2, [r7, #24]
 800159a:	605a      	str	r2, [r3, #4]
       }

      if((GPIO_Init->Mode & GPIO_MODE) != MODE_ANALOG)
 800159c:	683b      	ldr	r3, [r7, #0]
 800159e:	685b      	ldr	r3, [r3, #4]
 80015a0:	f003 0303 	and.w	r3, r3, #3
 80015a4:	2b03      	cmp	r3, #3
 80015a6:	d017      	beq.n	80015d8 <HAL_GPIO_Init+0xf0>
      {
        /* Check the parameters */
        assert_param(IS_GPIO_PULL(GPIO_Init->Pull));
        
        /* Activate the Pull-up or Pull down resistor for the current IO */
        temp = GPIOx->PUPDR;
 80015a8:	687b      	ldr	r3, [r7, #4]
 80015aa:	68db      	ldr	r3, [r3, #12]
 80015ac:	61bb      	str	r3, [r7, #24]
        temp &= ~(GPIO_PUPDR_PUPDR0 << (position * 2U));
 80015ae:	69fb      	ldr	r3, [r7, #28]
 80015b0:	005b      	lsls	r3, r3, #1
 80015b2:	2203      	movs	r2, #3
 80015b4:	fa02 f303 	lsl.w	r3, r2, r3
 80015b8:	43db      	mvns	r3, r3
 80015ba:	69ba      	ldr	r2, [r7, #24]
 80015bc:	4013      	ands	r3, r2
 80015be:	61bb      	str	r3, [r7, #24]
        temp |= ((GPIO_Init->Pull) << (position * 2U));
 80015c0:	683b      	ldr	r3, [r7, #0]
 80015c2:	689a      	ldr	r2, [r3, #8]
 80015c4:	69fb      	ldr	r3, [r7, #28]
 80015c6:	005b      	lsls	r3, r3, #1
 80015c8:	fa02 f303 	lsl.w	r3, r2, r3
 80015cc:	69ba      	ldr	r2, [r7, #24]
 80015ce:	4313      	orrs	r3, r2
 80015d0:	61bb      	str	r3, [r7, #24]
        GPIOx->PUPDR = temp;
 80015d2:	687b      	ldr	r3, [r7, #4]
 80015d4:	69ba      	ldr	r2, [r7, #24]
 80015d6:	60da      	str	r2, [r3, #12]
      }

      /* In case of Alternate function mode selection */
      if((GPIO_Init->Mode & GPIO_MODE) == MODE_AF)
 80015d8:	683b      	ldr	r3, [r7, #0]
 80015da:	685b      	ldr	r3, [r3, #4]
 80015dc:	f003 0303 	and.w	r3, r3, #3
 80015e0:	2b02      	cmp	r3, #2
 80015e2:	d123      	bne.n	800162c <HAL_GPIO_Init+0x144>
      {
        /* Check the Alternate function parameter */
        assert_param(IS_GPIO_AF(GPIO_Init->Alternate));
        /* Configure Alternate function mapped with the current IO */
        temp = GPIOx->AFR[position >> 3U];
 80015e4:	69fb      	ldr	r3, [r7, #28]
 80015e6:	08da      	lsrs	r2, r3, #3
 80015e8:	687b      	ldr	r3, [r7, #4]
 80015ea:	3208      	adds	r2, #8
 80015ec:	f853 3022 	ldr.w	r3, [r3, r2, lsl #2]
 80015f0:	61bb      	str	r3, [r7, #24]
        temp &= ~(0xFU << ((uint32_t)(position & 0x07U) * 4U)) ;
 80015f2:	69fb      	ldr	r3, [r7, #28]
 80015f4:	f003 0307 	and.w	r3, r3, #7
 80015f8:	009b      	lsls	r3, r3, #2
 80015fa:	220f      	movs	r2, #15
 80015fc:	fa02 f303 	lsl.w	r3, r2, r3
 8001600:	43db      	mvns	r3, r3
 8001602:	69ba      	ldr	r2, [r7, #24]
 8001604:	4013      	ands	r3, r2
 8001606:	61bb      	str	r3, [r7, #24]
        temp |= ((uint32_t)(GPIO_Init->Alternate) << (((uint32_t)position & 0x07U) * 4U));
 8001608:	683b      	ldr	r3, [r7, #0]
 800160a:	691a      	ldr	r2, [r3, #16]
 800160c:	69fb      	ldr	r3, [r7, #28]
 800160e:	f003 0307 	and.w	r3, r3, #7
 8001612:	009b      	lsls	r3, r3, #2
 8001614:	fa02 f303 	lsl.w	r3, r2, r3
 8001618:	69ba      	ldr	r2, [r7, #24]
 800161a:	4313      	orrs	r3, r2
 800161c:	61bb      	str	r3, [r7, #24]
        GPIOx->AFR[position >> 3U] = temp;
 800161e:	69fb      	ldr	r3, [r7, #28]
 8001620:	08da      	lsrs	r2, r3, #3
 8001622:	687b      	ldr	r3, [r7, #4]
 8001624:	3208      	adds	r2, #8
 8001626:	69b9      	ldr	r1, [r7, #24]
 8001628:	f843 1022 	str.w	r1, [r3, r2, lsl #2]
      }

      /* Configure IO Direction mode (Input, Output, Alternate or Analog) */
      temp = GPIOx->MODER;
 800162c:	687b      	ldr	r3, [r7, #4]
 800162e:	681b      	ldr	r3, [r3, #0]
 8001630:	61bb      	str	r3, [r7, #24]
      temp &= ~(GPIO_MODER_MODER0 << (position * 2U));
 8001632:	69fb      	ldr	r3, [r7, #28]
 8001634:	005b      	lsls	r3, r3, #1
 8001636:	2203      	movs	r2, #3
 8001638:	fa02 f303 	lsl.w	r3, r2, r3
 800163c:	43db      	mvns	r3, r3
 800163e:	69ba      	ldr	r2, [r7, #24]
 8001640:	4013      	ands	r3, r2
 8001642:	61bb      	str	r3, [r7, #24]
      temp |= ((GPIO_Init->Mode & GPIO_MODE) << (position * 2U));
 8001644:	683b      	ldr	r3, [r7, #0]
 8001646:	685b      	ldr	r3, [r3, #4]
 8001648:	f003 0203 	and.w	r2, r3, #3
 800164c:	69fb      	ldr	r3, [r7, #28]
 800164e:	005b      	lsls	r3, r3, #1
 8001650:	fa02 f303 	lsl.w	r3, r2, r3
 8001654:	69ba      	ldr	r2, [r7, #24]
 8001656:	4313      	orrs	r3, r2
 8001658:	61bb      	str	r3, [r7, #24]
      GPIOx->MODER = temp;
 800165a:	687b      	ldr	r3, [r7, #4]
 800165c:	69ba      	ldr	r2, [r7, #24]
 800165e:	601a      	str	r2, [r3, #0]

      /*--------------------- EXTI Mode Configuration ------------------------*/
      /* Configure the External Interrupt or event for the current IO */
      if((GPIO_Init->Mode & EXTI_MODE) != 0x00U)
 8001660:	683b      	ldr	r3, [r7, #0]
 8001662:	685b      	ldr	r3, [r3, #4]
 8001664:	f403 3340 	and.w	r3, r3, #196608	; 0x30000
 8001668:	2b00      	cmp	r3, #0
 800166a:	f000 80b4 	beq.w	80017d6 <HAL_GPIO_Init+0x2ee>
      {
        /* Enable SYSCFG Clock */
        __HAL_RCC_SYSCFG_CLK_ENABLE();
 800166e:	2300      	movs	r3, #0
 8001670:	60fb      	str	r3, [r7, #12]
 8001672:	4b60      	ldr	r3, [pc, #384]	; (80017f4 <HAL_GPIO_Init+0x30c>)
 8001674:	6c5b      	ldr	r3, [r3, #68]	; 0x44
 8001676:	4a5f      	ldr	r2, [pc, #380]	; (80017f4 <HAL_GPIO_Init+0x30c>)
 8001678:	f443 4380 	orr.w	r3, r3, #16384	; 0x4000
 800167c:	6453      	str	r3, [r2, #68]	; 0x44
 800167e:	4b5d      	ldr	r3, [pc, #372]	; (80017f4 <HAL_GPIO_Init+0x30c>)
 8001680:	6c5b      	ldr	r3, [r3, #68]	; 0x44
 8001682:	f403 4380 	and.w	r3, r3, #16384	; 0x4000
 8001686:	60fb      	str	r3, [r7, #12]
 8001688:	68fb      	ldr	r3, [r7, #12]

        temp = SYSCFG->EXTICR[position >> 2U];
 800168a:	4a5b      	ldr	r2, [pc, #364]	; (80017f8 <HAL_GPIO_Init+0x310>)
 800168c:	69fb      	ldr	r3, [r7, #28]
 800168e:	089b      	lsrs	r3, r3, #2
 8001690:	3302      	adds	r3, #2
 8001692:	f852 3023 	ldr.w	r3, [r2, r3, lsl #2]
 8001696:	61bb      	str	r3, [r7, #24]
        temp &= ~(0x0FU << (4U * (position & 0x03U)));
 8001698:	69fb      	ldr	r3, [r7, #28]
 800169a:	f003 0303 	and.w	r3, r3, #3
 800169e:	009b      	lsls	r3, r3, #2
 80016a0:	220f      	movs	r2, #15
 80016a2:	fa02 f303 	lsl.w	r3, r2, r3
 80016a6:	43db      	mvns	r3, r3
 80016a8:	69ba      	ldr	r2, [r7, #24]
 80016aa:	4013      	ands	r3, r2
 80016ac:	61bb      	str	r3, [r7, #24]
        temp |= ((uint32_t)(GPIO_GET_INDEX(GPIOx)) << (4U * (position & 0x03U)));
 80016ae:	687b      	ldr	r3, [r7, #4]
 80016b0:	4a52      	ldr	r2, [pc, #328]	; (80017fc <HAL_GPIO_Init+0x314>)
 80016b2:	4293      	cmp	r3, r2
 80016b4:	d02b      	beq.n	800170e <HAL_GPIO_Init+0x226>
 80016b6:	687b      	ldr	r3, [r7, #4]
 80016b8:	4a51      	ldr	r2, [pc, #324]	; (8001800 <HAL_GPIO_Init+0x318>)
 80016ba:	4293      	cmp	r3, r2
 80016bc:	d025      	beq.n	800170a <HAL_GPIO_Init+0x222>
 80016be:	687b      	ldr	r3, [r7, #4]
 80016c0:	4a50      	ldr	r2, [pc, #320]	; (8001804 <HAL_GPIO_Init+0x31c>)
 80016c2:	4293      	cmp	r3, r2
 80016c4:	d01f      	beq.n	8001706 <HAL_GPIO_Init+0x21e>
 80016c6:	687b      	ldr	r3, [r7, #4]
 80016c8:	4a4f      	ldr	r2, [pc, #316]	; (8001808 <HAL_GPIO_Init+0x320>)
 80016ca:	4293      	cmp	r3, r2
 80016cc:	d019      	beq.n	8001702 <HAL_GPIO_Init+0x21a>
 80016ce:	687b      	ldr	r3, [r7, #4]
 80016d0:	4a4e      	ldr	r2, [pc, #312]	; (800180c <HAL_GPIO_Init+0x324>)
 80016d2:	4293      	cmp	r3, r2
 80016d4:	d013      	beq.n	80016fe <HAL_GPIO_Init+0x216>
 80016d6:	687b      	ldr	r3, [r7, #4]
 80016d8:	4a4d      	ldr	r2, [pc, #308]	; (8001810 <HAL_GPIO_Init+0x328>)
 80016da:	4293      	cmp	r3, r2
 80016dc:	d00d      	beq.n	80016fa <HAL_GPIO_Init+0x212>
 80016de:	687b      	ldr	r3, [r7, #4]
 80016e0:	4a4c      	ldr	r2, [pc, #304]	; (8001814 <HAL_GPIO_Init+0x32c>)
 80016e2:	4293      	cmp	r3, r2
 80016e4:	d007      	beq.n	80016f6 <HAL_GPIO_Init+0x20e>
 80016e6:	687b      	ldr	r3, [r7, #4]
 80016e8:	4a4b      	ldr	r2, [pc, #300]	; (8001818 <HAL_GPIO_Init+0x330>)
 80016ea:	4293      	cmp	r3, r2
 80016ec:	d101      	bne.n	80016f2 <HAL_GPIO_Init+0x20a>
 80016ee:	2307      	movs	r3, #7
 80016f0:	e00e      	b.n	8001710 <HAL_GPIO_Init+0x228>
 80016f2:	2308      	movs	r3, #8
 80016f4:	e00c      	b.n	8001710 <HAL_GPIO_Init+0x228>
 80016f6:	2306      	movs	r3, #6
 80016f8:	e00a      	b.n	8001710 <HAL_GPIO_Init+0x228>
 80016fa:	2305      	movs	r3, #5
 80016fc:	e008      	b.n	8001710 <HAL_GPIO_Init+0x228>
 80016fe:	2304      	movs	r3, #4
 8001700:	e006      	b.n	8001710 <HAL_GPIO_Init+0x228>
 8001702:	2303      	movs	r3, #3
 8001704:	e004      	b.n	8001710 <HAL_GPIO_Init+0x228>
 8001706:	2302      	movs	r3, #2
 8001708:	e002      	b.n	8001710 <HAL_GPIO_Init+0x228>
 800170a:	2301      	movs	r3, #1
 800170c:	e000      	b.n	8001710 <HAL_GPIO_Init+0x228>
 800170e:	2300      	movs	r3, #0
 8001710:	69fa      	ldr	r2, [r7, #28]
 8001712:	f002 0203 	and.w	r2, r2, #3
 8001716:	0092      	lsls	r2, r2, #2
 8001718:	4093      	lsls	r3, r2
 800171a:	69ba      	ldr	r2, [r7, #24]
 800171c:	4313      	orrs	r3, r2
 800171e:	61bb      	str	r3, [r7, #24]
        SYSCFG->EXTICR[position >> 2U] = temp;
 8001720:	4935      	ldr	r1, [pc, #212]	; (80017f8 <HAL_GPIO_Init+0x310>)
 8001722:	69fb      	ldr	r3, [r7, #28]
 8001724:	089b      	lsrs	r3, r3, #2
 8001726:	3302      	adds	r3, #2
 8001728:	69ba      	ldr	r2, [r7, #24]
 800172a:	f841 2023 	str.w	r2, [r1, r3, lsl #2]

        /* Clear Rising Falling edge configuration */
        temp = EXTI->RTSR;
 800172e:	4b3b      	ldr	r3, [pc, #236]	; (800181c <HAL_GPIO_Init+0x334>)
 8001730:	689b      	ldr	r3, [r3, #8]
 8001732:	61bb      	str	r3, [r7, #24]
        temp &= ~((uint32_t)iocurrent);
 8001734:	693b      	ldr	r3, [r7, #16]
 8001736:	43db      	mvns	r3, r3
 8001738:	69ba      	ldr	r2, [r7, #24]
 800173a:	4013      	ands	r3, r2
 800173c:	61bb      	str	r3, [r7, #24]
        if((GPIO_Init->Mode & TRIGGER_RISING) != 0x00U)
 800173e:	683b      	ldr	r3, [r7, #0]
 8001740:	685b      	ldr	r3, [r3, #4]
 8001742:	f403 1380 	and.w	r3, r3, #1048576	; 0x100000
 8001746:	2b00      	cmp	r3, #0
 8001748:	d003      	beq.n	8001752 <HAL_GPIO_Init+0x26a>
        {
          temp |= iocurrent;
 800174a:	69ba      	ldr	r2, [r7, #24]
 800174c:	693b      	ldr	r3, [r7, #16]
 800174e:	4313      	orrs	r3, r2
 8001750:	61bb      	str	r3, [r7, #24]
        }
        EXTI->RTSR = temp;
 8001752:	4a32      	ldr	r2, [pc, #200]	; (800181c <HAL_GPIO_Init+0x334>)
 8001754:	69bb      	ldr	r3, [r7, #24]
 8001756:	6093      	str	r3, [r2, #8]

        temp = EXTI->FTSR;
 8001758:	4b30      	ldr	r3, [pc, #192]	; (800181c <HAL_GPIO_Init+0x334>)
 800175a:	68db      	ldr	r3, [r3, #12]
 800175c:	61bb      	str	r3, [r7, #24]
        temp &= ~((uint32_t)iocurrent);
 800175e:	693b      	ldr	r3, [r7, #16]
 8001760:	43db      	mvns	r3, r3
 8001762:	69ba      	ldr	r2, [r7, #24]
 8001764:	4013      	ands	r3, r2
 8001766:	61bb      	str	r3, [r7, #24]
        if((GPIO_Init->Mode & TRIGGER_FALLING) != 0x00U)
 8001768:	683b      	ldr	r3, [r7, #0]
 800176a:	685b      	ldr	r3, [r3, #4]
 800176c:	f403 1300 	and.w	r3, r3, #2097152	; 0x200000
 8001770:	2b00      	cmp	r3, #0
 8001772:	d003      	beq.n	800177c <HAL_GPIO_Init+0x294>
        {
          temp |= iocurrent;
 8001774:	69ba      	ldr	r2, [r7, #24]
 8001776:	693b      	ldr	r3, [r7, #16]
 8001778:	4313      	orrs	r3, r2
 800177a:	61bb      	str	r3, [r7, #24]
        }
        EXTI->FTSR = temp;
 800177c:	4a27      	ldr	r2, [pc, #156]	; (800181c <HAL_GPIO_Init+0x334>)
 800177e:	69bb      	ldr	r3, [r7, #24]
 8001780:	60d3      	str	r3, [r2, #12]

        temp = EXTI->EMR;
 8001782:	4b26      	ldr	r3, [pc, #152]	; (800181c <HAL_GPIO_Init+0x334>)
 8001784:	685b      	ldr	r3, [r3, #4]
 8001786:	61bb      	str	r3, [r7, #24]
        temp &= ~((uint32_t)iocurrent);
 8001788:	693b      	ldr	r3, [r7, #16]
 800178a:	43db      	mvns	r3, r3
 800178c:	69ba      	ldr	r2, [r7, #24]
 800178e:	4013      	ands	r3, r2
 8001790:	61bb      	str	r3, [r7, #24]
        if((GPIO_Init->Mode & EXTI_EVT) != 0x00U)
 8001792:	683b      	ldr	r3, [r7, #0]
 8001794:	685b      	ldr	r3, [r3, #4]
 8001796:	f403 3300 	and.w	r3, r3, #131072	; 0x20000
 800179a:	2b00      	cmp	r3, #0
 800179c:	d003      	beq.n	80017a6 <HAL_GPIO_Init+0x2be>
        {
          temp |= iocurrent;
 800179e:	69ba      	ldr	r2, [r7, #24]
 80017a0:	693b      	ldr	r3, [r7, #16]
 80017a2:	4313      	orrs	r3, r2
 80017a4:	61bb      	str	r3, [r7, #24]
        }
        EXTI->EMR = temp;
 80017a6:	4a1d      	ldr	r2, [pc, #116]	; (800181c <HAL_GPIO_Init+0x334>)
 80017a8:	69bb      	ldr	r3, [r7, #24]
 80017aa:	6053      	str	r3, [r2, #4]

        /* Clear EXTI line configuration */
        temp = EXTI->IMR;
 80017ac:	4b1b      	ldr	r3, [pc, #108]	; (800181c <HAL_GPIO_Init+0x334>)
 80017ae:	681b      	ldr	r3, [r3, #0]
 80017b0:	61bb      	str	r3, [r7, #24]
        temp &= ~((uint32_t)iocurrent);
 80017b2:	693b      	ldr	r3, [r7, #16]
 80017b4:	43db      	mvns	r3, r3
 80017b6:	69ba      	ldr	r2, [r7, #24]
 80017b8:	4013      	ands	r3, r2
 80017ba:	61bb      	str	r3, [r7, #24]
        if((GPIO_Init->Mode & EXTI_IT) != 0x00U)
 80017bc:	683b      	ldr	r3, [r7, #0]
 80017be:	685b      	ldr	r3, [r3, #4]
 80017c0:	f403 3380 	and.w	r3, r3, #65536	; 0x10000
 80017c4:	2b00      	cmp	r3, #0
 80017c6:	d003      	beq.n	80017d0 <HAL_GPIO_Init+0x2e8>
        {
          temp |= iocurrent;
 80017c8:	69ba      	ldr	r2, [r7, #24]
 80017ca:	693b      	ldr	r3, [r7, #16]
 80017cc:	4313      	orrs	r3, r2
 80017ce:	61bb      	str	r3, [r7, #24]
        }
        EXTI->IMR = temp;
 80017d0:	4a12      	ldr	r2, [pc, #72]	; (800181c <HAL_GPIO_Init+0x334>)
 80017d2:	69bb      	ldr	r3, [r7, #24]
 80017d4:	6013      	str	r3, [r2, #0]
  for(position = 0U; position < GPIO_NUMBER; position++)
 80017d6:	69fb      	ldr	r3, [r7, #28]
 80017d8:	3301      	adds	r3, #1
 80017da:	61fb      	str	r3, [r7, #28]
 80017dc:	69fb      	ldr	r3, [r7, #28]
 80017de:	2b0f      	cmp	r3, #15
 80017e0:	f67f ae90 	bls.w	8001504 <HAL_GPIO_Init+0x1c>
      }
    }
  }
}
 80017e4:	bf00      	nop
 80017e6:	bf00      	nop
 80017e8:	3724      	adds	r7, #36	; 0x24
 80017ea:	46bd      	mov	sp, r7
 80017ec:	f85d 7b04 	ldr.w	r7, [sp], #4
 80017f0:	4770      	bx	lr
 80017f2:	bf00      	nop
 80017f4:	40023800 	.word	0x40023800
 80017f8:	40013800 	.word	0x40013800
 80017fc:	40020000 	.word	0x40020000
 8001800:	40020400 	.word	0x40020400
 8001804:	40020800 	.word	0x40020800
 8001808:	40020c00 	.word	0x40020c00
 800180c:	40021000 	.word	0x40021000
 8001810:	40021400 	.word	0x40021400
 8001814:	40021800 	.word	0x40021800
 8001818:	40021c00 	.word	0x40021c00
 800181c:	40013c00 	.word	0x40013c00

08001820 <HAL_GPIO_WritePin>:
  *            @arg GPIO_PIN_RESET: to clear the port pin
  *            @arg GPIO_PIN_SET: to set the port pin
  * @retval None
  */
void HAL_GPIO_WritePin(GPIO_TypeDef* GPIOx, uint16_t GPIO_Pin, GPIO_PinState PinState)
{
 8001820:	b480      	push	{r7}
 8001822:	b083      	sub	sp, #12
 8001824:	af00      	add	r7, sp, #0
 8001826:	6078      	str	r0, [r7, #4]
 8001828:	460b      	mov	r3, r1
 800182a:	807b      	strh	r3, [r7, #2]
 800182c:	4613      	mov	r3, r2
 800182e:	707b      	strb	r3, [r7, #1]
  /* Check the parameters */
  assert_param(IS_GPIO_PIN(GPIO_Pin));
  assert_param(IS_GPIO_PIN_ACTION(PinState));

  if(PinState != GPIO_PIN_RESET)
 8001830:	787b      	ldrb	r3, [r7, #1]
 8001832:	2b00      	cmp	r3, #0
 8001834:	d003      	beq.n	800183e <HAL_GPIO_WritePin+0x1e>
  {
    GPIOx->BSRR = GPIO_Pin;
 8001836:	887a      	ldrh	r2, [r7, #2]
 8001838:	687b      	ldr	r3, [r7, #4]
 800183a:	619a      	str	r2, [r3, #24]
  }
  else
  {
    GPIOx->BSRR = (uint32_t)GPIO_Pin << 16U;
  }
}
 800183c:	e003      	b.n	8001846 <HAL_GPIO_WritePin+0x26>
    GPIOx->BSRR = (uint32_t)GPIO_Pin << 16U;
 800183e:	887b      	ldrh	r3, [r7, #2]
 8001840:	041a      	lsls	r2, r3, #16
 8001842:	687b      	ldr	r3, [r7, #4]
 8001844:	619a      	str	r2, [r3, #24]
}
 8001846:	bf00      	nop
 8001848:	370c      	adds	r7, #12
 800184a:	46bd      	mov	sp, r7
 800184c:	f85d 7b04 	ldr.w	r7, [sp], #4
 8001850:	4770      	bx	lr
	...

08001854 <HAL_RCC_OscConfig>:
  *         supported by this API. User should request a transition to HSE Off
  *         first and then HSE On or HSE Bypass.
  * @retval HAL status
  */
__weak HAL_StatusTypeDef HAL_RCC_OscConfig(RCC_OscInitTypeDef  *RCC_OscInitStruct)
{
 8001854:	b580      	push	{r7, lr}
 8001856:	b086      	sub	sp, #24
 8001858:	af00      	add	r7, sp, #0
 800185a:	6078      	str	r0, [r7, #4]
  uint32_t tickstart, pll_config;

  /* Check Null pointer */
  if(RCC_OscInitStruct == NULL)
 800185c:	687b      	ldr	r3, [r7, #4]
 800185e:	2b00      	cmp	r3, #0
 8001860:	d101      	bne.n	8001866 <HAL_RCC_OscConfig+0x12>
  {
    return HAL_ERROR;
 8001862:	2301      	movs	r3, #1
 8001864:	e267      	b.n	8001d36 <HAL_RCC_OscConfig+0x4e2>
  }

  /* Check the parameters */
  assert_param(IS_RCC_OSCILLATORTYPE(RCC_OscInitStruct->OscillatorType));
  /*------------------------------- HSE Configuration ------------------------*/
  if(((RCC_OscInitStruct->OscillatorType) & RCC_OSCILLATORTYPE_HSE) == RCC_OSCILLATORTYPE_HSE)
 8001866:	687b      	ldr	r3, [r7, #4]
 8001868:	681b      	ldr	r3, [r3, #0]
 800186a:	f003 0301 	and.w	r3, r3, #1
 800186e:	2b00      	cmp	r3, #0
 8001870:	d075      	beq.n	800195e <HAL_RCC_OscConfig+0x10a>
  {
    /* Check the parameters */
    assert_param(IS_RCC_HSE(RCC_OscInitStruct->HSEState));
    /* When the HSE is used as system clock or clock source for PLL in these cases HSE will not disabled */
    if((__HAL_RCC_GET_SYSCLK_SOURCE() == RCC_CFGR_SWS_HSE) ||\
 8001872:	4b88      	ldr	r3, [pc, #544]	; (8001a94 <HAL_RCC_OscConfig+0x240>)
 8001874:	689b      	ldr	r3, [r3, #8]
 8001876:	f003 030c 	and.w	r3, r3, #12
 800187a:	2b04      	cmp	r3, #4
 800187c:	d00c      	beq.n	8001898 <HAL_RCC_OscConfig+0x44>
      ((__HAL_RCC_GET_SYSCLK_SOURCE() == RCC_CFGR_SWS_PLL) && ((RCC->PLLCFGR & RCC_PLLCFGR_PLLSRC) == RCC_PLLCFGR_PLLSRC_HSE)))
 800187e:	4b85      	ldr	r3, [pc, #532]	; (8001a94 <HAL_RCC_OscConfig+0x240>)
 8001880:	689b      	ldr	r3, [r3, #8]
 8001882:	f003 030c 	and.w	r3, r3, #12
    if((__HAL_RCC_GET_SYSCLK_SOURCE() == RCC_CFGR_SWS_HSE) ||\
 8001886:	2b08      	cmp	r3, #8
 8001888:	d112      	bne.n	80018b0 <HAL_RCC_OscConfig+0x5c>
      ((__HAL_RCC_GET_SYSCLK_SOURCE() == RCC_CFGR_SWS_PLL) && ((RCC->PLLCFGR & RCC_PLLCFGR_PLLSRC) == RCC_PLLCFGR_PLLSRC_HSE)))
 800188a:	4b82      	ldr	r3, [pc, #520]	; (8001a94 <HAL_RCC_OscConfig+0x240>)
 800188c:	685b      	ldr	r3, [r3, #4]
 800188e:	f403 0380 	and.w	r3, r3, #4194304	; 0x400000
 8001892:	f5b3 0f80 	cmp.w	r3, #4194304	; 0x400000
 8001896:	d10b      	bne.n	80018b0 <HAL_RCC_OscConfig+0x5c>
    {
      if((__HAL_RCC_GET_FLAG(RCC_FLAG_HSERDY) != RESET) && (RCC_OscInitStruct->HSEState == RCC_HSE_OFF))
 8001898:	4b7e      	ldr	r3, [pc, #504]	; (8001a94 <HAL_RCC_OscConfig+0x240>)
 800189a:	681b      	ldr	r3, [r3, #0]
 800189c:	f403 3300 	and.w	r3, r3, #131072	; 0x20000
 80018a0:	2b00      	cmp	r3, #0
 80018a2:	d05b      	beq.n	800195c <HAL_RCC_OscConfig+0x108>
 80018a4:	687b      	ldr	r3, [r7, #4]
 80018a6:	685b      	ldr	r3, [r3, #4]
 80018a8:	2b00      	cmp	r3, #0
 80018aa:	d157      	bne.n	800195c <HAL_RCC_OscConfig+0x108>
      {
        return HAL_ERROR;
 80018ac:	2301      	movs	r3, #1
 80018ae:	e242      	b.n	8001d36 <HAL_RCC_OscConfig+0x4e2>
      }
    }
    else
    {
      /* Set the new HSE configuration ---------------------------------------*/
      __HAL_RCC_HSE_CONFIG(RCC_OscInitStruct->HSEState);
 80018b0:	687b      	ldr	r3, [r7, #4]
 80018b2:	685b      	ldr	r3, [r3, #4]
 80018b4:	f5b3 3f80 	cmp.w	r3, #65536	; 0x10000
 80018b8:	d106      	bne.n	80018c8 <HAL_RCC_OscConfig+0x74>
 80018ba:	4b76      	ldr	r3, [pc, #472]	; (8001a94 <HAL_RCC_OscConfig+0x240>)
 80018bc:	681b      	ldr	r3, [r3, #0]
 80018be:	4a75      	ldr	r2, [pc, #468]	; (8001a94 <HAL_RCC_OscConfig+0x240>)
 80018c0:	f443 3380 	orr.w	r3, r3, #65536	; 0x10000
 80018c4:	6013      	str	r3, [r2, #0]
 80018c6:	e01d      	b.n	8001904 <HAL_RCC_OscConfig+0xb0>
 80018c8:	687b      	ldr	r3, [r7, #4]
 80018ca:	685b      	ldr	r3, [r3, #4]
 80018cc:	f5b3 2fa0 	cmp.w	r3, #327680	; 0x50000
 80018d0:	d10c      	bne.n	80018ec <HAL_RCC_OscConfig+0x98>
 80018d2:	4b70      	ldr	r3, [pc, #448]	; (8001a94 <HAL_RCC_OscConfig+0x240>)
 80018d4:	681b      	ldr	r3, [r3, #0]
 80018d6:	4a6f      	ldr	r2, [pc, #444]	; (8001a94 <HAL_RCC_OscConfig+0x240>)
 80018d8:	f443 2380 	orr.w	r3, r3, #262144	; 0x40000
 80018dc:	6013      	str	r3, [r2, #0]
 80018de:	4b6d      	ldr	r3, [pc, #436]	; (8001a94 <HAL_RCC_OscConfig+0x240>)
 80018e0:	681b      	ldr	r3, [r3, #0]
 80018e2:	4a6c      	ldr	r2, [pc, #432]	; (8001a94 <HAL_RCC_OscConfig+0x240>)
 80018e4:	f443 3380 	orr.w	r3, r3, #65536	; 0x10000
 80018e8:	6013      	str	r3, [r2, #0]
 80018ea:	e00b      	b.n	8001904 <HAL_RCC_OscConfig+0xb0>
 80018ec:	4b69      	ldr	r3, [pc, #420]	; (8001a94 <HAL_RCC_OscConfig+0x240>)
 80018ee:	681b      	ldr	r3, [r3, #0]
 80018f0:	4a68      	ldr	r2, [pc, #416]	; (8001a94 <HAL_RCC_OscConfig+0x240>)
 80018f2:	f423 3380 	bic.w	r3, r3, #65536	; 0x10000
 80018f6:	6013      	str	r3, [r2, #0]
 80018f8:	4b66      	ldr	r3, [pc, #408]	; (8001a94 <HAL_RCC_OscConfig+0x240>)
 80018fa:	681b      	ldr	r3, [r3, #0]
 80018fc:	4a65      	ldr	r2, [pc, #404]	; (8001a94 <HAL_RCC_OscConfig+0x240>)
 80018fe:	f423 2380 	bic.w	r3, r3, #262144	; 0x40000
 8001902:	6013      	str	r3, [r2, #0]

      /* Check the HSE State */
      if((RCC_OscInitStruct->HSEState) != RCC_HSE_OFF)
 8001904:	687b      	ldr	r3, [r7, #4]
 8001906:	685b      	ldr	r3, [r3, #4]
 8001908:	2b00      	cmp	r3, #0
 800190a:	d013      	beq.n	8001934 <HAL_RCC_OscConfig+0xe0>
      {
        /* Get Start Tick */
        tickstart = HAL_GetTick();
 800190c:	f7ff f854 	bl	80009b8 <HAL_GetTick>
 8001910:	6138      	str	r0, [r7, #16]

        /* Wait till HSE is ready */
        while(__HAL_RCC_GET_FLAG(RCC_FLAG_HSERDY) == RESET)
 8001912:	e008      	b.n	8001926 <HAL_RCC_OscConfig+0xd2>
        {
          if((HAL_GetTick() - tickstart ) > HSE_TIMEOUT_VALUE)
 8001914:	f7ff f850 	bl	80009b8 <HAL_GetTick>
 8001918:	4602      	mov	r2, r0
 800191a:	693b      	ldr	r3, [r7, #16]
 800191c:	1ad3      	subs	r3, r2, r3
 800191e:	2b64      	cmp	r3, #100	; 0x64
 8001920:	d901      	bls.n	8001926 <HAL_RCC_OscConfig+0xd2>
          {
            return HAL_TIMEOUT;
 8001922:	2303      	movs	r3, #3
 8001924:	e207      	b.n	8001d36 <HAL_RCC_OscConfig+0x4e2>
        while(__HAL_RCC_GET_FLAG(RCC_FLAG_HSERDY) == RESET)
 8001926:	4b5b      	ldr	r3, [pc, #364]	; (8001a94 <HAL_RCC_OscConfig+0x240>)
 8001928:	681b      	ldr	r3, [r3, #0]
 800192a:	f403 3300 	and.w	r3, r3, #131072	; 0x20000
 800192e:	2b00      	cmp	r3, #0
 8001930:	d0f0      	beq.n	8001914 <HAL_RCC_OscConfig+0xc0>
 8001932:	e014      	b.n	800195e <HAL_RCC_OscConfig+0x10a>
        }
      }
      else
      {
        /* Get Start Tick */
        tickstart = HAL_GetTick();
 8001934:	f7ff f840 	bl	80009b8 <HAL_GetTick>
 8001938:	6138      	str	r0, [r7, #16]

        /* Wait till HSE is bypassed or disabled */
        while(__HAL_RCC_GET_FLAG(RCC_FLAG_HSERDY) != RESET)
 800193a:	e008      	b.n	800194e <HAL_RCC_OscConfig+0xfa>
        {
          if((HAL_GetTick() - tickstart ) > HSE_TIMEOUT_VALUE)
 800193c:	f7ff f83c 	bl	80009b8 <HAL_GetTick>
 8001940:	4602      	mov	r2, r0
 8001942:	693b      	ldr	r3, [r7, #16]
 8001944:	1ad3      	subs	r3, r2, r3
 8001946:	2b64      	cmp	r3, #100	; 0x64
 8001948:	d901      	bls.n	800194e <HAL_RCC_OscConfig+0xfa>
          {
            return HAL_TIMEOUT;
 800194a:	2303      	movs	r3, #3
 800194c:	e1f3      	b.n	8001d36 <HAL_RCC_OscConfig+0x4e2>
        while(__HAL_RCC_GET_FLAG(RCC_FLAG_HSERDY) != RESET)
 800194e:	4b51      	ldr	r3, [pc, #324]	; (8001a94 <HAL_RCC_OscConfig+0x240>)
 8001950:	681b      	ldr	r3, [r3, #0]
 8001952:	f403 3300 	and.w	r3, r3, #131072	; 0x20000
 8001956:	2b00      	cmp	r3, #0
 8001958:	d1f0      	bne.n	800193c <HAL_RCC_OscConfig+0xe8>
 800195a:	e000      	b.n	800195e <HAL_RCC_OscConfig+0x10a>
      if((__HAL_RCC_GET_FLAG(RCC_FLAG_HSERDY) != RESET) && (RCC_OscInitStruct->HSEState == RCC_HSE_OFF))
 800195c:	bf00      	nop
        }
      }
    }
  }
  /*----------------------------- HSI Configuration --------------------------*/
  if(((RCC_OscInitStruct->OscillatorType) & RCC_OSCILLATORTYPE_HSI) == RCC_OSCILLATORTYPE_HSI)
 800195e:	687b      	ldr	r3, [r7, #4]
 8001960:	681b      	ldr	r3, [r3, #0]
 8001962:	f003 0302 	and.w	r3, r3, #2
 8001966:	2b00      	cmp	r3, #0
 8001968:	d063      	beq.n	8001a32 <HAL_RCC_OscConfig+0x1de>
    /* Check the parameters */
    assert_param(IS_RCC_HSI(RCC_OscInitStruct->HSIState));
    assert_param(IS_RCC_CALIBRATION_VALUE(RCC_OscInitStruct->HSICalibrationValue));

    /* Check if HSI is used as system clock or as PLL source when PLL is selected as system clock */
    if((__HAL_RCC_GET_SYSCLK_SOURCE() == RCC_CFGR_SWS_HSI) ||\
 800196a:	4b4a      	ldr	r3, [pc, #296]	; (8001a94 <HAL_RCC_OscConfig+0x240>)
 800196c:	689b      	ldr	r3, [r3, #8]
 800196e:	f003 030c 	and.w	r3, r3, #12
 8001972:	2b00      	cmp	r3, #0
 8001974:	d00b      	beq.n	800198e <HAL_RCC_OscConfig+0x13a>
      ((__HAL_RCC_GET_SYSCLK_SOURCE() == RCC_CFGR_SWS_PLL) && ((RCC->PLLCFGR & RCC_PLLCFGR_PLLSRC) == RCC_PLLCFGR_PLLSRC_HSI)))
 8001976:	4b47      	ldr	r3, [pc, #284]	; (8001a94 <HAL_RCC_OscConfig+0x240>)
 8001978:	689b      	ldr	r3, [r3, #8]
 800197a:	f003 030c 	and.w	r3, r3, #12
    if((__HAL_RCC_GET_SYSCLK_SOURCE() == RCC_CFGR_SWS_HSI) ||\
 800197e:	2b08      	cmp	r3, #8
 8001980:	d11c      	bne.n	80019bc <HAL_RCC_OscConfig+0x168>
      ((__HAL_RCC_GET_SYSCLK_SOURCE() == RCC_CFGR_SWS_PLL) && ((RCC->PLLCFGR & RCC_PLLCFGR_PLLSRC) == RCC_PLLCFGR_PLLSRC_HSI)))
 8001982:	4b44      	ldr	r3, [pc, #272]	; (8001a94 <HAL_RCC_OscConfig+0x240>)
 8001984:	685b      	ldr	r3, [r3, #4]
 8001986:	f403 0380 	and.w	r3, r3, #4194304	; 0x400000
 800198a:	2b00      	cmp	r3, #0
 800198c:	d116      	bne.n	80019bc <HAL_RCC_OscConfig+0x168>
    {
      /* When HSI is used as system clock it will not disabled */
      if((__HAL_RCC_GET_FLAG(RCC_FLAG_HSIRDY) != RESET) && (RCC_OscInitStruct->HSIState != RCC_HSI_ON))
 800198e:	4b41      	ldr	r3, [pc, #260]	; (8001a94 <HAL_RCC_OscConfig+0x240>)
 8001990:	681b      	ldr	r3, [r3, #0]
 8001992:	f003 0302 	and.w	r3, r3, #2
 8001996:	2b00      	cmp	r3, #0
 8001998:	d005      	beq.n	80019a6 <HAL_RCC_OscConfig+0x152>
 800199a:	687b      	ldr	r3, [r7, #4]
 800199c:	68db      	ldr	r3, [r3, #12]
 800199e:	2b01      	cmp	r3, #1
 80019a0:	d001      	beq.n	80019a6 <HAL_RCC_OscConfig+0x152>
      {
        return HAL_ERROR;
 80019a2:	2301      	movs	r3, #1
 80019a4:	e1c7      	b.n	8001d36 <HAL_RCC_OscConfig+0x4e2>
      }
      /* Otherwise, just the calibration is allowed */
      else
      {
        /* Adjusts the Internal High Speed oscillator (HSI) calibration value.*/
        __HAL_RCC_HSI_CALIBRATIONVALUE_ADJUST(RCC_OscInitStruct->HSICalibrationValue);
 80019a6:	4b3b      	ldr	r3, [pc, #236]	; (8001a94 <HAL_RCC_OscConfig+0x240>)
 80019a8:	681b      	ldr	r3, [r3, #0]
 80019aa:	f023 02f8 	bic.w	r2, r3, #248	; 0xf8
 80019ae:	687b      	ldr	r3, [r7, #4]
 80019b0:	691b      	ldr	r3, [r3, #16]
 80019b2:	00db      	lsls	r3, r3, #3
 80019b4:	4937      	ldr	r1, [pc, #220]	; (8001a94 <HAL_RCC_OscConfig+0x240>)
 80019b6:	4313      	orrs	r3, r2
 80019b8:	600b      	str	r3, [r1, #0]
      if((__HAL_RCC_GET_FLAG(RCC_FLAG_HSIRDY) != RESET) && (RCC_OscInitStruct->HSIState != RCC_HSI_ON))
 80019ba:	e03a      	b.n	8001a32 <HAL_RCC_OscConfig+0x1de>
      }
    }
    else
    {
      /* Check the HSI State */
      if((RCC_OscInitStruct->HSIState)!= RCC_HSI_OFF)
 80019bc:	687b      	ldr	r3, [r7, #4]
 80019be:	68db      	ldr	r3, [r3, #12]
 80019c0:	2b00      	cmp	r3, #0
 80019c2:	d020      	beq.n	8001a06 <HAL_RCC_OscConfig+0x1b2>
      {
        /* Enable the Internal High Speed oscillator (HSI). */
        __HAL_RCC_HSI_ENABLE();
 80019c4:	4b34      	ldr	r3, [pc, #208]	; (8001a98 <HAL_RCC_OscConfig+0x244>)
 80019c6:	2201      	movs	r2, #1
 80019c8:	601a      	str	r2, [r3, #0]

        /* Get Start Tick*/
        tickstart = HAL_GetTick();
 80019ca:	f7fe fff5 	bl	80009b8 <HAL_GetTick>
 80019ce:	6138      	str	r0, [r7, #16]

        /* Wait till HSI is ready */
        while(__HAL_RCC_GET_FLAG(RCC_FLAG_HSIRDY) == RESET)
 80019d0:	e008      	b.n	80019e4 <HAL_RCC_OscConfig+0x190>
        {
          if((HAL_GetTick() - tickstart ) > HSI_TIMEOUT_VALUE)
 80019d2:	f7fe fff1 	bl	80009b8 <HAL_GetTick>
 80019d6:	4602      	mov	r2, r0
 80019d8:	693b      	ldr	r3, [r7, #16]
 80019da:	1ad3      	subs	r3, r2, r3
 80019dc:	2b02      	cmp	r3, #2
 80019de:	d901      	bls.n	80019e4 <HAL_RCC_OscConfig+0x190>
          {
            return HAL_TIMEOUT;
 80019e0:	2303      	movs	r3, #3
 80019e2:	e1a8      	b.n	8001d36 <HAL_RCC_OscConfig+0x4e2>
        while(__HAL_RCC_GET_FLAG(RCC_FLAG_HSIRDY) == RESET)
 80019e4:	4b2b      	ldr	r3, [pc, #172]	; (8001a94 <HAL_RCC_OscConfig+0x240>)
 80019e6:	681b      	ldr	r3, [r3, #0]
 80019e8:	f003 0302 	and.w	r3, r3, #2
 80019ec:	2b00      	cmp	r3, #0
 80019ee:	d0f0      	beq.n	80019d2 <HAL_RCC_OscConfig+0x17e>
          }
        }

        /* Adjusts the Internal High Speed oscillator (HSI) calibration value. */
        __HAL_RCC_HSI_CALIBRATIONVALUE_ADJUST(RCC_OscInitStruct->HSICalibrationValue);
 80019f0:	4b28      	ldr	r3, [pc, #160]	; (8001a94 <HAL_RCC_OscConfig+0x240>)
 80019f2:	681b      	ldr	r3, [r3, #0]
 80019f4:	f023 02f8 	bic.w	r2, r3, #248	; 0xf8
 80019f8:	687b      	ldr	r3, [r7, #4]
 80019fa:	691b      	ldr	r3, [r3, #16]
 80019fc:	00db      	lsls	r3, r3, #3
 80019fe:	4925      	ldr	r1, [pc, #148]	; (8001a94 <HAL_RCC_OscConfig+0x240>)
 8001a00:	4313      	orrs	r3, r2
 8001a02:	600b      	str	r3, [r1, #0]
 8001a04:	e015      	b.n	8001a32 <HAL_RCC_OscConfig+0x1de>
      }
      else
      {
        /* Disable the Internal High Speed oscillator (HSI). */
        __HAL_RCC_HSI_DISABLE();
 8001a06:	4b24      	ldr	r3, [pc, #144]	; (8001a98 <HAL_RCC_OscConfig+0x244>)
 8001a08:	2200      	movs	r2, #0
 8001a0a:	601a      	str	r2, [r3, #0]

        /* Get Start Tick*/
        tickstart = HAL_GetTick();
 8001a0c:	f7fe ffd4 	bl	80009b8 <HAL_GetTick>
 8001a10:	6138      	str	r0, [r7, #16]

        /* Wait till HSI is ready */
        while(__HAL_RCC_GET_FLAG(RCC_FLAG_HSIRDY) != RESET)
 8001a12:	e008      	b.n	8001a26 <HAL_RCC_OscConfig+0x1d2>
        {
          if((HAL_GetTick() - tickstart ) > HSI_TIMEOUT_VALUE)
 8001a14:	f7fe ffd0 	bl	80009b8 <HAL_GetTick>
 8001a18:	4602      	mov	r2, r0
 8001a1a:	693b      	ldr	r3, [r7, #16]
 8001a1c:	1ad3      	subs	r3, r2, r3
 8001a1e:	2b02      	cmp	r3, #2
 8001a20:	d901      	bls.n	8001a26 <HAL_RCC_OscConfig+0x1d2>
          {
            return HAL_TIMEOUT;
 8001a22:	2303      	movs	r3, #3
 8001a24:	e187      	b.n	8001d36 <HAL_RCC_OscConfig+0x4e2>
        while(__HAL_RCC_GET_FLAG(RCC_FLAG_HSIRDY) != RESET)
 8001a26:	4b1b      	ldr	r3, [pc, #108]	; (8001a94 <HAL_RCC_OscConfig+0x240>)
 8001a28:	681b      	ldr	r3, [r3, #0]
 8001a2a:	f003 0302 	and.w	r3, r3, #2
 8001a2e:	2b00      	cmp	r3, #0
 8001a30:	d1f0      	bne.n	8001a14 <HAL_RCC_OscConfig+0x1c0>
        }
      }
    }
  }
  /*------------------------------ LSI Configuration -------------------------*/
  if(((RCC_OscInitStruct->OscillatorType) & RCC_OSCILLATORTYPE_LSI) == RCC_OSCILLATORTYPE_LSI)
 8001a32:	687b      	ldr	r3, [r7, #4]
 8001a34:	681b      	ldr	r3, [r3, #0]
 8001a36:	f003 0308 	and.w	r3, r3, #8
 8001a3a:	2b00      	cmp	r3, #0
 8001a3c:	d036      	beq.n	8001aac <HAL_RCC_OscConfig+0x258>
  {
    /* Check the parameters */
    assert_param(IS_RCC_LSI(RCC_OscInitStruct->LSIState));

    /* Check the LSI State */
    if((RCC_OscInitStruct->LSIState)!= RCC_LSI_OFF)
 8001a3e:	687b      	ldr	r3, [r7, #4]
 8001a40:	695b      	ldr	r3, [r3, #20]
 8001a42:	2b00      	cmp	r3, #0
 8001a44:	d016      	beq.n	8001a74 <HAL_RCC_OscConfig+0x220>
    {
      /* Enable the Internal Low Speed oscillator (LSI). */
      __HAL_RCC_LSI_ENABLE();
 8001a46:	4b15      	ldr	r3, [pc, #84]	; (8001a9c <HAL_RCC_OscConfig+0x248>)
 8001a48:	2201      	movs	r2, #1
 8001a4a:	601a      	str	r2, [r3, #0]

      /* Get Start Tick*/
      tickstart = HAL_GetTick();
 8001a4c:	f7fe ffb4 	bl	80009b8 <HAL_GetTick>
 8001a50:	6138      	str	r0, [r7, #16]

      /* Wait till LSI is ready */
      while(__HAL_RCC_GET_FLAG(RCC_FLAG_LSIRDY) == RESET)
 8001a52:	e008      	b.n	8001a66 <HAL_RCC_OscConfig+0x212>
      {
        if((HAL_GetTick() - tickstart ) > LSI_TIMEOUT_VALUE)
 8001a54:	f7fe ffb0 	bl	80009b8 <HAL_GetTick>
 8001a58:	4602      	mov	r2, r0
 8001a5a:	693b      	ldr	r3, [r7, #16]
 8001a5c:	1ad3      	subs	r3, r2, r3
 8001a5e:	2b02      	cmp	r3, #2
 8001a60:	d901      	bls.n	8001a66 <HAL_RCC_OscConfig+0x212>
        {
          return HAL_TIMEOUT;
 8001a62:	2303      	movs	r3, #3
 8001a64:	e167      	b.n	8001d36 <HAL_RCC_OscConfig+0x4e2>
      while(__HAL_RCC_GET_FLAG(RCC_FLAG_LSIRDY) == RESET)
 8001a66:	4b0b      	ldr	r3, [pc, #44]	; (8001a94 <HAL_RCC_OscConfig+0x240>)
 8001a68:	6f5b      	ldr	r3, [r3, #116]	; 0x74
 8001a6a:	f003 0302 	and.w	r3, r3, #2
 8001a6e:	2b00      	cmp	r3, #0
 8001a70:	d0f0      	beq.n	8001a54 <HAL_RCC_OscConfig+0x200>
 8001a72:	e01b      	b.n	8001aac <HAL_RCC_OscConfig+0x258>
      }
    }
    else
    {
      /* Disable the Internal Low Speed oscillator (LSI). */
      __HAL_RCC_LSI_DISABLE();
 8001a74:	4b09      	ldr	r3, [pc, #36]	; (8001a9c <HAL_RCC_OscConfig+0x248>)
 8001a76:	2200      	movs	r2, #0
 8001a78:	601a      	str	r2, [r3, #0]

      /* Get Start Tick */
      tickstart = HAL_GetTick();
 8001a7a:	f7fe ff9d 	bl	80009b8 <HAL_GetTick>
 8001a7e:	6138      	str	r0, [r7, #16]

      /* Wait till LSI is ready */
      while(__HAL_RCC_GET_FLAG(RCC_FLAG_LSIRDY) != RESET)
 8001a80:	e00e      	b.n	8001aa0 <HAL_RCC_OscConfig+0x24c>
      {
        if((HAL_GetTick() - tickstart ) > LSI_TIMEOUT_VALUE)
 8001a82:	f7fe ff99 	bl	80009b8 <HAL_GetTick>
 8001a86:	4602      	mov	r2, r0
 8001a88:	693b      	ldr	r3, [r7, #16]
 8001a8a:	1ad3      	subs	r3, r2, r3
 8001a8c:	2b02      	cmp	r3, #2
 8001a8e:	d907      	bls.n	8001aa0 <HAL_RCC_OscConfig+0x24c>
        {
          return HAL_TIMEOUT;
 8001a90:	2303      	movs	r3, #3
 8001a92:	e150      	b.n	8001d36 <HAL_RCC_OscConfig+0x4e2>
 8001a94:	40023800 	.word	0x40023800
 8001a98:	42470000 	.word	0x42470000
 8001a9c:	42470e80 	.word	0x42470e80
      while(__HAL_RCC_GET_FLAG(RCC_FLAG_LSIRDY) != RESET)
 8001aa0:	4b88      	ldr	r3, [pc, #544]	; (8001cc4 <HAL_RCC_OscConfig+0x470>)
 8001aa2:	6f5b      	ldr	r3, [r3, #116]	; 0x74
 8001aa4:	f003 0302 	and.w	r3, r3, #2
 8001aa8:	2b00      	cmp	r3, #0
 8001aaa:	d1ea      	bne.n	8001a82 <HAL_RCC_OscConfig+0x22e>
        }
      }
    }
  }
  /*------------------------------ LSE Configuration -------------------------*/
  if(((RCC_OscInitStruct->OscillatorType) & RCC_OSCILLATORTYPE_LSE) == RCC_OSCILLATORTYPE_LSE)
 8001aac:	687b      	ldr	r3, [r7, #4]
 8001aae:	681b      	ldr	r3, [r3, #0]
 8001ab0:	f003 0304 	and.w	r3, r3, #4
 8001ab4:	2b00      	cmp	r3, #0
 8001ab6:	f000 8097 	beq.w	8001be8 <HAL_RCC_OscConfig+0x394>
  {
    FlagStatus       pwrclkchanged = RESET;
 8001aba:	2300      	movs	r3, #0
 8001abc:	75fb      	strb	r3, [r7, #23]
    /* Check the parameters */
    assert_param(IS_RCC_LSE(RCC_OscInitStruct->LSEState));

    /* Update LSE configuration in Backup Domain control register    */
    /* Requires to enable write access to Backup Domain of necessary */
    if(__HAL_RCC_PWR_IS_CLK_DISABLED())
 8001abe:	4b81      	ldr	r3, [pc, #516]	; (8001cc4 <HAL_RCC_OscConfig+0x470>)
 8001ac0:	6c1b      	ldr	r3, [r3, #64]	; 0x40
 8001ac2:	f003 5380 	and.w	r3, r3, #268435456	; 0x10000000
 8001ac6:	2b00      	cmp	r3, #0
 8001ac8:	d10f      	bne.n	8001aea <HAL_RCC_OscConfig+0x296>
    {
      __HAL_RCC_PWR_CLK_ENABLE();
 8001aca:	2300      	movs	r3, #0
 8001acc:	60bb      	str	r3, [r7, #8]
 8001ace:	4b7d      	ldr	r3, [pc, #500]	; (8001cc4 <HAL_RCC_OscConfig+0x470>)
 8001ad0:	6c1b      	ldr	r3, [r3, #64]	; 0x40
 8001ad2:	4a7c      	ldr	r2, [pc, #496]	; (8001cc4 <HAL_RCC_OscConfig+0x470>)
 8001ad4:	f043 5380 	orr.w	r3, r3, #268435456	; 0x10000000
 8001ad8:	6413      	str	r3, [r2, #64]	; 0x40
 8001ada:	4b7a      	ldr	r3, [pc, #488]	; (8001cc4 <HAL_RCC_OscConfig+0x470>)
 8001adc:	6c1b      	ldr	r3, [r3, #64]	; 0x40
 8001ade:	f003 5380 	and.w	r3, r3, #268435456	; 0x10000000
 8001ae2:	60bb      	str	r3, [r7, #8]
 8001ae4:	68bb      	ldr	r3, [r7, #8]
      pwrclkchanged = SET;
 8001ae6:	2301      	movs	r3, #1
 8001ae8:	75fb      	strb	r3, [r7, #23]
    }

    if(HAL_IS_BIT_CLR(PWR->CR, PWR_CR_DBP))
 8001aea:	4b77      	ldr	r3, [pc, #476]	; (8001cc8 <HAL_RCC_OscConfig+0x474>)
 8001aec:	681b      	ldr	r3, [r3, #0]
 8001aee:	f403 7380 	and.w	r3, r3, #256	; 0x100
 8001af2:	2b00      	cmp	r3, #0
 8001af4:	d118      	bne.n	8001b28 <HAL_RCC_OscConfig+0x2d4>
    {
      /* Enable write access to Backup domain */
      SET_BIT(PWR->CR, PWR_CR_DBP);
 8001af6:	4b74      	ldr	r3, [pc, #464]	; (8001cc8 <HAL_RCC_OscConfig+0x474>)
 8001af8:	681b      	ldr	r3, [r3, #0]
 8001afa:	4a73      	ldr	r2, [pc, #460]	; (8001cc8 <HAL_RCC_OscConfig+0x474>)
 8001afc:	f443 7380 	orr.w	r3, r3, #256	; 0x100
 8001b00:	6013      	str	r3, [r2, #0]

      /* Wait for Backup domain Write protection disable */
      tickstart = HAL_GetTick();
 8001b02:	f7fe ff59 	bl	80009b8 <HAL_GetTick>
 8001b06:	6138      	str	r0, [r7, #16]

      while(HAL_IS_BIT_CLR(PWR->CR, PWR_CR_DBP))
 8001b08:	e008      	b.n	8001b1c <HAL_RCC_OscConfig+0x2c8>
      {
        if((HAL_GetTick() - tickstart) > RCC_DBP_TIMEOUT_VALUE)
 8001b0a:	f7fe ff55 	bl	80009b8 <HAL_GetTick>
 8001b0e:	4602      	mov	r2, r0
 8001b10:	693b      	ldr	r3, [r7, #16]
 8001b12:	1ad3      	subs	r3, r2, r3
 8001b14:	2b02      	cmp	r3, #2
 8001b16:	d901      	bls.n	8001b1c <HAL_RCC_OscConfig+0x2c8>
        {
          return HAL_TIMEOUT;
 8001b18:	2303      	movs	r3, #3
 8001b1a:	e10c      	b.n	8001d36 <HAL_RCC_OscConfig+0x4e2>
      while(HAL_IS_BIT_CLR(PWR->CR, PWR_CR_DBP))
 8001b1c:	4b6a      	ldr	r3, [pc, #424]	; (8001cc8 <HAL_RCC_OscConfig+0x474>)
 8001b1e:	681b      	ldr	r3, [r3, #0]
 8001b20:	f403 7380 	and.w	r3, r3, #256	; 0x100
 8001b24:	2b00      	cmp	r3, #0
 8001b26:	d0f0      	beq.n	8001b0a <HAL_RCC_OscConfig+0x2b6>
        }
      }
    }

    /* Set the new LSE configuration -----------------------------------------*/
    __HAL_RCC_LSE_CONFIG(RCC_OscInitStruct->LSEState);
 8001b28:	687b      	ldr	r3, [r7, #4]
 8001b2a:	689b      	ldr	r3, [r3, #8]
 8001b2c:	2b01      	cmp	r3, #1
 8001b2e:	d106      	bne.n	8001b3e <HAL_RCC_OscConfig+0x2ea>
 8001b30:	4b64      	ldr	r3, [pc, #400]	; (8001cc4 <HAL_RCC_OscConfig+0x470>)
 8001b32:	6f1b      	ldr	r3, [r3, #112]	; 0x70
 8001b34:	4a63      	ldr	r2, [pc, #396]	; (8001cc4 <HAL_RCC_OscConfig+0x470>)
 8001b36:	f043 0301 	orr.w	r3, r3, #1
 8001b3a:	6713      	str	r3, [r2, #112]	; 0x70
 8001b3c:	e01c      	b.n	8001b78 <HAL_RCC_OscConfig+0x324>
 8001b3e:	687b      	ldr	r3, [r7, #4]
 8001b40:	689b      	ldr	r3, [r3, #8]
 8001b42:	2b05      	cmp	r3, #5
 8001b44:	d10c      	bne.n	8001b60 <HAL_RCC_OscConfig+0x30c>
 8001b46:	4b5f      	ldr	r3, [pc, #380]	; (8001cc4 <HAL_RCC_OscConfig+0x470>)
 8001b48:	6f1b      	ldr	r3, [r3, #112]	; 0x70
 8001b4a:	4a5e      	ldr	r2, [pc, #376]	; (8001cc4 <HAL_RCC_OscConfig+0x470>)
 8001b4c:	f043 0304 	orr.w	r3, r3, #4
 8001b50:	6713      	str	r3, [r2, #112]	; 0x70
 8001b52:	4b5c      	ldr	r3, [pc, #368]	; (8001cc4 <HAL_RCC_OscConfig+0x470>)
 8001b54:	6f1b      	ldr	r3, [r3, #112]	; 0x70
 8001b56:	4a5b      	ldr	r2, [pc, #364]	; (8001cc4 <HAL_RCC_OscConfig+0x470>)
 8001b58:	f043 0301 	orr.w	r3, r3, #1
 8001b5c:	6713      	str	r3, [r2, #112]	; 0x70
 8001b5e:	e00b      	b.n	8001b78 <HAL_RCC_OscConfig+0x324>
 8001b60:	4b58      	ldr	r3, [pc, #352]	; (8001cc4 <HAL_RCC_OscConfig+0x470>)
 8001b62:	6f1b      	ldr	r3, [r3, #112]	; 0x70
 8001b64:	4a57      	ldr	r2, [pc, #348]	; (8001cc4 <HAL_RCC_OscConfig+0x470>)
 8001b66:	f023 0301 	bic.w	r3, r3, #1
 8001b6a:	6713      	str	r3, [r2, #112]	; 0x70
 8001b6c:	4b55      	ldr	r3, [pc, #340]	; (8001cc4 <HAL_RCC_OscConfig+0x470>)
 8001b6e:	6f1b      	ldr	r3, [r3, #112]	; 0x70
 8001b70:	4a54      	ldr	r2, [pc, #336]	; (8001cc4 <HAL_RCC_OscConfig+0x470>)
 8001b72:	f023 0304 	bic.w	r3, r3, #4
 8001b76:	6713      	str	r3, [r2, #112]	; 0x70
    /* Check the LSE State */
    if((RCC_OscInitStruct->LSEState) != RCC_LSE_OFF)
 8001b78:	687b      	ldr	r3, [r7, #4]
 8001b7a:	689b      	ldr	r3, [r3, #8]
 8001b7c:	2b00      	cmp	r3, #0
 8001b7e:	d015      	beq.n	8001bac <HAL_RCC_OscConfig+0x358>
    {
      /* Get Start Tick*/
      tickstart = HAL_GetTick();
 8001b80:	f7fe ff1a 	bl	80009b8 <HAL_GetTick>
 8001b84:	6138      	str	r0, [r7, #16]

      /* Wait till LSE is ready */
      while(__HAL_RCC_GET_FLAG(RCC_FLAG_LSERDY) == RESET)
 8001b86:	e00a      	b.n	8001b9e <HAL_RCC_OscConfig+0x34a>
      {
        if((HAL_GetTick() - tickstart ) > RCC_LSE_TIMEOUT_VALUE)
 8001b88:	f7fe ff16 	bl	80009b8 <HAL_GetTick>
 8001b8c:	4602      	mov	r2, r0
 8001b8e:	693b      	ldr	r3, [r7, #16]
 8001b90:	1ad3      	subs	r3, r2, r3
 8001b92:	f241 3288 	movw	r2, #5000	; 0x1388
 8001b96:	4293      	cmp	r3, r2
 8001b98:	d901      	bls.n	8001b9e <HAL_RCC_OscConfig+0x34a>
        {
          return HAL_TIMEOUT;
 8001b9a:	2303      	movs	r3, #3
 8001b9c:	e0cb      	b.n	8001d36 <HAL_RCC_OscConfig+0x4e2>
      while(__HAL_RCC_GET_FLAG(RCC_FLAG_LSERDY) == RESET)
 8001b9e:	4b49      	ldr	r3, [pc, #292]	; (8001cc4 <HAL_RCC_OscConfig+0x470>)
 8001ba0:	6f1b      	ldr	r3, [r3, #112]	; 0x70
 8001ba2:	f003 0302 	and.w	r3, r3, #2
 8001ba6:	2b00      	cmp	r3, #0
 8001ba8:	d0ee      	beq.n	8001b88 <HAL_RCC_OscConfig+0x334>
 8001baa:	e014      	b.n	8001bd6 <HAL_RCC_OscConfig+0x382>
      }
    }
    else
    {
      /* Get Start Tick */
      tickstart = HAL_GetTick();
 8001bac:	f7fe ff04 	bl	80009b8 <HAL_GetTick>
 8001bb0:	6138      	str	r0, [r7, #16]

      /* Wait till LSE is ready */
      while(__HAL_RCC_GET_FLAG(RCC_FLAG_LSERDY) != RESET)
 8001bb2:	e00a      	b.n	8001bca <HAL_RCC_OscConfig+0x376>
      {
        if((HAL_GetTick() - tickstart ) > RCC_LSE_TIMEOUT_VALUE)
 8001bb4:	f7fe ff00 	bl	80009b8 <HAL_GetTick>
 8001bb8:	4602      	mov	r2, r0
 8001bba:	693b      	ldr	r3, [r7, #16]
 8001bbc:	1ad3      	subs	r3, r2, r3
 8001bbe:	f241 3288 	movw	r2, #5000	; 0x1388
 8001bc2:	4293      	cmp	r3, r2
 8001bc4:	d901      	bls.n	8001bca <HAL_RCC_OscConfig+0x376>
        {
          return HAL_TIMEOUT;
 8001bc6:	2303      	movs	r3, #3
 8001bc8:	e0b5      	b.n	8001d36 <HAL_RCC_OscConfig+0x4e2>
      while(__HAL_RCC_GET_FLAG(RCC_FLAG_LSERDY) != RESET)
 8001bca:	4b3e      	ldr	r3, [pc, #248]	; (8001cc4 <HAL_RCC_OscConfig+0x470>)
 8001bcc:	6f1b      	ldr	r3, [r3, #112]	; 0x70
 8001bce:	f003 0302 	and.w	r3, r3, #2
 8001bd2:	2b00      	cmp	r3, #0
 8001bd4:	d1ee      	bne.n	8001bb4 <HAL_RCC_OscConfig+0x360>
        }
      }
    }

    /* Restore clock configuration if changed */
    if(pwrclkchanged == SET)
 8001bd6:	7dfb      	ldrb	r3, [r7, #23]
 8001bd8:	2b01      	cmp	r3, #1
 8001bda:	d105      	bne.n	8001be8 <HAL_RCC_OscConfig+0x394>
    {
      __HAL_RCC_PWR_CLK_DISABLE();
 8001bdc:	4b39      	ldr	r3, [pc, #228]	; (8001cc4 <HAL_RCC_OscConfig+0x470>)
 8001bde:	6c1b      	ldr	r3, [r3, #64]	; 0x40
 8001be0:	4a38      	ldr	r2, [pc, #224]	; (8001cc4 <HAL_RCC_OscConfig+0x470>)
 8001be2:	f023 5380 	bic.w	r3, r3, #268435456	; 0x10000000
 8001be6:	6413      	str	r3, [r2, #64]	; 0x40
    }
  }
  /*-------------------------------- PLL Configuration -----------------------*/
  /* Check the parameters */
  assert_param(IS_RCC_PLL(RCC_OscInitStruct->PLL.PLLState));
  if ((RCC_OscInitStruct->PLL.PLLState) != RCC_PLL_NONE)
 8001be8:	687b      	ldr	r3, [r7, #4]
 8001bea:	699b      	ldr	r3, [r3, #24]
 8001bec:	2b00      	cmp	r3, #0
 8001bee:	f000 80a1 	beq.w	8001d34 <HAL_RCC_OscConfig+0x4e0>
  {
    /* Check if the PLL is used as system clock or not */
    if(__HAL_RCC_GET_SYSCLK_SOURCE() != RCC_CFGR_SWS_PLL)
 8001bf2:	4b34      	ldr	r3, [pc, #208]	; (8001cc4 <HAL_RCC_OscConfig+0x470>)
 8001bf4:	689b      	ldr	r3, [r3, #8]
 8001bf6:	f003 030c 	and.w	r3, r3, #12
 8001bfa:	2b08      	cmp	r3, #8
 8001bfc:	d05c      	beq.n	8001cb8 <HAL_RCC_OscConfig+0x464>
    {
      if((RCC_OscInitStruct->PLL.PLLState) == RCC_PLL_ON)
 8001bfe:	687b      	ldr	r3, [r7, #4]
 8001c00:	699b      	ldr	r3, [r3, #24]
 8001c02:	2b02      	cmp	r3, #2
 8001c04:	d141      	bne.n	8001c8a <HAL_RCC_OscConfig+0x436>
        assert_param(IS_RCC_PLLN_VALUE(RCC_OscInitStruct->PLL.PLLN));
        assert_param(IS_RCC_PLLP_VALUE(RCC_OscInitStruct->PLL.PLLP));
        assert_param(IS_RCC_PLLQ_VALUE(RCC_OscInitStruct->PLL.PLLQ));

        /* Disable the main PLL. */
        __HAL_RCC_PLL_DISABLE();
 8001c06:	4b31      	ldr	r3, [pc, #196]	; (8001ccc <HAL_RCC_OscConfig+0x478>)
 8001c08:	2200      	movs	r2, #0
 8001c0a:	601a      	str	r2, [r3, #0]

        /* Get Start Tick */
        tickstart = HAL_GetTick();
 8001c0c:	f7fe fed4 	bl	80009b8 <HAL_GetTick>
 8001c10:	6138      	str	r0, [r7, #16]

        /* Wait till PLL is ready */
        while(__HAL_RCC_GET_FLAG(RCC_FLAG_PLLRDY) != RESET)
 8001c12:	e008      	b.n	8001c26 <HAL_RCC_OscConfig+0x3d2>
        {
          if((HAL_GetTick() - tickstart ) > PLL_TIMEOUT_VALUE)
 8001c14:	f7fe fed0 	bl	80009b8 <HAL_GetTick>
 8001c18:	4602      	mov	r2, r0
 8001c1a:	693b      	ldr	r3, [r7, #16]
 8001c1c:	1ad3      	subs	r3, r2, r3
 8001c1e:	2b02      	cmp	r3, #2
 8001c20:	d901      	bls.n	8001c26 <HAL_RCC_OscConfig+0x3d2>
          {
            return HAL_TIMEOUT;
 8001c22:	2303      	movs	r3, #3
 8001c24:	e087      	b.n	8001d36 <HAL_RCC_OscConfig+0x4e2>
        while(__HAL_RCC_GET_FLAG(RCC_FLAG_PLLRDY) != RESET)
 8001c26:	4b27      	ldr	r3, [pc, #156]	; (8001cc4 <HAL_RCC_OscConfig+0x470>)
 8001c28:	681b      	ldr	r3, [r3, #0]
 8001c2a:	f003 7300 	and.w	r3, r3, #33554432	; 0x2000000
 8001c2e:	2b00      	cmp	r3, #0
 8001c30:	d1f0      	bne.n	8001c14 <HAL_RCC_OscConfig+0x3c0>
          }
        }

        /* Configure the main PLL clock source, multiplication and division factors. */
        WRITE_REG(RCC->PLLCFGR, (RCC_OscInitStruct->PLL.PLLSource                                            | \
 8001c32:	687b      	ldr	r3, [r7, #4]
 8001c34:	69da      	ldr	r2, [r3, #28]
 8001c36:	687b      	ldr	r3, [r7, #4]
 8001c38:	6a1b      	ldr	r3, [r3, #32]
 8001c3a:	431a      	orrs	r2, r3
 8001c3c:	687b      	ldr	r3, [r7, #4]
 8001c3e:	6a5b      	ldr	r3, [r3, #36]	; 0x24
 8001c40:	019b      	lsls	r3, r3, #6
 8001c42:	431a      	orrs	r2, r3
 8001c44:	687b      	ldr	r3, [r7, #4]
 8001c46:	6a9b      	ldr	r3, [r3, #40]	; 0x28
 8001c48:	085b      	lsrs	r3, r3, #1
 8001c4a:	3b01      	subs	r3, #1
 8001c4c:	041b      	lsls	r3, r3, #16
 8001c4e:	431a      	orrs	r2, r3
 8001c50:	687b      	ldr	r3, [r7, #4]
 8001c52:	6adb      	ldr	r3, [r3, #44]	; 0x2c
 8001c54:	061b      	lsls	r3, r3, #24
 8001c56:	491b      	ldr	r1, [pc, #108]	; (8001cc4 <HAL_RCC_OscConfig+0x470>)
 8001c58:	4313      	orrs	r3, r2
 8001c5a:	604b      	str	r3, [r1, #4]
                                 RCC_OscInitStruct->PLL.PLLM                                                 | \
                                 (RCC_OscInitStruct->PLL.PLLN << RCC_PLLCFGR_PLLN_Pos)             | \
                                 (((RCC_OscInitStruct->PLL.PLLP >> 1U) - 1U) << RCC_PLLCFGR_PLLP_Pos) | \
                                 (RCC_OscInitStruct->PLL.PLLQ << RCC_PLLCFGR_PLLQ_Pos)));
        /* Enable the main PLL. */
        __HAL_RCC_PLL_ENABLE();
 8001c5c:	4b1b      	ldr	r3, [pc, #108]	; (8001ccc <HAL_RCC_OscConfig+0x478>)
 8001c5e:	2201      	movs	r2, #1
 8001c60:	601a      	str	r2, [r3, #0]

        /* Get Start Tick */
        tickstart = HAL_GetTick();
 8001c62:	f7fe fea9 	bl	80009b8 <HAL_GetTick>
 8001c66:	6138      	str	r0, [r7, #16]

        /* Wait till PLL is ready */
        while(__HAL_RCC_GET_FLAG(RCC_FLAG_PLLRDY) == RESET)
 8001c68:	e008      	b.n	8001c7c <HAL_RCC_OscConfig+0x428>
        {
          if((HAL_GetTick() - tickstart ) > PLL_TIMEOUT_VALUE)
 8001c6a:	f7fe fea5 	bl	80009b8 <HAL_GetTick>
 8001c6e:	4602      	mov	r2, r0
 8001c70:	693b      	ldr	r3, [r7, #16]
 8001c72:	1ad3      	subs	r3, r2, r3
 8001c74:	2b02      	cmp	r3, #2
 8001c76:	d901      	bls.n	8001c7c <HAL_RCC_OscConfig+0x428>
          {
            return HAL_TIMEOUT;
 8001c78:	2303      	movs	r3, #3
 8001c7a:	e05c      	b.n	8001d36 <HAL_RCC_OscConfig+0x4e2>
        while(__HAL_RCC_GET_FLAG(RCC_FLAG_PLLRDY) == RESET)
 8001c7c:	4b11      	ldr	r3, [pc, #68]	; (8001cc4 <HAL_RCC_OscConfig+0x470>)
 8001c7e:	681b      	ldr	r3, [r3, #0]
 8001c80:	f003 7300 	and.w	r3, r3, #33554432	; 0x2000000
 8001c84:	2b00      	cmp	r3, #0
 8001c86:	d0f0      	beq.n	8001c6a <HAL_RCC_OscConfig+0x416>
 8001c88:	e054      	b.n	8001d34 <HAL_RCC_OscConfig+0x4e0>
        }
      }
      else
      {
        /* Disable the main PLL. */
        __HAL_RCC_PLL_DISABLE();
 8001c8a:	4b10      	ldr	r3, [pc, #64]	; (8001ccc <HAL_RCC_OscConfig+0x478>)
 8001c8c:	2200      	movs	r2, #0
 8001c8e:	601a      	str	r2, [r3, #0]

        /* Get Start Tick */
        tickstart = HAL_GetTick();
 8001c90:	f7fe fe92 	bl	80009b8 <HAL_GetTick>
 8001c94:	6138      	str	r0, [r7, #16]

        /* Wait till PLL is ready */
        while(__HAL_RCC_GET_FLAG(RCC_FLAG_PLLRDY) != RESET)
 8001c96:	e008      	b.n	8001caa <HAL_RCC_OscConfig+0x456>
        {
          if((HAL_GetTick() - tickstart ) > PLL_TIMEOUT_VALUE)
 8001c98:	f7fe fe8e 	bl	80009b8 <HAL_GetTick>
 8001c9c:	4602      	mov	r2, r0
 8001c9e:	693b      	ldr	r3, [r7, #16]
 8001ca0:	1ad3      	subs	r3, r2, r3
 8001ca2:	2b02      	cmp	r3, #2
 8001ca4:	d901      	bls.n	8001caa <HAL_RCC_OscConfig+0x456>
          {
            return HAL_TIMEOUT;
 8001ca6:	2303      	movs	r3, #3
 8001ca8:	e045      	b.n	8001d36 <HAL_RCC_OscConfig+0x4e2>
        while(__HAL_RCC_GET_FLAG(RCC_FLAG_PLLRDY) != RESET)
 8001caa:	4b06      	ldr	r3, [pc, #24]	; (8001cc4 <HAL_RCC_OscConfig+0x470>)
 8001cac:	681b      	ldr	r3, [r3, #0]
 8001cae:	f003 7300 	and.w	r3, r3, #33554432	; 0x2000000
 8001cb2:	2b00      	cmp	r3, #0
 8001cb4:	d1f0      	bne.n	8001c98 <HAL_RCC_OscConfig+0x444>
 8001cb6:	e03d      	b.n	8001d34 <HAL_RCC_OscConfig+0x4e0>
      }
    }
    else
    {
      /* Check if there is a request to disable the PLL used as System clock source */
      if((RCC_OscInitStruct->PLL.PLLState) == RCC_PLL_OFF)
 8001cb8:	687b      	ldr	r3, [r7, #4]
 8001cba:	699b      	ldr	r3, [r3, #24]
 8001cbc:	2b01      	cmp	r3, #1
 8001cbe:	d107      	bne.n	8001cd0 <HAL_RCC_OscConfig+0x47c>
      {
        return HAL_ERROR;
 8001cc0:	2301      	movs	r3, #1
 8001cc2:	e038      	b.n	8001d36 <HAL_RCC_OscConfig+0x4e2>
 8001cc4:	40023800 	.word	0x40023800
 8001cc8:	40007000 	.word	0x40007000
 8001ccc:	42470060 	.word	0x42470060
      }
      else
      {
        /* Do not return HAL_ERROR if request repeats the current configuration */
        pll_config = RCC->PLLCFGR;
 8001cd0:	4b1b      	ldr	r3, [pc, #108]	; (8001d40 <HAL_RCC_OscConfig+0x4ec>)
 8001cd2:	685b      	ldr	r3, [r3, #4]
 8001cd4:	60fb      	str	r3, [r7, #12]
            (READ_BIT(pll_config, RCC_PLLCFGR_PLLN) != (RCC_OscInitStruct->PLL.PLLN) << RCC_PLLCFGR_PLLN_Pos) ||
            (READ_BIT(pll_config, RCC_PLLCFGR_PLLP) != (((RCC_OscInitStruct->PLL.PLLP >> 1U) - 1U)) << RCC_PLLCFGR_PLLP_Pos) ||
            (READ_BIT(pll_config, RCC_PLLCFGR_PLLQ) != (RCC_OscInitStruct->PLL.PLLQ << RCC_PLLCFGR_PLLQ_Pos)) ||
            (READ_BIT(pll_config, RCC_PLLCFGR_PLLR) != (RCC_OscInitStruct->PLL.PLLR << RCC_PLLCFGR_PLLR_Pos)))
#else
        if (((RCC_OscInitStruct->PLL.PLLState) == RCC_PLL_OFF) ||
 8001cd6:	687b      	ldr	r3, [r7, #4]
 8001cd8:	699b      	ldr	r3, [r3, #24]
 8001cda:	2b01      	cmp	r3, #1
 8001cdc:	d028      	beq.n	8001d30 <HAL_RCC_OscConfig+0x4dc>
            (READ_BIT(pll_config, RCC_PLLCFGR_PLLSRC) != RCC_OscInitStruct->PLL.PLLSource) ||
 8001cde:	68fb      	ldr	r3, [r7, #12]
 8001ce0:	f403 0280 	and.w	r2, r3, #4194304	; 0x400000
 8001ce4:	687b      	ldr	r3, [r7, #4]
 8001ce6:	69db      	ldr	r3, [r3, #28]
        if (((RCC_OscInitStruct->PLL.PLLState) == RCC_PLL_OFF) ||
 8001ce8:	429a      	cmp	r2, r3
 8001cea:	d121      	bne.n	8001d30 <HAL_RCC_OscConfig+0x4dc>
            (READ_BIT(pll_config, RCC_PLLCFGR_PLLM) != (RCC_OscInitStruct->PLL.PLLM) << RCC_PLLCFGR_PLLM_Pos) ||
 8001cec:	68fb      	ldr	r3, [r7, #12]
 8001cee:	f003 023f 	and.w	r2, r3, #63	; 0x3f
 8001cf2:	687b      	ldr	r3, [r7, #4]
 8001cf4:	6a1b      	ldr	r3, [r3, #32]
            (READ_BIT(pll_config, RCC_PLLCFGR_PLLSRC) != RCC_OscInitStruct->PLL.PLLSource) ||
 8001cf6:	429a      	cmp	r2, r3
 8001cf8:	d11a      	bne.n	8001d30 <HAL_RCC_OscConfig+0x4dc>
            (READ_BIT(pll_config, RCC_PLLCFGR_PLLN) != (RCC_OscInitStruct->PLL.PLLN) << RCC_PLLCFGR_PLLN_Pos) ||
 8001cfa:	68fa      	ldr	r2, [r7, #12]
 8001cfc:	f647 73c0 	movw	r3, #32704	; 0x7fc0
 8001d00:	4013      	ands	r3, r2
 8001d02:	687a      	ldr	r2, [r7, #4]
 8001d04:	6a52      	ldr	r2, [r2, #36]	; 0x24
 8001d06:	0192      	lsls	r2, r2, #6
            (READ_BIT(pll_config, RCC_PLLCFGR_PLLM) != (RCC_OscInitStruct->PLL.PLLM) << RCC_PLLCFGR_PLLM_Pos) ||
 8001d08:	4293      	cmp	r3, r2
 8001d0a:	d111      	bne.n	8001d30 <HAL_RCC_OscConfig+0x4dc>
            (READ_BIT(pll_config, RCC_PLLCFGR_PLLP) != (((RCC_OscInitStruct->PLL.PLLP >> 1U) - 1U)) << RCC_PLLCFGR_PLLP_Pos) ||
 8001d0c:	68fb      	ldr	r3, [r7, #12]
 8001d0e:	f403 3240 	and.w	r2, r3, #196608	; 0x30000
 8001d12:	687b      	ldr	r3, [r7, #4]
 8001d14:	6a9b      	ldr	r3, [r3, #40]	; 0x28
 8001d16:	085b      	lsrs	r3, r3, #1
 8001d18:	3b01      	subs	r3, #1
 8001d1a:	041b      	lsls	r3, r3, #16
            (READ_BIT(pll_config, RCC_PLLCFGR_PLLN) != (RCC_OscInitStruct->PLL.PLLN) << RCC_PLLCFGR_PLLN_Pos) ||
 8001d1c:	429a      	cmp	r2, r3
 8001d1e:	d107      	bne.n	8001d30 <HAL_RCC_OscConfig+0x4dc>
            (READ_BIT(pll_config, RCC_PLLCFGR_PLLQ) != (RCC_OscInitStruct->PLL.PLLQ << RCC_PLLCFGR_PLLQ_Pos)))
 8001d20:	68fb      	ldr	r3, [r7, #12]
 8001d22:	f003 6270 	and.w	r2, r3, #251658240	; 0xf000000
 8001d26:	687b      	ldr	r3, [r7, #4]
 8001d28:	6adb      	ldr	r3, [r3, #44]	; 0x2c
 8001d2a:	061b      	lsls	r3, r3, #24
            (READ_BIT(pll_config, RCC_PLLCFGR_PLLP) != (((RCC_OscInitStruct->PLL.PLLP >> 1U) - 1U)) << RCC_PLLCFGR_PLLP_Pos) ||
 8001d2c:	429a      	cmp	r2, r3
 8001d2e:	d001      	beq.n	8001d34 <HAL_RCC_OscConfig+0x4e0>
#endif
        {
          return HAL_ERROR;
 8001d30:	2301      	movs	r3, #1
 8001d32:	e000      	b.n	8001d36 <HAL_RCC_OscConfig+0x4e2>
        }
      }
    }
  }
  return HAL_OK;
 8001d34:	2300      	movs	r3, #0
}
 8001d36:	4618      	mov	r0, r3
 8001d38:	3718      	adds	r7, #24
 8001d3a:	46bd      	mov	sp, r7
 8001d3c:	bd80      	pop	{r7, pc}
 8001d3e:	bf00      	nop
 8001d40:	40023800 	.word	0x40023800

08001d44 <HAL_RCC_ClockConfig>:
  *         HPRE[3:0] bits to ensure that HCLK not exceed the maximum allowed frequency
  *         (for more details refer to section above "Initialization/de-initialization functions")
  * @retval None
  */
HAL_StatusTypeDef HAL_RCC_ClockConfig(RCC_ClkInitTypeDef  *RCC_ClkInitStruct, uint32_t FLatency)
{
 8001d44:	b580      	push	{r7, lr}
 8001d46:	b084      	sub	sp, #16
 8001d48:	af00      	add	r7, sp, #0
 8001d4a:	6078      	str	r0, [r7, #4]
 8001d4c:	6039      	str	r1, [r7, #0]
  uint32_t tickstart;

  /* Check Null pointer */
  if(RCC_ClkInitStruct == NULL)
 8001d4e:	687b      	ldr	r3, [r7, #4]
 8001d50:	2b00      	cmp	r3, #0
 8001d52:	d101      	bne.n	8001d58 <HAL_RCC_ClockConfig+0x14>
  {
    return HAL_ERROR;
 8001d54:	2301      	movs	r3, #1
 8001d56:	e0cc      	b.n	8001ef2 <HAL_RCC_ClockConfig+0x1ae>
  /* To correctly read data from FLASH memory, the number of wait states (LATENCY)
    must be correctly programmed according to the frequency of the CPU clock
    (HCLK) and the supply voltage of the device. */

  /* Increasing the number of wait states because of higher CPU frequency */
  if(FLatency > __HAL_FLASH_GET_LATENCY())
 8001d58:	4b68      	ldr	r3, [pc, #416]	; (8001efc <HAL_RCC_ClockConfig+0x1b8>)
 8001d5a:	681b      	ldr	r3, [r3, #0]
 8001d5c:	f003 0307 	and.w	r3, r3, #7
 8001d60:	683a      	ldr	r2, [r7, #0]
 8001d62:	429a      	cmp	r2, r3
 8001d64:	d90c      	bls.n	8001d80 <HAL_RCC_ClockConfig+0x3c>
  {
    /* Program the new number of wait states to the LATENCY bits in the FLASH_ACR register */
    __HAL_FLASH_SET_LATENCY(FLatency);
 8001d66:	4b65      	ldr	r3, [pc, #404]	; (8001efc <HAL_RCC_ClockConfig+0x1b8>)
 8001d68:	683a      	ldr	r2, [r7, #0]
 8001d6a:	b2d2      	uxtb	r2, r2
 8001d6c:	701a      	strb	r2, [r3, #0]

    /* Check that the new number of wait states is taken into account to access the Flash
    memory by reading the FLASH_ACR register */
    if(__HAL_FLASH_GET_LATENCY() != FLatency)
 8001d6e:	4b63      	ldr	r3, [pc, #396]	; (8001efc <HAL_RCC_ClockConfig+0x1b8>)
 8001d70:	681b      	ldr	r3, [r3, #0]
 8001d72:	f003 0307 	and.w	r3, r3, #7
 8001d76:	683a      	ldr	r2, [r7, #0]
 8001d78:	429a      	cmp	r2, r3
 8001d7a:	d001      	beq.n	8001d80 <HAL_RCC_ClockConfig+0x3c>
    {
      return HAL_ERROR;
 8001d7c:	2301      	movs	r3, #1
 8001d7e:	e0b8      	b.n	8001ef2 <HAL_RCC_ClockConfig+0x1ae>
    }
  }

  /*-------------------------- HCLK Configuration --------------------------*/
  if(((RCC_ClkInitStruct->ClockType) & RCC_CLOCKTYPE_HCLK) == RCC_CLOCKTYPE_HCLK)
 8001d80:	687b      	ldr	r3, [r7, #4]
 8001d82:	681b      	ldr	r3, [r3, #0]
 8001d84:	f003 0302 	and.w	r3, r3, #2
 8001d88:	2b00      	cmp	r3, #0
 8001d8a:	d020      	beq.n	8001dce <HAL_RCC_ClockConfig+0x8a>
  {
    /* Set the highest APBx dividers in order to ensure that we do not go through
       a non-spec phase whatever we decrease or increase HCLK. */
    if(((RCC_ClkInitStruct->ClockType) & RCC_CLOCKTYPE_PCLK1) == RCC_CLOCKTYPE_PCLK1)
 8001d8c:	687b      	ldr	r3, [r7, #4]
 8001d8e:	681b      	ldr	r3, [r3, #0]
 8001d90:	f003 0304 	and.w	r3, r3, #4
 8001d94:	2b00      	cmp	r3, #0
 8001d96:	d005      	beq.n	8001da4 <HAL_RCC_ClockConfig+0x60>
    {
      MODIFY_REG(RCC->CFGR, RCC_CFGR_PPRE1, RCC_HCLK_DIV16);
 8001d98:	4b59      	ldr	r3, [pc, #356]	; (8001f00 <HAL_RCC_ClockConfig+0x1bc>)
 8001d9a:	689b      	ldr	r3, [r3, #8]
 8001d9c:	4a58      	ldr	r2, [pc, #352]	; (8001f00 <HAL_RCC_ClockConfig+0x1bc>)
 8001d9e:	f443 53e0 	orr.w	r3, r3, #7168	; 0x1c00
 8001da2:	6093      	str	r3, [r2, #8]
    }

    if(((RCC_ClkInitStruct->ClockType) & RCC_CLOCKTYPE_PCLK2) == RCC_CLOCKTYPE_PCLK2)
 8001da4:	687b      	ldr	r3, [r7, #4]
 8001da6:	681b      	ldr	r3, [r3, #0]
 8001da8:	f003 0308 	and.w	r3, r3, #8
 8001dac:	2b00      	cmp	r3, #0
 8001dae:	d005      	beq.n	8001dbc <HAL_RCC_ClockConfig+0x78>
    {
      MODIFY_REG(RCC->CFGR, RCC_CFGR_PPRE2, (RCC_HCLK_DIV16 << 3));
 8001db0:	4b53      	ldr	r3, [pc, #332]	; (8001f00 <HAL_RCC_ClockConfig+0x1bc>)
 8001db2:	689b      	ldr	r3, [r3, #8]
 8001db4:	4a52      	ldr	r2, [pc, #328]	; (8001f00 <HAL_RCC_ClockConfig+0x1bc>)
 8001db6:	f443 4360 	orr.w	r3, r3, #57344	; 0xe000
 8001dba:	6093      	str	r3, [r2, #8]
    }

    assert_param(IS_RCC_HCLK(RCC_ClkInitStruct->AHBCLKDivider));
    MODIFY_REG(RCC->CFGR, RCC_CFGR_HPRE, RCC_ClkInitStruct->AHBCLKDivider);
 8001dbc:	4b50      	ldr	r3, [pc, #320]	; (8001f00 <HAL_RCC_ClockConfig+0x1bc>)
 8001dbe:	689b      	ldr	r3, [r3, #8]
 8001dc0:	f023 02f0 	bic.w	r2, r3, #240	; 0xf0
 8001dc4:	687b      	ldr	r3, [r7, #4]
 8001dc6:	689b      	ldr	r3, [r3, #8]
 8001dc8:	494d      	ldr	r1, [pc, #308]	; (8001f00 <HAL_RCC_ClockConfig+0x1bc>)
 8001dca:	4313      	orrs	r3, r2
 8001dcc:	608b      	str	r3, [r1, #8]
  }

  /*------------------------- SYSCLK Configuration ---------------------------*/
  if(((RCC_ClkInitStruct->ClockType) & RCC_CLOCKTYPE_SYSCLK) == RCC_CLOCKTYPE_SYSCLK)
 8001dce:	687b      	ldr	r3, [r7, #4]
 8001dd0:	681b      	ldr	r3, [r3, #0]
 8001dd2:	f003 0301 	and.w	r3, r3, #1
 8001dd6:	2b00      	cmp	r3, #0
 8001dd8:	d044      	beq.n	8001e64 <HAL_RCC_ClockConfig+0x120>
  {
    assert_param(IS_RCC_SYSCLKSOURCE(RCC_ClkInitStruct->SYSCLKSource));

    /* HSE is selected as System Clock Source */
    if(RCC_ClkInitStruct->SYSCLKSource == RCC_SYSCLKSOURCE_HSE)
 8001dda:	687b      	ldr	r3, [r7, #4]
 8001ddc:	685b      	ldr	r3, [r3, #4]
 8001dde:	2b01      	cmp	r3, #1
 8001de0:	d107      	bne.n	8001df2 <HAL_RCC_ClockConfig+0xae>
    {
      /* Check the HSE ready flag */
      if(__HAL_RCC_GET_FLAG(RCC_FLAG_HSERDY) == RESET)
 8001de2:	4b47      	ldr	r3, [pc, #284]	; (8001f00 <HAL_RCC_ClockConfig+0x1bc>)
 8001de4:	681b      	ldr	r3, [r3, #0]
 8001de6:	f403 3300 	and.w	r3, r3, #131072	; 0x20000
 8001dea:	2b00      	cmp	r3, #0
 8001dec:	d119      	bne.n	8001e22 <HAL_RCC_ClockConfig+0xde>
      {
        return HAL_ERROR;
 8001dee:	2301      	movs	r3, #1
 8001df0:	e07f      	b.n	8001ef2 <HAL_RCC_ClockConfig+0x1ae>
      }
    }
    /* PLL is selected as System Clock Source */
    else if((RCC_ClkInitStruct->SYSCLKSource == RCC_SYSCLKSOURCE_PLLCLK)   ||
 8001df2:	687b      	ldr	r3, [r7, #4]
 8001df4:	685b      	ldr	r3, [r3, #4]
 8001df6:	2b02      	cmp	r3, #2
 8001df8:	d003      	beq.n	8001e02 <HAL_RCC_ClockConfig+0xbe>
            (RCC_ClkInitStruct->SYSCLKSource == RCC_SYSCLKSOURCE_PLLRCLK))
 8001dfa:	687b      	ldr	r3, [r7, #4]
 8001dfc:	685b      	ldr	r3, [r3, #4]
    else if((RCC_ClkInitStruct->SYSCLKSource == RCC_SYSCLKSOURCE_PLLCLK)   ||
 8001dfe:	2b03      	cmp	r3, #3
 8001e00:	d107      	bne.n	8001e12 <HAL_RCC_ClockConfig+0xce>
    {
      /* Check the PLL ready flag */
      if(__HAL_RCC_GET_FLAG(RCC_FLAG_PLLRDY) == RESET)
 8001e02:	4b3f      	ldr	r3, [pc, #252]	; (8001f00 <HAL_RCC_ClockConfig+0x1bc>)
 8001e04:	681b      	ldr	r3, [r3, #0]
 8001e06:	f003 7300 	and.w	r3, r3, #33554432	; 0x2000000
 8001e0a:	2b00      	cmp	r3, #0
 8001e0c:	d109      	bne.n	8001e22 <HAL_RCC_ClockConfig+0xde>
      {
        return HAL_ERROR;
 8001e0e:	2301      	movs	r3, #1
 8001e10:	e06f      	b.n	8001ef2 <HAL_RCC_ClockConfig+0x1ae>
    }
    /* HSI is selected as System Clock Source */
    else
    {
      /* Check the HSI ready flag */
      if(__HAL_RCC_GET_FLAG(RCC_FLAG_HSIRDY) == RESET)
 8001e12:	4b3b      	ldr	r3, [pc, #236]	; (8001f00 <HAL_RCC_ClockConfig+0x1bc>)
 8001e14:	681b      	ldr	r3, [r3, #0]
 8001e16:	f003 0302 	and.w	r3, r3, #2
 8001e1a:	2b00      	cmp	r3, #0
 8001e1c:	d101      	bne.n	8001e22 <HAL_RCC_ClockConfig+0xde>
      {
        return HAL_ERROR;
 8001e1e:	2301      	movs	r3, #1
 8001e20:	e067      	b.n	8001ef2 <HAL_RCC_ClockConfig+0x1ae>
      }
    }

    __HAL_RCC_SYSCLK_CONFIG(RCC_ClkInitStruct->SYSCLKSource);
 8001e22:	4b37      	ldr	r3, [pc, #220]	; (8001f00 <HAL_RCC_ClockConfig+0x1bc>)
 8001e24:	689b      	ldr	r3, [r3, #8]
 8001e26:	f023 0203 	bic.w	r2, r3, #3
 8001e2a:	687b      	ldr	r3, [r7, #4]
 8001e2c:	685b      	ldr	r3, [r3, #4]
 8001e2e:	4934      	ldr	r1, [pc, #208]	; (8001f00 <HAL_RCC_ClockConfig+0x1bc>)
 8001e30:	4313      	orrs	r3, r2
 8001e32:	608b      	str	r3, [r1, #8]

    /* Get Start Tick */
    tickstart = HAL_GetTick();
 8001e34:	f7fe fdc0 	bl	80009b8 <HAL_GetTick>
 8001e38:	60f8      	str	r0, [r7, #12]

    while (__HAL_RCC_GET_SYSCLK_SOURCE() != (RCC_ClkInitStruct->SYSCLKSource << RCC_CFGR_SWS_Pos))
 8001e3a:	e00a      	b.n	8001e52 <HAL_RCC_ClockConfig+0x10e>
    {
      if ((HAL_GetTick() - tickstart) > CLOCKSWITCH_TIMEOUT_VALUE)
 8001e3c:	f7fe fdbc 	bl	80009b8 <HAL_GetTick>
 8001e40:	4602      	mov	r2, r0
 8001e42:	68fb      	ldr	r3, [r7, #12]
 8001e44:	1ad3      	subs	r3, r2, r3
 8001e46:	f241 3288 	movw	r2, #5000	; 0x1388
 8001e4a:	4293      	cmp	r3, r2
 8001e4c:	d901      	bls.n	8001e52 <HAL_RCC_ClockConfig+0x10e>
      {
        return HAL_TIMEOUT;
 8001e4e:	2303      	movs	r3, #3
 8001e50:	e04f      	b.n	8001ef2 <HAL_RCC_ClockConfig+0x1ae>
    while (__HAL_RCC_GET_SYSCLK_SOURCE() != (RCC_ClkInitStruct->SYSCLKSource << RCC_CFGR_SWS_Pos))
 8001e52:	4b2b      	ldr	r3, [pc, #172]	; (8001f00 <HAL_RCC_ClockConfig+0x1bc>)
 8001e54:	689b      	ldr	r3, [r3, #8]
 8001e56:	f003 020c 	and.w	r2, r3, #12
 8001e5a:	687b      	ldr	r3, [r7, #4]
