
led_can.elf:     file format elf32-littlearm

Sections:
Idx Name          Size      VMA       LMA       File off  Algn
  0 .isr_vector   00000188  08000000  08000000  00010000  2**0
                  CONTENTS, ALLOC, LOAD, READONLY, DATA
  1 .text         00007558  08000190  08000190  00010190  2**4
                  CONTENTS, ALLOC, LOAD, READONLY, CODE
  2 .rodata       0000040c  080076e8  080076e8  000176e8  2**3
                  CONTENTS, ALLOC, LOAD, READONLY, DATA
  3 .ARM.extab    00000000  08007af4  08007af4  000201dc  2**0
                  CONTENTS
  4 .ARM          00000008  08007af4  08007af4  00017af4  2**2
                  CONTENTS, ALLOC, LOAD, READONLY, DATA
  5 .preinit_array 00000000  08007afc  08007afc  000201dc  2**0
                  CONTENTS, ALLOC, LOAD, DATA
  6 .init_array   00000004  08007afc  08007afc  00017afc  2**2
                  CONTENTS, ALLOC, LOAD, DATA
  7 .fini_array   00000004  08007b00  08007b00  00017b00  2**2
                  CONTENTS, ALLOC, LOAD, DATA
  8 .data         000001dc  20000000  08007b04  00020000  2**2
                  CONTENTS, ALLOC, LOAD, DATA
  9 .ccmram       00000000  10000000  10000000  000201dc  2**0
                  CONTENTS
 10 .bss          00000194  200001dc  200001dc  000201dc  2**2
                  ALLOC
 11 ._user_heap_stack 00000600  20000370  20000370  000201dc  2**0
                  ALLOC
 12 .ARM.attributes 00000030  00000000  00000000  000201dc  2**0
                  CONTENTS, READONLY
 13 .debug_info   0000f1d5  00000000  00000000  0002020c  2**0
                  CONTENTS, READONLY, DEBUGGING, OCTETS
 14 .debug_abbrev 00001df6  00000000  00000000  0002f3e1  2**0
                  CONTENTS, READONLY, DEBUGGING, OCTETS
 15 .debug_aranges 00000d88  00000000  00000000  000311d8  2**3
                  CONTENTS, READONLY, DEBUGGING, OCTETS
 16 .debug_ranges 00000cd0  00000000  00000000  00031f60  2**3
                  CONTENTS, READONLY, DEBUGGING, OCTETS
 17 .debug_macro  00021fe1  00000000  00000000  00032c30  2**0
                  CONTENTS, READONLY, DEBUGGING, OCTETS
 18 .debug_line   0000e9f2  00000000  00000000  00054c11  2**0
                  CONTENTS, READONLY, DEBUGGING, OCTETS
 19 .debug_str    000cebff  00000000  00000000  00063603  2**0
                  CONTENTS, READONLY, DEBUGGING, OCTETS
 20 .comment      00000050  00000000  00000000  00132202  2**0
                  CONTENTS, READONLY
 21 .debug_frame  00004b54  00000000  00000000  00132254  2**2
                  CONTENTS, READONLY, DEBUGGING, OCTETS

Disassembly of section .text:

08000190 <__do_global_dtors_aux>:
 8000190:	b510      	push	{r4, lr}
 8000192:	4c05      	ldr	r4, [pc, #20]	; (80001a8 <__do_global_dtors_aux+0x18>)
 8000194:	7823      	ldrb	r3, [r4, #0]
 8000196:	b933      	cbnz	r3, 80001a6 <__do_global_dtors_aux+0x16>
 8000198:	4b04      	ldr	r3, [pc, #16]	; (80001ac <__do_global_dtors_aux+0x1c>)
 800019a:	b113      	cbz	r3, 80001a2 <__do_global_dtors_aux+0x12>
 800019c:	4804      	ldr	r0, [pc, #16]	; (80001b0 <__do_global_dtors_aux+0x20>)
 800019e:	f3af 8000 	nop.w
 80001a2:	2301      	movs	r3, #1
 80001a4:	7023      	strb	r3, [r4, #0]
 80001a6:	bd10      	pop	{r4, pc}
 80001a8:	200001dc 	.word	0x200001dc
 80001ac:	00000000 	.word	0x00000000
 80001b0:	080076d0 	.word	0x080076d0

080001b4 <frame_dummy>:
 80001b4:	b508      	push	{r3, lr}
 80001b6:	4b03      	ldr	r3, [pc, #12]	; (80001c4 <frame_dummy+0x10>)
 80001b8:	b11b      	cbz	r3, 80001c2 <frame_dummy+0xe>
 80001ba:	4903      	ldr	r1, [pc, #12]	; (80001c8 <frame_dummy+0x14>)
 80001bc:	4803      	ldr	r0, [pc, #12]	; (80001cc <frame_dummy+0x18>)
 80001be:	f3af 8000 	nop.w
 80001c2:	bd08      	pop	{r3, pc}
 80001c4:	00000000 	.word	0x00000000
 80001c8:	200001e0 	.word	0x200001e0
 80001cc:	080076d0 	.word	0x080076d0

080001d0 <strlen>:
 80001d0:	4603      	mov	r3, r0
 80001d2:	f813 2b01 	ldrb.w	r2, [r3], #1
 80001d6:	2a00      	cmp	r2, #0
 80001d8:	d1fb      	bne.n	80001d2 <strlen+0x2>
 80001da:	1a18      	subs	r0, r3, r0
 80001dc:	3801      	subs	r0, #1
 80001de:	4770      	bx	lr

080001e0 <memchr>:
 80001e0:	f001 01ff 	and.w	r1, r1, #255	; 0xff
 80001e4:	2a10      	cmp	r2, #16
 80001e6:	db2b      	blt.n	8000240 <memchr+0x60>
 80001e8:	f010 0f07 	tst.w	r0, #7
 80001ec:	d008      	beq.n	8000200 <memchr+0x20>
 80001ee:	f810 3b01 	ldrb.w	r3, [r0], #1
 80001f2:	3a01      	subs	r2, #1
 80001f4:	428b      	cmp	r3, r1
 80001f6:	d02d      	beq.n	8000254 <memchr+0x74>
 80001f8:	f010 0f07 	tst.w	r0, #7
 80001fc:	b342      	cbz	r2, 8000250 <memchr+0x70>
 80001fe:	d1f6      	bne.n	80001ee <memchr+0xe>
 8000200:	b4f0      	push	{r4, r5, r6, r7}
 8000202:	ea41 2101 	orr.w	r1, r1, r1, lsl #8
 8000206:	ea41 4101 	orr.w	r1, r1, r1, lsl #16
 800020a:	f022 0407 	bic.w	r4, r2, #7
 800020e:	f07f 0700 	mvns.w	r7, #0
 8000212:	2300      	movs	r3, #0
 8000214:	e8f0 5602 	ldrd	r5, r6, [r0], #8
 8000218:	3c08      	subs	r4, #8
 800021a:	ea85 0501 	eor.w	r5, r5, r1
 800021e:	ea86 0601 	eor.w	r6, r6, r1
 8000222:	fa85 f547 	uadd8	r5, r5, r7
 8000226:	faa3 f587 	sel	r5, r3, r7
 800022a:	fa86 f647 	uadd8	r6, r6, r7
 800022e:	faa5 f687 	sel	r6, r5, r7
 8000232:	b98e      	cbnz	r6, 8000258 <memchr+0x78>
 8000234:	d1ee      	bne.n	8000214 <memchr+0x34>
 8000236:	bcf0      	pop	{r4, r5, r6, r7}
 8000238:	f001 01ff 	and.w	r1, r1, #255	; 0xff
 800023c:	f002 0207 	and.w	r2, r2, #7
 8000240:	b132      	cbz	r2, 8000250 <memchr+0x70>
 8000242:	f810 3b01 	ldrb.w	r3, [r0], #1
 8000246:	3a01      	subs	r2, #1
 8000248:	ea83 0301 	eor.w	r3, r3, r1
 800024c:	b113      	cbz	r3, 8000254 <memchr+0x74>
 800024e:	d1f8      	bne.n	8000242 <memchr+0x62>
 8000250:	2000      	movs	r0, #0
 8000252:	4770      	bx	lr
 8000254:	3801      	subs	r0, #1
 8000256:	4770      	bx	lr
 8000258:	2d00      	cmp	r5, #0
 800025a:	bf06      	itte	eq
 800025c:	4635      	moveq	r5, r6
 800025e:	3803      	subeq	r0, #3
 8000260:	3807      	subne	r0, #7
 8000262:	f015 0f01 	tst.w	r5, #1
 8000266:	d107      	bne.n	8000278 <memchr+0x98>
 8000268:	3001      	adds	r0, #1
 800026a:	f415 7f80 	tst.w	r5, #256	; 0x100
 800026e:	bf02      	ittt	eq
 8000270:	3001      	addeq	r0, #1
 8000272:	f415 3fc0 	tsteq.w	r5, #98304	; 0x18000
 8000276:	3001      	addeq	r0, #1
 8000278:	bcf0      	pop	{r4, r5, r6, r7}
 800027a:	3801      	subs	r0, #1
 800027c:	4770      	bx	lr
 800027e:	bf00      	nop

08000280 <__aeabi_drsub>:
 8000280:	f081 4100 	eor.w	r1, r1, #2147483648	; 0x80000000
 8000284:	e002      	b.n	800028c <__adddf3>
 8000286:	bf00      	nop

08000288 <__aeabi_dsub>:
 8000288:	f083 4300 	eor.w	r3, r3, #2147483648	; 0x80000000

0800028c <__adddf3>:
 800028c:	b530      	push	{r4, r5, lr}
 800028e:	ea4f 0441 	mov.w	r4, r1, lsl #1
 8000292:	ea4f 0543 	mov.w	r5, r3, lsl #1
 8000296:	ea94 0f05 	teq	r4, r5
 800029a:	bf08      	it	eq
 800029c:	ea90 0f02 	teqeq	r0, r2
 80002a0:	bf1f      	itttt	ne
 80002a2:	ea54 0c00 	orrsne.w	ip, r4, r0
 80002a6:	ea55 0c02 	orrsne.w	ip, r5, r2
 80002aa:	ea7f 5c64 	mvnsne.w	ip, r4, asr #21
 80002ae:	ea7f 5c65 	mvnsne.w	ip, r5, asr #21
 80002b2:	f000 80e2 	beq.w	800047a <__adddf3+0x1ee>
 80002b6:	ea4f 5454 	mov.w	r4, r4, lsr #21
 80002ba:	ebd4 5555 	rsbs	r5, r4, r5, lsr #21
 80002be:	bfb8      	it	lt
 80002c0:	426d      	neglt	r5, r5
 80002c2:	dd0c      	ble.n	80002de <__adddf3+0x52>
 80002c4:	442c      	add	r4, r5
 80002c6:	ea80 0202 	eor.w	r2, r0, r2
 80002ca:	ea81 0303 	eor.w	r3, r1, r3
 80002ce:	ea82 0000 	eor.w	r0, r2, r0
 80002d2:	ea83 0101 	eor.w	r1, r3, r1
 80002d6:	ea80 0202 	eor.w	r2, r0, r2
 80002da:	ea81 0303 	eor.w	r3, r1, r3
 80002de:	2d36      	cmp	r5, #54	; 0x36
 80002e0:	bf88      	it	hi
 80002e2:	bd30      	pophi	{r4, r5, pc}
 80002e4:	f011 4f00 	tst.w	r1, #2147483648	; 0x80000000
 80002e8:	ea4f 3101 	mov.w	r1, r1, lsl #12
 80002ec:	f44f 1c80 	mov.w	ip, #1048576	; 0x100000
 80002f0:	ea4c 3111 	orr.w	r1, ip, r1, lsr #12
 80002f4:	d002      	beq.n	80002fc <__adddf3+0x70>
 80002f6:	4240      	negs	r0, r0
 80002f8:	eb61 0141 	sbc.w	r1, r1, r1, lsl #1
 80002fc:	f013 4f00 	tst.w	r3, #2147483648	; 0x80000000
 8000300:	ea4f 3303 	mov.w	r3, r3, lsl #12
 8000304:	ea4c 3313 	orr.w	r3, ip, r3, lsr #12
 8000308:	d002      	beq.n	8000310 <__adddf3+0x84>
 800030a:	4252      	negs	r2, r2
 800030c:	eb63 0343 	sbc.w	r3, r3, r3, lsl #1
 8000310:	ea94 0f05 	teq	r4, r5
 8000314:	f000 80a7 	beq.w	8000466 <__adddf3+0x1da>
 8000318:	f1a4 0401 	sub.w	r4, r4, #1
 800031c:	f1d5 0e20 	rsbs	lr, r5, #32
 8000320:	db0d      	blt.n	800033e <__adddf3+0xb2>
 8000322:	fa02 fc0e 	lsl.w	ip, r2, lr
 8000326:	fa22 f205 	lsr.w	r2, r2, r5
 800032a:	1880      	adds	r0, r0, r2
 800032c:	f141 0100 	adc.w	r1, r1, #0
 8000330:	fa03 f20e 	lsl.w	r2, r3, lr
 8000334:	1880      	adds	r0, r0, r2
 8000336:	fa43 f305 	asr.w	r3, r3, r5
 800033a:	4159      	adcs	r1, r3
 800033c:	e00e      	b.n	800035c <__adddf3+0xd0>
 800033e:	f1a5 0520 	sub.w	r5, r5, #32
 8000342:	f10e 0e20 	add.w	lr, lr, #32
 8000346:	2a01      	cmp	r2, #1
 8000348:	fa03 fc0e 	lsl.w	ip, r3, lr
 800034c:	bf28      	it	cs
 800034e:	f04c 0c02 	orrcs.w	ip, ip, #2
 8000352:	fa43 f305 	asr.w	r3, r3, r5
 8000356:	18c0      	adds	r0, r0, r3
 8000358:	eb51 71e3 	adcs.w	r1, r1, r3, asr #31
 800035c:	f001 4500 	and.w	r5, r1, #2147483648	; 0x80000000
 8000360:	d507      	bpl.n	8000372 <__adddf3+0xe6>
 8000362:	f04f 0e00 	mov.w	lr, #0
 8000366:	f1dc 0c00 	rsbs	ip, ip, #0
 800036a:	eb7e 0000 	sbcs.w	r0, lr, r0
 800036e:	eb6e 0101 	sbc.w	r1, lr, r1
 8000372:	f5b1 1f80 	cmp.w	r1, #1048576	; 0x100000
 8000376:	d31b      	bcc.n	80003b0 <__adddf3+0x124>
 8000378:	f5b1 1f00 	cmp.w	r1, #2097152	; 0x200000
 800037c:	d30c      	bcc.n	8000398 <__adddf3+0x10c>
 800037e:	0849      	lsrs	r1, r1, #1
 8000380:	ea5f 0030 	movs.w	r0, r0, rrx
 8000384:	ea4f 0c3c 	mov.w	ip, ip, rrx
 8000388:	f104 0401 	add.w	r4, r4, #1
 800038c:	ea4f 5244 	mov.w	r2, r4, lsl #21
 8000390:	f512 0f80 	cmn.w	r2, #4194304	; 0x400000
 8000394:	f080 809a 	bcs.w	80004cc <__adddf3+0x240>
 8000398:	f1bc 4f00 	cmp.w	ip, #2147483648	; 0x80000000
 800039c:	bf08      	it	eq
 800039e:	ea5f 0c50 	movseq.w	ip, r0, lsr #1
 80003a2:	f150 0000 	adcs.w	r0, r0, #0
 80003a6:	eb41 5104 	adc.w	r1, r1, r4, lsl #20
 80003aa:	ea41 0105 	orr.w	r1, r1, r5
 80003ae:	bd30      	pop	{r4, r5, pc}
 80003b0:	ea5f 0c4c 	movs.w	ip, ip, lsl #1
 80003b4:	4140      	adcs	r0, r0
 80003b6:	eb41 0101 	adc.w	r1, r1, r1
 80003ba:	3c01      	subs	r4, #1
 80003bc:	bf28      	it	cs
 80003be:	f5b1 1f80 	cmpcs.w	r1, #1048576	; 0x100000
 80003c2:	d2e9      	bcs.n	8000398 <__adddf3+0x10c>
 80003c4:	f091 0f00 	teq	r1, #0
 80003c8:	bf04      	itt	eq
 80003ca:	4601      	moveq	r1, r0
 80003cc:	2000      	moveq	r0, #0
 80003ce:	fab1 f381 	clz	r3, r1
 80003d2:	bf08      	it	eq
 80003d4:	3320      	addeq	r3, #32
 80003d6:	f1a3 030b 	sub.w	r3, r3, #11
 80003da:	f1b3 0220 	subs.w	r2, r3, #32
 80003de:	da0c      	bge.n	80003fa <__adddf3+0x16e>
 80003e0:	320c      	adds	r2, #12
 80003e2:	dd08      	ble.n	80003f6 <__adddf3+0x16a>
 80003e4:	f102 0c14 	add.w	ip, r2, #20
 80003e8:	f1c2 020c 	rsb	r2, r2, #12
 80003ec:	fa01 f00c 	lsl.w	r0, r1, ip
 80003f0:	fa21 f102 	lsr.w	r1, r1, r2
 80003f4:	e00c      	b.n	8000410 <__adddf3+0x184>
 80003f6:	f102 0214 	add.w	r2, r2, #20
 80003fa:	bfd8      	it	le
 80003fc:	f1c2 0c20 	rsble	ip, r2, #32
 8000400:	fa01 f102 	lsl.w	r1, r1, r2
 8000404:	fa20 fc0c 	lsr.w	ip, r0, ip
 8000408:	bfdc      	itt	le
 800040a:	ea41 010c 	orrle.w	r1, r1, ip
 800040e:	4090      	lslle	r0, r2
 8000410:	1ae4      	subs	r4, r4, r3
 8000412:	bfa2      	ittt	ge
 8000414:	eb01 5104 	addge.w	r1, r1, r4, lsl #20
 8000418:	4329      	orrge	r1, r5
 800041a:	bd30      	popge	{r4, r5, pc}
 800041c:	ea6f 0404 	mvn.w	r4, r4
 8000420:	3c1f      	subs	r4, #31
 8000422:	da1c      	bge.n	800045e <__adddf3+0x1d2>
 8000424:	340c      	adds	r4, #12
 8000426:	dc0e      	bgt.n	8000446 <__adddf3+0x1ba>
 8000428:	f104 0414 	add.w	r4, r4, #20
 800042c:	f1c4 0220 	rsb	r2, r4, #32
 8000430:	fa20 f004 	lsr.w	r0, r0, r4
 8000434:	fa01 f302 	lsl.w	r3, r1, r2
 8000438:	ea40 0003 	orr.w	r0, r0, r3
 800043c:	fa21 f304 	lsr.w	r3, r1, r4
 8000440:	ea45 0103 	orr.w	r1, r5, r3
 8000444:	bd30      	pop	{r4, r5, pc}
 8000446:	f1c4 040c 	rsb	r4, r4, #12
 800044a:	f1c4 0220 	rsb	r2, r4, #32
 800044e:	fa20 f002 	lsr.w	r0, r0, r2
 8000452:	fa01 f304 	lsl.w	r3, r1, r4
 8000456:	ea40 0003 	orr.w	r0, r0, r3
 800045a:	4629      	mov	r1, r5
 800045c:	bd30      	pop	{r4, r5, pc}
 800045e:	fa21 f004 	lsr.w	r0, r1, r4
 8000462:	4629      	mov	r1, r5
 8000464:	bd30      	pop	{r4, r5, pc}
 8000466:	f094 0f00 	teq	r4, #0
 800046a:	f483 1380 	eor.w	r3, r3, #1048576	; 0x100000
 800046e:	bf06      	itte	eq
 8000470:	f481 1180 	eoreq.w	r1, r1, #1048576	; 0x100000
 8000474:	3401      	addeq	r4, #1
 8000476:	3d01      	subne	r5, #1
 8000478:	e74e      	b.n	8000318 <__adddf3+0x8c>
 800047a:	ea7f 5c64 	mvns.w	ip, r4, asr #21
 800047e:	bf18      	it	ne
 8000480:	ea7f 5c65 	mvnsne.w	ip, r5, asr #21
 8000484:	d029      	beq.n	80004da <__adddf3+0x24e>
 8000486:	ea94 0f05 	teq	r4, r5
 800048a:	bf08      	it	eq
 800048c:	ea90 0f02 	teqeq	r0, r2
 8000490:	d005      	beq.n	800049e <__adddf3+0x212>
 8000492:	ea54 0c00 	orrs.w	ip, r4, r0
 8000496:	bf04      	itt	eq
 8000498:	4619      	moveq	r1, r3
 800049a:	4610      	moveq	r0, r2
 800049c:	bd30      	pop	{r4, r5, pc}
 800049e:	ea91 0f03 	teq	r1, r3
 80004a2:	bf1e      	ittt	ne
 80004a4:	2100      	movne	r1, #0
 80004a6:	2000      	movne	r0, #0
 80004a8:	bd30      	popne	{r4, r5, pc}
 80004aa:	ea5f 5c54 	movs.w	ip, r4, lsr #21
 80004ae:	d105      	bne.n	80004bc <__adddf3+0x230>
 80004b0:	0040      	lsls	r0, r0, #1
 80004b2:	4149      	adcs	r1, r1
 80004b4:	bf28      	it	cs
 80004b6:	f041 4100 	orrcs.w	r1, r1, #2147483648	; 0x80000000
 80004ba:	bd30      	pop	{r4, r5, pc}
 80004bc:	f514 0480 	adds.w	r4, r4, #4194304	; 0x400000
 80004c0:	bf3c      	itt	cc
 80004c2:	f501 1180 	addcc.w	r1, r1, #1048576	; 0x100000
 80004c6:	bd30      	popcc	{r4, r5, pc}
 80004c8:	f001 4500 	and.w	r5, r1, #2147483648	; 0x80000000
 80004cc:	f045 41fe 	orr.w	r1, r5, #2130706432	; 0x7f000000
 80004d0:	f441 0170 	orr.w	r1, r1, #15728640	; 0xf00000
 80004d4:	f04f 0000 	mov.w	r0, #0
 80004d8:	bd30      	pop	{r4, r5, pc}
 80004da:	ea7f 5c64 	mvns.w	ip, r4, asr #21
 80004de:	bf1a      	itte	ne
 80004e0:	4619      	movne	r1, r3
 80004e2:	4610      	movne	r0, r2
 80004e4:	ea7f 5c65 	mvnseq.w	ip, r5, asr #21
 80004e8:	bf1c      	itt	ne
 80004ea:	460b      	movne	r3, r1
 80004ec:	4602      	movne	r2, r0
 80004ee:	ea50 3401 	orrs.w	r4, r0, r1, lsl #12
 80004f2:	bf06      	itte	eq
 80004f4:	ea52 3503 	orrseq.w	r5, r2, r3, lsl #12
 80004f8:	ea91 0f03 	teqeq	r1, r3
 80004fc:	f441 2100 	orrne.w	r1, r1, #524288	; 0x80000
 8000500:	bd30      	pop	{r4, r5, pc}
 8000502:	bf00      	nop

08000504 <__aeabi_ui2d>:
 8000504:	f090 0f00 	teq	r0, #0
 8000508:	bf04      	itt	eq
 800050a:	2100      	moveq	r1, #0
 800050c:	4770      	bxeq	lr
 800050e:	b530      	push	{r4, r5, lr}
 8000510:	f44f 6480 	mov.w	r4, #1024	; 0x400
 8000514:	f104 0432 	add.w	r4, r4, #50	; 0x32
 8000518:	f04f 0500 	mov.w	r5, #0
 800051c:	f04f 0100 	mov.w	r1, #0
 8000520:	e750      	b.n	80003c4 <__adddf3+0x138>
 8000522:	bf00      	nop

08000524 <__aeabi_i2d>:
 8000524:	f090 0f00 	teq	r0, #0
 8000528:	bf04      	itt	eq
 800052a:	2100      	moveq	r1, #0
 800052c:	4770      	bxeq	lr
 800052e:	b530      	push	{r4, r5, lr}
 8000530:	f44f 6480 	mov.w	r4, #1024	; 0x400
 8000534:	f104 0432 	add.w	r4, r4, #50	; 0x32
 8000538:	f010 4500 	ands.w	r5, r0, #2147483648	; 0x80000000
 800053c:	bf48      	it	mi
 800053e:	4240      	negmi	r0, r0
 8000540:	f04f 0100 	mov.w	r1, #0
 8000544:	e73e      	b.n	80003c4 <__adddf3+0x138>
 8000546:	bf00      	nop

08000548 <__aeabi_f2d>:
 8000548:	0042      	lsls	r2, r0, #1
 800054a:	ea4f 01e2 	mov.w	r1, r2, asr #3
 800054e:	ea4f 0131 	mov.w	r1, r1, rrx
 8000552:	ea4f 7002 	mov.w	r0, r2, lsl #28
 8000556:	bf1f      	itttt	ne
 8000558:	f012 437f 	andsne.w	r3, r2, #4278190080	; 0xff000000
 800055c:	f093 4f7f 	teqne	r3, #4278190080	; 0xff000000
 8000560:	f081 5160 	eorne.w	r1, r1, #939524096	; 0x38000000
 8000564:	4770      	bxne	lr
 8000566:	f032 427f 	bics.w	r2, r2, #4278190080	; 0xff000000
 800056a:	bf08      	it	eq
 800056c:	4770      	bxeq	lr
 800056e:	f093 4f7f 	teq	r3, #4278190080	; 0xff000000
 8000572:	bf04      	itt	eq
 8000574:	f441 2100 	orreq.w	r1, r1, #524288	; 0x80000
 8000578:	4770      	bxeq	lr
 800057a:	b530      	push	{r4, r5, lr}
 800057c:	f44f 7460 	mov.w	r4, #896	; 0x380
 8000580:	f001 4500 	and.w	r5, r1, #2147483648	; 0x80000000
 8000584:	f021 4100 	bic.w	r1, r1, #2147483648	; 0x80000000
 8000588:	e71c      	b.n	80003c4 <__adddf3+0x138>
 800058a:	bf00      	nop

0800058c <__aeabi_ul2d>:
 800058c:	ea50 0201 	orrs.w	r2, r0, r1
 8000590:	bf08      	it	eq
 8000592:	4770      	bxeq	lr
 8000594:	b530      	push	{r4, r5, lr}
 8000596:	f04f 0500 	mov.w	r5, #0
 800059a:	e00a      	b.n	80005b2 <__aeabi_l2d+0x16>

0800059c <__aeabi_l2d>:
 800059c:	ea50 0201 	orrs.w	r2, r0, r1
 80005a0:	bf08      	it	eq
 80005a2:	4770      	bxeq	lr
 80005a4:	b530      	push	{r4, r5, lr}
 80005a6:	f011 4500 	ands.w	r5, r1, #2147483648	; 0x80000000
 80005aa:	d502      	bpl.n	80005b2 <__aeabi_l2d+0x16>
 80005ac:	4240      	negs	r0, r0
 80005ae:	eb61 0141 	sbc.w	r1, r1, r1, lsl #1
 80005b2:	f44f 6480 	mov.w	r4, #1024	; 0x400
 80005b6:	f104 0432 	add.w	r4, r4, #50	; 0x32
 80005ba:	ea5f 5c91 	movs.w	ip, r1, lsr #22
 80005be:	f43f aed8 	beq.w	8000372 <__adddf3+0xe6>
 80005c2:	f04f 0203 	mov.w	r2, #3
 80005c6:	ea5f 0cdc 	movs.w	ip, ip, lsr #3
 80005ca:	bf18      	it	ne
 80005cc:	3203      	addne	r2, #3
 80005ce:	ea5f 0cdc 	movs.w	ip, ip, lsr #3
 80005d2:	bf18      	it	ne
 80005d4:	3203      	addne	r2, #3
 80005d6:	eb02 02dc 	add.w	r2, r2, ip, lsr #3
 80005da:	f1c2 0320 	rsb	r3, r2, #32
 80005de:	fa00 fc03 	lsl.w	ip, r0, r3
 80005e2:	fa20 f002 	lsr.w	r0, r0, r2
 80005e6:	fa01 fe03 	lsl.w	lr, r1, r3
 80005ea:	ea40 000e 	orr.w	r0, r0, lr
 80005ee:	fa21 f102 	lsr.w	r1, r1, r2
 80005f2:	4414      	add	r4, r2
 80005f4:	e6bd      	b.n	8000372 <__adddf3+0xe6>
 80005f6:	bf00      	nop

080005f8 <__aeabi_dmul>:
 80005f8:	b570      	push	{r4, r5, r6, lr}
 80005fa:	f04f 0cff 	mov.w	ip, #255	; 0xff
 80005fe:	f44c 6ce0 	orr.w	ip, ip, #1792	; 0x700
 8000602:	ea1c 5411 	ands.w	r4, ip, r1, lsr #20
 8000606:	bf1d      	ittte	ne
 8000608:	ea1c 5513 	andsne.w	r5, ip, r3, lsr #20
 800060c:	ea94 0f0c 	teqne	r4, ip
 8000610:	ea95 0f0c 	teqne	r5, ip
 8000614:	f000 f8de 	bleq	80007d4 <__aeabi_dmul+0x1dc>
 8000618:	442c      	add	r4, r5
 800061a:	ea81 0603 	eor.w	r6, r1, r3
 800061e:	ea21 514c 	bic.w	r1, r1, ip, lsl #21
 8000622:	ea23 534c 	bic.w	r3, r3, ip, lsl #21
 8000626:	ea50 3501 	orrs.w	r5, r0, r1, lsl #12
 800062a:	bf18      	it	ne
 800062c:	ea52 3503 	orrsne.w	r5, r2, r3, lsl #12
 8000630:	f441 1180 	orr.w	r1, r1, #1048576	; 0x100000
 8000634:	f443 1380 	orr.w	r3, r3, #1048576	; 0x100000
 8000638:	d038      	beq.n	80006ac <__aeabi_dmul+0xb4>
 800063a:	fba0 ce02 	umull	ip, lr, r0, r2
 800063e:	f04f 0500 	mov.w	r5, #0
 8000642:	fbe1 e502 	umlal	lr, r5, r1, r2
 8000646:	f006 4200 	and.w	r2, r6, #2147483648	; 0x80000000
 800064a:	fbe0 e503 	umlal	lr, r5, r0, r3
 800064e:	f04f 0600 	mov.w	r6, #0
 8000652:	fbe1 5603 	umlal	r5, r6, r1, r3
 8000656:	f09c 0f00 	teq	ip, #0
 800065a:	bf18      	it	ne
 800065c:	f04e 0e01 	orrne.w	lr, lr, #1
 8000660:	f1a4 04ff 	sub.w	r4, r4, #255	; 0xff
 8000664:	f5b6 7f00 	cmp.w	r6, #512	; 0x200
 8000668:	f564 7440 	sbc.w	r4, r4, #768	; 0x300
 800066c:	d204      	bcs.n	8000678 <__aeabi_dmul+0x80>
 800066e:	ea5f 0e4e 	movs.w	lr, lr, lsl #1
 8000672:	416d      	adcs	r5, r5
 8000674:	eb46 0606 	adc.w	r6, r6, r6
 8000678:	ea42 21c6 	orr.w	r1, r2, r6, lsl #11
 800067c:	ea41 5155 	orr.w	r1, r1, r5, lsr #21
 8000680:	ea4f 20c5 	mov.w	r0, r5, lsl #11
 8000684:	ea40 505e 	orr.w	r0, r0, lr, lsr #21
 8000688:	ea4f 2ece 	mov.w	lr, lr, lsl #11
 800068c:	f1b4 0cfd 	subs.w	ip, r4, #253	; 0xfd
 8000690:	bf88      	it	hi
 8000692:	f5bc 6fe0 	cmphi.w	ip, #1792	; 0x700
 8000696:	d81e      	bhi.n	80006d6 <__aeabi_dmul+0xde>
 8000698:	f1be 4f00 	cmp.w	lr, #2147483648	; 0x80000000
 800069c:	bf08      	it	eq
 800069e:	ea5f 0e50 	movseq.w	lr, r0, lsr #1
 80006a2:	f150 0000 	adcs.w	r0, r0, #0
 80006a6:	eb41 5104 	adc.w	r1, r1, r4, lsl #20
 80006aa:	bd70      	pop	{r4, r5, r6, pc}
 80006ac:	f006 4600 	and.w	r6, r6, #2147483648	; 0x80000000
 80006b0:	ea46 0101 	orr.w	r1, r6, r1
 80006b4:	ea40 0002 	orr.w	r0, r0, r2
 80006b8:	ea81 0103 	eor.w	r1, r1, r3
 80006bc:	ebb4 045c 	subs.w	r4, r4, ip, lsr #1
 80006c0:	bfc2      	ittt	gt
 80006c2:	ebd4 050c 	rsbsgt	r5, r4, ip
 80006c6:	ea41 5104 	orrgt.w	r1, r1, r4, lsl #20
 80006ca:	bd70      	popgt	{r4, r5, r6, pc}
 80006cc:	f441 1180 	orr.w	r1, r1, #1048576	; 0x100000
 80006d0:	f04f 0e00 	mov.w	lr, #0
 80006d4:	3c01      	subs	r4, #1
 80006d6:	f300 80ab 	bgt.w	8000830 <__aeabi_dmul+0x238>
 80006da:	f114 0f36 	cmn.w	r4, #54	; 0x36
 80006de:	bfde      	ittt	le
 80006e0:	2000      	movle	r0, #0
 80006e2:	f001 4100 	andle.w	r1, r1, #2147483648	; 0x80000000
 80006e6:	bd70      	pople	{r4, r5, r6, pc}
 80006e8:	f1c4 0400 	rsb	r4, r4, #0
 80006ec:	3c20      	subs	r4, #32
 80006ee:	da35      	bge.n	800075c <__aeabi_dmul+0x164>
 80006f0:	340c      	adds	r4, #12
 80006f2:	dc1b      	bgt.n	800072c <__aeabi_dmul+0x134>
 80006f4:	f104 0414 	add.w	r4, r4, #20
 80006f8:	f1c4 0520 	rsb	r5, r4, #32
 80006fc:	fa00 f305 	lsl.w	r3, r0, r5
 8000700:	fa20 f004 	lsr.w	r0, r0, r4
 8000704:	fa01 f205 	lsl.w	r2, r1, r5
 8000708:	ea40 0002 	orr.w	r0, r0, r2
 800070c:	f001 4200 	and.w	r2, r1, #2147483648	; 0x80000000
 8000710:	f021 4100 	bic.w	r1, r1, #2147483648	; 0x80000000
 8000714:	eb10 70d3 	adds.w	r0, r0, r3, lsr #31
 8000718:	fa21 f604 	lsr.w	r6, r1, r4
 800071c:	eb42 0106 	adc.w	r1, r2, r6
 8000720:	ea5e 0e43 	orrs.w	lr, lr, r3, lsl #1
 8000724:	bf08      	it	eq
 8000726:	ea20 70d3 	biceq.w	r0, r0, r3, lsr #31
 800072a:	bd70      	pop	{r4, r5, r6, pc}
 800072c:	f1c4 040c 	rsb	r4, r4, #12
 8000730:	f1c4 0520 	rsb	r5, r4, #32
 8000734:	fa00 f304 	lsl.w	r3, r0, r4
 8000738:	fa20 f005 	lsr.w	r0, r0, r5
 800073c:	fa01 f204 	lsl.w	r2, r1, r4
 8000740:	ea40 0002 	orr.w	r0, r0, r2
 8000744:	f001 4100 	and.w	r1, r1, #2147483648	; 0x80000000
 8000748:	eb10 70d3 	adds.w	r0, r0, r3, lsr #31
 800074c:	f141 0100 	adc.w	r1, r1, #0
 8000750:	ea5e 0e43 	orrs.w	lr, lr, r3, lsl #1
 8000754:	bf08      	it	eq
 8000756:	ea20 70d3 	biceq.w	r0, r0, r3, lsr #31
 800075a:	bd70      	pop	{r4, r5, r6, pc}
 800075c:	f1c4 0520 	rsb	r5, r4, #32
 8000760:	fa00 f205 	lsl.w	r2, r0, r5
 8000764:	ea4e 0e02 	orr.w	lr, lr, r2
 8000768:	fa20 f304 	lsr.w	r3, r0, r4
 800076c:	fa01 f205 	lsl.w	r2, r1, r5
 8000770:	ea43 0302 	orr.w	r3, r3, r2
 8000774:	fa21 f004 	lsr.w	r0, r1, r4
 8000778:	f001 4100 	and.w	r1, r1, #2147483648	; 0x80000000
 800077c:	fa21 f204 	lsr.w	r2, r1, r4
 8000780:	ea20 0002 	bic.w	r0, r0, r2
 8000784:	eb00 70d3 	add.w	r0, r0, r3, lsr #31
 8000788:	ea5e 0e43 	orrs.w	lr, lr, r3, lsl #1
 800078c:	bf08      	it	eq
 800078e:	ea20 70d3 	biceq.w	r0, r0, r3, lsr #31
 8000792:	bd70      	pop	{r4, r5, r6, pc}
 8000794:	f094 0f00 	teq	r4, #0
 8000798:	d10f      	bne.n	80007ba <__aeabi_dmul+0x1c2>
 800079a:	f001 4600 	and.w	r6, r1, #2147483648	; 0x80000000
 800079e:	0040      	lsls	r0, r0, #1
 80007a0:	eb41 0101 	adc.w	r1, r1, r1
 80007a4:	f411 1f80 	tst.w	r1, #1048576	; 0x100000
 80007a8:	bf08      	it	eq
 80007aa:	3c01      	subeq	r4, #1
 80007ac:	d0f7      	beq.n	800079e <__aeabi_dmul+0x1a6>
 80007ae:	ea41 0106 	orr.w	r1, r1, r6
 80007b2:	f095 0f00 	teq	r5, #0
 80007b6:	bf18      	it	ne
 80007b8:	4770      	bxne	lr
 80007ba:	f003 4600 	and.w	r6, r3, #2147483648	; 0x80000000
 80007be:	0052      	lsls	r2, r2, #1
 80007c0:	eb43 0303 	adc.w	r3, r3, r3
 80007c4:	f413 1f80 	tst.w	r3, #1048576	; 0x100000
 80007c8:	bf08      	it	eq
 80007ca:	3d01      	subeq	r5, #1
 80007cc:	d0f7      	beq.n	80007be <__aeabi_dmul+0x1c6>
 80007ce:	ea43 0306 	orr.w	r3, r3, r6
 80007d2:	4770      	bx	lr
 80007d4:	ea94 0f0c 	teq	r4, ip
 80007d8:	ea0c 5513 	and.w	r5, ip, r3, lsr #20
 80007dc:	bf18      	it	ne
 80007de:	ea95 0f0c 	teqne	r5, ip
 80007e2:	d00c      	beq.n	80007fe <__aeabi_dmul+0x206>
 80007e4:	ea50 0641 	orrs.w	r6, r0, r1, lsl #1
 80007e8:	bf18      	it	ne
 80007ea:	ea52 0643 	orrsne.w	r6, r2, r3, lsl #1
 80007ee:	d1d1      	bne.n	8000794 <__aeabi_dmul+0x19c>
 80007f0:	ea81 0103 	eor.w	r1, r1, r3
 80007f4:	f001 4100 	and.w	r1, r1, #2147483648	; 0x80000000
 80007f8:	f04f 0000 	mov.w	r0, #0
 80007fc:	bd70      	pop	{r4, r5, r6, pc}
 80007fe:	ea50 0641 	orrs.w	r6, r0, r1, lsl #1
 8000802:	bf06      	itte	eq
 8000804:	4610      	moveq	r0, r2
 8000806:	4619      	moveq	r1, r3
 8000808:	ea52 0643 	orrsne.w	r6, r2, r3, lsl #1
 800080c:	d019      	beq.n	8000842 <__aeabi_dmul+0x24a>
 800080e:	ea94 0f0c 	teq	r4, ip
 8000812:	d102      	bne.n	800081a <__aeabi_dmul+0x222>
 8000814:	ea50 3601 	orrs.w	r6, r0, r1, lsl #12
 8000818:	d113      	bne.n	8000842 <__aeabi_dmul+0x24a>
 800081a:	ea95 0f0c 	teq	r5, ip
 800081e:	d105      	bne.n	800082c <__aeabi_dmul+0x234>
 8000820:	ea52 3603 	orrs.w	r6, r2, r3, lsl #12
 8000824:	bf1c      	itt	ne
 8000826:	4610      	movne	r0, r2
 8000828:	4619      	movne	r1, r3
 800082a:	d10a      	bne.n	8000842 <__aeabi_dmul+0x24a>
 800082c:	ea81 0103 	eor.w	r1, r1, r3
 8000830:	f001 4100 	and.w	r1, r1, #2147483648	; 0x80000000
 8000834:	f041 41fe 	orr.w	r1, r1, #2130706432	; 0x7f000000
 8000838:	f441 0170 	orr.w	r1, r1, #15728640	; 0xf00000
 800083c:	f04f 0000 	mov.w	r0, #0
 8000840:	bd70      	pop	{r4, r5, r6, pc}
 8000842:	f041 41fe 	orr.w	r1, r1, #2130706432	; 0x7f000000
 8000846:	f441 0178 	orr.w	r1, r1, #16252928	; 0xf80000
 800084a:	bd70      	pop	{r4, r5, r6, pc}

0800084c <__aeabi_ddiv>:
 800084c:	b570      	push	{r4, r5, r6, lr}
 800084e:	f04f 0cff 	mov.w	ip, #255	; 0xff
 8000852:	f44c 6ce0 	orr.w	ip, ip, #1792	; 0x700
 8000856:	ea1c 5411 	ands.w	r4, ip, r1, lsr #20
 800085a:	bf1d      	ittte	ne
 800085c:	ea1c 5513 	andsne.w	r5, ip, r3, lsr #20
 8000860:	ea94 0f0c 	teqne	r4, ip
 8000864:	ea95 0f0c 	teqne	r5, ip
 8000868:	f000 f8a7 	bleq	80009ba <__aeabi_ddiv+0x16e>
 800086c:	eba4 0405 	sub.w	r4, r4, r5
 8000870:	ea81 0e03 	eor.w	lr, r1, r3
 8000874:	ea52 3503 	orrs.w	r5, r2, r3, lsl #12
 8000878:	ea4f 3101 	mov.w	r1, r1, lsl #12
 800087c:	f000 8088 	beq.w	8000990 <__aeabi_ddiv+0x144>
 8000880:	ea4f 3303 	mov.w	r3, r3, lsl #12
 8000884:	f04f 5580 	mov.w	r5, #268435456	; 0x10000000
 8000888:	ea45 1313 	orr.w	r3, r5, r3, lsr #4
 800088c:	ea43 6312 	orr.w	r3, r3, r2, lsr #24
 8000890:	ea4f 2202 	mov.w	r2, r2, lsl #8
 8000894:	ea45 1511 	orr.w	r5, r5, r1, lsr #4
 8000898:	ea45 6510 	orr.w	r5, r5, r0, lsr #24
 800089c:	ea4f 2600 	mov.w	r6, r0, lsl #8
 80008a0:	f00e 4100 	and.w	r1, lr, #2147483648	; 0x80000000
 80008a4:	429d      	cmp	r5, r3
 80008a6:	bf08      	it	eq
 80008a8:	4296      	cmpeq	r6, r2
 80008aa:	f144 04fd 	adc.w	r4, r4, #253	; 0xfd
 80008ae:	f504 7440 	add.w	r4, r4, #768	; 0x300
 80008b2:	d202      	bcs.n	80008ba <__aeabi_ddiv+0x6e>
 80008b4:	085b      	lsrs	r3, r3, #1
 80008b6:	ea4f 0232 	mov.w	r2, r2, rrx
 80008ba:	1ab6      	subs	r6, r6, r2
 80008bc:	eb65 0503 	sbc.w	r5, r5, r3
 80008c0:	085b      	lsrs	r3, r3, #1
 80008c2:	ea4f 0232 	mov.w	r2, r2, rrx
 80008c6:	f44f 1080 	mov.w	r0, #1048576	; 0x100000
 80008ca:	f44f 2c00 	mov.w	ip, #524288	; 0x80000
 80008ce:	ebb6 0e02 	subs.w	lr, r6, r2
 80008d2:	eb75 0e03 	sbcs.w	lr, r5, r3
 80008d6:	bf22      	ittt	cs
 80008d8:	1ab6      	subcs	r6, r6, r2
 80008da:	4675      	movcs	r5, lr
 80008dc:	ea40 000c 	orrcs.w	r0, r0, ip
 80008e0:	085b      	lsrs	r3, r3, #1
 80008e2:	ea4f 0232 	mov.w	r2, r2, rrx
 80008e6:	ebb6 0e02 	subs.w	lr, r6, r2
 80008ea:	eb75 0e03 	sbcs.w	lr, r5, r3
 80008ee:	bf22      	ittt	cs
 80008f0:	1ab6      	subcs	r6, r6, r2
 80008f2:	4675      	movcs	r5, lr
 80008f4:	ea40 005c 	orrcs.w	r0, r0, ip, lsr #1
 80008f8:	085b      	lsrs	r3, r3, #1
 80008fa:	ea4f 0232 	mov.w	r2, r2, rrx
 80008fe:	ebb6 0e02 	subs.w	lr, r6, r2
 8000902:	eb75 0e03 	sbcs.w	lr, r5, r3
 8000906:	bf22      	ittt	cs
 8000908:	1ab6      	subcs	r6, r6, r2
 800090a:	4675      	movcs	r5, lr
 800090c:	ea40 009c 	orrcs.w	r0, r0, ip, lsr #2
 8000910:	085b      	lsrs	r3, r3, #1
 8000912:	ea4f 0232 	mov.w	r2, r2, rrx
 8000916:	ebb6 0e02 	subs.w	lr, r6, r2
 800091a:	eb75 0e03 	sbcs.w	lr, r5, r3
 800091e:	bf22      	ittt	cs
 8000920:	1ab6      	subcs	r6, r6, r2
 8000922:	4675      	movcs	r5, lr
 8000924:	ea40 00dc 	orrcs.w	r0, r0, ip, lsr #3
 8000928:	ea55 0e06 	orrs.w	lr, r5, r6
 800092c:	d018      	beq.n	8000960 <__aeabi_ddiv+0x114>
 800092e:	ea4f 1505 	mov.w	r5, r5, lsl #4
 8000932:	ea45 7516 	orr.w	r5, r5, r6, lsr #28
 8000936:	ea4f 1606 	mov.w	r6, r6, lsl #4
 800093a:	ea4f 03c3 	mov.w	r3, r3, lsl #3
 800093e:	ea43 7352 	orr.w	r3, r3, r2, lsr #29
 8000942:	ea4f 02c2 	mov.w	r2, r2, lsl #3
 8000946:	ea5f 1c1c 	movs.w	ip, ip, lsr #4
 800094a:	d1c0      	bne.n	80008ce <__aeabi_ddiv+0x82>
 800094c:	f411 1f80 	tst.w	r1, #1048576	; 0x100000
 8000950:	d10b      	bne.n	800096a <__aeabi_ddiv+0x11e>
 8000952:	ea41 0100 	orr.w	r1, r1, r0
 8000956:	f04f 0000 	mov.w	r0, #0
 800095a:	f04f 4c00 	mov.w	ip, #2147483648	; 0x80000000
 800095e:	e7b6      	b.n	80008ce <__aeabi_ddiv+0x82>
 8000960:	f411 1f80 	tst.w	r1, #1048576	; 0x100000
 8000964:	bf04      	itt	eq
 8000966:	4301      	orreq	r1, r0
 8000968:	2000      	moveq	r0, #0
 800096a:	f1b4 0cfd 	subs.w	ip, r4, #253	; 0xfd
 800096e:	bf88      	it	hi
 8000970:	f5bc 6fe0 	cmphi.w	ip, #1792	; 0x700
 8000974:	f63f aeaf 	bhi.w	80006d6 <__aeabi_dmul+0xde>
 8000978:	ebb5 0c03 	subs.w	ip, r5, r3
 800097c:	bf04      	itt	eq
 800097e:	ebb6 0c02 	subseq.w	ip, r6, r2
 8000982:	ea5f 0c50 	movseq.w	ip, r0, lsr #1
 8000986:	f150 0000 	adcs.w	r0, r0, #0
 800098a:	eb41 5104 	adc.w	r1, r1, r4, lsl #20
 800098e:	bd70      	pop	{r4, r5, r6, pc}
 8000990:	f00e 4e00 	and.w	lr, lr, #2147483648	; 0x80000000
 8000994:	ea4e 3111 	orr.w	r1, lr, r1, lsr #12
 8000998:	eb14 045c 	adds.w	r4, r4, ip, lsr #1
 800099c:	bfc2      	ittt	gt
 800099e:	ebd4 050c 	rsbsgt	r5, r4, ip
 80009a2:	ea41 5104 	orrgt.w	r1, r1, r4, lsl #20
 80009a6:	bd70      	popgt	{r4, r5, r6, pc}
 80009a8:	f441 1180 	orr.w	r1, r1, #1048576	; 0x100000
 80009ac:	f04f 0e00 	mov.w	lr, #0
 80009b0:	3c01      	subs	r4, #1
 80009b2:	e690      	b.n	80006d6 <__aeabi_dmul+0xde>
 80009b4:	ea45 0e06 	orr.w	lr, r5, r6
 80009b8:	e68d      	b.n	80006d6 <__aeabi_dmul+0xde>
 80009ba:	ea0c 5513 	and.w	r5, ip, r3, lsr #20
 80009be:	ea94 0f0c 	teq	r4, ip
 80009c2:	bf08      	it	eq
 80009c4:	ea95 0f0c 	teqeq	r5, ip
 80009c8:	f43f af3b 	beq.w	8000842 <__aeabi_dmul+0x24a>
 80009cc:	ea94 0f0c 	teq	r4, ip
 80009d0:	d10a      	bne.n	80009e8 <__aeabi_ddiv+0x19c>
 80009d2:	ea50 3401 	orrs.w	r4, r0, r1, lsl #12
 80009d6:	f47f af34 	bne.w	8000842 <__aeabi_dmul+0x24a>
 80009da:	ea95 0f0c 	teq	r5, ip
 80009de:	f47f af25 	bne.w	800082c <__aeabi_dmul+0x234>
 80009e2:	4610      	mov	r0, r2
 80009e4:	4619      	mov	r1, r3
 80009e6:	e72c      	b.n	8000842 <__aeabi_dmul+0x24a>
 80009e8:	ea95 0f0c 	teq	r5, ip
 80009ec:	d106      	bne.n	80009fc <__aeabi_ddiv+0x1b0>
 80009ee:	ea52 3503 	orrs.w	r5, r2, r3, lsl #12
 80009f2:	f43f aefd 	beq.w	80007f0 <__aeabi_dmul+0x1f8>
 80009f6:	4610      	mov	r0, r2
 80009f8:	4619      	mov	r1, r3
 80009fa:	e722      	b.n	8000842 <__aeabi_dmul+0x24a>
 80009fc:	ea50 0641 	orrs.w	r6, r0, r1, lsl #1
 8000a00:	bf18      	it	ne
 8000a02:	ea52 0643 	orrsne.w	r6, r2, r3, lsl #1
 8000a06:	f47f aec5 	bne.w	8000794 <__aeabi_dmul+0x19c>
 8000a0a:	ea50 0441 	orrs.w	r4, r0, r1, lsl #1
 8000a0e:	f47f af0d 	bne.w	800082c <__aeabi_dmul+0x234>
 8000a12:	ea52 0543 	orrs.w	r5, r2, r3, lsl #1
 8000a16:	f47f aeeb 	bne.w	80007f0 <__aeabi_dmul+0x1f8>
 8000a1a:	e712      	b.n	8000842 <__aeabi_dmul+0x24a>

08000a1c <__gedf2>:
 8000a1c:	f04f 3cff 	mov.w	ip, #4294967295
 8000a20:	e006      	b.n	8000a30 <__cmpdf2+0x4>
 8000a22:	bf00      	nop

08000a24 <__ledf2>:
 8000a24:	f04f 0c01 	mov.w	ip, #1
 8000a28:	e002      	b.n	8000a30 <__cmpdf2+0x4>
 8000a2a:	bf00      	nop

08000a2c <__cmpdf2>:
 8000a2c:	f04f 0c01 	mov.w	ip, #1
 8000a30:	f84d cd04 	str.w	ip, [sp, #-4]!
 8000a34:	ea4f 0c41 	mov.w	ip, r1, lsl #1
 8000a38:	ea7f 5c6c 	mvns.w	ip, ip, asr #21
 8000a3c:	ea4f 0c43 	mov.w	ip, r3, lsl #1
 8000a40:	bf18      	it	ne
 8000a42:	ea7f 5c6c 	mvnsne.w	ip, ip, asr #21
 8000a46:	d01b      	beq.n	8000a80 <__cmpdf2+0x54>
 8000a48:	b001      	add	sp, #4
 8000a4a:	ea50 0c41 	orrs.w	ip, r0, r1, lsl #1
 8000a4e:	bf0c      	ite	eq
 8000a50:	ea52 0c43 	orrseq.w	ip, r2, r3, lsl #1
 8000a54:	ea91 0f03 	teqne	r1, r3
 8000a58:	bf02      	ittt	eq
 8000a5a:	ea90 0f02 	teqeq	r0, r2
 8000a5e:	2000      	moveq	r0, #0
 8000a60:	4770      	bxeq	lr
 8000a62:	f110 0f00 	cmn.w	r0, #0
 8000a66:	ea91 0f03 	teq	r1, r3
 8000a6a:	bf58      	it	pl
 8000a6c:	4299      	cmppl	r1, r3
 8000a6e:	bf08      	it	eq
 8000a70:	4290      	cmpeq	r0, r2
 8000a72:	bf2c      	ite	cs
 8000a74:	17d8      	asrcs	r0, r3, #31
 8000a76:	ea6f 70e3 	mvncc.w	r0, r3, asr #31
 8000a7a:	f040 0001 	orr.w	r0, r0, #1
 8000a7e:	4770      	bx	lr
 8000a80:	ea4f 0c41 	mov.w	ip, r1, lsl #1
 8000a84:	ea7f 5c6c 	mvns.w	ip, ip, asr #21
 8000a88:	d102      	bne.n	8000a90 <__cmpdf2+0x64>
 8000a8a:	ea50 3c01 	orrs.w	ip, r0, r1, lsl #12
 8000a8e:	d107      	bne.n	8000aa0 <__cmpdf2+0x74>
 8000a90:	ea4f 0c43 	mov.w	ip, r3, lsl #1
 8000a94:	ea7f 5c6c 	mvns.w	ip, ip, asr #21
 8000a98:	d1d6      	bne.n	8000a48 <__cmpdf2+0x1c>
 8000a9a:	ea52 3c03 	orrs.w	ip, r2, r3, lsl #12
 8000a9e:	d0d3      	beq.n	8000a48 <__cmpdf2+0x1c>
 8000aa0:	f85d 0b04 	ldr.w	r0, [sp], #4
 8000aa4:	4770      	bx	lr
 8000aa6:	bf00      	nop

08000aa8 <__aeabi_cdrcmple>:
 8000aa8:	4684      	mov	ip, r0
 8000aaa:	4610      	mov	r0, r2
 8000aac:	4662      	mov	r2, ip
 8000aae:	468c      	mov	ip, r1
 8000ab0:	4619      	mov	r1, r3
 8000ab2:	4663      	mov	r3, ip
 8000ab4:	e000      	b.n	8000ab8 <__aeabi_cdcmpeq>
 8000ab6:	bf00      	nop

08000ab8 <__aeabi_cdcmpeq>:
 8000ab8:	b501      	push	{r0, lr}
 8000aba:	f7ff ffb7 	bl	8000a2c <__cmpdf2>
 8000abe:	2800      	cmp	r0, #0
 8000ac0:	bf48      	it	mi
 8000ac2:	f110 0f00 	cmnmi.w	r0, #0
 8000ac6:	bd01      	pop	{r0, pc}

08000ac8 <__aeabi_dcmpeq>:
 8000ac8:	f84d ed08 	str.w	lr, [sp, #-8]!
 8000acc:	f7ff fff4 	bl	8000ab8 <__aeabi_cdcmpeq>
 8000ad0:	bf0c      	ite	eq
 8000ad2:	2001      	moveq	r0, #1
 8000ad4:	2000      	movne	r0, #0
 8000ad6:	f85d fb08 	ldr.w	pc, [sp], #8
 8000ada:	bf00      	nop

08000adc <__aeabi_dcmplt>:
 8000adc:	f84d ed08 	str.w	lr, [sp, #-8]!
 8000ae0:	f7ff ffea 	bl	8000ab8 <__aeabi_cdcmpeq>
 8000ae4:	bf34      	ite	cc
 8000ae6:	2001      	movcc	r0, #1
 8000ae8:	2000      	movcs	r0, #0
 8000aea:	f85d fb08 	ldr.w	pc, [sp], #8
 8000aee:	bf00      	nop

08000af0 <__aeabi_dcmple>:
 8000af0:	f84d ed08 	str.w	lr, [sp, #-8]!
 8000af4:	f7ff ffe0 	bl	8000ab8 <__aeabi_cdcmpeq>
 8000af8:	bf94      	ite	ls
 8000afa:	2001      	movls	r0, #1
 8000afc:	2000      	movhi	r0, #0
 8000afe:	f85d fb08 	ldr.w	pc, [sp], #8
 8000b02:	bf00      	nop

08000b04 <__aeabi_dcmpge>:
 8000b04:	f84d ed08 	str.w	lr, [sp, #-8]!
 8000b08:	f7ff ffce 	bl	8000aa8 <__aeabi_cdrcmple>
 8000b0c:	bf94      	ite	ls
 8000b0e:	2001      	movls	r0, #1
 8000b10:	2000      	movhi	r0, #0
 8000b12:	f85d fb08 	ldr.w	pc, [sp], #8
 8000b16:	bf00      	nop

08000b18 <__aeabi_dcmpgt>:
 8000b18:	f84d ed08 	str.w	lr, [sp, #-8]!
 8000b1c:	f7ff ffc4 	bl	8000aa8 <__aeabi_cdrcmple>
 8000b20:	bf34      	ite	cc
 8000b22:	2001      	movcc	r0, #1
 8000b24:	2000      	movcs	r0, #0
 8000b26:	f85d fb08 	ldr.w	pc, [sp], #8
 8000b2a:	bf00      	nop

08000b2c <__aeabi_dcmpun>:
 8000b2c:	ea4f 0c41 	mov.w	ip, r1, lsl #1
 8000b30:	ea7f 5c6c 	mvns.w	ip, ip, asr #21
 8000b34:	d102      	bne.n	8000b3c <__aeabi_dcmpun+0x10>
 8000b36:	ea50 3c01 	orrs.w	ip, r0, r1, lsl #12
 8000b3a:	d10a      	bne.n	8000b52 <__aeabi_dcmpun+0x26>
 8000b3c:	ea4f 0c43 	mov.w	ip, r3, lsl #1
 8000b40:	ea7f 5c6c 	mvns.w	ip, ip, asr #21
 8000b44:	d102      	bne.n	8000b4c <__aeabi_dcmpun+0x20>
 8000b46:	ea52 3c03 	orrs.w	ip, r2, r3, lsl #12
 8000b4a:	d102      	bne.n	8000b52 <__aeabi_dcmpun+0x26>
 8000b4c:	f04f 0000 	mov.w	r0, #0
 8000b50:	4770      	bx	lr
 8000b52:	f04f 0001 	mov.w	r0, #1
 8000b56:	4770      	bx	lr

08000b58 <__aeabi_d2iz>:
 8000b58:	ea4f 0241 	mov.w	r2, r1, lsl #1
 8000b5c:	f512 1200 	adds.w	r2, r2, #2097152	; 0x200000
 8000b60:	d215      	bcs.n	8000b8e <__aeabi_d2iz+0x36>
 8000b62:	d511      	bpl.n	8000b88 <__aeabi_d2iz+0x30>
 8000b64:	f46f 7378 	mvn.w	r3, #992	; 0x3e0
 8000b68:	ebb3 5262 	subs.w	r2, r3, r2, asr #21
 8000b6c:	d912      	bls.n	8000b94 <__aeabi_d2iz+0x3c>
 8000b6e:	ea4f 23c1 	mov.w	r3, r1, lsl #11
 8000b72:	f043 4300 	orr.w	r3, r3, #2147483648	; 0x80000000
 8000b76:	ea43 5350 	orr.w	r3, r3, r0, lsr #21
 8000b7a:	f011 4f00 	tst.w	r1, #2147483648	; 0x80000000
 8000b7e:	fa23 f002 	lsr.w	r0, r3, r2
 8000b82:	bf18      	it	ne
 8000b84:	4240      	negne	r0, r0
 8000b86:	4770      	bx	lr
 8000b88:	f04f 0000 	mov.w	r0, #0
 8000b8c:	4770      	bx	lr
 8000b8e:	ea50 3001 	orrs.w	r0, r0, r1, lsl #12
 8000b92:	d105      	bne.n	8000ba0 <__aeabi_d2iz+0x48>
 8000b94:	f011 4000 	ands.w	r0, r1, #2147483648	; 0x80000000
 8000b98:	bf08      	it	eq
 8000b9a:	f06f 4000 	mvneq.w	r0, #2147483648	; 0x80000000
 8000b9e:	4770      	bx	lr
 8000ba0:	f04f 0000 	mov.w	r0, #0
 8000ba4:	4770      	bx	lr
 8000ba6:	bf00      	nop

08000ba8 <__aeabi_d2uiz>:
 8000ba8:	004a      	lsls	r2, r1, #1
 8000baa:	d211      	bcs.n	8000bd0 <__aeabi_d2uiz+0x28>
 8000bac:	f512 1200 	adds.w	r2, r2, #2097152	; 0x200000
 8000bb0:	d211      	bcs.n	8000bd6 <__aeabi_d2uiz+0x2e>
 8000bb2:	d50d      	bpl.n	8000bd0 <__aeabi_d2uiz+0x28>
 8000bb4:	f46f 7378 	mvn.w	r3, #992	; 0x3e0
 8000bb8:	ebb3 5262 	subs.w	r2, r3, r2, asr #21
 8000bbc:	d40e      	bmi.n	8000bdc <__aeabi_d2uiz+0x34>
 8000bbe:	ea4f 23c1 	mov.w	r3, r1, lsl #11
 8000bc2:	f043 4300 	orr.w	r3, r3, #2147483648	; 0x80000000
 8000bc6:	ea43 5350 	orr.w	r3, r3, r0, lsr #21
 8000bca:	fa23 f002 	lsr.w	r0, r3, r2
 8000bce:	4770      	bx	lr
 8000bd0:	f04f 0000 	mov.w	r0, #0
 8000bd4:	4770      	bx	lr
 8000bd6:	ea50 3001 	orrs.w	r0, r0, r1, lsl #12
 8000bda:	d102      	bne.n	8000be2 <__aeabi_d2uiz+0x3a>
 8000bdc:	f04f 30ff 	mov.w	r0, #4294967295
 8000be0:	4770      	bx	lr
 8000be2:	f04f 0000 	mov.w	r0, #0
 8000be6:	4770      	bx	lr

08000be8 <__aeabi_uldivmod>:
 8000be8:	b953      	cbnz	r3, 8000c00 <__aeabi_uldivmod+0x18>
 8000bea:	b94a      	cbnz	r2, 8000c00 <__aeabi_uldivmod+0x18>
 8000bec:	2900      	cmp	r1, #0
 8000bee:	bf08      	it	eq
 8000bf0:	2800      	cmpeq	r0, #0
 8000bf2:	bf1c      	itt	ne
 8000bf4:	f04f 31ff 	movne.w	r1, #4294967295
 8000bf8:	f04f 30ff 	movne.w	r0, #4294967295
 8000bfc:	f000 b974 	b.w	8000ee8 <__aeabi_idiv0>
 8000c00:	f1ad 0c08 	sub.w	ip, sp, #8
 8000c04:	e96d ce04 	strd	ip, lr, [sp, #-16]!
 8000c08:	f000 f806 	bl	8000c18 <__udivmoddi4>
 8000c0c:	f8dd e004 	ldr.w	lr, [sp, #4]
 8000c10:	e9dd 2302 	ldrd	r2, r3, [sp, #8]
 8000c14:	b004      	add	sp, #16
 8000c16:	4770      	bx	lr

08000c18 <__udivmoddi4>:
 8000c18:	e92d 47f0 	stmdb	sp!, {r4, r5, r6, r7, r8, r9, sl, lr}
 8000c1c:	9d08      	ldr	r5, [sp, #32]
 8000c1e:	4604      	mov	r4, r0
 8000c20:	468e      	mov	lr, r1
 8000c22:	2b00      	cmp	r3, #0
 8000c24:	d14d      	bne.n	8000cc2 <__udivmoddi4+0xaa>
 8000c26:	428a      	cmp	r2, r1
 8000c28:	4694      	mov	ip, r2
 8000c2a:	d969      	bls.n	8000d00 <__udivmoddi4+0xe8>
 8000c2c:	fab2 f282 	clz	r2, r2
 8000c30:	b152      	cbz	r2, 8000c48 <__udivmoddi4+0x30>
 8000c32:	fa01 f302 	lsl.w	r3, r1, r2
 8000c36:	f1c2 0120 	rsb	r1, r2, #32
 8000c3a:	fa20 f101 	lsr.w	r1, r0, r1
 8000c3e:	fa0c fc02 	lsl.w	ip, ip, r2
 8000c42:	ea41 0e03 	orr.w	lr, r1, r3
 8000c46:	4094      	lsls	r4, r2
 8000c48:	ea4f 481c 	mov.w	r8, ip, lsr #16
 8000c4c:	0c21      	lsrs	r1, r4, #16
 8000c4e:	fbbe f6f8 	udiv	r6, lr, r8
 8000c52:	fa1f f78c 	uxth.w	r7, ip
 8000c56:	fb08 e316 	mls	r3, r8, r6, lr
 8000c5a:	ea41 4303 	orr.w	r3, r1, r3, lsl #16
 8000c5e:	fb06 f107 	mul.w	r1, r6, r7
 8000c62:	4299      	cmp	r1, r3
 8000c64:	d90a      	bls.n	8000c7c <__udivmoddi4+0x64>
 8000c66:	eb1c 0303 	adds.w	r3, ip, r3
 8000c6a:	f106 30ff 	add.w	r0, r6, #4294967295
 8000c6e:	f080 811f 	bcs.w	8000eb0 <__udivmoddi4+0x298>
 8000c72:	4299      	cmp	r1, r3
 8000c74:	f240 811c 	bls.w	8000eb0 <__udivmoddi4+0x298>
 8000c78:	3e02      	subs	r6, #2
 8000c7a:	4463      	add	r3, ip
 8000c7c:	1a5b      	subs	r3, r3, r1
 8000c7e:	b2a4      	uxth	r4, r4
 8000c80:	fbb3 f0f8 	udiv	r0, r3, r8
 8000c84:	fb08 3310 	mls	r3, r8, r0, r3
 8000c88:	ea44 4403 	orr.w	r4, r4, r3, lsl #16
 8000c8c:	fb00 f707 	mul.w	r7, r0, r7
 8000c90:	42a7      	cmp	r7, r4
 8000c92:	d90a      	bls.n	8000caa <__udivmoddi4+0x92>
 8000c94:	eb1c 0404 	adds.w	r4, ip, r4
 8000c98:	f100 33ff 	add.w	r3, r0, #4294967295
 8000c9c:	f080 810a 	bcs.w	8000eb4 <__udivmoddi4+0x29c>
 8000ca0:	42a7      	cmp	r7, r4
 8000ca2:	f240 8107 	bls.w	8000eb4 <__udivmoddi4+0x29c>
 8000ca6:	4464      	add	r4, ip
 8000ca8:	3802      	subs	r0, #2
 8000caa:	ea40 4006 	orr.w	r0, r0, r6, lsl #16
 8000cae:	1be4      	subs	r4, r4, r7
 8000cb0:	2600      	movs	r6, #0
 8000cb2:	b11d      	cbz	r5, 8000cbc <__udivmoddi4+0xa4>
 8000cb4:	40d4      	lsrs	r4, r2
 8000cb6:	2300      	movs	r3, #0
 8000cb8:	e9c5 4300 	strd	r4, r3, [r5]
 8000cbc:	4631      	mov	r1, r6
 8000cbe:	e8bd 87f0 	ldmia.w	sp!, {r4, r5, r6, r7, r8, r9, sl, pc}
 8000cc2:	428b      	cmp	r3, r1
 8000cc4:	d909      	bls.n	8000cda <__udivmoddi4+0xc2>
 8000cc6:	2d00      	cmp	r5, #0
 8000cc8:	f000 80ef 	beq.w	8000eaa <__udivmoddi4+0x292>
 8000ccc:	2600      	movs	r6, #0
 8000cce:	e9c5 0100 	strd	r0, r1, [r5]
 8000cd2:	4630      	mov	r0, r6
 8000cd4:	4631      	mov	r1, r6
 8000cd6:	e8bd 87f0 	ldmia.w	sp!, {r4, r5, r6, r7, r8, r9, sl, pc}
 8000cda:	fab3 f683 	clz	r6, r3
 8000cde:	2e00      	cmp	r6, #0
 8000ce0:	d14a      	bne.n	8000d78 <__udivmoddi4+0x160>
 8000ce2:	428b      	cmp	r3, r1
 8000ce4:	d302      	bcc.n	8000cec <__udivmoddi4+0xd4>
 8000ce6:	4282      	cmp	r2, r0
 8000ce8:	f200 80f9 	bhi.w	8000ede <__udivmoddi4+0x2c6>
 8000cec:	1a84      	subs	r4, r0, r2
 8000cee:	eb61 0303 	sbc.w	r3, r1, r3
 8000cf2:	2001      	movs	r0, #1
 8000cf4:	469e      	mov	lr, r3
 8000cf6:	2d00      	cmp	r5, #0
 8000cf8:	d0e0      	beq.n	8000cbc <__udivmoddi4+0xa4>
 8000cfa:	e9c5 4e00 	strd	r4, lr, [r5]
 8000cfe:	e7dd      	b.n	8000cbc <__udivmoddi4+0xa4>
 8000d00:	b902      	cbnz	r2, 8000d04 <__udivmoddi4+0xec>
 8000d02:	deff      	udf	#255	; 0xff
 8000d04:	fab2 f282 	clz	r2, r2
 8000d08:	2a00      	cmp	r2, #0
 8000d0a:	f040 8092 	bne.w	8000e32 <__udivmoddi4+0x21a>
 8000d0e:	eba1 010c 	sub.w	r1, r1, ip
 8000d12:	ea4f 471c 	mov.w	r7, ip, lsr #16
 8000d16:	fa1f fe8c 	uxth.w	lr, ip
 8000d1a:	2601      	movs	r6, #1
 8000d1c:	0c20      	lsrs	r0, r4, #16
 8000d1e:	fbb1 f3f7 	udiv	r3, r1, r7
 8000d22:	fb07 1113 	mls	r1, r7, r3, r1
 8000d26:	ea40 4101 	orr.w	r1, r0, r1, lsl #16
 8000d2a:	fb0e f003 	mul.w	r0, lr, r3
 8000d2e:	4288      	cmp	r0, r1
 8000d30:	d908      	bls.n	8000d44 <__udivmoddi4+0x12c>
 8000d32:	eb1c 0101 	adds.w	r1, ip, r1
 8000d36:	f103 38ff 	add.w	r8, r3, #4294967295
 8000d3a:	d202      	bcs.n	8000d42 <__udivmoddi4+0x12a>
 8000d3c:	4288      	cmp	r0, r1
 8000d3e:	f200 80cb 	bhi.w	8000ed8 <__udivmoddi4+0x2c0>
 8000d42:	4643      	mov	r3, r8
 8000d44:	1a09      	subs	r1, r1, r0
 8000d46:	b2a4      	uxth	r4, r4
 8000d48:	fbb1 f0f7 	udiv	r0, r1, r7
 8000d4c:	fb07 1110 	mls	r1, r7, r0, r1
 8000d50:	ea44 4401 	orr.w	r4, r4, r1, lsl #16
 8000d54:	fb0e fe00 	mul.w	lr, lr, r0
 8000d58:	45a6      	cmp	lr, r4
 8000d5a:	d908      	bls.n	8000d6e <__udivmoddi4+0x156>
 8000d5c:	eb1c 0404 	adds.w	r4, ip, r4
 8000d60:	f100 31ff 	add.w	r1, r0, #4294967295
 8000d64:	d202      	bcs.n	8000d6c <__udivmoddi4+0x154>
 8000d66:	45a6      	cmp	lr, r4
 8000d68:	f200 80bb 	bhi.w	8000ee2 <__udivmoddi4+0x2ca>
 8000d6c:	4608      	mov	r0, r1
 8000d6e:	eba4 040e 	sub.w	r4, r4, lr
 8000d72:	ea40 4003 	orr.w	r0, r0, r3, lsl #16
 8000d76:	e79c      	b.n	8000cb2 <__udivmoddi4+0x9a>
 8000d78:	f1c6 0720 	rsb	r7, r6, #32
 8000d7c:	40b3      	lsls	r3, r6
 8000d7e:	fa22 fc07 	lsr.w	ip, r2, r7
 8000d82:	ea4c 0c03 	orr.w	ip, ip, r3
 8000d86:	fa20 f407 	lsr.w	r4, r0, r7
 8000d8a:	fa01 f306 	lsl.w	r3, r1, r6
 8000d8e:	431c      	orrs	r4, r3
 8000d90:	40f9      	lsrs	r1, r7
 8000d92:	ea4f 491c 	mov.w	r9, ip, lsr #16
 8000d96:	fa00 f306 	lsl.w	r3, r0, r6
 8000d9a:	fbb1 f8f9 	udiv	r8, r1, r9
 8000d9e:	0c20      	lsrs	r0, r4, #16
 8000da0:	fa1f fe8c 	uxth.w	lr, ip
 8000da4:	fb09 1118 	mls	r1, r9, r8, r1
 8000da8:	ea40 4101 	orr.w	r1, r0, r1, lsl #16
 8000dac:	fb08 f00e 	mul.w	r0, r8, lr
 8000db0:	4288      	cmp	r0, r1
 8000db2:	fa02 f206 	lsl.w	r2, r2, r6
 8000db6:	d90b      	bls.n	8000dd0 <__udivmoddi4+0x1b8>
 8000db8:	eb1c 0101 	adds.w	r1, ip, r1
 8000dbc:	f108 3aff 	add.w	sl, r8, #4294967295
 8000dc0:	f080 8088 	bcs.w	8000ed4 <__udivmoddi4+0x2bc>
 8000dc4:	4288      	cmp	r0, r1
 8000dc6:	f240 8085 	bls.w	8000ed4 <__udivmoddi4+0x2bc>
 8000dca:	f1a8 0802 	sub.w	r8, r8, #2
 8000dce:	4461      	add	r1, ip
 8000dd0:	1a09      	subs	r1, r1, r0
 8000dd2:	b2a4      	uxth	r4, r4
 8000dd4:	fbb1 f0f9 	udiv	r0, r1, r9
 8000dd8:	fb09 1110 	mls	r1, r9, r0, r1
 8000ddc:	ea44 4101 	orr.w	r1, r4, r1, lsl #16
 8000de0:	fb00 fe0e 	mul.w	lr, r0, lr
 8000de4:	458e      	cmp	lr, r1
 8000de6:	d908      	bls.n	8000dfa <__udivmoddi4+0x1e2>
 8000de8:	eb1c 0101 	adds.w	r1, ip, r1
 8000dec:	f100 34ff 	add.w	r4, r0, #4294967295
 8000df0:	d26c      	bcs.n	8000ecc <__udivmoddi4+0x2b4>
 8000df2:	458e      	cmp	lr, r1
 8000df4:	d96a      	bls.n	8000ecc <__udivmoddi4+0x2b4>
 8000df6:	3802      	subs	r0, #2
 8000df8:	4461      	add	r1, ip
 8000dfa:	ea40 4008 	orr.w	r0, r0, r8, lsl #16
 8000dfe:	fba0 9402 	umull	r9, r4, r0, r2
 8000e02:	eba1 010e 	sub.w	r1, r1, lr
 8000e06:	42a1      	cmp	r1, r4
 8000e08:	46c8      	mov	r8, r9
 8000e0a:	46a6      	mov	lr, r4
 8000e0c:	d356      	bcc.n	8000ebc <__udivmoddi4+0x2a4>
 8000e0e:	d053      	beq.n	8000eb8 <__udivmoddi4+0x2a0>
 8000e10:	b15d      	cbz	r5, 8000e2a <__udivmoddi4+0x212>
 8000e12:	ebb3 0208 	subs.w	r2, r3, r8
 8000e16:	eb61 010e 	sbc.w	r1, r1, lr
 8000e1a:	fa01 f707 	lsl.w	r7, r1, r7
 8000e1e:	fa22 f306 	lsr.w	r3, r2, r6
 8000e22:	40f1      	lsrs	r1, r6
 8000e24:	431f      	orrs	r7, r3
 8000e26:	e9c5 7100 	strd	r7, r1, [r5]
 8000e2a:	2600      	movs	r6, #0
 8000e2c:	4631      	mov	r1, r6
 8000e2e:	e8bd 87f0 	ldmia.w	sp!, {r4, r5, r6, r7, r8, r9, sl, pc}
 8000e32:	f1c2 0320 	rsb	r3, r2, #32
 8000e36:	40d8      	lsrs	r0, r3
 8000e38:	fa0c fc02 	lsl.w	ip, ip, r2
 8000e3c:	fa21 f303 	lsr.w	r3, r1, r3
 8000e40:	4091      	lsls	r1, r2
 8000e42:	4301      	orrs	r1, r0
 8000e44:	ea4f 471c 	mov.w	r7, ip, lsr #16
 8000e48:	fa1f fe8c 	uxth.w	lr, ip
 8000e4c:	fbb3 f0f7 	udiv	r0, r3, r7
 8000e50:	fb07 3610 	mls	r6, r7, r0, r3
 8000e54:	0c0b      	lsrs	r3, r1, #16
 8000e56:	ea43 4306 	orr.w	r3, r3, r6, lsl #16
 8000e5a:	fb00 f60e 	mul.w	r6, r0, lr
 8000e5e:	429e      	cmp	r6, r3
 8000e60:	fa04 f402 	lsl.w	r4, r4, r2
 8000e64:	d908      	bls.n	8000e78 <__udivmoddi4+0x260>
 8000e66:	eb1c 0303 	adds.w	r3, ip, r3
 8000e6a:	f100 38ff 	add.w	r8, r0, #4294967295
 8000e6e:	d22f      	bcs.n	8000ed0 <__udivmoddi4+0x2b8>
 8000e70:	429e      	cmp	r6, r3
 8000e72:	d92d      	bls.n	8000ed0 <__udivmoddi4+0x2b8>
 8000e74:	3802      	subs	r0, #2
 8000e76:	4463      	add	r3, ip
 8000e78:	1b9b      	subs	r3, r3, r6
 8000e7a:	b289      	uxth	r1, r1
 8000e7c:	fbb3 f6f7 	udiv	r6, r3, r7
 8000e80:	fb07 3316 	mls	r3, r7, r6, r3
 8000e84:	ea41 4103 	orr.w	r1, r1, r3, lsl #16
 8000e88:	fb06 f30e 	mul.w	r3, r6, lr
 8000e8c:	428b      	cmp	r3, r1
 8000e8e:	d908      	bls.n	8000ea2 <__udivmoddi4+0x28a>
 8000e90:	eb1c 0101 	adds.w	r1, ip, r1
 8000e94:	f106 38ff 	add.w	r8, r6, #4294967295
 8000e98:	d216      	bcs.n	8000ec8 <__udivmoddi4+0x2b0>
 8000e9a:	428b      	cmp	r3, r1
 8000e9c:	d914      	bls.n	8000ec8 <__udivmoddi4+0x2b0>
 8000e9e:	3e02      	subs	r6, #2
 8000ea0:	4461      	add	r1, ip
 8000ea2:	1ac9      	subs	r1, r1, r3
 8000ea4:	ea46 4600 	orr.w	r6, r6, r0, lsl #16
 8000ea8:	e738      	b.n	8000d1c <__udivmoddi4+0x104>
 8000eaa:	462e      	mov	r6, r5
 8000eac:	4628      	mov	r0, r5
 8000eae:	e705      	b.n	8000cbc <__udivmoddi4+0xa4>
 8000eb0:	4606      	mov	r6, r0
 8000eb2:	e6e3      	b.n	8000c7c <__udivmoddi4+0x64>
 8000eb4:	4618      	mov	r0, r3
 8000eb6:	e6f8      	b.n	8000caa <__udivmoddi4+0x92>
 8000eb8:	454b      	cmp	r3, r9
 8000eba:	d2a9      	bcs.n	8000e10 <__udivmoddi4+0x1f8>
 8000ebc:	ebb9 0802 	subs.w	r8, r9, r2
 8000ec0:	eb64 0e0c 	sbc.w	lr, r4, ip
 8000ec4:	3801      	subs	r0, #1
 8000ec6:	e7a3      	b.n	8000e10 <__udivmoddi4+0x1f8>
 8000ec8:	4646      	mov	r6, r8
 8000eca:	e7ea      	b.n	8000ea2 <__udivmoddi4+0x28a>
 8000ecc:	4620      	mov	r0, r4
 8000ece:	e794      	b.n	8000dfa <__udivmoddi4+0x1e2>
 8000ed0:	4640      	mov	r0, r8
 8000ed2:	e7d1      	b.n	8000e78 <__udivmoddi4+0x260>
 8000ed4:	46d0      	mov	r8, sl
 8000ed6:	e77b      	b.n	8000dd0 <__udivmoddi4+0x1b8>
 8000ed8:	3b02      	subs	r3, #2
 8000eda:	4461      	add	r1, ip
 8000edc:	e732      	b.n	8000d44 <__udivmoddi4+0x12c>
 8000ede:	4630      	mov	r0, r6
 8000ee0:	e709      	b.n	8000cf6 <__udivmoddi4+0xde>
 8000ee2:	4464      	add	r4, ip
 8000ee4:	3802      	subs	r0, #2
 8000ee6:	e742      	b.n	8000d6e <__udivmoddi4+0x156>

08000ee8 <__aeabi_idiv0>:
 8000ee8:	4770      	bx	lr
 8000eea:	bf00      	nop
 8000eec:	0000      	movs	r0, r0
	...

08000ef0 <main>:
/**
  * @brief  The application entry point.
  * @retval int
  */
int main(void)
{
 8000ef0:	b5b0      	push	{r4, r5, r7, lr}
 8000ef2:	b084      	sub	sp, #16
 8000ef4:	af00      	add	r7, sp, #0
  /* USER CODE BEGIN 1 */
	uint32_t numTicks = 0;
 8000ef6:	2300      	movs	r3, #0
 8000ef8:	60fb      	str	r3, [r7, #12]
	int count1=0,count2=0;
 8000efa:	2300      	movs	r3, #0
 8000efc:	60bb      	str	r3, [r7, #8]
 8000efe:	2300      	movs	r3, #0
 8000f00:	607b      	str	r3, [r7, #4]
  /* USER CODE END 1 */

  /* MCU Configuration--------------------------------------------------------*/

  /* Reset of all peripherals, Initializes the Flash interface and the Systick. */
  HAL_Init();
 8000f02:	f000 fd51 	bl	80019a8 <HAL_Init>
  /* USER CODE BEGIN Init */

  /* USER CODE END Init */

  /* Configure the system clock */
  SystemClock_Config();
 8000f06:	f000 f90b 	bl	8001120 <SystemClock_Config>
  /* USER CODE BEGIN SysInit */

  /* USER CODE END SysInit */

  /* Initialize all configured peripherals */
  MX_GPIO_Init();
 8000f0a:	f000 fa43 	bl	8001394 <MX_GPIO_Init>
  MX_CAN1_Init();
 8000f0e:	f000 f971 	bl	80011f4 <MX_CAN1_Init>
  MX_TIM4_Init();
 8000f12:	f000 f9a5 	bl	8001260 <MX_TIM4_Init>
  MX_USART2_UART_Init();
 8000f16:	f000 fa13 	bl	8001340 <MX_USART2_UART_Init>
  /* USER CODE BEGIN 2 */
  HAL_CAN_Start(&hcan1);
 8000f1a:	4875      	ldr	r0, [pc, #468]	; (80010f0 <main+0x200>)
 8000f1c:	f000 ffb6 	bl	8001e8c <HAL_CAN_Start>
  HAL_CAN_ActivateNotification(&hcan1, CAN_IT_RX_FIFO0_MSG_PENDING);
 8000f20:	2102      	movs	r1, #2
 8000f22:	4873      	ldr	r0, [pc, #460]	; (80010f0 <main+0x200>)
 8000f24:	f001 f8d1 	bl	80020ca <HAL_CAN_ActivateNotification>

  pHeader.DLC=1;
 8000f28:	4b72      	ldr	r3, [pc, #456]	; (80010f4 <main+0x204>)
 8000f2a:	2201      	movs	r2, #1
 8000f2c:	611a      	str	r2, [r3, #16]
  pHeader.IDE=CAN_ID_STD;
 8000f2e:	4b71      	ldr	r3, [pc, #452]	; (80010f4 <main+0x204>)
 8000f30:	2200      	movs	r2, #0
 8000f32:	609a      	str	r2, [r3, #8]
  pHeader.RTR=CAN_RTR_DATA;
 8000f34:	4b6f      	ldr	r3, [pc, #444]	; (80010f4 <main+0x204>)
 8000f36:	2200      	movs	r2, #0
 8000f38:	60da      	str	r2, [r3, #12]
  pHeader.StdId=0x244;
 8000f3a:	4b6e      	ldr	r3, [pc, #440]	; (80010f4 <main+0x204>)
 8000f3c:	f44f 7211 	mov.w	r2, #580	; 0x244
 8000f40:	601a      	str	r2, [r3, #0]

   sFilterConfig.FilterFIFOAssignment=CAN_FILTER_FIFO0;
 8000f42:	4b6d      	ldr	r3, [pc, #436]	; (80010f8 <main+0x208>)
 8000f44:	2200      	movs	r2, #0
 8000f46:	611a      	str	r2, [r3, #16]
   sFilterConfig.FilterIdHigh=0x245<<5;
 8000f48:	4b6b      	ldr	r3, [pc, #428]	; (80010f8 <main+0x208>)
 8000f4a:	f644 02a0 	movw	r2, #18592	; 0x48a0
 8000f4e:	601a      	str	r2, [r3, #0]
   sFilterConfig.FilterIdLow=0;
 8000f50:	4b69      	ldr	r3, [pc, #420]	; (80010f8 <main+0x208>)
 8000f52:	2200      	movs	r2, #0
 8000f54:	605a      	str	r2, [r3, #4]
   sFilterConfig.FilterMaskIdHigh=0;
 8000f56:	4b68      	ldr	r3, [pc, #416]	; (80010f8 <main+0x208>)
 8000f58:	2200      	movs	r2, #0
 8000f5a:	609a      	str	r2, [r3, #8]
   sFilterConfig.FilterMaskIdLow=0;
 8000f5c:	4b66      	ldr	r3, [pc, #408]	; (80010f8 <main+0x208>)
 8000f5e:	2200      	movs	r2, #0
 8000f60:	60da      	str	r2, [r3, #12]
   sFilterConfig.FilterScale=CAN_FILTERSCALE_32BIT;
 8000f62:	4b65      	ldr	r3, [pc, #404]	; (80010f8 <main+0x208>)
 8000f64:	2201      	movs	r2, #1
 8000f66:	61da      	str	r2, [r3, #28]
   sFilterConfig.FilterActivation=ENABLE;
 8000f68:	4b63      	ldr	r3, [pc, #396]	; (80010f8 <main+0x208>)
 8000f6a:	2201      	movs	r2, #1
 8000f6c:	621a      	str	r2, [r3, #32]
   HAL_CAN_ConfigFilter(&hcan1, &sFilterConfig);
 8000f6e:	4962      	ldr	r1, [pc, #392]	; (80010f8 <main+0x208>)
 8000f70:	485f      	ldr	r0, [pc, #380]	; (80010f0 <main+0x200>)
 8000f72:	f000 feab 	bl	8001ccc <HAL_CAN_ConfigFilter>
	/*  a++;
	  if(HAL_CAN_AddTxMessage(&hcan1,&pHeader,&a,&TxMailbox)!=HAL_OK)
	  {
	  	  Error_Handler();
	  }*/
	  HAL_Delay(500);
 8000f76:	f44f 70fa 	mov.w	r0, #500	; 0x1f4
 8000f7a:	f000 fd87 	bl	8001a8c <HAL_Delay>
	  HAL_GPIO_TogglePin(GPIOD, GPIO_PIN_12);
 8000f7e:	f44f 5180 	mov.w	r1, #4096	; 0x1000
 8000f82:	485e      	ldr	r0, [pc, #376]	; (80010fc <main+0x20c>)
 8000f84:	f001 fddf 	bl	8002b46 <HAL_GPIO_TogglePin>
	  HAL_Delay(500);
 8000f88:	f44f 70fa 	mov.w	r0, #500	; 0x1f4
 8000f8c:	f000 fd7e 	bl	8001a8c <HAL_Delay>


	  HAL_GPIO_WritePin(TRIG_GPIO_Port, TRIG_Pin, GPIO_PIN_RESET);
 8000f90:	2200      	movs	r2, #0
 8000f92:	2140      	movs	r1, #64	; 0x40
 8000f94:	485a      	ldr	r0, [pc, #360]	; (8001100 <main+0x210>)
 8000f96:	f001 fdbd 	bl	8002b14 <HAL_GPIO_WritePin>
	  usDelay(3);
 8000f9a:	2003      	movs	r0, #3
 8000f9c:	f000 fa7c 	bl	8001498 <usDelay>

	  //*** START Ultrasonic measure routine ***//
	  //1. Output 10 usec TRIG
	  HAL_GPIO_WritePin(TRIG_GPIO_Port, TRIG_Pin, GPIO_PIN_SET);
 8000fa0:	2201      	movs	r2, #1
 8000fa2:	2140      	movs	r1, #64	; 0x40
 8000fa4:	4856      	ldr	r0, [pc, #344]	; (8001100 <main+0x210>)
 8000fa6:	f001 fdb5 	bl	8002b14 <HAL_GPIO_WritePin>
	  usDelay(10);
 8000faa:	200a      	movs	r0, #10
 8000fac:	f000 fa74 	bl	8001498 <usDelay>

	  HAL_GPIO_WritePin(TRIG_GPIO_Port, TRIG_Pin, GPIO_PIN_RESET);
 8000fb0:	2200      	movs	r2, #0
 8000fb2:	2140      	movs	r1, #64	; 0x40
 8000fb4:	4852      	ldr	r0, [pc, #328]	; (8001100 <main+0x210>)
 8000fb6:	f001 fdad 	bl	8002b14 <HAL_GPIO_WritePin>

	  //2. Wait for ECHO pin rising edge
	  while(HAL_GPIO_ReadPin(ECHO_GPIO_Port, ECHO_Pin) == GPIO_PIN_RESET);
 8000fba:	bf00      	nop
 8000fbc:	2180      	movs	r1, #128	; 0x80
 8000fbe:	4850      	ldr	r0, [pc, #320]	; (8001100 <main+0x210>)
 8000fc0:	f001 fd90 	bl	8002ae4 <HAL_GPIO_ReadPin>
 8000fc4:	4603      	mov	r3, r0
 8000fc6:	2b00      	cmp	r3, #0
 8000fc8:	d0f8      	beq.n	8000fbc <main+0xcc>

	  //3. Start measuring ECHO pulse width in usec
	  numTicks = 0;
 8000fca:	2300      	movs	r3, #0
 8000fcc:	60fb      	str	r3, [r7, #12]
	  while(HAL_GPIO_ReadPin(ECHO_GPIO_Port, ECHO_Pin) == GPIO_PIN_SET)
 8000fce:	e005      	b.n	8000fdc <main+0xec>
	  {
	  	numTicks++;
 8000fd0:	68fb      	ldr	r3, [r7, #12]
 8000fd2:	3301      	adds	r3, #1
 8000fd4:	60fb      	str	r3, [r7, #12]
	  	usDelay(2); //2.8usec
 8000fd6:	2002      	movs	r0, #2
 8000fd8:	f000 fa5e 	bl	8001498 <usDelay>
	  while(HAL_GPIO_ReadPin(ECHO_GPIO_Port, ECHO_Pin) == GPIO_PIN_SET)
 8000fdc:	2180      	movs	r1, #128	; 0x80
 8000fde:	4848      	ldr	r0, [pc, #288]	; (8001100 <main+0x210>)
 8000fe0:	f001 fd80 	bl	8002ae4 <HAL_GPIO_ReadPin>
 8000fe4:	4603      	mov	r3, r0
 8000fe6:	2b01      	cmp	r3, #1
 8000fe8:	d0f2      	beq.n	8000fd0 <main+0xe0>

	  };

		//4. Estimate distance in cm
		distance = (numTicks + 0.0f)*2.8*speedOfSound;
 8000fea:	68fb      	ldr	r3, [r7, #12]
 8000fec:	ee07 3a90 	vmov	s15, r3
 8000ff0:	eef8 7a67 	vcvt.f32.u32	s15, s15
 8000ff4:	ed9f 7a43 	vldr	s14, [pc, #268]	; 8001104 <main+0x214>
 8000ff8:	ee77 7a87 	vadd.f32	s15, s15, s14
 8000ffc:	ee17 0a90 	vmov	r0, s15
 8001000:	f7ff faa2 	bl	8000548 <__aeabi_f2d>
 8001004:	a338      	add	r3, pc, #224	; (adr r3, 80010e8 <main+0x1f8>)
 8001006:	e9d3 2300 	ldrd	r2, r3, [r3]
 800100a:	f7ff faf5 	bl	80005f8 <__aeabi_dmul>
 800100e:	4602      	mov	r2, r0
 8001010:	460b      	mov	r3, r1
 8001012:	4614      	mov	r4, r2
 8001014:	461d      	mov	r5, r3
 8001016:	4b3c      	ldr	r3, [pc, #240]	; (8001108 <main+0x218>)
 8001018:	4618      	mov	r0, r3
 800101a:	f7ff fa95 	bl	8000548 <__aeabi_f2d>
 800101e:	4602      	mov	r2, r0
 8001020:	460b      	mov	r3, r1
 8001022:	4620      	mov	r0, r4
 8001024:	4629      	mov	r1, r5
 8001026:	f7ff fae7 	bl	80005f8 <__aeabi_dmul>
 800102a:	4602      	mov	r2, r0
 800102c:	460b      	mov	r3, r1
 800102e:	4610      	mov	r0, r2
 8001030:	4619      	mov	r1, r3
 8001032:	f7ff fdb9 	bl	8000ba8 <__aeabi_d2uiz>
 8001036:	4603      	mov	r3, r0
 8001038:	b2da      	uxtb	r2, r3
 800103a:	4b34      	ldr	r3, [pc, #208]	; (800110c <main+0x21c>)
 800103c:	701a      	strb	r2, [r3, #0]

		//5. Print to UART terminal for debugging
		sprintf(uartBuf, "Distance (cm)  = %d\r\n", distance);
 800103e:	4b33      	ldr	r3, [pc, #204]	; (800110c <main+0x21c>)
 8001040:	781b      	ldrb	r3, [r3, #0]
 8001042:	461a      	mov	r2, r3
 8001044:	4932      	ldr	r1, [pc, #200]	; (8001110 <main+0x220>)
 8001046:	4833      	ldr	r0, [pc, #204]	; (8001114 <main+0x224>)
 8001048:	f004 f8c8 	bl	80051dc <siprintf>
		HAL_UART_Transmit(&huart2, (uint8_t *)uartBuf, strlen(uartBuf), 100);
 800104c:	4831      	ldr	r0, [pc, #196]	; (8001114 <main+0x224>)
 800104e:	f7ff f8bf 	bl	80001d0 <strlen>
 8001052:	4603      	mov	r3, r0
 8001054:	b29a      	uxth	r2, r3
 8001056:	2364      	movs	r3, #100	; 0x64
 8001058:	492e      	ldr	r1, [pc, #184]	; (8001114 <main+0x224>)
 800105a:	482f      	ldr	r0, [pc, #188]	; (8001118 <main+0x228>)
 800105c:	f003 f8ad 	bl	80041ba <HAL_UART_Transmit>
		HAL_Delay(1000);
 8001060:	f44f 707a 	mov.w	r0, #1000	; 0x3e8
 8001064:	f000 fd12 	bl	8001a8c <HAL_Delay>
	    //HAL_CAN_AddTxMessage(&hcan1,&pHeader,&distance,&TxMailbox);

	    if(distance <= 20 && count1==0){
 8001068:	4b28      	ldr	r3, [pc, #160]	; (800110c <main+0x21c>)
 800106a:	781b      	ldrb	r3, [r3, #0]
 800106c:	2b14      	cmp	r3, #20
 800106e:	d818      	bhi.n	80010a2 <main+0x1b2>
 8001070:	68bb      	ldr	r3, [r7, #8]
 8001072:	2b00      	cmp	r3, #0
 8001074:	d115      	bne.n	80010a2 <main+0x1b2>
	    	uint8_t a = 3;
 8001076:	2303      	movs	r3, #3
 8001078:	70fb      	strb	r3, [r7, #3]
	    	count1++;
 800107a:	68bb      	ldr	r3, [r7, #8]
 800107c:	3301      	adds	r3, #1
 800107e:	60bb      	str	r3, [r7, #8]
	    	count2=0;
 8001080:	2300      	movs	r3, #0
 8001082:	607b      	str	r3, [r7, #4]
	    	if(HAL_CAN_AddTxMessage(&hcan1,&pHeader,&a,&TxMailbox) != HAL_OK) {
 8001084:	1cfa      	adds	r2, r7, #3
 8001086:	4b25      	ldr	r3, [pc, #148]	; (800111c <main+0x22c>)
 8001088:	491a      	ldr	r1, [pc, #104]	; (80010f4 <main+0x204>)
 800108a:	4819      	ldr	r0, [pc, #100]	; (80010f0 <main+0x200>)
 800108c:	f000 ff42 	bl	8001f14 <HAL_CAN_AddTxMessage>
 8001090:	4603      	mov	r3, r0
 8001092:	2b00      	cmp	r3, #0
 8001094:	d001      	beq.n	800109a <main+0x1aa>
	    		Error_Handler();
 8001096:	f000 fa31 	bl	80014fc <Error_Handler>
	    	}
	    	HAL_Delay(500);
 800109a:	f44f 70fa 	mov.w	r0, #500	; 0x1f4
 800109e:	f000 fcf5 	bl	8001a8c <HAL_Delay>
	    }
	    if(distance > 20&&count2==0){
 80010a2:	4b1a      	ldr	r3, [pc, #104]	; (800110c <main+0x21c>)
 80010a4:	781b      	ldrb	r3, [r3, #0]
 80010a6:	2b14      	cmp	r3, #20
 80010a8:	f67f af65 	bls.w	8000f76 <main+0x86>
 80010ac:	687b      	ldr	r3, [r7, #4]
 80010ae:	2b00      	cmp	r3, #0
 80010b0:	f47f af61 	bne.w	8000f76 <main+0x86>
	        uint8_t a = 4;
 80010b4:	2304      	movs	r3, #4
 80010b6:	70bb      	strb	r3, [r7, #2]
	        count2++;
 80010b8:	687b      	ldr	r3, [r7, #4]
 80010ba:	3301      	adds	r3, #1
 80010bc:	607b      	str	r3, [r7, #4]
	        count1=0;
 80010be:	2300      	movs	r3, #0
 80010c0:	60bb      	str	r3, [r7, #8]
	        if(HAL_CAN_AddTxMessage(&hcan1,&pHeader,&a,&TxMailbox) != HAL_OK) {
 80010c2:	1cba      	adds	r2, r7, #2
 80010c4:	4b15      	ldr	r3, [pc, #84]	; (800111c <main+0x22c>)
 80010c6:	490b      	ldr	r1, [pc, #44]	; (80010f4 <main+0x204>)
 80010c8:	4809      	ldr	r0, [pc, #36]	; (80010f0 <main+0x200>)
 80010ca:	f000 ff23 	bl	8001f14 <HAL_CAN_AddTxMessage>
 80010ce:	4603      	mov	r3, r0
 80010d0:	2b00      	cmp	r3, #0
 80010d2:	d001      	beq.n	80010d8 <main+0x1e8>
	    		  Error_Handler();
 80010d4:	f000 fa12 	bl	80014fc <Error_Handler>
	        }
	        HAL_Delay(500);
 80010d8:	f44f 70fa 	mov.w	r0, #500	; 0x1f4
 80010dc:	f000 fcd6 	bl	8001a8c <HAL_Delay>
	  HAL_Delay(500);
 80010e0:	e749      	b.n	8000f76 <main+0x86>
 80010e2:	bf00      	nop
 80010e4:	f3af 8000 	nop.w
 80010e8:	66666666 	.word	0x66666666
 80010ec:	40066666 	.word	0x40066666
 80010f0:	200001f8 	.word	0x200001f8
 80010f4:	200002ac 	.word	0x200002ac
 80010f8:	200002cc 	.word	0x200002cc
 80010fc:	40020c00 	.word	0x40020c00
 8001100:	40020000 	.word	0x40020000
 8001104:	00000000 	.word	0x00000000
 8001108:	3c8c7e28 	.word	0x3c8c7e28
 800110c:	200002c8 	.word	0x200002c8
 8001110:	080076e8 	.word	0x080076e8
 8001114:	200002f4 	.word	0x200002f4
 8001118:	20000268 	.word	0x20000268
 800111c:	200002c4 	.word	0x200002c4

08001120 <SystemClock_Config>:
/**
  * @brief System Clock Configuration
  * @retval None
  */
void SystemClock_Config(void)
{
 8001120:	b580      	push	{r7, lr}
 8001122:	b094      	sub	sp, #80	; 0x50
 8001124:	af00      	add	r7, sp, #0
  RCC_OscInitTypeDef RCC_OscInitStruct = {0};
 8001126:	f107 0320 	add.w	r3, r7, #32
 800112a:	2230      	movs	r2, #48	; 0x30
 800112c:	2100      	movs	r1, #0
 800112e:	4618      	mov	r0, r3
 8001130:	f003 fbe2 	bl	80048f8 <memset>
  RCC_ClkInitTypeDef RCC_ClkInitStruct = {0};
 8001134:	f107 030c 	add.w	r3, r7, #12
 8001138:	2200      	movs	r2, #0
 800113a:	601a      	str	r2, [r3, #0]
 800113c:	605a      	str	r2, [r3, #4]
 800113e:	609a      	str	r2, [r3, #8]
 8001140:	60da      	str	r2, [r3, #12]
 8001142:	611a      	str	r2, [r3, #16]

  /** Configure the main internal regulator output voltage
  */
  __HAL_RCC_PWR_CLK_ENABLE();
 8001144:	2300      	movs	r3, #0
 8001146:	60bb      	str	r3, [r7, #8]
 8001148:	4b28      	ldr	r3, [pc, #160]	; (80011ec <SystemClock_Config+0xcc>)
 800114a:	6c1b      	ldr	r3, [r3, #64]	; 0x40
 800114c:	4a27      	ldr	r2, [pc, #156]	; (80011ec <SystemClock_Config+0xcc>)
 800114e:	f043 5380 	orr.w	r3, r3, #268435456	; 0x10000000
 8001152:	6413      	str	r3, [r2, #64]	; 0x40
 8001154:	4b25      	ldr	r3, [pc, #148]	; (80011ec <SystemClock_Config+0xcc>)
 8001156:	6c1b      	ldr	r3, [r3, #64]	; 0x40
 8001158:	f003 5380 	and.w	r3, r3, #268435456	; 0x10000000
 800115c:	60bb      	str	r3, [r7, #8]
 800115e:	68bb      	ldr	r3, [r7, #8]
  __HAL_PWR_VOLTAGESCALING_CONFIG(PWR_REGULATOR_VOLTAGE_SCALE1);
 8001160:	2300      	movs	r3, #0
 8001162:	607b      	str	r3, [r7, #4]
 8001164:	4b22      	ldr	r3, [pc, #136]	; (80011f0 <SystemClock_Config+0xd0>)
 8001166:	681b      	ldr	r3, [r3, #0]
 8001168:	4a21      	ldr	r2, [pc, #132]	; (80011f0 <SystemClock_Config+0xd0>)
 800116a:	f443 4380 	orr.w	r3, r3, #16384	; 0x4000
 800116e:	6013      	str	r3, [r2, #0]
 8001170:	4b1f      	ldr	r3, [pc, #124]	; (80011f0 <SystemClock_Config+0xd0>)
 8001172:	681b      	ldr	r3, [r3, #0]
 8001174:	f403 4380 	and.w	r3, r3, #16384	; 0x4000
 8001178:	607b      	str	r3, [r7, #4]
 800117a:	687b      	ldr	r3, [r7, #4]

  /** Initializes the RCC Oscillators according to the specified parameters
  * in the RCC_OscInitTypeDef structure.
  */
  RCC_OscInitStruct.OscillatorType = RCC_OSCILLATORTYPE_HSI;
 800117c:	2302      	movs	r3, #2
 800117e:	623b      	str	r3, [r7, #32]
  RCC_OscInitStruct.HSIState = RCC_HSI_ON;
 8001180:	2301      	movs	r3, #1
 8001182:	62fb      	str	r3, [r7, #44]	; 0x2c
  RCC_OscInitStruct.HSICalibrationValue = RCC_HSICALIBRATION_DEFAULT;
 8001184:	2310      	movs	r3, #16
 8001186:	633b      	str	r3, [r7, #48]	; 0x30
  RCC_OscInitStruct.PLL.PLLState = RCC_PLL_ON;
 8001188:	2302      	movs	r3, #2
 800118a:	63bb      	str	r3, [r7, #56]	; 0x38
  RCC_OscInitStruct.PLL.PLLSource = RCC_PLLSOURCE_HSI;
 800118c:	2300      	movs	r3, #0
 800118e:	63fb      	str	r3, [r7, #60]	; 0x3c
  RCC_OscInitStruct.PLL.PLLM = 8;
 8001190:	2308      	movs	r3, #8
 8001192:	643b      	str	r3, [r7, #64]	; 0x40
  RCC_OscInitStruct.PLL.PLLN = 168;
 8001194:	23a8      	movs	r3, #168	; 0xa8
 8001196:	647b      	str	r3, [r7, #68]	; 0x44
  RCC_OscInitStruct.PLL.PLLP = RCC_PLLP_DIV2;
 8001198:	2302      	movs	r3, #2
 800119a:	64bb      	str	r3, [r7, #72]	; 0x48
  RCC_OscInitStruct.PLL.PLLQ = 7;
 800119c:	2307      	movs	r3, #7
 800119e:	64fb      	str	r3, [r7, #76]	; 0x4c
  if (HAL_RCC_OscConfig(&RCC_OscInitStruct) != HAL_OK)
 80011a0:	f107 0320 	add.w	r3, r7, #32
 80011a4:	4618      	mov	r0, r3
 80011a6:	f001 fce9 	bl	8002b7c <HAL_RCC_OscConfig>
 80011aa:	4603      	mov	r3, r0
 80011ac:	2b00      	cmp	r3, #0
 80011ae:	d001      	beq.n	80011b4 <SystemClock_Config+0x94>
  {
    Error_Handler();
 80011b0:	f000 f9a4 	bl	80014fc <Error_Handler>
  }

  /** Initializes the CPU, AHB and APB buses clocks
  */
  RCC_ClkInitStruct.ClockType = RCC_CLOCKTYPE_HCLK|RCC_CLOCKTYPE_SYSCLK
 80011b4:	230f      	movs	r3, #15
 80011b6:	60fb      	str	r3, [r7, #12]
                              |RCC_CLOCKTYPE_PCLK1|RCC_CLOCKTYPE_PCLK2;
  RCC_ClkInitStruct.SYSCLKSource = RCC_SYSCLKSOURCE_PLLCLK;
 80011b8:	2302      	movs	r3, #2
 80011ba:	613b      	str	r3, [r7, #16]
  RCC_ClkInitStruct.AHBCLKDivider = RCC_SYSCLK_DIV1;
 80011bc:	2300      	movs	r3, #0
 80011be:	617b      	str	r3, [r7, #20]
  RCC_ClkInitStruct.APB1CLKDivider = RCC_HCLK_DIV4;
 80011c0:	f44f 53a0 	mov.w	r3, #5120	; 0x1400
 80011c4:	61bb      	str	r3, [r7, #24]
  RCC_ClkInitStruct.APB2CLKDivider = RCC_HCLK_DIV2;
 80011c6:	f44f 5380 	mov.w	r3, #4096	; 0x1000
 80011ca:	61fb      	str	r3, [r7, #28]

  if (HAL_RCC_ClockConfig(&RCC_ClkInitStruct, FLASH_LATENCY_5) != HAL_OK)
 80011cc:	f107 030c 	add.w	r3, r7, #12
 80011d0:	2105      	movs	r1, #5
 80011d2:	4618      	mov	r0, r3
 80011d4:	f001 ff4a 	bl	800306c <HAL_RCC_ClockConfig>
 80011d8:	4603      	mov	r3, r0
 80011da:	2b00      	cmp	r3, #0
 80011dc:	d001      	beq.n	80011e2 <SystemClock_Config+0xc2>
  {
    Error_Handler();
 80011de:	f000 f98d 	bl	80014fc <Error_Handler>
  }
}
 80011e2:	bf00      	nop
 80011e4:	3750      	adds	r7, #80	; 0x50
 80011e6:	46bd      	mov	sp, r7
 80011e8:	bd80      	pop	{r7, pc}
 80011ea:	bf00      	nop
 80011ec:	40023800 	.word	0x40023800
 80011f0:	40007000 	.word	0x40007000

080011f4 <MX_CAN1_Init>:
  * @brief CAN1 Initialization Function
  * @param None
  * @retval None
  */
static void MX_CAN1_Init(void)
{
 80011f4:	b580      	push	{r7, lr}
 80011f6:	af00      	add	r7, sp, #0
  /* USER CODE END CAN1_Init 0 */

  /* USER CODE BEGIN CAN1_Init 1 */

  /* USER CODE END CAN1_Init 1 */
  hcan1.Instance = CAN1;
 80011f8:	4b17      	ldr	r3, [pc, #92]	; (8001258 <MX_CAN1_Init+0x64>)
 80011fa:	4a18      	ldr	r2, [pc, #96]	; (800125c <MX_CAN1_Init+0x68>)
 80011fc:	601a      	str	r2, [r3, #0]
  hcan1.Init.Prescaler = 21;
 80011fe:	4b16      	ldr	r3, [pc, #88]	; (8001258 <MX_CAN1_Init+0x64>)
 8001200:	2215      	movs	r2, #21
 8001202:	605a      	str	r2, [r3, #4]
  hcan1.Init.Mode = CAN_MODE_NORMAL;
 8001204:	4b14      	ldr	r3, [pc, #80]	; (8001258 <MX_CAN1_Init+0x64>)
 8001206:	2200      	movs	r2, #0
 8001208:	609a      	str	r2, [r3, #8]
  hcan1.Init.SyncJumpWidth = CAN_SJW_1TQ;
 800120a:	4b13      	ldr	r3, [pc, #76]	; (8001258 <MX_CAN1_Init+0x64>)
 800120c:	2200      	movs	r2, #0
 800120e:	60da      	str	r2, [r3, #12]
  hcan1.Init.TimeSeg1 = CAN_BS1_12TQ;
 8001210:	4b11      	ldr	r3, [pc, #68]	; (8001258 <MX_CAN1_Init+0x64>)
 8001212:	f44f 2230 	mov.w	r2, #720896	; 0xb0000
 8001216:	611a      	str	r2, [r3, #16]
  hcan1.Init.TimeSeg2 = CAN_BS2_4TQ;
 8001218:	4b0f      	ldr	r3, [pc, #60]	; (8001258 <MX_CAN1_Init+0x64>)
 800121a:	f44f 1240 	mov.w	r2, #3145728	; 0x300000
 800121e:	615a      	str	r2, [r3, #20]
  hcan1.Init.TimeTriggeredMode = DISABLE;
 8001220:	4b0d      	ldr	r3, [pc, #52]	; (8001258 <MX_CAN1_Init+0x64>)
 8001222:	2200      	movs	r2, #0
 8001224:	761a      	strb	r2, [r3, #24]
  hcan1.Init.AutoBusOff = DISABLE;
 8001226:	4b0c      	ldr	r3, [pc, #48]	; (8001258 <MX_CAN1_Init+0x64>)
 8001228:	2200      	movs	r2, #0
 800122a:	765a      	strb	r2, [r3, #25]
  hcan1.Init.AutoWakeUp = DISABLE;
 800122c:	4b0a      	ldr	r3, [pc, #40]	; (8001258 <MX_CAN1_Init+0x64>)
 800122e:	2200      	movs	r2, #0
 8001230:	769a      	strb	r2, [r3, #26]
  hcan1.Init.AutoRetransmission = DISABLE;
 8001232:	4b09      	ldr	r3, [pc, #36]	; (8001258 <MX_CAN1_Init+0x64>)
 8001234:	2200      	movs	r2, #0
 8001236:	76da      	strb	r2, [r3, #27]
  hcan1.Init.ReceiveFifoLocked = DISABLE;
 8001238:	4b07      	ldr	r3, [pc, #28]	; (8001258 <MX_CAN1_Init+0x64>)
 800123a:	2200      	movs	r2, #0
 800123c:	771a      	strb	r2, [r3, #28]
  hcan1.Init.TransmitFifoPriority = DISABLE;
 800123e:	4b06      	ldr	r3, [pc, #24]	; (8001258 <MX_CAN1_Init+0x64>)
 8001240:	2200      	movs	r2, #0
 8001242:	775a      	strb	r2, [r3, #29]
  if (HAL_CAN_Init(&hcan1) != HAL_OK)
 8001244:	4804      	ldr	r0, [pc, #16]	; (8001258 <MX_CAN1_Init+0x64>)
 8001246:	f000 fc45 	bl	8001ad4 <HAL_CAN_Init>
 800124a:	4603      	mov	r3, r0
 800124c:	2b00      	cmp	r3, #0
 800124e:	d001      	beq.n	8001254 <MX_CAN1_Init+0x60>
  {
    Error_Handler();
 8001250:	f000 f954 	bl	80014fc <Error_Handler>
  }
  /* USER CODE BEGIN CAN1_Init 2 */

  /* USER CODE END CAN1_Init 2 */

}
 8001254:	bf00      	nop
 8001256:	bd80      	pop	{r7, pc}
 8001258:	200001f8 	.word	0x200001f8
 800125c:	40006400 	.word	0x40006400

08001260 <MX_TIM4_Init>:
  * @brief TIM4 Initialization Function
  * @param None
  * @retval None
  */
static void MX_TIM4_Init(void)
{
 8001260:	b580      	push	{r7, lr}
 8001262:	b08a      	sub	sp, #40	; 0x28
 8001264:	af00      	add	r7, sp, #0

  /* USER CODE BEGIN TIM4_Init 0 */

  /* USER CODE END TIM4_Init 0 */

  TIM_ClockConfigTypeDef sClockSourceConfig = {0};
 8001266:	f107 0318 	add.w	r3, r7, #24
 800126a:	2200      	movs	r2, #0
 800126c:	601a      	str	r2, [r3, #0]
 800126e:	605a      	str	r2, [r3, #4]
 8001270:	609a      	str	r2, [r3, #8]
 8001272:	60da      	str	r2, [r3, #12]
  TIM_MasterConfigTypeDef sMasterConfig = {0};
 8001274:	f107 0310 	add.w	r3, r7, #16
 8001278:	2200      	movs	r2, #0
 800127a:	601a      	str	r2, [r3, #0]
 800127c:	605a      	str	r2, [r3, #4]
  TIM_IC_InitTypeDef sConfigIC = {0};
 800127e:	463b      	mov	r3, r7
 8001280:	2200      	movs	r2, #0
 8001282:	601a      	str	r2, [r3, #0]
 8001284:	605a      	str	r2, [r3, #4]
 8001286:	609a      	str	r2, [r3, #8]
 8001288:	60da      	str	r2, [r3, #12]

  /* USER CODE BEGIN TIM4_Init 1 */

  /* USER CODE END TIM4_Init 1 */
  htim4.Instance = TIM4;
 800128a:	4b2b      	ldr	r3, [pc, #172]	; (8001338 <MX_TIM4_Init+0xd8>)
 800128c:	4a2b      	ldr	r2, [pc, #172]	; (800133c <MX_TIM4_Init+0xdc>)
 800128e:	601a      	str	r2, [r3, #0]
  htim4.Init.Prescaler = 83;
 8001290:	4b29      	ldr	r3, [pc, #164]	; (8001338 <MX_TIM4_Init+0xd8>)
 8001292:	2253      	movs	r2, #83	; 0x53
 8001294:	605a      	str	r2, [r3, #4]
  htim4.Init.CounterMode = TIM_COUNTERMODE_UP;
 8001296:	4b28      	ldr	r3, [pc, #160]	; (8001338 <MX_TIM4_Init+0xd8>)
 8001298:	2200      	movs	r2, #0
 800129a:	609a      	str	r2, [r3, #8]
  htim4.Init.Period = 0;
 800129c:	4b26      	ldr	r3, [pc, #152]	; (8001338 <MX_TIM4_Init+0xd8>)
 800129e:	2200      	movs	r2, #0
 80012a0:	60da      	str	r2, [r3, #12]
  htim4.Init.ClockDivision = TIM_CLOCKDIVISION_DIV1;
 80012a2:	4b25      	ldr	r3, [pc, #148]	; (8001338 <MX_TIM4_Init+0xd8>)
 80012a4:	2200      	movs	r2, #0
 80012a6:	611a      	str	r2, [r3, #16]
  htim4.Init.AutoReloadPreload = TIM_AUTORELOAD_PRELOAD_DISABLE;
 80012a8:	4b23      	ldr	r3, [pc, #140]	; (8001338 <MX_TIM4_Init+0xd8>)
 80012aa:	2200      	movs	r2, #0
 80012ac:	619a      	str	r2, [r3, #24]
  if (HAL_TIM_Base_Init(&htim4) != HAL_OK)
 80012ae:	4822      	ldr	r0, [pc, #136]	; (8001338 <MX_TIM4_Init+0xd8>)
 80012b0:	f002 f8fc 	bl	80034ac <HAL_TIM_Base_Init>
 80012b4:	4603      	mov	r3, r0
 80012b6:	2b00      	cmp	r3, #0
 80012b8:	d001      	beq.n	80012be <MX_TIM4_Init+0x5e>
  {
    Error_Handler();
 80012ba:	f000 f91f 	bl	80014fc <Error_Handler>
  }
  sClockSourceConfig.ClockSource = TIM_CLOCKSOURCE_INTERNAL;
 80012be:	f44f 5380 	mov.w	r3, #4096	; 0x1000
 80012c2:	61bb      	str	r3, [r7, #24]
  if (HAL_TIM_ConfigClockSource(&htim4, &sClockSourceConfig) != HAL_OK)
 80012c4:	f107 0318 	add.w	r3, r7, #24
 80012c8:	4619      	mov	r1, r3
 80012ca:	481b      	ldr	r0, [pc, #108]	; (8001338 <MX_TIM4_Init+0xd8>)
 80012cc:	f002 fb3a 	bl	8003944 <HAL_TIM_ConfigClockSource>
 80012d0:	4603      	mov	r3, r0
 80012d2:	2b00      	cmp	r3, #0
 80012d4:	d001      	beq.n	80012da <MX_TIM4_Init+0x7a>
  {
    Error_Handler();
 80012d6:	f000 f911 	bl	80014fc <Error_Handler>
  }
  if (HAL_TIM_IC_Init(&htim4) != HAL_OK)
 80012da:	4817      	ldr	r0, [pc, #92]	; (8001338 <MX_TIM4_Init+0xd8>)
 80012dc:	f002 f935 	bl	800354a <HAL_TIM_IC_Init>
 80012e0:	4603      	mov	r3, r0
 80012e2:	2b00      	cmp	r3, #0
 80012e4:	d001      	beq.n	80012ea <MX_TIM4_Init+0x8a>
  {
    Error_Handler();
 80012e6:	f000 f909 	bl	80014fc <Error_Handler>
  }
  sMasterConfig.MasterOutputTrigger = TIM_TRGO_RESET;
 80012ea:	2300      	movs	r3, #0
 80012ec:	613b      	str	r3, [r7, #16]
  sMasterConfig.MasterSlaveMode = TIM_MASTERSLAVEMODE_DISABLE;
 80012ee:	2300      	movs	r3, #0
 80012f0:	617b      	str	r3, [r7, #20]
  if (HAL_TIMEx_MasterConfigSynchronization(&htim4, &sMasterConfig) != HAL_OK)
 80012f2:	f107 0310 	add.w	r3, r7, #16
 80012f6:	4619      	mov	r1, r3
 80012f8:	480f      	ldr	r0, [pc, #60]	; (8001338 <MX_TIM4_Init+0xd8>)
 80012fa:	f002 fe81 	bl	8004000 <HAL_TIMEx_MasterConfigSynchronization>
 80012fe:	4603      	mov	r3, r0
 8001300:	2b00      	cmp	r3, #0
 8001302:	d001      	beq.n	8001308 <MX_TIM4_Init+0xa8>
  {
    Error_Handler();
 8001304:	f000 f8fa 	bl	80014fc <Error_Handler>
  }
  sConfigIC.ICPolarity = TIM_INPUTCHANNELPOLARITY_RISING;
 8001308:	2300      	movs	r3, #0
 800130a:	603b      	str	r3, [r7, #0]
  sConfigIC.ICSelection = TIM_ICSELECTION_DIRECTTI;
 800130c:	2301      	movs	r3, #1
 800130e:	607b      	str	r3, [r7, #4]
  sConfigIC.ICPrescaler = TIM_ICPSC_DIV1;
 8001310:	2300      	movs	r3, #0
 8001312:	60bb      	str	r3, [r7, #8]
  sConfigIC.ICFilter = 0;
 8001314:	2300      	movs	r3, #0
 8001316:	60fb      	str	r3, [r7, #12]
  if (HAL_TIM_IC_ConfigChannel(&htim4, &sConfigIC, TIM_CHANNEL_1) != HAL_OK)
 8001318:	463b      	mov	r3, r7
 800131a:	2200      	movs	r2, #0
 800131c:	4619      	mov	r1, r3
 800131e:	4806      	ldr	r0, [pc, #24]	; (8001338 <MX_TIM4_Init+0xd8>)
 8001320:	f002 fa74 	bl	800380c <HAL_TIM_IC_ConfigChannel>
 8001324:	4603      	mov	r3, r0
 8001326:	2b00      	cmp	r3, #0
 8001328:	d001      	beq.n	800132e <MX_TIM4_Init+0xce>
  {
    Error_Handler();
 800132a:	f000 f8e7 	bl	80014fc <Error_Handler>
  }
  /* USER CODE BEGIN TIM4_Init 2 */

  /* USER CODE END TIM4_Init 2 */

}
 800132e:	bf00      	nop
 8001330:	3728      	adds	r7, #40	; 0x28
 8001332:	46bd      	mov	sp, r7
 8001334:	bd80      	pop	{r7, pc}
 8001336:	bf00      	nop
 8001338:	20000220 	.word	0x20000220
 800133c:	40000800 	.word	0x40000800

08001340 <MX_USART2_UART_Init>:
  * @brief USART2 Initialization Function
  * @param None
  * @retval None
  */
static void MX_USART2_UART_Init(void)
{
 8001340:	b580      	push	{r7, lr}
 8001342:	af00      	add	r7, sp, #0
  /* USER CODE END USART2_Init 0 */

  /* USER CODE BEGIN USART2_Init 1 */

  /* USER CODE END USART2_Init 1 */
  huart2.Instance = USART2;
 8001344:	4b11      	ldr	r3, [pc, #68]	; (800138c <MX_USART2_UART_Init+0x4c>)
 8001346:	4a12      	ldr	r2, [pc, #72]	; (8001390 <MX_USART2_UART_Init+0x50>)
 8001348:	601a      	str	r2, [r3, #0]
  huart2.Init.BaudRate = 115200;
 800134a:	4b10      	ldr	r3, [pc, #64]	; (800138c <MX_USART2_UART_Init+0x4c>)
 800134c:	f44f 32e1 	mov.w	r2, #115200	; 0x1c200
 8001350:	605a      	str	r2, [r3, #4]
  huart2.Init.WordLength = UART_WORDLENGTH_8B;
 8001352:	4b0e      	ldr	r3, [pc, #56]	; (800138c <MX_USART2_UART_Init+0x4c>)
 8001354:	2200      	movs	r2, #0
 8001356:	609a      	str	r2, [r3, #8]
  huart2.Init.StopBits = UART_STOPBITS_1;
 8001358:	4b0c      	ldr	r3, [pc, #48]	; (800138c <MX_USART2_UART_Init+0x4c>)
 800135a:	2200      	movs	r2, #0
 800135c:	60da      	str	r2, [r3, #12]
  huart2.Init.Parity = UART_PARITY_NONE;
 800135e:	4b0b      	ldr	r3, [pc, #44]	; (800138c <MX_USART2_UART_Init+0x4c>)
 8001360:	2200      	movs	r2, #0
 8001362:	611a      	str	r2, [r3, #16]
  huart2.Init.Mode = UART_MODE_TX_RX;
 8001364:	4b09      	ldr	r3, [pc, #36]	; (800138c <MX_USART2_UART_Init+0x4c>)
 8001366:	220c      	movs	r2, #12
 8001368:	615a      	str	r2, [r3, #20]
  huart2.Init.HwFlowCtl = UART_HWCONTROL_NONE;
 800136a:	4b08      	ldr	r3, [pc, #32]	; (800138c <MX_USART2_UART_Init+0x4c>)
 800136c:	2200      	movs	r2, #0
 800136e:	619a      	str	r2, [r3, #24]
  huart2.Init.OverSampling = UART_OVERSAMPLING_16;
 8001370:	4b06      	ldr	r3, [pc, #24]	; (800138c <MX_USART2_UART_Init+0x4c>)
 8001372:	2200      	movs	r2, #0
 8001374:	61da      	str	r2, [r3, #28]
  if (HAL_UART_Init(&huart2) != HAL_OK)
 8001376:	4805      	ldr	r0, [pc, #20]	; (800138c <MX_USART2_UART_Init+0x4c>)
 8001378:	f002 fed2 	bl	8004120 <HAL_UART_Init>
 800137c:	4603      	mov	r3, r0
 800137e:	2b00      	cmp	r3, #0
 8001380:	d001      	beq.n	8001386 <MX_USART2_UART_Init+0x46>
  {
    Error_Handler();
 8001382:	f000 f8bb 	bl	80014fc <Error_Handler>
  }
  /* USER CODE BEGIN USART2_Init 2 */

  /* USER CODE END USART2_Init 2 */

}
 8001386:	bf00      	nop
 8001388:	bd80      	pop	{r7, pc}
 800138a:	bf00      	nop
 800138c:	20000268 	.word	0x20000268
 8001390:	40004400 	.word	0x40004400

08001394 <MX_GPIO_Init>:
  * @brief GPIO Initialization Function
  * @param None
  * @retval None
  */
static void MX_GPIO_Init(void)
{
 8001394:	b580      	push	{r7, lr}
 8001396:	b08a      	sub	sp, #40	; 0x28
 8001398:	af00      	add	r7, sp, #0
  GPIO_InitTypeDef GPIO_InitStruct = {0};
 800139a:	f107 0314 	add.w	r3, r7, #20
 800139e:	2200      	movs	r2, #0
 80013a0:	601a      	str	r2, [r3, #0]
 80013a2:	605a      	str	r2, [r3, #4]
 80013a4:	609a      	str	r2, [r3, #8]
 80013a6:	60da      	str	r2, [r3, #12]
 80013a8:	611a      	str	r2, [r3, #16]

  /* GPIO Ports Clock Enable */
  __HAL_RCC_GPIOH_CLK_ENABLE();
 80013aa:	2300      	movs	r3, #0
 80013ac:	613b      	str	r3, [r7, #16]
 80013ae:	4b37      	ldr	r3, [pc, #220]	; (800148c <MX_GPIO_Init+0xf8>)
 80013b0:	6b1b      	ldr	r3, [r3, #48]	; 0x30
 80013b2:	4a36      	ldr	r2, [pc, #216]	; (800148c <MX_GPIO_Init+0xf8>)
 80013b4:	f043 0380 	orr.w	r3, r3, #128	; 0x80
 80013b8:	6313      	str	r3, [r2, #48]	; 0x30
 80013ba:	4b34      	ldr	r3, [pc, #208]	; (800148c <MX_GPIO_Init+0xf8>)
 80013bc:	6b1b      	ldr	r3, [r3, #48]	; 0x30
 80013be:	f003 0380 	and.w	r3, r3, #128	; 0x80
 80013c2:	613b      	str	r3, [r7, #16]
 80013c4:	693b      	ldr	r3, [r7, #16]
  __HAL_RCC_GPIOA_CLK_ENABLE();
 80013c6:	2300      	movs	r3, #0
 80013c8:	60fb      	str	r3, [r7, #12]
 80013ca:	4b30      	ldr	r3, [pc, #192]	; (800148c <MX_GPIO_Init+0xf8>)
 80013cc:	6b1b      	ldr	r3, [r3, #48]	; 0x30
 80013ce:	4a2f      	ldr	r2, [pc, #188]	; (800148c <MX_GPIO_Init+0xf8>)
 80013d0:	f043 0301 	orr.w	r3, r3, #1
 80013d4:	6313      	str	r3, [r2, #48]	; 0x30
 80013d6:	4b2d      	ldr	r3, [pc, #180]	; (800148c <MX_GPIO_Init+0xf8>)
 80013d8:	6b1b      	ldr	r3, [r3, #48]	; 0x30
 80013da:	f003 0301 	and.w	r3, r3, #1
 80013de:	60fb      	str	r3, [r7, #12]
 80013e0:	68fb      	ldr	r3, [r7, #12]
  __HAL_RCC_GPIOD_CLK_ENABLE();
 80013e2:	2300      	movs	r3, #0
 80013e4:	60bb      	str	r3, [r7, #8]
 80013e6:	4b29      	ldr	r3, [pc, #164]	; (800148c <MX_GPIO_Init+0xf8>)
 80013e8:	6b1b      	ldr	r3, [r3, #48]	; 0x30
 80013ea:	4a28      	ldr	r2, [pc, #160]	; (800148c <MX_GPIO_Init+0xf8>)
 80013ec:	f043 0308 	orr.w	r3, r3, #8
 80013f0:	6313      	str	r3, [r2, #48]	; 0x30
 80013f2:	4b26      	ldr	r3, [pc, #152]	; (800148c <MX_GPIO_Init+0xf8>)
 80013f4:	6b1b      	ldr	r3, [r3, #48]	; 0x30
 80013f6:	f003 0308 	and.w	r3, r3, #8
 80013fa:	60bb      	str	r3, [r7, #8]
 80013fc:	68bb      	ldr	r3, [r7, #8]
  __HAL_RCC_GPIOB_CLK_ENABLE();
 80013fe:	2300      	movs	r3, #0
 8001400:	607b      	str	r3, [r7, #4]
 8001402:	4b22      	ldr	r3, [pc, #136]	; (800148c <MX_GPIO_Init+0xf8>)
 8001404:	6b1b      	ldr	r3, [r3, #48]	; 0x30
 8001406:	4a21      	ldr	r2, [pc, #132]	; (800148c <MX_GPIO_Init+0xf8>)
 8001408:	f043 0302 	orr.w	r3, r3, #2
 800140c:	6313      	str	r3, [r2, #48]	; 0x30
 800140e:	4b1f      	ldr	r3, [pc, #124]	; (800148c <MX_GPIO_Init+0xf8>)
 8001410:	6b1b      	ldr	r3, [r3, #48]	; 0x30
 8001412:	f003 0302 	and.w	r3, r3, #2
 8001416:	607b      	str	r3, [r7, #4]
 8001418:	687b      	ldr	r3, [r7, #4]

  /*Configure GPIO pin Output Level */
  HAL_GPIO_WritePin(TRIG_GPIO_Port, TRIG_Pin, GPIO_PIN_RESET);
 800141a:	2200      	movs	r2, #0
 800141c:	2140      	movs	r1, #64	; 0x40
 800141e:	481c      	ldr	r0, [pc, #112]	; (8001490 <MX_GPIO_Init+0xfc>)
 8001420:	f001 fb78 	bl	8002b14 <HAL_GPIO_WritePin>

  /*Configure GPIO pin Output Level */
  HAL_GPIO_WritePin(GPIOD, GPIO_PIN_12|GPIO_PIN_13|GPIO_PIN_14|GPIO_PIN_15, GPIO_PIN_RESET);
 8001424:	2200      	movs	r2, #0
 8001426:	f44f 4170 	mov.w	r1, #61440	; 0xf000
 800142a:	481a      	ldr	r0, [pc, #104]	; (8001494 <MX_GPIO_Init+0x100>)
 800142c:	f001 fb72 	bl	8002b14 <HAL_GPIO_WritePin>

  /*Configure GPIO pin : TRIG_Pin */
  GPIO_InitStruct.Pin = TRIG_Pin;
 8001430:	2340      	movs	r3, #64	; 0x40
 8001432:	617b      	str	r3, [r7, #20]
  GPIO_InitStruct.Mode = GPIO_MODE_OUTPUT_PP;
 8001434:	2301      	movs	r3, #1
 8001436:	61bb      	str	r3, [r7, #24]
  GPIO_InitStruct.Pull = GPIO_NOPULL;
 8001438:	2300      	movs	r3, #0
 800143a:	61fb      	str	r3, [r7, #28]
  GPIO_InitStruct.Speed = GPIO_SPEED_FREQ_LOW;
 800143c:	2300      	movs	r3, #0
 800143e:	623b      	str	r3, [r7, #32]
  HAL_GPIO_Init(TRIG_GPIO_Port, &GPIO_InitStruct);
 8001440:	f107 0314 	add.w	r3, r7, #20
 8001444:	4619      	mov	r1, r3
 8001446:	4812      	ldr	r0, [pc, #72]	; (8001490 <MX_GPIO_Init+0xfc>)
 8001448:	f001 f9b0 	bl	80027ac <HAL_GPIO_Init>

  /*Configure GPIO pin : ECHO_Pin */
  GPIO_InitStruct.Pin = ECHO_Pin;
 800144c:	2380      	movs	r3, #128	; 0x80
 800144e:	617b      	str	r3, [r7, #20]
  GPIO_InitStruct.Mode = GPIO_MODE_INPUT;
 8001450:	2300      	movs	r3, #0
 8001452:	61bb      	str	r3, [r7, #24]
  GPIO_InitStruct.Pull = GPIO_NOPULL;
 8001454:	2300      	movs	r3, #0
 8001456:	61fb      	str	r3, [r7, #28]
  HAL_GPIO_Init(ECHO_GPIO_Port, &GPIO_InitStruct);
 8001458:	f107 0314 	add.w	r3, r7, #20
 800145c:	4619      	mov	r1, r3
 800145e:	480c      	ldr	r0, [pc, #48]	; (8001490 <MX_GPIO_Init+0xfc>)
 8001460:	f001 f9a4 	bl	80027ac <HAL_GPIO_Init>

  /*Configure GPIO pins : PD12 PD13 PD14 PD15 */
  GPIO_InitStruct.Pin = GPIO_PIN_12|GPIO_PIN_13|GPIO_PIN_14|GPIO_PIN_15;
 8001464:	f44f 4370 	mov.w	r3, #61440	; 0xf000
 8001468:	617b      	str	r3, [r7, #20]
  GPIO_InitStruct.Mode = GPIO_MODE_OUTPUT_PP;
 800146a:	2301      	movs	r3, #1
 800146c:	61bb      	str	r3, [r7, #24]
  GPIO_InitStruct.Pull = GPIO_NOPULL;
 800146e:	2300      	movs	r3, #0
 8001470:	61fb      	str	r3, [r7, #28]
  GPIO_InitStruct.Speed = GPIO_SPEED_FREQ_LOW;
 8001472:	2300      	movs	r3, #0
 8001474:	623b      	str	r3, [r7, #32]
  HAL_GPIO_Init(GPIOD, &GPIO_InitStruct);
 8001476:	f107 0314 	add.w	r3, r7, #20
 800147a:	4619      	mov	r1, r3
 800147c:	4805      	ldr	r0, [pc, #20]	; (8001494 <MX_GPIO_Init+0x100>)
 800147e:	f001 f995 	bl	80027ac <HAL_GPIO_Init>

}
 8001482:	bf00      	nop
 8001484:	3728      	adds	r7, #40	; 0x28
 8001486:	46bd      	mov	sp, r7
 8001488:	bd80      	pop	{r7, pc}
 800148a:	bf00      	nop
 800148c:	40023800 	.word	0x40023800
 8001490:	40020000 	.word	0x40020000
 8001494:	40020c00 	.word	0x40020c00

08001498 <usDelay>:

/* USER CODE BEGIN 4 */
void usDelay(uint32_t uSec)
{
 8001498:	b480      	push	{r7}
 800149a:	b083      	sub	sp, #12
 800149c:	af00      	add	r7, sp, #0
 800149e:	6078      	str	r0, [r7, #4]
	if(uSec < 2) uSec = 2;
 80014a0:	687b      	ldr	r3, [r7, #4]
 80014a2:	2b01      	cmp	r3, #1
 80014a4:	d801      	bhi.n	80014aa <usDelay+0x12>
 80014a6:	2302      	movs	r3, #2
 80014a8:	607b      	str	r3, [r7, #4]
	usTIM->ARR = uSec - 1; 	/*sets the value in the auto-reload register*/
 80014aa:	4a13      	ldr	r2, [pc, #76]	; (80014f8 <usDelay+0x60>)
 80014ac:	687b      	ldr	r3, [r7, #4]
 80014ae:	3b01      	subs	r3, #1
 80014b0:	62d3      	str	r3, [r2, #44]	; 0x2c
	usTIM->EGR = 1; 			/*Re-initialises the timer*/
 80014b2:	4b11      	ldr	r3, [pc, #68]	; (80014f8 <usDelay+0x60>)
 80014b4:	2201      	movs	r2, #1
 80014b6:	615a      	str	r2, [r3, #20]
	usTIM->SR &= ~1; 		//Resets the flag
 80014b8:	4b0f      	ldr	r3, [pc, #60]	; (80014f8 <usDelay+0x60>)
 80014ba:	691b      	ldr	r3, [r3, #16]
 80014bc:	4a0e      	ldr	r2, [pc, #56]	; (80014f8 <usDelay+0x60>)
 80014be:	f023 0301 	bic.w	r3, r3, #1
 80014c2:	6113      	str	r3, [r2, #16]
	usTIM->CR1 |= 1; 		//Enables the counter
 80014c4:	4b0c      	ldr	r3, [pc, #48]	; (80014f8 <usDelay+0x60>)
 80014c6:	681b      	ldr	r3, [r3, #0]
 80014c8:	4a0b      	ldr	r2, [pc, #44]	; (80014f8 <usDelay+0x60>)
 80014ca:	f043 0301 	orr.w	r3, r3, #1
 80014ce:	6013      	str	r3, [r2, #0]
	while((usTIM->SR&0x0001) != 1);
 80014d0:	bf00      	nop
 80014d2:	4b09      	ldr	r3, [pc, #36]	; (80014f8 <usDelay+0x60>)
 80014d4:	691b      	ldr	r3, [r3, #16]
 80014d6:	f003 0301 	and.w	r3, r3, #1
 80014da:	2b01      	cmp	r3, #1
 80014dc:	d1f9      	bne.n	80014d2 <usDelay+0x3a>
	usTIM->SR &= ~(0x0001);
 80014de:	4b06      	ldr	r3, [pc, #24]	; (80014f8 <usDelay+0x60>)
 80014e0:	691b      	ldr	r3, [r3, #16]
 80014e2:	4a05      	ldr	r2, [pc, #20]	; (80014f8 <usDelay+0x60>)
 80014e4:	f023 0301 	bic.w	r3, r3, #1
 80014e8:	6113      	str	r3, [r2, #16]
}
 80014ea:	bf00      	nop
 80014ec:	370c      	adds	r7, #12
 80014ee:	46bd      	mov	sp, r7
 80014f0:	f85d 7b04 	ldr.w	r7, [sp], #4
 80014f4:	4770      	bx	lr
 80014f6:	bf00      	nop
 80014f8:	40000800 	.word	0x40000800

080014fc <Error_Handler>:
/**
  * @brief  This function is executed in case of error occurrence.
  * @retval None
  */
void Error_Handler(void)
{
 80014fc:	b480      	push	{r7}
 80014fe:	af00      	add	r7, sp, #0
  \details Disables IRQ interrupts by setting the I-bit in the CPSR.
           Can only be executed in Privileged modes.
 */
__STATIC_FORCEINLINE void __disable_irq(void)
{
  __ASM volatile ("cpsid i" : : : "memory");
 8001500:	b672      	cpsid	i
}
 8001502:	bf00      	nop
  /* USER CODE BEGIN Error_Handler_Debug */
  /* User can add his own implementation to report the HAL error return state */
  __disable_irq();
  while (1)
 8001504:	e7fe      	b.n	8001504 <Error_Handler+0x8>
	...

08001508 <HAL_MspInit>:
/* USER CODE END 0 */
/**
  * Initializes the Global MSP.
  */
void HAL_MspInit(void)
{
 8001508:	b580      	push	{r7, lr}
 800150a:	b082      	sub	sp, #8
 800150c:	af00      	add	r7, sp, #0
  /* USER CODE BEGIN MspInit 0 */

  /* USER CODE END MspInit 0 */

  __HAL_RCC_SYSCFG_CLK_ENABLE();
 800150e:	2300      	movs	r3, #0
 8001510:	607b      	str	r3, [r7, #4]
 8001512:	4b10      	ldr	r3, [pc, #64]	; (8001554 <HAL_MspInit+0x4c>)
 8001514:	6c5b      	ldr	r3, [r3, #68]	; 0x44
 8001516:	4a0f      	ldr	r2, [pc, #60]	; (8001554 <HAL_MspInit+0x4c>)
 8001518:	f443 4380 	orr.w	r3, r3, #16384	; 0x4000
 800151c:	6453      	str	r3, [r2, #68]	; 0x44
 800151e:	4b0d      	ldr	r3, [pc, #52]	; (8001554 <HAL_MspInit+0x4c>)
 8001520:	6c5b      	ldr	r3, [r3, #68]	; 0x44
 8001522:	f403 4380 	and.w	r3, r3, #16384	; 0x4000
 8001526:	607b      	str	r3, [r7, #4]
 8001528:	687b      	ldr	r3, [r7, #4]
  __HAL_RCC_PWR_CLK_ENABLE();
 800152a:	2300      	movs	r3, #0
 800152c:	603b      	str	r3, [r7, #0]
 800152e:	4b09      	ldr	r3, [pc, #36]	; (8001554 <HAL_MspInit+0x4c>)
 8001530:	6c1b      	ldr	r3, [r3, #64]	; 0x40
 8001532:	4a08      	ldr	r2, [pc, #32]	; (8001554 <HAL_MspInit+0x4c>)
 8001534:	f043 5380 	orr.w	r3, r3, #268435456	; 0x10000000
 8001538:	6413      	str	r3, [r2, #64]	; 0x40
 800153a:	4b06      	ldr	r3, [pc, #24]	; (8001554 <HAL_MspInit+0x4c>)
 800153c:	6c1b      	ldr	r3, [r3, #64]	; 0x40
 800153e:	f003 5380 	and.w	r3, r3, #268435456	; 0x10000000
 8001542:	603b      	str	r3, [r7, #0]
 8001544:	683b      	ldr	r3, [r7, #0]

  HAL_NVIC_SetPriorityGrouping(NVIC_PRIORITYGROUP_0);
 8001546:	2007      	movs	r0, #7
 8001548:	f001 f8ee 	bl	8002728 <HAL_NVIC_SetPriorityGrouping>
  /* System interrupt init*/

  /* USER CODE BEGIN MspInit 1 */

  /* USER CODE END MspInit 1 */
}
 800154c:	bf00      	nop
 800154e:	3708      	adds	r7, #8
 8001550:	46bd      	mov	sp, r7
 8001552:	bd80      	pop	{r7, pc}
 8001554:	40023800 	.word	0x40023800

08001558 <HAL_CAN_MspInit>:
* This function configures the hardware resources used in this example
* @param hcan: CAN handle pointer
* @retval None
*/
void HAL_CAN_MspInit(CAN_HandleTypeDef* hcan)
{
 8001558:	b580      	push	{r7, lr}
 800155a:	b08a      	sub	sp, #40	; 0x28
 800155c:	af00      	add	r7, sp, #0
 800155e:	6078      	str	r0, [r7, #4]
  GPIO_InitTypeDef GPIO_InitStruct = {0};
 8001560:	f107 0314 	add.w	r3, r7, #20
 8001564:	2200      	movs	r2, #0
 8001566:	601a      	str	r2, [r3, #0]
 8001568:	605a      	str	r2, [r3, #4]
 800156a:	609a      	str	r2, [r3, #8]
 800156c:	60da      	str	r2, [r3, #12]
 800156e:	611a      	str	r2, [r3, #16]
  if(hcan->Instance==CAN1)
 8001570:	687b      	ldr	r3, [r7, #4]
 8001572:	681b      	ldr	r3, [r3, #0]
 8001574:	4a1d      	ldr	r2, [pc, #116]	; (80015ec <HAL_CAN_MspInit+0x94>)
 8001576:	4293      	cmp	r3, r2
 8001578:	d134      	bne.n	80015e4 <HAL_CAN_MspInit+0x8c>
  {
  /* USER CODE BEGIN CAN1_MspInit 0 */

  /* USER CODE END CAN1_MspInit 0 */
    /* Peripheral clock enable */
    __HAL_RCC_CAN1_CLK_ENABLE();
 800157a:	2300      	movs	r3, #0
 800157c:	613b      	str	r3, [r7, #16]
 800157e:	4b1c      	ldr	r3, [pc, #112]	; (80015f0 <HAL_CAN_MspInit+0x98>)
 8001580:	6c1b      	ldr	r3, [r3, #64]	; 0x40
 8001582:	4a1b      	ldr	r2, [pc, #108]	; (80015f0 <HAL_CAN_MspInit+0x98>)
 8001584:	f043 7300 	orr.w	r3, r3, #33554432	; 0x2000000
 8001588:	6413      	str	r3, [r2, #64]	; 0x40
 800158a:	4b19      	ldr	r3, [pc, #100]	; (80015f0 <HAL_CAN_MspInit+0x98>)
 800158c:	6c1b      	ldr	r3, [r3, #64]	; 0x40
 800158e:	f003 7300 	and.w	r3, r3, #33554432	; 0x2000000
 8001592:	613b      	str	r3, [r7, #16]
 8001594:	693b      	ldr	r3, [r7, #16]

    __HAL_RCC_GPIOB_CLK_ENABLE();
 8001596:	2300      	movs	r3, #0
 8001598:	60fb      	str	r3, [r7, #12]
 800159a:	4b15      	ldr	r3, [pc, #84]	; (80015f0 <HAL_CAN_MspInit+0x98>)
 800159c:	6b1b      	ldr	r3, [r3, #48]	; 0x30
 800159e:	4a14      	ldr	r2, [pc, #80]	; (80015f0 <HAL_CAN_MspInit+0x98>)
 80015a0:	f043 0302 	orr.w	r3, r3, #2
 80015a4:	6313      	str	r3, [r2, #48]	; 0x30
 80015a6:	4b12      	ldr	r3, [pc, #72]	; (80015f0 <HAL_CAN_MspInit+0x98>)
 80015a8:	6b1b      	ldr	r3, [r3, #48]	; 0x30
 80015aa:	f003 0302 	and.w	r3, r3, #2
 80015ae:	60fb      	str	r3, [r7, #12]
 80015b0:	68fb      	ldr	r3, [r7, #12]
    /**CAN1 GPIO Configuration
    PB8     ------> CAN1_RX
    PB9     ------> CAN1_TX
    */
    GPIO_InitStruct.Pin = GPIO_PIN_8|GPIO_PIN_9;
 80015b2:	f44f 7340 	mov.w	r3, #768	; 0x300
 80015b6:	617b      	str	r3, [r7, #20]
    GPIO_InitStruct.Mode = GPIO_MODE_AF_PP;
 80015b8:	2302      	movs	r3, #2
 80015ba:	61bb      	str	r3, [r7, #24]
    GPIO_InitStruct.Pull = GPIO_NOPULL;
 80015bc:	2300      	movs	r3, #0
 80015be:	61fb      	str	r3, [r7, #28]
    GPIO_InitStruct.Speed = GPIO_SPEED_FREQ_VERY_HIGH;
 80015c0:	2303      	movs	r3, #3
 80015c2:	623b      	str	r3, [r7, #32]
    GPIO_InitStruct.Alternate = GPIO_AF9_CAN1;
 80015c4:	2309      	movs	r3, #9
 80015c6:	627b      	str	r3, [r7, #36]	; 0x24
    HAL_GPIO_Init(GPIOB, &GPIO_InitStruct);
 80015c8:	f107 0314 	add.w	r3, r7, #20
 80015cc:	4619      	mov	r1, r3
 80015ce:	4809      	ldr	r0, [pc, #36]	; (80015f4 <HAL_CAN_MspInit+0x9c>)
 80015d0:	f001 f8ec 	bl	80027ac <HAL_GPIO_Init>

    /* CAN1 interrupt Init */
    HAL_NVIC_SetPriority(CAN1_RX0_IRQn, 0, 2);
 80015d4:	2202      	movs	r2, #2
 80015d6:	2100      	movs	r1, #0
 80015d8:	2014      	movs	r0, #20
 80015da:	f001 f8b0 	bl	800273e <HAL_NVIC_SetPriority>
    HAL_NVIC_EnableIRQ(CAN1_RX0_IRQn);
 80015de:	2014      	movs	r0, #20
 80015e0:	f001 f8c9 	bl	8002776 <HAL_NVIC_EnableIRQ>
  /* USER CODE BEGIN CAN1_MspInit 1 */

  /* USER CODE END CAN1_MspInit 1 */
  }

}
 80015e4:	bf00      	nop
 80015e6:	3728      	adds	r7, #40	; 0x28
 80015e8:	46bd      	mov	sp, r7
 80015ea:	bd80      	pop	{r7, pc}
 80015ec:	40006400 	.word	0x40006400
 80015f0:	40023800 	.word	0x40023800
 80015f4:	40020400 	.word	0x40020400

080015f8 <HAL_TIM_Base_MspInit>:
* This function configures the hardware resources used in this example
* @param htim_base: TIM_Base handle pointer
* @retval None
*/
void HAL_TIM_Base_MspInit(TIM_HandleTypeDef* htim_base)
{
 80015f8:	b580      	push	{r7, lr}
 80015fa:	b08a      	sub	sp, #40	; 0x28
 80015fc:	af00      	add	r7, sp, #0
 80015fe:	6078      	str	r0, [r7, #4]
  GPIO_InitTypeDef GPIO_InitStruct = {0};
 8001600:	f107 0314 	add.w	r3, r7, #20
 8001604:	2200      	movs	r2, #0
 8001606:	601a      	str	r2, [r3, #0]
 8001608:	605a      	str	r2, [r3, #4]
 800160a:	609a      	str	r2, [r3, #8]
 800160c:	60da      	str	r2, [r3, #12]
 800160e:	611a      	str	r2, [r3, #16]
  if(htim_base->Instance==TIM4)
 8001610:	687b      	ldr	r3, [r7, #4]
 8001612:	681b      	ldr	r3, [r3, #0]
 8001614:	4a1d      	ldr	r2, [pc, #116]	; (800168c <HAL_TIM_Base_MspInit+0x94>)
 8001616:	4293      	cmp	r3, r2
 8001618:	d133      	bne.n	8001682 <HAL_TIM_Base_MspInit+0x8a>
  {
  /* USER CODE BEGIN TIM4_MspInit 0 */

  /* USER CODE END TIM4_MspInit 0 */
    /* Peripheral clock enable */
    __HAL_RCC_TIM4_CLK_ENABLE();
 800161a:	2300      	movs	r3, #0
 800161c:	613b      	str	r3, [r7, #16]
 800161e:	4b1c      	ldr	r3, [pc, #112]	; (8001690 <HAL_TIM_Base_MspInit+0x98>)
 8001620:	6c1b      	ldr	r3, [r3, #64]	; 0x40
 8001622:	4a1b      	ldr	r2, [pc, #108]	; (8001690 <HAL_TIM_Base_MspInit+0x98>)
 8001624:	f043 0304 	orr.w	r3, r3, #4
 8001628:	6413      	str	r3, [r2, #64]	; 0x40
 800162a:	4b19      	ldr	r3, [pc, #100]	; (8001690 <HAL_TIM_Base_MspInit+0x98>)
 800162c:	6c1b      	ldr	r3, [r3, #64]	; 0x40
 800162e:	f003 0304 	and.w	r3, r3, #4
 8001632:	613b      	str	r3, [r7, #16]
 8001634:	693b      	ldr	r3, [r7, #16]

    __HAL_RCC_GPIOB_CLK_ENABLE();
 8001636:	2300      	movs	r3, #0
 8001638:	60fb      	str	r3, [r7, #12]
 800163a:	4b15      	ldr	r3, [pc, #84]	; (8001690 <HAL_TIM_Base_MspInit+0x98>)
 800163c:	6b1b      	ldr	r3, [r3, #48]	; 0x30
 800163e:	4a14      	ldr	r2, [pc, #80]	; (8001690 <HAL_TIM_Base_MspInit+0x98>)
 8001640:	f043 0302 	orr.w	r3, r3, #2
 8001644:	6313      	str	r3, [r2, #48]	; 0x30
 8001646:	4b12      	ldr	r3, [pc, #72]	; (8001690 <HAL_TIM_Base_MspInit+0x98>)
 8001648:	6b1b      	ldr	r3, [r3, #48]	; 0x30
 800164a:	f003 0302 	and.w	r3, r3, #2
 800164e:	60fb      	str	r3, [r7, #12]
 8001650:	68fb      	ldr	r3, [r7, #12]
    /**TIM4 GPIO Configuration
    PB6     ------> TIM4_CH1
    */
    GPIO_InitStruct.Pin = GPIO_PIN_6;
 8001652:	2340      	movs	r3, #64	; 0x40
 8001654:	617b      	str	r3, [r7, #20]
    GPIO_InitStruct.Mode = GPIO_MODE_AF_PP;
 8001656:	2302      	movs	r3, #2
 8001658:	61bb      	str	r3, [r7, #24]
    GPIO_InitStruct.Pull = GPIO_NOPULL;
 800165a:	2300      	movs	r3, #0
 800165c:	61fb      	str	r3, [r7, #28]
    GPIO_InitStruct.Speed = GPIO_SPEED_FREQ_LOW;
 800165e:	2300      	movs	r3, #0
 8001660:	623b      	str	r3, [r7, #32]
    GPIO_InitStruct.Alternate = GPIO_AF2_TIM4;
 8001662:	2302      	movs	r3, #2
 8001664:	627b      	str	r3, [r7, #36]	; 0x24
    HAL_GPIO_Init(GPIOB, &GPIO_InitStruct);
 8001666:	f107 0314 	add.w	r3, r7, #20
 800166a:	4619      	mov	r1, r3
 800166c:	4809      	ldr	r0, [pc, #36]	; (8001694 <HAL_TIM_Base_MspInit+0x9c>)
 800166e:	f001 f89d 	bl	80027ac <HAL_GPIO_Init>

    /* TIM4 interrupt Init */
    HAL_NVIC_SetPriority(TIM4_IRQn, 0, 0);
 8001672:	2200      	movs	r2, #0
 8001674:	2100      	movs	r1, #0
 8001676:	201e      	movs	r0, #30
 8001678:	f001 f861 	bl	800273e <HAL_NVIC_SetPriority>
    HAL_NVIC_EnableIRQ(TIM4_IRQn);
 800167c:	201e      	movs	r0, #30
 800167e:	f001 f87a 	bl	8002776 <HAL_NVIC_EnableIRQ>
  /* USER CODE BEGIN TIM4_MspInit 1 */

  /* USER CODE END TIM4_MspInit 1 */
  }

}
 8001682:	bf00      	nop
 8001684:	3728      	adds	r7, #40	; 0x28
 8001686:	46bd      	mov	sp, r7
 8001688:	bd80      	pop	{r7, pc}
 800168a:	bf00      	nop
 800168c:	40000800 	.word	0x40000800
 8001690:	40023800 	.word	0x40023800
 8001694:	40020400 	.word	0x40020400

08001698 <HAL_UART_MspInit>:
* This function configures the hardware resources used in this example
* @param huart: UART handle pointer
* @retval None
*/
void HAL_UART_MspInit(UART_HandleTypeDef* huart)
{
 8001698:	b580      	push	{r7, lr}
 800169a:	b08a      	sub	sp, #40	; 0x28
 800169c:	af00      	add	r7, sp, #0
 800169e:	6078      	str	r0, [r7, #4]
  GPIO_InitTypeDef GPIO_InitStruct = {0};
 80016a0:	f107 0314 	add.w	r3, r7, #20
 80016a4:	2200      	movs	r2, #0
 80016a6:	601a      	str	r2, [r3, #0]
 80016a8:	605a      	str	r2, [r3, #4]
 80016aa:	609a      	str	r2, [r3, #8]
 80016ac:	60da      	str	r2, [r3, #12]
 80016ae:	611a      	str	r2, [r3, #16]
  if(huart->Instance==USART2)
 80016b0:	687b      	ldr	r3, [r7, #4]
 80016b2:	681b      	ldr	r3, [r3, #0]
 80016b4:	4a19      	ldr	r2, [pc, #100]	; (800171c <HAL_UART_MspInit+0x84>)
 80016b6:	4293      	cmp	r3, r2
 80016b8:	d12b      	bne.n	8001712 <HAL_UART_MspInit+0x7a>
  {
  /* USER CODE BEGIN USART2_MspInit 0 */

  /* USER CODE END USART2_MspInit 0 */
    /* Peripheral clock enable */
    __HAL_RCC_USART2_CLK_ENABLE();
 80016ba:	2300      	movs	r3, #0
 80016bc:	613b      	str	r3, [r7, #16]
 80016be:	4b18      	ldr	r3, [pc, #96]	; (8001720 <HAL_UART_MspInit+0x88>)
 80016c0:	6c1b      	ldr	r3, [r3, #64]	; 0x40
 80016c2:	4a17      	ldr	r2, [pc, #92]	; (8001720 <HAL_UART_MspInit+0x88>)
 80016c4:	f443 3300 	orr.w	r3, r3, #131072	; 0x20000
 80016c8:	6413      	str	r3, [r2, #64]	; 0x40
 80016ca:	4b15      	ldr	r3, [pc, #84]	; (8001720 <HAL_UART_MspInit+0x88>)
 80016cc:	6c1b      	ldr	r3, [r3, #64]	; 0x40
 80016ce:	f403 3300 	and.w	r3, r3, #131072	; 0x20000
 80016d2:	613b      	str	r3, [r7, #16]
 80016d4:	693b      	ldr	r3, [r7, #16]

    __HAL_RCC_GPIOA_CLK_ENABLE();
 80016d6:	2300      	movs	r3, #0
 80016d8:	60fb      	str	r3, [r7, #12]
 80016da:	4b11      	ldr	r3, [pc, #68]	; (8001720 <HAL_UART_MspInit+0x88>)
 80016dc:	6b1b      	ldr	r3, [r3, #48]	; 0x30
 80016de:	4a10      	ldr	r2, [pc, #64]	; (8001720 <HAL_UART_MspInit+0x88>)
 80016e0:	f043 0301 	orr.w	r3, r3, #1
 80016e4:	6313      	str	r3, [r2, #48]	; 0x30
 80016e6:	4b0e      	ldr	r3, [pc, #56]	; (8001720 <HAL_UART_MspInit+0x88>)
 80016e8:	6b1b      	ldr	r3, [r3, #48]	; 0x30
 80016ea:	f003 0301 	and.w	r3, r3, #1
 80016ee:	60fb      	str	r3, [r7, #12]
 80016f0:	68fb      	ldr	r3, [r7, #12]
    /**USART2 GPIO Configuration
    PA2     ------> USART2_TX
    PA3     ------> USART2_RX
    */
    GPIO_InitStruct.Pin = GPIO_PIN_2|GPIO_PIN_3;
 80016f2:	230c      	movs	r3, #12
 80016f4:	617b      	str	r3, [r7, #20]
    GPIO_InitStruct.Mode = GPIO_MODE_AF_PP;
 80016f6:	2302      	movs	r3, #2
 80016f8:	61bb      	str	r3, [r7, #24]
    GPIO_InitStruct.Pull = GPIO_NOPULL;
 80016fa:	2300      	movs	r3, #0
 80016fc:	61fb      	str	r3, [r7, #28]
    GPIO_InitStruct.Speed = GPIO_SPEED_FREQ_VERY_HIGH;
 80016fe:	2303      	movs	r3, #3
 8001700:	623b      	str	r3, [r7, #32]
    GPIO_InitStruct.Alternate = GPIO_AF7_USART2;
 8001702:	2307      	movs	r3, #7
 8001704:	627b      	str	r3, [r7, #36]	; 0x24
    HAL_GPIO_Init(GPIOA, &GPIO_InitStruct);
 8001706:	f107 0314 	add.w	r3, r7, #20
 800170a:	4619      	mov	r1, r3
 800170c:	4805      	ldr	r0, [pc, #20]	; (8001724 <HAL_UART_MspInit+0x8c>)
 800170e:	f001 f84d 	bl	80027ac <HAL_GPIO_Init>
  /* USER CODE BEGIN USART2_MspInit 1 */

  /* USER CODE END USART2_MspInit 1 */
  }

}
 8001712:	bf00      	nop
 8001714:	3728      	adds	r7, #40	; 0x28
 8001716:	46bd      	mov	sp, r7
 8001718:	bd80      	pop	{r7, pc}
 800171a:	bf00      	nop
 800171c:	40004400 	.word	0x40004400
 8001720:	40023800 	.word	0x40023800
 8001724:	40020000 	.word	0x40020000

08001728 <NMI_Handler>:
/******************************************************************************/
/**
  * @brief This function handles Non maskable interrupt.
  */
void NMI_Handler(void)
{
 8001728:	b480      	push	{r7}
 800172a:	af00      	add	r7, sp, #0
  /* USER CODE BEGIN NonMaskableInt_IRQn 0 */

  /* USER CODE END NonMaskableInt_IRQn 0 */
  /* USER CODE BEGIN NonMaskableInt_IRQn 1 */
  while (1)
 800172c:	e7fe      	b.n	800172c <NMI_Handler+0x4>

0800172e <HardFault_Handler>:

/**
  * @brief This function handles Hard fault interrupt.
  */
void HardFault_Handler(void)
{
 800172e:	b480      	push	{r7}
 8001730:	af00      	add	r7, sp, #0
  /* USER CODE BEGIN HardFault_IRQn 0 */

  /* USER CODE END HardFault_IRQn 0 */
  while (1)
 8001732:	e7fe      	b.n	8001732 <HardFault_Handler+0x4>

08001734 <MemManage_Handler>:

/**
  * @brief This function handles Memory management fault.
  */
void MemManage_Handler(void)
{
 8001734:	b480      	push	{r7}
 8001736:	af00      	add	r7, sp, #0
  /* USER CODE BEGIN MemoryManagement_IRQn 0 */

  /* USER CODE END MemoryManagement_IRQn 0 */
  while (1)
 8001738:	e7fe      	b.n	8001738 <MemManage_Handler+0x4>

0800173a <BusFault_Handler>:

/**
  * @brief This function handles Pre-fetch fault, memory access fault.
  */
void BusFault_Handler(void)
{
 800173a:	b480      	push	{r7}
 800173c:	af00      	add	r7, sp, #0
  /* USER CODE BEGIN BusFault_IRQn 0 */

  /* USER CODE END BusFault_IRQn 0 */
  while (1)
 800173e:	e7fe      	b.n	800173e <BusFault_Handler+0x4>

08001740 <UsageFault_Handler>:

/**
  * @brief This function handles Undefined instruction or illegal state.
  */
void UsageFault_Handler(void)
{
 8001740:	b480      	push	{r7}
 8001742:	af00      	add	r7, sp, #0
  /* USER CODE BEGIN UsageFault_IRQn 0 */

  /* USER CODE END UsageFault_IRQn 0 */
  while (1)
 8001744:	e7fe      	b.n	8001744 <UsageFault_Handler+0x4>

08001746 <SVC_Handler>:

/**
  * @brief This function handles System service call via SWI instruction.
  */
void SVC_Handler(void)
{
 8001746:	b480      	push	{r7}
 8001748:	af00      	add	r7, sp, #0

  /* USER CODE END SVCall_IRQn 0 */
  /* USER CODE BEGIN SVCall_IRQn 1 */

  /* USER CODE END SVCall_IRQn 1 */
}
 800174a:	bf00      	nop
 800174c:	46bd      	mov	sp, r7
 800174e:	f85d 7b04 	ldr.w	r7, [sp], #4
 8001752:	4770      	bx	lr

08001754 <DebugMon_Handler>:

/**
  * @brief This function handles Debug monitor.
  */
void DebugMon_Handler(void)
{
 8001754:	b480      	push	{r7}
 8001756:	af00      	add	r7, sp, #0

  /* USER CODE END DebugMonitor_IRQn 0 */
  /* USER CODE BEGIN DebugMonitor_IRQn 1 */

  /* USER CODE END DebugMonitor_IRQn 1 */
}
 8001758:	bf00      	nop
 800175a:	46bd      	mov	sp, r7
 800175c:	f85d 7b04 	ldr.w	r7, [sp], #4
 8001760:	4770      	bx	lr

08001762 <PendSV_Handler>:

/**
  * @brief This function handles Pendable request for system service.
  */
void PendSV_Handler(void)
{
 8001762:	b480      	push	{r7}
 8001764:	af00      	add	r7, sp, #0

  /* USER CODE END PendSV_IRQn 0 */
  /* USER CODE BEGIN PendSV_IRQn 1 */

  /* USER CODE END PendSV_IRQn 1 */
}
 8001766:	bf00      	nop
 8001768:	46bd      	mov	sp, r7
 800176a:	f85d 7b04 	ldr.w	r7, [sp], #4
 800176e:	4770      	bx	lr

08001770 <SysTick_Handler>:

/**
  * @brief This function handles System tick timer.
  */
void SysTick_Handler(void)
{
 8001770:	b580      	push	{r7, lr}
 8001772:	af00      	add	r7, sp, #0
  /* USER CODE BEGIN SysTick_IRQn 0 */

  /* USER CODE END SysTick_IRQn 0 */
  HAL_IncTick();
 8001774:	f000 f96a 	bl	8001a4c <HAL_IncTick>
  /* USER CODE BEGIN SysTick_IRQn 1 */

  /* USER CODE END SysTick_IRQn 1 */
}
 8001778:	bf00      	nop
 800177a:	bd80      	pop	{r7, pc}

0800177c <CAN1_RX0_IRQHandler>:

/**
  * @brief This function handles CAN1 RX0 interrupts.
  */
void CAN1_RX0_IRQHandler(void)
{
 800177c:	b580      	push	{r7, lr}
 800177e:	af00      	add	r7, sp, #0
  /* USER CODE BEGIN CAN1_RX0_IRQn 0 */

  /* USER CODE END CAN1_RX0_IRQn 0 */
  HAL_CAN_IRQHandler(&hcan1);
 8001780:	4802      	ldr	r0, [pc, #8]	; (800178c <CAN1_RX0_IRQHandler+0x10>)
 8001782:	f000 fcc8 	bl	8002116 <HAL_CAN_IRQHandler>
  /* USER CODE BEGIN CAN1_RX0_IRQn 1 */

  /* USER CODE END CAN1_RX0_IRQn 1 */
}
 8001786:	bf00      	nop
 8001788:	bd80      	pop	{r7, pc}
 800178a:	bf00      	nop
 800178c:	200001f8 	.word	0x200001f8

08001790 <TIM4_IRQHandler>:

/**
  * @brief This function handles TIM4 global interrupt.
  */
void TIM4_IRQHandler(void)
{
 8001790:	b580      	push	{r7, lr}
 8001792:	af00      	add	r7, sp, #0
  /* USER CODE BEGIN TIM4_IRQn 0 */

  /* USER CODE END TIM4_IRQn 0 */
  HAL_TIM_IRQHandler(&htim4);
 8001794:	4802      	ldr	r0, [pc, #8]	; (80017a0 <TIM4_IRQHandler+0x10>)
 8001796:	f001 ff31 	bl	80035fc <HAL_TIM_IRQHandler>
  /* USER CODE BEGIN TIM4_IRQn 1 */

  /* USER CODE END TIM4_IRQn 1 */
}
 800179a:	bf00      	nop
 800179c:	bd80      	pop	{r7, pc}
 800179e:	bf00      	nop
 80017a0:	20000220 	.word	0x20000220

080017a4 <_getpid>:
 80017a4:	b480      	push	{r7}
 80017a6:	af00      	add	r7, sp, #0
 80017a8:	2301      	movs	r3, #1
 80017aa:	4618      	mov	r0, r3
 80017ac:	46bd      	mov	sp, r7
 80017ae:	f85d 7b04 	ldr.w	r7, [sp], #4
 80017b2:	4770      	bx	lr

080017b4 <_kill>:
 80017b4:	b580      	push	{r7, lr}
 80017b6:	b082      	sub	sp, #8
 80017b8:	af00      	add	r7, sp, #0
 80017ba:	6078      	str	r0, [r7, #4]
 80017bc:	6039      	str	r1, [r7, #0]
 80017be:	f003 f871 	bl	80048a4 <__errno>
 80017c2:	4603      	mov	r3, r0
 80017c4:	2216      	movs	r2, #22
 80017c6:	601a      	str	r2, [r3, #0]
 80017c8:	f04f 33ff 	mov.w	r3, #4294967295
 80017cc:	4618      	mov	r0, r3
 80017ce:	3708      	adds	r7, #8
 80017d0:	46bd      	mov	sp, r7
 80017d2:	bd80      	pop	{r7, pc}

080017d4 <_exit>:
 80017d4:	b580      	push	{r7, lr}
 80017d6:	b082      	sub	sp, #8
 80017d8:	af00      	add	r7, sp, #0
 80017da:	6078      	str	r0, [r7, #4]
 80017dc:	f04f 31ff 	mov.w	r1, #4294967295
 80017e0:	6878      	ldr	r0, [r7, #4]
 80017e2:	f7ff ffe7 	bl	80017b4 <_kill>
 80017e6:	e7fe      	b.n	80017e6 <_exit+0x12>

080017e8 <_read>:
 80017e8:	b580      	push	{r7, lr}
 80017ea:	b086      	sub	sp, #24
 80017ec:	af00      	add	r7, sp, #0
 80017ee:	60f8      	str	r0, [r7, #12]
 80017f0:	60b9      	str	r1, [r7, #8]
 80017f2:	607a      	str	r2, [r7, #4]
 80017f4:	2300      	movs	r3, #0
 80017f6:	617b      	str	r3, [r7, #20]
 80017f8:	e00a      	b.n	8001810 <_read+0x28>
 80017fa:	f3af 8000 	nop.w
 80017fe:	4601      	mov	r1, r0
 8001800:	68bb      	ldr	r3, [r7, #8]
 8001802:	1c5a      	adds	r2, r3, #1
 8001804:	60ba      	str	r2, [r7, #8]
 8001806:	b2ca      	uxtb	r2, r1
 8001808:	701a      	strb	r2, [r3, #0]
 800180a:	697b      	ldr	r3, [r7, #20]
 800180c:	3301      	adds	r3, #1
 800180e:	617b      	str	r3, [r7, #20]
 8001810:	697a      	ldr	r2, [r7, #20]
 8001812:	687b      	ldr	r3, [r7, #4]
 8001814:	429a      	cmp	r2, r3
 8001816:	dbf0      	blt.n	80017fa <_read+0x12>
 8001818:	687b      	ldr	r3, [r7, #4]
 800181a:	4618      	mov	r0, r3
 800181c:	3718      	adds	r7, #24
 800181e:	46bd      	mov	sp, r7
 8001820:	bd80      	pop	{r7, pc}

08001822 <_write>:
 8001822:	b580      	push	{r7, lr}
 8001824:	b086      	sub	sp, #24
 8001826:	af00      	add	r7, sp, #0
 8001828:	60f8      	str	r0, [r7, #12]
 800182a:	60b9      	str	r1, [r7, #8]
 800182c:	607a      	str	r2, [r7, #4]
 800182e:	2300      	movs	r3, #0
 8001830:	617b      	str	r3, [r7, #20]
 8001832:	e009      	b.n	8001848 <_write+0x26>
 8001834:	68bb      	ldr	r3, [r7, #8]
 8001836:	1c5a      	adds	r2, r3, #1
 8001838:	60ba      	str	r2, [r7, #8]
 800183a:	781b      	ldrb	r3, [r3, #0]
 800183c:	4618      	mov	r0, r3
 800183e:	f3af 8000 	nop.w
 8001842:	697b      	ldr	r3, [r7, #20]
 8001844:	3301      	adds	r3, #1
 8001846:	617b      	str	r3, [r7, #20]
 8001848:	697a      	ldr	r2, [r7, #20]
 800184a:	687b      	ldr	r3, [r7, #4]
 800184c:	429a      	cmp	r2, r3
 800184e:	dbf1      	blt.n	8001834 <_write+0x12>
 8001850:	687b      	ldr	r3, [r7, #4]
 8001852:	4618      	mov	r0, r3
 8001854:	3718      	adds	r7, #24
 8001856:	46bd      	mov	sp, r7
 8001858:	bd80      	pop	{r7, pc}

0800185a <_close>:
 800185a:	b480      	push	{r7}
 800185c:	b083      	sub	sp, #12
 800185e:	af00      	add	r7, sp, #0
 8001860:	6078      	str	r0, [r7, #4]
 8001862:	f04f 33ff 	mov.w	r3, #4294967295
 8001866:	4618      	mov	r0, r3
 8001868:	370c      	adds	r7, #12
 800186a:	46bd      	mov	sp, r7
 800186c:	f85d 7b04 	ldr.w	r7, [sp], #4
 8001870:	4770      	bx	lr

08001872 <_fstat>:
 8001872:	b480      	push	{r7}
 8001874:	b083      	sub	sp, #12
 8001876:	af00      	add	r7, sp, #0
 8001878:	6078      	str	r0, [r7, #4]
 800187a:	6039      	str	r1, [r7, #0]
 800187c:	683b      	ldr	r3, [r7, #0]
 800187e:	f44f 5200 	mov.w	r2, #8192	; 0x2000
 8001882:	605a      	str	r2, [r3, #4]
 8001884:	2300      	movs	r3, #0
 8001886:	4618      	mov	r0, r3
 8001888:	370c      	adds	r7, #12
 800188a:	46bd      	mov	sp, r7
 800188c:	f85d 7b04 	ldr.w	r7, [sp], #4
 8001890:	4770      	bx	lr

08001892 <_isatty>:
 8001892:	b480      	push	{r7}
 8001894:	b083      	sub	sp, #12
 8001896:	af00      	add	r7, sp, #0
 8001898:	6078      	str	r0, [r7, #4]
 800189a:	2301      	movs	r3, #1
 800189c:	4618      	mov	r0, r3
 800189e:	370c      	adds	r7, #12
 80018a0:	46bd      	mov	sp, r7
 80018a2:	f85d 7b04 	ldr.w	r7, [sp], #4
 80018a6:	4770      	bx	lr

080018a8 <_lseek>:
 80018a8:	b480      	push	{r7}
 80018aa:	b085      	sub	sp, #20
 80018ac:	af00      	add	r7, sp, #0
 80018ae:	60f8      	str	r0, [r7, #12]
 80018b0:	60b9      	str	r1, [r7, #8]
 80018b2:	607a      	str	r2, [r7, #4]
 80018b4:	2300      	movs	r3, #0
 80018b6:	4618      	mov	r0, r3
 80018b8:	3714      	adds	r7, #20
 80018ba:	46bd      	mov	sp, r7
 80018bc:	f85d 7b04 	ldr.w	r7, [sp], #4
 80018c0:	4770      	bx	lr
	...

080018c4 <_sbrk>:
 80018c4:	b580      	push	{r7, lr}
 80018c6:	b086      	sub	sp, #24
 80018c8:	af00      	add	r7, sp, #0
 80018ca:	6078      	str	r0, [r7, #4]
 80018cc:	4a14      	ldr	r2, [pc, #80]	; (8001920 <_sbrk+0x5c>)
 80018ce:	4b15      	ldr	r3, [pc, #84]	; (8001924 <_sbrk+0x60>)
 80018d0:	1ad3      	subs	r3, r2, r3
 80018d2:	617b      	str	r3, [r7, #20]
 80018d4:	697b      	ldr	r3, [r7, #20]
 80018d6:	613b      	str	r3, [r7, #16]
 80018d8:	4b13      	ldr	r3, [pc, #76]	; (8001928 <_sbrk+0x64>)
 80018da:	681b      	ldr	r3, [r3, #0]
 80018dc:	2b00      	cmp	r3, #0
 80018de:	d102      	bne.n	80018e6 <_sbrk+0x22>
 80018e0:	4b11      	ldr	r3, [pc, #68]	; (8001928 <_sbrk+0x64>)
 80018e2:	4a12      	ldr	r2, [pc, #72]	; (800192c <_sbrk+0x68>)
 80018e4:	601a      	str	r2, [r3, #0]
 80018e6:	4b10      	ldr	r3, [pc, #64]	; (8001928 <_sbrk+0x64>)
 80018e8:	681a      	ldr	r2, [r3, #0]
 80018ea:	687b      	ldr	r3, [r7, #4]
 80018ec:	4413      	add	r3, r2
 80018ee:	693a      	ldr	r2, [r7, #16]
 80018f0:	429a      	cmp	r2, r3
 80018f2:	d207      	bcs.n	8001904 <_sbrk+0x40>
 80018f4:	f002 ffd6 	bl	80048a4 <__errno>
 80018f8:	4603      	mov	r3, r0
 80018fa:	220c      	movs	r2, #12
 80018fc:	601a      	str	r2, [r3, #0]
 80018fe:	f04f 33ff 	mov.w	r3, #4294967295
 8001902:	e009      	b.n	8001918 <_sbrk+0x54>
 8001904:	4b08      	ldr	r3, [pc, #32]	; (8001928 <_sbrk+0x64>)
 8001906:	681b      	ldr	r3, [r3, #0]
 8001908:	60fb      	str	r3, [r7, #12]
 800190a:	4b07      	ldr	r3, [pc, #28]	; (8001928 <_sbrk+0x64>)
 800190c:	681a      	ldr	r2, [r3, #0]
 800190e:	687b      	ldr	r3, [r7, #4]
 8001910:	4413      	add	r3, r2
 8001912:	4a05      	ldr	r2, [pc, #20]	; (8001928 <_sbrk+0x64>)
 8001914:	6013      	str	r3, [r2, #0]
 8001916:	68fb      	ldr	r3, [r7, #12]
 8001918:	4618      	mov	r0, r3
 800191a:	3718      	adds	r7, #24
 800191c:	46bd      	mov	sp, r7
 800191e:	bd80      	pop	{r7, pc}
 8001920:	20020000 	.word	0x20020000
 8001924:	00000400 	.word	0x00000400
 8001928:	20000358 	.word	0x20000358
 800192c:	20000370 	.word	0x20000370

08001930 <SystemInit>:
  *         configuration.
  * @param  None
  * @retval None
  */
void SystemInit(void)
{
 8001930:	b480      	push	{r7}
 8001932:	af00      	add	r7, sp, #0
  /* FPU settings ------------------------------------------------------------*/
  #if (__FPU_PRESENT == 1) && (__FPU_USED == 1)
    SCB->CPACR |= ((3UL << 10*2)|(3UL << 11*2));  /* set CP10 and CP11 Full Access */
 8001934:	4b06      	ldr	r3, [pc, #24]	; (8001950 <SystemInit+0x20>)
 8001936:	f8d3 3088 	ldr.w	r3, [r3, #136]	; 0x88
 800193a:	4a05      	ldr	r2, [pc, #20]	; (8001950 <SystemInit+0x20>)
 800193c:	f443 0370 	orr.w	r3, r3, #15728640	; 0xf00000
 8001940:	f8c2 3088 	str.w	r3, [r2, #136]	; 0x88

  /* Configure the Vector Table location -------------------------------------*/
#if defined(USER_VECT_TAB_ADDRESS)
  SCB->VTOR = VECT_TAB_BASE_ADDRESS | VECT_TAB_OFFSET; /* Vector Table Relocation in Internal SRAM */
#endif /* USER_VECT_TAB_ADDRESS */
}
 8001944:	bf00      	nop
 8001946:	46bd      	mov	sp, r7
 8001948:	f85d 7b04 	ldr.w	r7, [sp], #4
 800194c:	4770      	bx	lr
 800194e:	bf00      	nop
 8001950:	e000ed00 	.word	0xe000ed00

08001954 <Reset_Handler>:
 8001954:	f8df d034 	ldr.w	sp, [pc, #52]	; 800198c <LoopFillZerobss+0x12>
 8001958:	480d      	ldr	r0, [pc, #52]	; (8001990 <LoopFillZerobss+0x16>)
 800195a:	490e      	ldr	r1, [pc, #56]	; (8001994 <LoopFillZerobss+0x1a>)
 800195c:	4a0e      	ldr	r2, [pc, #56]	; (8001998 <LoopFillZerobss+0x1e>)
 800195e:	2300      	movs	r3, #0
 8001960:	e002      	b.n	8001968 <LoopCopyDataInit>

08001962 <CopyDataInit>:
 8001962:	58d4      	ldr	r4, [r2, r3]
 8001964:	50c4      	str	r4, [r0, r3]
 8001966:	3304      	adds	r3, #4

08001968 <LoopCopyDataInit>:
 8001968:	18c4      	adds	r4, r0, r3
 800196a:	428c      	cmp	r4, r1
 800196c:	d3f9      	bcc.n	8001962 <CopyDataInit>
 800196e:	4a0b      	ldr	r2, [pc, #44]	; (800199c <LoopFillZerobss+0x22>)
 8001970:	4c0b      	ldr	r4, [pc, #44]	; (80019a0 <LoopFillZerobss+0x26>)
 8001972:	2300      	movs	r3, #0
 8001974:	e001      	b.n	800197a <LoopFillZerobss>

08001976 <FillZerobss>:
 8001976:	6013      	str	r3, [r2, #0]
 8001978:	3204      	adds	r2, #4

0800197a <LoopFillZerobss>:
 800197a:	42a2      	cmp	r2, r4
 800197c:	d3fb      	bcc.n	8001976 <FillZerobss>
 800197e:	f7ff ffd7 	bl	8001930 <SystemInit>
 8001982:	f002 ff95 	bl	80048b0 <__libc_init_array>
 8001986:	f7ff fab3 	bl	8000ef0 <main>
 800198a:	4770      	bx	lr
 800198c:	20020000 	.word	0x20020000
 8001990:	20000000 	.word	0x20000000
 8001994:	200001dc 	.word	0x200001dc
 8001998:	08007b04 	.word	0x08007b04
 800199c:	200001dc 	.word	0x200001dc
 80019a0:	20000370 	.word	0x20000370

080019a4 <ADC_IRQHandler>:
 80019a4:	e7fe      	b.n	80019a4 <ADC_IRQHandler>
	...

080019a8 <HAL_Init>:
  *         need to ensure that the SysTick time base is always set to 1 millisecond
  *         to have correct HAL operation.
  * @retval HAL status
  */
HAL_StatusTypeDef HAL_Init(void)
{
 80019a8:	b580      	push	{r7, lr}
 80019aa:	af00      	add	r7, sp, #0
  /* Configure Flash prefetch, Instruction cache, Data cache */ 
#if (INSTRUCTION_CACHE_ENABLE != 0U)
  __HAL_FLASH_INSTRUCTION_CACHE_ENABLE();
 80019ac:	4b0e      	ldr	r3, [pc, #56]	; (80019e8 <HAL_Init+0x40>)
 80019ae:	681b      	ldr	r3, [r3, #0]
 80019b0:	4a0d      	ldr	r2, [pc, #52]	; (80019e8 <HAL_Init+0x40>)
 80019b2:	f443 7300 	orr.w	r3, r3, #512	; 0x200
 80019b6:	6013      	str	r3, [r2, #0]
#endif /* INSTRUCTION_CACHE_ENABLE */

#if (DATA_CACHE_ENABLE != 0U)
  __HAL_FLASH_DATA_CACHE_ENABLE();
 80019b8:	4b0b      	ldr	r3, [pc, #44]	; (80019e8 <HAL_Init+0x40>)
 80019ba:	681b      	ldr	r3, [r3, #0]
 80019bc:	4a0a      	ldr	r2, [pc, #40]	; (80019e8 <HAL_Init+0x40>)
 80019be:	f443 6380 	orr.w	r3, r3, #1024	; 0x400
 80019c2:	6013      	str	r3, [r2, #0]
#endif /* DATA_CACHE_ENABLE */

#if (PREFETCH_ENABLE != 0U)
  __HAL_FLASH_PREFETCH_BUFFER_ENABLE();
 80019c4:	4b08      	ldr	r3, [pc, #32]	; (80019e8 <HAL_Init+0x40>)
 80019c6:	681b      	ldr	r3, [r3, #0]
 80019c8:	4a07      	ldr	r2, [pc, #28]	; (80019e8 <HAL_Init+0x40>)
 80019ca:	f443 7380 	orr.w	r3, r3, #256	; 0x100
 80019ce:	6013      	str	r3, [r2, #0]
#endif /* PREFETCH_ENABLE */

  /* Set Interrupt Group Priority */
  HAL_NVIC_SetPriorityGrouping(NVIC_PRIORITYGROUP_4);
 80019d0:	2003      	movs	r0, #3
 80019d2:	f000 fea9 	bl	8002728 <HAL_NVIC_SetPriorityGrouping>

  /* Use systick as time base source and configure 1ms tick (default clock after Reset is HSI) */
  HAL_InitTick(TICK_INT_PRIORITY);
 80019d6:	2000      	movs	r0, #0
 80019d8:	f000 f808 	bl	80019ec <HAL_InitTick>

  /* Init the low level hardware */
  HAL_MspInit();
 80019dc:	f7ff fd94 	bl	8001508 <HAL_MspInit>

  /* Return function status */
  return HAL_OK;
 80019e0:	2300      	movs	r3, #0
}
 80019e2:	4618      	mov	r0, r3
 80019e4:	bd80      	pop	{r7, pc}
 80019e6:	bf00      	nop
 80019e8:	40023c00 	.word	0x40023c00

080019ec <HAL_InitTick>:
  *       implementation  in user file.
  * @param TickPriority Tick interrupt priority.
  * @retval HAL status
  */
__weak HAL_StatusTypeDef HAL_InitTick(uint32_t TickPriority)
{
 80019ec:	b580      	push	{r7, lr}
 80019ee:	b082      	sub	sp, #8
 80019f0:	af00      	add	r7, sp, #0
 80019f2:	6078      	str	r0, [r7, #4]
  /* Configure the SysTick to have interrupt in 1ms time basis*/
  if (HAL_SYSTICK_Config(SystemCoreClock / (1000U / uwTickFreq)) > 0U)
 80019f4:	4b12      	ldr	r3, [pc, #72]	; (8001a40 <HAL_InitTick+0x54>)
 80019f6:	681a      	ldr	r2, [r3, #0]
 80019f8:	4b12      	ldr	r3, [pc, #72]	; (8001a44 <HAL_InitTick+0x58>)
 80019fa:	781b      	ldrb	r3, [r3, #0]
 80019fc:	4619      	mov	r1, r3
 80019fe:	f44f 737a 	mov.w	r3, #1000	; 0x3e8
 8001a02:	fbb3 f3f1 	udiv	r3, r3, r1
 8001a06:	fbb2 f3f3 	udiv	r3, r2, r3
 8001a0a:	4618      	mov	r0, r3
 8001a0c:	f000 fec1 	bl	8002792 <HAL_SYSTICK_Config>
 8001a10:	4603      	mov	r3, r0
 8001a12:	2b00      	cmp	r3, #0
 8001a14:	d001      	beq.n	8001a1a <HAL_InitTick+0x2e>
  {
    return HAL_ERROR;
 8001a16:	2301      	movs	r3, #1
 8001a18:	e00e      	b.n	8001a38 <HAL_InitTick+0x4c>
  }

  /* Configure the SysTick IRQ priority */
  if (TickPriority < (1UL << __NVIC_PRIO_BITS))
 8001a1a:	687b      	ldr	r3, [r7, #4]
 8001a1c:	2b0f      	cmp	r3, #15
 8001a1e:	d80a      	bhi.n	8001a36 <HAL_InitTick+0x4a>
  {
    HAL_NVIC_SetPriority(SysTick_IRQn, TickPriority, 0U);
 8001a20:	2200      	movs	r2, #0
 8001a22:	6879      	ldr	r1, [r7, #4]
 8001a24:	f04f 30ff 	mov.w	r0, #4294967295
 8001a28:	f000 fe89 	bl	800273e <HAL_NVIC_SetPriority>
    uwTickPrio = TickPriority;
 8001a2c:	4a06      	ldr	r2, [pc, #24]	; (8001a48 <HAL_InitTick+0x5c>)
 8001a2e:	687b      	ldr	r3, [r7, #4]
 8001a30:	6013      	str	r3, [r2, #0]
  {
    return HAL_ERROR;
  }

  /* Return function status */
  return HAL_OK;
 8001a32:	2300      	movs	r3, #0
 8001a34:	e000      	b.n	8001a38 <HAL_InitTick+0x4c>
    return HAL_ERROR;
 8001a36:	2301      	movs	r3, #1
}
 8001a38:	4618      	mov	r0, r3
 8001a3a:	3708      	adds	r7, #8
 8001a3c:	46bd      	mov	sp, r7
 8001a3e:	bd80      	pop	{r7, pc}
 8001a40:	20000000 	.word	0x20000000
 8001a44:	20000008 	.word	0x20000008
 8001a48:	20000004 	.word	0x20000004

08001a4c <HAL_IncTick>:
 * @note This function is declared as __weak to be overwritten in case of other 
  *      implementations in user file.
  * @retval None
  */
__weak void HAL_IncTick(void)
{
 8001a4c:	b480      	push	{r7}
 8001a4e:	af00      	add	r7, sp, #0
  uwTick += uwTickFreq;
 8001a50:	4b06      	ldr	r3, [pc, #24]	; (8001a6c <HAL_IncTick+0x20>)
 8001a52:	781b      	ldrb	r3, [r3, #0]
 8001a54:	461a      	mov	r2, r3
 8001a56:	4b06      	ldr	r3, [pc, #24]	; (8001a70 <HAL_IncTick+0x24>)
 8001a58:	681b      	ldr	r3, [r3, #0]
 8001a5a:	4413      	add	r3, r2
 8001a5c:	4a04      	ldr	r2, [pc, #16]	; (8001a70 <HAL_IncTick+0x24>)
 8001a5e:	6013      	str	r3, [r2, #0]
}
 8001a60:	bf00      	nop
 8001a62:	46bd      	mov	sp, r7
 8001a64:	f85d 7b04 	ldr.w	r7, [sp], #4
 8001a68:	4770      	bx	lr
 8001a6a:	bf00      	nop
 8001a6c:	20000008 	.word	0x20000008
 8001a70:	2000035c 	.word	0x2000035c

08001a74 <HAL_GetTick>:
  * @note This function is declared as __weak to be overwritten in case of other 
  *       implementations in user file.
  * @retval tick value
  */
__weak uint32_t HAL_GetTick(void)
{
 8001a74:	b480      	push	{r7}
 8001a76:	af00      	add	r7, sp, #0
  return uwTick;
 8001a78:	4b03      	ldr	r3, [pc, #12]	; (8001a88 <HAL_GetTick+0x14>)
 8001a7a:	681b      	ldr	r3, [r3, #0]
}
 8001a7c:	4618      	mov	r0, r3
 8001a7e:	46bd      	mov	sp, r7
 8001a80:	f85d 7b04 	ldr.w	r7, [sp], #4
 8001a84:	4770      	bx	lr
 8001a86:	bf00      	nop
 8001a88:	2000035c 	.word	0x2000035c

08001a8c <HAL_Delay>:
  *       implementations in user file.
  * @param Delay specifies the delay time length, in milliseconds.
  * @retval None
  */
__weak void HAL_Delay(uint32_t Delay)
{
 8001a8c:	b580      	push	{r7, lr}
 8001a8e:	b084      	sub	sp, #16
 8001a90:	af00      	add	r7, sp, #0
 8001a92:	6078      	str	r0, [r7, #4]
  uint32_t tickstart = HAL_GetTick();
 8001a94:	f7ff ffee 	bl	8001a74 <HAL_GetTick>
 8001a98:	60b8      	str	r0, [r7, #8]
  uint32_t wait = Delay;
 8001a9a:	687b      	ldr	r3, [r7, #4]
 8001a9c:	60fb      	str	r3, [r7, #12]

  /* Add a freq to guarantee minimum wait */
  if (wait < HAL_MAX_DELAY)
 8001a9e:	68fb      	ldr	r3, [r7, #12]
 8001aa0:	f1b3 3fff 	cmp.w	r3, #4294967295
 8001aa4:	d005      	beq.n	8001ab2 <HAL_Delay+0x26>
  {
    wait += (uint32_t)(uwTickFreq);
 8001aa6:	4b0a      	ldr	r3, [pc, #40]	; (8001ad0 <HAL_Delay+0x44>)
 8001aa8:	781b      	ldrb	r3, [r3, #0]
 8001aaa:	461a      	mov	r2, r3
 8001aac:	68fb      	ldr	r3, [r7, #12]
 8001aae:	4413      	add	r3, r2
 8001ab0:	60fb      	str	r3, [r7, #12]
  }

  while((HAL_GetTick() - tickstart) < wait)
 8001ab2:	bf00      	nop
 8001ab4:	f7ff ffde 	bl	8001a74 <HAL_GetTick>
 8001ab8:	4602      	mov	r2, r0
 8001aba:	68bb      	ldr	r3, [r7, #8]
 8001abc:	1ad3      	subs	r3, r2, r3
 8001abe:	68fa      	ldr	r2, [r7, #12]
 8001ac0:	429a      	cmp	r2, r3
 8001ac2:	d8f7      	bhi.n	8001ab4 <HAL_Delay+0x28>
  {
  }
}
 8001ac4:	bf00      	nop
 8001ac6:	bf00      	nop
 8001ac8:	3710      	adds	r7, #16
 8001aca:	46bd      	mov	sp, r7
 8001acc:	bd80      	pop	{r7, pc}
 8001ace:	bf00      	nop
 8001ad0:	20000008 	.word	0x20000008

08001ad4 <HAL_CAN_Init>:
  * @param  hcan pointer to a CAN_HandleTypeDef structure that contains
  *         the configuration information for the specified CAN.
  * @retval HAL status
  */
HAL_StatusTypeDef HAL_CAN_Init(CAN_HandleTypeDef *hcan)
{
 8001ad4:	b580      	push	{r7, lr}
 8001ad6:	b084      	sub	sp, #16
 8001ad8:	af00      	add	r7, sp, #0
 8001ada:	6078      	str	r0, [r7, #4]
  uint32_t tickstart;

  /* Check CAN handle */
  if (hcan == NULL)
 8001adc:	687b      	ldr	r3, [r7, #4]
 8001ade:	2b00      	cmp	r3, #0
 8001ae0:	d101      	bne.n	8001ae6 <HAL_CAN_Init+0x12>
  {
    return HAL_ERROR;
 8001ae2:	2301      	movs	r3, #1
 8001ae4:	e0ed      	b.n	8001cc2 <HAL_CAN_Init+0x1ee>
    /* Init the low level hardware: CLOCK, NVIC */
    hcan->MspInitCallback(hcan);
  }

#else
  if (hcan->State == HAL_CAN_STATE_RESET)
 8001ae6:	687b      	ldr	r3, [r7, #4]
 8001ae8:	f893 3020 	ldrb.w	r3, [r3, #32]
 8001aec:	b2db      	uxtb	r3, r3
 8001aee:	2b00      	cmp	r3, #0
 8001af0:	d102      	bne.n	8001af8 <HAL_CAN_Init+0x24>
  {
    /* Init the low level hardware: CLOCK, NVIC */
    HAL_CAN_MspInit(hcan);
 8001af2:	6878      	ldr	r0, [r7, #4]
 8001af4:	f7ff fd30 	bl	8001558 <HAL_CAN_MspInit>
  }
#endif /* (USE_HAL_CAN_REGISTER_CALLBACKS) */

  /* Request initialisation */
  SET_BIT(hcan->Instance->MCR, CAN_MCR_INRQ);
 8001af8:	687b      	ldr	r3, [r7, #4]
 8001afa:	681b      	ldr	r3, [r3, #0]
 8001afc:	681a      	ldr	r2, [r3, #0]
 8001afe:	687b      	ldr	r3, [r7, #4]
 8001b00:	681b      	ldr	r3, [r3, #0]
 8001b02:	f042 0201 	orr.w	r2, r2, #1
 8001b06:	601a      	str	r2, [r3, #0]

  /* Get tick */
  tickstart = HAL_GetTick();
 8001b08:	f7ff ffb4 	bl	8001a74 <HAL_GetTick>
 8001b0c:	60f8      	str	r0, [r7, #12]

  /* Wait initialisation acknowledge */
  while ((hcan->Instance->MSR & CAN_MSR_INAK) == 0U)
 8001b0e:	e012      	b.n	8001b36 <HAL_CAN_Init+0x62>
  {
    if ((HAL_GetTick() - tickstart) > CAN_TIMEOUT_VALUE)
 8001b10:	f7ff ffb0 	bl	8001a74 <HAL_GetTick>
 8001b14:	4602      	mov	r2, r0
 8001b16:	68fb      	ldr	r3, [r7, #12]
 8001b18:	1ad3      	subs	r3, r2, r3
 8001b1a:	2b0a      	cmp	r3, #10
 8001b1c:	d90b      	bls.n	8001b36 <HAL_CAN_Init+0x62>
    {
      /* Update error code */
      hcan->ErrorCode |= HAL_CAN_ERROR_TIMEOUT;
 8001b1e:	687b      	ldr	r3, [r7, #4]
 8001b20:	6a5b      	ldr	r3, [r3, #36]	; 0x24
 8001b22:	f443 3200 	orr.w	r2, r3, #131072	; 0x20000
 8001b26:	687b      	ldr	r3, [r7, #4]
 8001b28:	625a      	str	r2, [r3, #36]	; 0x24

      /* Change CAN state */
      hcan->State = HAL_CAN_STATE_ERROR;
 8001b2a:	687b      	ldr	r3, [r7, #4]
 8001b2c:	2205      	movs	r2, #5
 8001b2e:	f883 2020 	strb.w	r2, [r3, #32]

      return HAL_ERROR;
 8001b32:	2301      	movs	r3, #1
 8001b34:	e0c5      	b.n	8001cc2 <HAL_CAN_Init+0x1ee>
  while ((hcan->Instance->MSR & CAN_MSR_INAK) == 0U)
 8001b36:	687b      	ldr	r3, [r7, #4]
 8001b38:	681b      	ldr	r3, [r3, #0]
 8001b3a:	685b      	ldr	r3, [r3, #4]
 8001b3c:	f003 0301 	and.w	r3, r3, #1
 8001b40:	2b00      	cmp	r3, #0
 8001b42:	d0e5      	beq.n	8001b10 <HAL_CAN_Init+0x3c>
    }
  }

  /* Exit from sleep mode */
  CLEAR_BIT(hcan->Instance->MCR, CAN_MCR_SLEEP);
 8001b44:	687b      	ldr	r3, [r7, #4]
 8001b46:	681b      	ldr	r3, [r3, #0]
 8001b48:	681a      	ldr	r2, [r3, #0]
 8001b4a:	687b      	ldr	r3, [r7, #4]
 8001b4c:	681b      	ldr	r3, [r3, #0]
 8001b4e:	f022 0202 	bic.w	r2, r2, #2
 8001b52:	601a      	str	r2, [r3, #0]

  /* Get tick */
  tickstart = HAL_GetTick();
 8001b54:	f7ff ff8e 	bl	8001a74 <HAL_GetTick>
 8001b58:	60f8      	str	r0, [r7, #12]

  /* Check Sleep mode leave acknowledge */
  while ((hcan->Instance->MSR & CAN_MSR_SLAK) != 0U)
 8001b5a:	e012      	b.n	8001b82 <HAL_CAN_Init+0xae>
  {
    if ((HAL_GetTick() - tickstart) > CAN_TIMEOUT_VALUE)
 8001b5c:	f7ff ff8a 	bl	8001a74 <HAL_GetTick>
 8001b60:	4602      	mov	r2, r0
 8001b62:	68fb      	ldr	r3, [r7, #12]
 8001b64:	1ad3      	subs	r3, r2, r3
 8001b66:	2b0a      	cmp	r3, #10
 8001b68:	d90b      	bls.n	8001b82 <HAL_CAN_Init+0xae>
    {
      /* Update error code */
      hcan->ErrorCode |= HAL_CAN_ERROR_TIMEOUT;
 8001b6a:	687b      	ldr	r3, [r7, #4]
 8001b6c:	6a5b      	ldr	r3, [r3, #36]	; 0x24
 8001b6e:	f443 3200 	orr.w	r2, r3, #131072	; 0x20000
 8001b72:	687b      	ldr	r3, [r7, #4]
 8001b74:	625a      	str	r2, [r3, #36]	; 0x24

      /* Change CAN state */
      hcan->State = HAL_CAN_STATE_ERROR;
 8001b76:	687b      	ldr	r3, [r7, #4]
 8001b78:	2205      	movs	r2, #5
 8001b7a:	f883 2020 	strb.w	r2, [r3, #32]

      return HAL_ERROR;
 8001b7e:	2301      	movs	r3, #1
 8001b80:	e09f      	b.n	8001cc2 <HAL_CAN_Init+0x1ee>
  while ((hcan->Instance->MSR & CAN_MSR_SLAK) != 0U)
 8001b82:	687b      	ldr	r3, [r7, #4]
 8001b84:	681b      	ldr	r3, [r3, #0]
 8001b86:	685b      	ldr	r3, [r3, #4]
 8001b88:	f003 0302 	and.w	r3, r3, #2
 8001b8c:	2b00      	cmp	r3, #0
 8001b8e:	d1e5      	bne.n	8001b5c <HAL_CAN_Init+0x88>
    }
  }

  /* Set the time triggered communication mode */
  if (hcan->Init.TimeTriggeredMode == ENABLE)
 8001b90:	687b      	ldr	r3, [r7, #4]
 8001b92:	7e1b      	ldrb	r3, [r3, #24]
 8001b94:	2b01      	cmp	r3, #1
 8001b96:	d108      	bne.n	8001baa <HAL_CAN_Init+0xd6>
  {
    SET_BIT(hcan->Instance->MCR, CAN_MCR_TTCM);
 8001b98:	687b      	ldr	r3, [r7, #4]
 8001b9a:	681b      	ldr	r3, [r3, #0]
 8001b9c:	681a      	ldr	r2, [r3, #0]
 8001b9e:	687b      	ldr	r3, [r7, #4]
 8001ba0:	681b      	ldr	r3, [r3, #0]
 8001ba2:	f042 0280 	orr.w	r2, r2, #128	; 0x80
 8001ba6:	601a      	str	r2, [r3, #0]
 8001ba8:	e007      	b.n	8001bba <HAL_CAN_Init+0xe6>
  }
  else
  {
    CLEAR_BIT(hcan->Instance->MCR, CAN_MCR_TTCM);
 8001baa:	687b      	ldr	r3, [r7, #4]
 8001bac:	681b      	ldr	r3, [r3, #0]
 8001bae:	681a      	ldr	r2, [r3, #0]
 8001bb0:	687b      	ldr	r3, [r7, #4]
 8001bb2:	681b      	ldr	r3, [r3, #0]
 8001bb4:	f022 0280 	bic.w	r2, r2, #128	; 0x80
 8001bb8:	601a      	str	r2, [r3, #0]
  }

  /* Set the automatic bus-off management */
  if (hcan->Init.AutoBusOff == ENABLE)
 8001bba:	687b      	ldr	r3, [r7, #4]
 8001bbc:	7e5b      	ldrb	r3, [r3, #25]
 8001bbe:	2b01      	cmp	r3, #1
 8001bc0:	d108      	bne.n	8001bd4 <HAL_CAN_Init+0x100>
  {
    SET_BIT(hcan->Instance->MCR, CAN_MCR_ABOM);
 8001bc2:	687b      	ldr	r3, [r7, #4]
 8001bc4:	681b      	ldr	r3, [r3, #0]
 8001bc6:	681a      	ldr	r2, [r3, #0]
 8001bc8:	687b      	ldr	r3, [r7, #4]
 8001bca:	681b      	ldr	r3, [r3, #0]
 8001bcc:	f042 0240 	orr.w	r2, r2, #64	; 0x40
 8001bd0:	601a      	str	r2, [r3, #0]
 8001bd2:	e007      	b.n	8001be4 <HAL_CAN_Init+0x110>
  }
  else
  {
    CLEAR_BIT(hcan->Instance->MCR, CAN_MCR_ABOM);
 8001bd4:	687b      	ldr	r3, [r7, #4]
 8001bd6:	681b      	ldr	r3, [r3, #0]
 8001bd8:	681a      	ldr	r2, [r3, #0]
 8001bda:	687b      	ldr	r3, [r7, #4]
 8001bdc:	681b      	ldr	r3, [r3, #0]
 8001bde:	f022 0240 	bic.w	r2, r2, #64	; 0x40
 8001be2:	601a      	str	r2, [r3, #0]
  }

  /* Set the automatic wake-up mode */
  if (hcan->Init.AutoWakeUp == ENABLE)
 8001be4:	687b      	ldr	r3, [r7, #4]
 8001be6:	7e9b      	ldrb	r3, [r3, #26]
 8001be8:	2b01      	cmp	r3, #1
 8001bea:	d108      	bne.n	8001bfe <HAL_CAN_Init+0x12a>
  {
    SET_BIT(hcan->Instance->MCR, CAN_MCR_AWUM);
 8001bec:	687b      	ldr	r3, [r7, #4]
 8001bee:	681b      	ldr	r3, [r3, #0]
 8001bf0:	681a      	ldr	r2, [r3, #0]
 8001bf2:	687b      	ldr	r3, [r7, #4]
 8001bf4:	681b      	ldr	r3, [r3, #0]
 8001bf6:	f042 0220 	orr.w	r2, r2, #32
 8001bfa:	601a      	str	r2, [r3, #0]
 8001bfc:	e007      	b.n	8001c0e <HAL_CAN_Init+0x13a>
  }
  else
  {
    CLEAR_BIT(hcan->Instance->MCR, CAN_MCR_AWUM);
 8001bfe:	687b      	ldr	r3, [r7, #4]
 8001c00:	681b      	ldr	r3, [r3, #0]
 8001c02:	681a      	ldr	r2, [r3, #0]
 8001c04:	687b      	ldr	r3, [r7, #4]
 8001c06:	681b      	ldr	r3, [r3, #0]
 8001c08:	f022 0220 	bic.w	r2, r2, #32
 8001c0c:	601a      	str	r2, [r3, #0]
  }

  /* Set the automatic retransmission */
  if (hcan->Init.AutoRetransmission == ENABLE)
 8001c0e:	687b      	ldr	r3, [r7, #4]
 8001c10:	7edb      	ldrb	r3, [r3, #27]
 8001c12:	2b01      	cmp	r3, #1
 8001c14:	d108      	bne.n	8001c28 <HAL_CAN_Init+0x154>
  {
    CLEAR_BIT(hcan->Instance->MCR, CAN_MCR_NART);
 8001c16:	687b      	ldr	r3, [r7, #4]
 8001c18:	681b      	ldr	r3, [r3, #0]
 8001c1a:	681a      	ldr	r2, [r3, #0]
 8001c1c:	687b      	ldr	r3, [r7, #4]
 8001c1e:	681b      	ldr	r3, [r3, #0]
 8001c20:	f022 0210 	bic.w	r2, r2, #16
 8001c24:	601a      	str	r2, [r3, #0]
 8001c26:	e007      	b.n	8001c38 <HAL_CAN_Init+0x164>
  }
  else
  {
    SET_BIT(hcan->Instance->MCR, CAN_MCR_NART);
 8001c28:	687b      	ldr	r3, [r7, #4]
 8001c2a:	681b      	ldr	r3, [r3, #0]
 8001c2c:	681a      	ldr	r2, [r3, #0]
 8001c2e:	687b      	ldr	r3, [r7, #4]
 8001c30:	681b      	ldr	r3, [r3, #0]
 8001c32:	f042 0210 	orr.w	r2, r2, #16
 8001c36:	601a      	str	r2, [r3, #0]
  }

  /* Set the receive FIFO locked mode */
  if (hcan->Init.ReceiveFifoLocked == ENABLE)
 8001c38:	687b      	ldr	r3, [r7, #4]
 8001c3a:	7f1b      	ldrb	r3, [r3, #28]
 8001c3c:	2b01      	cmp	r3, #1
 8001c3e:	d108      	bne.n	8001c52 <HAL_CAN_Init+0x17e>
  {
    SET_BIT(hcan->Instance->MCR, CAN_MCR_RFLM);
 8001c40:	687b      	ldr	r3, [r7, #4]
 8001c42:	681b      	ldr	r3, [r3, #0]
 8001c44:	681a      	ldr	r2, [r3, #0]
 8001c46:	687b      	ldr	r3, [r7, #4]
 8001c48:	681b      	ldr	r3, [r3, #0]
 8001c4a:	f042 0208 	orr.w	r2, r2, #8
 8001c4e:	601a      	str	r2, [r3, #0]
 8001c50:	e007      	b.n	8001c62 <HAL_CAN_Init+0x18e>
  }
  else
  {
    CLEAR_BIT(hcan->Instance->MCR, CAN_MCR_RFLM);
 8001c52:	687b      	ldr	r3, [r7, #4]
 8001c54:	681b      	ldr	r3, [r3, #0]
 8001c56:	681a      	ldr	r2, [r3, #0]
 8001c58:	687b      	ldr	r3, [r7, #4]
 8001c5a:	681b      	ldr	r3, [r3, #0]
 8001c5c:	f022 0208 	bic.w	r2, r2, #8
 8001c60:	601a      	str	r2, [r3, #0]
  }

  /* Set the transmit FIFO priority */
  if (hcan->Init.TransmitFifoPriority == ENABLE)
 8001c62:	687b      	ldr	r3, [r7, #4]
 8001c64:	7f5b      	ldrb	r3, [r3, #29]
 8001c66:	2b01      	cmp	r3, #1
 8001c68:	d108      	bne.n	8001c7c <HAL_CAN_Init+0x1a8>
  {
    SET_BIT(hcan->Instance->MCR, CAN_MCR_TXFP);
 8001c6a:	687b      	ldr	r3, [r7, #4]
 8001c6c:	681b      	ldr	r3, [r3, #0]
 8001c6e:	681a      	ldr	r2, [r3, #0]
 8001c70:	687b      	ldr	r3, [r7, #4]
 8001c72:	681b      	ldr	r3, [r3, #0]
 8001c74:	f042 0204 	orr.w	r2, r2, #4
 8001c78:	601a      	str	r2, [r3, #0]
 8001c7a:	e007      	b.n	8001c8c <HAL_CAN_Init+0x1b8>
  }
  else
  {
    CLEAR_BIT(hcan->Instance->MCR, CAN_MCR_TXFP);
 8001c7c:	687b      	ldr	r3, [r7, #4]
 8001c7e:	681b      	ldr	r3, [r3, #0]
 8001c80:	681a      	ldr	r2, [r3, #0]
 8001c82:	687b      	ldr	r3, [r7, #4]
 8001c84:	681b      	ldr	r3, [r3, #0]
 8001c86:	f022 0204 	bic.w	r2, r2, #4
 8001c8a:	601a      	str	r2, [r3, #0]
  }

  /* Set the bit timing register */
  WRITE_REG(hcan->Instance->BTR, (uint32_t)(hcan->Init.Mode           |
 8001c8c:	687b      	ldr	r3, [r7, #4]
 8001c8e:	689a      	ldr	r2, [r3, #8]
 8001c90:	687b      	ldr	r3, [r7, #4]
 8001c92:	68db      	ldr	r3, [r3, #12]
 8001c94:	431a      	orrs	r2, r3
 8001c96:	687b      	ldr	r3, [r7, #4]
 8001c98:	691b      	ldr	r3, [r3, #16]
 8001c9a:	431a      	orrs	r2, r3
 8001c9c:	687b      	ldr	r3, [r7, #4]
 8001c9e:	695b      	ldr	r3, [r3, #20]
 8001ca0:	ea42 0103 	orr.w	r1, r2, r3
 8001ca4:	687b      	ldr	r3, [r7, #4]
 8001ca6:	685b      	ldr	r3, [r3, #4]
 8001ca8:	1e5a      	subs	r2, r3, #1
 8001caa:	687b      	ldr	r3, [r7, #4]
 8001cac:	681b      	ldr	r3, [r3, #0]
 8001cae:	430a      	orrs	r2, r1
 8001cb0:	61da      	str	r2, [r3, #28]
                                            hcan->Init.TimeSeg1       |
                                            hcan->Init.TimeSeg2       |
                                            (hcan->Init.Prescaler - 1U)));

  /* Initialize the error code */
  hcan->ErrorCode = HAL_CAN_ERROR_NONE;
 8001cb2:	687b      	ldr	r3, [r7, #4]
 8001cb4:	2200      	movs	r2, #0
 8001cb6:	625a      	str	r2, [r3, #36]	; 0x24

  /* Initialize the CAN state */
  hcan->State = HAL_CAN_STATE_READY;
 8001cb8:	687b      	ldr	r3, [r7, #4]
 8001cba:	2201      	movs	r2, #1
 8001cbc:	f883 2020 	strb.w	r2, [r3, #32]

  /* Return function status */
  return HAL_OK;
 8001cc0:	2300      	movs	r3, #0
}
 8001cc2:	4618      	mov	r0, r3
 8001cc4:	3710      	adds	r7, #16
 8001cc6:	46bd      	mov	sp, r7
 8001cc8:	bd80      	pop	{r7, pc}
	...

08001ccc <HAL_CAN_ConfigFilter>:
  * @param  sFilterConfig pointer to a CAN_FilterTypeDef structure that
  *         contains the filter configuration information.
  * @retval None
  */
HAL_StatusTypeDef HAL_CAN_ConfigFilter(CAN_HandleTypeDef *hcan, CAN_FilterTypeDef *sFilterConfig)
{
 8001ccc:	b480      	push	{r7}
 8001cce:	b087      	sub	sp, #28
 8001cd0:	af00      	add	r7, sp, #0
 8001cd2:	6078      	str	r0, [r7, #4]
 8001cd4:	6039      	str	r1, [r7, #0]
  uint32_t filternbrbitpos;
  CAN_TypeDef *can_ip = hcan->Instance;
 8001cd6:	687b      	ldr	r3, [r7, #4]
 8001cd8:	681b      	ldr	r3, [r3, #0]
 8001cda:	617b      	str	r3, [r7, #20]
  HAL_CAN_StateTypeDef state = hcan->State;
 8001cdc:	687b      	ldr	r3, [r7, #4]
 8001cde:	f893 3020 	ldrb.w	r3, [r3, #32]
 8001ce2:	74fb      	strb	r3, [r7, #19]

  if ((state == HAL_CAN_STATE_READY) ||
 8001ce4:	7cfb      	ldrb	r3, [r7, #19]
 8001ce6:	2b01      	cmp	r3, #1
 8001ce8:	d003      	beq.n	8001cf2 <HAL_CAN_ConfigFilter+0x26>
 8001cea:	7cfb      	ldrb	r3, [r7, #19]
 8001cec:	2b02      	cmp	r3, #2
 8001cee:	f040 80be 	bne.w	8001e6e <HAL_CAN_ConfigFilter+0x1a2>
      assert_param(IS_CAN_FILTER_BANK_DUAL(sFilterConfig->SlaveStartFilterBank));
    }
#elif defined(CAN2)
    /* CAN1 and CAN2 are dual instances with 28 common filters banks */
    /* Select master instance to access the filter banks */
    can_ip = CAN1;
 8001cf2:	4b65      	ldr	r3, [pc, #404]	; (8001e88 <HAL_CAN_ConfigFilter+0x1bc>)
 8001cf4:	617b      	str	r3, [r7, #20]
    /* Check the parameters */
    assert_param(IS_CAN_FILTER_BANK_SINGLE(sFilterConfig->FilterBank));
#endif

    /* Initialisation mode for the filter */
    SET_BIT(can_ip->FMR, CAN_FMR_FINIT);
 8001cf6:	697b      	ldr	r3, [r7, #20]
 8001cf8:	f8d3 3200 	ldr.w	r3, [r3, #512]	; 0x200
 8001cfc:	f043 0201 	orr.w	r2, r3, #1
 8001d00:	697b      	ldr	r3, [r7, #20]
 8001d02:	f8c3 2200 	str.w	r2, [r3, #512]	; 0x200
      SET_BIT(can_ip->FMR, sFilterConfig->SlaveStartFilterBank << CAN_FMR_CAN2SB_Pos);
    }

#elif defined(CAN2)
    /* Select the start filter number of CAN2 slave instance */
    CLEAR_BIT(can_ip->FMR, CAN_FMR_CAN2SB);
 8001d06:	697b      	ldr	r3, [r7, #20]
 8001d08:	f8d3 3200 	ldr.w	r3, [r3, #512]	; 0x200
 8001d0c:	f423 527c 	bic.w	r2, r3, #16128	; 0x3f00
 8001d10:	697b      	ldr	r3, [r7, #20]
 8001d12:	f8c3 2200 	str.w	r2, [r3, #512]	; 0x200
    SET_BIT(can_ip->FMR, sFilterConfig->SlaveStartFilterBank << CAN_FMR_CAN2SB_Pos);
 8001d16:	697b      	ldr	r3, [r7, #20]
 8001d18:	f8d3 2200 	ldr.w	r2, [r3, #512]	; 0x200
 8001d1c:	683b      	ldr	r3, [r7, #0]
 8001d1e:	6a5b      	ldr	r3, [r3, #36]	; 0x24
 8001d20:	021b      	lsls	r3, r3, #8
 8001d22:	431a      	orrs	r2, r3
 8001d24:	697b      	ldr	r3, [r7, #20]
 8001d26:	f8c3 2200 	str.w	r2, [r3, #512]	; 0x200

#endif
    /* Convert filter number into bit position */
    filternbrbitpos = (uint32_t)1 << (sFilterConfig->FilterBank & 0x1FU);
 8001d2a:	683b      	ldr	r3, [r7, #0]
 8001d2c:	695b      	ldr	r3, [r3, #20]
 8001d2e:	f003 031f 	and.w	r3, r3, #31
 8001d32:	2201      	movs	r2, #1
 8001d34:	fa02 f303 	lsl.w	r3, r2, r3
 8001d38:	60fb      	str	r3, [r7, #12]

    /* Filter Deactivation */
    CLEAR_BIT(can_ip->FA1R, filternbrbitpos);
 8001d3a:	697b      	ldr	r3, [r7, #20]
 8001d3c:	f8d3 221c 	ldr.w	r2, [r3, #540]	; 0x21c
 8001d40:	68fb      	ldr	r3, [r7, #12]
 8001d42:	43db      	mvns	r3, r3
 8001d44:	401a      	ands	r2, r3
 8001d46:	697b      	ldr	r3, [r7, #20]
 8001d48:	f8c3 221c 	str.w	r2, [r3, #540]	; 0x21c

    /* Filter Scale */
    if (sFilterConfig->FilterScale == CAN_FILTERSCALE_16BIT)
 8001d4c:	683b      	ldr	r3, [r7, #0]
 8001d4e:	69db      	ldr	r3, [r3, #28]
 8001d50:	2b00      	cmp	r3, #0
 8001d52:	d123      	bne.n	8001d9c <HAL_CAN_ConfigFilter+0xd0>
    {
      /* 16-bit scale for the filter */
      CLEAR_BIT(can_ip->FS1R, filternbrbitpos);
 8001d54:	697b      	ldr	r3, [r7, #20]
 8001d56:	f8d3 220c 	ldr.w	r2, [r3, #524]	; 0x20c
 8001d5a:	68fb      	ldr	r3, [r7, #12]
 8001d5c:	43db      	mvns	r3, r3
 8001d5e:	401a      	ands	r2, r3
 8001d60:	697b      	ldr	r3, [r7, #20]
 8001d62:	f8c3 220c 	str.w	r2, [r3, #524]	; 0x20c

      /* First 16-bit identifier and First 16-bit mask */
      /* Or First 16-bit identifier and Second 16-bit identifier */
      can_ip->sFilterRegister[sFilterConfig->FilterBank].FR1 =
        ((0x0000FFFFU & (uint32_t)sFilterConfig->FilterMaskIdLow) << 16U) |
 8001d66:	683b      	ldr	r3, [r7, #0]
 8001d68:	68db      	ldr	r3, [r3, #12]
 8001d6a:	0419      	lsls	r1, r3, #16
        (0x0000FFFFU & (uint32_t)sFilterConfig->FilterIdLow);
 8001d6c:	683b      	ldr	r3, [r7, #0]
 8001d6e:	685b      	ldr	r3, [r3, #4]
 8001d70:	b29b      	uxth	r3, r3
      can_ip->sFilterRegister[sFilterConfig->FilterBank].FR1 =
 8001d72:	683a      	ldr	r2, [r7, #0]
 8001d74:	6952      	ldr	r2, [r2, #20]
        ((0x0000FFFFU & (uint32_t)sFilterConfig->FilterMaskIdLow) << 16U) |
 8001d76:	4319      	orrs	r1, r3
      can_ip->sFilterRegister[sFilterConfig->FilterBank].FR1 =
 8001d78:	697b      	ldr	r3, [r7, #20]
 8001d7a:	3248      	adds	r2, #72	; 0x48
 8001d7c:	f843 1032 	str.w	r1, [r3, r2, lsl #3]

      /* Second 16-bit identifier and Second 16-bit mask */
      /* Or Third 16-bit identifier and Fourth 16-bit identifier */
      can_ip->sFilterRegister[sFilterConfig->FilterBank].FR2 =
        ((0x0000FFFFU & (uint32_t)sFilterConfig->FilterMaskIdHigh) << 16U) |
 8001d80:	683b      	ldr	r3, [r7, #0]
 8001d82:	689b      	ldr	r3, [r3, #8]
 8001d84:	0419      	lsls	r1, r3, #16
        (0x0000FFFFU & (uint32_t)sFilterConfig->FilterIdHigh);
 8001d86:	683b      	ldr	r3, [r7, #0]
 8001d88:	681b      	ldr	r3, [r3, #0]
 8001d8a:	b29a      	uxth	r2, r3
      can_ip->sFilterRegister[sFilterConfig->FilterBank].FR2 =
 8001d8c:	683b      	ldr	r3, [r7, #0]
 8001d8e:	695b      	ldr	r3, [r3, #20]
        ((0x0000FFFFU & (uint32_t)sFilterConfig->FilterMaskIdHigh) << 16U) |
 8001d90:	430a      	orrs	r2, r1
      can_ip->sFilterRegister[sFilterConfig->FilterBank].FR2 =
 8001d92:	6979      	ldr	r1, [r7, #20]
 8001d94:	3348      	adds	r3, #72	; 0x48
 8001d96:	00db      	lsls	r3, r3, #3
 8001d98:	440b      	add	r3, r1
 8001d9a:	605a      	str	r2, [r3, #4]
    }

    if (sFilterConfig->FilterScale == CAN_FILTERSCALE_32BIT)
 8001d9c:	683b      	ldr	r3, [r7, #0]
 8001d9e:	69db      	ldr	r3, [r3, #28]
 8001da0:	2b01      	cmp	r3, #1
 8001da2:	d122      	bne.n	8001dea <HAL_CAN_ConfigFilter+0x11e>
    {
      /* 32-bit scale for the filter */
      SET_BIT(can_ip->FS1R, filternbrbitpos);
 8001da4:	697b      	ldr	r3, [r7, #20]
 8001da6:	f8d3 220c 	ldr.w	r2, [r3, #524]	; 0x20c
 8001daa:	68fb      	ldr	r3, [r7, #12]
 8001dac:	431a      	orrs	r2, r3
 8001dae:	697b      	ldr	r3, [r7, #20]
 8001db0:	f8c3 220c 	str.w	r2, [r3, #524]	; 0x20c

      /* 32-bit identifier or First 32-bit identifier */
      can_ip->sFilterRegister[sFilterConfig->FilterBank].FR1 =
        ((0x0000FFFFU & (uint32_t)sFilterConfig->FilterIdHigh) << 16U) |
 8001db4:	683b      	ldr	r3, [r7, #0]
 8001db6:	681b      	ldr	r3, [r3, #0]
 8001db8:	0419      	lsls	r1, r3, #16
        (0x0000FFFFU & (uint32_t)sFilterConfig->FilterIdLow);
 8001dba:	683b      	ldr	r3, [r7, #0]
 8001dbc:	685b      	ldr	r3, [r3, #4]
 8001dbe:	b29b      	uxth	r3, r3
      can_ip->sFilterRegister[sFilterConfig->FilterBank].FR1 =
 8001dc0:	683a      	ldr	r2, [r7, #0]
 8001dc2:	6952      	ldr	r2, [r2, #20]
        ((0x0000FFFFU & (uint32_t)sFilterConfig->FilterIdHigh) << 16U) |
 8001dc4:	4319      	orrs	r1, r3
      can_ip->sFilterRegister[sFilterConfig->FilterBank].FR1 =
 8001dc6:	697b      	ldr	r3, [r7, #20]
 8001dc8:	3248      	adds	r2, #72	; 0x48
 8001dca:	f843 1032 	str.w	r1, [r3, r2, lsl #3]

      /* 32-bit mask or Second 32-bit identifier */
      can_ip->sFilterRegister[sFilterConfig->FilterBank].FR2 =
        ((0x0000FFFFU & (uint32_t)sFilterConfig->FilterMaskIdHigh) << 16U) |
 8001dce:	683b      	ldr	r3, [r7, #0]
 8001dd0:	689b      	ldr	r3, [r3, #8]
 8001dd2:	0419      	lsls	r1, r3, #16
        (0x0000FFFFU & (uint32_t)sFilterConfig->FilterMaskIdLow);
 8001dd4:	683b      	ldr	r3, [r7, #0]
 8001dd6:	68db      	ldr	r3, [r3, #12]
 8001dd8:	b29a      	uxth	r2, r3
      can_ip->sFilterRegister[sFilterConfig->FilterBank].FR2 =
 8001dda:	683b      	ldr	r3, [r7, #0]
 8001ddc:	695b      	ldr	r3, [r3, #20]
        ((0x0000FFFFU & (uint32_t)sFilterConfig->FilterMaskIdHigh) << 16U) |
 8001dde:	430a      	orrs	r2, r1
      can_ip->sFilterRegister[sFilterConfig->FilterBank].FR2 =
 8001de0:	6979      	ldr	r1, [r7, #20]
 8001de2:	3348      	adds	r3, #72	; 0x48
 8001de4:	00db      	lsls	r3, r3, #3
 8001de6:	440b      	add	r3, r1
 8001de8:	605a      	str	r2, [r3, #4]
    }

    /* Filter Mode */
    if (sFilterConfig->FilterMode == CAN_FILTERMODE_IDMASK)
 8001dea:	683b      	ldr	r3, [r7, #0]
 8001dec:	699b      	ldr	r3, [r3, #24]
 8001dee:	2b00      	cmp	r3, #0
 8001df0:	d109      	bne.n	8001e06 <HAL_CAN_ConfigFilter+0x13a>
    {
      /* Id/Mask mode for the filter*/
      CLEAR_BIT(can_ip->FM1R, filternbrbitpos);
 8001df2:	697b      	ldr	r3, [r7, #20]
 8001df4:	f8d3 2204 	ldr.w	r2, [r3, #516]	; 0x204
 8001df8:	68fb      	ldr	r3, [r7, #12]
 8001dfa:	43db      	mvns	r3, r3
 8001dfc:	401a      	ands	r2, r3
 8001dfe:	697b      	ldr	r3, [r7, #20]
 8001e00:	f8c3 2204 	str.w	r2, [r3, #516]	; 0x204
 8001e04:	e007      	b.n	8001e16 <HAL_CAN_ConfigFilter+0x14a>
    }
    else /* CAN_FilterInitStruct->CAN_FilterMode == CAN_FilterMode_IdList */
    {
      /* Identifier list mode for the filter*/
      SET_BIT(can_ip->FM1R, filternbrbitpos);
 8001e06:	697b      	ldr	r3, [r7, #20]
 8001e08:	f8d3 2204 	ldr.w	r2, [r3, #516]	; 0x204
 8001e0c:	68fb      	ldr	r3, [r7, #12]
 8001e0e:	431a      	orrs	r2, r3
 8001e10:	697b      	ldr	r3, [r7, #20]
 8001e12:	f8c3 2204 	str.w	r2, [r3, #516]	; 0x204
    }

    /* Filter FIFO assignment */
    if (sFilterConfig->FilterFIFOAssignment == CAN_FILTER_FIFO0)
 8001e16:	683b      	ldr	r3, [r7, #0]
 8001e18:	691b      	ldr	r3, [r3, #16]
 8001e1a:	2b00      	cmp	r3, #0
 8001e1c:	d109      	bne.n	8001e32 <HAL_CAN_ConfigFilter+0x166>
    {
      /* FIFO 0 assignation for the filter */
      CLEAR_BIT(can_ip->FFA1R, filternbrbitpos);
 8001e1e:	697b      	ldr	r3, [r7, #20]
 8001e20:	f8d3 2214 	ldr.w	r2, [r3, #532]	; 0x214
 8001e24:	68fb      	ldr	r3, [r7, #12]
 8001e26:	43db      	mvns	r3, r3
 8001e28:	401a      	ands	r2, r3
 8001e2a:	697b      	ldr	r3, [r7, #20]
 8001e2c:	f8c3 2214 	str.w	r2, [r3, #532]	; 0x214
 8001e30:	e007      	b.n	8001e42 <HAL_CAN_ConfigFilter+0x176>
    }
    else
    {
      /* FIFO 1 assignation for the filter */
      SET_BIT(can_ip->FFA1R, filternbrbitpos);
 8001e32:	697b      	ldr	r3, [r7, #20]
 8001e34:	f8d3 2214 	ldr.w	r2, [r3, #532]	; 0x214
 8001e38:	68fb      	ldr	r3, [r7, #12]
 8001e3a:	431a      	orrs	r2, r3
 8001e3c:	697b      	ldr	r3, [r7, #20]
 8001e3e:	f8c3 2214 	str.w	r2, [r3, #532]	; 0x214
    }

    /* Filter activation */
    if (sFilterConfig->FilterActivation == CAN_FILTER_ENABLE)
 8001e42:	683b      	ldr	r3, [r7, #0]
 8001e44:	6a1b      	ldr	r3, [r3, #32]
 8001e46:	2b01      	cmp	r3, #1
 8001e48:	d107      	bne.n	8001e5a <HAL_CAN_ConfigFilter+0x18e>
    {
      SET_BIT(can_ip->FA1R, filternbrbitpos);
 8001e4a:	697b      	ldr	r3, [r7, #20]
 8001e4c:	f8d3 221c 	ldr.w	r2, [r3, #540]	; 0x21c
 8001e50:	68fb      	ldr	r3, [r7, #12]
 8001e52:	431a      	orrs	r2, r3
 8001e54:	697b      	ldr	r3, [r7, #20]
 8001e56:	f8c3 221c 	str.w	r2, [r3, #540]	; 0x21c
    }

    /* Leave the initialisation mode for the filter */
    CLEAR_BIT(can_ip->FMR, CAN_FMR_FINIT);
 8001e5a:	697b      	ldr	r3, [r7, #20]
 8001e5c:	f8d3 3200 	ldr.w	r3, [r3, #512]	; 0x200
 8001e60:	f023 0201 	bic.w	r2, r3, #1
 8001e64:	697b      	ldr	r3, [r7, #20]
 8001e66:	f8c3 2200 	str.w	r2, [r3, #512]	; 0x200

    /* Return function status */
    return HAL_OK;
 8001e6a:	2300      	movs	r3, #0
 8001e6c:	e006      	b.n	8001e7c <HAL_CAN_ConfigFilter+0x1b0>
  }
  else
  {
    /* Update error code */
    hcan->ErrorCode |= HAL_CAN_ERROR_NOT_INITIALIZED;
 8001e6e:	687b      	ldr	r3, [r7, #4]
 8001e70:	6a5b      	ldr	r3, [r3, #36]	; 0x24
 8001e72:	f443 2280 	orr.w	r2, r3, #262144	; 0x40000
 8001e76:	687b      	ldr	r3, [r7, #4]
 8001e78:	625a      	str	r2, [r3, #36]	; 0x24

    return HAL_ERROR;
 8001e7a:	2301      	movs	r3, #1
  }
}
 8001e7c:	4618      	mov	r0, r3
 8001e7e:	371c      	adds	r7, #28
 8001e80:	46bd      	mov	sp, r7
 8001e82:	f85d 7b04 	ldr.w	r7, [sp], #4
 8001e86:	4770      	bx	lr
 8001e88:	40006400 	.word	0x40006400

08001e8c <HAL_CAN_Start>:
  * @param  hcan pointer to an CAN_HandleTypeDef structure that contains
  *         the configuration information for the specified CAN.
  * @retval HAL status
  */
HAL_StatusTypeDef HAL_CAN_Start(CAN_HandleTypeDef *hcan)
{
 8001e8c:	b580      	push	{r7, lr}
 8001e8e:	b084      	sub	sp, #16
 8001e90:	af00      	add	r7, sp, #0
 8001e92:	6078      	str	r0, [r7, #4]
  uint32_t tickstart;

  if (hcan->State == HAL_CAN_STATE_READY)
 8001e94:	687b      	ldr	r3, [r7, #4]
 8001e96:	f893 3020 	ldrb.w	r3, [r3, #32]
 8001e9a:	b2db      	uxtb	r3, r3
 8001e9c:	2b01      	cmp	r3, #1
 8001e9e:	d12e      	bne.n	8001efe <HAL_CAN_Start+0x72>
  {
    /* Change CAN peripheral state */
    hcan->State = HAL_CAN_STATE_LISTENING;
 8001ea0:	687b      	ldr	r3, [r7, #4]
 8001ea2:	2202      	movs	r2, #2
 8001ea4:	f883 2020 	strb.w	r2, [r3, #32]

    /* Request leave initialisation */
    CLEAR_BIT(hcan->Instance->MCR, CAN_MCR_INRQ);
 8001ea8:	687b      	ldr	r3, [r7, #4]
 8001eaa:	681b      	ldr	r3, [r3, #0]
 8001eac:	681a      	ldr	r2, [r3, #0]
 8001eae:	687b      	ldr	r3, [r7, #4]
 8001eb0:	681b      	ldr	r3, [r3, #0]
 8001eb2:	f022 0201 	bic.w	r2, r2, #1
 8001eb6:	601a      	str	r2, [r3, #0]

    /* Get tick */
    tickstart = HAL_GetTick();
 8001eb8:	f7ff fddc 	bl	8001a74 <HAL_GetTick>
 8001ebc:	60f8      	str	r0, [r7, #12]

    /* Wait the acknowledge */
    while ((hcan->Instance->MSR & CAN_MSR_INAK) != 0U)
 8001ebe:	e012      	b.n	8001ee6 <HAL_CAN_Start+0x5a>
    {
      /* Check for the Timeout */
      if ((HAL_GetTick() - tickstart) > CAN_TIMEOUT_VALUE)
 8001ec0:	f7ff fdd8 	bl	8001a74 <HAL_GetTick>
 8001ec4:	4602      	mov	r2, r0
 8001ec6:	68fb      	ldr	r3, [r7, #12]
 8001ec8:	1ad3      	subs	r3, r2, r3
 8001eca:	2b0a      	cmp	r3, #10
 8001ecc:	d90b      	bls.n	8001ee6 <HAL_CAN_Start+0x5a>
      {
        /* Update error code */
        hcan->ErrorCode |= HAL_CAN_ERROR_TIMEOUT;
 8001ece:	687b      	ldr	r3, [r7, #4]
 8001ed0:	6a5b      	ldr	r3, [r3, #36]	; 0x24
 8001ed2:	f443 3200 	orr.w	r2, r3, #131072	; 0x20000
 8001ed6:	687b      	ldr	r3, [r7, #4]
 8001ed8:	625a      	str	r2, [r3, #36]	; 0x24

        /* Change CAN state */
        hcan->State = HAL_CAN_STATE_ERROR;
 8001eda:	687b      	ldr	r3, [r7, #4]
 8001edc:	2205      	movs	r2, #5
 8001ede:	f883 2020 	strb.w	r2, [r3, #32]

        return HAL_ERROR;
 8001ee2:	2301      	movs	r3, #1
 8001ee4:	e012      	b.n	8001f0c <HAL_CAN_Start+0x80>
    while ((hcan->Instance->MSR & CAN_MSR_INAK) != 0U)
 8001ee6:	687b      	ldr	r3, [r7, #4]
 8001ee8:	681b      	ldr	r3, [r3, #0]
 8001eea:	685b      	ldr	r3, [r3, #4]
 8001eec:	f003 0301 	and.w	r3, r3, #1
 8001ef0:	2b00      	cmp	r3, #0
 8001ef2:	d1e5      	bne.n	8001ec0 <HAL_CAN_Start+0x34>
      }
    }

    /* Reset the CAN ErrorCode */
    hcan->ErrorCode = HAL_CAN_ERROR_NONE;
 8001ef4:	687b      	ldr	r3, [r7, #4]
 8001ef6:	2200      	movs	r2, #0
 8001ef8:	625a      	str	r2, [r3, #36]	; 0x24

    /* Return function status */
    return HAL_OK;
 8001efa:	2300      	movs	r3, #0
 8001efc:	e006      	b.n	8001f0c <HAL_CAN_Start+0x80>
  }
  else
  {
    /* Update error code */
    hcan->ErrorCode |= HAL_CAN_ERROR_NOT_READY;
 8001efe:	687b      	ldr	r3, [r7, #4]
 8001f00:	6a5b      	ldr	r3, [r3, #36]	; 0x24
 8001f02:	f443 2200 	orr.w	r2, r3, #524288	; 0x80000
 8001f06:	687b      	ldr	r3, [r7, #4]
 8001f08:	625a      	str	r2, [r3, #36]	; 0x24

    return HAL_ERROR;
 8001f0a:	2301      	movs	r3, #1
  }
}
 8001f0c:	4618      	mov	r0, r3
 8001f0e:	3710      	adds	r7, #16
 8001f10:	46bd      	mov	sp, r7
 8001f12:	bd80      	pop	{r7, pc}

08001f14 <HAL_CAN_AddTxMessage>:
  *         the TxMailbox used to store the Tx message.
  *         This parameter can be a value of @arg CAN_Tx_Mailboxes.
  * @retval HAL status
  */
HAL_StatusTypeDef HAL_CAN_AddTxMessage(CAN_HandleTypeDef *hcan, CAN_TxHeaderTypeDef *pHeader, uint8_t aData[], uint32_t *pTxMailbox)
{
 8001f14:	b480      	push	{r7}
 8001f16:	b089      	sub	sp, #36	; 0x24
 8001f18:	af00      	add	r7, sp, #0
 8001f1a:	60f8      	str	r0, [r7, #12]
 8001f1c:	60b9      	str	r1, [r7, #8]
 8001f1e:	607a      	str	r2, [r7, #4]
 8001f20:	603b      	str	r3, [r7, #0]
  uint32_t transmitmailbox;
  HAL_CAN_StateTypeDef state = hcan->State;
 8001f22:	68fb      	ldr	r3, [r7, #12]
 8001f24:	f893 3020 	ldrb.w	r3, [r3, #32]
 8001f28:	77fb      	strb	r3, [r7, #31]
  uint32_t tsr = READ_REG(hcan->Instance->TSR);
 8001f2a:	68fb      	ldr	r3, [r7, #12]
 8001f2c:	681b      	ldr	r3, [r3, #0]
 8001f2e:	689b      	ldr	r3, [r3, #8]
 8001f30:	61bb      	str	r3, [r7, #24]
  {
    assert_param(IS_CAN_EXTID(pHeader->ExtId));
  }
  assert_param(IS_FUNCTIONAL_STATE(pHeader->TransmitGlobalTime));

  if ((state == HAL_CAN_STATE_READY) ||
 8001f32:	7ffb      	ldrb	r3, [r7, #31]
 8001f34:	2b01      	cmp	r3, #1
 8001f36:	d003      	beq.n	8001f40 <HAL_CAN_AddTxMessage+0x2c>
 8001f38:	7ffb      	ldrb	r3, [r7, #31]
 8001f3a:	2b02      	cmp	r3, #2
 8001f3c:	f040 80b8 	bne.w	80020b0 <HAL_CAN_AddTxMessage+0x19c>
      (state == HAL_CAN_STATE_LISTENING))
  {
    /* Check that all the Tx mailboxes are not full */
    if (((tsr & CAN_TSR_TME0) != 0U) ||
 8001f40:	69bb      	ldr	r3, [r7, #24]
 8001f42:	f003 6380 	and.w	r3, r3, #67108864	; 0x4000000
 8001f46:	2b00      	cmp	r3, #0
 8001f48:	d10a      	bne.n	8001f60 <HAL_CAN_AddTxMessage+0x4c>
        ((tsr & CAN_TSR_TME1) != 0U) ||
 8001f4a:	69bb      	ldr	r3, [r7, #24]
 8001f4c:	f003 6300 	and.w	r3, r3, #134217728	; 0x8000000
    if (((tsr & CAN_TSR_TME0) != 0U) ||
 8001f50:	2b00      	cmp	r3, #0
 8001f52:	d105      	bne.n	8001f60 <HAL_CAN_AddTxMessage+0x4c>
        ((tsr & CAN_TSR_TME2) != 0U))
 8001f54:	69bb      	ldr	r3, [r7, #24]
 8001f56:	f003 5380 	and.w	r3, r3, #268435456	; 0x10000000
        ((tsr & CAN_TSR_TME1) != 0U) ||
 8001f5a:	2b00      	cmp	r3, #0
 8001f5c:	f000 80a0 	beq.w	80020a0 <HAL_CAN_AddTxMessage+0x18c>
    {
      /* Select an empty transmit mailbox */
      transmitmailbox = (tsr & CAN_TSR_CODE) >> CAN_TSR_CODE_Pos;
 8001f60:	69bb      	ldr	r3, [r7, #24]
 8001f62:	0e1b      	lsrs	r3, r3, #24
 8001f64:	f003 0303 	and.w	r3, r3, #3
 8001f68:	617b      	str	r3, [r7, #20]

      /* Check transmit mailbox value */
      if (transmitmailbox > 2U)
 8001f6a:	697b      	ldr	r3, [r7, #20]
 8001f6c:	2b02      	cmp	r3, #2
 8001f6e:	d907      	bls.n	8001f80 <HAL_CAN_AddTxMessage+0x6c>
      {
        /* Update error code */
        hcan->ErrorCode |= HAL_CAN_ERROR_INTERNAL;
 8001f70:	68fb      	ldr	r3, [r7, #12]
 8001f72:	6a5b      	ldr	r3, [r3, #36]	; 0x24
 8001f74:	f443 0200 	orr.w	r2, r3, #8388608	; 0x800000
 8001f78:	68fb      	ldr	r3, [r7, #12]
 8001f7a:	625a      	str	r2, [r3, #36]	; 0x24

        return HAL_ERROR;
 8001f7c:	2301      	movs	r3, #1
 8001f7e:	e09e      	b.n	80020be <HAL_CAN_AddTxMessage+0x1aa>
      }

      /* Store the Tx mailbox */
      *pTxMailbox = (uint32_t)1 << transmitmailbox;
 8001f80:	2201      	movs	r2, #1
 8001f82:	697b      	ldr	r3, [r7, #20]
 8001f84:	409a      	lsls	r2, r3
 8001f86:	683b      	ldr	r3, [r7, #0]
 8001f88:	601a      	str	r2, [r3, #0]

      /* Set up the Id */
      if (pHeader->IDE == CAN_ID_STD)
 8001f8a:	68bb      	ldr	r3, [r7, #8]
 8001f8c:	689b      	ldr	r3, [r3, #8]
 8001f8e:	2b00      	cmp	r3, #0
 8001f90:	d10d      	bne.n	8001fae <HAL_CAN_AddTxMessage+0x9a>
      {
        hcan->Instance->sTxMailBox[transmitmailbox].TIR = ((pHeader->StdId << CAN_TI0R_STID_Pos) |
 8001f92:	68bb      	ldr	r3, [r7, #8]
 8001f94:	681b      	ldr	r3, [r3, #0]
 8001f96:	055a      	lsls	r2, r3, #21
                                                           pHeader->RTR);
 8001f98:	68bb      	ldr	r3, [r7, #8]
 8001f9a:	68db      	ldr	r3, [r3, #12]
        hcan->Instance->sTxMailBox[transmitmailbox].TIR = ((pHeader->StdId << CAN_TI0R_STID_Pos) |
 8001f9c:	68f9      	ldr	r1, [r7, #12]
 8001f9e:	6809      	ldr	r1, [r1, #0]
 8001fa0:	431a      	orrs	r2, r3
 8001fa2:	697b      	ldr	r3, [r7, #20]
 8001fa4:	3318      	adds	r3, #24
 8001fa6:	011b      	lsls	r3, r3, #4
 8001fa8:	440b      	add	r3, r1
 8001faa:	601a      	str	r2, [r3, #0]
 8001fac:	e00f      	b.n	8001fce <HAL_CAN_AddTxMessage+0xba>
      }
      else
      {
        hcan->Instance->sTxMailBox[transmitmailbox].TIR = ((pHeader->ExtId << CAN_TI0R_EXID_Pos) |
 8001fae:	68bb      	ldr	r3, [r7, #8]
 8001fb0:	685b      	ldr	r3, [r3, #4]
 8001fb2:	00da      	lsls	r2, r3, #3
                                                           pHeader->IDE |
 8001fb4:	68bb      	ldr	r3, [r7, #8]
 8001fb6:	689b      	ldr	r3, [r3, #8]
        hcan->Instance->sTxMailBox[transmitmailbox].TIR = ((pHeader->ExtId << CAN_TI0R_EXID_Pos) |
 8001fb8:	431a      	orrs	r2, r3
                                                           pHeader->RTR);
 8001fba:	68bb      	ldr	r3, [r7, #8]
 8001fbc:	68db      	ldr	r3, [r3, #12]
        hcan->Instance->sTxMailBox[transmitmailbox].TIR = ((pHeader->ExtId << CAN_TI0R_EXID_Pos) |
 8001fbe:	68f9      	ldr	r1, [r7, #12]
 8001fc0:	6809      	ldr	r1, [r1, #0]
                                                           pHeader->IDE |
 8001fc2:	431a      	orrs	r2, r3
        hcan->Instance->sTxMailBox[transmitmailbox].TIR = ((pHeader->ExtId << CAN_TI0R_EXID_Pos) |
 8001fc4:	697b      	ldr	r3, [r7, #20]
 8001fc6:	3318      	adds	r3, #24
 8001fc8:	011b      	lsls	r3, r3, #4
 8001fca:	440b      	add	r3, r1
 8001fcc:	601a      	str	r2, [r3, #0]
      }

      /* Set up the DLC */
      hcan->Instance->sTxMailBox[transmitmailbox].TDTR = (pHeader->DLC);
 8001fce:	68fb      	ldr	r3, [r7, #12]
 8001fd0:	6819      	ldr	r1, [r3, #0]
 8001fd2:	68bb      	ldr	r3, [r7, #8]
 8001fd4:	691a      	ldr	r2, [r3, #16]
 8001fd6:	697b      	ldr	r3, [r7, #20]
 8001fd8:	3318      	adds	r3, #24
 8001fda:	011b      	lsls	r3, r3, #4
 8001fdc:	440b      	add	r3, r1
 8001fde:	3304      	adds	r3, #4
 8001fe0:	601a      	str	r2, [r3, #0]

      /* Set up the Transmit Global Time mode */
      if (pHeader->TransmitGlobalTime == ENABLE)
 8001fe2:	68bb      	ldr	r3, [r7, #8]
 8001fe4:	7d1b      	ldrb	r3, [r3, #20]
 8001fe6:	2b01      	cmp	r3, #1
 8001fe8:	d111      	bne.n	800200e <HAL_CAN_AddTxMessage+0xfa>
      {
        SET_BIT(hcan->Instance->sTxMailBox[transmitmailbox].TDTR, CAN_TDT0R_TGT);
 8001fea:	68fb      	ldr	r3, [r7, #12]
 8001fec:	681a      	ldr	r2, [r3, #0]
 8001fee:	697b      	ldr	r3, [r7, #20]
 8001ff0:	3318      	adds	r3, #24
 8001ff2:	011b      	lsls	r3, r3, #4
 8001ff4:	4413      	add	r3, r2
 8001ff6:	3304      	adds	r3, #4
 8001ff8:	681b      	ldr	r3, [r3, #0]
 8001ffa:	68fa      	ldr	r2, [r7, #12]
 8001ffc:	6811      	ldr	r1, [r2, #0]
 8001ffe:	f443 7280 	orr.w	r2, r3, #256	; 0x100
 8002002:	697b      	ldr	r3, [r7, #20]
 8002004:	3318      	adds	r3, #24
 8002006:	011b      	lsls	r3, r3, #4
 8002008:	440b      	add	r3, r1
 800200a:	3304      	adds	r3, #4
 800200c:	601a      	str	r2, [r3, #0]
      }

      /* Set up the data field */
      WRITE_REG(hcan->Instance->sTxMailBox[transmitmailbox].TDHR,
 800200e:	687b      	ldr	r3, [r7, #4]
 8002010:	3307      	adds	r3, #7
 8002012:	781b      	ldrb	r3, [r3, #0]
 8002014:	061a      	lsls	r2, r3, #24
 8002016:	687b      	ldr	r3, [r7, #4]
 8002018:	3306      	adds	r3, #6
 800201a:	781b      	ldrb	r3, [r3, #0]
 800201c:	041b      	lsls	r3, r3, #16
 800201e:	431a      	orrs	r2, r3
 8002020:	687b      	ldr	r3, [r7, #4]
 8002022:	3305      	adds	r3, #5
 8002024:	781b      	ldrb	r3, [r3, #0]
 8002026:	021b      	lsls	r3, r3, #8
 8002028:	4313      	orrs	r3, r2
 800202a:	687a      	ldr	r2, [r7, #4]
 800202c:	3204      	adds	r2, #4
 800202e:	7812      	ldrb	r2, [r2, #0]
 8002030:	4610      	mov	r0, r2
 8002032:	68fa      	ldr	r2, [r7, #12]
 8002034:	6811      	ldr	r1, [r2, #0]
 8002036:	ea43 0200 	orr.w	r2, r3, r0
 800203a:	697b      	ldr	r3, [r7, #20]
 800203c:	011b      	lsls	r3, r3, #4
 800203e:	440b      	add	r3, r1
 8002040:	f503 73c6 	add.w	r3, r3, #396	; 0x18c
 8002044:	601a      	str	r2, [r3, #0]
                ((uint32_t)aData[7] << CAN_TDH0R_DATA7_Pos) |
                ((uint32_t)aData[6] << CAN_TDH0R_DATA6_Pos) |
                ((uint32_t)aData[5] << CAN_TDH0R_DATA5_Pos) |
                ((uint32_t)aData[4] << CAN_TDH0R_DATA4_Pos));
      WRITE_REG(hcan->Instance->sTxMailBox[transmitmailbox].TDLR,
 8002046:	687b      	ldr	r3, [r7, #4]
 8002048:	3303      	adds	r3, #3
 800204a:	781b      	ldrb	r3, [r3, #0]
 800204c:	061a      	lsls	r2, r3, #24
 800204e:	687b      	ldr	r3, [r7, #4]
 8002050:	3302      	adds	r3, #2
 8002052:	781b      	ldrb	r3, [r3, #0]
 8002054:	041b      	lsls	r3, r3, #16
 8002056:	431a      	orrs	r2, r3
 8002058:	687b      	ldr	r3, [r7, #4]
 800205a:	3301      	adds	r3, #1
 800205c:	781b      	ldrb	r3, [r3, #0]
 800205e:	021b      	lsls	r3, r3, #8
 8002060:	4313      	orrs	r3, r2
 8002062:	687a      	ldr	r2, [r7, #4]
 8002064:	7812      	ldrb	r2, [r2, #0]
 8002066:	4610      	mov	r0, r2
 8002068:	68fa      	ldr	r2, [r7, #12]
 800206a:	6811      	ldr	r1, [r2, #0]
 800206c:	ea43 0200 	orr.w	r2, r3, r0
 8002070:	697b      	ldr	r3, [r7, #20]
 8002072:	011b      	lsls	r3, r3, #4
 8002074:	440b      	add	r3, r1
 8002076:	f503 73c4 	add.w	r3, r3, #392	; 0x188
 800207a:	601a      	str	r2, [r3, #0]
                ((uint32_t)aData[2] << CAN_TDL0R_DATA2_Pos) |
                ((uint32_t)aData[1] << CAN_TDL0R_DATA1_Pos) |
                ((uint32_t)aData[0] << CAN_TDL0R_DATA0_Pos));

      /* Request transmission */
      SET_BIT(hcan->Instance->sTxMailBox[transmitmailbox].TIR, CAN_TI0R_TXRQ);
 800207c:	68fb      	ldr	r3, [r7, #12]
 800207e:	681a      	ldr	r2, [r3, #0]
 8002080:	697b      	ldr	r3, [r7, #20]
 8002082:	3318      	adds	r3, #24
 8002084:	011b      	lsls	r3, r3, #4
 8002086:	4413      	add	r3, r2
 8002088:	681b      	ldr	r3, [r3, #0]
 800208a:	68fa      	ldr	r2, [r7, #12]
 800208c:	6811      	ldr	r1, [r2, #0]
 800208e:	f043 0201 	orr.w	r2, r3, #1
 8002092:	697b      	ldr	r3, [r7, #20]
 8002094:	3318      	adds	r3, #24
 8002096:	011b      	lsls	r3, r3, #4
 8002098:	440b      	add	r3, r1
 800209a:	601a      	str	r2, [r3, #0]

      /* Return function status */
      return HAL_OK;
 800209c:	2300      	movs	r3, #0
 800209e:	e00e      	b.n	80020be <HAL_CAN_AddTxMessage+0x1aa>
    }
    else
    {
      /* Update error code */
      hcan->ErrorCode |= HAL_CAN_ERROR_PARAM;
 80020a0:	68fb      	ldr	r3, [r7, #12]
 80020a2:	6a5b      	ldr	r3, [r3, #36]	; 0x24
 80020a4:	f443 1200 	orr.w	r2, r3, #2097152	; 0x200000
 80020a8:	68fb      	ldr	r3, [r7, #12]
 80020aa:	625a      	str	r2, [r3, #36]	; 0x24

      return HAL_ERROR;
 80020ac:	2301      	movs	r3, #1
 80020ae:	e006      	b.n	80020be <HAL_CAN_AddTxMessage+0x1aa>
    }
  }
  else
  {
    /* Update error code */
    hcan->ErrorCode |= HAL_CAN_ERROR_NOT_INITIALIZED;
 80020b0:	68fb      	ldr	r3, [r7, #12]
 80020b2:	6a5b      	ldr	r3, [r3, #36]	; 0x24
 80020b4:	f443 2280 	orr.w	r2, r3, #262144	; 0x40000
 80020b8:	68fb      	ldr	r3, [r7, #12]
 80020ba:	625a      	str	r2, [r3, #36]	; 0x24

    return HAL_ERROR;
 80020bc:	2301      	movs	r3, #1
  }
}
 80020be:	4618      	mov	r0, r3
 80020c0:	3724      	adds	r7, #36	; 0x24
 80020c2:	46bd      	mov	sp, r7
 80020c4:	f85d 7b04 	ldr.w	r7, [sp], #4
 80020c8:	4770      	bx	lr

080020ca <HAL_CAN_ActivateNotification>:
  * @param  ActiveITs indicates which interrupts will be enabled.
  *         This parameter can be any combination of @arg CAN_Interrupts.
  * @retval HAL status
  */
HAL_StatusTypeDef HAL_CAN_ActivateNotification(CAN_HandleTypeDef *hcan, uint32_t ActiveITs)
{
 80020ca:	b480      	push	{r7}
 80020cc:	b085      	sub	sp, #20
 80020ce:	af00      	add	r7, sp, #0
 80020d0:	6078      	str	r0, [r7, #4]
 80020d2:	6039      	str	r1, [r7, #0]
  HAL_CAN_StateTypeDef state = hcan->State;
 80020d4:	687b      	ldr	r3, [r7, #4]
 80020d6:	f893 3020 	ldrb.w	r3, [r3, #32]
 80020da:	73fb      	strb	r3, [r7, #15]

  /* Check function parameters */
  assert_param(IS_CAN_IT(ActiveITs));

  if ((state == HAL_CAN_STATE_READY) ||
 80020dc:	7bfb      	ldrb	r3, [r7, #15]
 80020de:	2b01      	cmp	r3, #1
 80020e0:	d002      	beq.n	80020e8 <HAL_CAN_ActivateNotification+0x1e>
 80020e2:	7bfb      	ldrb	r3, [r7, #15]
 80020e4:	2b02      	cmp	r3, #2
 80020e6:	d109      	bne.n	80020fc <HAL_CAN_ActivateNotification+0x32>
      (state == HAL_CAN_STATE_LISTENING))
  {
    /* Enable the selected interrupts */
    __HAL_CAN_ENABLE_IT(hcan, ActiveITs);
 80020e8:	687b      	ldr	r3, [r7, #4]
 80020ea:	681b      	ldr	r3, [r3, #0]
 80020ec:	6959      	ldr	r1, [r3, #20]
 80020ee:	687b      	ldr	r3, [r7, #4]
 80020f0:	681b      	ldr	r3, [r3, #0]
 80020f2:	683a      	ldr	r2, [r7, #0]
 80020f4:	430a      	orrs	r2, r1
 80020f6:	615a      	str	r2, [r3, #20]

    /* Return function status */
    return HAL_OK;
 80020f8:	2300      	movs	r3, #0
 80020fa:	e006      	b.n	800210a <HAL_CAN_ActivateNotification+0x40>
  }
  else
  {
    /* Update error code */
    hcan->ErrorCode |= HAL_CAN_ERROR_NOT_INITIALIZED;
 80020fc:	687b      	ldr	r3, [r7, #4]
 80020fe:	6a5b      	ldr	r3, [r3, #36]	; 0x24
 8002100:	f443 2280 	orr.w	r2, r3, #262144	; 0x40000
 8002104:	687b      	ldr	r3, [r7, #4]
 8002106:	625a      	str	r2, [r3, #36]	; 0x24

    return HAL_ERROR;
 8002108:	2301      	movs	r3, #1
  }
}
 800210a:	4618      	mov	r0, r3
 800210c:	3714      	adds	r7, #20
 800210e:	46bd      	mov	sp, r7
 8002110:	f85d 7b04 	ldr.w	r7, [sp], #4
 8002114:	4770      	bx	lr

08002116 <HAL_CAN_IRQHandler>:
  * @param  hcan pointer to a CAN_HandleTypeDef structure that contains
  *         the configuration information for the specified CAN.
  * @retval None
  */
void HAL_CAN_IRQHandler(CAN_HandleTypeDef *hcan)
{
 8002116:	b580      	push	{r7, lr}
 8002118:	b08a      	sub	sp, #40	; 0x28
 800211a:	af00      	add	r7, sp, #0
 800211c:	6078      	str	r0, [r7, #4]
  uint32_t errorcode = HAL_CAN_ERROR_NONE;
 800211e:	2300      	movs	r3, #0
 8002120:	627b      	str	r3, [r7, #36]	; 0x24
  uint32_t interrupts = READ_REG(hcan->Instance->IER);
 8002122:	687b      	ldr	r3, [r7, #4]
 8002124:	681b      	ldr	r3, [r3, #0]
 8002126:	695b      	ldr	r3, [r3, #20]
 8002128:	623b      	str	r3, [r7, #32]
  uint32_t msrflags = READ_REG(hcan->Instance->MSR);
 800212a:	687b      	ldr	r3, [r7, #4]
 800212c:	681b      	ldr	r3, [r3, #0]
 800212e:	685b      	ldr	r3, [r3, #4]
 8002130:	61fb      	str	r3, [r7, #28]
  uint32_t tsrflags = READ_REG(hcan->Instance->TSR);
 8002132:	687b      	ldr	r3, [r7, #4]
 8002134:	681b      	ldr	r3, [r3, #0]
 8002136:	689b      	ldr	r3, [r3, #8]
 8002138:	61bb      	str	r3, [r7, #24]
  uint32_t rf0rflags = READ_REG(hcan->Instance->RF0R);
 800213a:	687b      	ldr	r3, [r7, #4]
 800213c:	681b      	ldr	r3, [r3, #0]
 800213e:	68db      	ldr	r3, [r3, #12]
 8002140:	617b      	str	r3, [r7, #20]
  uint32_t rf1rflags = READ_REG(hcan->Instance->RF1R);
 8002142:	687b      	ldr	r3, [r7, #4]
 8002144:	681b      	ldr	r3, [r3, #0]
 8002146:	691b      	ldr	r3, [r3, #16]
 8002148:	613b      	str	r3, [r7, #16]
  uint32_t esrflags = READ_REG(hcan->Instance->ESR);
 800214a:	687b      	ldr	r3, [r7, #4]
 800214c:	681b      	ldr	r3, [r3, #0]
 800214e:	699b      	ldr	r3, [r3, #24]
 8002150:	60fb      	str	r3, [r7, #12]

  /* Transmit Mailbox empty interrupt management *****************************/
  if ((interrupts & CAN_IT_TX_MAILBOX_EMPTY) != 0U)
 8002152:	6a3b      	ldr	r3, [r7, #32]
 8002154:	f003 0301 	and.w	r3, r3, #1
 8002158:	2b00      	cmp	r3, #0
 800215a:	d07c      	beq.n	8002256 <HAL_CAN_IRQHandler+0x140>
  {
    /* Transmit Mailbox 0 management *****************************************/
    if ((tsrflags & CAN_TSR_RQCP0) != 0U)
 800215c:	69bb      	ldr	r3, [r7, #24]
 800215e:	f003 0301 	and.w	r3, r3, #1
 8002162:	2b00      	cmp	r3, #0
 8002164:	d023      	beq.n	80021ae <HAL_CAN_IRQHandler+0x98>
    {
      /* Clear the Transmission Complete flag (and TXOK0,ALST0,TERR0 bits) */
      __HAL_CAN_CLEAR_FLAG(hcan, CAN_FLAG_RQCP0);
 8002166:	687b      	ldr	r3, [r7, #4]
 8002168:	681b      	ldr	r3, [r3, #0]
 800216a:	2201      	movs	r2, #1
 800216c:	609a      	str	r2, [r3, #8]

      if ((tsrflags & CAN_TSR_TXOK0) != 0U)
 800216e:	69bb      	ldr	r3, [r7, #24]
 8002170:	f003 0302 	and.w	r3, r3, #2
 8002174:	2b00      	cmp	r3, #0
 8002176:	d003      	beq.n	8002180 <HAL_CAN_IRQHandler+0x6a>
#if USE_HAL_CAN_REGISTER_CALLBACKS == 1
        /* Call registered callback*/
        hcan->TxMailbox0CompleteCallback(hcan);
#else
        /* Call weak (surcharged) callback */
        HAL_CAN_TxMailbox0CompleteCallback(hcan);
 8002178:	6878      	ldr	r0, [r7, #4]
 800217a:	f000 f983 	bl	8002484 <HAL_CAN_TxMailbox0CompleteCallback>
 800217e:	e016      	b.n	80021ae <HAL_CAN_IRQHandler+0x98>
#endif /* USE_HAL_CAN_REGISTER_CALLBACKS */
      }
      else
      {
        if ((tsrflags & CAN_TSR_ALST0) != 0U)
 8002180:	69bb      	ldr	r3, [r7, #24]
 8002182:	f003 0304 	and.w	r3, r3, #4
 8002186:	2b00      	cmp	r3, #0
 8002188:	d004      	beq.n	8002194 <HAL_CAN_IRQHandler+0x7e>
        {
          /* Update error code */
          errorcode |= HAL_CAN_ERROR_TX_ALST0;
 800218a:	6a7b      	ldr	r3, [r7, #36]	; 0x24
 800218c:	f443 6300 	orr.w	r3, r3, #2048	; 0x800
 8002190:	627b      	str	r3, [r7, #36]	; 0x24
 8002192:	e00c      	b.n	80021ae <HAL_CAN_IRQHandler+0x98>
        }
        else if ((tsrflags & CAN_TSR_TERR0) != 0U)
 8002194:	69bb      	ldr	r3, [r7, #24]
 8002196:	f003 0308 	and.w	r3, r3, #8
 800219a:	2b00      	cmp	r3, #0
 800219c:	d004      	beq.n	80021a8 <HAL_CAN_IRQHandler+0x92>
        {
          /* Update error code */
          errorcode |= HAL_CAN_ERROR_TX_TERR0;
 800219e:	6a7b      	ldr	r3, [r7, #36]	; 0x24
 80021a0:	f443 5380 	orr.w	r3, r3, #4096	; 0x1000
 80021a4:	627b      	str	r3, [r7, #36]	; 0x24
 80021a6:	e002      	b.n	80021ae <HAL_CAN_IRQHandler+0x98>
#if USE_HAL_CAN_REGISTER_CALLBACKS == 1
          /* Call registered callback*/
          hcan->TxMailbox0AbortCallback(hcan);
#else
          /* Call weak (surcharged) callback */
          HAL_CAN_TxMailbox0AbortCallback(hcan);
 80021a8:	6878      	ldr	r0, [r7, #4]
 80021aa:	f000 f989 	bl	80024c0 <HAL_CAN_TxMailbox0AbortCallback>
        }
      }
    }

    /* Transmit Mailbox 1 management *****************************************/
    if ((tsrflags & CAN_TSR_RQCP1) != 0U)
 80021ae:	69bb      	ldr	r3, [r7, #24]
 80021b0:	f403 7380 	and.w	r3, r3, #256	; 0x100
 80021b4:	2b00      	cmp	r3, #0
 80021b6:	d024      	beq.n	8002202 <HAL_CAN_IRQHandler+0xec>
    {
      /* Clear the Transmission Complete flag (and TXOK1,ALST1,TERR1 bits) */
      __HAL_CAN_CLEAR_FLAG(hcan, CAN_FLAG_RQCP1);
 80021b8:	687b      	ldr	r3, [r7, #4]
 80021ba:	681b      	ldr	r3, [r3, #0]
 80021bc:	f44f 7280 	mov.w	r2, #256	; 0x100
 80021c0:	609a      	str	r2, [r3, #8]

      if ((tsrflags & CAN_TSR_TXOK1) != 0U)
 80021c2:	69bb      	ldr	r3, [r7, #24]
 80021c4:	f403 7300 	and.w	r3, r3, #512	; 0x200
 80021c8:	2b00      	cmp	r3, #0
 80021ca:	d003      	beq.n	80021d4 <HAL_CAN_IRQHandler+0xbe>
#if USE_HAL_CAN_REGISTER_CALLBACKS == 1
        /* Call registered callback*/
        hcan->TxMailbox1CompleteCallback(hcan);
#else
        /* Call weak (surcharged) callback */
        HAL_CAN_TxMailbox1CompleteCallback(hcan);
 80021cc:	6878      	ldr	r0, [r7, #4]
 80021ce:	f000 f963 	bl	8002498 <HAL_CAN_TxMailbox1CompleteCallback>
 80021d2:	e016      	b.n	8002202 <HAL_CAN_IRQHandler+0xec>
#endif /* USE_HAL_CAN_REGISTER_CALLBACKS */
      }
      else
      {
        if ((tsrflags & CAN_TSR_ALST1) != 0U)
 80021d4:	69bb      	ldr	r3, [r7, #24]
 80021d6:	f403 6380 	and.w	r3, r3, #1024	; 0x400
 80021da:	2b00      	cmp	r3, #0
 80021dc:	d004      	beq.n	80021e8 <HAL_CAN_IRQHandler+0xd2>
        {
          /* Update error code */
          errorcode |= HAL_CAN_ERROR_TX_ALST1;
 80021de:	6a7b      	ldr	r3, [r7, #36]	; 0x24
 80021e0:	f443 5300 	orr.w	r3, r3, #8192	; 0x2000
 80021e4:	627b      	str	r3, [r7, #36]	; 0x24
 80021e6:	e00c      	b.n	8002202 <HAL_CAN_IRQHandler+0xec>
        }
        else if ((tsrflags & CAN_TSR_TERR1) != 0U)
 80021e8:	69bb      	ldr	r3, [r7, #24]
 80021ea:	f403 6300 	and.w	r3, r3, #2048	; 0x800
 80021ee:	2b00      	cmp	r3, #0
 80021f0:	d004      	beq.n	80021fc <HAL_CAN_IRQHandler+0xe6>
        {
          /* Update error code */
          errorcode |= HAL_CAN_ERROR_TX_TERR1;
 80021f2:	6a7b      	ldr	r3, [r7, #36]	; 0x24
 80021f4:	f443 4380 	orr.w	r3, r3, #16384	; 0x4000
 80021f8:	627b      	str	r3, [r7, #36]	; 0x24
 80021fa:	e002      	b.n	8002202 <HAL_CAN_IRQHandler+0xec>
#if USE_HAL_CAN_REGISTER_CALLBACKS == 1
          /* Call registered callback*/
          hcan->TxMailbox1AbortCallback(hcan);
#else
          /* Call weak (surcharged) callback */
          HAL_CAN_TxMailbox1AbortCallback(hcan);
 80021fc:	6878      	ldr	r0, [r7, #4]
 80021fe:	f000 f969 	bl	80024d4 <HAL_CAN_TxMailbox1AbortCallback>
        }
      }
    }

    /* Transmit Mailbox 2 management *****************************************/
    if ((tsrflags & CAN_TSR_RQCP2) != 0U)
 8002202:	69bb      	ldr	r3, [r7, #24]
 8002204:	f403 3380 	and.w	r3, r3, #65536	; 0x10000
 8002208:	2b00      	cmp	r3, #0
 800220a:	d024      	beq.n	8002256 <HAL_CAN_IRQHandler+0x140>
    {
      /* Clear the Transmission Complete flag (and TXOK2,ALST2,TERR2 bits) */
      __HAL_CAN_CLEAR_FLAG(hcan, CAN_FLAG_RQCP2);
 800220c:	687b      	ldr	r3, [r7, #4]
 800220e:	681b      	ldr	r3, [r3, #0]
 8002210:	f44f 3280 	mov.w	r2, #65536	; 0x10000
 8002214:	609a      	str	r2, [r3, #8]

      if ((tsrflags & CAN_TSR_TXOK2) != 0U)
 8002216:	69bb      	ldr	r3, [r7, #24]
 8002218:	f403 3300 	and.w	r3, r3, #131072	; 0x20000
 800221c:	2b00      	cmp	r3, #0
 800221e:	d003      	beq.n	8002228 <HAL_CAN_IRQHandler+0x112>
#if USE_HAL_CAN_REGISTER_CALLBACKS == 1
        /* Call registered callback*/
        hcan->TxMailbox2CompleteCallback(hcan);
#else
        /* Call weak (surcharged) callback */
        HAL_CAN_TxMailbox2CompleteCallback(hcan);
 8002220:	6878      	ldr	r0, [r7, #4]
 8002222:	f000 f943 	bl	80024ac <HAL_CAN_TxMailbox2CompleteCallback>
 8002226:	e016      	b.n	8002256 <HAL_CAN_IRQHandler+0x140>
#endif /* USE_HAL_CAN_REGISTER_CALLBACKS */
      }
      else
      {
        if ((tsrflags & CAN_TSR_ALST2) != 0U)
 8002228:	69bb      	ldr	r3, [r7, #24]
 800222a:	f403 2380 	and.w	r3, r3, #262144	; 0x40000
 800222e:	2b00      	cmp	r3, #0
 8002230:	d004      	beq.n	800223c <HAL_CAN_IRQHandler+0x126>
        {
          /* Update error code */
          errorcode |= HAL_CAN_ERROR_TX_ALST2;
 8002232:	6a7b      	ldr	r3, [r7, #36]	; 0x24
 8002234:	f443 4300 	orr.w	r3, r3, #32768	; 0x8000
 8002238:	627b      	str	r3, [r7, #36]	; 0x24
 800223a:	e00c      	b.n	8002256 <HAL_CAN_IRQHandler+0x140>
        }
        else if ((tsrflags & CAN_TSR_TERR2) != 0U)
 800223c:	69bb      	ldr	r3, [r7, #24]
 800223e:	f403 2300 	and.w	r3, r3, #524288	; 0x80000
 8002242:	2b00      	cmp	r3, #0
 8002244:	d004      	beq.n	8002250 <HAL_CAN_IRQHandler+0x13a>
        {
          /* Update error code */
          errorcode |= HAL_CAN_ERROR_TX_TERR2;
 8002246:	6a7b      	ldr	r3, [r7, #36]	; 0x24
 8002248:	f443 3380 	orr.w	r3, r3, #65536	; 0x10000
 800224c:	627b      	str	r3, [r7, #36]	; 0x24
 800224e:	e002      	b.n	8002256 <HAL_CAN_IRQHandler+0x140>
#if USE_HAL_CAN_REGISTER_CALLBACKS == 1
          /* Call registered callback*/
          hcan->TxMailbox2AbortCallback(hcan);
#else
          /* Call weak (surcharged) callback */
          HAL_CAN_TxMailbox2AbortCallback(hcan);
 8002250:	6878      	ldr	r0, [r7, #4]
 8002252:	f000 f949 	bl	80024e8 <HAL_CAN_TxMailbox2AbortCallback>
      }
    }
  }

  /* Receive FIFO 0 overrun interrupt management *****************************/
  if ((interrupts & CAN_IT_RX_FIFO0_OVERRUN) != 0U)
 8002256:	6a3b      	ldr	r3, [r7, #32]
 8002258:	f003 0308 	and.w	r3, r3, #8
 800225c:	2b00      	cmp	r3, #0
 800225e:	d00c      	beq.n	800227a <HAL_CAN_IRQHandler+0x164>
  {
    if ((rf0rflags & CAN_RF0R_FOVR0) != 0U)
 8002260:	697b      	ldr	r3, [r7, #20]
 8002262:	f003 0310 	and.w	r3, r3, #16
 8002266:	2b00      	cmp	r3, #0
 8002268:	d007      	beq.n	800227a <HAL_CAN_IRQHandler+0x164>
    {
      /* Set CAN error code to Rx Fifo 0 overrun error */
      errorcode |= HAL_CAN_ERROR_RX_FOV0;
 800226a:	6a7b      	ldr	r3, [r7, #36]	; 0x24
 800226c:	f443 7300 	orr.w	r3, r3, #512	; 0x200
 8002270:	627b      	str	r3, [r7, #36]	; 0x24

      /* Clear FIFO0 Overrun Flag */
      __HAL_CAN_CLEAR_FLAG(hcan, CAN_FLAG_FOV0);
 8002272:	687b      	ldr	r3, [r7, #4]
 8002274:	681b      	ldr	r3, [r3, #0]
 8002276:	2210      	movs	r2, #16
 8002278:	60da      	str	r2, [r3, #12]
    }
  }

  /* Receive FIFO 0 full interrupt management ********************************/
  if ((interrupts & CAN_IT_RX_FIFO0_FULL) != 0U)
 800227a:	6a3b      	ldr	r3, [r7, #32]
 800227c:	f003 0304 	and.w	r3, r3, #4
 8002280:	2b00      	cmp	r3, #0
 8002282:	d00b      	beq.n	800229c <HAL_CAN_IRQHandler+0x186>
  {
    if ((rf0rflags & CAN_RF0R_FULL0) != 0U)
 8002284:	697b      	ldr	r3, [r7, #20]
 8002286:	f003 0308 	and.w	r3, r3, #8
 800228a:	2b00      	cmp	r3, #0
 800228c:	d006      	beq.n	800229c <HAL_CAN_IRQHandler+0x186>
    {
      /* Clear FIFO 0 full Flag */
      __HAL_CAN_CLEAR_FLAG(hcan, CAN_FLAG_FF0);
 800228e:	687b      	ldr	r3, [r7, #4]
 8002290:	681b      	ldr	r3, [r3, #0]
 8002292:	2208      	movs	r2, #8
 8002294:	60da      	str	r2, [r3, #12]
#if USE_HAL_CAN_REGISTER_CALLBACKS == 1
      /* Call registered callback*/
      hcan->RxFifo0FullCallback(hcan);
#else
      /* Call weak (surcharged) callback */
      HAL_CAN_RxFifo0FullCallback(hcan);
 8002296:	6878      	ldr	r0, [r7, #4]
 8002298:	f000 f93a 	bl	8002510 <HAL_CAN_RxFifo0FullCallback>
#endif /* USE_HAL_CAN_REGISTER_CALLBACKS */
    }
  }

  /* Receive FIFO 0 message pending interrupt management *********************/
  if ((interrupts & CAN_IT_RX_FIFO0_MSG_PENDING) != 0U)
 800229c:	6a3b      	ldr	r3, [r7, #32]
 800229e:	f003 0302 	and.w	r3, r3, #2
 80022a2:	2b00      	cmp	r3, #0
 80022a4:	d009      	beq.n	80022ba <HAL_CAN_IRQHandler+0x1a4>
  {
    /* Check if message is still pending */
    if ((hcan->Instance->RF0R & CAN_RF0R_FMP0) != 0U)
 80022a6:	687b      	ldr	r3, [r7, #4]
 80022a8:	681b      	ldr	r3, [r3, #0]
 80022aa:	68db      	ldr	r3, [r3, #12]
 80022ac:	f003 0303 	and.w	r3, r3, #3
 80022b0:	2b00      	cmp	r3, #0
 80022b2:	d002      	beq.n	80022ba <HAL_CAN_IRQHandler+0x1a4>
#if USE_HAL_CAN_REGISTER_CALLBACKS == 1
      /* Call registered callback*/
      hcan->RxFifo0MsgPendingCallback(hcan);
#else
      /* Call weak (surcharged) callback */
      HAL_CAN_RxFifo0MsgPendingCallback(hcan);
 80022b4:	6878      	ldr	r0, [r7, #4]
 80022b6:	f000 f921 	bl	80024fc <HAL_CAN_RxFifo0MsgPendingCallback>
#endif /* USE_HAL_CAN_REGISTER_CALLBACKS */
    }
  }

  /* Receive FIFO 1 overrun interrupt management *****************************/
  if ((interrupts & CAN_IT_RX_FIFO1_OVERRUN) != 0U)
 80022ba:	6a3b      	ldr	r3, [r7, #32]
 80022bc:	f003 0340 	and.w	r3, r3, #64	; 0x40
 80022c0:	2b00      	cmp	r3, #0
 80022c2:	d00c      	beq.n	80022de <HAL_CAN_IRQHandler+0x1c8>
  {
    if ((rf1rflags & CAN_RF1R_FOVR1) != 0U)
 80022c4:	693b      	ldr	r3, [r7, #16]
 80022c6:	f003 0310 	and.w	r3, r3, #16
 80022ca:	2b00      	cmp	r3, #0
 80022cc:	d007      	beq.n	80022de <HAL_CAN_IRQHandler+0x1c8>
    {
      /* Set CAN error code to Rx Fifo 1 overrun error */
      errorcode |= HAL_CAN_ERROR_RX_FOV1;
 80022ce:	6a7b      	ldr	r3, [r7, #36]	; 0x24
 80022d0:	f443 6380 	orr.w	r3, r3, #1024	; 0x400
 80022d4:	627b      	str	r3, [r7, #36]	; 0x24

      /* Clear FIFO1 Overrun Flag */
      __HAL_CAN_CLEAR_FLAG(hcan, CAN_FLAG_FOV1);
 80022d6:	687b      	ldr	r3, [r7, #4]
 80022d8:	681b      	ldr	r3, [r3, #0]
 80022da:	2210      	movs	r2, #16
 80022dc:	611a      	str	r2, [r3, #16]
    }
  }

  /* Receive FIFO 1 full interrupt management ********************************/
  if ((interrupts & CAN_IT_RX_FIFO1_FULL) != 0U)
 80022de:	6a3b      	ldr	r3, [r7, #32]
 80022e0:	f003 0320 	and.w	r3, r3, #32
 80022e4:	2b00      	cmp	r3, #0
 80022e6:	d00b      	beq.n	8002300 <HAL_CAN_IRQHandler+0x1ea>
  {
    if ((rf1rflags & CAN_RF1R_FULL1) != 0U)
 80022e8:	693b      	ldr	r3, [r7, #16]
 80022ea:	f003 0308 	and.w	r3, r3, #8
 80022ee:	2b00      	cmp	r3, #0
 80022f0:	d006      	beq.n	8002300 <HAL_CAN_IRQHandler+0x1ea>
    {
      /* Clear FIFO 1 full Flag */
      __HAL_CAN_CLEAR_FLAG(hcan, CAN_FLAG_FF1);
 80022f2:	687b      	ldr	r3, [r7, #4]
 80022f4:	681b      	ldr	r3, [r3, #0]
 80022f6:	2208      	movs	r2, #8
 80022f8:	611a      	str	r2, [r3, #16]
#if USE_HAL_CAN_REGISTER_CALLBACKS == 1
      /* Call registered callback*/
      hcan->RxFifo1FullCallback(hcan);
#else
      /* Call weak (surcharged) callback */
      HAL_CAN_RxFifo1FullCallback(hcan);
 80022fa:	6878      	ldr	r0, [r7, #4]
 80022fc:	f000 f91c 	bl	8002538 <HAL_CAN_RxFifo1FullCallback>
#endif /* USE_HAL_CAN_REGISTER_CALLBACKS */
    }
  }

  /* Receive FIFO 1 message pending interrupt management *********************/
  if ((interrupts & CAN_IT_RX_FIFO1_MSG_PENDING) != 0U)
 8002300:	6a3b      	ldr	r3, [r7, #32]
 8002302:	f003 0310 	and.w	r3, r3, #16
 8002306:	2b00      	cmp	r3, #0
 8002308:	d009      	beq.n	800231e <HAL_CAN_IRQHandler+0x208>
  {
    /* Check if message is still pending */
    if ((hcan->Instance->RF1R & CAN_RF1R_FMP1) != 0U)
 800230a:	687b      	ldr	r3, [r7, #4]
 800230c:	681b      	ldr	r3, [r3, #0]
 800230e:	691b      	ldr	r3, [r3, #16]
 8002310:	f003 0303 	and.w	r3, r3, #3
 8002314:	2b00      	cmp	r3, #0
 8002316:	d002      	beq.n	800231e <HAL_CAN_IRQHandler+0x208>
#if USE_HAL_CAN_REGISTER_CALLBACKS == 1
      /* Call registered callback*/
      hcan->RxFifo1MsgPendingCallback(hcan);
#else
      /* Call weak (surcharged) callback */
      HAL_CAN_RxFifo1MsgPendingCallback(hcan);
 8002318:	6878      	ldr	r0, [r7, #4]
 800231a:	f000 f903 	bl	8002524 <HAL_CAN_RxFifo1MsgPendingCallback>
#endif /* USE_HAL_CAN_REGISTER_CALLBACKS */
    }
  }

  /* Sleep interrupt management *********************************************/
  if ((interrupts & CAN_IT_SLEEP_ACK) != 0U)
 800231e:	6a3b      	ldr	r3, [r7, #32]
 8002320:	f403 3300 	and.w	r3, r3, #131072	; 0x20000
 8002324:	2b00      	cmp	r3, #0
 8002326:	d00b      	beq.n	8002340 <HAL_CAN_IRQHandler+0x22a>
  {
    if ((msrflags & CAN_MSR_SLAKI) != 0U)
 8002328:	69fb      	ldr	r3, [r7, #28]
 800232a:	f003 0310 	and.w	r3, r3, #16
 800232e:	2b00      	cmp	r3, #0
 8002330:	d006      	beq.n	8002340 <HAL_CAN_IRQHandler+0x22a>
    {
      /* Clear Sleep interrupt Flag */
      __HAL_CAN_CLEAR_FLAG(hcan, CAN_FLAG_SLAKI);
 8002332:	687b      	ldr	r3, [r7, #4]
 8002334:	681b      	ldr	r3, [r3, #0]
 8002336:	2210      	movs	r2, #16
 8002338:	605a      	str	r2, [r3, #4]
#if USE_HAL_CAN_REGISTER_CALLBACKS == 1
      /* Call registered callback*/
      hcan->SleepCallback(hcan);
#else
      /* Call weak (surcharged) callback */
      HAL_CAN_SleepCallback(hcan);
 800233a:	6878      	ldr	r0, [r7, #4]
 800233c:	f000 f906 	bl	800254c <HAL_CAN_SleepCallback>
#endif /* USE_HAL_CAN_REGISTER_CALLBACKS */
    }
  }

  /* WakeUp interrupt management *********************************************/
  if ((interrupts & CAN_IT_WAKEUP) != 0U)
 8002340:	6a3b      	ldr	r3, [r7, #32]
 8002342:	f403 3380 	and.w	r3, r3, #65536	; 0x10000
 8002346:	2b00      	cmp	r3, #0
 8002348:	d00b      	beq.n	8002362 <HAL_CAN_IRQHandler+0x24c>
  {
    if ((msrflags & CAN_MSR_WKUI) != 0U)
 800234a:	69fb      	ldr	r3, [r7, #28]
 800234c:	f003 0308 	and.w	r3, r3, #8
 8002350:	2b00      	cmp	r3, #0
 8002352:	d006      	beq.n	8002362 <HAL_CAN_IRQHandler+0x24c>
    {
      /* Clear WakeUp Flag */
      __HAL_CAN_CLEAR_FLAG(hcan, CAN_FLAG_WKU);
 8002354:	687b      	ldr	r3, [r7, #4]
 8002356:	681b      	ldr	r3, [r3, #0]
 8002358:	2208      	movs	r2, #8
 800235a:	605a      	str	r2, [r3, #4]
#if USE_HAL_CAN_REGISTER_CALLBACKS == 1
      /* Call registered callback*/
      hcan->WakeUpFromRxMsgCallback(hcan);
#else
      /* Call weak (surcharged) callback */
      HAL_CAN_WakeUpFromRxMsgCallback(hcan);
 800235c:	6878      	ldr	r0, [r7, #4]
 800235e:	f000 f8ff 	bl	8002560 <HAL_CAN_WakeUpFromRxMsgCallback>
#endif /* USE_HAL_CAN_REGISTER_CALLBACKS */
    }
  }

  /* Error interrupts management *********************************************/
  if ((interrupts & CAN_IT_ERROR) != 0U)
 8002362:	6a3b      	ldr	r3, [r7, #32]
 8002364:	f403 4300 	and.w	r3, r3, #32768	; 0x8000
 8002368:	2b00      	cmp	r3, #0
 800236a:	d07b      	beq.n	8002464 <HAL_CAN_IRQHandler+0x34e>
  {
    if ((msrflags & CAN_MSR_ERRI) != 0U)
 800236c:	69fb      	ldr	r3, [r7, #28]
 800236e:	f003 0304 	and.w	r3, r3, #4
 8002372:	2b00      	cmp	r3, #0
 8002374:	d072      	beq.n	800245c <HAL_CAN_IRQHandler+0x346>
    {
      /* Check Error Warning Flag */
      if (((interrupts & CAN_IT_ERROR_WARNING) != 0U) &&
 8002376:	6a3b      	ldr	r3, [r7, #32]
 8002378:	f403 7380 	and.w	r3, r3, #256	; 0x100
 800237c:	2b00      	cmp	r3, #0
 800237e:	d008      	beq.n	8002392 <HAL_CAN_IRQHandler+0x27c>
          ((esrflags & CAN_ESR_EWGF) != 0U))
 8002380:	68fb      	ldr	r3, [r7, #12]
 8002382:	f003 0301 	and.w	r3, r3, #1
      if (((interrupts & CAN_IT_ERROR_WARNING) != 0U) &&
 8002386:	2b00      	cmp	r3, #0
 8002388:	d003      	beq.n	8002392 <HAL_CAN_IRQHandler+0x27c>
      {
        /* Set CAN error code to Error Warning */
        errorcode |= HAL_CAN_ERROR_EWG;
 800238a:	6a7b      	ldr	r3, [r7, #36]	; 0x24
 800238c:	f043 0301 	orr.w	r3, r3, #1
 8002390:	627b      	str	r3, [r7, #36]	; 0x24

        /* No need for clear of Error Warning Flag as read-only */
      }

      /* Check Error Passive Flag */
      if (((interrupts & CAN_IT_ERROR_PASSIVE) != 0U) &&
 8002392:	6a3b      	ldr	r3, [r7, #32]
 8002394:	f403 7300 	and.w	r3, r3, #512	; 0x200
 8002398:	2b00      	cmp	r3, #0
 800239a:	d008      	beq.n	80023ae <HAL_CAN_IRQHandler+0x298>
          ((esrflags & CAN_ESR_EPVF) != 0U))
 800239c:	68fb      	ldr	r3, [r7, #12]
 800239e:	f003 0302 	and.w	r3, r3, #2
      if (((interrupts & CAN_IT_ERROR_PASSIVE) != 0U) &&
 80023a2:	2b00      	cmp	r3, #0
 80023a4:	d003      	beq.n	80023ae <HAL_CAN_IRQHandler+0x298>
      {
        /* Set CAN error code to Error Passive */
        errorcode |= HAL_CAN_ERROR_EPV;
 80023a6:	6a7b      	ldr	r3, [r7, #36]	; 0x24
 80023a8:	f043 0302 	orr.w	r3, r3, #2
 80023ac:	627b      	str	r3, [r7, #36]	; 0x24

        /* No need for clear of Error Passive Flag as read-only */
      }

      /* Check Bus-off Flag */
      if (((interrupts & CAN_IT_BUSOFF) != 0U) &&
 80023ae:	6a3b      	ldr	r3, [r7, #32]
 80023b0:	f403 6380 	and.w	r3, r3, #1024	; 0x400
 80023b4:	2b00      	cmp	r3, #0
 80023b6:	d008      	beq.n	80023ca <HAL_CAN_IRQHandler+0x2b4>
          ((esrflags & CAN_ESR_BOFF) != 0U))
 80023b8:	68fb      	ldr	r3, [r7, #12]
 80023ba:	f003 0304 	and.w	r3, r3, #4
      if (((interrupts & CAN_IT_BUSOFF) != 0U) &&
 80023be:	2b00      	cmp	r3, #0
 80023c0:	d003      	beq.n	80023ca <HAL_CAN_IRQHandler+0x2b4>
      {
        /* Set CAN error code to Bus-Off */
        errorcode |= HAL_CAN_ERROR_BOF;
 80023c2:	6a7b      	ldr	r3, [r7, #36]	; 0x24
 80023c4:	f043 0304 	orr.w	r3, r3, #4
 80023c8:	627b      	str	r3, [r7, #36]	; 0x24

        /* No need for clear of Error Bus-Off as read-only */
      }

      /* Check Last Error Code Flag */
      if (((interrupts & CAN_IT_LAST_ERROR_CODE) != 0U) &&
 80023ca:	6a3b      	ldr	r3, [r7, #32]
 80023cc:	f403 6300 	and.w	r3, r3, #2048	; 0x800
 80023d0:	2b00      	cmp	r3, #0
 80023d2:	d043      	beq.n	800245c <HAL_CAN_IRQHandler+0x346>
          ((esrflags & CAN_ESR_LEC) != 0U))
 80023d4:	68fb      	ldr	r3, [r7, #12]
 80023d6:	f003 0370 	and.w	r3, r3, #112	; 0x70
      if (((interrupts & CAN_IT_LAST_ERROR_CODE) != 0U) &&
 80023da:	2b00      	cmp	r3, #0
 80023dc:	d03e      	beq.n	800245c <HAL_CAN_IRQHandler+0x346>
      {
        switch (esrflags & CAN_ESR_LEC)
 80023de:	68fb      	ldr	r3, [r7, #12]
 80023e0:	f003 0370 	and.w	r3, r3, #112	; 0x70
 80023e4:	2b60      	cmp	r3, #96	; 0x60
 80023e6:	d02b      	beq.n	8002440 <HAL_CAN_IRQHandler+0x32a>
 80023e8:	2b60      	cmp	r3, #96	; 0x60
 80023ea:	d82e      	bhi.n	800244a <HAL_CAN_IRQHandler+0x334>
 80023ec:	2b50      	cmp	r3, #80	; 0x50
 80023ee:	d022      	beq.n	8002436 <HAL_CAN_IRQHandler+0x320>
 80023f0:	2b50      	cmp	r3, #80	; 0x50
 80023f2:	d82a      	bhi.n	800244a <HAL_CAN_IRQHandler+0x334>
 80023f4:	2b40      	cmp	r3, #64	; 0x40
 80023f6:	d019      	beq.n	800242c <HAL_CAN_IRQHandler+0x316>
 80023f8:	2b40      	cmp	r3, #64	; 0x40
 80023fa:	d826      	bhi.n	800244a <HAL_CAN_IRQHandler+0x334>
 80023fc:	2b30      	cmp	r3, #48	; 0x30
 80023fe:	d010      	beq.n	8002422 <HAL_CAN_IRQHandler+0x30c>
 8002400:	2b30      	cmp	r3, #48	; 0x30
 8002402:	d822      	bhi.n	800244a <HAL_CAN_IRQHandler+0x334>
 8002404:	2b10      	cmp	r3, #16
 8002406:	d002      	beq.n	800240e <HAL_CAN_IRQHandler+0x2f8>
 8002408:	2b20      	cmp	r3, #32
 800240a:	d005      	beq.n	8002418 <HAL_CAN_IRQHandler+0x302>
          case (CAN_ESR_LEC_2 | CAN_ESR_LEC_1):
            /* Set CAN error code to CRC error */
            errorcode |= HAL_CAN_ERROR_CRC;
            break;
          default:
            break;
 800240c:	e01d      	b.n	800244a <HAL_CAN_IRQHandler+0x334>
            errorcode |= HAL_CAN_ERROR_STF;
 800240e:	6a7b      	ldr	r3, [r7, #36]	; 0x24
 8002410:	f043 0308 	orr.w	r3, r3, #8
 8002414:	627b      	str	r3, [r7, #36]	; 0x24
            break;
 8002416:	e019      	b.n	800244c <HAL_CAN_IRQHandler+0x336>
            errorcode |= HAL_CAN_ERROR_FOR;
 8002418:	6a7b      	ldr	r3, [r7, #36]	; 0x24
 800241a:	f043 0310 	orr.w	r3, r3, #16
 800241e:	627b      	str	r3, [r7, #36]	; 0x24
            break;
 8002420:	e014      	b.n	800244c <HAL_CAN_IRQHandler+0x336>
            errorcode |= HAL_CAN_ERROR_ACK;
 8002422:	6a7b      	ldr	r3, [r7, #36]	; 0x24
 8002424:	f043 0320 	orr.w	r3, r3, #32
 8002428:	627b      	str	r3, [r7, #36]	; 0x24
            break;
 800242a:	e00f      	b.n	800244c <HAL_CAN_IRQHandler+0x336>
            errorcode |= HAL_CAN_ERROR_BR;
 800242c:	6a7b      	ldr	r3, [r7, #36]	; 0x24
 800242e:	f043 0340 	orr.w	r3, r3, #64	; 0x40
 8002432:	627b      	str	r3, [r7, #36]	; 0x24
            break;
 8002434:	e00a      	b.n	800244c <HAL_CAN_IRQHandler+0x336>
            errorcode |= HAL_CAN_ERROR_BD;
 8002436:	6a7b      	ldr	r3, [r7, #36]	; 0x24
 8002438:	f043 0380 	orr.w	r3, r3, #128	; 0x80
 800243c:	627b      	str	r3, [r7, #36]	; 0x24
            break;
 800243e:	e005      	b.n	800244c <HAL_CAN_IRQHandler+0x336>
            errorcode |= HAL_CAN_ERROR_CRC;
 8002440:	6a7b      	ldr	r3, [r7, #36]	; 0x24
 8002442:	f443 7380 	orr.w	r3, r3, #256	; 0x100
 8002446:	627b      	str	r3, [r7, #36]	; 0x24
            break;
 8002448:	e000      	b.n	800244c <HAL_CAN_IRQHandler+0x336>
            break;
 800244a:	bf00      	nop
        }

        /* Clear Last error code Flag */
        CLEAR_BIT(hcan->Instance->ESR, CAN_ESR_LEC);
 800244c:	687b      	ldr	r3, [r7, #4]
 800244e:	681b      	ldr	r3, [r3, #0]
 8002450:	699a      	ldr	r2, [r3, #24]
 8002452:	687b      	ldr	r3, [r7, #4]
 8002454:	681b      	ldr	r3, [r3, #0]
 8002456:	f022 0270 	bic.w	r2, r2, #112	; 0x70
 800245a:	619a      	str	r2, [r3, #24]
      }
    }

    /* Clear ERRI Flag */
    __HAL_CAN_CLEAR_FLAG(hcan, CAN_FLAG_ERRI);
 800245c:	687b      	ldr	r3, [r7, #4]
 800245e:	681b      	ldr	r3, [r3, #0]
 8002460:	2204      	movs	r2, #4
 8002462:	605a      	str	r2, [r3, #4]
  }

  /* Call the Error call Back in case of Errors */
  if (errorcode != HAL_CAN_ERROR_NONE)
 8002464:	6a7b      	ldr	r3, [r7, #36]	; 0x24
 8002466:	2b00      	cmp	r3, #0
 8002468:	d008      	beq.n	800247c <HAL_CAN_IRQHandler+0x366>
  {
    /* Update error code in handle */
    hcan->ErrorCode |= errorcode;
 800246a:	687b      	ldr	r3, [r7, #4]
 800246c:	6a5a      	ldr	r2, [r3, #36]	; 0x24
 800246e:	6a7b      	ldr	r3, [r7, #36]	; 0x24
 8002470:	431a      	orrs	r2, r3
 8002472:	687b      	ldr	r3, [r7, #4]
 8002474:	625a      	str	r2, [r3, #36]	; 0x24
#if USE_HAL_CAN_REGISTER_CALLBACKS == 1
    /* Call registered callback*/
    hcan->ErrorCallback(hcan);
#else
    /* Call weak (surcharged) callback */
    HAL_CAN_ErrorCallback(hcan);
 8002476:	6878      	ldr	r0, [r7, #4]
 8002478:	f000 f87c 	bl	8002574 <HAL_CAN_ErrorCallback>
#endif /* USE_HAL_CAN_REGISTER_CALLBACKS */
  }
}
 800247c:	bf00      	nop
 800247e:	3728      	adds	r7, #40	; 0x28
 8002480:	46bd      	mov	sp, r7
 8002482:	bd80      	pop	{r7, pc}

08002484 <HAL_CAN_TxMailbox0CompleteCallback>:
  * @param  hcan pointer to a CAN_HandleTypeDef structure that contains
  *         the configuration information for the specified CAN.
  * @retval None
  */
__weak void HAL_CAN_TxMailbox0CompleteCallback(CAN_HandleTypeDef *hcan)
{
 8002484:	b480      	push	{r7}
 8002486:	b083      	sub	sp, #12
 8002488:	af00      	add	r7, sp, #0
 800248a:	6078      	str	r0, [r7, #4]

  /* NOTE : This function Should not be modified, when the callback is needed,
            the HAL_CAN_TxMailbox0CompleteCallback could be implemented in the
            user file
   */
}
 800248c:	bf00      	nop
 800248e:	370c      	adds	r7, #12
 8002490:	46bd      	mov	sp, r7
 8002492:	f85d 7b04 	ldr.w	r7, [sp], #4
 8002496:	4770      	bx	lr

08002498 <HAL_CAN_TxMailbox1CompleteCallback>:
  * @param  hcan pointer to a CAN_HandleTypeDef structure that contains
  *         the configuration information for the specified CAN.
  * @retval None
  */
__weak void HAL_CAN_TxMailbox1CompleteCallback(CAN_HandleTypeDef *hcan)
{
 8002498:	b480      	push	{r7}
 800249a:	b083      	sub	sp, #12
 800249c:	af00      	add	r7, sp, #0
 800249e:	6078      	str	r0, [r7, #4]

  /* NOTE : This function Should not be modified, when the callback is needed,
            the HAL_CAN_TxMailbox1CompleteCallback could be implemented in the
            user file
   */
}
 80024a0:	bf00      	nop
 80024a2:	370c      	adds	r7, #12
 80024a4:	46bd      	mov	sp, r7
 80024a6:	f85d 7b04 	ldr.w	r7, [sp], #4
 80024aa:	4770      	bx	lr

080024ac <HAL_CAN_TxMailbox2CompleteCallback>:
  * @param  hcan pointer to a CAN_HandleTypeDef structure that contains
  *         the configuration information for the specified CAN.
  * @retval None
  */
__weak void HAL_CAN_TxMailbox2CompleteCallback(CAN_HandleTypeDef *hcan)
{
 80024ac:	b480      	push	{r7}
 80024ae:	b083      	sub	sp, #12
 80024b0:	af00      	add	r7, sp, #0
 80024b2:	6078      	str	r0, [r7, #4]

  /* NOTE : This function Should not be modified, when the callback is needed,
            the HAL_CAN_TxMailbox2CompleteCallback could be implemented in the
            user file
   */
}
 80024b4:	bf00      	nop
 80024b6:	370c      	adds	r7, #12
 80024b8:	46bd      	mov	sp, r7
 80024ba:	f85d 7b04 	ldr.w	r7, [sp], #4
 80024be:	4770      	bx	lr

080024c0 <HAL_CAN_TxMailbox0AbortCallback>:
  * @param  hcan pointer to an CAN_HandleTypeDef structure that contains
  *         the configuration information for the specified CAN.
  * @retval None
  */
__weak void HAL_CAN_TxMailbox0AbortCallback(CAN_HandleTypeDef *hcan)
{
 80024c0:	b480      	push	{r7}
 80024c2:	b083      	sub	sp, #12
 80024c4:	af00      	add	r7, sp, #0
 80024c6:	6078      	str	r0, [r7, #4]

  /* NOTE : This function Should not be modified, when the callback is needed,
            the HAL_CAN_TxMailbox0AbortCallback could be implemented in the
            user file
   */
}
 80024c8:	bf00      	nop
 80024ca:	370c      	adds	r7, #12
 80024cc:	46bd      	mov	sp, r7
 80024ce:	f85d 7b04 	ldr.w	r7, [sp], #4
 80024d2:	4770      	bx	lr

080024d4 <HAL_CAN_TxMailbox1AbortCallback>:
  * @param  hcan pointer to an CAN_HandleTypeDef structure that contains
  *         the configuration information for the specified CAN.
  * @retval None
  */
__weak void HAL_CAN_TxMailbox1AbortCallback(CAN_HandleTypeDef *hcan)
{
 80024d4:	b480      	push	{r7}
 80024d6:	b083      	sub	sp, #12
 80024d8:	af00      	add	r7, sp, #0
 80024da:	6078      	str	r0, [r7, #4]

  /* NOTE : This function Should not be modified, when the callback is needed,
            the HAL_CAN_TxMailbox1AbortCallback could be implemented in the
            user file
   */
}
 80024dc:	bf00      	nop
 80024de:	370c      	adds	r7, #12
 80024e0:	46bd      	mov	sp, r7
 80024e2:	f85d 7b04 	ldr.w	r7, [sp], #4
 80024e6:	4770      	bx	lr

080024e8 <HAL_CAN_TxMailbox2AbortCallback>:
  * @param  hcan pointer to an CAN_HandleTypeDef structure that contains
  *         the configuration information for the specified CAN.
  * @retval None
  */
__weak void HAL_CAN_TxMailbox2AbortCallback(CAN_HandleTypeDef *hcan)
{
 80024e8:	b480      	push	{r7}
 80024ea:	b083      	sub	sp, #12
 80024ec:	af00      	add	r7, sp, #0
 80024ee:	6078      	str	r0, [r7, #4]

  /* NOTE : This function Should not be modified, when the callback is needed,
            the HAL_CAN_TxMailbox2AbortCallback could be implemented in the
            user file
   */
}
 80024f0:	bf00      	nop
 80024f2:	370c      	adds	r7, #12
 80024f4:	46bd      	mov	sp, r7
 80024f6:	f85d 7b04 	ldr.w	r7, [sp], #4
 80024fa:	4770      	bx	lr

080024fc <HAL_CAN_RxFifo0MsgPendingCallback>:
  * @param  hcan pointer to a CAN_HandleTypeDef structure that contains
  *         the configuration information for the specified CAN.
  * @retval None
  */
__weak void HAL_CAN_RxFifo0MsgPendingCallback(CAN_HandleTypeDef *hcan)
{
 80024fc:	b480      	push	{r7}
 80024fe:	b083      	sub	sp, #12
 8002500:	af00      	add	r7, sp, #0
 8002502:	6078      	str	r0, [r7, #4]

  /* NOTE : This function Should not be modified, when the callback is needed,
            the HAL_CAN_RxFifo0MsgPendingCallback could be implemented in the
            user file
   */
}
 8002504:	bf00      	nop
 8002506:	370c      	adds	r7, #12
 8002508:	46bd      	mov	sp, r7
 800250a:	f85d 7b04 	ldr.w	r7, [sp], #4
 800250e:	4770      	bx	lr

08002510 <HAL_CAN_RxFifo0FullCallback>:
  * @param  hcan pointer to a CAN_HandleTypeDef structure that contains
  *         the configuration information for the specified CAN.
  * @retval None
  */
__weak void HAL_CAN_RxFifo0FullCallback(CAN_HandleTypeDef *hcan)
{
 8002510:	b480      	push	{r7}
 8002512:	b083      	sub	sp, #12
 8002514:	af00      	add	r7, sp, #0
 8002516:	6078      	str	r0, [r7, #4]

  /* NOTE : This function Should not be modified, when the callback is needed,
            the HAL_CAN_RxFifo0FullCallback could be implemented in the user
            file
   */
}
 8002518:	bf00      	nop
 800251a:	370c      	adds	r7, #12
 800251c:	46bd      	mov	sp, r7
 800251e:	f85d 7b04 	ldr.w	r7, [sp], #4
 8002522:	4770      	bx	lr

08002524 <HAL_CAN_RxFifo1MsgPendingCallback>:
  * @param  hcan pointer to a CAN_HandleTypeDef structure that contains
  *         the configuration information for the specified CAN.
  * @retval None
  */
__weak void HAL_CAN_RxFifo1MsgPendingCallback(CAN_HandleTypeDef *hcan)
{
 8002524:	b480      	push	{r7}
 8002526:	b083      	sub	sp, #12
 8002528:	af00      	add	r7, sp, #0
 800252a:	6078      	str	r0, [r7, #4]

  /* NOTE : This function Should not be modified, when the callback is needed,
            the HAL_CAN_RxFifo1MsgPendingCallback could be implemented in the
            user file
   */
}
 800252c:	bf00      	nop
 800252e:	370c      	adds	r7, #12
 8002530:	46bd      	mov	sp, r7
 8002532:	f85d 7b04 	ldr.w	r7, [sp], #4
 8002536:	4770      	bx	lr

08002538 <HAL_CAN_RxFifo1FullCallback>:
  * @param  hcan pointer to a CAN_HandleTypeDef structure that contains
  *         the configuration information for the specified CAN.
  * @retval None
  */
__weak void HAL_CAN_RxFifo1FullCallback(CAN_HandleTypeDef *hcan)
{
 8002538:	b480      	push	{r7}
 800253a:	b083      	sub	sp, #12
 800253c:	af00      	add	r7, sp, #0
 800253e:	6078      	str	r0, [r7, #4]

  /* NOTE : This function Should not be modified, when the callback is needed,
            the HAL_CAN_RxFifo1FullCallback could be implemented in the user
            file
   */
}
 8002540:	bf00      	nop
 8002542:	370c      	adds	r7, #12
 8002544:	46bd      	mov	sp, r7
 8002546:	f85d 7b04 	ldr.w	r7, [sp], #4
 800254a:	4770      	bx	lr

0800254c <HAL_CAN_SleepCallback>:
  * @param  hcan pointer to a CAN_HandleTypeDef structure that contains
  *         the configuration information for the specified CAN.
  * @retval None
  */
__weak void HAL_CAN_SleepCallback(CAN_HandleTypeDef *hcan)
{
 800254c:	b480      	push	{r7}
 800254e:	b083      	sub	sp, #12
 8002550:	af00      	add	r7, sp, #0
 8002552:	6078      	str	r0, [r7, #4]
  UNUSED(hcan);

  /* NOTE : This function Should not be modified, when the callback is needed,
